Component: ARM Compiler 5.06 update 6 (build 750) Tool: armlink [4d35ed]

==============================================================================

Section Cross References

    startup_stm32f103xe.o(RESET) refers to startup_stm32f103xe.o(STACK) for __initial_sp
    startup_stm32f103xe.o(RESET) refers to startup_stm32f103xe.o(.text) for Reset_Handler
    startup_stm32f103xe.o(RESET) refers to stm32f1xx_it.o(i.NMI_Handler) for NMI_Handler
    startup_stm32f103xe.o(RESET) refers to stm32f1xx_it.o(i.HardFault_Handler) for HardFault_Handler
    startup_stm32f103xe.o(RESET) refers to stm32f1xx_it.o(i.MemManage_Handler) for MemManage_Handler
    startup_stm32f103xe.o(RESET) refers to stm32f1xx_it.o(i.BusFault_Handler) for BusFault_Handler
    startup_stm32f103xe.o(RESET) refers to stm32f1xx_it.o(i.UsageFault_Handler) for UsageFault_Handler
    startup_stm32f103xe.o(RESET) refers to port.o(.emb_text) for SVC_Handler
    startup_stm32f103xe.o(RESET) refers to stm32f1xx_it.o(i.DebugMon_Handler) for DebugMon_Handler
    startup_stm32f103xe.o(RESET) refers to stm32f1xx_it.o(i.SysTick_Handler) for SysTick_Handler
    startup_stm32f103xe.o(RESET) refers to stm32f1xx_it.o(i.DMA1_Channel1_IRQHandler) for DMA1_Channel1_IRQHandler
    startup_stm32f103xe.o(RESET) refers to stm32f1xx_it.o(i.DMA1_Channel4_IRQHandler) for DMA1_Channel4_IRQHandler
    startup_stm32f103xe.o(RESET) refers to stm32f1xx_it.o(i.DMA1_Channel5_IRQHandler) for DMA1_Channel5_IRQHandler
    startup_stm32f103xe.o(RESET) refers to stm32f1xx_it.o(i.TIM2_IRQHandler) for TIM2_IRQHandler
    startup_stm32f103xe.o(RESET) refers to stm32f1xx_it.o(i.USART1_IRQHandler) for USART1_IRQHandler
    startup_stm32f103xe.o(.text) refers to system_stm32f1xx.o(i.SystemInit) for SystemInit
    startup_stm32f103xe.o(.text) refers to entry.o(.ARM.Collect$$$$00000000) for __main
    main.o(i.Btn1_ContinuosFree_CallBack) refers to printfa.o(i.__0printf) for __2printf
==============================================================================

Removing Unused input sections from the image.

    Removing startup_stm32f103xe.o(HEAP), (512 bytes).
    Removing main.o(.rev16_text), (4 bytes).
    Removing main.o(.revsh_text), (4 bytes).
    Removing main.o(.rrx_text), (6 bytes).
    Removing main.o(i.Btn2_ContinuosFree_CallBack), (60 bytes).
    Removing main.o(i.Btn2_Continuos_CallBack), (56 bytes).
    Removing main.o(i.Btn2_Double_CallBack), (56 bytes).
    Removing main.o(i.Btn2_Dowm_CallBack), (56 bytes).
    Removing main.o(i.Btn2_Long_CallBack), (56 bytes).
    Removing main.o(i.HAL_SYSTICK_Callback), (2 bytes).
    Removing gpio.o(.rev16_text), (4 bytes).
    Removing gpio.o(.revsh_text), (4 bytes).
    Removing gpio.o(.rrx_text), (6 bytes).
    Removing adc.o(.rev16_text), (4 bytes).
    Removing adc.o(.revsh_text), (4 bytes).
    Removing adc.o(.rrx_text), (6 bytes).
    Removing adc.o(i.HAL_ADC_MspDeInit), (64 bytes).
    Removing dma.o(.rev16_text), (4 bytes).
==============================================================================

Image Symbol Table

    Local Symbols

    Symbol Name                              Value     Ov Type        Size  Object(Section)

    ../Core/Src/adc.c                        0x00000000   Number         0  adc.o ABSOLUTE
    ../Core/Src/dma.c                        0x00000000   Number         0  dma.o ABSOLUTE
    ../Core/Src/gpio.c                       0x00000000   Number         0  gpio.o ABSOLUTE
    ../Core/Src/main.c                       0x00000000   Number         0  main.o ABSOLUTE
    ../Core/Src/stm32f1xx_hal_msp.c          0x00000000   Number         0  stm32f1xx_hal_msp.o ABSOLUTE
    ../Core/Src/stm32f1xx_it.c               0x00000000   Number         0  stm32f1xx_it.o ABSOLUTE
    ../Core/Src/system_stm32f1xx.c           0x00000000   Number         0  system_stm32f1xx.o ABSOLUTE
    ../Core/Src/tim.c                        0x00000000   Number         0  tim.o ABSOLUTE
    ../Core/Src/usart.c                      0x00000000   Number         0  usart.o ABSOLUTE
    ../Drivers/STM32F1xx_HAL_Driver/Src/stm32f1xx_hal.c 0x00000000   Number         0  stm32f1xx_hal.o ABSOLUTE
    ../Drivers/STM32F1xx_HAL_Driver/Src/stm32f1xx_hal_adc.c 0x00000000   Number         0  stm32f1xx_hal_adc.o ABSOLUTE
    ../Drivers/STM32F1xx_HAL_Driver/Src/stm32f1xx_hal_adc_ex.c 0x00000000   Number         0  stm32f1xx_hal_adc_ex.o ABSOLUTE
    ../Drivers/STM32F1xx_HAL_Driver/Src/stm32f1xx_hal_cortex.c 0x00000000   Number         0  stm32f1xx_hal_cortex.o ABSOLUTE
    ../Drivers/STM32F1xx_HAL_Driver/Src/stm32f1xx_hal_dma.c 0x00000000   Number         0  stm32f1xx_hal_dma.o ABSOLUTE
    ../Drivers/STM32F1xx_HAL_Driver/Src/stm32f1xx_hal_exti.c 0x00000000   Number         0  stm32f1xx_hal_exti.o ABSOLUTE
    ../Drivers/STM32F1xx_HAL_Driver/Src/stm32f1xx_hal_flash.c 0x00000000   Number         0  stm32f1xx_hal_flash.o ABSOLUTE
    ../Drivers/STM32F1xx_HAL_Driver/Src/stm32f1xx_hal_flash_ex.c 0x00000000   Number         0  stm32f1xx_hal_flash_ex.o ABSOLUTE
    ../Drivers/STM32F1xx_HAL_Driver/Src/stm32f1xx_hal_gpio.c 0x00000000   Number         0  stm32f1xx_hal_gpio.o ABSOLUTE
    ../Drivers/STM32F1xx_HAL_Driver/Src/stm32f1xx_hal_gpio_ex.c 0x00000000   Number         0  stm32f1xx_hal_gpio_ex.o ABSOLUTE
    ../Drivers/STM32F1xx_HAL_Driver/Src/stm32f1xx_hal_pwr.c 0x00000000   Number         0  stm32f1xx_hal_pwr.o ABSOLUTE
    ../Drivers/STM32F1xx_HAL_Driver/Src/stm32f1xx_hal_rcc.c 0x00000000   Number         0  stm32f1xx_hal_rcc.o ABSOLUTE
    ../Drivers/STM32F1xx_HAL_Driver/Src/stm32f1xx_hal_rcc_ex.c 0x00000000   Number         0  stm32f1xx_hal_rcc_ex.o ABSOLUTE
    ../Drivers/STM32F1xx_HAL_Driver/Src/stm32f1xx_hal_tim.c 0x00000000   Number         0  stm32f1xx_hal_tim.o ABSOLUTE
    ../Drivers/STM32F1xx_HAL_Driver/Src/stm32f1xx_hal_tim_ex.c 0x00000000   Number         0  stm32f1xx_hal_tim_ex.o ABSOLUTE
    ../Drivers/STM32F1xx_HAL_Driver/Src/stm32f1xx_hal_uart.c 0x00000000   Number         0  stm32f1xx_hal_uart.o ABSOLUTE
    ../clib/microlib/ctype/ctype.c           0x00000000   Number         0  isspace_c.o ABSOLUTE
    ../clib/microlib/ctype/ctype.c           0x00000000   Number         0  ctype_c.o ABSOLUTE
    ../clib/microlib/division.c              0x00000000   Number         0  uidiv.o ABSOLUTE
    ../clib/microlib/division.c              0x00000000   Number         0  uldiv.o ABSOLUTE
    ../clib/microlib/errno.c                 0x00000000   Number         0  errno.o ABSOLUTE
    ../clib/microlib/init/entry.s            0x00000000   Number         0  entry9b.o ABSOLUTE
    ../clib/microlib/init/entry.s            0x00000000   Number         0  entry10a.o ABSOLUTE
    ../clib/microlib/init/entry.s            0x00000000   Number         0  entry10b.o ABSOLUTE
    ../clib/microlib/init/entry.s            0x00000000   Number         0  entry11a.o ABSOLUTE
    ../clib/microlib/init/entry.s            0x00000000   Number         0  entry11b.o ABSOLUTE
    ../clib/microlib/init/entry.s            0x00000000   Number         0  entry2.o ABSOLUTE
    ../clib/microlib/init/entry.s            0x00000000   Number         0  entry7a.o ABSOLUTE
    ../clib/microlib/init/entry.s            0x00000000   Number         0  entry7b.o ABSOLUTE
    ../clib/microlib/init/entry.s            0x00000000   Number         0  entry8a.o ABSOLUTE
    ../clib/microlib/init/entry.s            0x00000000   Number         0  entry8b.o ABSOLUTE
    ../clib/microlib/init/entry.s            0x00000000   Number         0  entry5.o ABSOLUTE
    ../clib/microlib/init/entry.s            0x00000000   Number         0  entry9a.o ABSOLUTE
    ../clib/microlib/init/entry.s            0x00000000   Number         0  entry.o ABSOLUTE
    ../clib/microlib/longlong.c              0x00000000   Number         0  llsshr.o ABSOLUTE
    ../clib/microlib/longlong.c              0x00000000   Number         0  llushr.o ABSOLUTE
    ../clib/microlib/longlong.c              0x00000000   Number         0  llshl.o ABSOLUTE
    ../clib/microlib/malloc/malloc.c         0x00000000   Number         0  malloca.o ABSOLUTE
    ../clib/microlib/malloc/malloc.c         0x00000000   Number         0  mallocra.o ABSOLUTE
    ../clib/microlib/malloc/malloc.c         0x00000000   Number         0  malloc.o ABSOLUTE
    ../clib/microlib/malloc/malloc.c         0x00000000   Number         0  mallocr.o ABSOLUTE
    ../clib/microlib/malloc/mvars.c          0x00000000   Number         0  mvars.o ABSOLUTE
    ../clib/microlib/printf/printf.c         0x00000000   Number         0  printf8.o ABSOLUTE
    ../clib/microlib/printf/printf.c         0x00000000   Number         0  printfa.o ABSOLUTE
    ../clib/microlib/printf/printf.c         0x00000000   Number         0  printf7.o ABSOLUTE
    ../clib/microlib/printf/printf.c         0x00000000   Number         0  printf6.o ABSOLUTE
    ../clib/microlib/printf/printf.c         0x00000000   Number         0  printf5.o ABSOLUTE
    ../clib/microlib/printf/printf.c         0x00000000   Number         0  printf4.o ABSOLUTE
    ../clib/microlib/printf/printf.c         0x00000000   Number         0  printf3.o ABSOLUTE
    ../clib/microlib/printf/printf.c         0x00000000   Number         0  printf2.o ABSOLUTE
    ../clib/microlib/printf/printf.c         0x00000000   Number         0  printf1.o ABSOLUTE
    ../clib/microlib/printf/printf.c         0x00000000   Number         0  printf0.o ABSOLUTE
    ../clib/microlib/printf/printf.c         0x00000000   Number         0  printfb.o ABSOLUTE
    ../clib/microlib/printf/stubs.s          0x00000000   Number         0  stubs.o ABSOLUTE
    ../clib/microlib/stdio/fclose.c          0x00000000   Number         0  fclose.o ABSOLUTE
    ../clib/microlib/stdio/fflush.c          0x00000000   Number         0  fflush.o ABSOLUTE
    ../clib/microlib/stdio/fopen.c           0x00000000   Number         0  fopen.o ABSOLUTE
    ../clib/microlib/stdio/fwrite.c          0x00000000   Number         0  fwrite_e.o ABSOLUTE
    ../clib/microlib/stdio/fwrite.c          0x00000000   Number         0  fwrite.o ABSOLUTE
    ../clib/microlib/stdlib/abort.c          0x00000000   Number         0  abort.o ABSOLUTE
    ../clib/microlib/stdlib/qsort.c          0x00000000   Number         0  qsort.o ABSOLUTE
    ../clib/microlib/stdlib/rand.c           0x00000000   Number         0  rand.o ABSOLUTE
    ../clib/microlib/string/memcmp.c         0x00000000   Number         0  memcmp.o ABSOLUTE
    ../clib/microlib/string/memcpy.c         0x00000000   Number         0  memcpya.o ABSOLUTE
    ../clib/microlib/string/memcpy.c         0x00000000   Number         0  memmovea.o ABSOLUTE
    ../clib/microlib/string/memcpy.c         0x00000000   Number         0  memmoveb.o ABSOLUTE
    ../clib/microlib/string/memcpy.c         0x00000000   Number         0  memcpyb.o ABSOLUTE
    ../clib/microlib/string/memset.c         0x00000000   Number         0  memseta.o ABSOLUTE
    ../clib/microlib/string/strchr.c         0x00000000   Number         0  strchr.o ABSOLUTE
    ../clib/microlib/string/strcmp.c         0x00000000   Number         0  strcmp.o ABSOLUTE
    ../clib/microlib/string/strcpy.c         0x00000000   Number         0  strcpy.o ABSOLUTE
    ../clib/microlib/string/strlen.c         0x00000000   Number         0  strlen.o ABSOLUTE
    ../clib/microlib/stubs.s                 0x00000000   Number         0  iusefp.o ABSOLUTE
    ../clib/microlib/stubs.s                 0x00000000   Number         0  useno.o ABSOLUTE
    ../clib/scanf.c                          0x00000000   Number         0  _sgetc.o ABSOLUTE
    ../clib/scanf.c                          0x00000000   Number         0  scanf_fp.o ABSOLUTE
    ../clib/scanf.c                          0x00000000   Number         0  strtod.o ABSOLUTE
    ../fplib/microlib/d2f.c                  0x00000000   Number         0  d2f.o ABSOLUTE
    ../fplib/microlib/f2d.c                  0x00000000   Number         0  f2d.o ABSOLUTE
    ../fplib/microlib/fpadd.c                0x00000000   Number         0  dadd.o ABSOLUTE
    ../fplib/microlib/fpadd.c                0x00000000   Number         0  fadd.o ABSOLUTE
    ../fplib/microlib/fpdiv.c                0x00000000   Number         0  ddiv.o ABSOLUTE
    ../fplib/microlib/fpdiv.c                0x00000000   Number         0  fdiv.o ABSOLUTE
    ../fplib/microlib/fpepilogue.c           0x00000000   Number         0  depilogue.o ABSOLUTE
    ../fplib/microlib/fpepilogue.c           0x00000000   Number         0  fepilogue.o ABSOLUTE
    ../fplib/microlib/fpfix.c                0x00000000   Number         0  dfixul.o ABSOLUTE
    ../fplib/microlib/fpflt.c                0x00000000   Number         0  dfltul.o ABSOLUTE
    ../fplib/microlib/fpflt.c                0x00000000   Number         0  dfltl.o ABSOLUTE
    ../fplib/microlib/fpflt.c                0x00000000   Number         0  ffltui.o ABSOLUTE
    ../fplib/microlib/fpmul.c                0x00000000   Number         0  dmul.o ABSOLUTE
    ../mathlib/strtod.c                      0x00000000   Number         0  strtod.o ABSOLUTE
    ..\Core\Src\adc.c                        0x00000000   Number         0  adc.o ABSOLUTE
    ..\Core\Src\dma.c                        0x00000000   Number         0  dma.o ABSOLUTE
    ..\Core\Src\gpio.c                       0x00000000   Number         0  gpio.o ABSOLUTE
    ..\Core\Src\main.c                       0x00000000   Number         0  main.o ABSOLUTE
    ..\Core\Src\stm32f1xx_hal_msp.c          0x00000000   Number         0  stm32f1xx_hal_msp.o ABSOLUTE
    ..\Core\Src\stm32f1xx_it.c               0x00000000   Number         0  stm32f1xx_it.o ABSOLUTE
    ..\Core\Src\system_stm32f1xx.c           0x00000000   Number         0  system_stm32f1xx.o ABSOLUTE
    ..\Core\Src\tim.c                        0x00000000   Number         0  tim.o ABSOLUTE
    ..\Core\Src\usart.c                      0x00000000   Number         0  usart.o ABSOLUTE
    ..\Drivers\STM32F1xx_HAL_Driver\Src\stm32f1xx_hal.c 0x00000000   Number         0  stm32f1xx_hal.o ABSOLUTE
    ..\Drivers\STM32F1xx_HAL_Driver\Src\stm32f1xx_hal_adc.c 0x00000000   Number         0  stm32f1xx_hal_adc.o ABSOLUTE
    ..\Drivers\STM32F1xx_HAL_Driver\Src\stm32f1xx_hal_adc_ex.c 0x00000000   Number         0  stm32f1xx_hal_adc_ex.o ABSOLUTE
    ..\Drivers\STM32F1xx_HAL_Driver\Src\stm32f1xx_hal_cortex.c 0x00000000   Number         0  stm32f1xx_hal_cortex.o ABSOLUTE
    ..\Drivers\STM32F1xx_HAL_Driver\Src\stm32f1xx_hal_dma.c 0x00000000   Number         0  stm32f1xx_hal_dma.o ABSOLUTE
    ..\Drivers\STM32F1xx_HAL_Driver\Src\stm32f1xx_hal_exti.c 0x00000000   Number         0  stm32f1xx_hal_exti.o ABSOLUTE
    ..\Drivers\STM32F1xx_HAL_Driver\Src\stm32f1xx_hal_flash.c 0x00000000   Number         0  stm32f1xx_hal_flash.o ABSOLUTE
    ..\Drivers\STM32F1xx_HAL_Driver\Src\stm32f1xx_hal_flash_ex.c 0x00000000   Number         0  stm32f1xx_hal_flash_ex.o ABSOLUTE
    ..\Drivers\STM32F1xx_HAL_Driver\Src\stm32f1xx_hal_gpio.c 0x00000000   Number         0  stm32f1xx_hal_gpio.o ABSOLUTE
    ..\Drivers\STM32F1xx_HAL_Driver\Src\stm32f1xx_hal_gpio_ex.c 0x00000000   Number         0  stm32f1xx_hal_gpio_ex.o ABSOLUTE
    ..\Drivers\STM32F1xx_HAL_Driver\Src\stm32f1xx_hal_pwr.c 0x00000000   Number         0  stm32f1xx_hal_pwr.o ABSOLUTE
    ..\Drivers\STM32F1xx_HAL_Driver\Src\stm32f1xx_hal_rcc.c 0x00000000   Number         0  stm32f1xx_hal_rcc.o ABSOLUTE
    ..\Drivers\STM32F1xx_HAL_Driver\Src\stm32f1xx_hal_rcc_ex.c 0x00000000   Number         0  stm32f1xx_hal_rcc_ex.o ABSOLUTE
    ..\Drivers\STM32F1xx_HAL_Driver\Src\stm32f1xx_hal_tim.c 0x00000000   Number         0  stm32f1xx_hal_tim.o ABSOLUTE
    ..\Drivers\STM32F1xx_HAL_Driver\Src\stm32f1xx_hal_tim_ex.c 0x00000000   Number         0  stm32f1xx_hal_tim_ex.o ABSOLUTE
    ..\Drivers\STM32F1xx_HAL_Driver\Src\stm32f1xx_hal_uart.c 0x00000000   Number         0  stm32f1xx_hal_uart.o ABSOLUTE
    ..\Freertos\portable\heap_4.c            0x00000000   Number         0  heap_4.o ABSOLUTE
    ..\Freertos\portable\port.c              0x00000000   Number         0  port.o ABSOLUTE
    ..\Freertos\source\croutine.c            0x00000000   Number         0  croutine.o ABSOLUTE
    ..\Freertos\source\event_groups.c        0x00000000   Number         0  event_groups.o ABSOLUTE
    ..\Freertos\source\list.c                0x00000000   Number         0  list.o ABSOLUTE
    ..\Freertos\source\queue.c               0x00000000   Number         0  queue.o ABSOLUTE
    ..\Freertos\source\tasks.c               0x00000000   Number         0  tasks.o ABSOLUTE
    ..\Freertos\source\timers.c              0x00000000   Number         0  timers.o ABSOLUTE
    ..\Scheduler\scheduler.c                 0x00000000   Number         0  scheduler.o ABSOLUTE
    ..\UserAPP\Src\ALG_SHA1.c                0x00000000   Number         0  alg_sha1.o ABSOLUTE
    ..\UserAPP\Src\MyQueue.c                 0x00000000   Number         0  myqueue.o ABSOLUTE
    ..\UserAPP\Src\UserUart.c                0x00000000   Number         0  useruart.o ABSOLUTE
    ..\UserAPP\Src\bsp_flash.c               0x00000000   Number         0  bsp_flash.o ABSOLUTE
    ..\UserAPP\Src\bsp_iap.c                 0x00000000   Number         0  bsp_iap.o ABSOLUTE
    ..\UserAPP\Src\button.c                  0x00000000   Number         0  button.o ABSOLUTE
    ..\UserAPP\Src\freertos_task.c           0x00000000   Number         0  freertos_task.o ABSOLUTE
    ..\UserAPP\Src\user_isr.c                0x00000000   Number         0  user_isr.o ABSOLUTE
    ..\UserAPP\Src\user_json.c               0x00000000   Number         0  user_json.o ABSOLUTE
    ..\UserAPP\Src\user_uartdma.c            0x00000000   Number         0  user_uartdma.o ABSOLUTE
    ..\\Freertos\\portable\\port.c           0x00000000   Number         0  port.o ABSOLUTE
    ..\\UserAPP\\Src\\MyQueue.c              0x00000000   Number         0  myqueue.o ABSOLUTE
    ..\\UserAPP\\Src\\UserUart.c             0x00000000   Number         0  useruart.o ABSOLUTE
    ..\\UserAPP\\Src\\bsp_flash.c            0x00000000   Number         0  bsp_flash.o ABSOLUTE
    ..\\UserAPP\\Src\\bsp_iap.c              0x00000000   Number         0  bsp_iap.o ABSOLUTE
    ..\\UserAPP\\Src\\button.c               0x00000000   Number         0  button.o ABSOLUTE
    ..\\UserAPP\\Src\\freertos_task.c        0x00000000   Number         0  freertos_task.o ABSOLUTE
    ..\\UserAPP\\Src\\user_isr.c             0x00000000   Number         0  user_isr.o ABSOLUTE
    ..\\UserAPP\\Src\\user_uartdma.c         0x00000000   Number         0  user_uartdma.o ABSOLUTE
    ..\release\jansson-2.7\src\dump.c        0x00000000   Number         0  dump.o ABSOLUTE
    ..\release\jansson-2.7\src\hashtable.c   0x00000000   Number         0  hashtable.o ABSOLUTE
    ..\release\jansson-2.7\src\memory.c      0x00000000   Number         0  memory.o ABSOLUTE
    ..\release\jansson-2.7\src\strbuffer.c   0x00000000   Number         0  strbuffer.o ABSOLUTE
    ..\release\jansson-2.7\src\strconv.c     0x00000000   Number         0  strconv.o ABSOLUTE
    ..\release\jansson-2.7\src\utf.c         0x00000000   Number         0  utf.o ABSOLUTE
    ..\release\jansson-2.7\src\value.c       0x00000000   Number         0  value.o ABSOLUTE
    RTE\Data_Exchange\jansson_config.c       0x00000000   Number         0  jansson_config.o ABSOLUTE
    cdcmple.s                                0x00000000   Number         0  cdcmple.o ABSOLUTE
    cdrcmple.s                               0x00000000   Number         0  cdrcmple.o ABSOLUTE
    dc.s                                     0x00000000   Number         0  dc.o ABSOLUTE
    handlers.s                               0x00000000   Number         0  handlers.o ABSOLUTE
    hashtable_seed.c                         0x00000000   Number         0  hashtable_seed.o ABSOLUTE
    init.s                                   0x00000000   Number         0  init.o ABSOLUTE
    startup_stm32f103xe.s                    0x00000000   Number         0  startup_stm32f103xe.o ABSOLUTE
    RESET                                    0x08000000   Section      304  startup_stm32f103xe.o(RESET)
    .ARM.Collect$$$$00000000                 0x08000130   Section        0  entry.o(.ARM.Collect$$$$00000000)
    .ARM.Collect$$$$00000001                 0x08000130   Section        4  entry2.o(.ARM.Collect$$$$00000001)
    .ARM.Collect$$$$00000004                 0x08000134   Section        4  entry5.o(.ARM.Collect$$$$00000004)
    .ARM.Collect$$$$00000008                 0x08000138   Section        0  entry7b.o(.ARM.Collect$$$$00000008)
    .ARM.Collect$$$$0000000A                 0x08000138   Section        0  entry8b.o(.ARM.Collect$$$$0000000A)
    .ARM.Collect$$$$0000000B                 0x08000138   Section        8  entry9a.o(.ARM.Collect$$$$0000000B)
    .ARM.Collect$$$$0000000D                 0x08000140   Section        0  entry10a.o(.ARM.Collect$$$$0000000D)
    .ARM.Collect$$$$0000000F                 0x08000140   Section        0  entry11a.o(.ARM.Collect$$$$0000000F)
    .ARM.Collect$$$$00002712                 0x08000140   Section        4  entry2.o(.ARM.Collect$$$$00002712)
    __lit__00000000                          0x08000140   Data           4  entry2.o(.ARM.Collect$$$$00002712)
    .emb_text                                0x08000144   Section        6  bsp_iap.o(.emb_text)
    .emb_text                                0x0800014c   Section      150  port.o(.emb_text)
    .text                                    0x080001e4   Section       36  startup_stm32f103xe.o(.text)
    .text                                    0x08000208   Section        0  uidiv.o(.text)
    .text                                    0x08000234   Section        0  llushr.o(.text)
    .text                                    0x08000254   Section        0  rand.o(.text)
    .text                                    0x08000278   Section        0  memmovea.o(.text)
    .text                                    0x080002b8   Section        0  memseta.o(.text)
    .text                                    0x080002dc   Section        0  fadd.o(.text)
    .text                                    0x0800038c   Section        0  fdiv.o(.text)
    .text                                    0x08000408   Section        0  dmul.o(.text)
    .text                                    0x080004ec   Section        0  ffltui.o(.text)
    .text                                    0x080004f6   Section        0  f2d.o(.text)
    .text                                    0x0800051c   Section        0  d2f.o(.text)
    .text                                    0x08000554   Section        0  uldiv.o(.text)
    .text                                    0x080005b6   Section        0  fepilogue.o(.text)
    .text                                    0x080005b6   Section        0  iusefp.o(.text)
    .text                                    0x08000624   Section        0  depilogue.o(.text)
    .text                                    0x080006de   Section        0  dadd.o(.text)
    .text                                    0x0800082c   Section        0  ddiv.o(.text)
    .text                                    0x0800090a   Section        0  dfixul.o(.text)
    .text                                    0x0800093c   Section       48  cdrcmple.o(.text)
    .text                                    0x0800096c   Section       36  init.o(.text)
    .text                                    0x08000990   Section        0  llshl.o(.text)
    .text                                    0x080009ae   Section        0  llsshr.o(.text)
    i.ADC_ConversionStop_Disable             0x080009d2   Section        0  stm32f1xx_hal_adc.o(i.ADC_ConversionStop_Disable)
    i.ADC_DMAConvCplt                        0x08000a2e   Section        0  stm32f1xx_hal_adc.o(i.ADC_DMAConvCplt)
    i.ADC_DMAError                           0x08000a80   Section        0  stm32f1xx_hal_adc.o(i.ADC_DMAError)
    i.ADC_DMAHalfConvCplt                    0x08000a9e   Section        0  stm32f1xx_hal_adc.o(i.ADC_DMAHalfConvCplt)
    i.ADC_Enable                             0x08000aac   Section        0  stm32f1xx_hal_adc.o(i.ADC_Enable)
    i.APPReigion_Erase                       0x08000b3c   Section        0  bsp_iap.o(i.APPReigion_Erase)
    i.APP_UpdateFlag_Read                    0x08000b5c   Section        0  bsp_iap.o(i.APP_UpdateFlag_Read)
    i.APP_UpdateFlag_Write                   0x08000b70   Section        0  bsp_iap.o(i.APP_UpdateFlag_Write)
    i.Add_Button                             0x08000b84   Section        0  button.o(i.Add_Button)
    Add_Button                               0x08000b85   Thumb Code    12  button.o(i.Add_Button)
    i.BSP_FLASH_Read                         0x08000b94   Section        0  bsp_flash.o(i.BSP_FLASH_Read)
    i.BSP_FLASH_ReadHalfWord                 0x08000bb6   Section        0  bsp_flash.o(i.BSP_FLASH_ReadHalfWord)
    i.BSP_FLASH_Write                        0x08000bbc   Section        0  bsp_flash.o(i.BSP_FLASH_Write)
    i.BSP_FLASH_Write_NoCheck                0x08000cb8   Section        0  bsp_flash.o(i.BSP_FLASH_Write_NoCheck)
    i.Btn1_ContinuosFree_CallBack            0x08000ce4   Section        0  main.o(i.Btn1_ContinuosFree_CallBack)
    i.Btn1_Continuos_CallBack                0x08000d20   Section        0  main.o(i.Btn1_Continuos_CallBack)
    i.Btn1_Double_CallBack                   0x08000d58   Section        0  main.o(i.Btn1_Double_CallBack)
    i.Btn1_Dowm_CallBack                     0x08000d90   Section        0  main.o(i.Btn1_Dowm_CallBack)
    i.Btn1_Long_CallBack                     0x08000dc8   Section        0  main.o(i.Btn1_Long_CallBack)
    i.BusFault_Handler                       0x08000e00   Section        0  stm32f1xx_it.o(i.BusFault_Handler)
    i.Button_Attach                          0x08000e04   Section        0  button.o(i.Button_Attach)
    i.Button_Create                          0x08000e2c   Section        0  button.o(i.Button_Create)
    i.Button_Cycle_Process                   0x08000ecc   Section        0  button.o(i.Button_Cycle_Process)
    i.Button_Process                         0x080010c4   Section        0  button.o(i.Button_Process)
    i.DMA1_Channel1_IRQHandler               0x080010e0   Section        0  stm32f1xx_it.o(i.DMA1_Channel1_IRQHandler)
    i.DMA1_Channel4_IRQHandler               0x080010f0   Section        0  stm32f1xx_it.o(i.DMA1_Channel4_IRQHandler)
    i.DMA1_Channel5_IRQHandler               0x08001100   Section        0  stm32f1xx_it.o(i.DMA1_Channel5_IRQHandler)
    i.DMA_SetConfig                          0x08001110   Section        0  stm32f1xx_hal_dma.o(i.DMA_SetConfig)
    DMA_SetConfig                            0x08001111   Thumb Code    44  stm32f1xx_hal_dma.o(i.DMA_SetConfig)
    i.DebugMon_Handler                       0x0800113c   Section        0  stm32f1xx_it.o(i.DebugMon_Handler)
    i.Error_Handler                          0x0800113e   Section        0  main.o(i.Error_Handler)
    i.FLASH_MassErase                        0x08001144   Section        0  stm32f1xx_hal_flash_ex.o(i.FLASH_MassErase)
    FLASH_MassErase                          0x08001145   Thumb Code    30  stm32f1xx_hal_flash_ex.o(i.FLASH_MassErase)
    i.FLASH_PageErase                        0x0800116c   Section        0  stm32f1xx_hal_flash_ex.o(i.FLASH_PageErase)
    i.FLASH_Program_HalfWord                 0x08001194   Section        0  stm32f1xx_hal_flash.o(i.FLASH_Program_HalfWord)
    FLASH_Program_HalfWord                   0x08001195   Thumb Code    22  stm32f1xx_hal_flash.o(i.FLASH_Program_HalfWord)
    i.FLASH_SetErrorCode                     0x080011b4   Section        0  stm32f1xx_hal_flash.o(i.FLASH_SetErrorCode)
    FLASH_SetErrorCode                       0x080011b5   Thumb Code   124  stm32f1xx_hal_flash.o(i.FLASH_SetErrorCode)
    i.FLASH_WaitForLastOperation             0x08001238   Section        0  stm32f1xx_hal_flash.o(i.FLASH_WaitForLastOperation)
    i.Get_Button_Event                       0x080012a8   Section        0  button.o(i.Get_Button_Event)
    i.HAL_ADCEx_Calibration_Start            0x080012b0   Section        0  stm32f1xx_hal_adc_ex.o(i.HAL_ADCEx_Calibration_Start)
    i.HAL_ADC_ConfigChannel                  0x080013c8   Section        0  stm32f1xx_hal_adc.o(i.HAL_ADC_ConfigChannel)
    i.HAL_ADC_ConvCpltCallback               0x08001528   Section        0  stm32f1xx_hal_adc.o(i.HAL_ADC_ConvCpltCallback)
    i.HAL_ADC_ConvHalfCpltCallback           0x0800152a   Section        0  stm32f1xx_hal_adc.o(i.HAL_ADC_ConvHalfCpltCallback)
    i.HAL_ADC_ErrorCallback                  0x0800152c   Section        0  stm32f1xx_hal_adc.o(i.HAL_ADC_ErrorCallback)
    i.HAL_ADC_Init                           0x08001530   Section        0  stm32f1xx_hal_adc.o(i.HAL_ADC_Init)
    i.HAL_ADC_MspInit                        0x08001690   Section        0  adc.o(i.HAL_ADC_MspInit)
    i.HAL_ADC_Start_DMA                      0x08001768   Section        0  stm32f1xx_hal_adc.o(i.HAL_ADC_Start_DMA)
    i.HAL_DMA_Abort                          0x080018e8   Section        0  stm32f1xx_hal_dma.o(i.HAL_DMA_Abort)
    i.HAL_DMA_Abort_IT                       0x08001940   Section        0  stm32f1xx_hal_dma.o(i.HAL_DMA_Abort_IT)
    i.HAL_DMA_IRQHandler                     0x08001ae8   Section        0  stm32f1xx_hal_dma.o(i.HAL_DMA_IRQHandler)
    i.HAL_DMA_Init                           0x08001e80   Section        0  stm32f1xx_hal_dma.o(i.HAL_DMA_Init)
    i.HAL_DMA_Start_IT                       0x08001f0c   Section        0  stm32f1xx_hal_dma.o(i.HAL_DMA_Start_IT)
    i.HAL_Delay                              0x08001fa8   Section        0  stm32f1xx_hal.o(i.HAL_Delay)
    i.HAL_FLASHEx_Erase                      0x08001fd0   Section        0  stm32f1xx_hal_flash_ex.o(i.HAL_FLASHEx_Erase)
    i.HAL_FLASH_Lock                         0x08002080   Section        0  stm32f1xx_hal_flash.o(i.HAL_FLASH_Lock)
    i.HAL_FLASH_Program                      0x08002094   Section        0  stm32f1xx_hal_flash.o(i.HAL_FLASH_Program)
    i.HAL_FLASH_Unlock                       0x08002144   Section        0  stm32f1xx_hal_flash.o(i.HAL_FLASH_Unlock)
    i.HAL_GPIO_Init                          0x08002174   Section        0  stm32f1xx_hal_gpio.o(i.HAL_GPIO_Init)
    i.HAL_GPIO_ReadPin                       0x080024b4   Section        0  stm32f1xx_hal_gpio.o(i.HAL_GPIO_ReadPin)
    i.HAL_GetTick                            0x080024c4   Section        0  stm32f1xx_hal.o(i.HAL_GetTick)
    i.HAL_IncTick                            0x080024d0   Section        0  stm32f1xx_hal.o(i.HAL_IncTick)
    i.HAL_Init                               0x080024e8   Section        0  stm32f1xx_hal.o(i.HAL_Init)
    i.HAL_InitTick                           0x08002510   Section        0  stm32f1xx_hal.o(i.HAL_InitTick)
    i.HAL_MspInit                            0x0800255c   Section        0  stm32f1xx_hal_msp.o(i.HAL_MspInit)
    i.HAL_NVIC_EnableIRQ                     0x080025b0   Section        0  stm32f1xx_hal_cortex.o(i.HAL_NVIC_EnableIRQ)
    i.HAL_NVIC_SetPriority                   0x080025d0   Section        0  stm32f1xx_hal_cortex.o(i.HAL_NVIC_SetPriority)
    i.HAL_NVIC_SetPriorityGrouping           0x0800264c   Section        0  stm32f1xx_hal_cortex.o(i.HAL_NVIC_SetPriorityGrouping)
    i.HAL_RCCEx_GetPeriphCLKFreq             0x08002674   Section        0  stm32f1xx_hal_rcc_ex.o(i.HAL_RCCEx_GetPeriphCLKFreq)
    i.HAL_RCCEx_PeriphCLKConfig              0x080027a8   Section        0  stm32f1xx_hal_rcc_ex.o(i.HAL_RCCEx_PeriphCLKConfig)
    i.HAL_RCC_ClockConfig                    0x080028d8   Section        0  stm32f1xx_hal_rcc.o(i.HAL_RCC_ClockConfig)
    i.HAL_RCC_GetHCLKFreq                    0x08002a64   Section        0  stm32f1xx_hal_rcc.o(i.HAL_RCC_GetHCLKFreq)
    i.HAL_RCC_GetPCLK1Freq                   0x08002a70   Section        0  stm32f1xx_hal_rcc.o(i.HAL_RCC_GetPCLK1Freq)
    i.HAL_RCC_GetPCLK2Freq                   0x08002a90   Section        0  stm32f1xx_hal_rcc.o(i.HAL_RCC_GetPCLK2Freq)
    i.HAL_RCC_GetSysClockFreq                0x08002ab0   Section        0  stm32f1xx_hal_rcc.o(i.HAL_RCC_GetSysClockFreq)
    i.HAL_RCC_OscConfig                      0x08002b44   Section        0  stm32f1xx_hal_rcc.o(i.HAL_RCC_OscConfig)
    i.HAL_SYSTICK_CLKSourceConfig            0x08002fa8   Section        0  stm32f1xx_hal_cortex.o(i.HAL_SYSTICK_CLKSourceConfig)
    i.HAL_SYSTICK_Config                     0x08002fd0   Section        0  stm32f1xx_hal_cortex.o(i.HAL_SYSTICK_Config)
    i.HAL_TIMEx_BreakCallback                0x08003004   Section        0  stm32f1xx_hal_tim_ex.o(i.HAL_TIMEx_BreakCallback)
    i.HAL_TIMEx_CommutCallback               0x08003006   Section        0  stm32f1xx_hal_tim_ex.o(i.HAL_TIMEx_CommutCallback)
    i.HAL_TIMEx_MasterConfigSynchronization  0x08003008   Section        0  stm32f1xx_hal_tim_ex.o(i.HAL_TIMEx_MasterConfigSynchronization)
    i.HAL_TIM_Base_Init                      0x080030a4   Section        0  stm32f1xx_hal_tim.o(i.HAL_TIM_Base_Init)
    i.HAL_TIM_Base_MspInit                   0x0800310c   Section        0  tim.o(i.HAL_TIM_Base_MspInit)
    i.HAL_TIM_ConfigClockSource              0x0800314c   Section        0  stm32f1xx_hal_tim.o(i.HAL_TIM_ConfigClockSource)
    i.HAL_TIM_IC_CaptureCallback             0x08003254   Section        0  stm32f1xx_hal_tim.o(i.HAL_TIM_IC_CaptureCallback)
    i.HAL_TIM_IRQHandler                     0x08003256   Section        0  stm32f1xx_hal_tim.o(i.HAL_TIM_IRQHandler)
    i.HAL_TIM_MspPostInit                    0x080033ec   Section        0  tim.o(i.HAL_TIM_MspPostInit)
    i.HAL_TIM_OC_DelayElapsedCallback        0x08003440   Section        0  stm32f1xx_hal_tim.o(i.HAL_TIM_OC_DelayElapsedCallback)
    i.HAL_TIM_PWM_ConfigChannel              0x08003442   Section        0  stm32f1xx_hal_tim.o(i.HAL_TIM_PWM_ConfigChannel)
    i.HAL_TIM_PWM_Init                       0x0800353e   Section        0  stm32f1xx_hal_tim.o(i.HAL_TIM_PWM_Init)
    i.HAL_TIM_PWM_MspInit                    0x080035a4   Section        0  stm32f1xx_hal_tim.o(i.HAL_TIM_PWM_MspInit)
    i.HAL_TIM_PWM_PulseFinishedCallback      0x080035a6   Section        0  stm32f1xx_hal_tim.o(i.HAL_TIM_PWM_PulseFinishedCallback)
    i.HAL_TIM_PeriodElapsedCallback          0x080035a8   Section        0  stm32f1xx_hal_tim.o(i.HAL_TIM_PeriodElapsedCallback)
    i.HAL_TIM_TriggerCallback                0x080035aa   Section        0  stm32f1xx_hal_tim.o(i.HAL_TIM_TriggerCallback)
    i.HAL_UARTEx_RxEventCallback             0x080035ac   Section        0  stm32f1xx_hal_uart.o(i.HAL_UARTEx_RxEventCallback)
    i.HAL_UART_DMAStop                       0x080035ae   Section        0  stm32f1xx_hal_uart.o(i.HAL_UART_DMAStop)
    i.HAL_UART_ErrorCallback                 0x08003614   Section        0  stm32f1xx_hal_uart.o(i.HAL_UART_ErrorCallback)
    i.HAL_UART_IRQHandler                    0x08003618   Section        0  stm32f1xx_hal_uart.o(i.HAL_UART_IRQHandler)
    i.HAL_UART_Init                          0x08003864   Section        0  stm32f1xx_hal_uart.o(i.HAL_UART_Init)
    i.HAL_UART_MspInit                       0x080038d8   Section        0  usart.o(i.HAL_UART_MspInit)
    i.HAL_UART_Receive_DMA                   0x080039e8   Section        0  stm32f1xx_hal_uart.o(i.HAL_UART_Receive_DMA)
    i.HAL_UART_RxCpltCallback                0x08003a2a   Section        0  useruart.o(i.HAL_UART_RxCpltCallback)
    i.HAL_UART_RxHalfCpltCallback            0x08003a2c   Section        0  stm32f1xx_hal_uart.o(i.HAL_UART_RxHalfCpltCallback)
    i.HAL_UART_TxCpltCallback                0x08003a2e   Section        0  stm32f1xx_hal_uart.o(i.HAL_UART_TxCpltCallback)
    i.HardFault_Handler                      0x08003a30   Section        0  stm32f1xx_it.o(i.HardFault_Handler)
    i.IAP_ExecuteApp                         0x08003a34   Section        0  bsp_iap.o(i.IAP_ExecuteApp)
    i.IAP_WriteBin                           0x08003a54   Section        0  bsp_iap.o(i.IAP_WriteBin)
    i.IAP_WriteBinToAPPReigon                0x08003abc   Section        0  bsp_iap.o(i.IAP_WriteBinToAPPReigon)
    i.IAP_WriteBin_Init                      0x08003b08   Section        0  bsp_iap.o(i.IAP_WriteBin_Init)
    i.Key_ScanTask                           0x08003b1c   Section        0  main.o(i.Key_ScanTask)
    i.MX_ADC1_Init                           0x08003b28   Section        0  adc.o(i.MX_ADC1_Init)
    i.MX_DMA_Init                            0x08003bc8   Section        0  dma.o(i.MX_DMA_Init)
    i.MX_GPIO_Init                           0x08003c1c   Section        0  gpio.o(i.MX_GPIO_Init)
    i.MX_TIM2_Init                           0x08003cb4   Section        0  tim.o(i.MX_TIM2_Init)
    i.MX_USART1_UART_Init                    0x08003d5c   Section        0  usart.o(i.MX_USART1_UART_Init)
    i.MemManage_Handler                      0x08003d94   Section        0  stm32f1xx_it.o(i.MemManage_Handler)
    i.NMI_Handler                            0x08003d98   Section        0  stm32f1xx_it.o(i.NMI_Handler)
    i.Print_Btn_Info                         0x08003d9c   Section        0  button.o(i.Print_Btn_Info)
    Print_Btn_Info                           0x08003d9d   Thumb Code    10  button.o(i.Print_Btn_Info)
    i.RCC_Delay                              0x08003da8   Section        0  stm32f1xx_hal_rcc.o(i.RCC_Delay)
    RCC_Delay                                0x08003da9   Thumb Code    36  stm32f1xx_hal_rcc.o(i.RCC_Delay)
    i.Read_KEY1_Level                        0x08003dd0   Section        0  main.o(i.Read_KEY1_Level)
    i.SCH_Add_Task                           0x08003de0   Section        0  scheduler.o(i.SCH_Add_Task)
    i.Search_Button                          0x08003e2c   Section        0  button.o(i.Search_Button)
    i.StrnCopy                               0x08003e40   Section        0  button.o(i.StrnCopy)
    StrnCopy                                 0x08003e41   Thumb Code    52  button.o(i.StrnCopy)
    i.SysTick_Handler                        0x08003e74   Section        0  stm32f1xx_it.o(i.SysTick_Handler)
    i.SystemClock_Config                     0x08003e88   Section        0  main.o(i.SystemClock_Config)
    i.SystemInit                             0x08003f0a   Section        0  system_stm32f1xx.o(i.SystemInit)
    i.Systick_Config                         0x08003f0c   Section        0  main.o(i.Systick_Config)
    Systick_Config                           0x08003f0d   Thumb Code    38  main.o(i.Systick_Config)
    i.TIM2_IRQHandler                        0x08003f34   Section        0  stm32f1xx_it.o(i.TIM2_IRQHandler)
    i.TIM_Base_SetConfig                     0x08003f44   Section        0  stm32f1xx_hal_tim.o(i.TIM_Base_SetConfig)
    i.TIM_ETR_SetConfig                      0x08003fe0   Section        0  stm32f1xx_hal_tim.o(i.TIM_ETR_SetConfig)
    i.TIM_ITRx_SetConfig                     0x08003ff6   Section        0  stm32f1xx_hal_tim.o(i.TIM_ITRx_SetConfig)
    TIM_ITRx_SetConfig                       0x08003ff7   Thumb Code    18  stm32f1xx_hal_tim.o(i.TIM_ITRx_SetConfig)
    i.TIM_OC1_SetConfig                      0x08004008   Section        0  stm32f1xx_hal_tim.o(i.TIM_OC1_SetConfig)
    TIM_OC1_SetConfig                        0x08004009   Thumb Code   104  stm32f1xx_hal_tim.o(i.TIM_OC1_SetConfig)
    i.TIM_OC2_SetConfig                      0x08004078   Section        0  stm32f1xx_hal_tim.o(i.TIM_OC2_SetConfig)
    i.TIM_OC3_SetConfig                      0x080040f4   Section        0  stm32f1xx_hal_tim.o(i.TIM_OC3_SetConfig)
    TIM_OC3_SetConfig                        0x080040f5   Thumb Code   112  stm32f1xx_hal_tim.o(i.TIM_OC3_SetConfig)
    i.TIM_OC4_SetConfig                      0x0800416c   Section        0  stm32f1xx_hal_tim.o(i.TIM_OC4_SetConfig)
    TIM_OC4_SetConfig                        0x0800416d   Thumb Code    74  stm32f1xx_hal_tim.o(i.TIM_OC4_SetConfig)
    i.TIM_TI1_ConfigInputStage               0x080041c0   Section        0  stm32f1xx_hal_tim.o(i.TIM_TI1_ConfigInputStage)
    TIM_TI1_ConfigInputStage                 0x080041c1   Thumb Code    38  stm32f1xx_hal_tim.o(i.TIM_TI1_ConfigInputStage)
    i.TIM_TI2_ConfigInputStage               0x080041e6   Section        0  stm32f1xx_hal_tim.o(i.TIM_TI2_ConfigInputStage)
    TIM_TI2_ConfigInputStage                 0x080041e7   Thumb Code    40  stm32f1xx_hal_tim.o(i.TIM_TI2_ConfigInputStage)
    i.Task_02                                0x08004210   Section        0  main.o(i.Task_02)
    i.UART_DMAAbortOnError                   0x080042f4   Section        0  stm32f1xx_hal_uart.o(i.UART_DMAAbortOnError)
    UART_DMAAbortOnError                     0x080042f5   Thumb Code    20  stm32f1xx_hal_uart.o(i.UART_DMAAbortOnError)
    i.UART_DMAError                          0x08004308   Section        0  stm32f1xx_hal_uart.o(i.UART_DMAError)
    UART_DMAError                            0x08004309   Thumb Code    80  stm32f1xx_hal_uart.o(i.UART_DMAError)
    i.UART_DMAReceiveCplt                    0x08004358   Section        0  stm32f1xx_hal_uart.o(i.UART_DMAReceiveCplt)
    UART_DMAReceiveCplt                      0x08004359   Thumb Code   104  stm32f1xx_hal_uart.o(i.UART_DMAReceiveCplt)
    i.UART_DMARxHalfCplt                     0x080043c0   Section        0  stm32f1xx_hal_uart.o(i.UART_DMARxHalfCplt)
    UART_DMARxHalfCplt                       0x080043c1   Thumb Code    32  stm32f1xx_hal_uart.o(i.UART_DMARxHalfCplt)
    i.UART_EndRxTransfer                     0x080043e0   Section        0  stm32f1xx_hal_uart.o(i.UART_EndRxTransfer)
    UART_EndRxTransfer                       0x080043e1   Thumb Code    54  stm32f1xx_hal_uart.o(i.UART_EndRxTransfer)
    i.UART_EndTransmit_IT                    0x08004416   Section        0  stm32f1xx_hal_uart.o(i.UART_EndTransmit_IT)
    UART_EndTransmit_IT                      0x08004417   Thumb Code    32  stm32f1xx_hal_uart.o(i.UART_EndTransmit_IT)
    i.UART_EndTxTransfer                     0x08004436   Section        0  stm32f1xx_hal_uart.o(i.UART_EndTxTransfer)
    UART_EndTxTransfer                       0x08004437   Thumb Code    20  stm32f1xx_hal_uart.o(i.UART_EndTxTransfer)
    i.UART_Receive_IT                        0x0800444a   Section        0  stm32f1xx_hal_uart.o(i.UART_Receive_IT)
    UART_Receive_IT                          0x0800444b   Thumb Code   228  stm32f1xx_hal_uart.o(i.UART_Receive_IT)
    i.UART_SetConfig                         0x08004530   Section        0  stm32f1xx_hal_uart.o(i.UART_SetConfig)
    UART_SetConfig                           0x08004531   Thumb Code   248  stm32f1xx_hal_uart.o(i.UART_SetConfig)
    i.UART_Start_Receive_DMA                 0x0800462c   Section        0  stm32f1xx_hal_uart.o(i.UART_Start_Receive_DMA)
    i.UART_Transmit_IT                       0x080046c4   Section        0  stm32f1xx_hal_uart.o(i.UART_Transmit_IT)
    UART_Transmit_IT                         0x080046c5   Thumb Code    96  stm32f1xx_hal_uart.o(i.UART_Transmit_IT)
    i.USART1_IRQHandler                      0x08004724   Section        0  stm32f1xx_it.o(i.USART1_IRQHandler)
    i.UsageFault_Handler                     0x080047ac   Section        0  stm32f1xx_it.o(i.UsageFault_Handler)
    i.UserAPP_TaskCreate                     0x080047b0   Section        0  freertos_task.o(i.UserAPP_TaskCreate)
    i.User_uartdma_Init                      0x0800484c   Section        0  user_uartdma.o(i.User_uartdma_Init)
    i.__0printf                              0x0800488c   Section        0  printfa.o(i.__0printf)
    i.__NVIC_GetPriorityGrouping             0x080048ac   Section        0  stm32f1xx_hal_cortex.o(i.__NVIC_GetPriorityGrouping)
    __NVIC_GetPriorityGrouping               0x080048ad   Thumb Code    10  stm32f1xx_hal_cortex.o(i.__NVIC_GetPriorityGrouping)
    i.__NVIC_SetPriority                     0x080048bc   Section        0  stm32f1xx_hal_cortex.o(i.__NVIC_SetPriority)
    __NVIC_SetPriority                       0x080048bd   Thumb Code    32  stm32f1xx_hal_cortex.o(i.__NVIC_SetPriority)
    i.__scatterload_copy                     0x080048e4   Section       14  handlers.o(i.__scatterload_copy)
    i.__scatterload_null                     0x080048f2   Section        2  handlers.o(i.__scatterload_null)
    i.__scatterload_zeroinit                 0x080048f4   Section       14  handlers.o(i.__scatterload_zeroinit)
    i._fp_digits                             0x08004904   Section        0  printfa.o(i._fp_digits)
    _fp_digits                               0x08004905   Thumb Code   366  printfa.o(i._fp_digits)
    i._printf_core                           0x08004a88   Section        0  printfa.o(i._printf_core)
    _printf_core                             0x08004a89   Thumb Code  1744  printfa.o(i._printf_core)
    i._printf_post_padding                   0x08005164   Section        0  printfa.o(i._printf_post_padding)
    _printf_post_padding                     0x08005165   Thumb Code    36  printfa.o(i._printf_post_padding)
    i._printf_pre_padding                    0x08005188   Section        0  printfa.o(i._printf_pre_padding)
    _printf_pre_padding                      0x08005189   Thumb Code    46  printfa.o(i._printf_pre_padding)
    i.fputc                                  0x080051b8   Section        0  usart.o(i.fputc)
    i.main                                   0x080051d4   Section        0  main.o(i.main)
    i.prvAddCurrentTaskToDelayedList         0x0800555c   Section        0  tasks.o(i.prvAddCurrentTaskToDelayedList)
    prvAddCurrentTaskToDelayedList           0x0800555d   Thumb Code   164  tasks.o(i.prvAddCurrentTaskToDelayedList)
    i.prvAddNewTaskToReadyList               0x0800561c   Section        0  tasks.o(i.prvAddNewTaskToReadyList)
    prvAddNewTaskToReadyList                 0x0800561d   Thumb Code   206  tasks.o(i.prvAddNewTaskToReadyList)
    i.prvCheckTasksWaitingTermination        0x08005708   Section        0  tasks.o(i.prvCheckTasksWaitingTermination)
    prvCheckTasksWaitingTermination          0x08005709   Thumb Code    60  tasks.o(i.prvCheckTasksWaitingTermination)
    i.prvCopyDataFromQueue                   0x08005750   Section        0  queue.o(i.prvCopyDataFromQueue)
    prvCopyDataFromQueue                     0x08005751   Thumb Code    42  queue.o(i.prvCopyDataFromQueue)
    i.prvCopyDataToQueue                     0x0800577a   Section        0  queue.o(i.prvCopyDataToQueue)
    prvCopyDataToQueue                       0x0800577b   Thumb Code   126  queue.o(i.prvCopyDataToQueue)
    i.prvDeleteTCB                           0x080057f8   Section        0  tasks.o(i.prvDeleteTCB)
    prvDeleteTCB                             0x080057f9   Thumb Code    18  tasks.o(i.prvDeleteTCB)
    i.prvHeapInit                            0x0800580c   Section        0  heap_4.o(i.prvHeapInit)
    prvHeapInit                              0x0800580d   Thumb Code    98  heap_4.o(i.prvHeapInit)
    i.prvIdleTask                            0x08005888   Section        0  tasks.o(i.prvIdleTask)
    prvIdleTask                              0x08005889   Thumb Code    32  tasks.o(i.prvIdleTask)
    i.prvInitialiseMutex                     0x080058b0   Section        0  queue.o(i.prvInitialiseMutex)
    prvInitialiseMutex                       0x080058b1   Thumb Code    30  queue.o(i.prvInitialiseMutex)
    i.prvInitialiseNewQueue                  0x080058ce   Section        0  queue.o(i.prvInitialiseNewQueue)
    prvInitialiseNewQueue                    0x080058cf   Thumb Code    42  queue.o(i.prvInitialiseNewQueue)
    i.prvInitialiseNewTask                   0x080058f8   Section        0  tasks.o(i.prvInitialiseNewTask)
    prvInitialiseNewTask                     0x080058f9   Thumb Code   224  tasks.o(i.prvInitialiseNewTask)
    i.prvInitialiseTaskLists                 0x080059d8   Section        0  tasks.o(i.prvInitialiseTaskLists)
    prvInitialiseTaskLists                   0x080059d9   Thumb Code    70  tasks.o(i.prvInitialiseTaskLists)
    i.prvInsertBlockIntoFreeList             0x08005a40   Section        0  heap_4.o(i.prvInsertBlockIntoFreeList)
    prvInsertBlockIntoFreeList               0x08005a41   Thumb Code    96  heap_4.o(i.prvInsertBlockIntoFreeList)
    i.prvIsQueueEmpty                        0x08005aa8   Section        0  queue.o(i.prvIsQueueEmpty)
    prvIsQueueEmpty                          0x08005aa9   Thumb Code    26  queue.o(i.prvIsQueueEmpty)
    i.prvIsQueueFull                         0x08005ac2   Section        0  queue.o(i.prvIsQueueFull)
    prvIsQueueFull                           0x08005ac3   Thumb Code    30  queue.o(i.prvIsQueueFull)
    i.prvPrintTask                           0x08005ae0   Section        0  freertos_task.o(i.prvPrintTask)
    prvPrintTask                             0x08005ae1   Thumb Code   160  freertos_task.o(i.prvPrintTask)
    i.prvResetNextTaskUnblockTime            0x08005ba8   Section        0  tasks.o(i.prvResetNextTaskUnblockTime)
    prvResetNextTaskUnblockTime              0x08005ba9   Thumb Code    40  tasks.o(i.prvResetNextTaskUnblockTime)
    i.prvStdioGatekeeperTask                 0x08005bd8   Section        0  freertos_task.o(i.prvStdioGatekeeperTask)
    prvStdioGatekeeperTask                   0x08005bd9   Thumb Code    34  freertos_task.o(i.prvStdioGatekeeperTask)
    i.prvTaskExitError                       0x08005c08   Section        0  port.o(i.prvTaskExitError)
    prvTaskExitError                         0x08005c09   Thumb Code    60  port.o(i.prvTaskExitError)
    i.prvUnlockQueue                         0x08005c48   Section        0  queue.o(i.prvUnlockQueue)
    prvUnlockQueue                           0x08005c49   Thumb Code   126  queue.o(i.prvUnlockQueue)
    i.pvPortMalloc                           0x08005cc8   Section        0  heap_4.o(i.pvPortMalloc)
    i.pxPortInitialiseStack                  0x08005e34   Section        0  port.o(i.pxPortInitialiseStack)
    i.uxListRemove                           0x08005e58   Section        0  list.o(i.uxListRemove)
    i.vApplicationTickHook                   0x08005e80   Section        0  freertos_task.o(i.vApplicationTickHook)
    i.vListInitialise                        0x08005ea0   Section        0  list.o(i.vListInitialise)
    i.vListInitialiseItem                    0x08005eba   Section        0  list.o(i.vListInitialiseItem)
    i.vListInsert                            0x08005ec0   Section        0  list.o(i.vListInsert)
    i.vPortEnterCritical                     0x08005ef4   Section        0  port.o(i.vPortEnterCritical)
    i.vPortExitCritical                      0x08005f48   Section        0  port.o(i.vPortExitCritical)
    i.vPortFree                              0x08005f84   Section        0  heap_4.o(i.vPortFree)
    i.vPortSetupTimerInterrupt               0x08006028   Section        0  port.o(i.vPortSetupTimerInterrupt)
    i.vTaskDelay                             0x08006050   Section        0  tasks.o(i.vTaskDelay)
    i.vTaskInternalSetTimeOutState           0x080060ac   Section        0  tasks.o(i.vTaskInternalSetTimeOutState)
    i.vTaskMissedYield                       0x080060c4   Section        0  tasks.o(i.vTaskMissedYield)
    i.vTaskPlaceOnEventList                  0x080060d0   Section        0  tasks.o(i.vTaskPlaceOnEventList)
    i.vTaskStartScheduler                    0x08006108   Section        0  tasks.o(i.vTaskStartScheduler)
    i.vTaskSuspendAll                        0x08006198   Section        0  tasks.o(i.vTaskSuspendAll)
    i.vTaskSwitchContext                     0x080061a8   Section        0  tasks.o(i.vTaskSwitchContext)
    i.xPortStartScheduler                    0x08006234   Section        0  port.o(i.xPortStartScheduler)
    i.xPortSysTickHandler                    0x0800632c   Section        0  port.o(i.xPortSysTickHandler)
    i.xQueueCreateMutex                      0x08006360   Section        0  queue.o(i.xQueueCreateMutex)
    i.xQueueGenericCreate                    0x08006382   Section        0  queue.o(i.xQueueGenericCreate)
    i.xQueueGenericReset                     0x080063e8   Section        0  queue.o(i.xQueueGenericReset)
    i.xQueueGenericSend                      0x080064c4   Section        0  queue.o(i.xQueueGenericSend)
    i.xQueueReceive                          0x0800666c   Section        0  queue.o(i.xQueueReceive)
    i.xTaskCheckForTimeOut                   0x080067d4   Section        0  tasks.o(i.xTaskCheckForTimeOut)
    i.xTaskCreate                            0x08006864   Section        0  tasks.o(i.xTaskCreate)
    i.xTaskGetSchedulerState                 0x080068c4   Section        0  tasks.o(i.xTaskGetSchedulerState)
    i.xTaskIncrementTick                     0x080068e4   Section        0  tasks.o(i.xTaskIncrementTick)
    i.xTaskPriorityDisinherit                0x08006aac   Section        0  tasks.o(i.xTaskPriorityDisinherit)
    i.xTaskRemoveFromEventList               0x08006b9c   Section        0  tasks.o(i.xTaskRemoveFromEventList)
    i.xTaskResumeAll                         0x08006cbc   Section        0  tasks.o(i.xTaskResumeAll)
    .constdata                               0x08006e34   Section       24  system_stm32f1xx.o(.constdata)
    .conststring                             0x08006e4c   Section      128  freertos_task.o(.conststring)
    .data                                    0x20000000   Section        4  usart.o(.data)
    .data                                    0x20000004   Section        9  stm32f1xx_hal.o(.data)
    .data                                    0x20000010   Section        4  system_stm32f1xx.o(.data)
    .data                                    0x20000014   Section        2  bsp_iap.o(.data)
    .data                                    0x20000018   Section        4  button.o(.data)
    Head_Button                              0x20000018   Data           4  button.o(.data)
    .data                                    0x2000001c   Section       24  freertos_task.o(.data)
    pcStringsToPrint                         0x20000024   Data          12  freertos_task.o(.data)
    iCount                                   0x20000030   Data           4  freertos_task.o(.data)
    .data                                    0x20000034   Section       64  tasks.o(.data)
    pxDelayedTaskList                        0x20000038   Data           4  tasks.o(.data)
    pxOverflowDelayedTaskList                0x2000003c   Data           4  tasks.o(.data)
    uxDeletedTasksWaitingCleanUp             0x20000040   Data           4  tasks.o(.data)
    uxCurrentNumberOfTasks                   0x20000044   Data           4  tasks.o(.data)
    xTickCount                               0x20000048   Data           4  tasks.o(.data)
    uxTopReadyPriority                       0x2000004c   Data           4  tasks.o(.data)
    xSchedulerRunning                        0x20000050   Data           4  tasks.o(.data)
    xPendedTicks                             0x20000054   Data           4  tasks.o(.data)
    xYieldPending                            0x20000058   Data           4  tasks.o(.data)
    xNumOfOverflows                          0x2000005c   Data           4  tasks.o(.data)
    uxTaskNumber                             0x20000060   Data           4  tasks.o(.data)
    xNextTaskUnblockTime                     0x20000064   Data           4  tasks.o(.data)
    xIdleTaskHandle                          0x20000068   Data           4  tasks.o(.data)
    uxSchedulerSuspended                     0x20000070   Data           4  tasks.o(.data)
    .data                                    0x20000074   Section       32  heap_4.o(.data)
    xStart                                   0x20000074   Data           8  heap_4.o(.data)
    pxEnd                                    0x2000007c   Data           4  heap_4.o(.data)
    xFreeBytesRemaining                      0x20000080   Data           4  heap_4.o(.data)
    xMinimumEverFreeBytesRemaining           0x20000084   Data           4  heap_4.o(.data)
    xNumberOfSuccessfulAllocations           0x20000088   Data           4  heap_4.o(.data)
    xNumberOfSuccessfulFrees                 0x2000008c   Data           4  heap_4.o(.data)
    xBlockAllocatedBit                       0x20000090   Data           4  heap_4.o(.data)
    .data                                    0x20000094   Section       12  port.o(.data)
    uxCriticalNesting                        0x20000094   Data           4  port.o(.data)
    ucMaxSysCallPriority                     0x20000098   Data           1  port.o(.data)
    ulMaxPRIGROUPValue                       0x2000009c   Data           4  port.o(.data)
    .data                                    0x200000a0   Section        4  rand.o(.data)
    _rand_state                              0x200000a0   Data           4  rand.o(.data)
    .bss                                     0x200000a4   Section     2224  main.o(.bss)
    STMFLASH_BUF                             0x200000a4   Data        2048  main.o(.bss)
    EraseInitStruct                          0x200008a4   Data          16  main.o(.bss)
    .bss                                     0x20000954   Section      116  adc.o(.bss)
    .bss                                     0x200009c8   Section       72  tim.o(.bss)
    .bss                                     0x20000a10   Section      204  usart.o(.bss)
    .bss                                     0x20000ae0   Section       32  stm32f1xx_hal_flash.o(.bss)
    .bss                                     0x20000b00   Section       80  freertos_task.o(.bss)
    .bss                                     0x20000b50   Section       60  scheduler.o(.bss)
    SCH_tasks_g                              0x20000b50   Data          60  scheduler.o(.bss)
    .bss                                     0x20000b8c   Section      240  tasks.o(.bss)
    pxReadyTasksLists                        0x20000b8c   Data         140  tasks.o(.bss)
    xDelayedTaskList1                        0x20000c18   Data          20  tasks.o(.bss)
    xDelayedTaskList2                        0x20000c2c   Data          20  tasks.o(.bss)
    xPendingReadyList                        0x20000c40   Data          20  tasks.o(.bss)
    xTasksWaitingTermination                 0x20000c54   Data          20  tasks.o(.bss)
    xSuspendedTaskList                       0x20000c68   Data          20  tasks.o(.bss)
    .ARM.__AT_0x20001000                     0x20001000   Section     1002  bsp_iap.o(.ARM.__AT_0x20001000)
    .bss                                     0x200013ec   Section     4112  bsp_iap.o(.bss)
    STMFLASH_BUF                             0x200013ec   Data        2048  bsp_iap.o(.bss)
    EraseInitStruct                          0x20001bec   Data          16  bsp_iap.o(.bss)
    ulBuf_Flash_App                          0x20001bfc   Data        2048  bsp_iap.o(.bss)
    .bss                                     0x200023fc   Section     2064  bsp_flash.o(.bss)
    STMFLASH_BUF                             0x200023fc   Data        2048  bsp_flash.o(.bss)
    EraseInitStruct                          0x20002bfc   Data          16  bsp_flash.o(.bss)
    .bss                                     0x20002c0c   Section     3088  user_uartdma.o(.bss)
    .bss                                     0x2000381c   Section    20480  heap_4.o(.bss)
    ucHeap                                   0x2000381c   Data       20480  heap_4.o(.bss)
    STACK                                    0x20008820   Section     1024  startup_stm32f103xe.o(STACK)

    Global Symbols

    Symbol Name                              Value     Ov Type        Size  Object(Section)

    BuildAttributes$$THM_ISAv4$P$D$K$B$S$PE$A:L22UL41UL21$X:L11$S22US41US21$IEEE1$IW$USESV6$~STKCKD$USESV7$~SHL$OTIME$ROPI$IEEEJ$EBA8$MICROLIB$REQ8$PRES8$EABIv2 0x00000000   Number         0  anon$$obj.o ABSOLUTE
    __ARM_use_no_argv                        0x00000000   Number         0  main.o ABSOLUTE
    __use_no_errno                           0x00000000   Number         0  useno.o ABSOLUTE
    __use_no_exception_handling              0x00000000   Number         0  useno.o ABSOLUTE
    __use_no_fp                              0x00000000   Number         0  useno.o ABSOLUTE
    __use_no_heap                            0x00000000   Number         0  useno.o ABSOLUTE
    __use_no_heap_region                     0x00000000   Number         0  useno.o ABSOLUTE
    __use_no_semihosting                     0x00000000   Number         0  useno.o ABSOLUTE
    __use_no_semihosting_swi                 0x00000000   Number         0  useno.o ABSOLUTE
    __use_no_signal_handling                 0x00000000   Number         0  useno.o ABSOLUTE
    _printf_a                                0x00000000   Number         0  stubs.o ABSOLUTE
    _printf_c                                0x00000000   Number         0  stubs.o ABSOLUTE
    _printf_charcount                        0x00000000   Number         0  stubs.o ABSOLUTE
    _printf_d                                0x00000000   Number         0  stubs.o ABSOLUTE
    _printf_e                                0x00000000   Number         0  stubs.o ABSOLUTE
    _printf_f                                0x00000000   Number         0  stubs.o ABSOLUTE
    _printf_flags                            0x00000000   Number         0  stubs.o ABSOLUTE
    _printf_fp_dec                           0x00000000   Number         0  stubs.o ABSOLUTE
    _printf_fp_hex                           0x00000000   Number         0  stubs.o ABSOLUTE
    _printf_g                                0x00000000   Number         0  stubs.o ABSOLUTE
    _printf_i                                0x00000000   Number         0  stubs.o ABSOLUTE
    _printf_int_dec                          0x00000000   Number         0  stubs.o ABSOLUTE
    _printf_l                                0x00000000   Number         0  stubs.o ABSOLUTE
    _printf_lc                               0x00000000   Number         0  stubs.o ABSOLUTE
    _printf_ll                               0x00000000   Number         0  stubs.o ABSOLUTE
    _printf_lld                              0x00000000   Number         0  stubs.o ABSOLUTE
    _printf_lli                              0x00000000   Number         0  stubs.o ABSOLUTE
    _printf_llo                              0x00000000   Number         0  stubs.o ABSOLUTE
    _printf_llu                              0x00000000   Number         0  stubs.o ABSOLUTE
    _printf_llx                              0x00000000   Number         0  stubs.o ABSOLUTE
    _printf_longlong_dec                     0x00000000   Number         0  stubs.o ABSOLUTE
    _printf_longlong_hex                     0x00000000   Number         0  stubs.o ABSOLUTE
    _printf_longlong_oct                     0x00000000   Number         0  stubs.o ABSOLUTE
    _printf_ls                               0x00000000   Number         0  stubs.o ABSOLUTE
    _printf_mbtowc                           0x00000000   Number         0  stubs.o ABSOLUTE
    _printf_n                                0x00000000   Number         0  stubs.o ABSOLUTE
    _printf_o                                0x00000000   Number         0  stubs.o ABSOLUTE
    _printf_p                                0x00000000   Number         0  stubs.o ABSOLUTE
    _printf_percent                          0x00000000   Number         0  stubs.o ABSOLUTE
    _printf_pre_padding                      0x00000000   Number         0  stubs.o ABSOLUTE
    _printf_return_value                     0x00000000   Number         0  stubs.o ABSOLUTE
    _printf_s                                0x00000000   Number         0  stubs.o ABSOLUTE
    _printf_sizespec                         0x00000000   Number         0  stubs.o ABSOLUTE
    _printf_str                              0x00000000   Number         0  stubs.o ABSOLUTE
    _printf_truncate_signed                  0x00000000   Number         0  stubs.o ABSOLUTE
    _printf_truncate_unsigned                0x00000000   Number         0  stubs.o ABSOLUTE
    _printf_u                                0x00000000   Number         0  stubs.o ABSOLUTE
    _printf_wc                               0x00000000   Number         0  stubs.o ABSOLUTE
    _printf_wctomb                           0x00000000   Number         0  stubs.o ABSOLUTE
    _printf_widthprec                        0x00000000   Number         0  stubs.o ABSOLUTE
    _printf_x                                0x00000000   Number         0  stubs.o ABSOLUTE
    __cpp_initialize__aeabi_                  - Undefined Weak Reference
    __cxa_finalize                            - Undefined Weak Reference
    __decompress                              - Undefined Weak Reference
    _clock_init                               - Undefined Weak Reference
    _microlib_exit                            - Undefined Weak Reference
    __Vectors_Size                           0x00000130   Number         0  startup_stm32f103xe.o ABSOLUTE
    __Vectors                                0x08000000   Data           4  startup_stm32f103xe.o(RESET)
    __Vectors_End                            0x08000130   Data           0  startup_stm32f103xe.o(RESET)
    __main                                   0x08000131   Thumb Code     0  entry.o(.ARM.Collect$$$$00000000)
    _main_stk                                0x08000131   Thumb Code     0  entry2.o(.ARM.Collect$$$$00000001)
    _main_scatterload                        0x08000135   Thumb Code     0  entry5.o(.ARM.Collect$$$$00000004)
    __main_after_scatterload                 0x08000139   Thumb Code     0  entry5.o(.ARM.Collect$$$$00000004)
    _main_clock                              0x08000139   Thumb Code     0  entry7b.o(.ARM.Collect$$$$00000008)
    _main_cpp_init                           0x08000139   Thumb Code     0  entry8b.o(.ARM.Collect$$$$0000000A)
    _main_init                               0x08000139   Thumb Code     0  entry9a.o(.ARM.Collect$$$$0000000B)
    __rt_final_cpp                           0x08000141   Thumb Code     0  entry10a.o(.ARM.Collect$$$$0000000D)
    __rt_final_exit                          0x08000141   Thumb Code     0  entry11a.o(.ARM.Collect$$$$0000000F)
    MSR_MSP                                  0x08000145   Thumb Code     6  bsp_iap.o(.emb_text)
    SVC_Handler                              0x0800014d   Thumb Code    32  port.o(.emb_text)
    __asm___6_port_c_39a90d8d__prvStartFirstTask 0x08000171   Thumb Code    28  port.o(.emb_text)
    PendSV_Handler                           0x08000191   Thumb Code    72  port.o(.emb_text)
    vPortGetIPSR                             0x080001dd   Thumb Code     6  port.o(.emb_text)
    Reset_Handler                            0x080001e5   Thumb Code     8  startup_stm32f103xe.o(.text)
    ADC1_2_IRQHandler                        0x080001ff   Thumb Code     0  startup_stm32f103xe.o(.text)
    ADC3_IRQHandler                          0x080001ff   Thumb Code     0  startup_stm32f103xe.o(.text)
    CAN1_RX1_IRQHandler                      0x080001ff   Thumb Code     0  startup_stm32f103xe.o(.text)
    CAN1_SCE_IRQHandler                      0x080001ff   Thumb Code     0  startup_stm32f103xe.o(.text)
    DMA1_Channel2_IRQHandler                 0x080001ff   Thumb Code     0  startup_stm32f103xe.o(.text)
    DMA1_Channel3_IRQHandler                 0x080001ff   Thumb Code     0  startup_stm32f103xe.o(.text)
    DMA1_Channel6_IRQHandler                 0x080001ff   Thumb Code     0  startup_stm32f103xe.o(.text)
    DMA1_Channel7_IRQHandler                 0x080001ff   Thumb Code     0  startup_stm32f103xe.o(.text)
    DMA2_Channel1_IRQHandler                 0x080001ff   Thumb Code     0  startup_stm32f103xe.o(.text)
    DMA2_Channel2_IRQHandler                 0x080001ff   Thumb Code     0  startup_stm32f103xe.o(.text)
    DMA2_Channel3_IRQHandler                 0x080001ff   Thumb Code     0  startup_stm32f103xe.o(.text)
    DMA2_Channel4_5_IRQHandler               0x080001ff   Thumb Code     0  startup_stm32f103xe.o(.text)
    EXTI0_IRQHandler                         0x080001ff   Thumb Code     0  startup_stm32f103xe.o(.text)
    EXTI15_10_IRQHandler                     0x080001ff   Thumb Code     0  startup_stm32f103xe.o(.text)
    EXTI1_IRQHandler                         0x080001ff   Thumb Code     0  startup_stm32f103xe.o(.text)
    EXTI2_IRQHandler                         0x080001ff   Thumb Code     0  startup_stm32f103xe.o(.text)
    EXTI3_IRQHandler                         0x080001ff   Thumb Code     0  startup_stm32f103xe.o(.text)
    EXTI4_IRQHandler                         0x080001ff   Thumb Code     0  startup_stm32f103xe.o(.text)
    EXTI9_5_IRQHandler                       0x080001ff   Thumb Code     0  startup_stm32f103xe.o(.text)
    FLASH_IRQHandler                         0x080001ff   Thumb Code     0  startup_stm32f103xe.o(.text)
    FSMC_IRQHandler                          0x080001ff   Thumb Code     0  startup_stm32f103xe.o(.text)
    I2C1_ER_IRQHandler                       0x080001ff   Thumb Code     0  startup_stm32f103xe.o(.text)
    I2C1_EV_IRQHandler                       0x080001ff   Thumb Code     0  startup_stm32f103xe.o(.text)
    I2C2_ER_IRQHandler                       0x080001ff   Thumb Code     0  startup_stm32f103xe.o(.text)
    I2C2_EV_IRQHandler                       0x080001ff   Thumb Code     0  startup_stm32f103xe.o(.text)
    PVD_IRQHandler                           0x080001ff   Thumb Code     0  startup_stm32f103xe.o(.text)
    RCC_IRQHandler                           0x080001ff   Thumb Code     0  startup_stm32f103xe.o(.text)
    RTC_Alarm_IRQHandler                     0x080001ff   Thumb Code     0  startup_stm32f103xe.o(.text)
    RTC_IRQHandler                           0x080001ff   Thumb Code     0  startup_stm32f103xe.o(.text)
    SDIO_IRQHandler                          0x080001ff   Thumb Code     0  startup_stm32f103xe.o(.text)
    SPI1_IRQHandler                          0x080001ff   Thumb Code     0  startup_stm32f103xe.o(.text)
    SPI2_IRQHandler                          0x080001ff   Thumb Code     0  startup_stm32f103xe.o(.text)
    SPI3_IRQHandler                          0x080001ff   Thumb Code     0  startup_stm32f103xe.o(.text)
    TAMPER_IRQHandler                        0x080001ff   Thumb Code     0  startup_stm32f103xe.o(.text)
    TIM1_BRK_IRQHandler                      0x080001ff   Thumb Code     0  startup_stm32f103xe.o(.text)
    TIM1_CC_IRQHandler                       0x080001ff   Thumb Code     0  startup_stm32f103xe.o(.text)
    TIM1_TRG_COM_IRQHandler                  0x080001ff   Thumb Code     0  startup_stm32f103xe.o(.text)
    TIM1_UP_IRQHandler                       0x080001ff   Thumb Code     0  startup_stm32f103xe.o(.text)
    TIM3_IRQHandler                          0x080001ff   Thumb Code     0  startup_stm32f103xe.o(.text)
    TIM4_IRQHandler                          0x080001ff   Thumb Code     0  startup_stm32f103xe.o(.text)
    TIM5_IRQHandler                          0x080001ff   Thumb Code     0  startup_stm32f103xe.o(.text)
    TIM6_IRQHandler                          0x080001ff   Thumb Code     0  startup_stm32f103xe.o(.text)
    TIM7_IRQHandler                          0x080001ff   Thumb Code     0  startup_stm32f103xe.o(.text)
    TIM8_BRK_IRQHandler                      0x080001ff   Thumb Code     0  startup_stm32f103xe.o(.text)
    TIM8_CC_IRQHandler                       0x080001ff   Thumb Code     0  startup_stm32f103xe.o(.text)
    TIM8_TRG_COM_IRQHandler                  0x080001ff   Thumb Code     0  startup_stm32f103xe.o(.text)
    TIM8_UP_IRQHandler                       0x080001ff   Thumb Code     0  startup_stm32f103xe.o(.text)
    UART4_IRQHandler                         0x080001ff   Thumb Code     0  startup_stm32f103xe.o(.text)
    UART5_IRQHandler                         0x080001ff   Thumb Code     0  startup_stm32f103xe.o(.text)
    USART2_IRQHandler                        0x080001ff   Thumb Code     0  startup_stm32f103xe.o(.text)
    USART3_IRQHandler                        0x080001ff   Thumb Code     0  startup_stm32f103xe.o(.text)
    USBWakeUp_IRQHandler                     0x080001ff   Thumb Code     0  startup_stm32f103xe.o(.text)
    USB_HP_CAN1_TX_IRQHandler                0x080001ff   Thumb Code     0  startup_stm32f103xe.o(.text)
    USB_LP_CAN1_RX0_IRQHandler               0x080001ff   Thumb Code     0  startup_stm32f103xe.o(.text)
    WWDG_IRQHandler                          0x080001ff   Thumb Code     0  startup_stm32f103xe.o(.text)
    __aeabi_uidiv                            0x08000209   Thumb Code     0  uidiv.o(.text)
    __aeabi_uidivmod                         0x08000209   Thumb Code    44  uidiv.o(.text)
    __aeabi_llsr                             0x08000235   Thumb Code    32  llushr.o(.text)
    _ll_ushift_r                             0x08000235   Thumb Code     0  llushr.o(.text)
    rand                                     0x08000255   Thumb Code    20  rand.o(.text)
    srand                                    0x08000269   Thumb Code     6  rand.o(.text)
    ___aeabi_memcpy8$move                    0x08000279   Thumb Code     0  memmovea.o(.text)
    __aeabi_memcpy                           0x08000279   Thumb Code    64  memmovea.o(.text)
    __aeabi_memcpy4                          0x08000279   Thumb Code     0  memmovea.o(.text)
    __aeabi_memmove                          0x08000279   Thumb Code     0  memmovea.o(.text)
    __aeabi_memmove4                         0x08000279   Thumb Code     0  memmovea.o(.text)
    __aeabi_memmove8                         0x08000279   Thumb Code     0  memmovea.o(.text)
    __aeabi_memset                           0x080002b9   Thumb Code    14  memseta.o(.text)
    __aeabi_memset4                          0x080002b9   Thumb Code     0  memseta.o(.text)
    __aeabi_memset8                          0x080002b9   Thumb Code     0  memseta.o(.text)
    __aeabi_memclr                           0x080002c7   Thumb Code     4  memseta.o(.text)
    __aeabi_memclr4                          0x080002c7   Thumb Code     0  memseta.o(.text)
    __aeabi_memclr8                          0x080002c7   Thumb Code     0  memseta.o(.text)
    _memset$wrapper                          0x080002cb   Thumb Code    18  memseta.o(.text)
    __aeabi_fadd                             0x080002dd   Thumb Code   164  fadd.o(.text)
    __aeabi_fsub                             0x08000381   Thumb Code     6  fadd.o(.text)
    __aeabi_frsub                            0x08000387   Thumb Code     6  fadd.o(.text)
    __aeabi_fdiv                             0x0800038d   Thumb Code   124  fdiv.o(.text)
    __aeabi_dmul                             0x08000409   Thumb Code   228  dmul.o(.text)
    __aeabi_ui2f                             0x080004ed   Thumb Code    10  ffltui.o(.text)
    __aeabi_f2d                              0x080004f7   Thumb Code    38  f2d.o(.text)
    __aeabi_d2f                              0x0800051d   Thumb Code    56  d2f.o(.text)
    __aeabi_uldivmod                         0x08000555   Thumb Code    98  uldiv.o(.text)
    __I$use$fp                               0x080005b7   Thumb Code     0  iusefp.o(.text)
    _float_round                             0x080005b7   Thumb Code    18  fepilogue.o(.text)
    _float_epilogue                          0x080005c9   Thumb Code    92  fepilogue.o(.text)
    _double_round                            0x08000625   Thumb Code    30  depilogue.o(.text)
    _double_epilogue                         0x08000643   Thumb Code   156  depilogue.o(.text)
    __aeabi_dadd                             0x080006df   Thumb Code   322  dadd.o(.text)
    __aeabi_dsub                             0x08000821   Thumb Code     6  dadd.o(.text)
    __aeabi_drsub                            0x08000827   Thumb Code     6  dadd.o(.text)
    __aeabi_ddiv                             0x0800082d   Thumb Code   222  ddiv.o(.text)
    __aeabi_d2ulz                            0x0800090b   Thumb Code    48  dfixul.o(.text)
    __aeabi_cdrcmple                         0x0800093d   Thumb Code    48  cdrcmple.o(.text)
    __scatterload                            0x0800096d   Thumb Code    28  init.o(.text)
    __scatterload_rt2                        0x0800096d   Thumb Code     0  init.o(.text)
    __aeabi_llsl                             0x08000991   Thumb Code    30  llshl.o(.text)
    _ll_shift_l                              0x08000991   Thumb Code     0  llshl.o(.text)
    __aeabi_lasr                             0x080009af   Thumb Code    36  llsshr.o(.text)
    _ll_sshift_r                             0x080009af   Thumb Code     0  llsshr.o(.text)
    ADC_ConversionStop_Disable               0x080009d3   Thumb Code    92  stm32f1xx_hal_adc.o(i.ADC_ConversionStop_Disable)
    ADC_DMAConvCplt                          0x08000a2f   Thumb Code    82  stm32f1xx_hal_adc.o(i.ADC_DMAConvCplt)
    ADC_DMAError                             0x08000a81   Thumb Code    30  stm32f1xx_hal_adc.o(i.ADC_DMAError)
    ADC_DMAHalfConvCplt                      0x08000a9f   Thumb Code    14  stm32f1xx_hal_adc.o(i.ADC_DMAHalfConvCplt)
    ADC_Enable                               0x08000aad   Thumb Code   134  stm32f1xx_hal_adc.o(i.ADC_Enable)
    APPReigion_Erase                         0x08000b3d   Thumb Code    28  bsp_iap.o(i.APPReigion_Erase)
    APP_UpdateFlag_Read                      0x08000b5d   Thumb Code    20  bsp_iap.o(i.APP_UpdateFlag_Read)
    APP_UpdateFlag_Write                     0x08000b71   Thumb Code    18  bsp_iap.o(i.APP_UpdateFlag_Write)
    BSP_FLASH_Read                           0x08000b95   Thumb Code    34  bsp_flash.o(i.BSP_FLASH_Read)
    BSP_FLASH_ReadHalfWord                   0x08000bb7   Thumb Code     6  bsp_flash.o(i.BSP_FLASH_ReadHalfWord)
    BSP_FLASH_Write                          0x08000bbd   Thumb Code   240  bsp_flash.o(i.BSP_FLASH_Write)
    BSP_FLASH_Write_NoCheck                  0x08000cb9   Thumb Code    44  bsp_flash.o(i.BSP_FLASH_Write_NoCheck)
    Btn1_ContinuosFree_CallBack              0x08000ce5   Thumb Code    22  main.o(i.Btn1_ContinuosFree_CallBack)
    Btn1_Continuos_CallBack                  0x08000d21   Thumb Code    22  main.o(i.Btn1_Continuos_CallBack)
    Btn1_Double_CallBack                     0x08000d59   Thumb Code    22  main.o(i.Btn1_Double_CallBack)
    Btn1_Dowm_CallBack                       0x08000d91   Thumb Code    22  main.o(i.Btn1_Dowm_CallBack)
    Btn1_Long_CallBack                       0x08000dc9   Thumb Code    22  main.o(i.Btn1_Long_CallBack)
    BusFault_Handler                         0x08000e01   Thumb Code     4  stm32f1xx_it.o(i.BusFault_Handler)
    Button_Attach                            0x08000e05   Thumb Code    38  button.o(i.Button_Attach)
    Button_Create                            0x08000e2d   Thumb Code   118  button.o(i.Button_Create)
    Button_Cycle_Process                     0x08000ecd   Thumb Code   504  button.o(i.Button_Cycle_Process)
    Button_Process                           0x080010c5   Thumb Code    22  button.o(i.Button_Process)
    DMA1_Channel1_IRQHandler                 0x080010e1   Thumb Code    10  stm32f1xx_it.o(i.DMA1_Channel1_IRQHandler)
    DMA1_Channel4_IRQHandler                 0x080010f1   Thumb Code    10  stm32f1xx_it.o(i.DMA1_Channel4_IRQHandler)
    DMA1_Channel5_IRQHandler                 0x08001101   Thumb Code    10  stm32f1xx_it.o(i.DMA1_Channel5_IRQHandler)
    DebugMon_Handler                         0x0800113d   Thumb Code     2  stm32f1xx_it.o(i.DebugMon_Handler)
    Error_Handler                            0x0800113f   Thumb Code     6  main.o(i.Error_Handler)
    FLASH_PageErase                          0x0800116d   Thumb Code    32  stm32f1xx_hal_flash_ex.o(i.FLASH_PageErase)
    FLASH_WaitForLastOperation               0x08001239   Thumb Code   106  stm32f1xx_hal_flash.o(i.FLASH_WaitForLastOperation)
    Get_Button_Event                         0x080012a9   Thumb Code     8  button.o(i.Get_Button_Event)
    HAL_ADCEx_Calibration_Start              0x080012b1   Thumb Code   276  stm32f1xx_hal_adc_ex.o(i.HAL_ADCEx_Calibration_Start)
    HAL_ADC_ConfigChannel                    0x080013c9   Thumb Code   338  stm32f1xx_hal_adc.o(i.HAL_ADC_ConfigChannel)
    HAL_ADC_ConvCpltCallback                 0x08001529   Thumb Code     2  stm32f1xx_hal_adc.o(i.HAL_ADC_ConvCpltCallback)
    HAL_ADC_ConvHalfCpltCallback             0x0800152b   Thumb Code     2  stm32f1xx_hal_adc.o(i.HAL_ADC_ConvHalfCpltCallback)
    HAL_ADC_ErrorCallback                    0x0800152d   Thumb Code     2  stm32f1xx_hal_adc.o(i.HAL_ADC_ErrorCallback)
    HAL_ADC_Init                             0x08001531   Thumb Code   340  stm32f1xx_hal_adc.o(i.HAL_ADC_Init)
    HAL_ADC_MspInit                          0x08001691   Thumb Code   192  adc.o(i.HAL_ADC_MspInit)
    HAL_ADC_Start_DMA                        0x08001769   Thumb Code   362  stm32f1xx_hal_adc.o(i.HAL_ADC_Start_DMA)
    HAL_DMA_Abort                            0x080018e9   Thumb Code    86  stm32f1xx_hal_dma.o(i.HAL_DMA_Abort)
    HAL_DMA_Abort_IT                         0x08001941   Thumb Code   414  stm32f1xx_hal_dma.o(i.HAL_DMA_Abort_IT)
    HAL_DMA_IRQHandler                       0x08001ae9   Thumb Code   910  stm32f1xx_hal_dma.o(i.HAL_DMA_IRQHandler)
    HAL_DMA_Init                             0x08001e81   Thumb Code   132  stm32f1xx_hal_dma.o(i.HAL_DMA_Init)
    HAL_DMA_Start_IT                         0x08001f0d   Thumb Code   156  stm32f1xx_hal_dma.o(i.HAL_DMA_Start_IT)
    HAL_Delay                                0x08001fa9   Thumb Code    36  stm32f1xx_hal.o(i.HAL_Delay)
    HAL_FLASHEx_Erase                        0x08001fd1   Thumb Code   168  stm32f1xx_hal_flash_ex.o(i.HAL_FLASHEx_Erase)
    HAL_FLASH_Lock                           0x08002081   Thumb Code    16  stm32f1xx_hal_flash.o(i.HAL_FLASH_Lock)
    HAL_FLASH_Program                        0x08002095   Thumb Code   168  stm32f1xx_hal_flash.o(i.HAL_FLASH_Program)
    HAL_FLASH_Unlock                         0x08002145   Thumb Code    36  stm32f1xx_hal_flash.o(i.HAL_FLASH_Unlock)
    HAL_GPIO_Init                            0x08002175   Thumb Code   792  stm32f1xx_hal_gpio.o(i.HAL_GPIO_Init)
    HAL_GPIO_ReadPin                         0x080024b5   Thumb Code    16  stm32f1xx_hal_gpio.o(i.HAL_GPIO_ReadPin)
    HAL_GetTick                              0x080024c5   Thumb Code     6  stm32f1xx_hal.o(i.HAL_GetTick)
    HAL_IncTick                              0x080024d1   Thumb Code    16  stm32f1xx_hal.o(i.HAL_IncTick)
    HAL_Init                                 0x080024e9   Thumb Code    34  stm32f1xx_hal.o(i.HAL_Init)
    HAL_InitTick                             0x08002511   Thumb Code    64  stm32f1xx_hal.o(i.HAL_InitTick)
    HAL_MspInit                              0x0800255d   Thumb Code    76  stm32f1xx_hal_msp.o(i.HAL_MspInit)
    HAL_NVIC_EnableIRQ                       0x080025b1   Thumb Code    32  stm32f1xx_hal_cortex.o(i.HAL_NVIC_EnableIRQ)
    HAL_NVIC_SetPriority                     0x080025d1   Thumb Code   124  stm32f1xx_hal_cortex.o(i.HAL_NVIC_SetPriority)
    HAL_NVIC_SetPriorityGrouping             0x0800264d   Thumb Code    32  stm32f1xx_hal_cortex.o(i.HAL_NVIC_SetPriorityGrouping)
    HAL_RCCEx_GetPeriphCLKFreq               0x08002675   Thumb Code   276  stm32f1xx_hal_rcc_ex.o(i.HAL_RCCEx_GetPeriphCLKFreq)
    HAL_RCCEx_PeriphCLKConfig                0x080027a9   Thumb Code   290  stm32f1xx_hal_rcc_ex.o(i.HAL_RCCEx_PeriphCLKConfig)
    HAL_RCC_ClockConfig                      0x080028d9   Thumb Code   376  stm32f1xx_hal_rcc.o(i.HAL_RCC_ClockConfig)
    HAL_RCC_GetHCLKFreq                      0x08002a65   Thumb Code     6  stm32f1xx_hal_rcc.o(i.HAL_RCC_GetHCLKFreq)
    HAL_RCC_GetPCLK1Freq                     0x08002a71   Thumb Code    22  stm32f1xx_hal_rcc.o(i.HAL_RCC_GetPCLK1Freq)
    HAL_RCC_GetPCLK2Freq                     0x08002a91   Thumb Code    22  stm32f1xx_hal_rcc.o(i.HAL_RCC_GetPCLK2Freq)
    HAL_RCC_GetSysClockFreq                  0x08002ab1   Thumb Code   116  stm32f1xx_hal_rcc.o(i.HAL_RCC_GetSysClockFreq)
    HAL_RCC_OscConfig                        0x08002b45   Thumb Code  1114  stm32f1xx_hal_rcc.o(i.HAL_RCC_OscConfig)
    HAL_SYSTICK_CLKSourceConfig              0x08002fa9   Thumb Code    40  stm32f1xx_hal_cortex.o(i.HAL_SYSTICK_CLKSourceConfig)
    HAL_SYSTICK_Config                       0x08002fd1   Thumb Code    52  stm32f1xx_hal_cortex.o(i.HAL_SYSTICK_Config)
    HAL_TIMEx_BreakCallback                  0x08003005   Thumb Code     2  stm32f1xx_hal_tim_ex.o(i.HAL_TIMEx_BreakCallback)
    HAL_TIMEx_CommutCallback                 0x08003007   Thumb Code     2  stm32f1xx_hal_tim_ex.o(i.HAL_TIMEx_CommutCallback)
    HAL_TIMEx_MasterConfigSynchronization    0x08003009   Thumb Code   134  stm32f1xx_hal_tim_ex.o(i.HAL_TIMEx_MasterConfigSynchronization)
    HAL_TIM_Base_Init                        0x080030a5   Thumb Code   102  stm32f1xx_hal_tim.o(i.HAL_TIM_Base_Init)
    HAL_TIM_Base_MspInit                     0x0800310d   Thumb Code    58  tim.o(i.HAL_TIM_Base_MspInit)
    HAL_TIM_ConfigClockSource                0x0800314d   Thumb Code   264  stm32f1xx_hal_tim.o(i.HAL_TIM_ConfigClockSource)
    HAL_TIM_IC_CaptureCallback               0x08003255   Thumb Code     2  stm32f1xx_hal_tim.o(i.HAL_TIM_IC_CaptureCallback)
    HAL_TIM_IRQHandler                       0x08003257   Thumb Code   406  stm32f1xx_hal_tim.o(i.HAL_TIM_IRQHandler)
    HAL_TIM_MspPostInit                      0x080033ed   Thumb Code    74  tim.o(i.HAL_TIM_MspPostInit)
    HAL_TIM_OC_DelayElapsedCallback          0x08003441   Thumb Code     2  stm32f1xx_hal_tim.o(i.HAL_TIM_OC_DelayElapsedCallback)
    HAL_TIM_PWM_ConfigChannel                0x08003443   Thumb Code   252  stm32f1xx_hal_tim.o(i.HAL_TIM_PWM_ConfigChannel)
    HAL_TIM_PWM_Init                         0x0800353f   Thumb Code   102  stm32f1xx_hal_tim.o(i.HAL_TIM_PWM_Init)
    HAL_TIM_PWM_MspInit                      0x080035a5   Thumb Code     2  stm32f1xx_hal_tim.o(i.HAL_TIM_PWM_MspInit)
    HAL_TIM_PWM_PulseFinishedCallback        0x080035a7   Thumb Code     2  stm32f1xx_hal_tim.o(i.HAL_TIM_PWM_PulseFinishedCallback)
    HAL_TIM_PeriodElapsedCallback            0x080035a9   Thumb Code     2  stm32f1xx_hal_tim.o(i.HAL_TIM_PeriodElapsedCallback)
    HAL_TIM_TriggerCallback                  0x080035ab   Thumb Code     2  stm32f1xx_hal_tim.o(i.HAL_TIM_TriggerCallback)
    HAL_UARTEx_RxEventCallback               0x080035ad   Thumb Code     2  stm32f1xx_hal_uart.o(i.HAL_UARTEx_RxEventCallback)
    HAL_UART_DMAStop                         0x080035af   Thumb Code   102  stm32f1xx_hal_uart.o(i.HAL_UART_DMAStop)
    HAL_UART_ErrorCallback                   0x08003615   Thumb Code     2  stm32f1xx_hal_uart.o(i.HAL_UART_ErrorCallback)
    HAL_UART_IRQHandler                      0x08003619   Thumb Code   582  stm32f1xx_hal_uart.o(i.HAL_UART_IRQHandler)
    HAL_UART_Init                            0x08003865   Thumb Code   114  stm32f1xx_hal_uart.o(i.HAL_UART_Init)
    HAL_UART_MspInit                         0x080038d9   Thumb Code   248  usart.o(i.HAL_UART_MspInit)
    HAL_UART_Receive_DMA                     0x080039e9   Thumb Code    66  stm32f1xx_hal_uart.o(i.HAL_UART_Receive_DMA)
    HAL_UART_RxCpltCallback                  0x08003a2b   Thumb Code     2  useruart.o(i.HAL_UART_RxCpltCallback)
    HAL_UART_RxHalfCpltCallback              0x08003a2d   Thumb Code     2  stm32f1xx_hal_uart.o(i.HAL_UART_RxHalfCpltCallback)
    HAL_UART_TxCpltCallback                  0x08003a2f   Thumb Code     2  stm32f1xx_hal_uart.o(i.HAL_UART_TxCpltCallback)
    HardFault_Handler                        0x08003a31   Thumb Code     4  stm32f1xx_it.o(i.HardFault_Handler)
    IAP_ExecuteApp                           0x08003a35   Thumb Code    28  bsp_iap.o(i.IAP_ExecuteApp)
    IAP_WriteBin                             0x08003a55   Thumb Code    94  bsp_iap.o(i.IAP_WriteBin)
    IAP_WriteBinToAPPReigon                  0x08003abd   Thumb Code    72  bsp_iap.o(i.IAP_WriteBinToAPPReigon)
    IAP_WriteBin_Init                        0x08003b09   Thumb Code    10  bsp_iap.o(i.IAP_WriteBin_Init)
    Key_ScanTask                             0x08003b1d   Thumb Code    10  main.o(i.Key_ScanTask)
    MX_ADC1_Init                             0x08003b29   Thumb Code   152  adc.o(i.MX_ADC1_Init)
    MX_DMA_Init                              0x08003bc9   Thumb Code    80  dma.o(i.MX_DMA_Init)
    MX_GPIO_Init                             0x08003c1d   Thumb Code   144  gpio.o(i.MX_GPIO_Init)
    MX_TIM2_Init                             0x08003cb5   Thumb Code   162  tim.o(i.MX_TIM2_Init)
    MX_USART1_UART_Init                      0x08003d5d   Thumb Code    46  usart.o(i.MX_USART1_UART_Init)
    MemManage_Handler                        0x08003d95   Thumb Code     4  stm32f1xx_it.o(i.MemManage_Handler)
    NMI_Handler                              0x08003d99   Thumb Code     4  stm32f1xx_it.o(i.NMI_Handler)
    Read_KEY1_Level                          0x08003dd1   Thumb Code    12  main.o(i.Read_KEY1_Level)
    SCH_Add_Task                             0x08003de1   Thumb Code    70  scheduler.o(i.SCH_Add_Task)
    Search_Button                            0x08003e2d   Thumb Code    14  button.o(i.Search_Button)
    SysTick_Handler                          0x08003e75   Thumb Code    20  stm32f1xx_it.o(i.SysTick_Handler)
    SystemClock_Config                       0x08003e89   Thumb Code   130  main.o(i.SystemClock_Config)
    SystemInit                               0x08003f0b   Thumb Code     2  system_stm32f1xx.o(i.SystemInit)
    TIM2_IRQHandler                          0x08003f35   Thumb Code    10  stm32f1xx_it.o(i.TIM2_IRQHandler)
    TIM_Base_SetConfig                       0x08003f45   Thumb Code   134  stm32f1xx_hal_tim.o(i.TIM_Base_SetConfig)
    TIM_ETR_SetConfig                        0x08003fe1   Thumb Code    22  stm32f1xx_hal_tim.o(i.TIM_ETR_SetConfig)
    TIM_OC2_SetConfig                        0x08004079   Thumb Code   114  stm32f1xx_hal_tim.o(i.TIM_OC2_SetConfig)
    Task_02                                  0x08004211   Thumb Code   160  main.o(i.Task_02)
    UART_Start_Receive_DMA                   0x0800462d   Thumb Code   138  stm32f1xx_hal_uart.o(i.UART_Start_Receive_DMA)
    USART1_IRQHandler                        0x08004725   Thumb Code   122  stm32f1xx_it.o(i.USART1_IRQHandler)
    UsageFault_Handler                       0x080047ad   Thumb Code     4  stm32f1xx_it.o(i.UsageFault_Handler)
    UserAPP_TaskCreate                       0x080047b1   Thumb Code   112  freertos_task.o(i.UserAPP_TaskCreate)
    User_uartdma_Init                        0x0800484d   Thumb Code    54  user_uartdma.o(i.User_uartdma_Init)
    __0printf                                0x0800488d   Thumb Code    22  printfa.o(i.__0printf)
    __1printf                                0x0800488d   Thumb Code     0  printfa.o(i.__0printf)
    __2printf                                0x0800488d   Thumb Code     0  printfa.o(i.__0printf)
    __c89printf                              0x0800488d   Thumb Code     0  printfa.o(i.__0printf)
    printf                                   0x0800488d   Thumb Code     0  printfa.o(i.__0printf)
    __scatterload_copy                       0x080048e5   Thumb Code    14  handlers.o(i.__scatterload_copy)
    __scatterload_null                       0x080048f3   Thumb Code     2  handlers.o(i.__scatterload_null)
    __scatterload_zeroinit                   0x080048f5   Thumb Code    14  handlers.o(i.__scatterload_zeroinit)
    fputc                                    0x080051b9   Thumb Code    24  usart.o(i.fputc)
    main                                     0x080051d5   Thumb Code   468  main.o(i.main)
    pvPortMalloc                             0x08005cc9   Thumb Code   338  heap_4.o(i.pvPortMalloc)
    pxPortInitialiseStack                    0x08005e35   Thumb Code    30  port.o(i.pxPortInitialiseStack)
    uxListRemove                             0x08005e59   Thumb Code    40  list.o(i.uxListRemove)
    vApplicationTickHook                     0x08005e81   Thumb Code    26  freertos_task.o(i.vApplicationTickHook)
    vListInitialise                          0x08005ea1   Thumb Code    26  list.o(i.vListInitialise)
    vListInitialiseItem                      0x08005ebb   Thumb Code     6  list.o(i.vListInitialiseItem)
    vListInsert                              0x08005ec1   Thumb Code    52  list.o(i.vListInsert)
    vPortEnterCritical                       0x08005ef5   Thumb Code    76  port.o(i.vPortEnterCritical)
    vPortExitCritical                        0x08005f49   Thumb Code    56  port.o(i.vPortExitCritical)
    vPortFree                                0x08005f85   Thumb Code   150  heap_4.o(i.vPortFree)
    vPortSetupTimerInterrupt                 0x08006029   Thumb Code    36  port.o(i.vPortSetupTimerInterrupt)
    vTaskDelay                               0x08006051   Thumb Code    82  tasks.o(i.vTaskDelay)
    vTaskInternalSetTimeOutState             0x080060ad   Thumb Code    14  tasks.o(i.vTaskInternalSetTimeOutState)
    vTaskMissedYield                         0x080060c5   Thumb Code     8  tasks.o(i.vTaskMissedYield)
    vTaskPlaceOnEventList                    0x080060d1   Thumb Code    52  tasks.o(i.vTaskPlaceOnEventList)
    vTaskStartScheduler                      0x08006109   Thumb Code   112  tasks.o(i.vTaskStartScheduler)
    vTaskSuspendAll                          0x08006199   Thumb Code    12  tasks.o(i.vTaskSuspendAll)
    vTaskSwitchContext                       0x080061a9   Thumb Code   118  tasks.o(i.vTaskSwitchContext)
    xPortStartScheduler                      0x08006235   Thumb Code   228  port.o(i.xPortStartScheduler)
    xPortSysTickHandler                      0x0800632d   Thumb Code    46  port.o(i.xPortSysTickHandler)
    xQueueCreateMutex                        0x08006361   Thumb Code    34  queue.o(i.xQueueCreateMutex)
    xQueueGenericCreate                      0x08006383   Thumb Code   102  queue.o(i.xQueueGenericCreate)
    xQueueGenericReset                       0x080063e9   Thumb Code   214  queue.o(i.xQueueGenericReset)
    xQueueGenericSend                        0x080064c5   Thumb Code   420  queue.o(i.xQueueGenericSend)
    xQueueReceive                            0x0800666d   Thumb Code   356  queue.o(i.xQueueReceive)
    xTaskCheckForTimeOut                     0x080067d5   Thumb Code   136  tasks.o(i.xTaskCheckForTimeOut)
    xTaskCreate                              0x08006865   Thumb Code    96  tasks.o(i.xTaskCreate)
    xTaskGetSchedulerState                   0x080068c5   Thumb Code    24  tasks.o(i.xTaskGetSchedulerState)
    xTaskIncrementTick                       0x080068e5   Thumb Code   412  tasks.o(i.xTaskIncrementTick)
    xTaskPriorityDisinherit                  0x08006aad   Thumb Code   226  tasks.o(i.xTaskPriorityDisinherit)
    xTaskRemoveFromEventList                 0x08006b9d   Thumb Code   264  tasks.o(i.xTaskRemoveFromEventList)
    xTaskResumeAll                           0x08006cbd   Thumb Code   338  tasks.o(i.xTaskResumeAll)
    AHBPrescTable                            0x08006e34   Data          16  system_stm32f1xx.o(.constdata)
    APBPrescTable                            0x08006e44   Data           8  system_stm32f1xx.o(.constdata)
    Region$$Table$$Base                      0x08006ecc   Number         0  anon$$obj.o(Region$$Table)
    Region$$Table$$Limit                     0x08006eec   Number         0  anon$$obj.o(Region$$Table)
    __stdout                                 0x20000000   Data           4  usart.o(.data)
    uwTick                                   0x20000004   Data           4  stm32f1xx_hal.o(.data)
    uwTickPrio                               0x20000008   Data           4  stm32f1xx_hal.o(.data)
    uwTickFreq                               0x2000000c   Data           1  stm32f1xx_hal.o(.data)
    SystemCoreClock                          0x20000010   Data           4  system_stm32f1xx.o(.data)
    APP_UPDATE_FLAG                          0x20000014   Data           2  bsp_iap.o(.data)
    xMutex                                   0x2000001c   Data           4  freertos_task.o(.data)
    xPrintQueue                              0x20000020   Data           4  freertos_task.o(.data)
    pxCurrentTCB                             0x20000034   Data           4  tasks.o(.data)
    uxTopUsedPriority                        0x2000006c   Data           4  tasks.o(.data)
    Button1                                  0x200008b4   Data          80  main.o(.bss)
    Button2                                  0x20000904   Data          80  main.o(.bss)
    hadc1                                    0x20000954   Data          48  adc.o(.bss)
    hdma_adc1                                0x20000984   Data          68  adc.o(.bss)
    htim2                                    0x200009c8   Data          72  tim.o(.bss)
    huart1                                   0x20000a10   Data          68  usart.o(.bss)
    hdma_usart1_rx                           0x20000a54   Data          68  usart.o(.bss)
    hdma_usart1_tx                           0x20000a98   Data          68  usart.o(.bss)
    pFlash                                   0x20000ae0   Data          32  stm32f1xx_hal_flash.o(.bss)
    adc_buffer                               0x20000b00   Data          80  freertos_task.o(.bss)
    strAppBin                                0x20001000   Data        1002  bsp_iap.o(.ARM.__AT_0x20001000)
    UserUartDma                              0x20002c0c   Data        3088  user_uartdma.o(.bss)
    __initial_sp                             0x20008c20   Data           0  startup_stm32f103xe.o(STACK)



==============================================================================

Memory Map of the image

  Image Entry point : 0x08000131

  Load Region LR_IROM1 (Base: 0x08000000, Size: 0x00006f90, Max: 0x0000b800, ABSOLUTE)

    Execution Region ER_IROM1 (Exec base: 0x08000000, Load base: 0x08000000, Size: 0x00006eec, Max: 0x0000b800, ABSOLUTE)

    Exec Addr    Load Addr    Size         Type   Attr      Idx    E Section Name        Object

    0x08000000   0x08000000   0x00000130   Data   RO            3    RESET               startup_stm32f103xe.o
    0x08000130   0x08000130   0x00000000   Code   RO         5707  * .ARM.Collect$$$$00000000  mc_w.l(entry.o)
    0x08000130   0x08000130   0x00000004   Code   RO         6063    .ARM.Collect$$$$00000001  mc_w.l(entry2.o)
    0x08000134   0x08000134   0x00000004   Code   RO         6066    .ARM.Collect$$$$00000004  mc_w.l(entry5.o)
    0x08000138   0x08000138   0x00000000   Code   RO         6068    .ARM.Collect$$$$00000008  mc_w.l(entry7b.o)
    0x08000138   0x08000138   0x00000000   Code   RO         6070    .ARM.Collect$$$$0000000A  mc_w.l(entry8b.o)
    0x08000138   0x08000138   0x00000008   Code   RO         6071    .ARM.Collect$$$$0000000B  mc_w.l(entry9a.o)
    0x08000140   0x08000140   0x00000000   Code   RO         6073    .ARM.Collect$$$$0000000D  mc_w.l(entry10a.o)
    0x08000140   0x08000140   0x00000000   Code   RO         6075    .ARM.Collect$$$$0000000F  mc_w.l(entry11a.o)
    0x08000140   0x08000140   0x00000004   Code   RO         6064    .ARM.Collect$$$$00002712  mc_w.l(entry2.o)
    0x08000144   0x08000144   0x00000006   Code   RO         3393    .emb_text           bsp_iap.o
    0x0800014a   0x0800014a   0x00000002   PAD
    0x0800014c   0x0800014c   0x00000096   Code   RO         4760    .emb_text           port.o
    0x080001e2   0x080001e2   0x00000002   PAD
    0x080001e4   0x080001e4   0x00000024   Code   RO            4    .text               startup_stm32f103xe.o
    0x08000208   0x08000208   0x0000002c   Code   RO         5720    .text               mc_w.l(uidiv.o)
    0x08000234   0x08000234   0x00000020   Code   RO         5722    .text               mc_w.l(llushr.o)
    0x08000254   0x08000254   0x00000024   Code   RO         5726    .text               mc_w.l(rand.o)
    0x08000278   0x08000278   0x00000040   Code   RO         5733    .text               mc_w.l(memmovea.o)
    0x080002b8   0x080002b8   0x00000024   Code   RO         5735    .text               mc_w.l(memseta.o)
    0x080002dc   0x080002dc   0x000000b0   Code   RO         6047    .text               mf_w.l(fadd.o)
    0x0800038c   0x0800038c   0x0000007c   Code   RO         6049    .text               mf_w.l(fdiv.o)
    0x08000408   0x08000408   0x000000e4   Code   RO         6051    .text               mf_w.l(dmul.o)
    0x080004ec   0x080004ec   0x0000000a   Code   RO         6053    .text               mf_w.l(ffltui.o)
    0x080004f6   0x080004f6   0x00000026   Code   RO         6057    .text               mf_w.l(f2d.o)
    0x0800051c   0x0800051c   0x00000038   Code   RO         6061    .text               mf_w.l(d2f.o)
    0x08000554   0x08000554   0x00000062   Code   RO         6077    .text               mc_w.l(uldiv.o)
    0x080005b6   0x080005b6   0x00000000   Code   RO         6083    .text               mc_w.l(iusefp.o)
    0x080005b6   0x080005b6   0x0000006e   Code   RO         6084    .text               mf_w.l(fepilogue.o)
    0x08000624   0x08000624   0x000000ba   Code   RO         6086    .text               mf_w.l(depilogue.o)
    0x080006de   0x080006de   0x0000014e   Code   RO         6088    .text               mf_w.l(dadd.o)
    0x0800082c   0x0800082c   0x000000de   Code   RO         6090    .text               mf_w.l(ddiv.o)
    0x0800090a   0x0800090a   0x00000030   Code   RO         6092    .text               mf_w.l(dfixul.o)
    0x0800093a   0x0800093a   0x00000002   PAD
    0x0800093c   0x0800093c   0x00000030   Code   RO         6094    .text               mf_w.l(cdrcmple.o)
    0x0800096c   0x0800096c   0x00000024   Code   RO         6096    .text               mc_w.l(init.o)
    0x08000990   0x08000990   0x0000001e   Code   RO         6098    .text               mc_w.l(llshl.o)
    0x080009ae   0x080009ae   0x00000024   Code   RO         6100    .text               mc_w.l(llsshr.o)
    0x080009d2   0x080009d2   0x0000005c   Code   RO          676    i.ADC_ConversionStop_Disable  stm32f1xx_hal_adc.o
    0x08000a2e   0x08000a2e   0x00000052   Code   RO          677    i.ADC_DMAConvCplt   stm32f1xx_hal_adc.o
    0x08000a80   0x08000a80   0x0000001e   Code   RO          678    i.ADC_DMAError      stm32f1xx_hal_adc.o
    0x08000a9e   0x08000a9e   0x0000000e   Code   RO          679    i.ADC_DMAHalfConvCplt  stm32f1xx_hal_adc.o
    0x08000aac   0x08000aac   0x00000090   Code   RO          680    i.ADC_Enable        stm32f1xx_hal_adc.o
    0x08000b3c   0x08000b3c   0x00000020   Code   RO         3394    i.APPReigion_Erase  bsp_iap.o
    0x08000b5c   0x08000b5c   0x00000014   Code   RO         3395    i.APP_UpdateFlag_Read  bsp_iap.o
    0x08000b70   0x08000b70   0x00000012   Code   RO         3396    i.APP_UpdateFlag_Write  bsp_iap.o
    0x08000b82   0x08000b82   0x00000002   PAD
    0x08000b84   0x08000b84   0x00000010   Code   RO         3466    i.Add_Button        button.o
    0x08000b94   0x08000b94   0x00000022   Code   RO         3597    i.BSP_FLASH_Read    bsp_flash.o
    0x08000bb6   0x08000bb6   0x00000006   Code   RO         3598    i.BSP_FLASH_ReadHalfWord  bsp_flash.o
    0x08000bbc   0x08000bbc   0x000000fc   Code   RO         3599    i.BSP_FLASH_Write   bsp_flash.o
    0x08000cb8   0x08000cb8   0x0000002c   Code   RO         3600    i.BSP_FLASH_Write_NoCheck  bsp_flash.o
    0x08000ce4   0x08000ce4   0x0000003c   Code   RO           13    i.Btn1_ContinuosFree_CallBack  main.o
    0x08000d20   0x08000d20   0x00000038   Code   RO           14    i.Btn1_Continuos_CallBack  main.o
    0x08000d58   0x08000d58   0x00000038   Code   RO           15    i.Btn1_Double_CallBack  main.o
    0x08000d90   0x08000d90   0x00000038   Code   RO           16    i.Btn1_Dowm_CallBack  main.o
    0x08000dc8   0x08000dc8   0x00000038   Code   RO           17    i.Btn1_Long_CallBack  main.o
    0x08000e00   0x08000e00   0x00000004   Code   RO          522    i.BusFault_Handler  stm32f1xx_it.o
    0x08000e04   0x08000e04   0x00000026   Code   RO         3467    i.Button_Attach     button.o
    0x08000e2a   0x08000e2a   0x00000002   PAD
    0x08000e2c   0x08000e2c   0x000000a0   Code   RO         3468    i.Button_Create     button.o
    0x08000ecc   0x08000ecc   0x000001f8   Code   RO         3469    i.Button_Cycle_Process  button.o
    0x080010c4   0x080010c4   0x0000001c   Code   RO         3471    i.Button_Process    button.o
    0x080010e0   0x080010e0   0x00000010   Code   RO          523    i.DMA1_Channel1_IRQHandler  stm32f1xx_it.o
    0x080010f0   0x080010f0   0x00000010   Code   RO          524    i.DMA1_Channel4_IRQHandler  stm32f1xx_it.o
    0x08001100   0x08001100   0x00000010   Code   RO          525    i.DMA1_Channel5_IRQHandler  stm32f1xx_it.o
    0x08001110   0x08001110   0x0000002c   Code   RO         1335    i.DMA_SetConfig     stm32f1xx_hal_dma.o
    0x0800113c   0x0800113c   0x00000002   Code   RO          526    i.DebugMon_Handler  stm32f1xx_it.o
    0x0800113e   0x0800113e   0x00000006   Code   RO           23    i.Error_Handler     main.o
    0x08001144   0x08001144   0x00000028   Code   RO         1780    i.FLASH_MassErase   stm32f1xx_hal_flash_ex.o
    0x0800116c   0x0800116c   0x00000028   Code   RO         1789    i.FLASH_PageErase   stm32f1xx_hal_flash_ex.o
    0x08001194   0x08001194   0x00000020   Code   RO         1677    i.FLASH_Program_HalfWord  stm32f1xx_hal_flash.o
    0x080011b4   0x080011b4   0x00000084   Code   RO         1678    i.FLASH_SetErrorCode  stm32f1xx_hal_flash.o
    0x08001238   0x08001238   0x00000070   Code   RO         1679    i.FLASH_WaitForLastOperation  stm32f1xx_hal_flash.o
    0x080012a8   0x080012a8   0x00000008   Code   RO         3473    i.Get_Button_Event  button.o
    0x080012b0   0x080012b0   0x00000118   Code   RO          856    i.HAL_ADCEx_Calibration_Start  stm32f1xx_hal_adc_ex.o
    0x080013c8   0x080013c8   0x00000160   Code   RO          682    i.HAL_ADC_ConfigChannel  stm32f1xx_hal_adc.o
    0x08001528   0x08001528   0x00000002   Code   RO          683    i.HAL_ADC_ConvCpltCallback  stm32f1xx_hal_adc.o
    0x0800152a   0x0800152a   0x00000002   Code   RO          684    i.HAL_ADC_ConvHalfCpltCallback  stm32f1xx_hal_adc.o
    0x0800152c   0x0800152c   0x00000002   Code   RO          686    i.HAL_ADC_ErrorCallback  stm32f1xx_hal_adc.o
    0x0800152e   0x0800152e   0x00000002   PAD
    0x08001530   0x08001530   0x00000160   Code   RO          691    i.HAL_ADC_Init      stm32f1xx_hal_adc.o
    0x08001690   0x08001690   0x000000d8   Code   RO          350    i.HAL_ADC_MspInit   adc.o
    0x08001768   0x08001768   0x00000180   Code   RO          698    i.HAL_ADC_Start_DMA  stm32f1xx_hal_adc.o
    0x080018e8   0x080018e8   0x00000056   Code   RO         1336    i.HAL_DMA_Abort     stm32f1xx_hal_dma.o
    0x0800193e   0x0800193e   0x00000002   PAD
    0x08001940   0x08001940   0x000001a8   Code   RO         1337    i.HAL_DMA_Abort_IT  stm32f1xx_hal_dma.o
    0x08001ae8   0x08001ae8   0x00000398   Code   RO         1341    i.HAL_DMA_IRQHandler  stm32f1xx_hal_dma.o
    0x08001e80   0x08001e80   0x0000008c   Code   RO         1342    i.HAL_DMA_Init      stm32f1xx_hal_dma.o
    0x08001f0c   0x08001f0c   0x0000009c   Code   RO         1346    i.HAL_DMA_Start_IT  stm32f1xx_hal_dma.o
    0x08001fa8   0x08001fa8   0x00000028   Code   RO          959    i.HAL_Delay         stm32f1xx_hal.o
    0x08001fd0   0x08001fd0   0x000000b0   Code   RO         1790    i.HAL_FLASHEx_Erase  stm32f1xx_hal_flash_ex.o
    0x08002080   0x08002080   0x00000014   Code   RO         1683    i.HAL_FLASH_Lock    stm32f1xx_hal_flash.o
    0x08002094   0x08002094   0x000000b0   Code   RO         1688    i.HAL_FLASH_Program  stm32f1xx_hal_flash.o
    0x08002144   0x08002144   0x00000030   Code   RO         1690    i.HAL_FLASH_Unlock  stm32f1xx_hal_flash.o
    0x08002174   0x08002174   0x00000340   Code   RO         1272    i.HAL_GPIO_Init     stm32f1xx_hal_gpio.o
    0x080024b4   0x080024b4   0x00000010   Code   RO         1274    i.HAL_GPIO_ReadPin  stm32f1xx_hal_gpio.o
    0x080024c4   0x080024c4   0x0000000c   Code   RO          963    i.HAL_GetTick       stm32f1xx_hal.o
    0x080024d0   0x080024d0   0x00000018   Code   RO          969    i.HAL_IncTick       stm32f1xx_hal.o
    0x080024e8   0x080024e8   0x00000028   Code   RO          970    i.HAL_Init          stm32f1xx_hal.o
    0x08002510   0x08002510   0x0000004c   Code   RO          971    i.HAL_InitTick      stm32f1xx_hal.o
    0x0800255c   0x0800255c   0x00000054   Code   RO          616    i.HAL_MspInit       stm32f1xx_hal_msp.o
    0x080025b0   0x080025b0   0x00000020   Code   RO         1432    i.HAL_NVIC_EnableIRQ  stm32f1xx_hal_cortex.o
    0x080025d0   0x080025d0   0x0000007c   Code   RO         1438    i.HAL_NVIC_SetPriority  stm32f1xx_hal_cortex.o
    0x0800264c   0x0800264c   0x00000028   Code   RO         1439    i.HAL_NVIC_SetPriorityGrouping  stm32f1xx_hal_cortex.o
    0x08002674   0x08002674   0x00000134   Code   RO         1234    i.HAL_RCCEx_GetPeriphCLKFreq  stm32f1xx_hal_rcc_ex.o
    0x080027a8   0x080027a8   0x00000130   Code   RO         1235    i.HAL_RCCEx_PeriphCLKConfig  stm32f1xx_hal_rcc_ex.o
    0x080028d8   0x080028d8   0x0000018c   Code   RO         1127    i.HAL_RCC_ClockConfig  stm32f1xx_hal_rcc.o
    0x08002a64   0x08002a64   0x0000000c   Code   RO         1132    i.HAL_RCC_GetHCLKFreq  stm32f1xx_hal_rcc.o
    0x08002a70   0x08002a70   0x00000020   Code   RO         1134    i.HAL_RCC_GetPCLK1Freq  stm32f1xx_hal_rcc.o
    0x08002a90   0x08002a90   0x00000020   Code   RO         1135    i.HAL_RCC_GetPCLK2Freq  stm32f1xx_hal_rcc.o
    0x08002ab0   0x08002ab0   0x00000094   Code   RO         1136    i.HAL_RCC_GetSysClockFreq  stm32f1xx_hal_rcc.o
    0x08002b44   0x08002b44   0x00000464   Code   RO         1139    i.HAL_RCC_OscConfig  stm32f1xx_hal_rcc.o
    0x08002fa8   0x08002fa8   0x00000028   Code   RO         1441    i.HAL_SYSTICK_CLKSourceConfig  stm32f1xx_hal_cortex.o
    0x08002fd0   0x08002fd0   0x00000034   Code   RO         1443    i.HAL_SYSTICK_Config  stm32f1xx_hal_cortex.o
    0x08003004   0x08003004   0x00000002   Code   RO         2675    i.HAL_TIMEx_BreakCallback  stm32f1xx_hal_tim_ex.o
    0x08003006   0x08003006   0x00000002   Code   RO         2676    i.HAL_TIMEx_CommutCallback  stm32f1xx_hal_tim_ex.o
    0x08003008   0x08003008   0x0000009c   Code   RO         2694    i.HAL_TIMEx_MasterConfigSynchronization  stm32f1xx_hal_tim_ex.o
    0x080030a4   0x080030a4   0x00000066   Code   RO         1960    i.HAL_TIM_Base_Init  stm32f1xx_hal_tim.o
    0x0800310a   0x0800310a   0x00000002   PAD
    0x0800310c   0x0800310c   0x00000040   Code   RO          416    i.HAL_TIM_Base_MspInit  tim.o
    0x0800314c   0x0800314c   0x00000108   Code   RO         1969    i.HAL_TIM_ConfigClockSource  stm32f1xx_hal_tim.o
    0x08003254   0x08003254   0x00000002   Code   RO         1994    i.HAL_TIM_IC_CaptureCallback  stm32f1xx_hal_tim.o
    0x08003256   0x08003256   0x00000196   Code   RO         2008    i.HAL_TIM_IRQHandler  stm32f1xx_hal_tim.o
    0x080033ec   0x080033ec   0x00000054   Code   RO          417    i.HAL_TIM_MspPostInit  tim.o
    0x08003440   0x08003440   0x00000002   Code   RO         2011    i.HAL_TIM_OC_DelayElapsedCallback  stm32f1xx_hal_tim.o
    0x08003442   0x08003442   0x000000fc   Code   RO         2032    i.HAL_TIM_PWM_ConfigChannel  stm32f1xx_hal_tim.o
    0x0800353e   0x0800353e   0x00000066   Code   RO         2035    i.HAL_TIM_PWM_Init  stm32f1xx_hal_tim.o
    0x080035a4   0x080035a4   0x00000002   Code   RO         2037    i.HAL_TIM_PWM_MspInit  stm32f1xx_hal_tim.o
    0x080035a6   0x080035a6   0x00000002   Code   RO         2038    i.HAL_TIM_PWM_PulseFinishedCallback  stm32f1xx_hal_tim.o
    0x080035a8   0x080035a8   0x00000002   Code   RO         2046    i.HAL_TIM_PeriodElapsedCallback  stm32f1xx_hal_tim.o
    0x080035aa   0x080035aa   0x00000002   Code   RO         2051    i.HAL_TIM_TriggerCallback  stm32f1xx_hal_tim.o
    0x080035ac   0x080035ac   0x00000002   Code   RO         2953    i.HAL_UARTEx_RxEventCallback  stm32f1xx_hal_uart.o
    0x080035ae   0x080035ae   0x00000066   Code   RO         2965    i.HAL_UART_DMAStop  stm32f1xx_hal_uart.o
    0x08003614   0x08003614   0x00000002   Code   RO         2967    i.HAL_UART_ErrorCallback  stm32f1xx_hal_uart.o
    0x08003616   0x08003616   0x00000002   PAD
    0x08003618   0x08003618   0x0000024c   Code   RO         2970    i.HAL_UART_IRQHandler  stm32f1xx_hal_uart.o
    0x08003864   0x08003864   0x00000072   Code   RO         2971    i.HAL_UART_Init     stm32f1xx_hal_uart.o
    0x080038d6   0x080038d6   0x00000002   PAD
    0x080038d8   0x080038d8   0x00000110   Code   RO          464    i.HAL_UART_MspInit  usart.o
    0x080039e8   0x080039e8   0x00000042   Code   RO         2975    i.HAL_UART_Receive_DMA  stm32f1xx_hal_uart.o
    0x08003a2a   0x08003a2a   0x00000002   Code   RO         3346    i.HAL_UART_RxCpltCallback  useruart.o
    0x08003a2c   0x08003a2c   0x00000002   Code   RO         2978    i.HAL_UART_RxHalfCpltCallback  stm32f1xx_hal_uart.o
    0x08003a2e   0x08003a2e   0x00000002   Code   RO         2982    i.HAL_UART_TxCpltCallback  stm32f1xx_hal_uart.o
    0x08003a30   0x08003a30   0x00000004   Code   RO          527    i.HardFault_Handler  stm32f1xx_it.o
    0x08003a34   0x08003a34   0x00000020   Code   RO         3397    i.IAP_ExecuteApp    bsp_iap.o
    0x08003a54   0x08003a54   0x00000068   Code   RO         3398    i.IAP_WriteBin      bsp_iap.o
    0x08003abc   0x08003abc   0x0000004c   Code   RO         3399    i.IAP_WriteBinToAPPReigon  bsp_iap.o
    0x08003b08   0x08003b08   0x00000014   Code   RO         3400    i.IAP_WriteBin_Init  bsp_iap.o
    0x08003b1c   0x08003b1c   0x0000000a   Code   RO           25    i.Key_ScanTask      main.o
    0x08003b26   0x08003b26   0x00000002   PAD
    0x08003b28   0x08003b28   0x000000a0   Code   RO          351    i.MX_ADC1_Init      adc.o
    0x08003bc8   0x08003bc8   0x00000054   Code   RO          391    i.MX_DMA_Init       dma.o
    0x08003c1c   0x08003c1c   0x00000098   Code   RO          325    i.MX_GPIO_Init      gpio.o
    0x08003cb4   0x08003cb4   0x000000a8   Code   RO          418    i.MX_TIM2_Init      tim.o
    0x08003d5c   0x08003d5c   0x00000038   Code   RO          465    i.MX_USART1_UART_Init  usart.o
    0x08003d94   0x08003d94   0x00000004   Code   RO          528    i.MemManage_Handler  stm32f1xx_it.o
    0x08003d98   0x08003d98   0x00000004   Code   RO          529    i.NMI_Handler       stm32f1xx_it.o
    0x08003d9c   0x08003d9c   0x0000000a   Code   RO         3476    i.Print_Btn_Info    button.o
    0x08003da6   0x08003da6   0x00000002   PAD
    0x08003da8   0x08003da8   0x00000028   Code   RO         1140    i.RCC_Delay         stm32f1xx_hal_rcc.o
    0x08003dd0   0x08003dd0   0x00000010   Code   RO           26    i.Read_KEY1_Level   main.o
    0x08003de0   0x08003de0   0x0000004c   Code   RO         3892    i.SCH_Add_Task      scheduler.o
    0x08003e2c   0x08003e2c   0x00000014   Code   RO         3477    i.Search_Button     button.o
    0x08003e40   0x08003e40   0x00000034   Code   RO         3478    i.StrnCopy          button.o
    0x08003e74   0x08003e74   0x00000014   Code   RO          530    i.SysTick_Handler   stm32f1xx_it.o
    0x08003e88   0x08003e88   0x00000082   Code   RO           27    i.SystemClock_Config  main.o
    0x08003f0a   0x08003f0a   0x00000002   Code   RO         3310    i.SystemInit        system_stm32f1xx.o
    0x08003f0c   0x08003f0c   0x00000026   Code   RO           28    i.Systick_Config    main.o
    0x08003f32   0x08003f32   0x00000002   PAD
    0x08003f34   0x08003f34   0x00000010   Code   RO          531    i.TIM2_IRQHandler   stm32f1xx_it.o
    0x08003f44   0x08003f44   0x0000009c   Code   RO         2053    i.TIM_Base_SetConfig  stm32f1xx_hal_tim.o
    0x08003fe0   0x08003fe0   0x00000016   Code   RO         2064    i.TIM_ETR_SetConfig  stm32f1xx_hal_tim.o
    0x08003ff6   0x08003ff6   0x00000012   Code   RO         2065    i.TIM_ITRx_SetConfig  stm32f1xx_hal_tim.o
    0x08004008   0x08004008   0x00000070   Code   RO         2066    i.TIM_OC1_SetConfig  stm32f1xx_hal_tim.o
    0x08004078   0x08004078   0x0000007c   Code   RO         2067    i.TIM_OC2_SetConfig  stm32f1xx_hal_tim.o
    0x080040f4   0x080040f4   0x00000078   Code   RO         2068    i.TIM_OC3_SetConfig  stm32f1xx_hal_tim.o
    0x0800416c   0x0800416c   0x00000054   Code   RO         2069    i.TIM_OC4_SetConfig  stm32f1xx_hal_tim.o
    0x080041c0   0x080041c0   0x00000026   Code   RO         2071    i.TIM_TI1_ConfigInputStage  stm32f1xx_hal_tim.o
    0x080041e6   0x080041e6   0x00000028   Code   RO         2073    i.TIM_TI2_ConfigInputStage  stm32f1xx_hal_tim.o
    0x0800420e   0x0800420e   0x00000002   PAD
    0x08004210   0x08004210   0x000000e4   Code   RO           29    i.Task_02           main.o
    0x080042f4   0x080042f4   0x00000014   Code   RO         2984    i.UART_DMAAbortOnError  stm32f1xx_hal_uart.o
    0x08004308   0x08004308   0x00000050   Code   RO         2985    i.UART_DMAError     stm32f1xx_hal_uart.o
    0x08004358   0x08004358   0x00000068   Code   RO         2986    i.UART_DMAReceiveCplt  stm32f1xx_hal_uart.o
    0x080043c0   0x080043c0   0x00000020   Code   RO         2988    i.UART_DMARxHalfCplt  stm32f1xx_hal_uart.o
    0x080043e0   0x080043e0   0x00000036   Code   RO         2994    i.UART_EndRxTransfer  stm32f1xx_hal_uart.o
    0x08004416   0x08004416   0x00000020   Code   RO         2995    i.UART_EndTransmit_IT  stm32f1xx_hal_uart.o
    0x08004436   0x08004436   0x00000014   Code   RO         2996    i.UART_EndTxTransfer  stm32f1xx_hal_uart.o
    0x0800444a   0x0800444a   0x000000e4   Code   RO         2997    i.UART_Receive_IT   stm32f1xx_hal_uart.o
    0x0800452e   0x0800452e   0x00000002   PAD
    0x08004530   0x08004530   0x000000fc   Code   RO         2998    i.UART_SetConfig    stm32f1xx_hal_uart.o
    0x0800462c   0x0800462c   0x00000098   Code   RO         2999    i.UART_Start_Receive_DMA  stm32f1xx_hal_uart.o
    0x080046c4   0x080046c4   0x00000060   Code   RO         3001    i.UART_Transmit_IT  stm32f1xx_hal_uart.o
    0x08004724   0x08004724   0x00000088   Code   RO          532    i.USART1_IRQHandler  stm32f1xx_it.o
    0x080047ac   0x080047ac   0x00000004   Code   RO          533    i.UsageFault_Handler  stm32f1xx_it.o
    0x080047b0   0x080047b0   0x0000009c   Code   RO         3822    i.UserAPP_TaskCreate  freertos_task.o
    0x0800484c   0x0800484c   0x00000040   Code   RO         3698    i.User_uartdma_Init  user_uartdma.o
    0x0800488c   0x0800488c   0x00000020   Code   RO         5984    i.__0printf         mc_w.l(printfa.o)
    0x080048ac   0x080048ac   0x00000010   Code   RO         1445    i.__NVIC_GetPriorityGrouping  stm32f1xx_hal_cortex.o
    0x080048bc   0x080048bc   0x00000028   Code   RO         1446    i.__NVIC_SetPriority  stm32f1xx_hal_cortex.o
    0x080048e4   0x080048e4   0x0000000e   Code   RO         6117    i.__scatterload_copy  mc_w.l(handlers.o)
    0x080048f2   0x080048f2   0x00000002   Code   RO         6118    i.__scatterload_null  mc_w.l(handlers.o)
    0x080048f4   0x080048f4   0x0000000e   Code   RO         6119    i.__scatterload_zeroinit  mc_w.l(handlers.o)
    0x08004902   0x08004902   0x00000002   PAD
    0x08004904   0x08004904   0x00000184   Code   RO         5991    i._fp_digits        mc_w.l(printfa.o)
    0x08004a88   0x08004a88   0x000006dc   Code   RO         5992    i._printf_core      mc_w.l(printfa.o)
    0x08005164   0x08005164   0x00000024   Code   RO         5993    i._printf_post_padding  mc_w.l(printfa.o)
    0x08005188   0x08005188   0x0000002e   Code   RO         5994    i._printf_pre_padding  mc_w.l(printfa.o)
    0x080051b6   0x080051b6   0x00000002   PAD
    0x080051b8   0x080051b8   0x0000001c   Code   RO          467    i.fputc             usart.o
    0x080051d4   0x080051d4   0x00000388   Code   RO           30    i.main              main.o
    0x0800555c   0x0800555c   0x000000c0   Code   RO         4321    i.prvAddCurrentTaskToDelayedList  tasks.o
    0x0800561c   0x0800561c   0x000000ec   Code   RO         4322    i.prvAddNewTaskToReadyList  tasks.o
    0x08005708   0x08005708   0x00000048   Code   RO         4323    i.prvCheckTasksWaitingTermination  tasks.o
    0x08005750   0x08005750   0x0000002a   Code   RO         4109    i.prvCopyDataFromQueue  queue.o
    0x0800577a   0x0800577a   0x0000007e   Code   RO         4110    i.prvCopyDataToQueue  queue.o
    0x080057f8   0x080057f8   0x00000012   Code   RO         4324    i.prvDeleteTCB      tasks.o
    0x0800580a   0x0800580a   0x00000002   PAD
    0x0800580c   0x0800580c   0x0000007c   Code   RO         4693    i.prvHeapInit       heap_4.o
    0x08005888   0x08005888   0x00000028   Code   RO         4325    i.prvIdleTask       tasks.o
    0x080058b0   0x080058b0   0x0000001e   Code   RO         4112    i.prvInitialiseMutex  queue.o
    0x080058ce   0x080058ce   0x0000002a   Code   RO         4113    i.prvInitialiseNewQueue  queue.o
    0x080058f8   0x080058f8   0x000000e0   Code   RO         4326    i.prvInitialiseNewTask  tasks.o
    0x080059d8   0x080059d8   0x00000068   Code   RO         4327    i.prvInitialiseTaskLists  tasks.o
    0x08005a40   0x08005a40   0x00000068   Code   RO         4694    i.prvInsertBlockIntoFreeList  heap_4.o
    0x08005aa8   0x08005aa8   0x0000001a   Code   RO         4114    i.prvIsQueueEmpty   queue.o
    0x08005ac2   0x08005ac2   0x0000001e   Code   RO         4115    i.prvIsQueueFull    queue.o
    0x08005ae0   0x08005ae0   0x000000c8   Code   RO         3823    i.prvPrintTask      freertos_task.o
    0x08005ba8   0x08005ba8   0x00000030   Code   RO         4329    i.prvResetNextTaskUnblockTime  tasks.o
    0x08005bd8   0x08005bd8   0x00000030   Code   RO         3824    i.prvStdioGatekeeperTask  freertos_task.o
    0x08005c08   0x08005c08   0x00000040   Code   RO         4761    i.prvTaskExitError  port.o
    0x08005c48   0x08005c48   0x0000007e   Code   RO         4116    i.prvUnlockQueue    queue.o
    0x08005cc6   0x08005cc6   0x00000002   PAD
    0x08005cc8   0x08005cc8   0x0000016c   Code   RO         4695    i.pvPortMalloc      heap_4.o
    0x08005e34   0x08005e34   0x00000024   Code   RO         4762    i.pxPortInitialiseStack  port.o
    0x08005e58   0x08005e58   0x00000028   Code   RO         4069    i.uxListRemove      list.o
    0x08005e80   0x08005e80   0x00000020   Code   RO         3825    i.vApplicationTickHook  freertos_task.o
    0x08005ea0   0x08005ea0   0x0000001a   Code   RO         4070    i.vListInitialise   list.o
    0x08005eba   0x08005eba   0x00000006   Code   RO         4071    i.vListInitialiseItem  list.o
    0x08005ec0   0x08005ec0   0x00000034   Code   RO         4072    i.vListInsert       list.o
    0x08005ef4   0x08005ef4   0x00000054   Code   RO         4764    i.vPortEnterCritical  port.o
    0x08005f48   0x08005f48   0x0000003c   Code   RO         4765    i.vPortExitCritical  port.o
    0x08005f84   0x08005f84   0x000000a4   Code   RO         4696    i.vPortFree         heap_4.o
    0x08006028   0x08006028   0x00000028   Code   RO         4766    i.vPortSetupTimerInterrupt  port.o
    0x08006050   0x08006050   0x0000005c   Code   RO         4342    i.vTaskDelay        tasks.o
    0x080060ac   0x080060ac   0x00000018   Code   RO         4347    i.vTaskInternalSetTimeOutState  tasks.o
    0x080060c4   0x080060c4   0x0000000c   Code   RO         4349    i.vTaskMissedYield  tasks.o
    0x080060d0   0x080060d0   0x00000038   Code   RO         4350    i.vTaskPlaceOnEventList  tasks.o
    0x08006108   0x08006108   0x00000090   Code   RO         4358    i.vTaskStartScheduler  tasks.o
    0x08006198   0x08006198   0x00000010   Code   RO         4360    i.vTaskSuspendAll   tasks.o
    0x080061a8   0x080061a8   0x0000008c   Code   RO         4361    i.vTaskSwitchContext  tasks.o
    0x08006234   0x08006234   0x000000f8   Code   RO         4768    i.xPortStartScheduler  port.o
    0x0800632c   0x0800632c   0x00000034   Code   RO         4769    i.xPortSysTickHandler  port.o
    0x08006360   0x08006360   0x00000022   Code   RO         4127    i.xQueueCreateMutex  queue.o
    0x08006382   0x08006382   0x00000066   Code   RO         4128    i.xQueueGenericCreate  queue.o
    0x080063e8   0x080063e8   0x000000dc   Code   RO         4129    i.xQueueGenericReset  queue.o
    0x080064c4   0x080064c4   0x000001a8   Code   RO         4130    i.xQueueGenericSend  queue.o
    0x0800666c   0x0800666c   0x00000168   Code   RO         4138    i.xQueueReceive     queue.o
    0x080067d4   0x080067d4   0x00000090   Code   RO         4363    i.xTaskCheckForTimeOut  tasks.o
    0x08006864   0x08006864   0x00000060   Code   RO         4364    i.xTaskCreate       tasks.o
    0x080068c4   0x080068c4   0x00000020   Code   RO         4370    i.xTaskGetSchedulerState  tasks.o
    0x080068e4   0x080068e4   0x000001c8   Code   RO         4373    i.xTaskIncrementTick  tasks.o
    0x08006aac   0x08006aac   0x000000f0   Code   RO         4374    i.xTaskPriorityDisinherit  tasks.o
    0x08006b9c   0x08006b9c   0x00000120   Code   RO         4376    i.xTaskRemoveFromEventList  tasks.o
    0x08006cbc   0x08006cbc   0x00000178   Code   RO         4377    i.xTaskResumeAll    tasks.o
    0x08006e34   0x08006e34   0x00000018   Data   RO         3311    .constdata          system_stm32f1xx.o
    0x08006e4c   0x08006e4c   0x00000080   Data   RO         3827    .conststring        freertos_task.o
    0x08006ecc   0x08006ecc   0x00000020   Data   RO         6115    Region$$Table       anon$$obj.o


    Execution Region RW_IRAM1 (Exec base: 0x20000000, Load base: 0x08006eec, Size: 0x00008c20, Max: 0x00010000, ABSOLUTE)

    Exec Addr    Load Addr    Size         Type   Attr      Idx    E Section Name        Object

    0x20000000   0x08006eec   0x00000004   Data   RW          469    .data               usart.o
    0x20000004   0x08006ef0   0x00000009   Data   RW          977    .data               stm32f1xx_hal.o
    0x2000000d   0x08006ef9   0x00000003   PAD
    0x20000010   0x08006efc   0x00000004   Data   RW         3312    .data               system_stm32f1xx.o
    0x20000014   0x08006f00   0x00000002   Data   RW         3403    .data               bsp_iap.o
    0x20000016   0x08006f02   0x00000002   PAD
    0x20000018   0x08006f04   0x00000004   Data   RW         3479    .data               button.o
    0x2000001c   0x08006f08   0x00000018   Data   RW         3828    .data               freertos_task.o
    0x20000034   0x08006f20   0x00000040   Data   RW         4380    .data               tasks.o
    0x20000074   0x08006f60   0x00000020   Data   RW         4702    .data               heap_4.o
    0x20000094   0x08006f80   0x0000000c   Data   RW         4770    .data               port.o
    0x200000a0   0x08006f8c   0x00000004   Data   RW         5727    .data               mc_w.l(rand.o)
    0x200000a4        -       0x000008b0   Zero   RW           31    .bss                main.o
    0x20000954        -       0x00000074   Zero   RW          352    .bss                adc.o
    0x200009c8        -       0x00000048   Zero   RW          419    .bss                tim.o
    0x20000a10        -       0x000000cc   Zero   RW          468    .bss                usart.o
    0x20000adc   0x08006f90   0x00000004   PAD
    0x20000ae0        -       0x00000020   Zero   RW         1691    .bss                stm32f1xx_hal_flash.o
    0x20000b00        -       0x00000050   Zero   RW         3826    .bss                freertos_task.o
    0x20000b50        -       0x0000003c   Zero   RW         3900    .bss                scheduler.o
    0x20000b8c        -       0x000000f0   Zero   RW         4379    .bss                tasks.o
    0x20000c7c   0x08006f90   0x00000384   PAD
    0x20001000        -       0x000003ea   Zero   RW         3401    .ARM.__AT_0x20001000  bsp_iap.o
    0x200013ea   0x08006f90   0x00000002   PAD
    0x200013ec        -       0x00001010   Zero   RW         3402    .bss                bsp_iap.o
    0x200023fc        -       0x00000810   Zero   RW         3601    .bss                bsp_flash.o
    0x20002c0c        -       0x00000c10   Zero   RW         3701    .bss                user_uartdma.o
    0x2000381c        -       0x00005000   Zero   RW         4701    .bss                heap_4.o
    0x2000881c   0x08006f90   0x00000004   PAD
    0x20008820        -       0x00000400   Zero   RW            1    STACK               startup_stm32f103xe.o


==============================================================================

Image component sizes


      Code (inc. data)   RO Data    RW Data    ZI Data      Debug   Object Name

       376         32          0          0        116       1939   adc.o
       336         12          0          0       2064       3522   bsp_flash.o
       308         32          0          2       5114       6208   bsp_iap.o
       836         58          0          4          0       6015   button.o
        84          4          0          0          0        802   dma.o
         0          0          0          0          0      14728   event_groups.o
       436        104        128         24         80       8090   freertos_task.o
       152          8          0          0          0        975   gpio.o
       756         74          0         32      20480       6915   heap_4.o
       124          0          0          0          0       2733   list.o
      1616        682          0          0       2224     533502   main.o
       734         64          0         12          0       9732   port.o
      1562         14          0          0          0      13915   queue.o
        76          6          0          0         60       1951   scheduler.o
        36          8        304          0       1024        824   startup_stm32f103xe.o
       192         36          0          9          0       6673   stm32f1xx_hal.o
      1456         58          0          0          0       8618   stm32f1xx_hal_adc.o
       280          4          0          0          0       1502   stm32f1xx_hal_adc_ex.o
       344         22          0          0          0      30161   stm32f1xx_hal_cortex.o
      1770         28          0          0          0       5438   stm32f1xx_hal_dma.o
       520         48          0          0         32       4314   stm32f1xx_hal_flash.o
       256         26          0          0          0       2639   stm32f1xx_hal_flash_ex.o
       848         40          0          0          0       2771   stm32f1xx_hal_gpio.o
        84          8          0          0          0        938   stm32f1xx_hal_msp.o
      1784        110          0          0          0       6176   stm32f1xx_hal_rcc.o
       612         46          0          0          0       2493   stm32f1xx_hal_rcc_ex.o
      1852         58          0          0          0      14376   stm32f1xx_hal_tim.o
       160         22          0          0          0       2489   stm32f1xx_hal_tim_ex.o
      1948         24          0          0          0      13507   stm32f1xx_hal_uart.o
       242         38          0          0          0       5806   stm32f1xx_it.o
         2          0         24          4          0       1179   system_stm32f1xx.o
      3050        342          0         64        240      26618   tasks.o
       316         22          0          0         72       2440   tim.o
       356         38          0          4        204       3780   usart.o
        64         10          0          0       3088        762   user_uartdma.o
         2          0          0          0          0       1071   useruart.o

    ----------------------------------------------------------------------
     23602       2078        488        160      35708     755602   Object Totals
         0          0         32          0          0          0   (incl. Generated)
        32          0          0          5        910          0   (incl. Padding)

    ----------------------------------------------------------------------

      Code (inc. data)   RO Data    RW Data    ZI Data      Debug   Library Member Name

         0          0          0          0          0          0   entry.o
         0          0          0          0          0          0   entry10a.o
         0          0          0          0          0          0   entry11a.o
         8          4          0          0          0          0   entry2.o
         4          0          0          0          0          0   entry5.o
         0          0          0          0          0          0   entry7b.o
         0          0          0          0          0          0   entry8b.o
         8          4          0          0          0          0   entry9a.o
        30          0          0          0          0          0   handlers.o
        36          8          0          0          0         68   init.o
         0          0          0          0          0          0   iusefp.o
        30          0          0          0          0         68   llshl.o
        36          0          0          0          0         68   llsshr.o
        32          0          0          0          0         68   llushr.o
        64          0          0          0          0         76   memmovea.o
        36          0          0          0          0        108   memseta.o
      2258         90          0          0          0        452   printfa.o
        36         10          0          4          0        136   rand.o
        44          0          0          0          0         80   uidiv.o
        98          0          0          0          0         92   uldiv.o
        48          0          0          0          0         68   cdrcmple.o
        56          0          0          0          0         88   d2f.o
       334          0          0          0          0        148   dadd.o
       222          0          0          0          0        100   ddiv.o
       186          0          0          0          0        176   depilogue.o
        48          0          0          0          0         68   dfixul.o
       228          0          0          0          0         96   dmul.o
        38          0          0          0          0         68   f2d.o
       176          0          0          0          0        140   fadd.o
       124          0          0          0          0         88   fdiv.o
       110          0          0          0          0        168   fepilogue.o
        10          0          0          0          0         68   ffltui.o

    ----------------------------------------------------------------------
      4306        116          0          4          0       2492   Library Totals
         6          0          0          0          0          0   (incl. Padding)

    ----------------------------------------------------------------------

      Code (inc. data)   RO Data    RW Data    ZI Data      Debug   Library Name

      2720        116          0          4          0       1216   mc_w.l
      1580          0          0          0          0       1276   mf_w.l

    ----------------------------------------------------------------------
      4306        116          0          4          0       2492   Library Totals

    ----------------------------------------------------------------------

==============================================================================


      Code (inc. data)   RO Data    RW Data    ZI Data      Debug   

     27908       2194        488        164      35708     746546   Grand Totals
     27908       2194        488        164      35708     746546   ELF Image Totals
     27908       2194        488        164          0          0   ROM Totals

==============================================================================

    Total RO  Size (Code + RO Data)                28396 (  27.73kB)
    Total RW  Size (RW Data + ZI Data)             35872 (  35.03kB)
    Total ROM Size (Code + RO Data + RW Data)      28560 (  27.89kB)

==============================================================================

