:020000040800F2
:10000000E007002049010008B3120008BB110008F6
:10001000B1120008B5010008151500080000000025
:10002000000000000000000000000000B7120008FF
:10003000FD01000800000000B5120008B912000818
:100040006301000863010008630100086301000800
:1000500063010008630100086301000863010008F0
:1000600063010008630100086301000863010008E0
:100070006301000863010008E5010008F1010008C0
:1000800063010008630100086301000863010008C0
:1000900063010008630100086301000863010008B0
:1000A00063010008630100086301000863010008A0
:1000B0006301000863010008630100086301000890
:1000C0006301000863010008630100086301000880
:1000D00063010008D11400086301000863010008EF
:1000E0006301000863010008630100086301000860
:1000F0006301000863010008630100086301000850
:10010000630100086301000863010008630100083F
:100110006301000863010008630100081D13000863
:10012000630100086301000863010008630100081F
:10013000DFF810D000F02CF800480047BD17000889
:10014000AFF30080E00700200648804706480047DC
:10015000FEE7FEE7FEE7FEE7FEE7FEE7FEE7FEE777
:10016000FEE7FEE71B13000831010008D2B201E0F0
:1001700000F8012B491EFBD270470022F6E710B5AC
:1001800013460A4604461946FFF7F0FF204610BD05
:10019000064C074D06E0E06840F0010394E80700D4
:1001A00098471034AC42F6D3FFF7C6FF1C1A00087C
:1001B0003C1A0008FEE7000070B5094DFF231A46FF
:1001C00005F5807606E000BF10F8014B54402A5D2B
:1001D0005A40335D491E89B2F6D242EA032070BD0F
:1001E00019180008014800F00DB8000008010020AF
:1001F000014800F007B80000C4000020704772B644
:10020000FEE700002DE9F05FC16B0A6801680B682A
:10021000046C4FF0040808FA04F8844D844E854FAE
:10022000DFF814C2DFF81492DFF814A2DFF814B27A
:10023000DFF814E218EA020F65D05FEA437862D56E
:100240000A68920603D40A6822F004020A60DFF802
:10025000F0814FF48062016808F114081301140260
:10026000414524D9A9420DD0B1420FD0B9421AD08C
:10027000614515D0494515D0514501D1120312E011
:10028000594501D104220EE0714501D140220AE016
:100290006D4D1435A94206D06B4A2832914201D1E6
:1002A0001A4600E022466749091F0A6029E0A94270
:1002B00013D0B14215D0B94220D061451BD0494579
:1002C0001BD0514502D14FF4800217E0414502D1C5
:1002D0004FF0806212E0594501D104220EE07145D1
:1002E00001D140220AE0584D1435A94206D0564AA1
:1002F0002832914201D11A4600E022464B49083982
:100300004A60C16A71E04FF0020808FA04F818EA7E
:10031000020F70D05FEA83786DD50A68920606D422
:100320000A6822F00A020A60012180F82110DFF831
:1003300010814FF40072016808F1140813011402CF
:10034000414524D9A9420DD0B1420FD0B9421AD0AB
:10035000614515D0494515D0514501D1120312E030
:10036000594501D102220EE0714501D120220AE057
:10037000354D1435A94206D0334A2832914201D175
:100380001A4600E022462F49091F0A6029E0A942C7
:1003900013D0B14215D0B94220D061451BD0494598
:1003A0001BD0514502D14FF4001217E0414502D154
:1003B0004FF0007212E0594501D102220EE0714562
:1003C00001D120220AE0204D1435A94206D01E4A50
:1003D0002832914201D11A4600E0224613490839D9
:1003E0004A60002180F82010816A00291CD0BDE8F5
:1003F000F05F0847FFE70825A540154214D01A070B
:1004000012D50A6822F00E020A6090F84020C36BF1
:10041000012101FA02F25A60816380F82110002163
:1004200080F82010016BE0E7BDE8F09F0800024073
:100430001C000240300002404400024058000240CC
:100440006C000240080402401C04024030B560B158
:100450001A4B026814219A4209D2194B1344B3FB78
:10046000F1F18900016417490AE0012030BD134B06
:100470005B421344B3FBF1F1890001640F49083971
:10048000C163022180F82110136843F6F0718B4399
:10049000F0E901142143D0E902452C4321430469CA
:1004A0002143446921438469214319431160002198
:1004B0004163012242770177084630BD08040240BB
:1004C000F8FFFDBF0000024070B5044600F00AF9D5
:1004D0000546601C02D004480078044400F002F98C
:1004E000401BA042FAD370BD000000202DE9F84F58
:1004F000DFF8C891002409F1040A0AF1040B23462D
:100500000F270BF1040ED1E00125A54006EA0502F4
:10051000AA4276D1DFF8A8C14E68A6EB0C08664562
:100520002BD00DDC032E34D005DC36B3012E19D0D0
:10053000022E2FD11BE0112E16D0122E2AD119E037
:10054000B8F5881F19D006DCB8F5803F15D0B8F58E
:10055000801F1FD111E0B8F5001F0ED0B8F5041FA1
:1005600018D10AE0CB6815E0CB681B1D12E0CB6800
:1005700008330FE0CB680C330CE08B682BB1012BF8
:100580004FF0080303D0456104E0042302E0056155
:1005900000E00023FF2A01D8064601E000F104062E
:1005A0004FEA840501D9A5F12005D6F8008007FAA5
:1005B00005FC28EA0C0803FA05F548EA0508C6F820
:1005C00000804D68ED0070D53E4DAE6946F00106E5
:1005D000AE61AD6924F0030605F0010500953A4DC2
:1005E00006EB050CDCF80850A607360F07FA06F8EC
:1005F00025EA0805DFF8D480404503D14FF0000814
:1006000025E052E0DFF8C880404502D14FF00108F4
:100610001DE0DFF8C080404502D14FF0020816E02F
:10062000DFF8B480404502D14FF003080FE0DFF857
:10063000AC80404502D14FF0040808E0DFF8A0800C
:10064000404502D14FF0050801E04FF0060808FAD6
:1006500006F848EA0508CCF808804D68D9F800602B
:10066000ED034D4601D5164300E096432E604D68DC
:10067000DAF80060AD03554601D5164300E0964315
:100680002E604D68DBF80060ED025D4601D5164333
:1006900000E096432E604D68DEF80060AD027546BE
:1006A00001D5164300E096432E60641C0A68164686
:1006B000E2407FF429AFBDE8F88F0000000401405C
:1006C000000011100010024000000140000801402D
:1006D000000C0140001001400014014000180140CE
:1006E000001C0140014880687047000000000020A5
:1006F0000248816802781144816070470000002040
:10070000074810B5016841F010010160032000F0B6
:1007100075F80F2000F006F800F024F8002010BD56
:100720000020024070B50D4D04464FF47A712878D0
:10073000B1FBF0F00A490968B1FBF0F000F0ECFA07
:1007400048B9102C07D200222146501E00F036F87E
:1007500000206C6070BD012070BD00000000002012
:100760000C0000200C4808B5816941F0010181614D
:10077000816901F001010091C16941F08051C161BD
:10078000C06900F0805000900448416821F0E061A9
:1007900041F00071416008BD0010024000000140BE
:1007A000002809DB00F01F02012191404009800070
:1007B00000F1E020C0F8001170470000F0B40E4BCB
:1007C0001B680C46C3F30223C3F10705042D00D9AF
:1007D0000425191D072901D2002300E0DB1E012694
:1007E00006FA05F1491E214099409E40761E1640AA
:1007F0003143F0BC00F0C2BF0CED00E0064900F050
:10080000070208684FF6FF03184040EA0220034A37
:1008100010430860704700000CED00E00000FA058E
:100820002DE9F0470F46050061D0434E306800F0D7
:100830000700B84209D2306820F007003843306022
:10084000306800F00700B84251D128683B4C81075E
:1008500012D5400703D5606840F4E06060602878F6
:10086000000703D5606840F4605060606068A96864
:1008700020F0F000084360602878C00728D068683E
:10088000012810D02168022810D0890700292EDA0B
:10089000616821F0030101436160FFF723FF804697
:1008A00041F288390DE021688903EFE78901EDE71E
:1008B000FFF718FFA0EB0801494502D90320BDE866
:1008C000F0876068696800F00C00B0EB810FEFD131
:1008D000306800F00700B8420BD9306820F00700FC
:1008E00038433060306800F00700B84201D0012082
:1008F000E5E72878400705D56068E96820F4E060FE
:10090000084360602878000706D56068296920F4EC
:10091000605040EAC100606000F038F86168084A41
:10092000C1F30311515CC8400649086006480068DD
:10093000FFF7F8FE0020C2E700200240001002404E
:10094000EC1700080C0000200400002004480549B2
:1009500000684968044AC1F30221515CC8407047ED
:100960000C00002000100240FC1700080448054954
:1009700000684968044AC1F3C221515CC84070470D
:100980000C00002000100240FC17000812A185B0E6
:100990000FC98DE80F0014A0144A00680490516834
:1009A000134801F00C03042B10D0082B0ED1C1F317
:1009B0008343C9031DF803000AD5516804AAC1F393
:1009C0004041515C0A4A5043B0FBF1F005B070471A
:1009D00008494843FAE7000002030405060708092E
:1009E0000A0B0C0D0E0F1010010200000010024047
:1009F00000127A0000093D002DE9F84F040070D084
:100A00002078C04DC00749D06868C0F38100012834
:100A100007D06868C0F38100022809D16868C00364
:100A200006D52868800339D560680028E7D035E00E
:100A30006068B0F5803F0BD010B1B0F5A02F11D099
:100A4000286820F480302860286820F4802002E0A4
:100A5000286840F480302860606890B1FFF742FE5B
:100A600006460AE0286840F480202860F0E700BFCE
:100A7000FFF738FE801B642873D828688003F7D5F9
:100A80000CE0FFF72FFE064605E000BFFFF72AFE49
:100A9000801B6428F0D828688003F7D420789A4E09
:100AA00080074FF001094FF0000839D5686810F051
:100AB0000C0F07D06868C0F38100022809D168686C
:100AC000C00306D42868800714D52069012808D1FE
:100AD00010E02069B0B1C6F80090FFF703FE0746AA
:100AE00005E00AE1FFF7FEFDC01B0228C4D8286814
:100AF0008007F7D52868616920F0F80040EAC10056
:100B000028600DE0C6F80080FFF7ECFD074604E022
:100B1000FFF7E8FDC01B022823D828688007F7D418
:100B2000207800072CD57948A169D9B1C0F8009088
:100B3000FFF7D8FD074604E0FFF7D4FDC01B0228ED
:100B40000FD8686A8007F7D571484FF4FA510068EA
:100B5000B0FBF1F0009000BF0098411E0091FAD266
:100B60000EE080E0C0F80080FFF7BCFD074604E01F
:100B7000FFF7B8FDC01B022875D8686A8007F7D454
:100B80002078400760D5E8690027C00008D4E869EC
:100B900040F08050E861E869012700F08050009043
:100BA0005C480168C90513D40168834641F480712B
:100BB0000160FFF797FD824606E000BFFFF792FD58
:100BC000A0EB0A0064284ED8DBF80000C005F5D57C
:100BD000E06801280AD008B1052813D0286A20F05F
:100BE00001002862286A20F0040002E0286A40F030
:100BF00001002862E06841F2883B98B1FFF772FD7E
:100C000082460BE0286A40F004002862EEE700BF4D
:100C1000FFF768FDA0EB0A0159455AD8286A8007FA
:100C2000F6D50CE0FFF75EFD824605E0FFF75AFDC2
:100C3000A0EB0A0159454CD8286A8007F6D41FB1A9
:100C4000E86920F08050E861E06988B36968C1F321
:100C50008101022944D00228C6F8608004D0FFF741
:100C600041FD044638E034E0FFF73CFD074604E070
:100C7000FFF738FDC01B02282BD828688001F7D465
:100C8000206AB0F5803F05D16868A16820F4003083
:100C900008436860D4E908010843696821F47411C5
:100CA00008436860C6F86090FFF71CFD044606E044
:100CB00025E000BFFFF716FD001B022809D82868B1
:100CC0008001F7D51BE000BFFFF70CFD001B0228D9
:100CD00002D90320BDE8F88F28688001F4D40EE023
:100CE0000128F7D06868226A00F48031914204D16B
:100CF000616A00F47010884201D00120EAE7002008
:100D0000E8E7000000100240000042428004424236
:100D10000C0000200070004010B5401EB0F1807F34
:100D200001D3012010BD4FF0E02460610F21601756
:100D300000F024FD0020A06107202061002010BDEC
:100D40007047704770B590F83C20012A2CD00124E0
:100D500080F83C40022280F83D2003685A689D6874
:100D600022F070060A6832435A60104B02689A42B9
:100D70000ED00F4B9A420BD0B2F1804F08D00D4BE2
:100D80009A4205D00C4B9A4202D00C4B9A4204D1A5
:100D9000496825F080031943916080F83D400021A7
:100DA00080F83C10084670BD022070BD002C014048
:100DB000003401400004004000080040000C0040E6
:100DC00010B5040003D094F83D0010B107E00120F5
:100DD00010BD002084F83C00204600F01FF80220DF
:100DE00084F83D00211D206800F09EFA012084F85F
:100DF000460084F83E0084F83F0084F8400084F800
:100E0000410084F8420084F8430084F8440084F8E8
:100E1000450084F83D00002010BD000008B50068C2
:100E20000B49884212D10B48C16941F02001C161D0
:100E3000C069002200F02000009002213720FFF757
:100E4000BDFCBDE808403720FFF7AABC08BD000084
:100E50000014004000100240704770B5044600685E
:100E600001694FF00005C943890715D4C168C9431A
:100E7000890711D4E91E016101202077206880696B
:100E80008007204602D0FFF7E7FF04E000F098F863
:100E9000204600F096F8257720680169C943490784
:100EA00017D4C168C943490713D46FF00401016125
:100EB000022020772068806910F4407F204602D00D
:100EC000FFF7CAFF04E000F07BF8204600F079F855
:100ED000257720680169C943090716D4C168C94349
:100EE000090712D46FF008010161042020772068FF
:100EF000C0698007204602D0FFF7AEFF04E000F093
:100F00005FF8204600F05DF8257720680169C94345
:100F1000C90617D4C168C943C90613D46FF01001BC
:100F20000161082020772068C06910F4407F2046C6
:100F300002D0FFF791FF04E000F042F8204600F0F5
:100F400040F8257720680169C943C90708D1C168FD
:100F5000C943C90704D1891E0161204600F032F857
:100F600020680169C943090609D4C168C943090653
:100F700005D46FF0800101612046FFF7E1FE206893
:100F80000169C943490609D4C168C943490605D462
:100F90006FF040010161204600F015F820680169FA
:100FA000C94389060BD4C168C943890607D46FF0C9
:100FB000200101612046BDE87040FFF7C2BE70BD50
:100FC000704770477047704770B5040004D094F8BC
:100FD0003D00002510B106E0012070BD84F83C50B2
:100FE000204600F023F8242084F83D002068C168E2
:100FF00021F40051C160204600F0DCF9206801694D
:1010000021F4904101612068416921F02A01416188
:101010002068C16841F40051C1602564202084F833
:101020003D0084F83E00002070BD0000F0B585B0A2
:1010300000240646009401940294039400682D490C
:10104000884254D12C48816941F480418161816991
:1010500001F480410491816941F00401816180695A
:10106000264D00F0040004904FF400700090022020
:1010700001900320039069462846FFF737FA2815A8
:10108000CDE90004694628460294FFF72FFA1D4D6A
:101090001B488027C5E90004C5E902472C616C6143
:1010A000AC612846EC61FFF7D1F908B1FFF7A7F86A
:1010B000B5636E62134D12484435143801C51020D3
:1010C00091C5104845F8104944306C61AC61EC6141
:1010D000FFF7BCF908B1FFF792F875630022012110
:1010E00025206E62FFF76AFB2520FFF759FB05B04C
:1010F000F0BD00000038014000100240000801402F
:1011000058000240C40000202DE9F843044690F83E
:101110003D001F4616460D4620284CD1C5B1BEB134
:1011200094F83C00012846D0012084F83C004FF0A0
:101130000008C4F84080212084F83D00FFF7D2FA6F
:10114000A6848146E684A068B0F5805F03D004E001
:101150000120BDE8F883206928B12E465FF0000524
:1011600084F83C800EE00026FAE78021204600F05B
:101170007DF9A0B9AEB116F8010B21684860E08C8A
:10118000401EE084E08C4B464FF0000200970028A0
:10119000EBD14FF04001204600F068F930B1032058
:1011A000D7E735F8020BC0F30800E6E7202084F803
:1011B0003D000020CDE70220CBE7FEE70D4808B553
:1011C000416941F0010141614069002200F00100E4
:1011D000009011460E20FFF7F1FA0E20FFF7E0FA1B
:1011E000002211460F20FFF7E9FABDE808400F2062
:1011F000FFF7D6BA001002400D4808B5816941F0EA
:1012000010018161816901F010010091816941F053
:1012100020018161816901F020010091816941F023
:1012200004018161806900F00400009008BD0000A5
:10123000001002401CB500240E4800940C49019493
:1012400001604721C0E9011431218461C160FFF7C9
:10125000B7FD08B1FEF7D3FF009469460548019435
:10126000FFF770FD002801D0FEF7C9FF1CBD00008C
:1012700000140040380000200C4810B50A490160F5
:101280004FF4E1314160002181600C22C160C0E96E
:1012900004128161C161FFF797FE002803D0BDE809
:1012A0001040FEF7ACBF10BD0038014080000020A8
:1012B000FEE7FEE770477047FFF71ABA30B58FB008
:1012C00028216846FEF759FF14210AA8FEF755FFAA
:1012D00001210804CDE900100024029402250491A4
:1012E000CDE907504FF4E01009906846FFF784FB02
:1012F00008B172B6FEE70F20CDE90A054FF4806011
:10130000CDE90C4002210AA80E94FFF789FA0028C3
:1013100001D072B6FEE70FB030BD70470148FFF74D
:101320009CBD000038000020F0B502681C4B1D4D2C
:101330001D4E1E4F1E4C4FF0804C984209D0A042CB
:1013400007D0604505D0A84203D0B04201D0B842D2
:1013500004D122F0700E4A6842EA0E02984209D087
:10136000A04207D0604505D0A84203D0B04201D0CA
:10137000B84203D122F44075CA682A434D6922F06D
:1013800080022A4302608A68C2620A6882629842C6
:1013900001D0A04201D10969016301214161F0BD81
:1013A000002C01400004004000080040000C0040F8
:1013B0000034014070B5044600680169E26821F418
:1013C0004051114301612169A068084361690843E4
:1013D0002168CA6841F20C639A430243CA602068DC
:1013E0004169A26921F44071114341611E4920689D
:1013F000884202D1FFF7BAFA01E0FFF7A7FA00EB43
:10140000C00101EB0012606864218000B2FBF0F3C0
:10141000B3FBF1F36FF018067343B2FBF0F5B2FBC8
:10142000F0F605EB8305322303EB0515B5FBF1F56B
:10143000B6FBF1F605F0F00505EB0615B2FBF0F68C
:10144000B2FBF0F0B0FBF1F06FF01802504306EB86
:10145000800003EB0010B0FBF1F0216800F00F00FA
:101460002844886070BD0000003801402DE9F0413B
:10147000984617460E460446069D1DE0681C1BD084
:101480002DB1FFF72FF9A0EB0800A84214D920686E
:10149000C16821F4D071C1602068416921F0010167
:1014A0004161202084F83D0084F83E00002084F84B
:1014B0003C000320BDE8F0812068006836EA0000A7
:1014C00004D00020B842D9D00020F3E70120F9E78A
:1014D0000C4810B500680168C943890610D46FF044
:1014E00020010160084802680848C9214078484343
:1014F00007490B5C5C18431CE2540A5C521C0A54FA
:1015000010BD0000800000200438014013000020BE
:101510004C020020FEE700001CB5054BD3E9022376
:10152000CDE900230A460523694600F099F81CBD61
:10153000041800081CB5054BD3E90423CDE90023AA
:101540000A460523694600F08BF81CBD0418000804
:101550001CB505A3D3E90023CDE900230A460523E2
:10156000694600F07DF81CBD01020304050000007F
:1015700002480021017041707047000013000020F4
:101580002DE9F041264A274D002411784FF480764A
:1015900031B1012908D0022910D003293CD112E031
:1015A000AA2839D1012102E0552835D10221117034
:1015B00051786854491C5170BDE8F081411EFE29E4
:1015C0002AD80321F3E751784B1EFE2B24D8685408
:1015D000491CC9B25170A878C01C8842ECD1681867
:1015E000904610F8022D491F407889B202EB002086
:1015F00087B2E81CFEF7E0FDB842DDD1E878454649
:1016000098F80120074900F00FF82C706C703146F3
:101610000448FEF7B2FDCFE714705470F7E70000FE
:10162000100000204C0100202DE9F04704260B4D4E
:10163000904689460746002415F83400B84207D181
:1016400005EBC40043681BB14246494638469847FB
:10165000641CE4B2B442EFD3BDE8F0871800002068
:1016600070B51446AA22227055226270A370E070F1
:101670000425002005E00A5C62556D1C401CEDB29B
:10168000C0B29842F7D3E81E81B2E01CFEF794FD89
:1016900060556D1CE9B2000A6054491CCDB2642348
:1016A0002A4621460248FFF72FFD284670BD00005C
:1016B0008000002007490128096806D0002803D1CE
:1016C000C86820F02000C8607047C86840F020005B
:1016D000F9E70000800000202DE9F0411E4FB878A6
:1016E00010B10020BDE8F0811B4C0120E41CB87053
:1016F0002178C920194E48434FF00008305C38B1BA
:101700006078814209D1C72805D384F8018004E0BC
:1017100087F80280E5E7401C6070002506E0881924
:1017200028444078FFF72CFF6D1CEDB22078C921CA
:101730004143725CAA42F2D8C2B2C9235A4341461D
:1017400006F80280C72801D3217001E0401C2070F8
:10175000B9700120C6E70000100000204C020020F4
:101760001CB5054BD3E90023CDE900230A46052328
:101770006946FFF775FF1CBD041800080907090E2C
:10178000002804DB00F1E02080F80014704700F02E
:101790000F0000F1E02080F8141D704702E008C837
:1017A000121F08C1002AFAD170477047002001E0DB
:1017B00001C1121F002AFBD170470000FEF7A0FFF5
:1017C000FFF77CFDFFF718FDFFF734FDFFF7F6FC90
:1017D000FFF752FDFFF7CCFE0120FFF76BFF00BFC4
:1017E000FFF77AFF0A20FEF76FFEF9E7000000001E
:1017F00000000000010203040607080900000000C1
:1018000001020304010000000000000001020300C7
:1018100000000000010203040000C1814001C080FB
:101820004101C0804100C1814001C0804100C181AF
:101830004000C1814001C0804101C0804100C181A0
:101840004000C1814001C0804100C1814001C08091
:101850004101C0804100C1814001C0804100C1817F
:101860004000C1814001C0804100C1814001C08071
:101870004101C0804100C1814000C1814001C08060
:101880004101C0804100C1814001C0804100C1814F
:101890004000C1814001C0804101C0804100C18140
:1018A0004000C1814001C0804100C1814001C08031
:1018B0004101C0804100C1814000C1814001C08020
:1018C0004101C0804100C1814001C0804100C1810F
:1018D0004000C1814001C0804100C1814001C08001
:1018E0004101C0804100C1814001C0804100C181EF
:1018F0004000C1814001C0804101C0804100C181E0
:101900004000C1814001C0804100C1814001C080D0
:101910004101C0804100C1814000C0C101C3030238
:10192000C2C60607C705C5C404CC0C0DCD0FCFCE6B
:101930000E0ACACB0BC90908C8D81819D91BDBDA9B
:101940001A1EDEDF1FDD1D1CDC14D4D515D71716BB
:10195000D6D21213D311D1D010F03031F133F3F2CB
:101960003236F6F737F53534F43CFCFD3DFF3F3EAB
:10197000FEFA3A3BFB39F9F83828E8E929EB2B2A3B
:10198000EAEE2E2FEF2DEDEC2CE42425E527E7E6FB
:101990002622E2E323E12120E0A06061A163A3A26B
:1019A0006266A6A767A56564A46CACAD6DAF6F6EEB
:1019B000AEAA6A6BAB69A9A86878B8B979BB7B7A1B
:1019C000BABE7E7FBF7DBDBC7CB47475B577B7B63B
:1019D0007672B2B373B17170B0509091519353520B
:1019E0009296565797559594549C5C5D9D5F9F9E2B
:1019F0005E5A9A9B5B99595898884849894B8B8ABB
:101A00004A4E8E8F4F8D4D4C8C448485458747467A
:101A10008682424383418180400000003C1A0008D6
:101A200000000020380000009C170008741A00080D
:101A300038000020A8070000AC17000801000000D3
:101A400010000000000000000024F400000000006E
:101A50000000000001000000511500080200000015
:101A600061170008030000001915000804000000B9
:041A70003515000820
:0400000508000131BD
:00000001FF
