:020000040800F2
:10000000C00500209D0100081716000833130008E2
:1000100015160008C5020008011E000800000000B7
:100020000000000000000000000000006D16000845
:10003000C702000800000000391600086F1600080B
:10004000B7010008B7010008B7010008B7010008B0
:10005000B70100083B160008B7010008B701000807
:10006000B7010008B7010008B7010008B701000890
:10007000B7010008B7010008B7010008B701000880
:10008000B7010008B7010008B7010008B701000870
:10009000B7010008B7010008B7010008B701000860
:1000A000B7010008B7010008B7010008B701000850
:1000B0004D17000859170008B7010008B7010008DC
:1000C000B7010008B7010008B7010008B701000830
:1000D000B7010008E91D0008F51D0008B701000878
:1000E000B7010008B7010008B7010008B701000810
:1000F000B7010008B7010008B7010008B701000800
:10010000B7010008B7010008B7010008B7010008EF
:10011000B7010008B7010008B7010008651700081B
:10012000B7010008B7010008B7010008B7010008CF
:10013000B7010008B7010008B7010008B7010008BF
:10014000B7010008B7010008B7010008B7010008AF
:10015000B7010008B7010008B7010008B70100089F
:10016000B7010008B7010008B7010008B70100088F
:10017000B7010008B7010008B7010008000000003F
:10018000B7010008B7010008DFF80CD000F088F8CC
:100190000048004775320008C00500200648804727
:1001A00006480047FEE7FEE7FEE7FEE7FEE7FEE75C
:1001B000FEE7FEE7FEE7FEE7F91600088901000802
:1001C0002DE9F05F0546002092469B46884606468C
:1001D000814640241BE0284641464746224600F01F
:1001E0004EF853465A46C01A914110D3114618464C
:1001F000224600F035F82D1A67EB01084F462246DB
:100200000120002100F02CF817EB00094E41201EC0
:10021000A4F10104DFDC484631462A464346BDE8E6
:10022000F09FD2B201E000F8012B491EFBD27047CB
:100230000022F6E710B513460A4604461946FFF7B2
:10024000F0FF204610BD30B504460020034600E014
:100250005B1C934203D2E05CCD5C401BF8D030BD08
:10026000202A04DB203A00FA02F100207047914076
:10027000C2F1200320FA03F3194390407047202A6B
:1002800004DB203A21FA02F00021704721FA02F340
:10029000D040C2F120029140084319467047000047
:1002A000064C074D06E0E06840F0010394E80700C3
:1002B00098471034AC42F6D3FFF76AFFEC320008DF
:1002C0000C330008FEE77047704790F8351002299C
:1002D00003D08021416501207047052180F8351049
:1002E0000068016821F001010160002070470000F2
:1002F0000149086070470000000000202DE9F84F18
:10030000DFF87CB100224FF001084FF0030A4FF0F4
:100310000F090BF1040E00BF0B6808FA02F423402A
:10032000A3426ED14D68022D01D0122D0ED1D508F9
:1003300000EB850CDCF820505607F70E09FA07F69B
:10034000B5430E69BE402E43CCF8206006685500C8
:100350000F790AFA05FC07F0030726EA0C06AF40FE
:10036000374307604E68012E05D0022E03D0112EB0
:1003700001D0122E0ED18668CF6826EA0C06AF4057
:10038000374387604668A6430C79C4F30014944051
:1003900034434460C6688C6826EA0C06AC4034439B
:1003A000C4604C68E40065D5364C256845F480454A
:1003B0002560246822F0030504F480440094324C44
:1003C0002E19D6F8084895072F0F09FA07F5AC4300
:1003D0002E4DA84201D1002524E02D4DA84201D187
:1003E00001251FE02B4DA84201D102251AE02A4D1C
:1003F000A84201D1032515E0284DA84202D10425C9
:1004000010E037E0264DA84201D105250AE0254D30
:10041000A84201D1062505E0234DA84201D10725B8
:1004200000E00825BD402543C6F80858DBF8004029
:100430005D464E689C43F60300D51C432C60DEF8F5
:10044000004075464E689C43B60300D51C432C60A3
:100450000B4D08352C684E689C43F60200D51C43B2
:100460002C60074D0C352C684E689C43B60200D5B5
:100470001C432C60521C102AFFF44EAFBDE8F88FCD
:10048000003C01404438024000300140000002407E
:100490000004024000080240000C0240001002402C
:1004A0000014024000180240001C02400AB18161A1
:1004B00070470904FBE700000148806870470000AE
:1004C0000C00002002488168027811448160704766
:1004D0000C0000200B4810B5016841F40071016068
:1004E000016841F480610160016841F4807101603C
:1004F000032000F075F8002000F006F800F024F862
:10050000002010BD003C024070B50D4D04464FF474
:100510007A712878B1FBF0F00A490968B1FBF0F074
:1005200000F0E6FA48B9102C07D200222146501EEE
:1005300000F036F800206C6070BD012070BD000036
:100540000C000020180000200E4808B5016841F496
:1005500080410160006800F4804000900948001F5D
:10056000016841F0805101600068002200F0805075
:1005700000901146052000F013F8BDE80840052062
:1005800000F002B84438024000F01F0201219140FF
:100590004009800000F1E020C0F800117047000021
:1005A000F0B40E4B1B680C46C3F30223C3F10705DE
:1005B000042D00D90425191D072901D2002300E0CC
:1005C000DB1E012606FA05F1491E214099409E4096
:1005D000761E16403143F0BC01F01EB80CED00E071
:1005E000064900F0070208684FF6FF03184040EA8A
:1005F0000220034A10430860704700000CED00E041
:100600000000FA052DE9F0470E46050065D0DFF839
:100610001481D8F80000F7B200F00F00B04207D202
:1006200088F80070D8F8000000F00F00B04254D1F4
:1006300028683D4C810712D5400703D5206840F457
:10064000E05020602878000703D5206840F460401F
:1006500020602068A96820F0F00008432060287816
:10066000C0072DD0304968680839012812D0022807
:1006700013D0032811D00968890700292DDA2168D1
:1006800021F0030101432160FFF716FF814641F28B
:10069000883A0EE009688903EFE709688901ECE709
:1006A000FFF70AFFA0EB0901514502D90320BDE87D
:1006B000F0872068696800F00C00B0EB810FEFD183
:1006C000D8F80010404601F00F01B14207D9077079
:1006D000006800F00F00B04201D00120E7E7287861
:1006E000400705D52068E96820F4E0500843206001
:1006F0002878000706D52068296920F4604040EA80
:10070000C100206000F036F82168084AC1F30311E7
:10071000515CC840064908600020FFF7F5FE002044
:10072000C5E70000003C024008380240D43200080F
:10073000180000200448054900680968044AC1F30C
:100740008221515CC84070471800002008380240E0
:10075000E43200080448054900680968044AC1F306
:100760004231515CC84070471800002008380240F0
:10077000E4320008154810B5006810F00C02144867
:1007800013D04110042A0FD0082A0ED10F4C241F79
:100790002268236802F03F025B0207D52068C0F39D
:1007A0008810A0FB010106E0084610BD2168C1F3D6
:1007B0008811A1FB00010023FFF702FD2168C1F3AE
:1007C0000141491C4900B0FBF1F010BD083802405E
:1007D0000024F4002DE9F84F050076D02878DFF8E2
:1007E000F8B2BE4CC00749D0DBF800105846C1F340
:1007F0008101012908D00068C0F3810002280AD1D4
:10080000201D0068400206D52068800336D5686840
:100810000028E2D032E06868B0F5803F10D0B0F533
:10082000A02F206810D020F480302060206820F4B1
:10083000802020606868A0B1FFF73EFE06460CE00D
:10084000206840F48030F4E740F480202060F7E72F
:10085000FFF732FE801B642873D820688003F7D529
:100860000CE0FFF729FE064605E000BFFFF724FE77
:10087000801B6428F0D820688003F7D42878DFF83C
:10088000608280074FF000093ED5DBF80010584623
:1008900011F00C0F09D00068C0F3810002280BD1C1
:1008A0008D48001F0068400206D42068800715D5D7
:1008B000E868012809D111E0E868B8B10120C8F85A
:1008C0000000FFF7F9FD064605E002E1FFF7F4FD41
:1008D000801B0228C0D820688007F7D520682969C6
:1008E00020F0F80040EAC10020600DE0C8F8009058
:1008F000FFF7E2FD064604E0FFF7DEFD801B02285D
:100900001FD820688007F7D42878000722D5724EB8
:10091000744869696C3671B101210160FFF7CCFD43
:10092000074604E0FFF7C8FDC01B022809D830685D
:100930008007F7D50EE0C0F80090FFF7BDFD074631
:1009400005E083E0FFF7B8FDC01B02287ED83068C1
:100950008007F7D42878400768D5DFF87CA1002706
:100960000AF1380ADAF80000C0000BD4DAF80010F7
:1009700041F08051CAF80010DAF80000012700F0B9
:1009800080500090584E3068C00510D4306840F454
:1009900080703060FFF790FD009005E0FFF78CFD60
:1009A0000099401A022851D83068C005F6D54A4E41
:1009B000A868683601280FD00528306810D020F0CC
:1009C00001003060306820F004003060A868B8B1E1
:1009D000FFF772FD00900FE0306840F00100F4E78F
:1009E00040F004003060F7E7FFF766FD0099411A18
:1009F00041F28830814264D830688007F4D50EE037
:100A0000FFF75AFD009007E0FFF756FD0099411AE5
:100A100041F28830814254D830688007F4D42FB135
:100A2000DAF8001021F08051CAF80010A869C0B3AC
:100A3000DBF80010C1F3810102294AD002284846A0
:100A400007D0C8F86000FFF737FD00E039E0054641
:100A50003AE04746C8F86000FFF72EFD064604E07E
:100A6000FFF72AFD801B02282BD820688001F7D4CD
:100A7000D5E907010843A96A1C4A490802EB01416C
:100A80006A6A41EA8211084395F82C1040EA016134
:100A90001148001F016001203866FFF70DFD054673
:100AA00005E014E0FFF708FD401B022809D8206884
:100AB0008001F7D50BE000BFFFF7FEFC401B0228CA
:100AC00002D90320BDE8F88F20688001F4D400200B
:100AD000F8E70120F6E7000008380240003802403D
:100AE00000004742800E4742007000400000FFFFB8
:100AF00010B5401EB0F1807F01D3012010BD4FF032
:100B0000E02460610F21601700F086FD0020A061E5
:100B100007202061002010BD7047704730B590F865
:100B20003820012A20D0012280F83820022380F8C2
:100B3000393003685C6824F070045C6003685C68AA
:100B40000D682C435C6003689C6824F080049C6002
:100B500003689C6849680C439C6080F83920002138
:100B600080F83810084630BD022030BD10B50400B2
:100B700003D094F8390010B107E0012010BD002027
:100B800084F83800204600F00DF8022084F839007F
:100B9000211D206800F0ECFD012084F839000020C0
:100BA00010BD000008B501681D48B1F1804F11D09B
:100BB0001C4A91421DD1016841F0020101600068A8
:100BC000002200F00200009011461D20FFF7E8FC13
:100BD0001D201FE0016841F0010101600068002252
:100BE00000F00100009011461C20FFF7D9FC1C20EA
:100BF00010E00D4A914211D1016841F020010160DD
:100C00000068002200F02000009011463720FFF716
:100C1000C7FC3720BDE80840FFF7B6BC08BD0000A0
:100C2000403802400004004000140040022180F8D7
:100C3000391001680A6842F001020A60012180F857
:100C40003910002070470168CA6842F00102CA608A
:100C50000068016841F0010101600020704770B533
:100C6000044690F83800012817D0012584F8385040
:100C7000022084F839002068826822F0770222F48A
:100C80007F4282600868502837D00DDC202859D078
:100C900005DC88B3102841D151E0022070BD302816
:100CA00053D040283AD13FE060282ED070280BD096
:100CB000B0F5805F03D0B0F5005F2FD110E0206861
:100CC000816821F0070115E0CB68D1E90121206896
:100CD00000F0B9FD2168886840F0770088601DE069
:100CE000CB68D1E90121206800F0ADFD2068816862
:100CF00041F48041816011E01EE0CA6849682068C3
:100D000000F06AFE5021206806E0CA684968206841
:100D100000F073FE6021206800F09FFD84F83950D8
:100D2000002084F8380070BDCA684968206800F067
:100D300053FE40212068EFE700212068ECE71021F6
:100D40002068E9E720212068E6E730212068E3E712
:100D5000704770B50446006801694FF00005C9434B
:100D6000890715D4C168C943890711D4E91E0161F7
:100D700001202076206880698007204602D0FFF796
:100D8000E7FF04E000F0D4F8204600F056F925769D
:100D900020680169C943490717D4C168C943490795
:100DA00013D46FF00401016102202076206880696D
:100DB00010F4407F204602D0FFF7CAFF04E000F0A5
:100DC000B7F8204600F039F9257620680169C94353
:100DD000090716D4C168C943090712D46FF0080186
:100DE0000161042020762068C0698007204602D077
:100DF000FFF7AEFF04E000F09BF8204600F01DF97D
:100E0000257620680169C943C90617D4C168C9435A
:100E1000C90613D46FF01001016108202076206804
:100E2000C06910F4407F204602D0FFF791FF04E034
:100E300000F07EF8204600F000F925762068016970
:100E4000C943C90708D1C168C943C90704D1891E6C
:100E50000161204600F00EF920680169C9430906C6
:100E600009D4C168C943090605D46FF08001016146
:100E70002046FFF751FE20680169C943490609D49D
:100E8000C168C943490605D46FF04001016120469D
:100E900000F002F920680169C94389060BD4C168D2
:100EA000C943890607D46FF0200101612046BDE8DF
:100EB0007040FFF732BE70BD30B587B004461421D4
:100EC0006846FFF7B5F916492068884226D11548CB
:100ED0000024016841F001010160016801F0010195
:100EE0000591016841F0020101600068022500F0EF
:100EF00002000590C0200090CDE9015469460A48DF
:100F0000CDE90345FFF7FAF903200090CDE901543C
:100F100069460648CDE90345FFF7F0F907B030BD53
:100F2000000400403038024000000240000402404B
:100F3000704770B5044690F838000D4601280DD072
:100F4000012684F83860022084F8390042B1042A6E
:100F500018D0082A2AD00C2A4DD139E0022070BDC1
:100F6000206800F083FC2068816941F008018161FC
:100F70002068816921F004018161206881692A6902
:100F8000114311E0206800F09DFC2068816941F464
:100F9000006181612068816921F48061816120683C
:100FA00081692A6941EA0221816124E0206800F018
:100FB000BBFC2068C16941F00801C1612068C169BA
:100FC00021F00401C1612068C1692A69114311E05F
:100FD000206800F0D9FC2068C16941F40061C1615A
:100FE0002068C16921F48061C1612068C1692A69F2
:100FF00041EA0221C16184F83960002084F8380098
:1010000070BD10B5040003D094F8390010B107E0AA
:10101000012010BD002084F83800204600F00CF8B4
:10102000022084F83900211D206800F0A1FB012076
:1010300084F83900002010BD7047704710B5044691
:101040000068012200F0F4FB08492068884202D0C1
:101050000749884203D1416C41F400414164206852
:10106000016841F001010160002010BD0000014055
:10107000000401400068B0F1804F08D00449884264
:1010800005D00449884202D1642002F069B8704753
:1010900000040040001400407047704770B50268BB
:1010A00004461068D168536910F00F0F50D003F058
:1010B000010501F4907635435DD0C20705D0CA051D
:1010C00003D5E26B42F00102E263420705D5DA077D
:1010D00003D0E26B42F00202E263820705D5DA0731
:1010E00003D0E26B42F00402E263020705D5DA079F
:1010F00003D0E26B42F00802E263E26B002A33D0D5
:10110000800604D5880602D5204600F09EFC2068A3
:101110004069E16BC0F38010090700D428B3204672
:1011200000F085FC2068416949061AD5416921F023
:1011300040014161606BA0B11B490165606BFFF725
:10114000C4F8002810D0606B016DBDE870400847FE
:10115000830610D58B060ED52046BDE8704000F002
:1011600074BC2046FFF799FF70BD2046FFF795FF3E
:101170000020E06370BD030606D50B0604D52046AB
:10118000BDE8704000F0FEBD4006F3D54806F1D53D
:10119000D168204621F04001D160202184F8391027
:1011A00000F0C6F870BD00001F1A000870B50400FA
:1011B00004D094F83900002510B106E0012070BD7C
:1011C00084F83850204600F023F8242084F83900B1
:1011D0002068C16821F40051C160204600F07CFC09
:1011E0002068016921F4904101612068416921F082
:1011F0002A0141612068C16841F40051C160E56382
:10120000202084F8390084F83A00002070BD0000E6
:10121000F0B587B0044614216846FFF709F8274F58
:101220002268274902230124032507262548BA42BC
:101230001ED1234A1432176847F01007176012684E
:1012400002F0100205920A6842F001020A60096881
:1012500001F00101059169028DE87A006946FFF706
:101260004DF8002211462520FFF79AF9252020E0AD
:10127000154FBA421FD1124A1032176847F400378F
:101280001760126802F4003205920A6842F0010207
:101290000A60096801F0010105910C218DE87A00CE
:1012A0006946FFF72BF8002211462620FFF778F950
:1012B0002620FFF769F907B0F0BD000000100140DB
:1012C00030380240000002400044004090F83A30BC
:1012D000202B1DD1D1B1CAB190F83830012B17D0D5
:1012E00081628285C2850021C163222280F83A2072
:1012F00080F8381001684A6942F001024A610068CA
:10130000C16841F49071C1600020704701207047AE
:101310000220704700680449884202D0034988428D
:1013200001D101F035BF704700100140004400407A
:101330007047FEE72DE9F04186B014216846FEF7BC
:1013400077FF37480024016841F01001016001680F
:1013500001F010010591016841F020010160016870
:1013600001F020010591016841F0800101600168F0
:1013700001F080010591016841F0010101600168FF
:1013800001F001010591016841F00201016000686E
:10139000244F00F002004FF4007605900022314601
:1013A0003846FFF783F8DFF88080002244F22001FE
:1013B0004046FFF77BF81C2001258DE83100694687
:1013C0001A48FEF79BFF0096CDE90154694638465E
:1013D0000394FEF793FFCDE90054022669461448B2
:1013E0000296FEF78BFFA8038DE861006946404630
:1013F0000396FEF783FFE803CDE900046946404603
:101400000294FEF77BFF20208DE86100032003900B
:1014100069464046FEF772FF06B0BDE8F081000065
:101420003038024000140240000402400010024024
:101430000000024010B586B00024164800940194C4
:101440000294039404944FF0804105940160532169
:10145000C0E901144FF6FF71C0E90314FFF786FBE2
:1014600008B1FEF731FF4FF48050009069460948FB
:10147000FFF7F5FB08B1FEF727FF049404A9054820
:101480000594FFF74BFB002801D0FEF71DFF06B0C7
:1014900010BD00008800002010B58EB00024079415
:1014A000089409940A940B941C2168460C94FEF746
:1014B000BFFE2A48284901605321C0E9011440F2C7
:1014C000F311C0E90314FFF751FB08B1FEF7FCFE6E
:1014D0004FF48050079007A92048FFF7C0FB08B1E0
:1014E000FEF7F2FE1D48FFF78CFD08B1FEF7ECFE9B
:1014F0000B940BA919480C94FFF710FB08B1FEF7E9
:10150000E3FE6020CDE900040294002269461348FE
:101510000494FFF70EFD08B1FEF7D6FE04226946DB
:101520000E48FFF706FD08B1FEF7CEFE0822694619
:101530000A48FFF7FEFC08B1FEF7C6FE0C2269461A
:101540000648FFF7F6FC08B1FEF7BEFE0348FFF7BA
:10155000B3FC0EB010BD000000040040C400002029
:101560001CB500240E4800940C490194016042F21D
:10157000CF01C0E901140A21C160FFF7F7FA08B1F1
:10158000FEF7A2FE0094694605480194FFF7C6FAEB
:10159000002801D0FEF798FE1CBD0000001400409A
:1015A000000100200C4810B50A4901604FF4E131F8
:1015B0004160002181600C22C160C0E90412816198
:1015C000C161FFF7F3FD002803D0BDE81040FEF72E
:1015D0007BBE10BD001001403C0100200C4810B53E
:1015E0000A4901604FF4E1314160002181600C2221
:1015F000C160C0E904128161C161FFF7D7FD002815
:1016000003D0BDE81040FEF75FBE10BD00440040AF
:101610007C010020FEE770470907090E002806DA62
:1016200000F00F0000F1E02080F8141D704700F179
:10163000E02080F80014704770477047044B4FF467
:10164000007108B1012200E000221846FEF72EBF0B
:1016500000140240044B08B1012200E000222021C6
:101660001846FEF723BF0000000402407047FEF753
:1016700029BF000030B593B030216846FEF7D8FD91
:1016800014210CA8FEF7D4FD19480025016841F08B
:1016900080510160006800F0805011901548016889
:1016A00041F4804101600068022400F48040119000
:1016B00001200090000401908001CDE9064008AAB5
:1016C0000420A82182E813000B906846FFF782F8F7
:1016D0000CA90F2081E831004FF4A0500F90E002D8
:1016E000109005210CA8FEF78DFF13B030BD00004F
:1016F00040380240007000401048016841F4700119
:1017000001600F48016841F0010101600C4A0021AD
:101710000832116002680B4B1A400260031D0A4A2E
:101720001A60026822F48022026005480C300160D1
:1017300002495806803908607047000088ED00E0D3
:1017400000380240FFFFF6FE103000240148FFF78A
:1017500000BB0000880000200148FFF7FABA000033
:10176000C40000200148FFF7F4BA00000001002087
:10177000F0B50268234B244D244E254F254C4FF0E5
:10178000804C984209D0604507D0A84205D0B042AD
:1017900003D0B84201D0A04204D122F0700E4A68B2
:1017A00042EA0E0298421BD0604519D0A84217D0D9
:1017B000B04215D0B84213D0A04211D0164DA84265
:1017C0000ED0164DA8420BD0154DA84208D0154D8D
:1017D000A84205D0144DA84202D0144DA84203D10E
:1017E00022F44075CA682A4302608A68C2620A68A5
:1017F0008262984201D0A04201D1096901630121AE
:101800004161F0BD000001400004004000080040BC
:10181000000C004000040140004001400044014031
:101820000048014000180040001C0040002000401B
:1018300010B50123046A8B409C430462036A8A400A
:101840001343036210BD10B5846842EA032224F4F6
:101850007F440A432243826010BD826822F07002F6
:101860000A4342F0070181607047000030B5026A08
:1018700022F001020262026A436884690D6824F062
:101880007304254322F002048A6822430B4CA042D1
:1018900002D00B4CA0420BD122F00804CA6823F4FA
:1018A000407322434C6922F004021C438B6923439A
:1018B0004360856149684163026230BD00000140B8
:1018C0000004014030B5026A22F010020262026A8E
:1018D000436884690D6824F4E64444EA05248D686D
:1018E00022F0200242EA05120D4DA84202D00D4D11
:1018F000A8420ED1CD6822F0800242EA05124D695D
:1019000023F4406343EA85038D6922F0400243EAF1
:1019100085034360846149688163026230BD0000D1
:10192000000001400004014030B5026A22F48072D8
:101930000262036A4268C46923F4007324F07305E9
:101940000C682C438D6843EA05230D4DA84202D054
:101950000C4DA8420ED1CD6823F4006343EA052361
:101960004D6922F4405242EA05128D6923F48063E6
:1019700042EA05124260C4614968C163036230BD36
:10198000000001400004014030B5026A22F4805298
:101990000262046A4268C3690D6823F4E64343EABD
:1019A00005238D6824F4005444EA0534084DA84208
:1019B00002D0084DA84204D14D6922F4804242EA87
:1019C00085124260C36149680164046230BD000051
:1019D000000001400004014010B5036A046A24F0CD
:1019E00001040462846924F0F00444EA021423F040
:1019F0000A020A438461026210BD10B5036A23F033
:101A0000100303628369046A23F4704343EA0232D9
:101A100024F0A00343EA01118261016210BD10B5F8
:101A2000806B0021C185C184FFF737FB10BD0168C1
:101A3000CA6822F49072CA6001684A6922F0010201
:101A40004A61202180F83A10704710B590F83A109A
:101A5000222901D0022010BD8168B1F5805F11D02C
:101A60000169002901681FD0496801F07F03816A7C
:101A70004A1C82620B70C18D491E0904090CC18584
:101A800018D026E00269816A002A0268526805D0EF
:101A9000D2B20A80816A491C8162ECE7C2F3080273
:101AA0000A80816A891CF7E74A68816A4B1C836255
:101AB0000A70E0E70168CA6822F49072CA6001689F
:101AC0004A6922F001024A61202180F83A10FFF7AA
:101AD00021FC002010BD00002DE9F0410446006803
:101AE000016921F44052E168114301612168C8682D
:101AF00049F20C6290432369A268E5691A4363695D
:101B00002B431A430243CA602168486920F440729B
:101B1000A06910434861E1696425B1F5004F974819
:101B2000974A21684FF032083FD0914201D081425C
:101B30007CD1FEF70FFE00EBC00101EB00106168E5
:101B40008900B0FBF1F6FEF705FE00EBC00101EBEA
:101B5000001061688900B0FBF1F0B0FBF5F06FF0A8
:101B60001801484306EB800108EB0110B0FBF5F0CB
:101B700000F0F006FEF7EEFD00EBC00101EB0010F7
:101B800061688900B0FBF1F0B0FBF5F006EB0016E0
:101B9000FEF7E0FD00EBC00101EB00106168890079
:101BA000B0FBF1F7FEF7D6FDD2E0914201D08142C1
:101BB0003DD1FEF7CFFD00EBC00101EB00106168E5
:101BC0004900B0FBF1F0B0FBF5F00601FEF7C2FDF5
:101BD00000EBC00101EB001061684900B0FBF1F7B8
:101BE000FEF7B8FD00EBC00101EB00106168490091
:101BF000B0FBF1F0B0FBF5F06FF01801484307EBD4
:101C0000800108EBC100B0FBF5F000F0F80006EB36
:101C10004006FEF79FFD00EBC00101EB001061687C
:101C20004900B0FBF1F7FEF795FD3CE055E0FEF70B
:101C300081FD00EBC00101EB001061684900B0FBC1
:101C4000F1F0B0FBF5F00601FEF774FD00EBC0010A
:101C500001EB001061684900B0FBF1F7FEF76AFD87
:101C600000EBC00101EB001061684900B0FBF1F02E
:101C7000B0FBF5F06FF01801484307EB800108EB6B
:101C8000C100B0FBF5F000F0F80006EB4006FEF7EF
:101C900051FD00EBC00101EB001061684900B0FB91
:101CA000F1F7FEF747FD00EBC00101EB00106168A2
:101CB0004900B0FBF1F0B0FBF5F06FF018014843BC
:101CC00007EB800108EBC100B0FBF5F000F0070066
:101CD000216830448860BDE8F081FEF72BFD00EB01
:101CE000C00101EB001061688900B0FBF1F6FEF75E
:101CF00021FD00EBC00101EB001061688900B0FB21
:101D0000F1F0B0FBF5F06FF01801484306EB8001ED
:101D100008EB0110B0FBF5F000F0F006FEF70AFD4D
:101D200000EBC00101EB001061688900B0FBF1F02D
:101D3000B0FBF5F006EB0016FEF7FCFC00EBC00173
:101D400001EB001061688900B0FBF1F7FEF7F2FCCF
:101D500000EBC00101EB001061688900B0FBF1F0FD
:101D6000B0FBF5F06FF01801484307EB800108EB7A
:101D70000110B0FBF5F000F00F00A9E700140140DE
:101D80000010014090F83910212901D0022070473D
:101D90008168B1F5805F016A0BD04A1C026202685B
:101DA00009785160C18C491E0904090CC1840ED008
:101DB00017E009880268C1F3080151600169002930
:101DC000016A02D0491C0162ECE7891CFBE701684B
:101DD000CA6822F08002CA600068C16841F0400110
:101DE000C1600020704700000148FFF757B90000AC
:101DF0003C0100200148FFF751B900007C010020A0
:101E0000FEE7000070B5F74890F86800002801F080
:101E100022800622F4A1F348FEF715FA08B101204A
:101E200070BDF0480A221030F1A10646FEF70BFA09
:101E3000F24C00287ED00F22F1A13046FEF703FAC3
:101E4000002878D00F22F2A13046FEF7FCF90028D6
:101E500072D00D22F2A13046FEF7F5F900286CD0C1
:101E60000D22F3A13046FEF7EEF9002866D00F22CE
:101E7000F3A13046FEF7E7F900287DD00F22F4A148
:101E80003046FEF7E0F9002877D00B22F4A1304667
:101E9000FEF7D9F9002871D00D22F4A13046FEF7E3
:101EA000D2F900286BD00C22F4A13046FEF7CBF912
:101EB00000287DD00D22F5A13046FEF7C4F9002898
:101EC00077D00A22F5A13046FEF7BDF9002871D07F
:101ED0000922F5A13046FEF7B6F900286BD007229B
:101EE000F4A13046FEF7AFF900287DD00D22F3A112
:101EF0003046FEF7A8F9002877D00B22F3A1304630
:101F0000FEF7A1F9002871D00622F3A13046FEF7B2
:101F10009AF900286BD00722F1A13046FEF793F919
:101F200000287AD00722F0A13046FEF78CF900286D
:101F300074D004E0E8E2E9E2EAE2EBE2ECE2082253
:101F4000EBA13046FEF77FF9002868D00822EBA10C
:101F50003046FEF778F94FF4FA7500287DD0082254
:101F6000E9A13046FEF76FF9002877D00E22E9A1EB
:101F70003046FEF768F903E0D0E2D1E2D2E2D3E2E4
:101F800000286CD00F22E7A13046FEF75CF900284C
:101F900066D00B22E7A13046FEF755F900287DD028
:101FA0000922E7A13046FEF74EF9002877D003E07A
:101FB000BCE2BDE2BEE2BFE20A22E4A13046FEF787
:101FC00042F900286CD00C22E3A13046FEF73BF921
:101FD000002866D00E22E4A13046FEF734F900282E
:101FE0007DD00B22E4A103E0A8E2A9E2AAE2ABE2E1
:101FF0003046FEF728F9002872D00B22E1A13046C6
:10200000FEF721F900286CD00A22E1A13046FEF744
:102010001AF9002866D00B2202E099E29CE2A3E2C2
:10202000DEA13046FEF70FF900287DD00B22DEA19D
:102030003046FEF708F9002877D00D22DEA13046A1
:10204000FEF701F9002871D00A22DFA13046FEF721
:10205000FAF800286BD0092203E08DE28EE28EE2CE
:102060008EE2DCA13046FEF7EEF800287ED00E228C
:10207000DBA13046FEF7E7F8002878D00F22DCA17C
:102080003046FEF7E0F8002872D00922DCA1304685
:10209000FEF7D9F800286CD00A2203E071E271E261
:1020A00071E271E2D9A13046FEF7CDF800287DD06B
:1020B0000A22D9A13046FEF7C6F8002877D00A22B6
:1020C000D8A13046FEF7BFF8002871D00C22D8A165
:1020D0003046FEF7B8F800286BD00D2203E054E23A
:1020E00054E254E254E2D6A13046FEF7ACF80028A0
:1020F0006AD00922D6A13046FEF7A5F8002864D0A0
:102100000A22D6A13046FEF79EF800285ED00C22A7
:10211000D5A13046FEF797F8002858D00D22D6A159
:102120003046FEF790F803E033E233E233E233E285
:1021300000284DD00C22D4A13046FEF784F80028A8
:1021400047D00D22D4A13046FEF77DF8002841D0BB
:102150000C22D5A13046FEF776F800283BD00C22A1
:10216000D5A13046FEF76FF8002803E015E2F3E34F
:10217000F3E3F3E330D00E22D3A13046FEF763F849
:1021800000282AD00E22D4A13046FEF75CF80028A1
:1021900024D00922D4A13046FEF755F800281ED0DD
:1021A0000922D4A13046FEF74EF803E0EFE3EFE357
:1021B000EFE3EFE3002813D00722D1A13046FEF76A
:1021C00042F800280DD0EDE3EDE3EDE3EDE3EDE3C0
:1021D000EDE3EDE3EDE3EDE3EDE3EDE3EDE3EDE37F
:1021E000EDE3EDE31C0000207541725463500000E4
:1021F00077616B6575705F756E6900000400002083
:102200006F70656E456C65637472696366616E00BC
:10221000636C6F73456C65637472696366616E00AD
:1022200041646A757374476561726D696E00000080
:1022300041646A757374476561726D61780000006E
:102240007365747469434C6F6E65686F6E6F72006E
:1022500073657474694F506F6E65686F6E6F72004E
:10226000766F6C756D655570556E6900766F6C751F
:102270006D65446F776E556E690000006F70656E16
:102280006B6F6E677469616F00000000636C6F7341
:10229000656B6F6E677469616F0000007A686964CE
:1022A0006F6E676D6F7300007A68696C656E6D6F35
:1022B000730000007A6869726D6F73007368656EF1
:1022C0006767616F77656E64750000006A69616EAB
:1022D000646977656E6475007475726E6F6E000068
:1022E0007475726E6F6666006F70656E6C65640003
:1022F000636C6F73656C6564000000007365746DDA
:1023000061786C64000000007365746D696E6C64C4
:10231000000000007A656E676A69616C69616E67CA
:10232000647500006A69616E7869616F6C69616EDD
:1023300067647500736574636F6C6F7272656400B7
:1023400064616B6169797562610000006775616E37
:10235000626979756261000064616B61697A616FBD
:102360006D696E67000000006775616E62697A686A
:10237000616F6D696E67000064616B61696E7561A4
:102380006E7169006775616E62696E75616E71006C
:1023900064616B61696366656E6700006775616E95
:1023A00062696366656E670064616B616979696E15
:1023B00067736A69000000006775616E6269796918
:1023C0006E67736A690000006B61697368696368AE
:1023D0007573000074696E677A6368757300000036
:1023E00064616B6469616E66616E6762616F000053
:1023F000677561626469616E66616E6762616F00D4
:1024000062616F77656E6D6F7300000062616F745B
:10241000616E676D6F7300007A687566616E676DD7
:102420006F7300007A68757A686F756D6F7300005E
:1024300064616B61696B61696775616E00000000C2
:102440006775616E62696B61696775616E00000036
:1024500064616B61697368616A0000006775616E31
:1024600062697368616A000064616B6169686F6EBC
:102470006767616E000000006775616E6269686F72
:102480006E6767616E00000064616B616963687507
:1024900063686F75000000006775616E626963684C
:1024A0007563686F75000000766F6C756D654D61C2
:1024B00078556E6900000000766F6C756D654D692A
:1024C0006E556E690000000073657474694F6F6E1D
:1024D00065686F6E6F7200007365747469436F6E28
:1024E00065686F6E6F72000074656D70736574322D
:1024F0003000000054656D70536574313500000084
:1025000065786974556E690024A029E22FA0FCE764
:102510003AA0FAE745A0F8E751A0F6E75DA0F4E796
:1025200069A0F2E775A0F0E77FA0EEE78AA0ECE7EC
:1025300095A0EAE7A0A0E8E7ABA0E6E7B5A0E4E74E
:10254000C0A00DE2CBA00BE264202080D5A007E262
:1025500000202080DEA003E20120FFF77BF80020AE
:10256000FFF76CF8E6A0FBE10020FFF767F800201A
:10257000FFF770F8EDA0F3E12580F0E1F1E1F4E17F
:10258000FCE108E21FE220E221E222E223E224E26F
:1025900025E226E227E228E229E22AE274686520A1
:1025A0006D657365656167652069732077616B652B
:1025B0002075702020202020202020202020BBBD3E
:1025C000D0D1C4A3BFE90D0A0000000074686520E3
:1025D0006D65736565616765206973206F70656EF1
:1025E000456C65637472696366616E202020B4F285
:1025F000BFAAB7E7C9C80D0A0000000074686520CB
:102600006D65736565616765206973206F70656EC0
:10261000456C65637472696366616E202020B9D869
:10262000B1D5B7E7C9C80D0A00000000746865207D
:102630006D657365656167652069732041646A75BE
:102640007374476561726D696E2020202020B7E7A2
:10265000C9C8B5F7B5BDD7EED0A10D0A000000007E
:10266000746865206D6573656561676520697320B1
:1026700041646A757374476561726D6178202020CA
:102680002020B7E7C9C8B5F7B5BDD7EEB4F30D0A3A
:1026900000000000746865206D657365656167659D
:1026A000206973207365747469434C6F6E65686F3D
:1026B0006E6F72202020B6A8CAB1D2BBD0A1CAB119
:1026C000B9D8B5C60D0A0000746865206D657365DC
:1026D000656167652069732073657474694F506F15
:1026E0006E65686F6E6F72202020B6A8CAB1D2BB2B
:1026F000D0A1CAB1BFAAB5C60D0A00007468652092
:102700006D6573656561676520697320766F6C75AB
:102710006D655570556E69202020092020D2F4C1C6
:10272000BFD4F6B4F30D0A00746865206D65736557
:102730006561676520697320766F6C756D65446FA0
:10274000776E556E692020202020D2F4C1BFBCF5E1
:10275000D0A10D0A00000000746865206D657365E6
:1027600065616765206973206F70656E6B6F6E675A
:102770007469616F202020202020B4F2BFAABFD549
:10278000B5F70D0A00000000746865206D6573657B
:102790006561676520697320636C6F73656B6F6E2D
:1027A000677469616F2020202020B9D8B1D5BFD5CA
:1027B000B5F70D0A00000000746865206D6573654B
:1027C00065616765206973207A6869646F6E676DFB
:1027D0006F732020200920202020D7D4B6AFC4A3B7
:1027E000CABD0D0A00000000746865206D65736540
:1027F00065616765206973207A68696C656E6D6FC5
:102800007320202009202020D6C6C0E4C4A3CABD5E
:102810000D0A0000746865206D6573656561676504
:10282000206973207A6869726D6F732020202020E0
:10283000202020202020D6C6C8C8C4A3CABD0D0AA7
:1028400000000000746865206D65736565616765EB
:10285000206973207368656E6767616F77656E6462
:10286000752020092020C9FDB8DFCEC2B6C80D0AE8
:1028700000000000746865206D65736565616765BB
:10288000206973206A69616E646977656E6475207A
:10289000202020202020BDB5B5CDCEC2B6C80D0A5F
:1028A00000000000746865206D657365656167658B
:1028B000206973207475726E6F6E202020200920AD
:1028C00020202020B4F2BFAACCA8B5C60D0A000073
:1028D000746865206D65736565616765206973203F
:1028E0007475726E6F6666202020202020202020C4
:1028F0002020B9D8B1D5CCA8B5C60D0A000000007B
:10290000746865206D65736565616765206973200E
:102910006F70656E6C6564202020202020202020B0
:102920002020B4F2BFAAB5C60D0A00007468652065
:102930006D6573656561676520697320636C6F738E
:10294000656C656420202020202020202020B9D81C
:10295000B1D5B5C60D0A00004DE04EE04FE02BA00A
:1029600071E20A20208035A06DE22088A84201D3C0
:10297000258001E0643020803CA064E22088322879
:1029800001D8322000E06438208044A05BE238E0C7
:1029900039E03AE03AE20120FEF750FE0020FEF76F
:1029A00059FE0EE051E233E234E235E236E237E23C
:1029B00038E239E23AE23BE23CE23DE23EE23FE22B
:1029C00040E242A03FE24DA03DE257A03BE261A0C1
:1029D00039E26CA037E276A035E281A033E28CA028
:1029E00031E296A02FE2A1A02DE2ACA02BE2B7A08D
:1029F00029E2C1A027E2CBA025E2D6A023E2E1A0F4
:102A000021E2EBA01FE2F5A01DE2FDE17468652064
:102A10006D65736565616765206973207365746DA5
:102A200061786C6420202020202020202020B5F711
:102A3000B5BDD7EEC1C10D0A000000007468652065
:102A40006D65736565616765206973207365746D75
:102A5000696E6C6420202020202020202020B5F7E3
:102A6000B5BDD7EEB0B50D0A000000007468652052
:102A70006D65736565616765206973207A656E674A
:102A80006A69616C69616E67647520202020D4F6E4
:102A9000BCD3C1C1B6C80D0A00000000746865202F
:102AA0006D65736565616765206973206A69616E2C
:102AB0007869616F6C69616E676475202020BCF570
:102AC000D0A1C1C1B6C80D0A00000000746865201D
:102AD0006D657365656167652069732073657463EF
:102AE0006F6C6F7272656420202020202020B5C694
:102AF000B5F7CEAABAECC9AB0D0A00007468652020
:102B00006D657365656167652069732064616B61DC
:102B1000697975626120202009202020B4F2BFAAC3
:102B2000D4A1B0D40D0A0000746865206D6573658A
:102B300065616765206973206775616E6269797583
:102B4000626120202009202020B9D8B1D5D4A1B0BD
:102B5000D40D0A00746865206D65736565616765ED
:102B60002069732064616B61697A616F6D696E675A
:102B7000202020202020B4F2BFAAD5D5C3F70D0A0B
:102B800000000000746865206D65736565616765A8
:102B90002069732064616B6169797562612020200E
:102BA00009202020B9D8B1D5D5D5C3F70D0A00002A
:102BB000746865206D65736565616765206973205C
:102BC00064616B61696E75616E71692020202020DF
:102BD0002020B4F2BFAAC5AFC6F80D0A000000005D
:102BE000746865206D65736565616765206973202C
:102BF0006775616E62696E75616E7120202020209C
:102C00002020B9D8B1D5C5AFC6F80D0A0000000024
:102C1000746865206D6573656561676520697320FB
:102C200064616B61696366656E67202020092020FE
:102C300020B4F2BFAAB4B5B7E70D0A0074686520E6
:102C40006D65736565616765206973206775616E81
:102C500062696E75616E7120202020202020B9D815
:102C6000B1D5B4B5B7E70D0A00000000746865205F
:102C70006D657365656167652069732064616B616B
:102C8000696E75616E716920202020202020B4F2C9
:102C9000BFAAD2FBCBAEBBFA0D0A00007468652058
:102CA0006D65736565616765206973206775616E21
:102CB000626979696E67736A692020092020B9D832
:102CC000B1D5D2FBCBAEBBFA0D0A0000746865200B
:102CD0006D65736565616765206973206B616973F4
:102CE00068696368757320202009202020BFAACA64
:102CF000BCB3F6CBAE0D0A00746865206D657365D4
:102D0000656167652069732074696E677A636875A9
:102D10007320202009202020CDA3D6B9B3F6CBAE56
:102D20000D0A0000746865206D65736565616765EF
:102D30002069732064616B6469616E66616E6762AD
:102D4000616F20202020B4F2BFAAB5E7B7B9ECD25A
:102D50000D0A0000746865206D65736565616765BF
:102D600020697320677561626469616E66616E6770
:102D700062616F202020B9D8B1D5B5E7B7B9ECD2E0
:102D80000D0A0000746865206D657365656167658F
:102D90002069732062616F77656E6D6F73202020EC
:102DA00009202020B1A3CEC2C4A3CABD0D0A0000D1
:102DB000746865206D65736565616765206973205A
:102DC00062616F74616E676D6F732020200920202F
:102DD00020ECD2CCC0C4A3CABD0D0A007468652023
:102DE0006D65736565616765206973207A687566CE
:102DF000616E676D6F7320202009202020D6F3B705
:102E0000B9C4A3CABD0D0A0014A01CE01EA01AE09C
:102E100029A018E034A016E03EA014E048A012E07B
:102E200053A010E05DA00EE068A00CE073A00AE0E3
:102E30007EA008E089A006E095A004E0A1A002E041
:102E4000ADA000E0B9A000F0D7F9C4492088096816
:102E5000C86300F0F9F9002070BD000074686520B7
:102E60006D657365656167652069732062616F7464
:102E7000616E676D6F73202020092020D6F3D6E0A5
:102E8000C4A3CABD0D0A0000746865206D65736532
:102E9000656167652069732064616B61696B616955
:102EA0006775616E202020202020B4F2BFAABFAA3F
:102EB000B9D80D0A00000000746865206D6573655F
:102EC00065616765206973206775616E62696B6112
:102ED000696775616E2020092020B9D8B1D5BFAAD5
:102EE000B9D80D0A00000000746865206D6573652F
:102EF000656167652069732064616B6169736861EE
:102F00006A20202009202020B4F2BFAAC9B1BEFA4D
:102F10000D0A0000746865206D65736565616765FD
:102F2000206973206775616E62697368616A202029
:102F30002009202020B9D8B1D5C9B1BEFA0D0A00A8
:102F4000746865206D6573656561676520697320C8
:102F500064616B6169686F6E6767616E2020202015
:102F60002020B4F2BFAABAE6B8C90D0A00000000DA
:102F7000746865206D657365656167652069732098
:102F80006775616E62697368616A2020200920207C
:102F9000B9D8B1D5BAE6B8C90D0A00007468652081
:102FA0006D657365656167652069732064616B6138
:102FB0006963687563686F75202020202020B4F253
:102FC000BFAAB3FDB3F40D0A0000000074686520C9
:102FD0006D65736565616765206973206775616EEE
:102FE000626963687563686F752020092020B9D80D
:102FF000B1D5B3FDB3F40D0A00000000746865207C
:103000006D6573656561676520697320766F6C75A2
:103010006D654D6178556E69202020202020D7EE07
:10302000B4F3D2F4C1BF0D0A00000000746865203B
:103030006D6573656561676520697320766F6C7572
:103040006D654D696E556E69202020202020D7EED9
:10305000D0A1D2F4C1BF0D0A000000007468652041
:103060006D65736565616765206973207365747448
:10307000694F6F6E65686F6E6F7220202020D2BB23
:10308000D0A1CAB1BAF3BFAABBFA0D0A0000000072
:10309000746865206D657365656167652069732077
:1030A0007365747469436F6E65686F6E6F7220200C
:1030B0002020D2BBD0A1CAB1BAF3B9D8BBFA0D0A4D
:1030C00000000000746865206D6573656561676563
:1030D0002069732074656D70736574323020202010
:1030E000202020202020CEC2B6C8C9E8D6C3CEAA50
:1030F0003230B6C80D0A0000746865206D657365CE
:10310000656167652069732054656D70536574311E
:1031100035202020202020202020CEC2B6C8C9E89B
:10312000D6C3CEAA3135B6C80D0A00007468652032
:103130006D6573656561676520697320657869747D
:10314000556E692020202020202020202020CDCB5B
:10315000CFC2A3ACD4D9BCFB0D0A0000C400002030
:103160000A4991F86720002A0FD091F86620824220
:1031700007D3002081F8660081F86700012081F8FC
:10318000680011F8660F401C087070471C00002092
:103190000D480022012180F8662080F8671090F821
:1031A000653090F86410C15490F86510491CC9B29C
:1031B00080F86510642901D380F865200249012256
:1031C00064310248FEF782B81C0000207C01002018
:1031D00010B5012205490648FEF778F80548FDF7C5
:1031E00025FDBDE810400348FDF72DBD80000020FF
:1031F0007C01002000010020014A024900F013B8C0
:10320000613200080800002002E008C8121F08C14F
:10321000002AFAD170477047002001E001C1121F57
:10322000002AFBD170472DE9F04116460F460446AF
:10323000002503E03946B047641C6D1C2078002847
:10324000F8D12846BDE8F0810448002180F86810D4
:1032500080F865106421FCF7EBBF00001C00002023
:1032600003490A685206FCD5C2B24A6070470000A2
:1032700000100140FDF72EF9FEF7FCF9FEF75AF8B1
:10328000FEF7ACF9FEF708F9FEF78CF9FEF7D2F875
:10329000FEF766F9A820FDF72BF80C4C00224FF43E
:1032A00080412046FDF702F9002220212046FDF74B
:1032B000FDF8FFF78DFF0648FDF7B8FC082104482C
:1032C000FDF7BCFEFEF79EFDFCE700000004024097
:1032D000C400002000000000000000000102030400
:1032E0000607080900000000010203040C3300086F
:1032F000000000201C0000000832000828330008ED
:103300001C000020A4050000183200080000000086
:10331000000000000000000001000000100000009C
:08332000000000000024F4008D
:040000050800018965
:00000001FF
