:020000040800F2
:10000000F00A0020CD0100085711000899100008DF
:1000100055110008070400084513000800000000FF
:100020000000000000000000000000005B1100085C
:100030000904000800000000591100085D110008C3
:10004000E7010008E7010008E7010008E7010008F0
:10005000E7010008E7010008E7010008E7010008E0
:10006000E7010008E7010008E7010008E7010008D0
:10007000E7010008E7010008E7010008E7010008C0
:10008000E7010008E7010008E7010008E7010008B0
:10009000E7010008E7010008E7010008E7010008A0
:1000A000E7010008E7010008E7010008E701000890
:1000B000E7010008E7010008E7010008E701000880
:1000C000E7010008E7010008E7010008E701000870
:1000D000E70100081D130008E7010008E701000818
:1000E000E7010008E7010008E7010008E701000850
:1000F000E7010008E7010008E7010008E701000840
:10010000E7010008E7010008E7010008E70100082F
:10011000E7010008E7010008E7010008C111000835
:10012000E7010008E7010008E7010008E70100080F
:1001300000F002F800F03AF80AA090E8000C8244BF
:100140008344AAF10107DA4501D100F02FF8AFF29C
:10015000090EBAE80F0013F0010F18BFFB1A43F0A5
:10016000010318471C1F00003C1F0000103A24BF69
:1001700078C878C1FAD8520724BF30C830C144BF0C
:1001800004680C607047000000230024002500264E
:10019000103A28BF78C1FBD8520728BF30C148BFEA
:1001A0000B6070471FB51FBD10B510BD00F0F1F812
:1001B0001146FFF7F7FF01F0E7FC00F00FF903B479
:1001C000FFF7F2FF03BC00F017F900000948804771
:1001D00009480047FEE7FEE7FEE7FEE7FEE7FEE729
:1001E000FEE7FEE7FEE7FEE704480549054A064B41
:1001F00070470000BF11000831010008F004002022
:10020000F00A0020F0060020F0060020032A40F249
:10021000308010F0030C00F0158011F8013BBCF1A8
:10022000020F624498BF11F801CB00F8013B38BFC0
:1002300011F8013BA2F1040298BF00F801CB38BFCE
:1002400000F8013B11F0030300F07180083AC0F0A0
:10025000088051F8043B083A51F804CBA0E8081094
:10026000F5E7121D5CBF51F8043B40F8043BAFF3C7
:100270000080D20724BF11F8013B11F801CB48BF21
:1002800011F8012B24BF00F8013B00F801CB48BF57
:1002900000F8012B70474FF000020429C0F01280D3
:1002A00010F0030C00F01B80CCF1040CBCF1020F29
:1002B00018BF00F8012BA8BF20F8022BA1EB0C01FE
:1002C00000F00DB85FEAC17C24BF00F8012B00F8F4
:1002D000012B48BF00F8012B70474FF0000200B51A
:1002E000134694469646203922BFA0E80C50A0E859
:1002F0000C50B1F12001BFF4F7AF090728BFA0E807
:100300000C5048BF0CC05DF804EB890028BF40F8D2
:10031000042B08BF704748BF20F8022B11F0804F14
:1003200018BF00F8012B704770477047704710B531
:10033000203AC0F00B80B1E81850203AA0E81850DD
:10034000B1E81850A0E81850BFF4F5AF5FEA027C9E
:1003500024BFB1E81850A0E8185044BF18C918C00D
:10036000BDE810405FEA827C24BF51F8043B40F8AE
:10037000043B08BF7047D20728BF31F8023B48BF93
:1003800011F8012B28BF20F8023B48BF00F8012BD1
:100390007047754600F02CF8AE4605006946534696
:1003A00020F00700854618B020B5FFF71DFFBDE817
:1003B00020404FF000064FF000074FF000084FF0CC
:1003C000000B21F00701AC46ACE8C009ACE8C0095D
:1003D000ACE8C009ACE8C0098D46704710B50446CA
:1003E000AFF300802046BDE81040FFF7E8BE0000F4
:1003F000004870478C04002001491820ABBEFEE77E
:10040000260002007047FEE7704772B6704772B66A
:10041000FEE762B67047000070B5044600F00AF9C6
:100420000546601C02D004480078044400F002F93C
:10043000401BA042FAD370BD000000202DE9F84F08
:10044000DFF8C891002409F1040A0AF1040B2346DD
:100450000F270BF1040ED1E00125A54006EA0502A5
:10046000AA4276D1DFF8A8C14E68A6EB0C08664513
:100470002BD00DDC032E34D005DC36B3012E19D081
:10048000022E2FD11BE0112E16D0122E2AD119E0E8
:10049000B8F5881F19D006DCB8F5803F15D0B8F53F
:1004A000801F1FD111E0B8F5001F0ED0B8F5041F52
:1004B00018D10AE0CB6815E0CB681B1D12E0CB68B1
:1004C00008330FE0CB680C330CE08B682BB1012BA9
:1004D0004FF0080303D0456104E0042302E0056106
:1004E00000E00023FF2A01D8064601E000F10406DF
:1004F0004FEA840501D9A5F12005D6F8008007FA56
:1005000005FC28EA0C0803FA05F548EA0508C6F8D0
:1005100000804D68ED0070D53E4DAE6946F0010695
:10052000AE61AD6924F0030605F0010500953A4D72
:1005300006EB050CDCF80850A607360F07FA06F89C
:1005400025EA0805DFF8D480404503D14FF00008C4
:1005500025E052E0DFF8C880404502D14FF00108A5
:100560001DE0DFF8C080404502D14FF0020816E0E0
:10057000DFF8B480404502D14FF003080FE0DFF808
:10058000AC80404502D14FF0040808E0DFF8A080BD
:10059000404502D14FF0050801E04FF0060808FA87
:1005A00006F848EA0508CCF808804D68D9F80060DC
:1005B000ED034D4601D5164300E096432E604D688D
:1005C000DAF80060AD03554601D5164300E09643C6
:1005D0002E604D68DBF80060ED025D4601D51643E4
:1005E00000E096432E604D68DEF80060AD0275466F
:1005F00001D5164300E096432E60641C0A68164637
:10060000E2407FF429AFBDE8F88F0000000401400C
:1006100000001110001002400000014000080140DD
:10062000000C01400010014000140140001801407E
:10063000001C014001488068704700000000002055
:1006400002488168027811448160704700000020F0
:10065000074810B5016841F010010160032000F067
:1006600075F80F2000F006F800F024F8002010BD07
:100670000020024070B50D4D04464FF47A71287881
:10068000B1FBF0F00A490968B1FBF0F000F0ECFAB8
:1006900048B9102C07D200222146501E00F036F82F
:1006A00000206C6070BD012070BD000000000020C3
:1006B0000C0000200C4808B5816941F001018161FE
:1006C000816901F001010091C16941F08051C1616E
:1006D000C06900F0805000900448416821F0E0615A
:1006E00041F00071416008BD00100240000001406F
:1006F000002809DB00F01F02012191404009800021
:1007000000F1E020C0F8001170470000F0B40E4B7B
:100710001B680C46C3F30223C3F10705042D00D95F
:100720000425191D072901D2002300E0DB1E012644
:1007300006FA05F1491E214099409E40761E16405A
:100740003143F0BC00F001BE0CED00E0064900F0C2
:10075000070208684FF6FF03184040EA0220034AE8
:1007600010430860704700000CED00E00000FA053F
:100770002DE9F0470F46050061D0434E306800F088
:100780000700B84209D2306820F0070038433060D3
:10079000306800F00700B84251D128683B4C81070F
:1007A00012D5400703D5606840F4E06060602878A7
:1007B000000703D5606840F4605060606068A96815
:1007C00020F0F000084360602878C00728D06868EF
:1007D000012810D02168022810D0890700292EDABC
:1007E000616821F0030101436160FFF723FF804648
:1007F00041F288390DE021688903EFE78901EDE7CF
:10080000FFF718FFA0EB0801494502D90320BDE816
:10081000F0876068696800F00C00B0EB810FEFD1E1
:10082000306800F00700B8420BD9306820F00700AC
:1008300038433060306800F00700B84201D0012032
:10084000E5E72878400705D56068E96820F4E060AE
:10085000084360602878000706D56068296920F49D
:10086000605040EAC100606000F038F86168084AF2
:10087000C1F30311515CC84006490860064800688E
:10088000FFF7F8FE0020C2E70020024000100240FF
:10089000681E00080C0000200400002004480549E0
:1008A00000684968044AC1F30221515CC84070479E
:1008B0000C00002000100240781E00080448054982
:1008C00000684968044AC1F3C221515CC8407047BE
:1008D0000C00002000100240781E000812A185B014
:1008E0000FC98DE80F0014A0144A006804905168E5
:1008F000134801F00C03042B10D0082B0ED1C1F3C8
:100900008343C9031DF803000AD5516804AAC1F343
:100910004041515C0A4A5043B0FBF1F005B07047CA
:1009200008494843FAE700000203040506070809DE
:100930000A0B0C0D0E0F10100102000000100240F7
:1009400000127A0000093D002DE9F84F040070D034
:100950002078C04DC00749D06868C0F381000128E5
:1009600007D06868C0F38100022809D16868C00315
:1009700006D52868800339D560680028E7D035E0BF
:100980006068B0F5803F0BD010B1B0F5A02F11D04A
:10099000286820F480302860286820F4802002E055
:1009A000286840F480302860606890B1FFF742FE0C
:1009B00006460AE0286840F480202860F0E700BF7F
:1009C000FFF738FE801B642873D828688003F7D5AA
:1009D0000CE0FFF72FFE064605E000BFFFF72AFEFA
:1009E000801B6428F0D828688003F7D420789A4EBA
:1009F00080074FF001094FF0000839D5686810F002
:100A00000C0F07D06868C0F38100022809D168681C
:100A1000C00306D42868800714D52069012808D1AE
:100A200010E02069B0B1C6F80090FFF703FE07465A
:100A300005E00AE1FFF7FEFDC01B0228C4D82868C4
:100A40008007F7D52868616920F0F80040EAC10006
:100A500028600DE0C6F80080FFF7ECFD074604E0D3
:100A6000FFF7E8FDC01B022823D828688007F7D4C9
:100A7000207800072CD57948A169D9B1C0F8009039
:100A8000FFF7D8FD074604E0FFF7D4FDC01B02289E
:100A90000FD8686A8007F7D571484FF4FA5100689B
:100AA000B0FBF1F0009000BF0098411E0091FAD217
:100AB0000EE080E0C0F80080FFF7BCFD074604E0D0
:100AC000FFF7B8FDC01B022875D8686A8007F7D405
:100AD0002078400760D5E8690027C00008D4E8699D
:100AE00040F08050E861E869012700F080500090F4
:100AF0005C480168C90513D40168834641F48071DC
:100B00000160FFF797FD824606E000BFFFF792FD08
:100B1000A0EB0A0064284ED8DBF80000C005F5D52C
:100B2000E06801280AD008B1052813D0286A20F00F
:100B300001002862286A20F0040002E0286A40F0E0
:100B400001002862E06841F2883B98B1FFF772FD2E
:100B500082460BE0286A40F004002862EEE700BFFE
:100B6000FFF768FDA0EB0A0159455AD8286A8007AB
:100B7000F6D50CE0FFF75EFD824605E0FFF75AFD73
:100B8000A0EB0A0159454CD8286A8007F6D41FB15A
:100B9000E86920F08050E861E06988B36968C1F3D2
:100BA0008101022944D00228C6F8608004D0FFF7F2
:100BB00041FD044638E034E0FFF73CFD074604E021
:100BC000FFF738FDC01B02282BD828688001F7D416
:100BD000206AB0F5803F05D16868A16820F4003034
:100BE00008436860D4E908010843696821F4741176
:100BF00008436860C6F86090FFF71CFD044606E0F5
:100C000025E000BFFFF716FD001B022809D8286861
:100C10008001F7D51BE000BFFFF70CFD001B022889
:100C200002D90320BDE8F88F28688001F4D40EE0D3
:100C30000128F7D06868226A00F48031914204D11B
:100C4000616A00F47010884201D00120EAE70020B8
:100C5000E8E70000001002400000424280044242E7
:100C60000C0000200070004010B5401EB0F1807FE5
:100C700001D3012010BD4FF0E02460610F21601707
:100C800000F063FB0020A06107202061002010BD60
:100C90007047704770B590F83C20012A2CD0012491
:100CA00080F83C40022280F83D2003685A689D6825
:100CB00022F070060A6832435A60104B02689A426A
:100CC0000ED00F4B9A420BD0B2F1804F08D00D4B93
:100CD0009A4205D00C4B9A4202D00C4B9A4204D156
:100CE000496825F080031943916080F83D40002158
:100CF00080F83C10084670BD022070BD002C0140F9
:100D0000003401400004004000080040000C004096
:100D100010B5040003D094F83D0010B107E00120A5
:100D200010BD002084F83C00204600F01FF802208F
:100D300084F83D00211D206800F04EFA012084F85F
:100D4000460084F83E0084F83F0084F8400084F8B0
:100D5000410084F8420084F8430084F8440084F899
:100D6000450084F83D00002010BD000008B5006873
:100D70000B49884212D10B48C16941F02001C16181
:100D8000C069002200F02000009002213720FFF708
:100D9000BDFCBDE808403720FFF7AABC08BD000035
:100DA000001400400010024090F83D10012901D0CD
:100DB00001207047022180F83D100168CA6842F0A6
:100DC0000102CA6000680E4988420ED00D4988426F
:100DD0000BD0B0F1804F08D00B49884205D00B49A9
:100DE000884202D00A49884204D1816801F0070193
:100DF000062903D0016841F001010160002070471D
:100E0000002C014000340140000400400008004074
:100E1000000C00400168CA6822F00102CA60016843
:100E20000A6A41F211131A4207D10A6A9B101A4248
:100E300003D10A6822F001020A60012180F83D1006
:100E400000207047704770B50446006801694FF094
:100E50000005C943890715D4C168C943890711D45E
:100E6000E91E016101202077206880698007204603
:100E700002D0FFF7E7FF04E000F098F8204600F00A
:100E800096F8257720680169C943490717D4C168D6
:100E9000C943490713D46FF0040101610220207790
:100EA0002068806910F4407F204602D0FFF7CAFF17
:100EB00004E000F07BF8204600F079F82577206800
:100EC0000169C943090716D4C168C943090712D487
:100ED0006FF008010161042020772068C069800755
:100EE000204602D0FFF7AEFF04E000F05FF8204696
:100EF00000F05DF8257720680169C943C90617D459
:100F0000C168C943C90613D46FF0100101610820FC
:100F100020772068C06910F4407F204602D0FFF798
:100F200091FF04E000F042F8204600F040F82577F9
:100F300020680169C943C90708D1C168C943C90705
:100F400004D1891E0161204600F032F82068016951
:100F5000C943090609D4C168C943090605D46FF01D
:100F6000800101612046FFF793FE20680169C943B3
:100F7000490609D4C168C943490605D46FF0400148
:100F80000161204600F016F820680169C94389060E
:100F90000BD4C168C943890607D46FF020010161F1
:100FA0002046BDE87040FFF774BE70BD70477047C3
:100FB00000F00CB9704770B5040004D094F83D00FF
:100FC000002510B106E0012070BD84F83C50204699
:100FD00000F022F8242084F83D002068C16821F444
:100FE0000051C160204600F03DF92068016921F4FC
:100FF000904101612068416921F02A014161206826
:10100000C16841F40051C1602564202084F83D008E
:1010100084F83E00002070BD30B585B000240094F7
:101020000194029403940068184988422CD118480E
:10103000816941F480418161816901F480410491B9
:10104000816941F0040181618069124D00F0040062
:1010500004904FF400700090022001900320039050
:1010600069462846FFF7EAF92815CDE900046946E4
:1010700028460294FFF7E2F9002201212520FFF71C
:1010800045FB2520FFF734FB05B030BD003801409B
:101090000010024000080140FEE700000D4808B5BE
:1010A000816941F010018161816901F010010091B5
:1010B000816941F020018161816901F02001009185
:1010C000816941F004018161806900F004000090B1
:1010D00008BD0000001002401CB500240E4800941A
:1010E0000C49019401604721C0E901143121846158
:1010F000C160FFF70DFE08B1FFF789F9009469465A
:1011000005480194FFF7C6FD002801D0FFF77FF9DD
:101110001CBD000000140040D40000200C4810B595
:101120000A4901604FF4E1314160002181600C22E5
:10113000C160C0E904128161C161FFF73CFF002872
:1011400003D0BDE81040FFF762B910BD0038014080
:101150001C010020FEE7FEE770477047FFF770BAFA
:1011600030B58FB028216846FFF7B7F814210AA8D8
:10117000FFF7B3F801210804CDE900100024029420
:1011800002250491CDE907504FF4E010099068461C
:10119000FFF7DAFB08B172B6FEE70F20CDE90A05CA
:1011A0004FF48060CDE90C4002210AA80E94FFF7AD
:1011B000DFFA002801D072B6FEE70FB030BD7047ED
:1011C0000148FFF740BE0000D4000020014800683D
:1011D0000047000040000020F0B502681C4B1D4D88
:1011E0001D4E1E4F1E4C4FF0804C984209D0A0421D
:1011F00007D0604505D0A84203D0B04201D0B84224
:1012000004D122F0700E4A6842EA0E02984209D0D8
:10121000A04207D0604505D0A84203D0B04201D01B
:10122000B84203D122F44075CA682A434D6922F0BE
:1012300080022A4302608A68C2620A688262984217
:1012400001D0A04201D10969016301214161F0BDD2
:10125000002C01400004004000080040000C004049
:101260000034014070B5044600680169E26821F469
:101270004051114301612169A06808436169084335
:101280002168CA6841F20C639A430243CA6020682D
:101290004169A26921F44071114341611E492068EE
:1012A000884202D1FFF70AFB01E0FFF7F7FA00EBF3
:1012B000C00101EB0012606864218000B2FBF0F312
:1012C000B3FBF1F36FF018067343B2FBF0F5B2FB1A
:1012D000F0F605EB8305322303EB0515B5FBF1F5BD
:1012E000B6FBF1F605F0F00505EB0615B2FBF0F6DE
:1012F000B2FBF0F0B0FBF1F06FF01802504306EBD8
:10130000800003EB0010B0FBF1F0216800F00F004B
:101310002844886070BD00000038014010B5084CBA
:101320002068C068800601D500F05CFC2068C068B9
:10133000400603D5BDE8104000F05ABC10BD0000C7
:101340001C010020FEE7704770470907090E0028BE
:1013500004DB00F1E02080F80014704700F00F007B
:1013600000F1E02080F8141D7047000070B5064DB4
:1013700000242878012802D00624204670BD286960
:10138000804700202870F8E71800002070B50C4650
:101390000988002505292FD1417840F2CF760A022D
:1013A00081781143C278491C1302027989B21A4329
:1013B000531EB34220D200232380012300F8013BB7
:1013C0002688761C2680560703D003EBD203DEB2B4
:1013D00001E0C2F3C70600F8016B23885B1C238081
:1013E000002300F0E1FA18B100F0F0FB054604E03C
:1013F00020883044208000E00325284670BD70B569
:101400000C460988002505292FD1417840F2CF7676
:101410000A0281781143C278491C1302027989B209
:101420001A43531EB34220D200232380022300F824
:10143000013B23885B1C2380530704D0012303EB6B
:10144000D203DEB201E0C2F3C70600F8016B2388C5
:101450005B1C238000F000FB18B100F0B7FB0546D1
:1014600004E020883044208000E00325284670BD39
:1014700070B50C4609880026052925D141780579E3
:101480000A0281781143491C6A1E89B27C2A1BD842
:1014900000222280032200F8012B22880023521C04
:1014A00022806A0000F8012B2288521C22802A46E2
:1014B00000F010FB18B100F089FB064605E020881B
:1014C00000EB4500208000E00326304670BD70B57B
:1014D0000C4609880026052927D1417805790A029A
:1014E00081781143C278491C45EA02256A1E89B2F7
:1014F0007C2A1AD200222280042200F8012B2288A2
:10150000521C22806A0000F8012B2288521C228083
:101510002A4600F017FB18B100F058FB064605E01C
:10152000208800EB4500208000E00326304670BD97
:101530002DE9F0410446088800270D460A2842D3C9
:10154000607826790102A078227A0843401C1FFAAD
:1015500080F8E07846EA00266079731E0102A079DF
:101560000843401C81B2E0797C2B42EA0022607A79
:1015700028D83AB3792A25D8B0EB420F22D10123DB
:1015800004F10A0000F0A6FA98B900212980172179
:1015900021702988601C491C2980710000F8011BFA
:1015A00029880023491C29803246414600F092FADE
:1015B00018B100F00BFB074605E0288800EB460059
:1015C000288000E003273846BDE8F08170B5064C5E
:1015D0000D4606492288401CFEF718FE2088401C54
:1015E0002880002070BD0000C600002008030020F5
:1015F00038B50988002405290BD141780A02817881
:101600001143491C027989B21AB9C278FF2A03D062
:1016100012B10324204638BD00228DF80120C07885
:10162000FF280CD08DF8002001231A46684600F0F0
:10163000BBF90028EED000F0C9FA0446EAE7012021
:101640008DF80000F0E710B509880024052902D0C4
:101650000324204610BD417801230A028178C01C72
:101660001143491C89B21A4600F034FA0028F0D020
:1016700000F0ACFA0446ECE72DE9F0410D4609888C
:101680000024052926D9417843790A02817811433B
:10169000491C8EB2C178027942EA0122510704D076
:1016A000012101EBD201C9B201E0C2F3C701571E0B
:1016B000B7F5F66F0ED299420CD101233146801D49
:1016C00000F072F918B100F081FA044603E0052039
:1016D000288000E003242046BDE8F08170B50D4667
:1016E0000988002406291DD341780A028178114314
:1016F000C278491C1302027989B21A434379561EF3
:10170000772E0FD85606360E9E420BD10123801D30
:1017100000F0E0F918B100F059FA044603E00520A2
:10172000288000E00324204670BD000070B51D46EF
:101730001646049B024629B1F72903D8124C0846E5
:1017400021710AB102251AE0104921611049616135
:101750001049E1601049A1610021E1610F49216256
:101760000F4961620F49A1622A46314600F076F8BE
:10177000050004D100F092FA18B10120207028462B
:1017800070BD0325FBE70000180000206919000860
:101790008D190008F5180008A9180008291D00086F
:1017A000B11D0008891D000838B52B4C207808B100
:1017B000062038BD684600F063FA01284AD19DF83A
:1017C0000000E8B3012802D0022843D10FE0224AEA
:1017D000A369921D911CC81F984788BB6078217926
:1017E000884200D060BB022000F060FA32E0A068BE
:1017F0000121194B0278A270E170002113F12C0332
:1018000013F8315065B1954207D103EBC1014A6825
:101810001149891D9047E07002E0491C1029EFDB57
:10182000607868B1E07880B10021E180A17841F072
:101830008002A1680A70E288521C92B2E28000E045
:1018400008E08854E088401CE080D4E90213E28874
:1018500020799847002038BD180000202DE9F0417C
:101860001F4615460E460024FEF7CFFD3B460822D4
:101870002946304600F02AFA01280DD1B5F5964FD9
:1018800001D9232003E007496800B1FBF0F080B2E2
:1018900000F03AFA012800D00324FEF7BAFD2046F2
:1018A000BDE8F081A07F17002DE9F041164688467B
:1018B00007460025FEF7A9FD0C4CE088042804D358
:1018C000E1880B4800F09AF928B10525FEF7A1FD43
:1018D0002846BDE8F081064800783870E088C01ED0
:1018E00030800348401CC8F80000EFE7C800002023
:1018F000280300202DE9F04791460D4607460026B3
:10190000FEF783FD164C6078012806D05FF00506CF
:10191000FEF77FFD3046BDE8F0876D1E4FF00108F1
:10192000A560A4F804802F70A18801EB0900A080B5
:10193000A188A06800F062F90146A088094A13183E
:10194000401CA0801970A088090A0244401CA08095
:10195000117084F800800121002000F065F9D7E7BC
:10196000C80000202803002010B5FEF74EFD0649F0
:10197000002048700146012000F056F900F076F989
:10198000BDE81040FEF745BDC800002010B5FEF7C9
:101990003CFD0021084600F047F900F05DF9BDE884
:1019A0001040FEF736BD00002DE9F0470446012047
:1019B0004FF0000900EBD206B9B38818612842D86D
:1019C000234802F007084088081AC11700EB51713C
:1019D000CD1021F00701471A1E4873B1012B34D1F5
:1019E00024E000BF0AEB0500B9B208226D1C00F02C
:1019F00015FA04F8010B761E00E08246002EF1DC99
:101A000014F8012DC8F108018A40D0B2C8402070F6
:101A10001BE000BF0AEB050014F8013BB9B2082235
:101A20006D1C00F00CFA761E01E00CE08246012EDF
:101A3000F0DC424623780AEB0500B9B200F0FFF96A
:101A4000FFF781FC01E04FF001094846BDE8F0874F
:101A5000100000206C0100202DE9F04704461746D5
:101A600001204FF0000800EBD70549B3C8196128E1
:101A700026D81648DFF858A00088081AC11700EBCE
:101A80005171CE1021F00701A0EB01090BE000BF5E
:101A90000AEB06001FFA89F10822761C00F0BEF955
:101AA00004F8010B6D1E002DF2DC07F0070014F89E
:101AB000012DC0F108018A40D0B2C840207001E079
:101AC0004FF001084046BDE8F087000010000020FC
:101AD0006001002070B5002461B38D18652D29D8F0
:101AE000164DED88491B164D73B1012B23D11CE017
:101AF00035F81130521E1B0A00F8013B15F8113061
:101B000000F8013B92B2491C002AF1D113E000BF5A
:101B100010F8013B521E1B0225F8113010F8016B22
:101B200092B2334325F81130491C002AF0D1FFF757
:101B30000BFC00E00124204670BD000010000020D6
:101B40004002002030B50023B9B18C18652C14D8A0
:101B50000B4CA488091B0B4C0CE000BF34F811504F
:101B6000521E2D0A00F8015B14F8115000F8015BB9
:101B700092B2491C002AF1D100E00123184630BD81
:101B8000100000207801002008B5FEF761FDFFF786
:101B9000E7FAFFF783FAFFF79FFAFFF7BFFA0A4861
:101BA00001224FF4E133007C009011460020FFF742
:101BB000BDFD4FF4FA60FEF72FFCFFF7D7FB00BF27
:101BC000FFF7F2FDFCE700001C010020002804D014
:101BD000012803D0072803D0042070470220704753
:101BE00006207047014800680047000038000020C8
:101BF00001480068004700003C00002070B5094D16
:101C0000FF231A4605F5807606E000BF10F8014B69
:101C100054402A5D5A40335D491E89B2F6D242EAE9
:101C2000032070BD801E00080A4B00281A68D06887
:101C300002D040F0200001E020F02000D0601868C1
:101C40000029C16802D041F0400101E021F04001CB
:101C5000C16070471C0100200349002009684862E8
:101C60000148FFF7D7B80000D40000200349002046
:101C7000096848620148FFF797B80000D4000020C7
:101C80000549024600204B78002B04D008781070DC
:101C90000020487001207047C40000200249002045
:101CA0004870012070470000C40000200249012252
:101CB0004A70087010467047C40000200249096845
:101CC0000170012070470000043801400648016897
:101CD000CA6842F02002CA600068C16841F400513D
:101CE000C1600120704700001C0100200449086009
:101CF000044800680168C9434906FBD401207047C5
:101D0000043801401C01002000EBC00101EB001170
:101D10004FF0FF3000EB410102480268D162C16020
:101D200001207047D400002038B500246846FFF732
:101D3000C5FF1349487830B1124A012807D002285C
:101D400010D0032801D1FFF791FF204638BD0020B5
:101D5000C8809DF80030C8880244401CC8801370B9
:101D600002200BE0C888FF2807D89DF80030C888FB
:101D70000244401CC8801370E5E703204870E2E786
:101D8000C80000202803002070B5084D00246878A2
:101D900010B1022803D10120FFF788FF0446FFF7A6
:101DA0005BFF01206870204670BD0000C800002065
:101DB00070B5184C0025207810B1012827D104E017
:101DC00000210120FFF730FF21E0A08880B1A0684A
:101DD0000078FFF78BFFA06810F8012B0E4B61888D
:101DE0005A54491C6180A060A088401EA0800EE06B
:101DF0000320FFF75BFF054600210120FFF714FFDA
:101E00000026267064210448FEF745FA66802846BD
:101E100070BD0000C80000202804002010B5CB08C9
:101E20005C4201EBC40401219140C25C184440783B
:101E300042EA0020E040491E0840C0B210BD70B523
:101E4000CC08654201EBC505AB4001219140491E1C
:101E5000A9400519025D6E7842EA06228A431A43B8
:101E60000255100A687070BD0000000000000000FC
:101E70000102030406070809000000000102030430
:101E800000C1814001C0804101C0804100C181404A
:101E900001C0804100C1814000C1814001C080413A
:101EA00001C0804100C1814000C1814001C080412A
:101EB00000C1814001C0804101C0804100C181401A
:101EC00001C0804100C1814000C1814001C080410A
:101ED00000C1814001C0804101C0804100C18140FA
:101EE00000C1814001C0804101C0804100C18140EA
:101EF00001C0804100C1814000C1814001C08041DA
:101F000001C0804100C1814000C1814001C08041C9
:101F100000C1814001C0804101C0804100C18140B9
:101F200000C1814001C0804101C0804100C18140A9
:101F300001C0804100C1814000C1814001C0804199
:101F400000C1814001C0804101C0804100C1814089
:101F500001C0804100C1814000C1814001C0804179
:101F600001C0804100C1814000C1814001C0804169
:101F700000C1814001C0804101C0804100C1814059
:101F800000C0C101C30302C2C60607C705C5C40419
:101F9000CC0C0DCD0FCFCE0E0ACACB0BC90908C889
:101FA000D81819D91BDBDA1A1EDEDF1FDD1D1CDC79
:101FB00014D4D515D71716D6D21213D311D1D010E9
:101FC000F03031F133F3F23236F6F737F53534F4D9
:101FD0003CFCFD3DFF3F3EFEFA3A3BFB39F9F83849
:101FE00028E8E929EB2B2AEAEE2E2FEF2DEDEC2C39
:101FF000E42425E527E7E62622E2E323E12120E0A9
:10200000A06061A163A3A26266A6A767A56564A498
:102010006CACAD6DAF6F6EAEAA6A6BAB69A9A86808
:1020200078B8B979BB7B7ABABE7E7FBF7DBDBC7CF8
:10203000B47475B577B7B67672B2B373B17170B068
:102040005090915193535292965657975595945458
:102050009C5C5D9D5F9F9E5E5A9A9B5B99595898C8
:10206000884849894B8B8A4A4E8E8F4F8D4D4C8CB8
:102070004484854587474686824243834181804028
:10208000A020000800000020D40000006C0100081F
:1020900074210008D40000201C0A000088010008F8
:1020A0000100000010000000000000000024F40007
:1020B000010001000100010002000000000000001A
:1020C0000000000000000000000000000000000010
:1020D0000000000000000000000000000000000000
:1020E0000000000011000000CD15000804000000F1
:1020F000CF14000803000000711400081000000055
:10210000DD16000806000000471600081700000052
:1021100031150008010000008D13000805000000C3
:10212000F11500080F0000007916000802000000F9
:10213000FF13000800000000000000000000000085
:10214000000000000000000000000000000000008F
:10215000000000000000000000000000000000007F
:10216000000000000000000000000000000000006F
:04217000000000006B
:0400000508000131BD
:00000001FF
