:020000040800F2
:10000000C80A00209D0100082B1F0008B31B000830
:10001000291F0008490700081529000800000000F2
:100020000000000000000000000000001522000891
:100030004B070008000000002D1F000817220008D1
:10004000B7010008B7010008B7010008B7010008B0
:10005000B70100082F1F0008B7010008B70100080A
:10006000B7010008B7010008B7010008B701000890
:10007000B7010008B7010008B7010008B701000880
:10008000B7010008B7010008B7010008B701000870
:10009000B7010008B7010008B7010008B701000860
:1000A000B7010008B7010008B7010008B701000850
:1000B000F5220008012300080D230008B7010008FD
:1000C000B7010008B7010008B7010008B701000830
:1000D000B7010008FD28000809290008B701000839
:1000E000B7010008B7010008B7010008B701000810
:1000F000B7010008B7010008B7010008B701000800
:10010000B7010008B7010008B7010008B7010008EF
:10011000B7010008B7010008B7010008192300085B
:10012000B7010008B7010008B7010008B7010008CF
:10013000B7010008B7010008B7010008B7010008BF
:10014000B7010008B7010008B7010008B7010008AF
:10015000B7010008B7010008B7010008B70100089F
:10016000B7010008B7010008B7010008B70100088F
:10017000B7010008B7010008B7010008000000003F
:10018000B7010008B7010008DFF80CD000F0B8FA9A
:1001900000480047C1350008C80A002006488047CB
:1001A00006480047FEE7FEE7FEE7FEE7FEE7FEE75C
:1001B000FEE7FEE7FEE7FEE7A1220008890100084E
:1001C0002DE9F05F0546002092469B46884606468C
:1001D000814640241BE0284641464746224600F01F
:1001E000D8F853465A46C01A914110D311461846C2
:1001F000224600F0BFF82D1A67EB01084F46224651
:100200000120002100F0B6F817EB00094E41201E36
:10021000A4F10104DFDC484631462A464346BDE8E6
:10022000F09F40EA01039B0703D009E008C9121FB1
:1002300008C0042AFAD203E011F8013B00F8013BA0
:10024000521EF9D27047D2B201E000F8012B491ECC
:10025000FBD270470022F6E710B513460A46044663
:100260001946FFF7F0FF204610BD2DE9F04D81EA59
:10027000030404F0004B21F0004514464FF0000A3F
:1002800023F0004150EA050220D054EA01021DD0BB
:10029000C5F30A570246C5F31303C1F31300C1F3B4
:1002A0000A5640F4801543F48013A7EB0608101B90
:1002B000D64608F2FD3873EB050002D308F10108B9
:1002C00001E092185B41B8F1000F03DA002001460B
:1002D000BDE8F08D00204FF48011064684460EE004
:1002E000171B73EB050705D3121B63EB05030643CE
:1002F0004CEA010C49084FEA300092185B4150EA81
:100300000107EDD152EA030012D082EA040083EA29
:100310000501084305D0101BAB4106D20122002382
:1003200006E000224FF0004302E06FF0010253109C
:100330001AEB06004CEB085110EB0A0041EB0B01E5
:10034000BDE8F04D00F035B830B50B460146002051
:100350002022012409E021FA02F59D4205D303FA87
:1003600002F5491B04FA02F52844151EA2F1010208
:10037000F1DC30BD202A04DB203A00FA02F1002033
:1003800070479140C2F1200320FA03F319439040D3
:100390007047202A04DB203A21FA02F0002170473E
:1003A00021FA02F3D040C2F12002914008431946DD
:1003B000704710B5141E73F1000408DA401C41F1B7
:1003C000000192185B411A4301D120F0010010BDD9
:1003D0002DE9F04D92469B4611B1B1FA81F202E04F
:1003E000B0FA80F220329046FFF7C4FF04460F4671
:1003F00040EA0A0041EA0B0153465A46084313D02B
:10040000114653EA010019D0C8F140025046FFF7E7
:10041000C0FF05460E46504659464246FFF7AAFF22
:10042000084305D0012004E020463946BDE8F08DA0
:100430000020054346EAE0762C4337430A986305DB
:10044000E40AA0EB08000022FD0A44EA47540A30FF
:1004500002D500200146E9E7010510196941DDE9EF
:10046000084500196941BDE8F04DA2E72DE9FE4FAE
:10047000804681EA0300C00F0C46009021F0004145
:1004800023F00045B8EB0200A94105D240462146C1
:1004900090461C460B46024623F00040104347D0CE
:1004A000270DC7F30A00C3F30A510290401A0190C6
:1004B00040286BDAC3F3130040F4801B0098924687
:1004C00020B10023D2EB030A63EB0B0B01985946D2
:1004D000C0F140025046FFF74DFF06460D4650461C
:1004E0005946019A00F01EF910EB08006141002402
:1004F00087EA115284EAE7731A4340D0009A62B344
:10050000019A012A4FEA075215DC001B61EB020138
:100510004FF0004202EA0752CDE90042001C41F5CB
:10052000801132462B46FFF753FF03B0BDE8F08F32
:1005300040462146F9E7001B61EB0201001C41F532
:10054000801300185B412018A2F5001747EB030148
:1005500040EAD570B6196D4111E06D084FEA3606D4
:1005600045EAC0754FEA0752001B61EB0201001C0F
:1005700041F5801149084FEA3000001951413246D7
:100580002B4603B0BDE8F04FFFF713BF00980122E0
:1005900040000023D0EB020263EBE0730098214699
:1005A0004FEAE074B8EB000061EB0401E9E783F087
:1005B00000435BE781F0004158E72DE9FE4F81EAF7
:1005C000030404F0004421F0004100944FF0000BBC
:1005D00023F0004350EA01045ED052EA03045BD0EA
:1005E000C3F30A54C1F30A552C44A4F2F334019422
:1005F000A0FB0254C1F3130141F48011C3F31303B0
:1006000043F4801301FB024400FB034E840A970A63
:1006100044EA815447EA8357A4FB076802958D0A90
:1006200005FB07854FEA932C04FB0C542705029D1C
:100630004FEA065847EA1637B5EB08056EEB070C8C
:10064000870E920E47EA811742EA8312A7FB020146
:10065000B6EB0B0164EB00042B0D43EA0C335E1880
:1006600044EB1C50DA465146E7FB0201C5F3130484
:100670004FEA0B3343EA14534FEA0432019C43EA36
:100680000603A4F10C040294009CCDE900B4FFF72A
:100690009FFE03B0BDE8F08F00200146F9E7C1F3EB
:1006A0000A52C1F3130140F2FF3341F480119A4220
:1006B00002DA00200146704740F233439A42A2F228
:1006C000334202DC5242FFF764BEFFF753BE000024
:1006D00030B5041E71F1000404DB4FF000444042C9
:1006E00064EB0101141E73F1000405DB1C464FF09E
:1006F0000043524263EB0403994208BF904230BD6D
:10070000064C074D06E0E06840F0010394E807005E
:1007100098471034AC42F6D3FFF73AFDF83600089C
:1007200018370008202A06DBCB17203A41FA02F0DE
:1007300043EAE07306E041FA02F3D040C2F120023E
:100740009140084319467047FEE77047704790F89C
:100750003510022903D08021416501207047052111
:1007600080F835100068016821F001010160002067
:100770007047000070B5044600F0FAF80546601CAA
:1007800002D004480078044400F0F2F8401BA04274
:10079000FAD370BD080000200149086070470000CE
:1007A000000000202DE9F84F00224FF0010803253A
:1007B0004FF00F0E0B6808FA02F42340A3426ED1EB
:1007C0004E68012E05D0022E03D0112E01D0122E1C
:1007D00012D186684FEA420C05FA0CF7BE43CF6887
:1007E00007FA0CF7374387604668A6430C79C4F3D1
:1007F0000014944034434460C668570005FA07FC6F
:100800008C6826EA0C06BC403443C4604C68022C59
:1008100001D0122C13D1D40800EB8404A346D4F8E1
:10082000209054074FEAD46A0EFA0AF629EA06091C
:100830000E6906FA0AF646EA0906CBF82060066851
:100840000C7926EA0C0604F00304BC40344304602F
:100850004C68E40065D5364C266846F48046266030
:10086000246822F0030604F480440094314C34449C
:10087000A446D4F808489607370F0EFA07F6B44393
:100880002D4EB04201D1002624E02C4EB04201D1C1
:1008900001261FE02A4EB04202D102261AE040E0B3
:1008A000284EB04201D1032614E0274EB04201D1B8
:1008B00004260FE0254EB04201D105260AE0244E61
:1008C000B04201D1062605E0224EB04201D10726F2
:1008D00000E00826BE402643CCF808681E4E346867
:1008E0004F689C43FF0300D51C4334601A4C241D01
:1008F00026684F689E43BF0300D51E432660164EF0
:10090000083634684F689C43FF0200D51C433460AE
:10091000114E0C3634684F689C43BF0200D51C430F
:100920003460521C102AFFF445AFBDE8F88F000078
:100930004438024000300140000002400004024000
:1009400000080240000C0240001002400014024067
:1009500000180240001C0240003C014000690840B1
:1009600000D0012070470AB1816170470904FBE79C
:100970000148806870470000080000200248816834
:100980000278114481607047080000200B4810B5C0
:10099000016841F400710160016841F48061016007
:1009A000016841F480710160032000F077F80020B5
:1009B00000F006F800F024F8002010BD003C0240D2
:1009C00070B50D4D04464FF47A712878B1FBF0F004
:1009D0000A490968B1FBF0F000F00AFB48B9102C95
:1009E00007D200222146501E00F038F800206C602B
:1009F00070BD012070BD0000080000200400002030
:100A00000E4808B5016841F480410160006800F4B7
:100A1000804000900948001F016841F0805101604A
:100A20000068002200F0805000901146052000F080
:100A300015F8BDE80840052000F002B8443802402F
:100A4000002809DB00F01F020121914040098000CD
:100A500000F1E020C0F8001170470000F0B40E4B28
:100A60001B680C46C3F30223C3F10705042D00D90C
:100A70000425191D072901D2002300E0DB1E0126F1
:100A800006FA05F1491E214099409E40761E164007
:100A90003143F0BC02F016B90CED00E0064900F05D
:100AA000070208684FF6FF03184040EA0220034A95
:100AB00010430860704700000CED00E00000FA05EC
:100AC0002DE9F0470E46050065D0DFF81481D8F80F
:100AD0000000F7B200F00F00B04207D288F80070B3
:100AE000D8F8000000F00F00B04254D128683D4C07
:100AF000810712D5400703D5206840F4E0502060FC
:100B00002878000703D5206840F460402060206802
:100B1000A96820F0F000084320602878C0072DD095
:100B2000304968680839012812D0022813D00328F8
:100B300011D00968890700292DDA216821F0030105
:100B400001432160FFF714FF814641F2883A0EE02D
:100B500009688903EFE709688901ECE7FFF708FFF7
:100B6000A0EB0901514502D90320BDE8F0872068B8
:100B7000696800F00C00B0EB810FEFD1D8F80010DD
:100B8000404601F00F01B14207D90770006800F03C
:100B90000F00B04201D00120E7E72878400705D5D3
:100BA0002068E96820F4E0500843206028780007B6
:100BB00006D52068296920F4604040EAC100206021
:100BC00000F038F82168084AC1F30311515CC840AD
:100BD0000649086006480068FFF7F2FE0020C4E7F7
:100BE000003C024008380240BC36000804000020E7
:100BF0000C0000200448054900680968044AC1F354
:100C00008221515CC840704704000020083802402F
:100C1000CC3600080448054900680968044AC1F355
:100C20004231515CC840704704000020083802403F
:100C3000CC360008154810B5006810F00C021448B6
:100C400013D04110042A0FD0082A0ED10F4C241FB4
:100C50002268236802F03F025B0207D52068C0F3D8
:100C60008810A0FB010106E0084610BD2168C1F311
:100C70008811A1FB00010023FFF7A2FA2168C1F34C
:100C80000141491C4900B0FBF1F010BD0838024099
:100C90000024F4002DE9F84F04006ED02078DFF82E
:100CA0003C93C007A9F104054AD009F1040001688A
:100CB000C1F38101012908D00068C0F38100022836
:100CC0000AD1D9F80000400206D52868800337D53C
:100CD00060680028E1D033E06068B0F5803F10D054
:100CE000B0F5A02F286810D020F480302860286844
:100CF00020F4802028606068A8B1FFF739FE06461E
:100D00000DE0286840F48030F4E740F4802028604B
:100D1000F7E700BFFFF72CFE801B642873D8286814
:100D20008003F7D50CE0FFF723FE064605E000BF81
:100D3000FFF71EFE801B6428F0D828688003F7D4D4
:100D40002078DFF89C8280074FF0000A3ED5A34848
:100D5000001D016811F00C0F08D00068C0F381007D
:100D600002280BD1D9F80000400207D42868800778
:100D700016D5E068012800D112E02BE1E068B8B197
:100D80000120C8F80000FFF7F3FD064605E000BFAC
:100D9000FFF7EEFD801B0228C0D828688007F7D532
:100DA0002868216920F0F80040EAC10028600DE0C1
:100DB000C8F800A0FFF7DCFD064604E0FFF7D8FD09
:100DC000801B02281FD828688007F7D420780007E6
:100DD00022D5824E83486169703671B1012101606C
:100DE000FFF7C6FD074604E0FFF7C2FDC01B02285F
:100DF00009D830688007F7D50EE0C0F800A0FFF7EB
:100E0000B7FD074605E082E0FFF7B2FDC01B0228F0
:100E10007DD830688007F7D42078400768D5DFF8A0
:100E2000BCB100270BF13C0BDBF80000C0000BD479
:100E3000DBF8001041F08051CBF80010DBF8000027
:100E4000012700F080500090674E3068C00510D434
:100E5000306840F480703060FFF78AFD009005E054
:100E6000FFF786FD0099401A022850D83068C00567
:100E7000F6D55A4EA0686C3601280FD00528306888
:100E800010D020F001003060306820F004003060A5
:100E9000A068B8B1FFF76CFD00900FE0306840F03B
:100EA0000100F4E740F004003060F7E7FFF760FD71
:100EB0000099411A41F28830814266D83068800733
:100EC000F4D50EE0FFF754FD009007E0FFF750FD6A
:100ED0000099411A41F28830814256D83068800723
:100EE000F4D42FB1DBF8001021F08051CBF80010C2
:100EF000A069C8B33949091D0968C1F381010229F4
:100F00004AD00228504607D0C8F8600000E03CE014
:100F1000FFF72EFD04463BE04746C8F86000FFF7A8
:100F200027FD064605E000BFFFF722FD801B0228D3
:100F30002BD828688001F7D4D4E907010843A16AB7
:100F40002A4A490802EB0141626A41EA82110843D8
:100F500094F82C1040EA0161C9F8001001203866AD
:100F6000FFF706FD044606E036E000BFFFF700FD90
:100F7000001B022809D828688001F7D52CE000BFA3
:100F8000FFF7F6FC001B022802D90320BDE8F88F0A
:100F900028688001F4D41FE00128F7D0D9F80000B8
:100FA000E26900F48001914214D1226A00F03F010D
:100FB00091420FD147F6C071626A0140914209D156
:100FC000A26A00F44031914204D1E16A00F07060FD
:100FD000884201D00120D9E70020D7E70438024039
:100FE00000004742800E4742007000400000FFFFB3
:100FF00010B5401EB0F1807F01D3012010BD4FF02D
:10100000E02460610F21601701F05CFE0020A06108
:1010100007202061002010BD7047704770B590F820
:101020003C20012A32D0012480F83C40022280F882
:101030003D2003685A689D6822F070060A683243B2
:101040005A60134B02689A4214D0B2F1804F11D00B
:10105000104B9A420ED0104B9A420BD00F4B9A4233
:1010600008D00F4B9A4205D00E4B9A4202D00E4B3D
:101070009A4204D1496825F080031943916080F8B1
:101080003D40002180F83C10084670BD022070BD34
:10109000000001400004004000080040000C004037
:1010A00000040140004001400018004010B5040059
:1010B00003D094F83D0010B107E0012010BD0020DE
:1010C00084F83C00204600F00DF8022084F83D0032
:1010D000211D206801F026F9012084F83D00002040
:1010E00010BD000010B586B0044614216846FFF715
:1010F000B1F821683148B1F1804F15D0304A9142A2
:1011000021D1016841F0020101600068002200F075
:101110000200059011461D20FFF7A0FC5FF01D00A6
:10112000FFF78EFC06B010BD016841F001010160BF
:101130000068002200F00100059011461C20FFF716
:101140008DFC1C20ECE71F4A914225D1016841F03B
:1011500004010160006800F0040005901748103891
:10116000016841F0020101600068012100F0020005
:101170000590501500900220CDE901010321CDE931
:10118000031069461048FFF70DFB002211461E2090
:10119000FFF764FC1E20C3E70C4A9142C2D10168EC
:1011A00041F0200101600068002200F0200005905D
:1011B00011463720FFF752FC3720B1E74038024094
:1011C00000040040000800400004024000140040F9
:1011D000022180F83D1001688A6802F00702062AA1
:1011E00003D00A6842F001020A60012180F83D1034
:1011F000002070470168CA6842F00102CA600068B6
:10120000816801F00701062903D0016841F001015E
:1012100001600020704770B5044690F83C0001283A
:1012200017D0012584F83C50022084F83D00206846
:10123000826822F0770222F47F4282600868502898
:1012400030D00DDC20284DD005DC98B310283BD1E0
:1012500048E0022070BD302844D0402834D139E025
:10126000602828D0702806D0B0F5805F2CD0B0F56B
:10127000005F29D10AE0CB68D1E90121206801F0A3
:10128000C2F82068816841F0770109E0CB68D1E9B4
:101290000121206801F0B7F82068816841F480419D
:1012A000816011E0CA684968206801F081F9502125
:1012B000206807E016E0CA684968206801F0CAF9AA
:1012C0006021206801F0A9F884F83D50002084F8DE
:1012D0003C0070BDCA684968206801F069F9402186
:1012E0002068EFE7226801461046EBE770B500681A
:1012F0002D49884257D141152C48FFF72FFB2C4D23
:101300002C4C002678B12868016A21F42041016242
:101310002868016A41F40051016228684662207819
:1013200040F010003EE00C21214800F0C9FA80B2E4
:10133000608029680A6A22F420420A6229680A6ADF
:101340000A622178CA062AD50B064FF4F9721DD518
:10135000A0F22D13934202D86068400009E0A0F289
:1013600079524FF4C7739A4205D86068400040F044
:101370000100606013E0A0F6990098420FD8207A2F
:10138000401C207201F0F000207008E0A0F58050B1
:101390006938904203D841F080002070267220788E
:1013A00020F01000207070BD0008004000040240D2
:1013B0000C010020800000202DE9F041044690F847
:1013C0003C000D4601283DD0012684F83C600220F7
:1013D00084F83D00AAB3042A46D02068082A55D0D4
:1013E000D5E90027E968036A23F480530362D0F843
:1013F0001CC0036A2CF4407C4CEA07274FF6FF7CA4
:1014000027F470470CEA013139434FF4204723F4A5
:10141000204307EA02321A43C16102622068C169AF
:1014200021F44061C1612068C169AA6841EA0221D2
:10143000C0F81C1084F83D60002084F83C00BDE832
:10144000F08101E00220FAE7D5E90012EB6820689C
:1014500001F0C0F82068816921F00C0181612068E9
:101460008169AA6811430FE0D5E90012EB68206892
:1014700001F002F92068816921F4406181612068EE
:101480008169AA6841EA02218161D3E7D5E9002C8C
:101490002F7B016A21F480710162C169036A21F026
:1014A000030141EA0C0121F0F00C39074FF42067E9
:1014B0004CEA116123F4206307EA02221A43C16156
:1014C00002622068C16921F00C01C1612068C16914
:1014D000AA681143ACE710B5040003D094F83D00AE
:1014E00010B107E0012010BD002084F83C00204628
:1014F00000F00CF8022084F83D00211D206800F067
:1015000011FF012084F83D00002010BD704710B588
:101510000268044631B1042908D008291AD00C29E0
:1015200008D11BE0D06840F0020002E0D06840F033
:101530000400D0600122206800F058FF2068816814
:1015400001F00701062903D0016841F001010160A3
:10155000002010BDD06840F00800EAE7D06840F0F5
:101560001000E6E770B50446006801694FF0000519
:10157000C943890715D4C168C943890711D4E91E35
:10158000016101202077206880698007204602D011
:10159000FFF7ACFE04E000F0D5F8204600F057F964
:1015A000257720680169C943490717D4C168C94331
:1015B000490713D46FF004010161022020772068ED
:1015C000806910F4407F204602D0FFF78FFE04E0D0
:1015D00000F0B8F8204600F03AF925772068016954
:1015E000C943090716D4C168C943090712D46FF06B
:1015F00008010161042020772068C0698007204627
:1016000002D0FFF773FE04E000F09CF8204600F0E3
:101610001EF9257720680169C943C90617D4C16836
:10162000C943C90613D46FF0100101610820207767
:101630002068C06910F4407F204602D0FFF756FEB4
:1016400004E000F07FF8204600F001F925772068DB
:101650000169C943C90708D1C168C943C90704D191
:10166000891E0161204600F015F920680169C9430F
:10167000090609D4C168C943090605D46FF0800181
:1016800001612046FFF7C8FC20680169C94349068B
:1016900009D4C168C943490605D46FF0400101610E
:1016A000204600F022F920680169C94389060BD45D
:1016B000C168C943890607D46FF020010161204643
:1016C000BDE87040FFF7A9BC70BD000030B587B021
:1016D000044614216846FEF7BDFD1649206888427D
:1016E00026D115480024016841F00101016001681C
:1016F00001F001010591016841F0020101600068FB
:10170000022500F002000590C0200090CDE90154B0
:1017100069460A48CDE90345FFF744F803200090E5
:10172000CDE9015469460648CDE90345FFF73AF88B
:1017300007B030BD000400403038024000000240D5
:1017400000040240704770B5044690F83C000D4616
:1017500001280DD0012684F83C60022084F83D0069
:1017600042B1042A18D0082A2AD00C2A4DD139E0D7
:10177000022070BD206800F059FE2068816941F0A8
:10178000080181612068816921F00401816120687C
:1017900081692A69114311E0206800F077FE206812
:1017A000816941F4006181612068816921F480616F
:1017B0008161206881692A6941EA0221816124E00E
:1017C000206800F099FE2068C16941F00801C161FC
:1017D0002068C16921F00401C1612068C1692A69DA
:1017E000114311E0206800F0BBFE2068C16941F49C
:1017F0000061C1612068C16921F48061C161206814
:10180000C1692A6941EA0221C16184F83D60002072
:1018100084F83C0070BD10B5040003D094F83D007E
:1018200010B107E0012010BD002084F83C002046E4
:1018300000F00CF8022084F83D00211D206800F023
:1018400071FD012084F83D00002010BD70477047F5
:1018500010B504460068012200F0C8FD0B4920685D
:10186000884202D00A49884203D1416C41F40041C8
:1018700041642068816801F00701062903D00168EE
:1018800041F001010160002010BD00000000014096
:101890000004014010B5044600680749884202D19F
:1018A000642001F039F805492068884203D1BDE879
:1018B000104000F03DBB10BD001400400008004087
:1018C0000246002041B1042909D008290AD00C2978
:1018D00001D11068006C70471068406B7047106849
:1018E000806B70471068C06B70477047704700008E
:1018F00070B5026804461068D168536910F00F0F84
:1019000052D003F0010501F490762E435FD0C20758
:1019100005D0CA0503D5E26B42F00102E26342073B
:1019200005D5DA0703D0E26B42F00202E2638207D8
:1019300005D5DA0703D0E26B42F00402E263020746
:1019400007D501F020022A4303D0E26B42F00802DF
:10195000E263E26B002A33D0800604D5880602D504
:10196000204600F0BAFE20684069E16BC0F38010A9
:10197000090700D428B3204600F0A1FE2068416981
:1019800049061AD5416921F040014161606BA0B15F
:101990001B490165606BFEF7DAFE002810D0606B12
:1019A000016DBDE870400847830610D58B060ED543
:1019B0002046BDE8704000F090BE2046FFF796FF3D
:1019C00070BD2046FFF792FF0020E06370BD030664
:1019D00006D50B0604D52046BDE8704000F05CBF7C
:1019E0004006F3D54806F1D5D168204621F04001E4
:1019F000D160202184F8391000F0DAF870BD0000C1
:101A0000AF26000870B5040004D094F83900002512
:101A100010B106E0012070BD84F83850204600F077
:101A200023F8242084F839002068C16821F400518B
:101A3000C160204600F09CFE2068016921F49041BD
:101A400001612068416921F02A0141612068C16873
:101A500041F40051C160E563202084F8390084F826
:101A60003A00002070BD0000F0B587B00446142194
:101A70006846FEF7EFFB2A4F23680022294902241B
:101A8000032507262848BB4221D1264B14331F6863
:101A900047F010071F601B6803F0100305930B68E5
:101AA00043F001030B60096802AB01F001010591ED
:101AB0006902CDE9001483E864006946FEF772FE0E
:101AC000002211462520FEF7C9FF252023E0174FED
:101AD000BB4222D1134B10331F6847F400371F60FD
:101AE0001B6803F4003305930B6843F001030B609C
:101AF000096802AB01F0010105910C21CDE9001448
:101B000083E864006946FEF74DFE00221146262058
:101B1000FEF7A4FF2620FEF793FF07B0F0BD0000FC
:101B200000100140303802400000024000440040F4
:101B300090F83A30202B22D1F9B1F2B190F8383038
:101B4000012B1CD081628285C2850021C1632222C3
:101B500080F83A2080F838100168CA6842F4807230
:101B6000CA6001684A6942F001024A610068C168BE
:101B700041F02001C1600020704701207047022021
:101B80007047000010B5044600680749884201D13B
:101B900000F0DAFE05492068884203D1BDE8104014
:101BA00000F0D2BE10BD0000001001400044004013
:101BB0007047FEE72DE9F04186B014216846FEF734
:101BC00049FB37480024016841F0100101600168B9
:101BD00001F010010591016841F0200101600168E8
:101BE00001F020010591016841F080010160016868
:101BF00001F080010591016841F001010160016877
:101C000001F001010591016841F0020101600068E5
:101C1000244F00F002004FF4007605900022314678
:101C20003846FEF7A0FEDFF88080002244F2200153
:101C30004046FEF798FE1C2001258DE831006946DC
:101C40001A48FEF7AFFD0096CDE9015469463846C3
:101C50000394FEF7A7FDCDE9005402266946144817
:101C60000296FEF79FFDA8038DE861006946404695
:101C70000396FEF797FDE803CDE900046946404668
:101C80000294FEF78FFD20208DE861000320039071
:101C900069464046FEF786FD06B0BDE8F0810000CB
:101CA000303802400014024000040240001002409C
:101CB0000000024010B586B000241648009401943C
:101CC0000294039404944FF08041059401605321E1
:101CD000C0E901144FF6FF71C0E903148461FFF7F6
:101CE000E5F908B1FEF732FD4FF4805000906946E7
:101CF0000848FFF790FA08B1FEF728FD049404A9FC
:101D000004480594FFF78AF9002801D0FEF71EFD6C
:101D100006B010BD8C00002010B58EB000240794D2
:101D2000089409940A940B941C2168460C94FEF7BD
:101D300091FA2A48284901605321C0E9011444F668
:101D40002061C0E903148461FFF7B0F908B1FEF720
:101D5000FDFC4FF48050079007A92048FFF75BFA7D
:101D600008B1FEF7F3FC1D48FFF755FD08B1FEF77B
:101D7000EDFC0B940BA919480C94FFF74FF908B12F
:101D8000FEF7E4FC6020CDE90004029400226946DD
:101D900012480494FFF7D7FC08B1FEF7D7FC0422E1
:101DA00069460E48FFF7CFFC08B1FEF7CFFC0822CA
:101DB00069460A48FFF7C7FC08B1FEF7C7FC0C22CA
:101DC00069460648FFF7BFFC08B1FEF7BFFC0348B1
:101DD000FFF77CFC0EB010BD00040040CC000020DA
:101DE00010B58AB000242248049405940694079400
:101DF000089409940094019402941C49039401608E
:101E00005321C0E9011442F21071C0E90314846146
:101E1000FFF74CF908B1FEF799FC4FF4805004909D
:101E200004A91348FFF7F7F908B1FEF78FFC104833
:101E3000FFF751FB08B1FEF789FC089408A90C488C
:101E40000994FFF7EBF808B1FEF780FC0120CDE91B
:101E5000004002940C22694605480394FFF7ACFA4F
:101E6000002801D0FEF772FC0AB010BD0008004047
:101E70000C0100201CB500240E4800940C4901946C
:101E8000016042F2CF01C0E901140A218461C160FE
:101E9000FFF70CF908B1FEF759FC009469460548B4
:101EA0000194FFF7BBF8002801D0FEF74FFC1CBDE2
:101EB000001400404C0100200C4810B50A49016094
:101EC0004FF4E1314160002181600C22C160C0E922
:101ED00004128161C161FFF795FD002803D0BDE8C0
:101EE0001040FEF733BC10BD001001408C010020F3
:101EF0000C4810B50A4901604FF4E13141600021FE
:101F000081600C22C160C0E904128161C161FFF7E8
:101F100079FD002803D0BDE81040FEF717BC10BDC6
:101F200000440040CC010020FEE770477047704736
:101F30000B4801780A0611D521F0100101700A073B
:101F400002D141F040010170C9B201F00F020E2A26
:101F500001D2491C01E001F07001017070470000DE
:101F60008000002010B50448FFF744F9BDE8104098
:101F70000C210148FFF7CBBA0C0100202DE9F041FC
:101F800007460B4815460E46007808B900F010FDCC
:101F9000EFF31184202080F311882A463146384619
:101FA00000F008F8E1B281F31188BDE8F08100008B
:101FB0000C02002070B50E46144900EB400001EB06
:101FC000C0051446E86A183520B101280FD0022850
:101FD00005D113E0284600F019FDA04201D20024EB
:101FE00011E022463146284600F036FE0BE0284636
:101FF00000F00CFDA042F4D20446F2E73146284638
:1020000000F0FDFD0446204670BD00000C020020DB
:102010000FB408B504A900916A46039900F004F8CA
:1020200001B05DF814FB00002DE9F0419AB00646BE
:1020300007A8029040200025CDE90305CDE905560B
:1020400090460C4614F8011B002978D0252908D0A9
:1020500002A800F0B5FD05980028F3DA1AB0BDE833
:10206000F08100200122217823291ED02B2919D0AC
:102070002D2902D0302908D102E040F0010001E012
:1020800040F00200641C002AEDD100222178A1F169
:1020900030030A2B0CD202EB820201EB4202303AEF
:1020A000641CF3E740F00400ECE740F00800E9E7C7
:1020B0000023CFB22E2F0BD114F8011FA1F130074E
:1020C0000A2F05D203EB830301EB4303303BF3E715
:1020D0006C290CD068290AD0662965D00FDC5829F4
:1020E00038D007DC252919D046297CD15CE014F8CA
:1020F000011FEDE763290BD0642974D112E0702928
:1021000046D0732933D075291AD078296BD121E0B4
:10211000D8F80000011DC8F80010017802A800F0EE
:102120004FFD60E0D8F800100F1DC8F80070096876
:10213000CDE900200A2202A800F074FC53E054E02C
:10214000D8F800100F1DC8F800700968CDE900200C
:102150000A2208E0D8F800100F1DC8F800700968BE
:10216000CDE90020102202A800F0C0FC3BE0D8F826
:102170000000011DC8F80010D0F8007017F8011B0E
:1021800089B302A800F01CFD05980028F6DA2AE0C1
:10219000D8F80000011DC8F8001001680820CDE93A
:1021A000000503461022DEE7179518951995D8F813
:1021B000000017AFC01D20F0070000F10801C8F8AB
:1021C000001090ED000B11A153EC102B384600F0DD
:1021D00065FD00BF17F8011B29B102A800F0F0FC53
:1021E00005980028F6DA641C35E7059800287FF783
:1021F00035AF049820B1024607A93046FFF7BEFE6E
:10220000DDE904100844059028E7000025342E334A
:10221000660000007047FEF7B1BB000030B593B018
:1022200030216846FEF716F814210CA8FEF712F8C4
:1022300019480025016841F080510160006800F0F4
:10224000805011901548016841F480410160006898
:10225000022400F4804011900120009000040190BD
:102260008001CDE9064008AA0420A82182E81300D5
:102270000B906846FEF70EFD0CA90F2081E8310097
:102280004FF4A0500F90E002109005210CA8FEF72B
:1022900017FC13B030BD0000403802400070004011
:1022A0001048016841F4700101600F48016841F075
:1022B000010101600C4A00210832116002680B4BD9
:1022C0001A400260031D0A4A1A60026822F4802242
:1022D000026005480C3001600249580680390860E8
:1022E0007047000088ED00E000380240FFFFF6FE76
:1022F000103000240148FFF735B900008C000020A1
:102300000148FFF72FB90000CC0000200148FFF77B
:1023100029B900000C0100200148FFF723B9000093
:102320004C010020F0B50268254C264D264E274F63
:10233000274B4FF0804CA04209D0604507D0A842FF
:1023400005D0B04203D0B84201D0984204D122F067
:10235000700E4A6842EA0E02A0421BD0604519D0B6
:10236000A84217D0B04215D0B84213D0984211D02D
:10237000184DA8420ED0184DA8420BD0174DA842B8
:1023800008D0174DA84205D0164DA84202D0164DD0
:10239000A84203D122F44075CA682A434D6922F04D
:1023A00080022A4302608A68C2620A688262A0428E
:1023B00001D0984201D10969016301214161F0BD59
:1023C000000001400004004000080040000C0040F4
:1023D0000004014000400140004401400048014029
:1023E00000180040001C00400020004010B501F023
:1023F0001F030121046A99408C430462016A9A40D8
:102400001143016210BD10B5846842EA032224F42E
:102410007F440A432243826010BD826822F070022A
:102420000A4342F00701816070470000F0B5026A7C
:1024300022F001020262036A42688469124E24F0AB
:1024400073050C682C4323F002058B682B430D4D5C
:10245000A84201D0B04205D123F00807CB683B4326
:1024600023F00403A84201D0B04205D14D6922F403
:10247000407215438A692A43426084614968416316
:102480000362F0BD0000014000040140F0B5026AA3
:1024900022F010020262026A436884690D6824F423
:1024A000E64444EA05248D6822F0200242EA05123F
:1024B0000F4D104EA84201D0B04206D1CF6822F095
:1024C000800242EA071222F04002A84201D0B04244
:1024D00007D14D6923F4406343EA85038D6943EADC
:1024E000850343608461496881630262F0BD000036
:1024F0000000014000040140F0B5026A22F480723D
:102500000262026A4368C46922F4007224F073050F
:102510000C68124E2C438D6842EA05220E4DA842EB
:1025200001D0B04206D1CF6822F4006242EA07220D
:1025300022F48062A84201D0B04207D14D6923F451
:10254000405343EA05138D6943EA05134360C461B0
:102550004968C1630262F0BD00000140000401400F
:1025600030B5026A22F480520262046A4268C3698A
:102570000D6823F4E64343EA05238D6824F40054F0
:1025800044EA0534084DA84202D0084DA84204D1BF
:102590004D6922F4804242EA85124260C361496873
:1025A0000164046230BD00000000014000040140ED
:1025B00010B5036A046A24F001040462846924F0FB
:1025C000F00444EA021423F00A020A43846102621E
:1025D00010BD000070B5046A24F00104046284692F
:1025E000056A154EB04214D0B0F1804F11D0134E91
:1025F000B0420ED0124EB0420BD0124EB04208D0B4
:10260000114EB04205D0114EB04202D0104EB04231
:1026100003D124F00304144301E044F001041A0739
:1026200024F0F00444EA126225F00A0301F00A01E2
:1026300019438261016270BD000001400004004046
:1026400000080040000C0040000401400040014030
:102650000018004010B5036A23F010030362836979
:10266000046A23F4704343EA023224F0A00343EAED
:1026700001118261016210BD30B5046A24F01004BA
:1026800004628469056A24F4407444EA022222F454
:1026900070444FF6FF7202EA03322243A02425F071
:1026A000A00304EA011119438261016230BD10B533
:1026B000806B0021C185C184FFF718F910BD016846
:1026C000CA6822F49072CA6001684A6922F0010265
:1026D0004A61202180F83A10704710B590F83A10FE
:1026E000222901D0022010BD8168B1F5805F11D090
:1026F0000169002901681FD0496801F07F03816AE0
:102700004A1C82620B70C18D491E0904090CC185E7
:1027100018D02BE00269816A002A0268526805D04D
:10272000D2B20A80816A491C8162ECE7C2F30802D6
:102730000A80816A891CF7E74A68816A4B1C8362B8
:102740000A70E0E70168CA6822F02002CA600168E6
:10275000CA6822F48072CA6001684A6922F00102E4
:102760004A61202180F83A10FFF70CFA002010BDD2
:102770002DE9F041044600680169E26821F4405106
:10278000114301612169A068E2690843616911434D
:1027900008432168CA6849F20C639A430243CA603D
:1027A00020684169A26921F4407111434161E069E7
:1027B000192764253226B0F5004F354A354920687F
:1027C0004FF0000806D0884201D0904236D1FEF783
:1027D00021FA35E0884201D0904202D1FEF71AFA80
:1027E00001E0FEF707FA61684A18A0FB070148EB11
:1027F0000803FDF7E5FC0146B0FBF5F00201B1FB73
:10280000F5F06FF01803584301EB800006EBC000B1
:10281000B0FBF5F000F0F80002EB4002B1FBF5F080
:10282000584301EB800006EBC000B0FBF5F000F070
:102830000700216810448860BDE8F081FEF7DAF9EE
:1028400061688B0F8A00A0FB0701FDF7B9FC014608
:10285000B0FBF5F06FF01802504301EB800006EB7F
:102860000010B0FBF5F000F0F002B1FBF5F002EB68
:102870000012B1FBF5F06FF01803584301EB800034
:1028800006EB0010B0FBF5F000F00F00D1E7000000
:10289000001401400010014090F83910212901D0A6
:1028A000022070478168B1F5805F016A0BD04A1C35
:1028B0000262026809785160C18C491E0904090C42
:1028C000C1840ED017E009880268C1F30801516085
:1028D00001690029016A02D0491C0162ECE7891CE8
:1028E000FBE70168CA6822F08002CA600068C1681C
:1028F00041F04001C1600020704700000148FEF730
:10290000F7BF00008C0100200148FEF7F1BF000076
:10291000CC010020FEE700000A4991F86720002A58
:102920000FD091F86620824207D3002081F866001C
:1029300081F86700012081F8680011F8660F401CDB
:1029400008707047140000200D480022012180F813
:10295000662080F8671090F8653090F86410C154D4
:1029600090F86510491CC9B280F86510642901D33C
:1029700080F865200249012264310248FFF7D8B887
:1029800014000020CC01002010B5012205490648A2
:10299000FFF7CEF80548FEF71BFCBDE810400348E2
:1029A000FEF728BC78000020CC0100204C0100205C
:1029B000114803210161416110A1816100F1A80169
:1029C000C1614FF480610162002181624162C16294
:1029D0000AA2026600F595624266102282660167CD
:1029E000C1664167084A00BFC1F10F03D35C43547D
:1029F000491C1029F8D370470C0200205465726DF1
:102A0000696E616C00000000D43600080269C1687C
:102A10008A4203D88068401A104400E0501A401ED1
:102A2000704700002DE9FC5F0E008146DDE90C4790
:102A3000C6F1000098469346824600D40846012518
:102A400003E000BF90FBFBF06D1C5845FADAA84587
:102A500000D9454624B1002E01DB780700D5641E5D
:102A6000B80702D5B8F1000F0FD0F8070DD164B147
:102A7000A5420AD220214846641E00F0A1F8D9F8E8
:102A80000C000028F3DABDE8FC9FD9F80C00002800
:102A9000F9DB002E02DA56462D2102E0780707D531
:102AA0002B21484600F08CF8D9F80C000028EADB0E
:102AB00007F0030002280FD1B8F1000F0CD15CB170
:102AC000A54209D230214846641E00F079F8D9F8B1
:102AD0000C000028F3DAD6E7CDE9004743465A4612
:102AE0003146484600F002F8CDE700002DE9F84FE6
:102AF0008246DDE90A4B0126984691460D46084676
:102B0000374602E0B0FBF9F07F1C4845FAD2B845E1
:102B100000D947465FEACB7017D1B4B15FEA8B703A
:102B200002D5B8F1000F02D0202000900BE0302039
:102B3000FBE75046641E009900F042F8DAF80C00FA
:102B4000002838DB0CB1A742F3D3DAF80C000028D8
:102B500031DB00BFB8F1010F02D9A8F1010803E091
:102B6000B5FBF6F0484502D306FB09F6F2E7DFF8BD
:102B70004C8000BFB5FBF6F000FB165518F80010AE
:102B8000504600F01DF8DAF80C00002803DBB6FB15
:102B9000F9F6002EEED15FEACB700CD0002C0AD0F3
:102BA000A74208D220215046641E00F009F8DAF846
:102BB0000C000028F2DABDE8F88F0000E5360008C6
:102BC00010B50446D4E90130421C934205D3236872
:102BD0001954A260E068401CE060D4E9010282421E
:102BE00009D121682069FFF7C9F9A168884203D09B
:102BF0004FF0FF30E06010BD0020A06010BD2DE957
:102C0000F047C4681746894606464FF00008306909
:102C1000A04201D9051B02E0B168201A0D1AB06864
:102C20006D1E001BA84200D80546BD4200D33D469C
:102C300070682A4620444946FDF7F3FAB0687F1BC6
:102C40002C44A844A944A04200D10024F460002FE1
:102C5000DDD14046BDE8F0872DE9F04104468846C5
:102C6000D4E90207C51BE168606816460844B5420E
:102C700006D94146FDF7D5FAB819E060BDE8F08104
:102C80002A464146FDF7CDFA761B08EB0501324690
:102C90006068FDF7C6FAE660F0E700000FB4084B85
:102CA00010B504A902AA039800F0EEF8044602A9A0
:102CB000002000F080FC204610BC5DF814FB0000F2
:102CC000B73500080907090E002804DB00F1E020F1
:102CD00080F80014704700F00F0000F1E02080F849
:102CE000141D704702E008C8121F08C1002AFAD15B
:102CF00070477047002001E001C1121F002AFBD17C
:102D0000704700002DE9FF5F82B00021DDE904304B
:102D1000020DDDF840B0034318D044F61050A2F283
:102D2000FF3242431514119801281FD0A5EB0B0068
:102D3000401C5FEA000A4FF000064E4FDFF8389162
:102D4000B046504615D5CAF1000413E0119801248D
:102D50004AA3012801D16FEA0B010298119AC0E938
:102D60000031C0E9024206B0BDE8F09FCBF100009F
:102D7000DFE704460021404A491842EB0450CDE900
:102D8000001012E0E00707D032463B464046494675
:102D9000FDF713FC8046894632463B4610461946ED
:102DA000FDF70BFC06460F466410002CEAD1DDE966
:102DB0000401DDE90023BAF1000F06DAFDF7FDFB9F
:102DC00042464B46FDF7F9FB05E0FDF74EFA424659
:102DD0004B46FDF74AFA04460E460022284BFDF703
:102DE00077FC03D84FF0FF30014607E00022254B67
:102DF00020463146FDF73AFBFDF751FC102409E06F
:102E0000002C0ADB0A220023FDF7DAF9039B30329B
:102E10001A55641E50EA0102F2D1641C039AC4F1EF
:102E200011031444119A012A03D0012208430DD141
:102E30000AE0084304D000204FF0110B119072E714
:102E4000A3EB0B056D1E0DE05B4504DD4FF00002AA
:102E500005F1010504E003DA4FF00002A5F10105D8
:102E6000002AECD002981199C0E90231C0E900456E
:102E700079E70000000014400000F03F300000003F
:102E80000000F0430000E03F2DE9FF4F95B09B4666
:102E90008946064600250FE2252877D100242746DB
:102EA000F84A0121059400E0044316F8013F203B55
:102EB00001FA03F01042F7D130782A2811D06FF0D0
:102EC0002F033078A0F13002092A16D8059A44F071
:102ED000020402EB820203EB42021044761C0590CE
:102EE000EFE759F8042B0592002A03DA504244F424
:102EF0000054059044F00204761C30782E2816D138
:102F000016F8010F44F004042A280DD06FF02F02A8
:102F10003078A0F13003092B09D807EB870302EBC7
:102F20004303C718761CF3E759F8047B761C307806
:102F30006C280FD006DC4C2817D068280DD06A28E2
:102F400014D104E0742810D07A280FD10DE044F495
:102F500000140AE044F4801401E044F44014727850
:102F6000824202D104F58014761C761C30786628E3
:102F70000BD013DC582877D009DC002875D0452801
:102F8000F6D04628F4D047281AD19DE118E06328EE
:102F900035D0642879D0652812D195E1702873D096
:102FA00008DC6728F1D069286FD06E280DD06F2813
:102FB00006D1B5E073282CD0752875D0782874D048
:102FC0005A46179990476D1C75E1C4F302500228C8
:102FD00009D003280DD0D9F8001004280DD00D60B9
:102FE00009F1040967E1D9F80010EA17C1E90052B4
:102FF000F6E7D9F800100D80F2E70D70F0E719F848
:10300000041B8DF8001000208DF80100EA46012015
:1030100003E059F804AB4FF0FF3061074FF00001B7
:1030200002D40DE008F101018846B9420FDA80456B
:10303000F8DB1AF808100029F4D108E008F10101C2
:1030400088468142FADB1AF808100029F6D1059863
:103050005B46A0EB080721463846179A00F094FA21
:10306000284400EB080507E04DE029E10DE01AF8DF
:10307000010B5A4617999047B8F10108F7D25B4601
:1030800021463846179A13E142E00A220092C4F31F
:1030900002524FF0000A022A08D059F804CB032A42
:1030A0004FEAEC710AD00DE029E02AE009F10701AE
:1030B00021F00702F2E802C1914609E00FFA8CFC08
:1030C0004FEAEC71042A03D14FFA8CFC4FEAEC7101
:1030D000002907DA0A460021DCF1000C61EB02014D
:1030E0002D2202E0220504D52B228DF80420012296
:1030F00003E0E20701D02022F7E7904659E00A21D9
:1031000002E010220DE010214FF0000A00910BE0C8
:1031100010224FF0000A44F004040827009203E054
:1031200008224FF0000A0092C4F30252022A05D08E
:1031300059F804CB0021032A08D009E009F107015E
:1031400021F00702F2E802C1914605E01FFA8CFC6B
:10315000042A01D10CF0FF0C4FF00008220728D5FB
:10316000702806D0009B83F0100353EA0A0305D0B1
:103170000EE040228DF80420012208E05CEA010202
:1031800006D030228DF804208DF8050002229046EA
:10319000009B83F0080353EA0A030AD15CEA0102A8
:1031A00001D1620705D530228DF804204FF00108C7
:1031B0007F1E582804D034A003900EA802900DE082
:1031C00036A0F9E753466046009AFCF7F9FF8446BB
:1031D0000398825C0298401E029002705CEA010033
:1031E000F0D1029806A9081A00F1200A600702D55A
:1031F00024F4803400E00127574502DDA7EB0A00E4
:1032000000E0002000EB0A01009005984144401ABC
:103210000590E00306D45B462146179A059800F016
:10322000B3F90544002706E001A85A46C05D179986
:1032300090476D1C7F1C4745F6DBE0030CD55B46D1
:103240002146179A059800F09FF9054404E03020C4
:103250005A46179990476D1C0099481E0090002906
:10326000F5DC08E0029802995A460078491C029160
:10327000179990476D1CBAF10001AAF1010AF1DC1F
:1032800065E100000928010030313233343536372A
:1032900038396162636465660000000030313233A2
:1032A0003435363738394142434445460000000042
:1032B00000F058F90544761C307800287FF4ECAD16
:1032C00019B02846BDE8F08F620700D4062709F13F
:1032D000070222F0070CFCE80223E14603F0004855
:1032E0005FEA080C02D00FF2702C0DE05FEA045C7C
:1032F00002D50FF2682C07E05FEAC47C02D00FF21F
:10330000602C01E0AFF2700C4FF0FF3823F0004367
:10331000CDF850C065280CD006DC452809D04628D9
:103320001DD047283DD13DE0662818D067287ED1C2
:1033300038E00021112F01DB112000E0781CCDE9DD
:10334000000106A90EA8FFF7DDFCDDE90F010E9ACA
:1033500003910021009207F1010A04914DE04FF022
:1033600000400097CDE9011006A90EA8FFF7CAFC9E
:10337000DDE90F0203920E9B11990022DDF80CA0EB
:103380000093049211B9791C00EB010AB7EB0A0013
:1033900004D4C0F1FF3007F1010A0490AAEB070042
:1033A000019044E0012F00DA01270021112F01DDF7
:1033B000112000E03846CDE9000106A90EA8FFF76C
:1033C000A1FCDDE90F010E9A039100210491009206
:1033D000BA4621070CD40399514500DA8A46BAF15E
:1033E000010F05DD009AAAF10101515C302908D0D6
:1033F000B84202DA10F1040F06DA0121CDE901101A
:1034000015E0AAF10101E9E7002805DC049901446F
:103410000491AAEB000102E0411C514500DD8A46FF
:103420000499401A401C01904FF000400290200780
:1034300004D40198504501DBCDF8048000208DF8BC
:103440004F0002980DF14F07B0F1004F25D02B200F
:103450000E9002984FF0020800280CDA40420290C9
:103460002D200E9007E00A210298FCF76DFF303105
:10347000029007F8011DB8F10001A8F10108F2DC83
:1034800002980028EFD1791E0E980870307800F06D
:10349000200040F0450007F8020D12A8C01B00F103
:1034A00007081498007800B1012000EB0A01019888
:1034B00001EBE07105984144401A401E0590E0037D
:1034C00006D45B462146179A059800F05DF805443E
:1034D0001498007818B15A46179990476D1CE0036C
:1034E00024D55B462146179A059800F04DF805440F
:1034F0001CE00498002807DBDDE90301884203DDB6
:103500000098405C179901E0179930205A4690477F
:10351000049805F10105401C04900198401E01909B
:1035200004D12E205A46179990476D1CBAF100011C
:10353000AAF1010ADDDC05E017F8010B5A461799DC
:1035400090476D1CB8F10001A8F10108F4DC5B465E
:103550002146179A0598ABE62D0000002B000000CD
:10356000200000002DE9F041044600251E461746C4
:10357000880404D405E039462020B0476D1C641E41
:10358000F9D52846BDE8F0812DE9F0410446002533
:103590001E469046C80301D5302700E02027880446
:1035A00004D505E041463846B0476D1C641EF9D588
:1035B0002846BDE8F0810A68531C0B601070704704
:1035C0002DED028BFDF7E2F9FEF728FEFEF7F2FA89
:1035D000FEF78EFCFEF7A0FBFEF76EFCFEF76AFB23
:1035E000FEF748FCFEF7FCFBA820FDF7D5F8164CCB
:1035F00000224FF480412046FDF7B5F9002220213A
:103600002046FDF7B0F9FFF7BFF91048FDF7E0FDE0
:1036100008210E48FEF71CF9FEF7A4FC9FED0C8B69
:103620004FF4FA740CA10020FEF7F2FC13A1002065
:10363000FEF7EEFC53EC182B19A10020FEF7E8FC76
:103640002046FDF797F8EDE700040240CC0000208B
:10365000AE47E17A14AE28401B5B323B33316D0D2F
:103660000ABBB6D3ADB9D8D7A2D0A1B7C9B8E7CDF8
:10367000E6C7B6C8EBCABD0D0A0D0A001B5B313B9D
:1036800033326D0D0A77656C636F6D6520456D6231
:1036900065646465642D70617274790D0A0D0A00A9
:1036A0001B5B313B33346D64617461207072696EF1
:1036B0007420746573743A25660D0A0000000000DA
:1036C00000000000010203040607080900000000D2
:1036D000010203040000000000005454522052452F
:1036E0004747455300303132333435363738394166
:1036F00042434445460000001837000800000020FF
:1037000014000000E42C00082C37000814000020EE
:10371000B40A0000F42C0008000000000024F400AB
:0C3720000100000010000000000000008C
:040000050800018965
:00000001FF
