:020000040800F2
:10000000C00500209D010008B3240008D91700088E
:10001000B1240008A9020008E12A0008000000003D
:10002000000000000000000000000000A7250008FC
:100030006903000800000000B5240008A925000895
:10004000B7010008B7010008B7010008B7010008B0
:10005000B7010008B7010008B7010008B7010008A0
:10006000B7010008B7010008B7010008B701000890
:10007000B7010008B7010008B7010008B701000880
:10008000B7010008B7010008B7010008B701000870
:10009000B7010008B7010008B7010008B701000860
:1000A000B7010008B7010008B7010008B701000850
:1000B000B70100085D260008B7010008B701000875
:1000C000B7010008B7010008B7010008B701000830
:1000D000B7010008D52A0008B7010008B7010008D9
:1000E000B7010008B7010008B7010008B701000810
:1000F000B7010008B7010008B7010008B701000800
:10010000B7010008B7010008B7010008B7010008EF
:10011000B7010008B7010008B7010008B7010008DF
:10012000AD020008B7010008B7010008B9020008D5
:10013000B7010008B7010008B7010008B7010008BF
:10014000B7010008B7010008B7010008B7010008AF
:10015000B7010008B7010008B7010008B70100089F
:10016000B7010008B7010008B7010008B70100088F
:10017000B7010008B7010008B7010008000000003F
:10018000B7010008B7010008DFF80CD000F07AF8DA
:100190000048004761320008C0050020064880473B
:1001A00006480047FEE7FEE7FEE7FEE7FEE7FEE75C
:1001B000FEE7FEE7FEE7FEE74126000889010008AA
:1001C0002DE9F05F0546002092469B46884606468C
:1001D000814640241BE0284641464746224600F01F
:1001E00041F853465A46C01A914110D31146184659
:1001F000224600F028F82D1A67EB01084F462246E8
:100200000120002100F01FF817EB00094E41201ECD
:10021000A4F10104DFDC484631462A464346BDE8E6
:10022000F09FD2B201E000F8012B491EFBD27047CB
:100230000022F6E710B513460A4604461946FFF7B2
:10024000F0FF204610BD202A04DB203A00FA02F11C
:10025000002070479140C2F1200320FA03F31943B4
:1002600090407047202A04DB203A21FA02F0002156
:10027000704721FA02F3D040C2F1200291400843B6
:1002800019467047064C074D06E0E06840F0010350
:1002900094E8070098471034AC42F6D3FFF778FF94
:1002A0007C9E00089C9E0008FEE70000014800F0CC
:1002B00071B80000DC000020014800F06BB80000BD
:1002C0007C0000200168CAB2103A1823B2FBF3F296
:1002D000064B9B5CC3656FF30901032A02D9091D14
:1002E000816500E08165806D704700005C9E0008BC
:1002F00010B5014600208A6A8B694FF0C074002B4C
:100300000ED0B3F5005F1AD062B3012A2AD0022AB8
:1003100028D0032A03D1C96AC90100D5012010BD24
:100320001AB1012A06D0022AF9D1C96AC901F6D543
:10033000012010BDC96AA142FBD1012010BD52B1FC
:10034000012A0AD0022A06D0032AF7D1C96AA1429B
:10035000F4D1012010BD012010BDC96AC901FBD52F
:10036000012010BD012010BD704772B6FEE790F865
:100370003510022903D080214165012070470521F5
:1003800080F835100068016821F00101016000204B
:10039000704700002DE9F84304464FF00009CDF8FE
:1003A00000906F484FF416510068B0FBF1F7A56D4F
:1003B0002E6894F85C00082202FA00F1314210D055
:1003C0002068016849070CD5016821F0040101602B
:1003D00094F85C0002FA00F1A960606D40F0010041
:1003E000606594F85C104FF0010808FA01F03042A3
:1003F00008D021684969090604D5A860606D40F0FD
:100400000200606594F85C1004208840304208D0F7
:1004100021680968890704D5A860606D40F0040070
:10042000606594F85C1010208840304220D021682C
:10043000096809071CD5A8602068016849030CD524
:100440000068000304D4216C91B1204688470FE076
:10045000A16C69B1204688470AE00168C90503D448
:10046000016821F008010160216C09B1204688472C
:1004700094F85C102020884030424CD021680968F4
:10048000C90648D5A86094F8350005280BD0206827
:100490000168490330D50068000328D4616C51B36A
:1004A0002046884737E02068016821F01601016086
:1004B0002068416921F080014161206C08B9A06C7D
:1004C00020B12068016821F00801016094F85C10F7
:1004D0003F208840A86084F8349084F83580216DEE
:1004E00000293BD001B02046BDE8F0430847E16B4E
:1004F00009B1204688470EE00168C90507D40168A4
:1005000021F01001016084F8349084F83580E16BAB
:1005100009B120468847606D00281FD0606DC00774
:1005200014D0052084F835002068016821F001010D
:1005300001600098401C0090B84203D82068006811
:10054000C007F6D184F8349084F83580E16C002936
:1005500004D001B02046BDE8F0430847BDE8F88369
:10056000180000202DE9F041044600F059F9054635
:100570005CB1002684F83460022084F835002068DD
:10058000016821F0010101600DE00120BDE8F0816A
:1005900000F046F9401B052805D92020606503209E
:1005A00084F83500F2E720680068C007F0D12168C0
:1005B0000A6820480240D4E901031843D4E903350E
:1005C0002B43184363691843A3691843E36918432D
:1005D000236A18431043626A042A03D1D4E90B2327
:1005E0001A43104308602068406920F00700656ADC
:1005F00029460543012704290DD1A06A0543E06A75
:1006000048B12046FFF774FE28B14020606584F8A9
:1006100035700120BAE7206845612046FFF752FE99
:1006200094F85C203F2191408160666584F83570C4
:100630000020ABE73F8010F070B5044600F0F0F802
:100640000546601C02D004480078044400F0E8F835
:10065000401BA042FAD370BD0C0000202DE9F84FDA
:100660000022DFF880A14FF003084FF00F090AF1D4
:10067000040B012595400B682B40AB4272D14C68AE
:10068000012C05D0022C03D0112C01D0122C10D13A
:100690008668540008FA04F7BE43CF68A740374382
:1006A00087604468AC430D79C5F300159540254338
:1006B0004560C468570008FA07F5AC438E68BE4031
:1006C0002643C6604C68022C01D0122C12D1D408EB
:1006D00000EB840CDCF820605407E40E09FA04FEF9
:1006E00026EA0E06D1F810E00EFA04FE4EEA060ED7
:1006F000CCF820E00468AC430D7905F00305BD405B
:10070000254305604C68E40065D5374C256845F401
:1007100080452560246804F480440094334C22F022
:1007200003052544D5F808789407260F09FA06F43E
:10073000A7432F4CA04201D1002424E02D4CA0421D
:1007400001D101241FE02C4CA04201D102241AE067
:100750002A4CA04201D1032415E0294CA04202D129
:10076000042410E037E0274CA04201D105240AE020
:10077000254CA04201D1062405E0244CA04201D121
:10078000072400E00824B4403C43C5F80848DAF8E0
:1007900000409C434D68ED0300D51C43CAF800405F
:1007A000DBF800409C434D68AD0300D51C43CBF8FB
:1007B00000400C4D08352C689C434E68F60200D56D
:1007C0001C432C60074D0C352C689C434E68B602C8
:1007D00000D51C432C60521C102AFFF44AAFBDE820
:1007E000F88F0000003C01404438024000300140D6
:1007F000000002400004024000080240000C0240D9
:10080000001002400014024000180240001C024088
:10081000002A01D08161704709048161704700009E
:1008200001488068704700000C0000200248816881
:1008300002781144816070470C00002010B50B480D
:10084000016841F400710160016841F48061016058
:10085000016841F480710160032000F071F800200C
:1008600000F006F800F026F8002010BD003C024021
:1008700070B504460D4D4FF47A712878B1FBF0F055
:100880000B490968B1FBF0F000F0CAFC08B1012087
:1008900070BD102C07D200222146501E00F030F807
:1008A0006C60002070BD012070BD00000C000020B5
:1008B0001800002008B50A48016841F48041016031
:1008C000006800F4804000900548001F016841F076
:1008D00080510160006800F08050009008BD000069
:1008E00044380240002809DB00F01F02012191403A
:1008F0004009800000F1E020C0F8001170470000BE
:10090000F0B40D460D4B1B68C3F30223C3F107047B
:10091000042C00D90424191D072901D2002300E06A
:10092000DB1E012606FA04F1491E294099409E402B
:10093000761E16403143F0BC02F0E4B80CED00E046
:1009400000F00701054A10684FF6FF03184040EA1F
:100950000120034908431060704700000CED00E0DF
:100960000000FA052DE9F04704460D46002C13D08F
:10097000DFF82891D9F80000EFB200F00F00A8428C
:100980000CD289F80070D9F8000000F00F00A842DE
:1009900004D00120BDE8F0870120FBE72068404E2D
:1009A000810712D5400703D5306840F4E05030602D
:1009B0002078000703D5306840F46040306030682C
:1009C000A16820F0F000084330602078C00731D0E3
:1009D000334960680839012808D002280BD0032861
:1009E00009D0096889070BD40120D3E70968890376
:1009F00006D40120CEE70968890101D40120C9E7A6
:100A0000316821F0030101433160FFF709FF80469F
:100A100041F2883A07E0FFF703FFA0EB08005045DA
:100A200001D90320B6E73068616800F00C00B0EB34
:100A3000810FF0D1D9F8000000F00F00A84209D9C9
:100A400089F80070D9F8000000F00F00A84201D02A
:100A500001209FE72078400705D53068E16820F441
:100A6000E050084330602078000706D530682169DF
:100A700020F4604040EAC100306000F03FF8316887
:100A8000084AC1F30311515CC84007490860074890
:100A90000068FFF7EDFE00207CE70000003C02400C
:100AA00008380240649E0008180000201000002052
:100AB00001480068704700001800002000B5FFF7EB
:100AC000F7FF04490968044AC1F38221515CC84018
:100AD00000BD000008380240749E000800B5FFF712
:100AE000E7FF04490968044AC1F34231515CC84038
:100AF00000BD000008380240749E000810B5174879
:100B0000006810F00C01164816D0164B042912D0BC
:100B1000082911D1114C241F216801F03F022168DE
:100B200049020AD52068C0F38810A0FB0301002306
:100B3000FFF746FB09E0184610BD21680023C1F30A
:100B40008811A1FB0001FFF73BFB2168C1F30141C4
:100B5000491C4900B0FBF1F010BD0000083802400C
:100B60000024F40040787D012DE9F84F0446002C64
:100B700013D02078DFF8AC83C007A8F1040556D065
:100B800008F104000168C1F3810101290CD000685B
:100B9000C0F38100022803D00DE00120BDE8F88FEA
:100BA000D8F80000400206D5286880033FD5606869
:100BB00070BB0120F2E76068B0F5803F10D0B0F55F
:100BC000A02F12D0286820F480302860286820F4F4
:100BD000802028606068E0B1FFF722FE064614E03E
:100BE000286840F480302860F4E7286840F48020CA
:100BF0002860286840F480302860EBE7FFF710FE9B
:100C0000801B642801D90320C8E728688003F5D534
:100C10000DE0FFF705FE064606E0FFF701FE801B2C
:100C2000642801D90320B9E728688003F5D4207827
:100C3000BD4F80074FF0000948D5BA48001D016834
:100C400011F00C0F08D00068C0F38100022813D106
:100C5000D8F8000040020FD42868800704D5E06867
:100C6000012801D0012099E72868216920F0F800C7
:100C700040EAC100286029E0E068B8B1012038608E
:100C8000FFF7CEFD064606E0FFF7CAFD801B0228EF
:100C900001D9032082E728688007F5D528682169F3
:100CA00020F0F80040EAC10028600FE0C7F800908B
:100CB000FFF7B6FD064606E0FFF7B2FD801B0228EF
:100CC00001D903206AE728688007F5D42078000757
:100CD00029D5DFF850A2954861690AF1700A89B1F7
:100CE00001210160FFF79CFD064606E0FFF798FD35
:100CF000801B022801D9032050E7DAF800008007A2
:100D0000F4D510E0C0F80090FFF78AFD064606E033
:100D1000FFF786FD801B022801D903203EE7DAF8A1
:100D200000008007F4D4207840076ED500267D4867
:100D30003C300068C0000AD47A483C30016841F079
:100D400080510160006800F0805000900126DFF8BB
:100D5000E0B1DBF80000C00515D4DBF8000040F47A
:100D60008070CBF80000FFF75BFD824607E0FFF7DD
:100D700057FDA0EB0A00022801D903200EE7DBF89B
:100D80000000C005F3D5DFF89CB1A0680BF16C0B37
:100D9000012813D0052818D0DBF8000020F001004E
:100DA000CBF80000DBF8000020F00400CBF80000D6
:100DB000A06830B3FFF734FD82461DE0DBF8000089
:100DC00040F00100CBF80000F2E7DBF8000040F053
:100DD0000400CBF80000DBF8000040F00100CBF885
:100DE0000000E5E7FFF71CFDA0EB0A0141F28830A7
:100DF000814201D90320D1E6DBF800008007F1D55C
:100E000012E0FFF70DFD82460AE015E0FFF708FD4E
:100E1000A0EB0A0141F28830814201D90320BDE6EE
:100E2000DBF800008007F1D4012E05D13D483C30AD
:100E3000016821F080510160A069B8B33949091DEA
:100E40000968C1F38101022947D0022805D0C7F8FB
:100E50006090FFF7E5FC04463BE0C7F86090FFF7C1
:100E6000DFFC064606E0FFF7DBFC801B022801D909
:100E7000032093E628688001F5D4D4E907010843EC
:100E8000616AA26A4FF0FF33890103EB520241EA23
:100E90000241084394F82C1040EA0160C8F80000B1
:100EA00001203866FFF7BCFC044607E037E0FFF797
:100EB000B7FC001B022801D903206FE628688001D7
:100EC000F5D52CE0FFF7ACFC001B022801D903206C
:100ED00064E628688001F5D421E001281DD0D8F807
:100EE0000000E26900F48001914214D1226A00F00E
:100EF0003F0191420FD147F6C071626A01409142B1
:100F000009D1A26A00F44031914204D1E16A00F0B3
:100F10007060884203D0012040E601203EE60020B8
:100F20003CE600000438024000004742800E474281
:100F30000070004070B50446002C05D00025A56265
:100F400094F8510010B106E0012070BD84F85050B3
:100F5000204600F031F8022084F851002068016832
:100F600021F040010160D4E901010843D4E90312F2
:100F70001143084361690843218B01F40071084360
:100F8000E1690843216A0843A16A084321680860AF
:100F9000A069042101EA1040616A084321684860A1
:100FA0002068C16921F40061C1616565012084F890
:100FB0005100002070BD00002DE9F04786B00546C5
:100FC000142101A8FFF734F930492868884259D123
:100FD00000262F48016841F480510160006800F448
:100FE000805000902A481438016841F002010160E5
:100FF000006800F00200009038200190022002906A
:101000000396032004900520059001A92148FFF7CD
:1010100025FB224C204820604FF0C06767604020CD
:10102000A060E6604FF48068C4F810804FF4006957
:10103000C4F814904FF4005AC4F818A0E661266270
:1010400066622046FFF78EFA08B1FFF78EF9AC64AE
:10105000A5631148114C4838603420606760A66071
:10106000E660C4F81080C4F81490C4F818A0E661D3
:10107000266266622046FFF775FA08B1FFF775F938
:10108000EC64A56306B0BDE8F087000000300140C5
:101090004438024000040240586402407C000020B2
:1010A0002DE9F84F04468B4692461D46002694F8DB
:1010B000500001280DD04FF0010984F85090FFF73F
:1010C000AFFB074694F85100B046012804D0022631
:1010D000A0E00220BDE8F88FBBF1000F1CD05FEA52
:1010E0000A0019D0032084F85100C4F85480C4F8D1
:1010F00030B0A4F834A0A4F836A0C4F83880A4F81E
:101100003C80A4F83E80C4F84480C4F84080A068C5
:10111000B0F5004F02D006E001267BE020680168B0
:1011200041F48041016020680168490603D40168E8
:1011300041F040010160E068B0F5006F05D06068E3
:1011400078B3BAF1010F2DD04DE0606810B1BAF15B
:10115000010F20D1206B21680088C860206B801CA3
:101160002063E08E401EE08615E0206881688907D4
:1011700009D5216B0988C160206B801C2063E08E3B
:10118000401EE08607E0FFF74BFBC01BA84201D3DF
:10119000681C04D11DB1E08E0028E6D126E00326AC
:1011A00038E0FFE7206B216800780873206B401C53
:1011B0002063E08E401EE08615E020688168890784
:1011C00009D5216B09780173206B401C2063E08EE8
:1011D000401EE08607E0FFF723FBC01BA84201D3B7
:1011E000681C0ED16DB1E08E0028E6D13A46294642
:1011F000204601F061F908B120206065A06810B1B7
:1012000005E0032606E02068C16880680090606DF4
:1012100000B1012684F8519084F85080304659E797
:1012200010B5401EB0F1807F01D3012010BD4FF0FA
:10123000E02460610F21601701F064FC0020A061D0
:1012400007202061002010BD7047704770B590F8EE
:101250003C20012A31D0012680F83C60022280F82F
:101260003D2002685468936824F070050C682C4394
:101270005460134C0268A24214D0B2F1804F11D0D6
:10128000104CA2420ED0104CA2420BD00F4CA242E6
:1012900008D00F4CA24205D00E4CA24202D00E4CF8
:1012A000A24204D123F080034968194391603C3085
:1012B000467000210170002070BD022070BD00004A
:1012C000000001400004004000080040000C004005
:1012D00000040140004001400018004010B50446E1
:1012E000002C03D094F83D0010B107E0012010BDA0
:1012F000002084F83C00204600F00CF8022084F81E
:101300003D00211D206801F0B5F9012084F83D0061
:10131000002010BD08B500680B49884212D10B4867
:10132000016841F002010160006800F002000090D5
:10133000002211461D20FFF7E3FABDE808401D20FA
:10134000FFF7D0BA08BD000000040040403802405A
:101350000168CA6842F00102CA600068816801F051
:101360000701062903D0016841F001010160002056
:10137000704770B5044694F83C00012817D0012549
:1013800084F83C50022084F83D002068826822F0F6
:10139000770222F47F4282600868502831D00DDC49
:1013A00020284DD005DCB0B310284ED148E00220F3
:1013B00070BD302844D0402847D137E060282BD07A
:1013C000702806D0B0F5805F3FD0B0F5005F3CD10B
:1013D0000BE0CB68D1E90121206801F0B1F9206868
:1013E000816841F0770181602FE0CB68D1E901216C
:1013F000206801F0A5F92068816841F4804181608E
:1014000023E0CA684968206801F0ACF950212068DF
:1014100001F0A0F919E013E0CA684968206801F0FA
:10142000B2F96021206801F095F90EE0CA684968B8
:10143000206801F097F94021206801F08BF904E061
:1014400022680146104601F085F93C3465700020A1
:10145000207070BD704770B50446206801694FF078
:101460000005C943890716D4C168C943890712D446
:10147000E91E01610120207720688069800703D080
:101480002046FFF7E7FF05E0204600F09BF82046E6
:1014900000F099F8257720680169C943490718D4F5
:1014A000C168C943490714D46FF0040101610220E7
:1014B00020772068806910F4407F03D02046FFF732
:1014C000C9FF05E0204600F07DF8204600F07BF8DB
:1014D000257720680169C943090717D4C168C94342
:1014E000090713D46FF008010161042020772068F8
:1014F000C069800703D02046FFF7ACFF05E0204617
:1015000000F060F8204600F05EF825772068016959
:10151000C943C90618D4C168C943C90614D46FF0B9
:1015200010010161082020772068C06910F4407F15
:1015300003D02046FFF78EFF05E0204600F042F87A
:10154000204600F040F8257720680169C943C907A3
:1015500008D1C168C943C90704D1891E0161204669
:1015600000F032F820680169C943090609D4C1684E
:10157000C943090605D46FF0800101612046FFF7D9
:1015800063FE20680169C943490609D4C168C9439B
:10159000490605D46FF040010161204600F01EF8B5
:1015A00020680169C94389060BD4C168C94389060B
:1015B00007D46FF0200101612046BDE87040FFF7BD
:1015C00044BE70BD7047704700680349884202D12D
:1015D000012001F03BBE7047000400407047704797
:1015E00070B5044622681068D168526900F00F0394
:1015F000002B08D1850606D58D0604D52046BDE80A
:10160000704001F0F5B8002B60D002F0010301F446
:1016100090751D435AD0C50705D0CD0503D5E56BA0
:1016200045F00105E563450705D5D50703D0E56B12
:1016300045F00205E563850705D5D20703D0E26BC7
:1016400042F00402E263020707D501F020021A43C8
:1016500003D0E26B42F00802E263E26B002A2AD078
:10166000800604D5880602D5204601F0C1F820681E
:101670004069C0F38010E16B090700D400B3204635
:1016800001F09BF820684169490615D5416921F0B0
:1016900040014161606B58B115490165606BFEF70F
:1016A00066FE002807D0606B016DBDE870400847FA
:1016B0002046FFF794FF70BD2046FFF790FF70BDF6
:1016C0002046FFF78CFF0020E06370BD020606D5C0
:1016D0000A0604D52046BDE8704001F0C7B94006AF
:1016E000F3D54806F1D52046BDE8704001F073B847
:1016F000AB27000870B50446002C04D094F83900DC
:10170000002510B106E0012070BD84F83850204655
:1017100000F022F8242084F839002068C16821F400
:101720000051C160204601F0B1F82068016921F440
:10173000904101612068416921F02A0141612068DE
:10174000C16841F40051C160E563202084F839008C
:1017500084F83A00002070BD10B586B0044614210C
:1017600001A8FEF765FD18492068884229D10021AB
:101770001648026842F010020260006800F0100093
:10178000009012481438026842F0010202600068BA
:1017900000F0010000904FF4C06001900220029020
:1017A0000391032004900720059001A90848FEF743
:1017B00055FF002211462520FFF7A2F82520FFF74C
:1017C00091F806B010BD00000010014044380240FE
:1017D0000000024070477047FEE7000070B500F05F
:1017E0003BF80024164DFF2811D00A20FEF724FFF5
:1017F00000F032F8FF2812D000F046F8044601202D
:10180000E8706C70A878844212D1F12070BDE8783D
:10181000012802D16C70AC70EC70F02070BDE878DB
:10182000012803D1F2206870A870EC70F02070BD20
:10183000AC70214603A001F055F9204670BD0000B0
:10184000020000200D0A6B6579636F64652069737F
:101850003A2530780D0A000070B500F047F80848C6
:10186000006800F00F0500F089F800F01FF8054847
:101870000068000745EA106400F060F8204670BD7B
:10188000101402401018024030B502460021E0203A
:10189000054B03F110045D5C954200D1605C491C6E
:1018A000C9B21029F7D330BD3C9E000800B587B0FF
:1018B000142102A8FEF7BCFC00210A48026842F08D
:1018C00040020260006800F0400001900F2002908A
:1018D00003910120049002A90348FEF7BFFE07B060
:1018E00000BD0000303802400018024010B586B03C
:1018F000142101A8FEF79CFC00210E48026842F06A
:1019000004020260006800F0040000900F200190C3
:1019100001200290039102200490074C01A9204667
:10192000FEF79CFE00220F212046FEF771FF06B055
:1019300010BD0000303802400018024000B587B0EA
:10194000142102A8FEF774FC00210A48026842F044
:1019500020020260006800F0200001900F20029039
:1019600003910120049002A90348FEF777FE07B017
:1019700000BD0000303802400014024010B586B0AF
:10198000142101A8FEF754FC00210E48026842F021
:1019900020020260006800F0200000900F200190FB
:1019A00001200290039102200490074C01A92046D7
:1019B000FEF754FE00220F212046FEF729FF06B055
:1019C00010BD000030380240001402402DE9F04103
:1019D00004460D4616461F462A2000F001FC200A48
:1019E00000F000FCE0B200F0FDFB300A00F0FAFB72
:1019F000F0B200F0F7FB2B2000F0F2FB280A00F019
:101A0000F1FBE8B200F0EEFB380A00F0EBFBF8B2B5
:101A100000F0E8FBBDE8F0412C2000F0E1BB10B580
:101A200014460B460246FFF7D1FF2046BDE81040A2
:101A300000F0CABB70B50122114D140221462846A0
:101A4000FEF7E6FE4FF47A7001F0ADFA002221466F
:101A50002846FEF7DDFE42F21076304601F0A3FA8A
:101A6000012221462846FEF7D3FE304601F09BFABC
:101A70002846BDE8704001228021FEF7C9BE000063
:101A8000001802402DE9F05F1646DDE90AA59946E7
:101A90000024F022A2EB5502824245D3C5F1F002A8
:101AA0008A4241DB4A19521E93B200EB5502521E84
:101AB00092B2FFF78BFF203E06F0FF08102D08D0F2
:101AC000202D06D00C2D31D0182D2DD14FF0300BFC
:101AD00064E0680701D0012000E0002000EBD500A1
:101AE0006908484300F0FF0B1CE0102D0CD0202D9E
:101AF0001AD12C4800EBC810065D0027300608D527
:101B0000504600F061FB07E0274800EB0810065D37
:101B1000F3E7484600F058FB7006060E7F1C082FBE
:101B2000ECDB641C5C45E0DBBDE8F09F0C271F4844
:101B300008EB480100EB810811E018F8046000256B
:101B4000300603D5504600F03FFB02E0484600F067
:101B50003BFB7006060E6D1C062DF1DB641CBC42BF
:101B6000EBDBE1E7124908EB480001EB0010065DF2
:101B7000E00702D0042700250DE00827FBE7300628
:101B800003D5504600F020FB02E0484600F01CFB65
:101B90007006060E6D1CBD42F1DB641C5C45E1DB8A
:101BA000C2E700002C4F00083C370008C83200088C
:101BB0005C3D00082DE9FC470446DDE90AA889469A
:101BC0001D460C9E01F07EFB1019C7B277430CE056
:101BD000A7420FD9CDE90086534649462046FFF774
:101BE00051FF04EB560084B26D1C2A78A2F120004C
:101BF0005E28EDD9BDE8FC4701F065BB2DE9FE4F3D
:101C00008046DDE90D46894617469A460C9D01F04F
:101C100059FB17E00C2C1CD0102C24D0182C2CD0E5
:101C2000202C34D0302C3CD1CDE9014653463A46E5
:101C300049464046009500F043FABF1C08EB0400FB
:101C40001FFA80F838780028E4D1BDE8FE4F01F093
:101C50003ABBCDE9014653463A46494640460095CF
:101C600000F022F8E9E7CDE9014653463A464946F5
:101C70004046009500F09CF8DFE7CDE90146534669
:101C80003A4649464046009500F014F9D5E7CDE9BB
:101C9000014653463A4649464046009500F08EF9C3
:101CA000CBE7BDE8FE8F00002DE9FF4F85B005466C
:101CB000139F8B4600260195780701D0012000E094
:101CC000002000EBD70078430290052003904FF0EE
:101CD000000A62E00AEB8A003449079A00EBCA0066
:101CE00011F810301278934253D101EB4000049068
:101CF00041780798407881424BD10BEB0700401E9A
:101D000083B2E819401E82B259462846FFF75EFEAC
:101D10004FF000083AE00024049800EB08091498FA
:101D2000B0B199F802100120A040014204D05946F8
:101D30002846089AFFF773FE6D1CADB20198281A69
:101D4000B8421BD1019D0BF1010B1FFA8BFB19E06F
:101D500099F802100120A040014204D00898C0B2B6
:101D600000F040FA03E01298C0B200F03BFA761C93
:101D7000F6B2B6FBF7F007FB1060A0B1641CE4B24A
:101D8000082CCCD308F1010808F0FF080298804520
:101D9000C1D30AF1010A1FFA8AFA0398824599D33E
:101DA00009B0BDE8F08F0026ECE70000AC7E00082B
:101DB0002DE9FF4F85B00546139F8B460026019500
:101DC000780701D0012000E0002000EBD700784325
:101DD0000290052003904FF0000A60E0344A079912
:101DE0000AEB0A1012F8103009788B4253D102EB3B
:101DF0004000049041780798407881424BD10BEB2A
:101E00000700401E83B2E819401E82B25946284698
:101E1000FFF7DCFD4FF000083AE00024049800EBE7
:101E200008091498B0B199F802100120A0400142AD
:101E300004D059462846089AFFF7F1FD6D1CADB253
:101E40000198281AB8421BD1019D0BF1010B1FFA12
:101E50008BFB19E099F802100120A040014204D048
:101E60000898C0B200F0BEF903E01298C0B200F0CA
:101E7000B9F9761CF6B2B6FBF7F007FB1060A0B11B
:101E8000641CE4B2082CCCD308F1010808F0FF0868
:101E900002988045C1D30AF1010A1FFA8AFA039811
:101EA00082459BD309B0BDE8F08F0026ECE7000027
:101EB0002E7F00082DE9FF4F85B00546139F8B4606
:101EC00000260195780701D0012000E0002000EBFA
:101ED000D700784302902D2003904FF0000A62E073
:101EE0000AEB8A003449079A00EB4A1011F81030C7
:101EF0001278934253D101EB400004904178079847
:101F0000407881424BD10BEB0700401E83B2E819A9
:101F1000401E82B259462846FFF758FD4FF0000890
:101F20003AE00024049800EB08091498B0B199F83D
:101F300002100120A040014204D059462846089AC8
:101F4000FFF76DFD6D1CADB20198281AB8421BD188
:101F5000019D0BF1010B1FFA8BFB19E099F80210A0
:101F60000120A040014204D00898C0B200F03AF924
:101F700003E01298C0B200F035F9761CF6B2B6FB59
:101F8000F7F007FB1060A0B1641CE4B2082CCCD3BE
:101F900008F1010808F0FF0802988045C1D30AF152
:101FA000010A1FFA8AFA0398824599D309B0BDE85D
:101FB000F08F0026ECE70000D87F00082DE9FF4FE6
:101FC00085B00546139F8B4600260195780701D002
:101FD000012000E0002000EBD700784302900320AE
:101FE00003904FF0000A60E0344A07990AEB8A1028
:101FF00012F8103009788B4253D102EB4000049064
:1020000041780798407881424BD10BEB0700401E86
:1020100083B2E819401E82B259462846FFF7D6FC23
:102020004FF000083AE00024049800EB08091498E7
:10203000B0B199F802100120A040014204D05946E5
:102040002846089AFFF7EBFC6D1CADB20198281AE0
:10205000B8421BD1019D0BF1010B1FFA8BFB19E05C
:1020600099F802100120A040014204D00898C0B2A3
:1020700000F0B8F803E01298C0B200F0B3F8761C94
:10208000F6B2B6FBF7F007FB1060A0B1641CE4B237
:10209000082CCCD308F1010808F0FF08029880450D
:1020A000C1D30AF1010A1FFA8AFA039882459BD329
:1020B00009B0BDE8F08F0026ECE70000DA8C0008DC
:1020C0002DE9FF4F85B00546139F8B4600260195ED
:1020D000780701D0012000E0002000EBD700784312
:1020E00002900E2003904FF0000A62E00AEB0A1003
:1020F0003449079A00EBCA1011F810301278934255
:1021000053D101EB40000490417807984078814218
:102110004BD10BEB0700401E83B2E819401E82B280
:1021200059462846FFF752FC4FF000083AE00024D9
:10213000049800EB08091498B0B199F80210012036
:10214000A040014204D059462846089AFFF767FC90
:102150006D1CADB20198281AB8421BD1019D0BF13C
:10216000010B1FFA8BFB19E099F802100120A04027
:10217000014204D00898C0B200F034F803E012988D
:10218000C0B200F02FF8761CB6B2B6FBF7F007FB32
:102190001060A0B1641CA4B2082CCCD308F10108D3
:1021A0001FFA88F802988045C1D30AF1010A1FFA84
:1021B0008AFA0398824599D309B0BDE8F08F0026CA
:1021C000ECE70000608E000838B50446002000905F
:1021D000200A00F023F8E0B2BDE8384000F01EB855
:1021E00000F002B800F01AB870B505460A4C00229B
:1021F00040212046FEF70CFB002280212046FEF7FE
:1022000007FB284600F0DEFE2046BDE870400122B4
:102210008021FEF7FDBA00000018024070B50546A7
:102220000A4C012240212046FEF7F2FA00228021CA
:102230002046FEF7EDFA284600F0C4FE2046BDE831
:10224000704001228021FEF7E3BA0000001802402E
:1022500008B50D48016841F480010160006800F490
:1022600080000090002211463820FEF749FB3820FC
:10227000FEF738FB002211463B20FEF741FBBDE88C
:1022800008403B20FEF72EBB303802402DE9F043DA
:1022900087B0142102A8FDF7CBFF0025454801684F
:1022A00041F010010160016801F010010191016825
:1022B00041F004010160016801F00401019101682D
:1022C00041F020010160016801F0200101910168E5
:1022D00041F080010160016801F080010191016815
:1022E00041F001010160016801F001010191016803
:1022F00041F040010160016801F040010191016875
:1023000041F002010160006800F002000190DFF876
:10231000A890002240F20F614846FEF779FA274F55
:1023200001224FF4E0713846FEF772FA1C20029049
:1023300003950124049402A92148FEF78FF94FF078
:102340000F08CDF80880039404950226059602A98B
:102350004846FEF783F94FF4C06002900394049559
:10236000059502A94846FEF779F90294039504966B
:1023700002A91448FEF772F9CDF808800395049479
:1023800002A93846FEF76AF94020029003940496A9
:102390000325059502A93846FEF760F9E801029089
:1023A00003940494059502A93846FEF757F907B03F
:1023B000BDE8F083303802400014024000180240AB
:1023C000001002400000024010B510480E490160A4
:1023D0004FF48271416000218160C16001614161FF
:1023E0004FF4007282610822C2610162416281621F
:1023F0000A21C162FEF79EFD002803D0BDE810400F
:10240000FDF7B3BF10BD00000030014024000020E4
:1024100010B586B0002402940394049405940094AB
:10242000019414481249016042F2CF014160846076
:102430006321C16004618461FEF750FF08B1FDF7BC
:1024400094FF4FF48050029002A90A48FEF791FFD2
:1024500008B1FDF78AFF0094019469460548FEF72C
:10246000F5FE002801D0FDF780FF06B010BD00008A
:10247000000400403C01002010B50C480A490160EE
:102480004FF4E131416000218160C16001610C22A3
:1024900042618161C161FFF72DF9002803D0BDE8D9
:1024A0001040FDF762BF10BD001001407C0100200C
:1024B000FEE7FEE7704700007CB504461348144D64
:1024C0000068B0FBF5F04FF47A75684301906068DE
:1024D000B0F5827F0DD10B4600920022802120466C
:1024E00000F018F878B1606D40F0200060650320BE
:1024F0007CBD019838B10198401E01902068806829
:10250000C0430006F5D500207CBD00001800002067
:1025100000366E012DE9F04104460E4617461D4671
:10252000DDF8188008E0681C06D0FEF779F9A0EB0A
:102530000800A8420BD255B12068806836EA000036
:102540002FD00020B842EED10020BDE8F0812068F5
:10255000416821F0E00141606068B0F5827F0BD1F5
:10256000A068B0F5004F02D0B0F5806F04D12068AC
:10257000016821F040010160A06AB0F5005F09D157
:102580002068016821F4005101602068016841F46D
:102590000051016001205034607000202070032041
:1025A000D3E70120CEE77047FEF740B930B593B0CE
:1025B000302107A8FDF73CFE142102A8FDF738FEE4
:1025C00000251D48016841F080510160006800F05D
:1025D000805001901948016841F480410160006811
:1025E00000F4804001900224079401200A901020FA
:1025F0000B900D940E9508200F90A8201090119428
:102600000420129007A8FEF7AFFA08B1FDF7ADFE5F
:102610000F200290039404954FF4A05005904FF4BE
:1026200080500690052102A8FEF79CF9002801D0F1
:10263000FDF79BFE13B030BD4038024000700040F3
:102640000548016841F47001016003494FF00060E2
:10265000803908607047000088ED00E00148FEF70F
:10266000FABE00003C0100200148FEF771BE0000E8
:102670003C0100202DE9F0410268264D264E274FEF
:10268000DFF89CC0274B4FF08048A84209D0404556
:1026900007D0B04205D0B84203D0604501D098427F
:1026A00003D122F070044A682243A8421BD040455F
:1026B00019D0B04217D0B84215D0604513D0984217
:1026C00011D0194CA0420ED0184CA0420BD0184C7F
:1026D000A04208D0174CA04205D0174CA04202D00F
:1026E000164CA04203D122F44074CA6822434C69BC
:1026F00022F08002224302608A68C2620A68826213
:10270000A84201D0984201D10969016301214161C8
:10271000BDE8F081000001400004004000080040D6
:10272000000C004000040140004001400044014012
:102730000048014000180040001C004000200040FC
:1027400010B5846824F47F4442EA03220A432243FA
:10275000826010BD826822F070020A4342F00701D5
:102760008160704710B5036A046A24F001040462B2
:10277000846924F0F00444EA021423F00A020A43B4
:102780008461026210BD10B5036A23F01003036276
:102790008469036A24F4704444EA023223F0A003FB
:1027A00043EA01118261016210BD10B5806B002106
:1027B000C185C184FEF713FF10BD0168CA6822F409
:1027C0009072CA6001684A6922F001024A612021C0
:1027D00080F83A10704710B50168CA6822F04002CC
:1027E000CA60202180F83910FEF7F5FF002010BDE7
:1027F00010B590F83A10222901D0022010BD81684E
:10280000B1F5805F11D0016919B30168496801F021
:102810007F03816A4A1C82620B70C18D491E0904C4
:10282000090CC1851CD0002010BD816A02693AB133
:1028300002685268D2B20A80816A491C8162ECE760
:1028400002685268C2F308020A80816A891C8162A8
:10285000E3E701684A68816A4B1C83620A70DCE71F
:102860000168CA6822F02002CA600168CA6822F4BE
:102870008072CA6001684A6922F001024A6120211F
:1028800080F83A10FEF7A6FF002010BD2DE9F041B8
:10289000044620680169E26821F440511143016156
:1028A000A1682069E269014360691043014320681F
:1028B000C26849F20C639A430A43C26020684169C6
:1028C000A26921F4407111434161E0696549664A9A
:1028D0001927642532264FF00008B0F5004F32D09A
:1028E0002068904201D088427ED1FEF7F7F8014679
:1028F0006068830F8200A1FB0701FDF761FC0146C0
:10290000B0FBF5F06FF01802504301EB800006EBCE
:102910000010B0FBF5F000F0F002B1FBF5F002EBB7
:102920000012B1FBF5F06FF01803584301EB800083
:1029300006EB0010B0FBF5F0216800F00F0010442A
:102940008860BDE8F0812068904201D088422CD197
:10295000FEF7C4F8014660680218A1FB070148EBC6
:102960000803FDF72DFC0146B0FBF5F00201B1FBB9
:10297000F5F06FF01803584301EB800006EBC00040
:10298000B0FBF5F000F0F80002EB4002B1FBF5F00F
:10299000584301EB800006EBC000B0FBF5F0216866
:1029A00000F0070010448860CBE7FEF787F8014687
:1029B00060680218A1FB070148EB0803FDF700FC63
:1029C0000146B0FBF5F00201B1FBF5F06FF0180322
:1029D000584301EB800006EBC000B0FBF5F000F0BF
:1029E000F80002EB400200E00EE0B1FBF5F05843C6
:1029F00001EB800006EBC000B0FBF5F0216800F0B1
:102A00000700104488609CE7FEF758F801466068AC
:102A1000830F8200A1FB0701FDF7D2FB0146B0FB4B
:102A2000F5F06FF01802504301EB800006EB001048
:102A3000B0FBF5F000F0F002B1FBF5F002EB001294
:102A4000B1FBF5F06FF01803584301EB800006EB83
:102A50000010B0FBF5F0216800F00F001044886012
:102A60006FE70000001401400010014090F8391099
:102A7000212901D0022070478168B1F5805F0CD018
:102A8000016A4A1C0262026809785160C18C491EC1
:102A90000904090CC18410D019E0016A0268098890
:102AA000C1F308015160016919B1016A491C016251
:102AB000ECE7016A891C0162E8E70168CA6822F054
:102AC0008002CA600068C16841F04001C160002016
:102AD000704700000148FEF783BD00007C01002024
:102AE000FEE700000FB4054B10B503A9044A029895
:102AF00000F028F810BC5DF814FB0000B12F0008AE
:102B0000080000200907090E002804DB00F1E0207E
:102B100080F80014704700F00F0000F1E02080F80A
:102B2000141D704702E008C8121F08C1002AFAD11C
:102B300070477047002001E001C1121F002AFBD13D
:102B4000704700002DE9FF4F8DB00F460546002667
:102B500006E025280BD0DDE90F1290476D1C761C8E
:102B600028780028F5D111B03046BDE8F08F002458
:102B7000A246A1460122EC4900E0044315F8013FBA
:102B8000203B02FA03F00842F7D128782A2810D017
:102B90006FF02F022878A0F13001092914D80AEB30
:102BA0008A0102EB410144F0020400EB010A6D1CB2
:102BB000F0E701CF5FEA000A03D544F40054CAF1FC
:102BC000000A44F002046D1C28782E2817D115F84D
:102BD000010F44F004042A280ED06FF02F02287849
:102BE000A0F1300109290AD809EB890102EB410162
:102BF00000EB01096D1CF2E757F8049B6D1C287867
:102C00006C280FD006DC4C2817D068280DD06A2815
:102C100014D104E0742810D07A280FD10DE044F4C8
:102C200000140AE044F4801401E044F4401469788C
:102C3000814202D104F580146D1C6D1C2A786E2A25
:102C40001FD00CDC632A31D004DC002A8BD0582A38
:102C500011D1A3E0642A68D0692A0CD165E0732AF7
:102C60002ED004DC6F2A73D0702A04D19BE0752A21
:102C70006FD0782A6ED01046DDE90F129047761C8F
:102C800050E1C4F30250022806D0032809D00428DA
:102C900001CF09D0066045E101CFF117C0E900611D
:102CA00040E101CF06803DE106703BE117F8040BDF
:102CB0008DF8000000208DF80100EB46012003E0B4
:102CC00057F804BB4FF0FF3061074FF0000102D40A
:102CD0000DE008F10101884649450FDA8045F8DB2F
:102CE0001BF808100029F4D108E008F1010188461A
:102CF0008142FADB1BF808100029F6D1DDE90F2329
:102D0000AAEB08008146214600F036F9304400EB7A
:102D1000080604E0DDE90F121BF8010B9047B8F13B
:102D20000108F7D221464846F7E00A21C4F30253CE
:102D30004FF0000B0891022B04D001CFC117032BD9
:102D400009D00AE0FF1D27F00707F7E8020108E0B5
:102D500032E01FE020E000B2C117042B01D140B2E5
:102D6000C117031E71F1000307DA4FF0000CD0EB1E
:102D70000C006CEB01012D2302E0230504D52B236D
:102D80008DF82430012303E0E30701D02023F7E787
:102D9000984658E00A2110E010210EE010204FF074
:102DA000000B08900CE010214FF0000B44F00404DD
:102DB0004FF00809089103E008214FF0000B08913B
:102DC000C4F30253022B04D001CF0021032B06D001
:102DD00006E0FF1D27F00707F7E8020103E080B2D5
:102DE000042B00D1C0B24FF0000823072BD5702A66
:102DF00007D0DDF820C08CF0100C5CEA0B0C05D07D
:102E00000EE040238DF82430012308E050EA01034E
:102E100006D030238DF824308DF8252002239846E3
:102E2000DDF820C08CF0080C5CEA0B0C0BD150EAEA
:102E3000010301D1630706D530238DF824304FF00C
:102E40000108A9F10109582A04D038A20B9208AA56
:102E50000A920BE03AA2F9E75B46089AFDF7B0F94F
:102E60000B9B9B5C0A9A521E0A92137050EA010255
:102E7000F2D10A98ADEB000000F1200B600702D5FB
:102E800024F4803401E04FF00109D94502DDA9EBBB
:102E90000B0000E0002000EB0B0141440890AAEB7E
:102EA000010AE00306D4DDE90F232146504600F075
:102EB00063F806444FF0000908E009A911F8090079
:102EC000DDE90F12904709F10109761CC145F4DBD9
:102ED000E0030CD5DDE90F232146504600F04CF805
:102EE000064404E0DDE90F1230209047761C089973
:102EF000481E08900029F5DC08E00A980A99007835
:102F0000491C0A91DDE90F129047761CBBF10001C4
:102F1000ABF1010BF1DC21465046DDE90F2300F057
:102F200019F806446D1C1BE60928010030313233C4
:102F300034353637383961626364656600000000F5
:102F400030313233343536373839414243444546DF
:102F5000000000002DE9F041044600251E461746FA
:102F6000880404D405E039462020B0476D1C641E57
:102F7000F9D52846BDE8F0812DE9F0410446002549
:102F80001E469046C80301D5302700E0202788045C
:102F900004D505E041463846B0476D1C641EF9D59E
:102FA0002846BDE8F08100E0001F0028FCD17047F2
:102FB00003490A685206FCD5C2B24A607047000055
:102FC0000010014001B56423012269460148FEF763
:102FD00067F808BD240000202DE9F04106462A20AC
:102FE000FFF702F90020FFF719F90020FFF716F9A3
:102FF0000020FFF713F9F020FFF710F92B20FFF75F
:10300000F3F80020FFF70AF90020FFF707F9012085
:10301000FFF704F94020FFF701F92C20FFF7E4F84F
:1030200000254FF4A0774FEA162800244046FFF70A
:10303000F5F8F0B2FFF7F2F8641CA4B2BC42F5D385
:103040006D1CADB2F02DF0D3BDE8F041AFF30080C0
:1030500010B51120FFF7C8F81320FFF7C5F8BDE839
:1030600010402920FFF7C0B83EB5012280217048EA
:10307000FDF7CEFBFEF7DEFC0120FFF7B5F842F2CC
:1030800010742046FFF78FFF1120FFF7ADF82046A0
:10309000FFF789FF3620FFF7A7F8C020FFF7BEF83B
:1030A0003A20FFF7A1F80520FFF7B8F8B220FFF7A4
:1030B0009BF80C20FFF7B2F80C20FFF7AFF80020C8
:1030C000FFF7ACF83320FFF7A9F83320FFF7A6F895
:1030D000B720FFF789F87220FFF7A0F8BB20FFF7B1
:1030E00083F83D20FFF79AF8C020FFF77DF82C20E9
:1030F000FFF794F8C220FFF777F80120FFF78EF86A
:10310000FF20FFF78BF8C320FFF76EF81920FFF7B9
:1031100085F8C420FFF768F82020FFF77FF8C62065
:10312000FFF762F80F20FFF779F8D020FFF75CF87F
:10313000A420FFF773F8A120FFF770F8E020FFF755
:1031400053F8D020FFF76AF80420FFF767F80D2046
:10315000FFF764F81120FFF761F81320FFF75EF81E
:103160002B20FFF75BF83F20FFF758F85420FFF7BC
:1031700055F84C20FFF752F81820FFF74FF80D20B4
:10318000FFF74CF80B20FFF749F81F20FFF746F830
:103190002320FFF743F8E120FFF726F8D020FFF7C0
:1031A0003DF80420FFF73AF80C20FFF737F811201C
:1031B000FFF734F81320FFF731F82C20FFF72EF833
:1031C0003F20FFF72BF84420FFF728F85120FFF7A6
:1031D00025F82F20FFF722F81F20FFF71FF81F20E8
:1031E000FFF71CF82020FFF719F82320FFF716F847
:1031F0004FF6FF742046FFF7EFFE3022CDE9004284
:103200000121029100230BA2B4214120FEF7F6FC1C
:103210000022CDE9004220211422029107A3114689
:103220001046FEF7C7FCBDE83E406420FDF704BA37
:1032300000180240B2E2CAD400000000456D626589
:103240006465645F50617274790000000349002274
:103250000A704A6810444860704700001C00002053
:1032600090B0342103A8FCF7E3FFFDF7E7FAFFF77E
:103270009DF9FFF70BF8FEF7EBFFFFF7A5F8FFF757
:10328000FBF8FFF7C5F8FFF7EFFEFFF7EDF90021B8
:103290004FF6FF72CDE9002120200290142205A3F1
:1032A00050211046FEF786FC054CFEF797FA207079
:1032B000FBE700006B65795F7465737400000000C4
:1032C0000000002070477047000000000000000070
:1032D000000000000000202020202000002000002E
:1032E000282850000000000000000000000050509E
:1032F000F85050F850500000002070A8A06030280E
:10330000A8702000000048A8B0A8743454480000F9
:1033100000002050506CA8A8946800004040800035
:1033200000000000000000000810102020202020D5
:103330001010080040202010101010102020400015
:1033400000000020A87070A82000000000000010FD
:10335000107C1010000000000000000000000000C1
:10336000404080000000000000FC00000000000061
:1033700000000000000000000040000000040808F9
:1033800010102020404080000000708888888888C5
:1033900088700000000020602020202020700000A5
:1033A000000070888810204080F8000000007088BD
:1033B000083008088870000000001030305090F885
:1033C000103800000000F88080F088088870000045
:1033D0000000304880B0C88888700000000078087D
:1033E000101020202020000000007088887088883D
:1033F000887000000000708888986808906000005D
:10340000000000002000000000200000000000007C
:103410000020000000202000000008102040402074
:103420001008000000000000FC00FC00000000008C
:1034300000004020100808102040000000007088A4
:1034400088102020002000000000384494B4B4B854
:1034500044380000000020203050507848CC000054
:103460000000F0484870484848F0000000007888A4
:1034700080808080887000000000F04848484848FC
:1034800048F000000000F8485070504048F8000034
:103490000000F8485070504040E0000000003848FC
:1034A00080809C88483000000000CC48487848481C
:1034B00048CC00000000F8202020202020F8000048
:1034C00000007C1010101010101090E00000EC486C
:1034D0005060504848EC00000000E0404040404050
:1034E00044FC00000000DCD8D8D8A8A8A8AC000094
:1034F0000000DC486868585848E800000000708800
:1035000088888888887000000000F0484870404033
:1035100040E0000000007088888888E898701800F3
:103520000000F0484870504848EC000000007888DF
:103530008060100888F000000000F8A820202020FB
:10354000207000000000CC4848484848483000003F
:103550000000CC4848505030202000000000A8A8AF
:10356000A8A87050505000000000D85050202050A3
:1035700050D800000000D85050502020207000008B
:103580000000F8901020204048F80000382020204B
:103590002020202020203800004040202020101033
:1035A000100808007010101010101010101070008B
:1035B000205000000000000000000000000000009B
:1035C00000000000000000FC40200000000000009F
:1035D000000000000000000000304838483C0000B7
:1035E00000C04040407048484870000000000000A3
:1035F000003848404830000000180808083848489B
:10360000483C0000000000000030487840380000CE
:1036100000182420207820202078000000000000DE
:10362000003C48304038443800C040404070484872
:1036300048EC0000002020000060202020700000E6
:103640000010100000301010101010E000C04040BA
:103650004058506050C8000000E02020202020206A
:1036600020F800000000000000F0A8A8A8A80000B2
:103670000000000000F0484848EC00000000000096
:1036800000304848483000000000000000F0484882
:10369000487040E000000000003848484838081CE6
:1036A0000000000000D8604040E000000000000082
:1036B00000784030087800000000002020782020AA
:1036C000203800000000000000D84848483C0000B6
:1036D0000000000000D85050202000000000000032
:1036E00000A8A870505000000000000000D8502032
:1036F00050D800000000000000CC4848301020C026
:103700000000000000781020207800001810101031
:103710001030101010101800101010101010101091
:103720001010101060202020201020202020600089
:103730006890000000000000000000000000000091
:103740000000000000000000000000000000001069
:10375000101010101010000010100000001224248F
:1037600048000000000000000000000000000012FF
:1037700012127E2424247E24242400000000083C0D
:103780004A4A48380C0A0A4A4A3C080800000044E1
:10379000A4A8A8B0541A2A2A4A4400000000003005
:1037A000484848506EA49498897600000060202014
:1037B00040000000000000000000000000020408BB
:1037C000081010101010100808040200004020100B
:1037D0001008080808080810102040000000000029
:1037E0001010D63838D6101000000000000000007D
:1037F000000808087F08080800000000000000001A
:1038000000000000000000006020204000000000D8
:10381000000000007E00000000000000000000002A
:1038200000000000000000006060000000000204D2
:103830000404080810101020204040000000001868
:103840002442424242424242241800000000000842
:103850003808080808080808083E00000000003C76
:103860004242420204081020427E00000000003C58
:103870004242020418040242423C000000000004DC
:103880000C0C142424447F04041F00000000007E5C
:1038900040404078440202424438000000000018D2
:1038A0002440405C62424242221C00000000007E34
:1038B0004204040808101010101000000000003C22
:1038C0004242422418244242423C00000000003898
:1038D00044424242463A020224180000000000001E
:1038E0000000181800000000181800000000000078
:1038F0000000001000000000001010100000000286
:1039000004081020402010080402000000000000FD
:1039100000007E00007E000000000000000000406B
:103920002010080402040810204000000000003CA1
:10393000424262040808080018180000000000381D
:10394000445AAAAAAAAAAA5C423C0000000000109D
:1039500010182828243C444242E70000000000F8E8
:10396000444444784442424244F800000000003E8F
:10397000424280808080804244380000000000F88D
:10398000444242424242424244F80000000000FCED
:10399000424848784848404242FC0000000000FC91
:1039A000424848784848404040E000000000003C61
:1039B00044448080808E844444380000000000E746
:1039C000424242427E42424242E700000000007C06
:1039D0001010101010101010107C00000000003E9D
:1039E0000808080808080808080888F0000000EE21
:1039F000444850705048484444EE0000000000E045
:103A0000404040404040404042FE0000000000EE88
:103A10006C6C6C6C6C54545454D60000000000C79D
:103A2000626252524A4A4A4646E2000000000038AA
:103A3000448282828282828244380000000000FC3C
:103A4000424242427C40404040E0000000000038DA
:103A500044828282828282B24C380600000000FCDE
:103A60004242427C4848444442E300000000003E99
:103A70004242402018040242427C0000000000FE46
:103A8000921010101010101010380000000000E705
:103A90004242424242424242423C0000000000E7B1
:103AA000424244242428281810100000000000D6A8
:103AB00054545454546C282828280000000000E76F
:103AC000422424181818242442E70000000000EEC5
:103AD0004444282810101010103800000000007E08
:103AE000840408081020204242FC0000001E101030
:103AF000101010101010101010101E0000004020A8
:103B0000202010101008080404040202007808089D
:103B100008080808080808080808780000182400A1
:103B20000000000000000000000000000000000095
:103B30000000000000000000000000FF0060100016
:103B40000000000000000000000000000000000075
:103B500000000038440C34444C36000000000000E3
:103B6000C0404058644242426458000000000000D7
:103B70000000001C22404040221C00000000000009
:103B80000602023E42424242463B00000000000064
:103B90000000003C42427E40423C00000000000029
:103BA0000C12107C10101010107C0000000000009F
:103BB0000000003E444438403C42423C00000000CB
:103BC000C040405C6242424242E7000000000030D8
:103BD0003000007010101010107C00000000000C6D
:103BE0000C00001C040404040404447800000000D9
:103BF000C040404E4850704844EE000000000010A5
:103C00007010101010101010107C00000000000048
:103C1000000000FE4949494949ED0000000000004C
:103C2000000000DC6242424242E700000000000067
:103C30000000003C42424242423C000000000000C2
:103C4000000000D864424242645840E00000000096
:103C50000000001A26424242261A02070000000015
:103C6000000000EE3220202020F8000000000000BC
:103C70000000003E42403C02427C00000000000088
:103C80000010107C10101010120C0000000000003A
:103C9000000000C642424242463B000000000000D5
:103CA000000000EE4444282810100000000000002E
:103CB000000000DB894A5A54242400000000000060
:103CC0000000007624181818246E00000000000080
:103CD000000000E7422424181810106000000000C3
:103CE0000000007E44081010227E0000000304043F
:103CF0000404040408040404040403000808080875
:103D000008080808080808080808080800C0202053
:103D100020202020102020202020C000205A040035
:103D20000000000000000000000000000000000093
:103D30000000000000000000000000000000000083
:103D40000000000000000000000000000000000073
:103D50000000000000000000000000000000000063
:103D60000000000000000000000000000000000053
:103D70000000000000000000000000000000000043
:103D80000000000000000000000000000000000033
:103D900000000000060006000600060006000600FF
:103DA00006000200040004000400000000000000FF
:103DB00006000600060000000000000000000000F1
:103DC000066006600CC0198011002200000000008F
:103DD00000000000000000000000000000000000E3
:103DE00000000000000000000000000000000000D3
:103DF0000000000008400840084008407FE07FE0E5
:103E0000104010801080108010807FE07FE02080C4
:103E100020802080208000000000000000000000C2
:103E20000000020002000F801AC032C033C032000E
:103E30001A000E0007000380038002C032C03AC09F
:103E400032C012800F0002000200000000000000DB
:103E500000000000708050808900890089008A007D
:103E60008A005C0075C005400A200A20122012203A
:103E70001220214021C000000000000000000000CE
:103E8000000000001C003600360036003600360008
:103E9000340019E038805880CC80CC80C680C700C0
:103EA000C31063903CE00000000000000000000030
:103EB000300038000800080010002000000000005A
:103EC00000000000000000000000000000000000F2
:103ED00000000000000000000000000000000000E2
:103EE00000200040008001000100020002000400E8
:103EF00004000400040004000400040002000200A6
:103F000001000100008000400020000000000000CF
:103F10004000200010000800080004000400020017
:103F2000020002000200020002000200040004007D
:103F30000800080010002000400000000000000001
:103F400000000000000000000200030002006230D8
:103F500072F00B800F807AF06230020002000200E3
:103F60000000000000000000000000000000000051
:103F7000000000000000000000000200020002003B
:103F8000020002007FF002000200020002000200B4
:103F90000000000000000000000000000000000021
:103FA0000000000000000000000000000000000011
:103FB0000000000000000000000000000000000001
:103FC0003000380008000800100020000000000049
:103FD00000000000000000000000000000000000E1
:103FE000000000007FE00000000000000000000072
:103FF00000000000000000000000000000000000C1
:1040000000000000000000000000000000000000B0
:1040100000000000000000000000000000000000A0
:1040200038003800380000000000000000000000E8
:1040300000200060004000C00080008001000100FE
:10404000020002000600040004000800080010003E
:104050001000300020006000400000000000000060
:104060000000000000000F00198030C030C0606008
:10407000606060606060606060606060606030C010
:1040800030C019800F000000000000000000000098
:1040900000000000000002003E00060006000600CE
:1040A00006000600060006000600060006000600E0
:1040B000060006003FC000000000000000000000F5
:1040C0000000000000001F00218040C060C060C0F0
:1040D00000C00080018003000600040008001040BA
:1040E000204060407FC00000000000000000000091
:1040F0000000000000001E006300618061800180FC
:10410000018003000E000180008000C000C060C07C
:1041100060C061801F00000000000000000000007F
:104120000000000000000180018003800580058000
:10413000098011801180218041807FF00180018001
:104140000180018007E00000000000000000000086
:104150000000000000003FC02000200020002000E0
:1041600020002F00318020C000C000C060C060C0AF
:10417000418021801F0000000000000000000000BE
:10418000000000000000078018C030C03000200090
:104190006000678068C07060606060606060206020
:1041A000304018C00F0000000000000000000000B8
:1041B0000000000000001FE03060204020800080F0
:1041C000008001000100020002000200060006005B
:1041D00006000600060000000000000000000000CD
:1041E0000000000000001F8030C060606060606000
:1041F000304038C00F00138030C060606060606085
:10420000606030C00F80000000000000000000006F
:104210000000000000000F00308030C0604060608F
:104220006060606060E031601E60006000C000C0DF
:10423000308031801E0000000000000000000000FF
:10424000000000000000000000000000000000006E
:104250000700070007000000000000000000000049
:104260000700070007000000000000000000000039
:10427000000000000000000000000000000000003E
:104280000600060000000000000000000000000022
:104290000000060006000200040004000000000008
:1042A0000000000000200040008001000200040027
:1042B00008001000200010000800040002000100A7
:1042C000008000400020000000000000000000000E
:1042D00000000000000000000000000000000000DE
:1042E0007FE00000000000007FE000000000000010
:1042F00000000000000000000000000000000000BE
:10430000000000002000100008000400020001006E
:1043100000800040002000400080010002000400F6
:104320000800100020000000000000000000000055
:1043300000000000000007C018602030203030303E
:10434000303000E0018002000200020000000000A6
:104350000700070007000000000000000000000048
:1043600000000000070018C0304033A026A066A05F
:1043700065A06D206D206D206D206D402780302060
:10438000304018C00F0000000000000000000000D6
:10439000000000000000060006000A000B000900F3
:1043A00009001100118010801F8020C020C0204013
:1043B00040404060F0F000000000000000000000FD
:1043C0000000000000007F0031C030C030C030C0AD
:1043D00030C031803F0030C03040306030603060ED
:1043E000306030C07F80000000000000000000004E
:1043F00000000000000007C018C0306030202020FE
:10440000600060006000600060006000602030209C
:10441000304018C00F000000000000000000000045
:10442000000000000000FE00318030C030C030606D
:10443000306030603060306030603060306030C09C
:1044400030C03180FE0000000000000000000000CD
:10445000000000000000FFC060C06020602060001D
:10446000610061007F006100610061006000602008
:1044700060206040FFC0000000000000000000005D
:10448000000000000000FFC060C0602060206000ED
:10449000610061007F0061006100610060006000F8
:1044A00060006000F8000000000000000000000054
:1044B0000000000000000F00188030403040204015
:1044C000600060006000600063F060C060C030C0E9
:1044D00030C018C00F000000000000000000000005
:1044E000000000000000F0F06060606060606060EC
:1044F000606060607FE0606060606060606060601D
:1045000060606060F0F0000000000000000000004B
:104510000000000000003FC0060006000600060084
:10452000060006000600060006000600060006005B
:10453000060006003FC00000000000000000000070
:104540000000000000001FE0030003000300030060
:104550000300030003000300030003000300030043
:10456000030003000300630066003C00000000003D
:10457000000000000000F3C061806300620064007E
:1045800068006C0074007600620063006100618066
:10459000608060C0F1E0000000000000000000004A
:1045A000000000000000F800600060006000600093
:1045B00060006000600060006000600060006020DB
:1045C00060206040FFC0000000000000000000000C
:1045D000000000000000E0E061C061C071C071C077
:1045E00072C072C052C05AC05AC05CC04CC04CC0ED
:1045F0004CC048C0E1E000000000000000000000E6
:1046000000000000000071F03040384038402C407D
:104610002C402640264022402340214021C021C07A
:1046200020C020C0F8400000000000000000000092
:104630000000000000000F00198030C030406060B2
:1046400060606060606060606060606060603040BA
:1046500030C019800F0000000000000000000000C2
:10466000000000000000FF0060C0606060606060EB
:104670006060606061C07F0060006000600060009A
:1046800060006000F8000000000000000000000072
:104690000000000000000F00198030C03040606052
:1046A0006060606060606060606060606E6032404A
:1046B00033C019800F0001E000C0000000000000BE
:1046C000000000000000FF8060C06060606060600B
:1046D000606060C07F00620063006100618060C054
:1046E00060C06060F070000000000000000000008A
:1046F0000000000000001F4030C0604060406000CB
:1047000070003C001F0007C001C000E04060406036
:10471000606030C00F80000000000000000000005A
:104720000000000000007FE0462086108610060092
:104730000600060006000600060006000600060049
:10474000060006001F8000000000000000000000BE
:1047500000000000000078E0304030403040304041
:1047600030403040304030403040304030403040C9
:10477000304018800F000000000000000000000022
:10478000000000000000F0E06040208020803080C9
:10479000308011001100190019000A000A000E00F3
:1047A0000C000400040000000000000000000000F5
:1047B000000000000000EF704620422062206220CE
:1047C00026402640274027403940398019801980EB
:1047D0001180110011000000000000000000000026
:1047E00000000000000079E030801080188009008F
:1047F0000D0006000400060006000B0009001180F1
:10480000108020C071E000000000000000000000E7
:10481000000000000000F0F06020204030401080D8
:1048200018801D000D000E000600060006000600A0
:10483000060006001F8000000000000000000000CD
:104840000000000000003FE0304060C04080018078
:1048500001000200020004000400080018001020FB
:10486000302020407FC00000000000000000000059
:1048700007C0040004000400040004000400040055
:104880000400040004000400040004000400040008
:10489000040004000400040007C000000000000041
:1048A0000000000020002000100010000800080098
:1048B00008000400040002000200030001000100DF
:1048C0000080008000400040004000200000000008
:1048D0003E0002000200020002000200020002008C
:1048E00002000200020002000200020002000200B8
:1048F00002000200020002003E000000000006006C
:10490000090010800000000000000000000000000E
:104910000000000000000000000000000000000097
:104920000000000000000000000000000000000087
:104930000000000000000000000000000000000077
:104940000000000000000000000000000000000067
:1049500000000000000000000000FFF00000000068
:104960001800060000000000000000000000000029
:104970000000000000000000000000000000000037
:104980000000000000000000000000000000000027
:104990000000000000000000000000000000000017
:1049A0000F8030C030C000C007C038C070C060C0C9
:1049B00060C071D03E7000000000000000000000E8
:1049C00000000000100070003000300030003000A7
:1049D00033803CC0386030603060306030603060C0
:1049E000304038C0278000000000000000000000B8
:1049F00000000000000000000000000000000000B7
:104A00000F00318031806180600060006000604094
:104A1000304030800F000000000000000000000067
:104A200000000000004003C000C000C000C000C083
:104A30001EC031C030C060C060C060C060C060C017
:104A400020C031E01E8000000000000000000000D7
:104A50000000000000000000000000000000000056
:104A6000078018C01040306030603FE030003000F8
:104A7000182018400780000000000000000000001F
:104A800000000000000003C006600C600C000C0079
:104A90007F800C000C000C000C000C000C000C00C3
:104AA0000C000C003F80000000000000000000002F
:104AB00000000000000000000000000000000000F6
:104AC0000FE01B6031803180318019801F00300081
:104AD0003F0033C060C060C071C01F000000000014
:104AE0000000000010007000300030003000300086
:104AF000378038C030C030C030C030C030C030C067
:104B000030C030C079E0000000000000000000006C
:104B10000000000000000600060000000000020087
:104B20003E0006000600060006000600060006001D
:104B3000060006003FC0000000000000000000006A
:104B400000000000000003800380000000000080DF
:104B50000F8001800180018001800180018001803F
:104B6000018001800180018033003E0000000000D0
:104B700000000000100070003000300030003000F5
:104B800031C031003100320036003A00310031804E
:104B9000308030C079E0000000000000000000001C
:104BA0000000000002003E000600060006000600AD
:104BB00006000600060006000600060006000600C5
:104BC000060006003FC000000000000000000000DA
:104BD00000000000000000000000000000000000D5
:104BE000ECE077606660666066606660666066607E
:104BF00066606660FFF0000000000000000000003A
:104C000000000000000000000000000000000000A4
:104C1000778038C030C030C030C030C030C030C005
:104C200030C030C079E0000000000000000000004B
:104C30000000000000000000000000000000000074
:104C40000F00198030C0606060606060606060600C
:104C500030C030C00F000000000000000000000065
:104C60000000000000000000000000000000000044
:104C7000778038C0306030603060306030603060E5
:104C800030C038C03780300030007C0000000000A9
:104C90000000000000000000000000000000000014
:104CA0001E4031C030C060C060C060C060C060C025
:104CB00020C031C01EC000C000C003E000000000E2
:104CC00000000000000000000000000000000000E4
:104CD000F9C01A601C6018001800180018001800AD
:104CE00018001800FF000000000000000000000095
:104CF00000000000000000000000000000000000B4
:104D00000FC038C0304030401C000F0003C020C02E
:104D100020C031C03F800000000000000000000003
:104D20000000000000000000040004000C000C0063
:104D30007F800C000C000C000C000C000C000C0020
:104D40000C400C4007800000000000000000000044
:104D50000000000000000000000000000000104003
:104D600071C030C030C030C030C030C030C030C082
:104D700030C039E01E80000000000000000000008C
:104D80000000000000000000000000000000000023
:104D900078E0304010801080188009000D000D0070
:104DA00006000600040000000000000000000000F3
:104DB00000000000000000000000000000000000F3
:104DC000EF70462062202640264037403980198007
:104DD0001980198010000000000000000000000091
:104DE00000000000000000000000000000000000C3
:104DF0003DE0188008800D0006000600070009004D
:104E0000108010C079E000000000000000000000E9
:104E10000000000000000000000000000000000092
:104E200079E0108010801080090009000D00060054
:104E30000600060004000400240038000000000002
:104E40000000000000000000000000000000000062
:104E50003F80218023002200060004000C0018403F
:104E6000104030C03F800000000000000000000043
:104E700000C001000100010001000100010001006B
:104E80000100020004000200010001000100010015
:104E9000010001000100010000C00000020002004A
:104EA00002000200020002000200020002000200F2
:104EB00002000200020002000200020002000200E2
:104EC00002000200020002000200020000000000D6
:104ED000300008000800080008000800080008006A
:104EE0000800040002000400080008000800080090
:104EF000080008000800080030000000000038002A
:104F00004420432001C00000000000000000000019
:104F10000000000000000000000000000000000091
:104F20000000000000000000000000000000000081
:104F30000000000000000000000000000000000071
:104F40000000000000000000000000000000000061
:104F50000000000000000000000000000000000051
:104F60000000000000000000000000000000000041
:104F70000000000000000000000000000000000031
:104F80000000000000000000000000000000000021
:104F90000000000000000000000000000000000011
:104FA0000000000000000000000000000000000001
:104FB000000000000000000003C003C003C003C0E5
:104FC00003C003C001C00180018001800180018015
:104FD000018001800180000000000000018003C00A
:104FE00003C001800000000000000000000000007D
:104FF00000000000000000000000000000000000B1
:1050000000000000000000000000000000000000A0
:105010000000000000000000000000000000000090
:105020000000000000000000000000000000000080
:105030000318073807380E700C6018C03180210043
:105040000000000000000000000000000000000060
:105050000000000000000000000000000000000050
:105060000000000000000000000000000000000040
:105070000000000000000000000000000000000030
:105080000000000000000000000000000000000020
:105090000000000000000000000000000000000010
:1050A0000000000000000000000000000000000000
:1050B00000000000000000000408040804080408C0
:1050C00004087FFE7FFE7FFE0810081008100810FD
:1050D000081008107FFE7FFE7FFE18301020102081
:1050E0001020102000000000000000000000000060
:1050F00000000000000000000000000000000000B0
:10510000000000000000000000000000000000009F
:10511000000000000000000000000000000000008F
:10512000000000000000000000000000000000007F
:10513000000000000100010003C00D30091819181B
:10514000193819381D000D000F00070003C001E0D9
:1051500001F001300138011839183918311831308F
:10516000196007C0010001000100000000000000FC
:10517000000000000000000000000000000000002F
:10518000000000000000000000000000000000001F
:10519000000000000000000000000000000000000F
:1051A00000000000000000000000000000000000FF
:1051B000000000000000000038106C104420C620E1
:1051C000C640C640C640C680C68044806D38396C33
:1051D000024402C602C604C604C608C608C608447D
:1051E000106C1038000000000000000000000000FB
:1051F00000000000000000000000000000000000AF
:10520000000000000000000000000000000000009E
:10521000000000000000000000000000000000008E
:10522000000000000000000000000000000000007E
:1052300000000000000000000F00190031803180E4
:1052400031803180310033003A001C00387C3C1042
:105250004C10CE10C620C720C320C1C0C1C260E61A
:10526000317C1E380000000000000000000000003B
:10527000000000000000000000000000000000002E
:10528000000000000000000000000000000000001E
:10529000000000000000000000000000000000000E
:1052A00000000000000000000000000000000000FE
:1052B00038003C003C000C000C000800300060008E
:1052C00000000000000000000000000000000000DE
:1052D00000000000000000000000000000000000CE
:1052E00000000000000000000000000000000000BE
:1052F00000000000000000000000000000000000AE
:10530000000000000000000000000000000000009D
:10531000000000000000000000000000000000008D
:10532000000000000000000000000000000000007D
:105330000002000400080018003000200060004057
:1053400000C000C0018001800180018001800180D7
:1053500001800180018000C000C00040006000208A
:1053600000300018000800040002000000000000E7
:10537000000000000000000000000000000000002D
:10538000000000000000000000000000000000001D
:10539000000000000000000000000000000000000D
:1053A00000000000000000000000000000000000FD
:1053B00040002000100018000C000400060002004D
:1053C00003000300018001800180018001800180D1
:1053D0000180018001800300030003000600040037
:1053E0000C00180010002000400000000000000029
:1053F00000000000000000000000000000000000AD
:10540000000000000000000000000000000000009C
:10541000000000000000000000000000000000008C
:10542000000000000000000000000000000000007C
:1054300000000000000000000000000000C001C0EB
:1054400001C030C6388E1C9C06B001C001C006B039
:105450001C9C388E318601C001C001C000000000D4
:10546000000000000000000000000000000000003C
:10547000000000000000000000000000000000002C
:10548000000000000000000000000000000000001C
:10549000000000000000000000000000000000000C
:1054A00000000000000000000000000000000000FC
:1054B000000000000000000000000000000000806C
:1054C0000080008000800080008000803FFE00801F
:1054D00000800080008000800080008000000000CC
:1054E00000000000000000000000000000000000BC
:1054F00000000000000000000000000000000000AC
:10550000000000000000000000000000000000009B
:10551000000000000000000000000000000000008B
:10552000000000000000000000000000000000007B
:10553000000000000000000000000000000000006B
:10554000000000000000000000000000000000005B
:1055500000000000000000000000000038003C00D7
:105560003C000C000C00080030006000000000004F
:10557000000000000000000000000000000000002B
:10558000000000000000000000000000000000001B
:10559000000000000000000000000000000000000B
:1055A00000000000000000000000000000000000FB
:1055B00000000000000000000000000000000000EB
:1055C0000000000000000000000000007FFE00005E
:1055D00000000000000000000000000000000000CB
:1055E00000000000000000000000000000000000BB
:1055F00000000000000000000000000000000000AB
:10560000000000000000000000000000000000009A
:10561000000000000000000000000000000000008A
:10562000000000000000000000000000000000007A
:10563000000000000000000000000000000000006A
:10564000000000000000000000000000000000005A
:1056500000000000000000000000000018003C00F6
:105660003C001800000000000000000000000000E6
:10567000000000000000000000000000000000002A
:10568000000000000000000000000000000000001A
:10569000000000000000000000000000000000000A
:1056A00000000000000000000000000000000000FA
:1056B0000000000200060004000C000800180010A2
:1056C000003000200060004000C000800180010028
:1056D00003000200060004000C000800180010007F
:1056E00030002000600040000000000000000000CA
:1056F00000000000000000000000000000000000AA
:105700000000000000000000000000000000000099
:105710000000000000000000000000000000000089
:105720000000000000000000000000000000000079
:10573000000000000000000003C006200C30181814
:1057400018181808300C300C300C300C300C300CA1
:10575000300C300C300C300C1808181818180C309D
:10576000062003C000000000000000000000000050
:105770000000000000000000000000000000000029
:105780000000000000000000000000000000000019
:105790000000000000000000000000000000000009
:1057A00000000000000000000000000000000000F9
:1057B0000000000000000000008001801F800180C8
:1057C00001800180018001800180018001800180D1
:1057D00001800180018001800180018001800180C1
:1057E00003C01FF8000000000000000000000000DF
:1057F00000000000000000000000000000000000A9
:105800000000000000000000000000000000000098
:105810000000000000000000000000000000000088
:105820000000000000000000000000000000000078
:10583000000000000000000007E008381018200CED
:10584000200C300C300C000C0018001800300060E8
:1058500000C0018003000200040408041004200CAE
:105860003FF83FF8000000000000000000000000CA
:105870000000000000000000000000000000000028
:105880000000000000000000000000000000000018
:105890000000000000000000000000000000000008
:1058A00000000000000000000000000000000000F8
:1058B000000000000000000007C018603030301801
:1058C00030183018001800180030006003C0007055
:1058D00000180008000C000C300C300C3008301898
:1058E000183007C0000000000000000000000000A9
:1058F00000000000000000000000000000000000A8
:105900000000000000000000000000000000000097
:105910000000000000000000000000000000000087
:105920000000000000000000000000000000000077
:1059300000000000000000000060006000E000E0E7
:10594000016001600260046004600860086010602B
:105950003060206040607FFC00600060006000609C
:10596000006003FC000000000000000000000000D8
:105970000000000000000000000000000000000027
:105980000000000000000000000000000000000017
:105990000000000000000000000000000000000007
:1059A00000000000000000000000000000000000F7
:1059B00000000000000000000FFC0FFC10001000B1
:1059C000100010001000100013E014301818100818
:1059D000000C000C000C000C300C300C20182018AF
:1059E000183007C0000000000000000000000000A8
:1059F00000000000000000000000000000000000A7
:105A00000000000000000000000000000000000096
:105A10000000000000000000000000000000000086
:105A20000000000000000000000000000000000076
:105A3000000000000000000001E006180C18081823
:105A4000180010001000300033E0363038183808E5
:105A5000300C300C300C300C300C180C18080C18B2
:105A60000E3003E000000000000000000000000015
:105A70000000000000000000000000000000000026
:105A80000000000000000000000000000000000016
:105A90000000000000000000000000000000000006
:105AA00000000000000000000000000000000000F6
:105AB00000000000000000001FFC1FFC1008301058
:105AC0002010202000200040004000400080008086
:105AD00001000100010001000300030003000300B6
:105AE00003000300000000000000000000000000B0
:105AF00000000000000000000000000000000000A6
:105B00000000000000000000000000000000000095
:105B10000000000000000000000000000000000085
:105B20000000000000000000000000000000000075
:105B3000000000000000000007E00C301818300CD6
:105B4000300C300C380C38081E180F2007C018F025
:105B500030783038601C600C600C600C600C3018C1
:105B6000183007C000000000000000000000000026
:105B70000000000000000000000000000000000025
:105B80000000000000000000000000000000000015
:105B90000000000000000000000000000000000005
:105BA00000000000000000000000000000000000F5
:105BB000000000000000000007C01820301030185E
:105BC0006008600C600C600C600C600C701C302C69
:105BD000186C0F8C000C001800180010303030606A
:105BE00030C00F8000000000000000000000000036
:105BF00000000000000000000000000000000000A5
:105C00000000000000000000000000000000000094
:105C10000000000000000000000000000000000084
:105C20000000000000000000000000000000000074
:105C30000000000000000000000000000000000064
:105C4000000000000000018003C003C001800000CC
:105C5000000000000000000000000000018003C000
:105C600003C00180000000000000000000000000F0
:105C70000000000000000000000000000000000024
:105C80000000000000000000000000000000000014
:105C90000000000000000000000000000000000004
:105CA00000000000000000000000000000000000F4
:105CB00000000000000000000000000000000000E4
:105CC000000000000000000003800380038000004B
:105CD0000000000000000000000000000000038041
:105CE0000380038001800300030000000000000027
:105CF00000000000000000000000000000000000A4
:105D00000000000000000000000000000000000093
:105D10000000000000000000000000000000000083
:105D20000000000000000000000000000000000073
:105D30000000000000000000000400080010002027
:105D40000040008001000200040008001000100064
:105D50000800040002000100008000400020001044
:105D60000008000400000000000000000000000027
:105D70000000000000000000000000000000000023
:105D80000000000000000000000000000000000013
:105D90000000000000000000000000000000000003
:105DA00000000000000000000000000000000000F3
:105DB00000000000000000000000000000000000E3
:105DC0000000000000007FFE000000000000000056
:105DD00000007FFE00000000000000000000000046
:105DE00000000000000000000000000000000000B3
:105DF00000000000000000000000000000000000A3
:105E00000000000000000000000000000000000092
:105E10000000000000000000000000000000000082
:105E20000000000000000000000000000000000072
:105E30000000000000000000200010000800040026
:105E4000020001000080004000200010000800084F
:105E50000010002000400080010002000400080043
:105E60001000200000000000000000000000000002
:105E70000000000000000000000000000000000022
:105E80000000000000000000000000000000000012
:105E90000000000000000000000000000000000002
:105EA00000000000000000000000000000000000F2
:105EB000000000000000000003E00C18180C1006A1
:105EC0003006380638063806000C0018007000C08E
:105ED000008000800080008000000000018003C07E
:105EE00003C001800000000000000000000000006E
:105EF00000000000000000000000000000000000A2
:105F00000000000000000000000000000000000091
:105F10000000000000000000000000000000000081
:105F20000000000000000000000000000000000071
:105F3000000000000000000003E006100C08180438
:105F400030D431B221326332632266226622662265
:105F500066626664666426E8333030021004180C0A
:105F60000C1803E00000000000000000000000002A
:105F70000000000000000000000000000000000021
:105F80000000000000000000000000000000000011
:105F90000000000000000000000000000000000001
:105FA00000000000000000000000000000000000F1
:105FB00000000000000000000380038003800380D5
:105FC00004C004C004C004C00C400860086008603D
:105FD00008201FF010301030103020182018201822
:105FE000601CF83E000000000000000000000000FF
:105FF00000000000000000000000000000000000A1
:106000000000000000000000000000000000000090
:106010000000000000000000000000000000000080
:106020000000000000000000000000000000000070
:1060300000000000000000007FE018381818180C5D
:10604000180C180C180C180C181818301FE0181819
:10605000180C180418061806180618061806180C46
:1060600018187FF000000000000000000000000091
:106070000000000000000000000000000000000020
:106080000000000000000000000000000000000010
:106090000000000000000000000000000000000000
:1060A00000000000000000000000000000000000F0
:1060B000000000000000000003E0061C080C1806A9
:1060C000300230023000600060006000600060005C
:1060D00060006000600060003002300210041808A8
:1060E0000C1003E0000000000000000000000000B1
:1060F00000000000000000000000000000000000A0
:10610000000000000000000000000000000000008F
:10611000000000000000000000000000000000007F
:10612000000000000000000000000000000000006F
:1061300000000000000000007FC018701818180848
:10614000180C180C18061806180618061806180653
:106150001806180618061804180C180C1818181821
:1061600018607FC000000000000000000000000078
:10617000000000000000000000000000000000001F
:10618000000000000000000000000000000000000F
:1061900000000000000000000000000000000000FF
:1061A00000000000000000000000000000000000EF
:1061B00000000000000000007FFC180C180418020A
:1061C0001802180018001810181018301FF0183096
:1061D00018101810180018001800180218021804D7
:1061E000180C7FFC00000000000000000000000010
:1061F000000000000000000000000000000000009F
:10620000000000000000000000000000000000008E
:10621000000000000000000000000000000000007E
:10622000000000000000000000000000000000006E
:1062300000000000000000007FFC181C1804180279
:106240001802180018001810181018301FF0183015
:10625000181018101810180018001800180018004E
:1062600018007E0000000000000000000000000098
:10627000000000000000000000000000000000001E
:10628000000000000000000000000000000000000E
:1062900000000000000000000000000000000000FE
:1062A00000000000000000000000000000000000EE
:1062B000000000000000000003C00C300810181897
:1062C000300830082000600060006000600060005E
:1062D000607E6018601820183018301810181818D0
:1062E0000C2007C0000000000000000000000000BB
:1062F000000000000000000000000000000000009E
:10630000000000000000000000000000000000008D
:10631000000000000000000000000000000000007D
:10632000000000000000000000000000000000006D
:106330000000000000000000FC3F300C300C300C6E
:10634000300C300C300C300C300C300C3FFC300C6E
:10635000300C300C300C300C300C300C300C300C5D
:10636000300CFC3F000000000000000000000000B6
:10637000000000000000000000000000000000001D
:10638000000000000000000000000000000000000D
:1063900000000000000000000000000000000000FD
:1063A00000000000000000000000000000000000ED
:1063B00000000000000000001FF801800180018043
:1063C00001800180018001800180018001800180C5
:1063D00001800180018001800180018001800180B5
:1063E00001801FF800000000000000000000000015
:1063F000000000000000000000000000000000009D
:10640000000000000000000000000000000000008C
:10641000000000000000000000000000000000007C
:10642000000000000000000000000000000000006C
:10643000000000000000000007FE00600060006037
:10644000006000600060006000600060006000604C
:10645000006000600060006000600060006000603C
:1064600000600060706070C071803F00000000003C
:10647000000000000000000000000000000000001C
:10648000000000000000000000000000000000000C
:1064900000000000000000000000000000000000FC
:1064A00000000000000000000000000000000000EC
:1064B00000000000000000007E7C183018201860EA
:1064C000184018801880190019001B001D801D80BD
:1064D00018C018C018601860183018301830181814
:1064E00018187E3E000000000000000000000000C0
:1064F000000000000000000000000000000000009C
:10650000000000000000000000000000000000008B
:10651000000000000000000000000000000000007B
:10652000000000000000000000000000000000006B
:1065300000000000000000007E0018001800180095
:10654000180018001800180018001800180018008B
:106550001800180018001800180018021802180473
:10656000180C7FFC0000000000000000000000008C
:10657000000000000000000000000000000000001B
:10658000000000000000000000000000000000000B
:1065900000000000000000000000000000000000FB
:1065A00000000000000000000000000000000000EB
:1065B0000000000000000000F00F381C381C381CE0
:1065C000381C382C2C2C2C2C2C2C2C4C2C4C264CA9
:1065D000264C264C268C228C238C238C230C230CBB
:1065E000210CF13F0000000000000000000000004E
:1065F000000000000000000000000000000000009B
:10660000000000000000000000000000000000008A
:10661000000000000000000000000000000000007A
:10662000000000000000000000000000000000006A
:106630000000000000000000F01F380438042C04A3
:106640002C0426042604230423042184218420C44A
:1066500020C42064206420342034201C201C200C02
:10666000200CF80400000000000000000000000002
:10667000000000000000000000000000000000001A
:10668000000000000000000000000000000000000A
:1066900000000000000000000000000000000000FA
:1066A00000000000000000000000000000000000EA
:1066B000000000000000000003C00C301818100893
:1066C000300C300C600460066006600660066006F0
:1066D0006006600660062006300C300C10081818A2
:1066E0000C3003C0000000000000000000000000AB
:1066F000000000000000000000000000000000009A
:106700000000000000000000000000000000000089
:106710000000000000000000000000000000000079
:106720000000000000000000000000000000000069
:1067300000000000000000007FF01818180C180678
:1067400018061806180618061806180C18181FE060
:106750001800180018001800180018001800180079
:1067600018007E0000000000000000000000000093
:106770000000000000000000000000000000000019
:106780000000000000000000000000000000000009
:1067900000000000000000000000000000000000F9
:1067A00000000000000000000000000000000000E9
:1067B000000000000000000003C00C301818100892
:1067C000300C300C600660066006600660066006ED
:1067D0006006600660066006278438CC386C18783E
:1067E0000C7003E00032003C001C000000000000C0
:1067F0000000000000000000000000000000000099
:106800000000000000000000000000000000000088
:106810000000000000000000000000000000000078
:106820000000000000000000000000000000000068
:1068300000000000000000007FE018381818180C55
:10684000180C180C180C180C181818301FE018C069
:1068500018C01860186018601830183018301818F0
:1068600018187E1E0000000000000000000000005C
:106870000000000000000000000000000000000018
:106880000000000000000000000000000000000008
:1068900000000000000000000000000000000000F8
:1068A00000000000000000000000000000000000E8
:1068B00000000000000000000FC8187830186018B1
:1068C00060086008600070003C001F0007C001F015
:1068D00000780018001C400C400C600C200C301894
:1068E000383027E000000000000000000000000039
:1068F0000000000000000000000000000000000098
:106900000000000000000000000000000000000087
:106910000000000000000000000000000000000077
:106920000000000000000000000000000000000067
:1069300000000000000000003FFC318421864182FD
:1069400041820180018001800180018001800180FD
:10695000018001800180018001800180018001802F
:10696000018007E0000000000000000000000000BF
:106970000000000000000000000000000000000017
:106980000000000000000000000000000000000007
:1069900000000000000000000000000000000000F7
:1069A00000000000000000000000000000000000E7
:1069B0000000000000000000FC3E300830083008F5
:1069C0003008300830083008300830083008300807
:1069D0003008300830083008300830083008181007
:1069E0001C2007C0000000000000000000000000A4
:1069F0000000000000000000000000000000000097
:106A00000000000000000000000000000000000086
:106A10000000000000000000000000000000000076
:106A20000000000000000000000000000000000066
:106A300000000000000000007C1E180C1808180858
:106A400018080C100C100C100C100C20062006203E
:106A5000062006400340034003400380018001807C
:106A60000100010000000000000000000000000024
:106A70000000000000000000000000000000000016
:106A80000000000000000000000000000000000006
:106A900000000000000000000000000000000000F6
:106AA00000000000000000000000000000000000E6
:106AB0000000000000000000F3CF618661842184A3
:106AC000208430C431C431C431C831C811C812481F
:106AD0001A681A681A701C700C700C700C300C203C
:106AE0000820082000000000000000000000000056
:106AF0000000000000000000000000000000000096
:106B00000000000000000000000000000000000085
:106B10000000000000000000000000000000000075
:106B20000000000000000000000000000000000065
:106B300000000000000000007C3E180818100C1037
:106B40000C20062006400340038001800180018064
:106B500001C002C0026004600470083008301818D8
:106B6000101C7C3E0000000000000000000000003F
:106B70000000000000000000000000000000000015
:106B80000000000000000000000000000000000005
:106B900000000000000000000000000000000000F5
:106BA00000000000000000000000000000000000E5
:106BB00000000000000000007E3E38081808181091
:106BC0000C100C100C20062006200340034003800C
:106BD00001800180018001800180018001800180AD
:106BE000018007E00000000000000000000000003D
:106BF0000000000000000000000000000000000095
:106C00000000000000000000000000000000000084
:106C10000000000000000000000000000000000074
:106C20000000000000000000000000000000000064
:106C300000000000000000001FFE1C0C180C3018A3
:106C4000201800300060006000C000C0018001809A
:106C500003000300060006000C00180218063004AA
:106C6000301C7FFC0000000000000000000000005D
:106C70000000000000000000000000000000000014
:106C80000000000000000000000000000000000004
:106C900000000000000000000000000000000000F4
:106CA00000000000000000000000000000000000E4
:106CB000000003FC030003000300030003000300C3
:106CC00003000300030003000300030003000300AC
:106CD000030003000300030003000300030003009C
:106CE00003000300030003FC00000000000000009C
:106CF0000000000000000000000000000000000094
:106D00000000000000000000000000000000000083
:106D10000000000000000000000000000000000073
:106D20000000000000000000000000000000000063
:106D30000000000000001800180008000C0004000B
:106D400006000600020003000100018001800080AF
:106D500000C00040006000600030003000300018CB
:106D60000018000C000C000C0006000000000000E1
:106D70000000000000000000000000000000000013
:106D80000000000000000000000000000000000003
:106D900000000000000000000000000000000000F3
:106DA00000000000000000000000000000000000E3
:106DB00000003FC000C000C000C000C000C000C054
:106DC00000C000C000C000C000C000C000C000C0C3
:106DD00000C000C000C000C000C000C000C000C0B3
:106DE00000C000C000C03FC0000000000000000064
:106DF0000000000000000000000000000000000093
:106E00000000000000000000000000000000000082
:106E10000000000000000000000000000000000072
:106E20000000000000000000000000000000000062
:106E300003C003E00620081000000000000000006E
:106E40000000000000000000000000000000000042
:106E50000000000000000000000000000000000032
:106E60000000000000000000000000000000000022
:106E70000000000000000000000000000000000012
:106E80000000000000000000000000000000000002
:106E900000000000000000000000000000000000F2
:106EA00000000000000000000000000000000000E2
:106EB00000000000000000000000000000000000D2
:106EC00000000000000000000000000000000000C2
:106ED00000000000000000000000000000000000B2
:106EE00000000000000000000000FFFF00000000A4
:106EF0000000000000000000000000000000000092
:106F00000000000000000000000000000000000081
:106F10000000000000000000000000000000000071
:106F20000000000000000000000000000000000061
:106F30001E000300008000000000000000000000B0
:106F40000000000000000000000000000000000041
:106F50000000000000000000000000000000000031
:106F60000000000000000000000000000000000021
:106F70000000000000000000000000000000000011
:106F80000000000000000000000000000000000001
:106F900000000000000000000000000000000000F1
:106FA00000000000000000000000000000000000E1
:106FB00000000000000000000000000000000000D1
:106FC00000000000000007E01830301830183018BA
:106FD000003807D81C18301860186018601860193D
:106FE00030791F8E0000000000000000000000004B
:106FF0000000000000000000000000000000000091
:107000000000000000000000000000000000000080
:107010000000000000000000000000000000000070
:107020000000000000000000000000000000000060
:107030000000000000000800780018001800180088
:1070400018001800180019E01A381C181C0C180C2D
:10705000180C180C180C180C180C180C18081C1804
:107060001C3013E0000000000000000000000000E1
:107070000000000000000000000000000000000010
:107080000000000000000000000000000000000000
:1070900000000000000000000000000000000000F0
:1070A00000000000000000000000000000000000E0
:1070B00000000000000000000000000000000000D0
:1070C00000000000000003E00E100C181818301823
:1070D0003000300030003000300030041804180850
:1070E0000C1003E0000000000000000000000000A1
:1070F0000000000000000000000000000000000090
:10710000000000000000000000000000000000007F
:10711000000000000000000000000000000000006F
:10712000000000000000000000000000000000005F
:107130000000000000000008007800180018001887
:1071400000180018001807D80C381818181830182C
:107150003018301830183018301830181018183807
:107160000C5E07900000000000000000000000001E
:10717000000000000000000000000000000000000F
:1071800000000000000000000000000000000000FF
:1071900000000000000000000000000000000000EF
:1071A00000000000000000000000000000000000DF
:1071B00000000000000000000000000000000000CF
:1071C00000000000000003C00C3008181808300C44
:1071D000300C300C3FFC3000300030001804180830
:1071E0000E1803E000000000000000000000000096
:1071F000000000000000000000000000000000008F
:10720000000000000000000000000000000000007E
:10721000000000000000000000000000000000006E
:10722000000000000000000000000000000000005E
:107230000000000000000000007C0186010603063B
:107240000300030003003FF80300030003000300F2
:107250000300030003000300030003000300030016
:1072600003001FF00000000000000000000000000C
:10727000000000000000000000000000000000000E
:1072800000000000000000000000000000000000FE
:1072900000000000000000000000000000000000EE
:1072A00000000000000000000000000000000000DE
:1072B00000000000000000000000000000000000CE
:1072C00000000000000003EE0C360818181818180B
:1072D000181808180C300FE0180018001FC00FF81D
:1072E000181C300C300C300C181807E0000000009F
:1072F000000000000000000000000000000000008E
:10730000000000000000000000000000000000007D
:10731000000000000000000000000000000000006D
:10732000000000000000000000000000000000005D
:107330000000000000000800780018001800180085
:1073400018001800180019E01A301C18181818181E
:1073500018181818181818181818181818181818AD
:1073600018187E7E000000000000000000000000F1
:10737000000000000000000000000000000000000D
:1073800000000000000000000000000000000000FD
:1073900000000000000000000000000000000000ED
:1073A00000000000000000000000000000000000DD
:1073B0000000000000000000018003C00180000008
:1073C0000000000000801F8001800180018001809A
:1073D00001800180018001800180018001800180A5
:1073E00001801FF800000000000000000000000005
:1073F000000000000000000000000000000000008D
:10740000000000000000000000000000000000007C
:10741000000000000000000000000000000000006C
:10742000000000000000000000000000000000005C
:10743000000000000000000000380078003000006C
:1074400000000000001003F0003000300030003079
:1074500000300030003000300030003000300030AC
:10746000003000300030186018400F80000000002D
:10747000000000000000000000000000000000000C
:1074800000000000000000000000000000000000FC
:1074900000000000000000000000000000000000EC
:1074A00000000000000000000000000000000000DC
:1074B0000000000000000800780018001800180004
:1074C000180018001800187C183018201840188070
:1074D00019801B801EC01CC0186018301830181886
:1074E000181C7E3E000000000000000000000000AC
:1074F000000000000000000000000000000000008C
:10750000000000000000000000000000000000007B
:10751000000000000000000000000000000000006B
:10752000000000000000000000000000000000005B
:1075300000000000000000801F80018001800180A9
:107540000180018001800180018001800180018033
:107550000180018001800180018001800180018023
:1075600001801FF800000000000000000000000083
:10757000000000000000000000000000000000000B
:1075800000000000000000000000000000000000FB
:1075900000000000000000000000000000000000EB
:1075A00000000000000000000000000000000000DB
:1075B00000000000000000000000000000000000CB
:1075C000000000002000EF3C71C661866186618684
:1075D0006186618661866186618661866186618673
:1075E0006186F3CF000000000000000000000000F2
:1075F000000000000000000000000000000000008B
:10760000000000000000000000000000000000007A
:10761000000000000000000000000000000000006A
:10762000000000000000000000000000000000005A
:10763000000000000000000000000000000000004A
:1076400000000000000009E07A301C181818181813
:1076500018181818181818181818181818181818AA
:1076600018187E7E000000000000000000000000EE
:10767000000000000000000000000000000000000A
:1076800000000000000000000000000000000000FA
:1076900000000000000000000000000000000000EA
:1076A00000000000000000000000000000000000DA
:1076B00000000000000000000000000000000000CA
:1076C00000000000000003C00C3008181818100C4F
:1076D000300C300C300C300C300C300C18181818E2
:1076E0000C3003C00000000000000000000000009B
:1076F000000000000000000000000000000000008A
:107700000000000000000000000000000000000079
:107710000000000000000000000000000000000069
:107720000000000000000000000000000000000059
:107730000000000000000000000000000000000049
:1077400000000000000009E07A301C181808180C2E
:10775000180C180C180C180C180C180C18181C18ED
:107760001E3019E01800180018007E00000000000C
:107770000000000000000000000000000000000009
:1077800000000000000000000000000000000000F9
:1077900000000000000000000000000000000000E9
:1077A00000000000000000000000000000000000D9
:1077B00000000000000000000000000000000000C9
:1077C00000000000000003C80C78183818183018A2
:1077D0003018301830183018301830181018183881
:1077E0000C780798001800180018007E00000000B0
:1077F0000000000000000000000000000000000089
:107800000000000000000000000000000000000078
:107810000000000000000000000000000000000068
:107820000000000000000000000000000000000058
:107830000000000000000000000000000000000048
:10784000000000000000061C7E6606860780070018
:1078500006000600060006000600060006000600F8
:1078600006007FE0000000000000000000000000B3
:107870000000000000000000000000000000000008
:1078800000000000000000000000000000000000F8
:1078900000000000000000000000000000000000E8
:1078A00000000000000000000000000000000000D8
:1078B00000000000000000000000000000000000C8
:1078C00000000000000003E4061C0C0C0C040C0477
:1078D0000E0007C001F00078001C100C100C180CF2
:1078E0001C1813F000000000000000000000000061
:1078F0000000000000000000000000000000000088
:107900000000000000000000000000000000000077
:107910000000000000000000000000000000000067
:107920000000000000000000000000000000000057
:107930000000000000000000000000000100010045
:107940000100030007003FF80300030003000300E9
:107950000300030003000300030003000304030407
:10796000018800F00000000000000000000000009E
:107970000000000000000000000000000000000007
:1079800000000000000000000000000000000000F7
:1079900000000000000000000000000000000000E7
:1079A00000000000000000000000000000000000D7
:1079B00000000000000000000000000000000000C7
:1079C00000000000080878781818181818181818F7
:1079D0001818181818181818181818181818183807
:1079E0000C5E079000000000000000000000000096
:1079F0000000000000000000000000000000000087
:107A00000000000000000000000000000000000076
:107A10000000000000000000000000000000000066
:107A20000000000000000000000000000000000056
:107A30000000000000000000000000000000000046
:107A40000000000000007C3E180C180818180C10EC
:107A50000C100420062006200340034003C00180D0
:107A60000180010000000000000000000000000094
:107A70000000000000000000000000000000000006
:107A800000000000000000000000000000000000F6
:107A900000000000000000000000000000000000E6
:107AA00000000000000000000000000000000000D6
:107AB00000000000000000000000000000000000C6
:107AC000000000000000FBCF6186218431843184F6
:107AD00031C811C81AC81A481A700E700C700C30D0
:107AE0000C20042000000000000000000000000046
:107AF0000000000000000000000000000000000086
:107B00000000000000000000000000000000000075
:107B10000000000000000000000000000000000065
:107B20000000000000000000000000000000000055
:107B30000000000000000000000000000000000045
:107B40000000000000003E7C0C100E1006200340D8
:107B500003400180018001C0026004600430081805
:107B600018187C7E000000000000000000000000EB
:107B70000000000000000000000000000000000005
:107B800000000000000000000000000000000000F5
:107B900000000000000000000000000000000000E5
:107BA00000000000000000000000000000000000D5
:107BB00000000000000000000000000000000000C5
:107BC0000000000000007C3E1818181008100C106F
:107BD000042006200620024003400140018001806D
:107BE00001000100010002003E003C000000000016
:107BF0000000000000000000000000000000000085
:107C00000000000000000000000000000000000074
:107C10000000000000000000000000000000000064
:107C20000000000000000000000000000000000054
:107C30000000000000000000000000000000000044
:107C40000000000000003FF830383030206020E0B5
:107C500000C001800380030006000E040C04180C11
:107C600030183FF800000000000000000000000095
:107C70000000000000000000000000000000000004
:107C800000000000000000000000000000000000F4
:107C900000000000000000000000000000000000E4
:107CA00000000000000000000000000000000000D4
:107CB000000C0010002000200020002000200020E8
:107CC0000020002000200020002000C00180004093
:107CD00000200020002000200020002000200020A4
:107CE0000020002000200010000C00000000000018
:107CF0000000000000000000000000000000000084
:107D00000000000000000000000000000000000073
:107D10000000000000000000000000000000000063
:107D20000000000000000000000000000080008053
:107D30000080008000800080008000800080008043
:107D40000080008000800080008000800080008033
:107D50000080008000800080008000800080008023
:107D60000080008000800080008000800000000013
:107D70000000000000000000000000000000000003
:107D800000000000000000000000000000000000F3
:107D900000000000000000000000000000000000E3
:107DA00000000000000000000000000000000000D3
:107DB000180004000200020002000200020002009B
:107DC00002000200020002000200018000C0010067
:107DD0000200020002000200020002000200020093
:107DE0000200020002000400180000000000000071
:107DF0000000000000000000000000000000000083
:107E00000000000000000000000000000000000072
:107E10000000000000000000000000000000000062
:107E200000000000000000000000000000001E0034
:107E300023004182408200E400380000000000007E
:107E40000000000000000000000000000000000032
:107E50000000000000000000000000000000000022
:107E60000000000000000000000000000000000012
:107E70000000000000000000000000000000000002
:107E800000000000000000000000000000000000F2
:107E900000000000000000000000000000000000E2
:107EA000000000000000000000000000D6D06000CC
:107EB00020002000FE0722042204FE0722042000E6
:107EC000200020000000BEB0FC030402FC03FC0301
:107ED0002000FE07F8030402F801580366040000BE
:107EE000D4B00000FE07F2050204FA055204520461
:107EF00052078A050204FE070000B5E720002000B3
:107F0000FE0322022202FE032202FE0322002004BC
:107F1000E0070000D7D30000FC03800160002000D0
:107F2000FE07200020002000200030000000D6D0F6
:107F30000000800180018001FC3F84218421842194
:107F40008421FC3F84218001800180018001800127
:107F5000BEB00000F81F0810F81F0810F81F8000BE
:107F6000FE7F0000F81F1810F81F10053819CC21EB
:107F7000C400D4B00000FE3FFC3F0420E4270420EE
:107F8000F42F442244224422642A343E1420FC3F2D
:107F900004200600B5E70000800080008000FC1F80
:107FA00084108410FC1F84108410FC1FFC1F8400AC
:107FB0008040807F0000D7D300000000FC3F001C01
:107FC000000680018001FE7FFE1F8001800180018C
:107FD00080018001E0000000B0E600000000000029
:107FE00088011098F13F98F10198110098110098BC
:107FF000110098F11FF8F71F18D01818D01818D0D2
:1080000018F8D118F8910898990D88990D881907D2
:108010008C09078C0D078C8D0D86E7388461300044
:108020000000B1BE000000000000001800001800B1
:10803000001800001800FCFF3FFCFF3F007E00001E
:108040007E00005B0000DB00809901809901C01870
:108050000360180770180EB8FF3D9CFF390C18001C
:10806000001800001800001800000000B2CB00004B
:108070000000000000C30000C300FEFF7F00C3003B
:1080800000C30000E00FF8FF1F00080430180E6066
:108090001806E00803401802001800FEFF7F007E6B
:1080A0000000DB01809903E0180F70187C1E18385F
:1080B0000C1800000000B5A50000000080008081C1
:1080C0000180C10100C30080C000F0FF0F30180C18
:1080D00030180C30180CF0FF0F30180C30180C3022
:1080E000180CF0FF0F001800001800041860FCFFC7
:1080F0007F001800001800001800001800000000A1
:10810000C9E800000000000018000038F803700CF7
:1081100003600C03000C03000C03000E033E073F3A
:108120003E033E30000030FE0F300C0C30080630AD
:108130001806301803B0B103F0E101F0E00070F868
:1081400003301E7E800738000000D6C30000000008
:108150000000F8FF1FF8FF1F184218184218F8FF18
:108160001F0018000C1810FCFF1F001800E0FF078C
:10817000E0FF07600006E0FF07600006E0FF07E0A1
:10818000FF07600006E0FF07600006FEFF7F0200B9
:1081900000000000E3D0000000000000300000708C
:1081A000FE3F60003120B0310030330C3030ECFF46
:1081B000370C30300C3031EC27334C24314CE43167
:1081C0004CE431ECC7300CC0300CEE34FCFF3F6C9B
:1081D00030370C18300C003E0C001C000000D6B5E7
:1081E000000000000000C0C000C0C00060FF3F6091
:1081F000FF3F30C00030C00038FC0F3C0C0C3C0C82
:108200000C36FC0F340C0C300C0C30FC0F30FC0F17
:10821000300C0C30FC0F30FC0F300C0CB0FF7FB07A
:10822000FF7F300000000000B1A8000000600000E7
:1082300060000060F81F601818601818601818FEB9
:108240001B0860180F60180760180060FA1FE05BD9
:1082500018FCD8187ED80C60980C60980D60180730
:1082600060180760980F60D81D78F878387820007B
:108270000000BEAF000000600601608601FCDF7FE9
:1082800060C67F706018F0DF081C980DFE19071893
:108290001906F8ED7FF8D920021840FEFF7F000094
:1082A00000E0FF07000000E0FF07000000E0FF071C
:1082B000200004E0FF07E0FF07000000B5F7000022
:1082C0000000000010000038FC3F700C20608C2182
:1082D000008C2100EC2700EC273E8C21308C2130D3
:1082E000EC2F302C2C300C2030E427306424B06587
:1082F00024F0662470E62730062000033080033C1B
:1083000080013C000000CAD400000000000008808A
:108310000D1C801918803930801100800180FF3FCA
:108320000080013E80013E800130BF0130BF01303E
:108330000C01300C03300C03300C03B00D03F06C57
:1083400026707C66380F6C10013C0000380000007D
:10835000C4A300000000200630200630200630FEB6
:108360003F302006300006FEFD1F30FC1F300C1091
:1083700030FC1FF8FC1FB80D10BCFD1F3CFF1F3662
:10838000800034FE7F30FE7F30C003306006303026
:108390000C301E38300630000000CABD000000005E
:1083A000100000300200300700300E003004FEFFE5
:1083B0003FFEFF3F006000006000006000F86F00BB
:1083C000F86F00C0C000C0C000C0C000C08001C0C5
:1083D0008001C09C63E00F67FC007E1C003C000035
:1083E00038000000D2C7000000004000E0600060DC
:1083F000600060600C30E60C30C60C380606380CA5
:10840000063C0C063C0C0236180330180330B80149
:1084100030B00130E00030E00030F00130B803301F
:108420001C0F300F7CF00338300020300000C6F7FE
:10843000000000000000F8E71F182608182608189A
:108440002608F8E70F000000009803000C01FCFF6D
:108450003F003E0000E700E0C17F7C003E040000DA
:10846000F8E70F182608182608182608F8E70F1846
:108470002608182608000000D0C5000000000000F3
:10848000E0C00060C00060400030FF7F300000307E
:10849000000038FE1F3CFE1F3C000036061034FE74
:1084A0001F30000030000030FE1F30041830041868
:1084B00030041830041830FC1F3004183004180041
:1084C0000000CFA20000000002000006000006002D
:1084D000F0FF0F30000C30000CF0FF0F30000C30BC
:1084E000000CF0FF0F30000C30000CF0FF0F00000C
:1084F000000010008019089831188C31308C0173FD
:108500008C012384FF0300FF00000000BBF9000082
:1085100000808101808101808101F8FF1F8081013D
:1085200080810180FF0180810180810180FF0180C5
:108530008101808101FEFF7F808101C018037018D6
:108540000EBCFF3D9EFF31041800001800F8FF1F0D
:10855000F8FF1F000000D7BC00000000800000DC16
:1085600001048C030E0C011C060038FE3F3087010D
:10857000008701808701C0FF1F80FE1F0086013039
:10858000860130860118FE1F1886011886010C86A8
:10859000010E860106FE7F000600000600000000B6
:1085A000BCEC00000000000020C00020E00020E043
:1085B00001203001FC3103FC190E300C1C30FE7B15
:1085C00030F723380200F84018ACCD18ACCF0C2699
:1085D000CC0C26980D20980620180620000220FFBB
:1085E0003F20FF3F200000000000B2E2000000003A
:1085F00000000800309C7F30B87F30806136806199
:1086000032806D32846D328C6D32B86D32906D3245
:10861000806D32806D32B06D32B06D32100436181C
:1086200016360C3E300C73300E633086C13C8040F1
:108630001C000000B0B2000000000800000C0000A8
:108640001800001800F8FF1F180018180418180E5A
:1086500018000600000600040320FCFF3F80010311
:10866000808101C08001E0C700007E0000F00100B1
:10867000DC07800F1EFC033C780010000000C8AB34
:10868000000000000000001800001C00003E000078
:10869000670080C300C08103E0000778003EDEFF72
:1086A0003FCCFF27001800001800001800F0FF0F53
:1086B000F0FF0F001800001800001800001800FC60
:1086C000FF1FFCFF1F000000CEA300000000010000
:1086D000800300800100C0FF03E0FF013080011C27
:1086E000C000FEFF3FF4FF3F30000030000030FECE
:1086F0000730060630060630060630C60730C603C9
:108700001806001806301C06300EFE1F0CFC1F0059
:108710000000CFD500000000000000E000FCE000F9
:10872000CCB001CC30034C18074C1C0E6C0C1C6CEC
:10873000FF7FACFB276C0000CC0000CC640CCC4469
:108740000C8CCC0CCCCC04FCC8066C08060C0002CB
:108750000C00030CFF3F0C0000000000C1E900000A
:1087600000000000F0FF0FF0FF0F00000C00000CF5
:10877000F0FF0F00000C00000CF0FF0FF0FF0F00E7
:10878000000000180060180C301806301C06383C39
:1087900003003E0000E60080C301E0810FFE007E82
:1087A0001C0038000000C3F40000000000006080DE
:1087B00001308001F89F0118D0000CC07FF6CF7FF8
:1087C000F86F18D86C18D87C18986508FEDF08FE7A
:1087D000DF0C58840CC8840D888407480707FC1FE9
:1087E0000700860F00C61D807378803320000000CC
:1087F000B6C8000000000000003800003000F8FF9C
:108800001FF8FF1F180603180603180603D8FF1FDA
:1088100018060318060318FE0318FE031800009834
:10882000FF07180603180C030898010CF8000CF059
:108830000006DF1FE4073E000000B5CD0000000089
:10884000000060000860801F60FE073082003082F8
:10885000003882003882003C82003CFE3F36FE3FFA
:108860003482013082013082013002013022033033
:108870003203303A23301E6630376C30623C304071
:1088800038000000D6D000000000180000180000DA
:108890001800001800001800F8FF1FF8FF1F181834
:1088A00018181818181818181818181818F8FF1F7A
:1088B000F8FF1F1818180018000018000018000012
:1088C0001800001800001800001800000000B8DFB1
:1088D000000000000000001800001800FCFF3F002E
:1088E0000000000000E0FF03600002600002E0FF03
:1088F00003000000000000FCFF3F0C00300C0030C3
:108900008CFF318C81318C81318CFF310C00300C2B
:10891000003C0C001C000000BCC700000000000070
:1089200010000038FC1F70FC1FC000184000180029
:1089300000180000187E001860001860F81F60180A
:1089400018601818601800601800601800601B009C
:10895000E01B00E01960F0187030F83F00F03F00B5
:108960000000C2BC000000000000000000F0FF0793
:10897000000006000006E0FF07E0FF070000060019
:108980000006FEFF7FFEFF7F10180030180C7038C5
:108990000EC0F80340FE0180DB01E099037C180F54
:1089A0001C187C041E30001E00000200B2E900000A
:1089B00000000000001800001800001800FCFF3F35
:1089C000005B0080DB00C09903E0180F78187CFE84
:1089D000FF3FE4FF07600006E0FF07E0FF076000DD
:1089E00006600006E0FF07000000000000FCFF3FFB
:1089F000FCFF3F000000D1AF000000001000187025
:108A00000018300030180070F83F00FC3F000E20C6
:108A10000006203EFF23BEFF23300D23300C233001
:108A20000C2330FC23300C23300C23B00C23F00D2E
:108A300023F0FC2370002038003C10003C000000B4
:108A4000D0F2000000002000003000007000F8FFAD
:108A50007F18004018000098FF0F98FF0F180807B4
:108A600018F80118F00018E000D8FF3FD8FF3F18B1
:108A700060381860181C60000C60000C60000E600C
:108A800000067800007800000000BAC50000000071
:108A90000000000000E0FF076000066000066000C4
:108AA00006600006E0FF07000000000000FEFF7FF8
:108AB000FEFF7F800100800100800000C0FF0700F2
:108AC000000600000600000600000700F80300F0A2
:108AD00003000000CAB100000000000C00000C0000
:108AE000000CFC010C8C010C8C010C8CFD7F8C01AA
:108AF0000C8C010CFC010C8C310C8C310C8C610C3D
:108B00008C610C8C010CFC010CFC010C8C010C8C9C
:108B1000010C0C000C00000F000007000000BCE47A
:108B200000000020000070000060FC3FC0003040EA
:108B300000300C00300C00308CFF318C81318C8186
:108B4000318C81318CFF318CFF318C81318C8131C2
:108B50008C81318CFF318CFF310C00300C00300CDB
:108B6000003E0C001C000000BDE100000000000001
:108B700020800170800130800118FC7F18FD7F8CFF
:108B800083018C8101FE80016EF83F60002030007F
:108B90000010000098F91FFE19100C181000181092
:108BA000001810F8F91FFEF81F0618100018100022
:108BB0000000B9FB000000000000F0FF0FF0FF0F05
:108BC00030180C30180CF0FF0FF0FF0F30180C307D
:108BD000180CF0FF0FF0FF0F001800FCFF3FFCFF28
:108BE0003F00DE0000DB01809903E0180778183EA3
:108BF0001C1838041820001800000000CEDE000009
:108C000000000000000000F0FF0FF0FF0F000C005C
:108C1000000C00000C00000C00000C00FCFF3FFCEE
:108C2000FF3F00640000660000660000660000630D
:108C300000806300C06130E060307060303CC03F55
:108C40001C0000000000BFAA00000000000000009F
:108C500000F8FF1F008301008301008301008301EE
:108C6000008301008301008301FEFF7FFEFF7F0080
:108C70008301008301008301808101808101C08024
:108C800001E080017080013C80011880010000003B
:108C9000B9D800000000000080810180810100C37C
:108CA0000000C300006000F8FF1F0018000018005B
:108CB000001800001800001800FCFF3FFCFF3F00F8
:108CC0003C00007C0000E60000C701808307E00054
:108CD0003F7C003C180010000000CEDE00000000C9
:108CE000000000000000000000000000E0FFFF079F
:108CF000E0FFFF07E0FFFF0700E0000000E00000EA
:108D000000E0000000E0000000E0000000E00000E3
:108D100000E00000F8FFFF1FF8FFFF1F00600E00DB
:108D200000600E0000700E0000700E0000300E009B
:108D300000380E0000180E00001C0E00000E0E1869
:108D400000070E3880070E38E003FC3FF800FC1FD8
:108D50007800F80F1000000000000000BCC7000001
:108D60000000000000000000000060000000F0E0D3
:108D7000FF0FE0E1FF0FC0E3FF0F0007000E00034D
:108D8000000E0000000E0000000E0000000EFC01AE
:108D9000000EFC01000EC0C1FF0FC0C1FF0FC0C11B
:108DA000FF0FC0C1010EC0C10100C0C10100C0C1A0
:108DB0000100C0C10100C0C10100C0D90100C0DD77
:108DC0000100C0CF0130C0C70138E0830138E08125
:108DD000FF3FC080FF1F0000FE0F00000000C2BC6C
:108DE0000000000000000000000000000000000083
:108DF000E0FFFF03E0FFFF030000800300008003AB
:108E0000C0FFFF03C0FFFF01C0FFFF0100008001A2
:108E100000008001FCFFFF3FFCFFFF3F00800300DC
:108E20000080030060800303E0808307C083C303E6
:108E30008087E70000A37F0000B81F0000BE3B0052
:108E4000808FF300F083E303FE80830F3C80033FB9
:108E500008F0011C00F0011000F00000000000000C
:108E6000B2E200000000000000000000000000006E
:108E70000000000000000000000FE0000000000FF4
:108E8000F0010000000FF0C7FF3F000FC0CFFF3F11
:108E9000000F80CFFF3F000F00C703381E0F00C038
:108EA00003381E0F00C003381C0F00C003381C0F0E
:108EB00000C0F3391C0F00C0E3381C0F30C0E3388A
:108EC0001C0F78C0E3381C0FFCC0E3381C0FF0C146
:108ED000E3381C0FE0C7E3381C0FC0C7E3381C0F92
:108EE00080C3E3381C0F00C1E3381C0F00C0E33817
:108EF0001C0F00C0E3381C0F00C0E3381C0F00C279
:108F0000F3381C0F00C6F3381C0F00DFF3381C0FBA
:108F100000CF73381C0F00CF73381C0F8007780008
:108F20001C0F800778001E0FC00378021E0FC003BD
:108F30003C071E0FE001BC0F000FE0011E0F000FE9
:108F4000F0001E1E000FF8000F3E000F78800F7C0F
:108F5000000F7C800778000F7CC007F8F00F30E02E
:108F60000370F00F20F00120E00700C00000E003D4
:108F700000000000000000000000000000000000F1
:108F80000000CAD400000000000000000000000043
:108F9000000000E04100000000E0E100C00000E04F
:108FA000F101E00100E0E103E00300E0C103C007DC
:108FB00000E08107800700E08107000F00E0010367
:108FC000000F00C00100000600C0010000C0FFFF4C
:108FD000FF0F00C0FFFFFF0F00C0FFFFFF0F0000EB
:108FE00000C00100000000C00100FC0700C0030039
:108FF000FC0700C00300FC0700C00300FC0700C022
:1090000003000007FECF03000007FE8F03000007E8
:10901000FE8F03000007FE8F03000007E0800700BB
:109020000007E08007000007E08007000007E080FD
:1090300007000007E00007000007E0000F0000073E
:10904000E0000F000087E0000F0000C7E1001E00F5
:1090500000E7E1001E0000F7E1101E0400FFE01E23
:109060003C0C007FE01F3C3C003FFE3F783E801FF1
:10907000FF03781EC00F3F00F01E80070600F01FA0
:1090800000030000E00F00010000C00F000000001E
:109090008007000000000002000000000000000047
:1090A00000000000C9CF0000000000000000000028
:1090B00000000000000000000000F00000000000C0
:1090C000F00000000000F00000000000F0000000D0
:1090D0000000F00000000000F00000000000F000C0
:1090E00000000000F00000000000F00000000000A0
:1090F000F00000000000F00000000000F0000000A0
:109100000000F00000000000F00000000000F0FF90
:10911000FF030000F0FFFF030000F0FFFF0300006B
:10912000F0FFFF030000F00000000000F00000006E
:109130000000F00000000000F00000000000F0005F
:1091400000000000F00000000000F000000000003F
:10915000F00000000000F00000000000F00000003F
:109160000000F00000000000F00000000000F0002F
:1091700000000000F00000000000F000000000000F
:10918000F00000000000F00000000000F00000000F
:10919000F8FFFFFFFF3FF8FFFFFFFF3FF8FFFFFF74
:1091A000FF3FF8FFFFFFFF3F00000000000000004E
:1091B00000000000000000000000000000000000AF
:1091C000000000000000B4AB000000000000000040
:1091D000000000000010003C00000070003C000097
:1091E00000F8013C000000F8003C00000078003C62
:1091F0000000007C001C0000003C001C0000003C43
:10920000FEFFFF07001EFEFFFF07001EFEFFFF0719
:10921000001F001E0000000F000E0000800F000E57
:109220000000C00F000E0000C00F000F0000E00F94
:10923000000F0000E0CFFFFFFF1FF0CEFFFFFF1F7A
:10924000F8CEFFFFFF1F7C0E800700003C0E80075A
:1092500000003C0E80030000180EC0030000000E4A
:10926000C0030000000EC0FFFF01000EC0FFFF01A1
:10927000000EE0FFFF00000E0000F000000E0000F6
:109280007800000E00007800000E00003C00000E88
:1092900000003C00000E00031E00000E000F1E0028
:1092A000000E803F1E00000E00FF0F00000E00FCAD
:1092B0000F00000E00F00F00000E00E03F00000E57
:1092C00000807F00000E0000FE01000E0000F8008C
:1092D000001F0000700000000000400000000000BF
:1092E0000000000000000000B0E6000000000000E8
:1092F00000000000000000000000000000C00100AD
:109300000006C0C30100E007C0C101E0FF07C0C103
:1093100081FFFF0FC0C181FF7F00C0C1810F00002E
:10932000C0C101070000C0C101070000C0C10107A2
:109330000000C0C101070000C0C101070000C0C19A
:1093400001070000C0C101FFFF07C0FF1FFFFF07AB
:10935000C0FF1FFFFF03C0FF1F778003C00100771E
:109360008003C00100778003C00100F7C003C00183
:1093700080F7C003C00180E7C003C00180E7C001DF
:10938000C0FF83E3C001C0FF83E3E001C0FF83E3CC
:10939000E101C08183C3E101C08183C3E100C081D9
:1093A00083C3F300C08183C3F300E081C3837300F0
:1093B000E081C3817F00E081C3013F00E080E301E1
:1093C0003F00E080E3013E00F080E3001F00F080FA
:1093D000F3807F00F080F3C0FF0070807BE0F3013A
:1093E00078807FF8E107788033FCC03F3880037EC7
:1093F000801F2000003C000E000000080004000058
:1094000000000000000000000000B1BE00000000ED
:1094100000000000000000000000C0030000000089
:10942000C00300000000C00300000000C0030000F3
:109430000000C00300000000C00300000000C003E3
:1094400000000000C00300000000C0030000700026
:10945000C003000FF0FFFFFFFF0FF0FFFFFFFF0F44
:10946000F0FFFFFFFF0F0000F81F00000000FC1FCF
:1094700000000000FC3F00000000DE3B0000000098
:10948000DE7B00000000CE7B00000000CFF3000078
:109490000080C7F300000080C7E3010000C0C3E301
:1094A000010000C0C3C3030000E0C1C3070000F017
:1094B000C1830F0000F8C0031F000078C0033E0006
:1094C000007CC0037E00003EC003FC00001FC00300
:1094D000F80180CFFFFFF707E0C7FFFFE70FF0C3FA
:1094E000FFFFC71FFCC1FFFF070FF800C003000606
:1094F0006000C00300002000C00300000000C003A3
:1095000000000000C00300000000C00300000000D5
:10951000C00300000000C00300000000C003000002
:10952000000000000000000000000000B0B20000D9
:10953000000000000000000000000000E00000004B
:109540000000F00100000000E00100000000E00366
:1095500000000000C00700000000800300000000C1
:1095600080010000C0FFFFFFFF03C0FFFFFFFF03FC
:10957000C0FFFFFFFF03C0030000C003C0031000D3
:10958000C003C0037800C003C003F800C003C003D9
:109590007800C00300003C00C00300003C00000055
:1095A00000001E00000000001E00000000000F0070
:1095B0000000F0FFFFFFFF1FF0FFFFFFFF1FF0FFA6
:1095C000FFFFFF1F008007000F0000C0038007009F
:1095D00000E00180070000E001C0030000F000C0CF
:1095E000030000F000E0010000F80FF0010000F0BF
:1095F000FFF000000000FF7F00000000F83F0000C7
:109600000000C0FF0000000080FF03000000E0F742
:109610001F000000F8C37F000000FF00FF0100E012
:109620007F00FC0780FF0F00F00FE0FF0300C00F7A
:10963000C07F00008007C00F000000028000000013
:109640000000000000000000000000000000C8ABA7
:109650000000000000000000000000000000C0004A
:1096600000000000C00300000000E0030000000054
:10967000F00700000000F00700000000F80F0000F5
:1096800000007C1E000000003E3E000000001F7C29
:10969000000000801FF8000000C00FF0010000E093
:1096A00007E0030000F003C00F0000FC01803F0052
:1096B00000FE0000FF00803F0000FC07E01F0000EC
:1096C000F83FFCFFFFFFFF1FF8FBFFFF9F0FF0F8C5
:1096D000FFFF1F0E3000C00300080000C0030000A1
:1096E0000000C00300000000C00300000000C00331
:1096F00000000000C00300000000C00300000000E4
:10970000C003000000FEFFFFFF0000FEFFFFFF00A0
:1097100000FEFFFFFF000000C00300000000C003C8
:1097200000000000C00300000000C00300000000B3
:10973000C00300000000C00300000000C0030000E0
:109740000000C0030000E0FFFFFFFF07E0FFFFFF96
:10975000FF07E0FFFFFFFF0700000000000600001A
:1097600000000000000000000000000000000000F9
:10977000CEA30000000000000000010000000080F7
:109780000700000000801F00000000C0070000006C
:1097900000E00700000000E00300000000F0FFFF11
:1097A0000F0000F8FFFF070000FCFFFF0700003E6E
:1097B00000C00300001F00C00300800F00E0010094
:1097C000E00700E00100F00300F00000FCFFFFFFF5
:1097D000FF0FF8FEFFFFFF0F70FEFFFFFF0F00FE01
:1097E000FFFFFF0F001E00000000001E0000000031
:1097F000001E00000000001E00000000000EFEFF22
:109800003F00000EFCFF3F00000EFCFF3F00000E7B
:109810001C003C00000E1C003C00000E1C003C0024
:10982000000F1C001C00000F1C001C00000F1C007F
:109830001E00000F1CF01F0080071CF01F00800797
:109840001CE00F0080071CE00000C0071C000000A7
:10985000C0031C000003E0031C00000FE0031C0019
:10986000800FF0013C008007F801FCFFFF07FC00BF
:10987000FCFFFF077800F8FFFF036000E0FFFF0038
:1098800000000000000000000000000000000000D8
:109890000000CFD500000000000000000000000024
:1098A000000000380000000000F80000F0FF01F8A0
:1098B0000000F0FF01FC0000F0FF01FC0100F0E0FF
:1098C00000DE0300F0E0009E0300F0F0008F0700D0
:1098D000F07080070F00F07080071E00F070C0036A
:1098E0003E00F078E0017C00F038F001F800F0383C
:1098F000F800F003F03C7800E007F01CFEFFDF1FEB
:10990000F01CFFFF9F3FF09EDFFF1F1FF01E0F00A8
:10991000000CF03C06000000F03802000000F07877
:1099200000000000F07000303000F0F0003CF0016A
:10993000F0E03838F001F0E07838F000F0E07178CD
:10994000F000F0E071787000F0E071707800F0E005
:10995000F1707800F0F0E1F03800F0FEE0F038004F
:10996000F0FCE0F03C00F03CE0111C00F00CC00109
:109970001C00F00040001E00F00000000E00F0008F
:1099800000000E00F00000000E00F000FFFFFF1FBF
:10999000F000FFFFFF1FF000FFFFFF1FF0000000BF
:1099A0000000F000000000000000000000000000C7
:1099B00000000000BBF900000000000000000000F3
:1099C000000000E001C0030000E001C0030000E06F
:1099D0000180030000E00180030000E0018003003B
:1099E000C0FFFFFFFF03C0FFFFFFFF03C0FFFFFF3C
:1099F000FF0300E00180030000E00180030000E0BD
:109A00000180030000E0FFFF030000E0FFFF030010
:109A100000E0FFFF030000E00180030000E00180A0
:109A2000030000E0FFFF030000E0FFFF030000E091
:109A3000FFFF030000E00180030000E0018003005D
:109A400000E001800300F8FFFFFFFF1FF8FFFFFFAA
:109A5000FF1FF8FFFFFFFF1F00C007C0030000C08B
:109A60000380070000E0C1030F0000F8C0031E00E0
:109A7000007CC0037C00003FC003F801C01FC0038E
:109A8000F007F8E7FFFFE33FF8E3FFFF831FF8E08D
:109A9000FFFF030F3000C003000C0000C0030000F4
:109AA0000000C00300000000C00300000000C0036D
:109AB0000000C0FFFFFFFF03C0FFFFFFFF03C0FF69
:109AC000FFFFFF0300000000000000000000000096
:109AD000000000000000D7BC0000000000000000F3
:109AE00000000000000020C000000000E0E00100D5
:109AF0000000F0E103002000F0C007007000F080DB
:109B00000700F800F8000F00F80178000300F003E8
:109B100078000100E007FCFFFF0FC007FCFFFF0F0C
:109B2000800FFEFFFF0F001F3EC00300000E3FC06E
:109B3000030000843FC0030000803FC0030000C05A
:109B40003FC0030000C03FC0030000E03FC0030669
:109B500000E0FDFFFF0700C0FCFFFF070080FCFFE7
:109B6000FF0700003CC0030000023CC00300000EE1
:109B70003CC00300000F3CC00300000F3CC00300CA
:109B800000073CC003008007FCFFFF078007FCFFC5
:109B9000FF07C003FCFFFF07C0033CC00300E00158
:109BA0003CC00300E0013CC00300F0013CC00300E6
:109BB000F0003CC00300F8003CC003007800FCFF4C
:109BC000FF1F7C00FCFFFF1F7000FCFFFF1F200039
:109BD000FCFFFF1F00003C00000000003C000000F4
:109BE00000003C00000000003C00000000000000FD
:109BF0000000000000000000BCEC000000000000BD
:109C0000000000000000001E00100000001E00F018
:109C10000000001E00F80000001E00F80000001EFA
:109C200000F80000001E00FC0100001E00DC030024
:109C3000001E009E0700001E000F0700001E000F00
:109C40000F00F8FF87071E00F8FFC7077C00F8FF2A
:109C5000C703F800001EE001F803001EF001F00F3A
:109C6000001FF8FFCF3F001F7CFF8F1F001F3FFF2B
:109C70000F0E801F1E00000C801F0C000000C09FF4
:109C800000000000C0FF0030C000E0FF417CC003C6
:109C9000E0FF6178C003F0DE7B78E003F0DEFFF0E8
:109CA000E001789EF3F0E001789EF0E1F0003C1EC8
:109CB000E0E1F1003C1EE0E17100181EC0E3790014
:109CC000101EC0C37900001EC0073800001E8007A8
:109CD0003C00001E80011C00001E00001E00001E33
:109CE00000001E00001E01000E00001EFFFFFF1FEF
:109CF000001EFFFFFF1F001EFFFFFF1F001E0000D2
:109D00000000001E00000000001E00000000000017
:109D100000000000000000000000D6D0000000009D
:109D200000000000000000000000C0030000000070
:109D3000C00300000000C00300000000C0030000DA
:109D40000000C00300000000C00300000000C003CA
:109D500000000000C00300000000C003000000007D
:109D6000C0030000C0FFFFFFFF03C0FFFFFFFF03B2
:109D7000C0FFFFFFFF03C003C003C003C003C00355
:109D8000C003C003C003C003C003C003C003C003BB
:109D9000C003C003C003C003C003C003C003C003AB
:109DA000C003C003C003C003C003C003C003C0039B
:109DB000C003C003C003C003C0FFFFFFFF03C0FF19
:109DC000FFFFFF03C0FFFFFFFF03C003C003C0038B
:109DD000C003C003C003C003C003C0030000C0032E
:109DE00000000000C00300000000C00300000000ED
:109DF000C00300000000C00300000000C00300001A
:109E00000000C00300000000C00300000000C00309
:109E100000000000C00300000000C00300000000BC
:109E2000C00300000000C00300000000C0030000E9
:109E3000000000000000000000000000EEDEBE7E1A
:109E4000EDDDBD7DEBDBBB7BE7D7B7770102030C14
:109E50000405060D0708090E0A000B0F0006101670
:109E600000061016000000000000000001020304BC
:109E70000607080900000000010203049C9E000878
:109E80000000002024000000242B0008C09E0008D1
:109E9000240000209C050000342B00080000000076
:109EA00000000000000000000100000010000000A1
:109EB000000000000024F40000000000000000008A
:040000050800018965
:00000001FF
