:020000040800F2
:1000000080A2002089020008FB510008BB220008E2
:10001000F9510008C50A00087D67000800000000CB
:10002000000000000000000000000000F75400087D
:10003000890D000800000000F55400088D550008E7
:10004000A3020008A3020008A3020008A3020008FC
:10005000A3020008A3020008A3020008A3020008EC
:10006000A3020008A3020008A3020008A3020008DC
:10007000A3020008A3020008A3020008A3020008CC
:10008000A3020008A3020008A3020008A3020008BC
:10009000A3020008A3020008A3020008A3020008AC
:1000A000A3020008A3020008A3020008A30200089C
:1000B000A3020008E55500081D560008A302000829
:1000C000A3020008A3020008A3020008A30200087C
:1000D000A302000851670008A3020008A302000859
:1000E000A3020008A3020008A3020008A30200085C
:1000F000A3020008A3020008A3020008A30200084C
:10010000A3020008A3020008A3020008A30200083B
:10011000A3020008A3020008A3020008A30200082B
:10012000A3020008A3020008A3020008A30200081B
:10013000A3020008A3020008A3020008A30200080B
:10014000A3020008A3020008A3020008A3020008FB
:10015000A3020008A3020008A3020008A3020008EB
:10016000A3020008A3020008A3020008A3020008DB
:10017000A3020008A3020008A30200080000000078
:10018000A3020008A302000800F002F800F06DF8D6
:100190000AA090E8000C82448344AAF10107DA45E2
:1001A00001D100F062F8AFF2090EBAE80F0013F0C7
:1001B000010F18BFFB1A43F001031847A4520400B3
:1001C000C45204000A444FF0000C10F8013B13F035
:1001D000070408BF10F8014B1D1108BF10F8015BA0
:1001E000641E05D010F8016B641E01F8016BF9D193
:1001F00013F0080F1EBF10F8014BAD1C0C1B09D1EA
:100200006D1E58BF01F801CBFAD505E014F8016B5B
:1002100001F8016B6D1EF9D59142D6D370470000ED
:100220000023002400250026103A28BF78C1FBD8FF
:10023000520728BF30C148BF0B607047642900F0E7
:100240001781752900F01481782900F04D81632908
:1002500000F07483732900F07983002070471FB584
:100260001BF073FE1FBD10B510BD00F091FB1146D1
:10027000FFF7F5FF17F05EFB00F0AFFB03B4FFF7ED
:10028000F2FF03BC08F027FF0948804709480047F0
:10029000FEE7FEE7FEE7FEE7FEE7FEE7FEE7FEE736
:1002A000FEE7FEE704480549054A064B7047000093
:1002B0009155000889010008809C002080A2002040
:1002C000809E0020809E0020704753EA020C00F0C0
:1002D00069802DE9F04B4FF00006002B1FBFB3FAE9
:1002E00083F503FA05F424FA05F65E4012BF1643BF
:1002F000B2FA82F502FA05F4C5F120051EBF22FA12
:1003000005FC44EA0C04203556EA044C4FEA144438
:1003100018BF641C4FF000084FF00009904271EBC9
:10032000030C39D3002919BFB1FA81F701FA07F696
:10033000B0FA80F700FA07F6C7F120071EBF20FACF
:1003400007FC46EA0C062037B6FBF4FCA7EB0507D2
:10035000103F07F01F0BCBF120060CFA0BFB2CFA19
:1003600006F644BFB3460026202FA4BF5E464FF0DA
:10037000000B5BEA060C08BF4FF0010B19EB0B09F1
:10038000ABFB027C48EB0608C01B06FB02CC0BFB58
:1003900003CC71EB0C01C1E70B46024641464846CF
:1003A000BDE8F08B13B54FF000004FF00001AFF344
:1003B0000080BDE81C4070470FB4044910B503AA83
:1003C000029800F0C7FA10BC5DF814FB180000207A
:1003D00070B5044685690068C10601D5302600E085
:1003E0002026C00707D070BDD4E9012130469047D0
:1003F000206A401C20626D1EF6D570BD70B50446A3
:1004000085690078C00707D170BDD4E9012120209B
:100410009047206A401C20626D1EF6D570BD70B5F5
:100420000C460546012A05D02878800600D5EA69E1
:10043000002302E0012305E05B1C934202D2E05C52
:100440000028F9D1A869E618C01AA861286A1844DA
:1004500028622846FFF7BCFF04E0D5E9012114F823
:10046000010B9047B442F8D32846FFF7C7FF70BD91
:100470002DE9F0410646002410687529314616A57D
:1004800010D0AFF30080002802DA404213A507E045
:1004900031688A0701D512A502E0490704D511A5E4
:1004A000012401E0AFF3008000210A2206F12407B5
:1004B00009E0B0FBF2FCB0FBF2F302FB1C003030B1
:1004C00078541846491C0028F3D123462A46304662
:1004D000BDE8F04100F0B7B9000000002D000000B9
:1004E0002B0000002000000070B504460D46214698
:1004F0001068AFF300802188090502D50F4A7A44BD
:1005000002E00E4A7A440E32002104F1240305E091
:1005100000F00F060009965D5E54491C0028F7D1D3
:1005200020780023000704D5702D02D009B10223E2
:1005300011322046BDE8704000F085B9BE4D040080
:100540002DE9F05F894604464FF0000ADFF874B1E8
:10055000FB44C0F820A02046E1688847002874D0FA
:10056000252806D0D4E901219047206A401C20624A
:10057000F1E700265F462046E168884720280546C7
:1005800007DB312D05D2781910F8200C08B106438D
:10059000F1E7B00701D526F00406C4F81CA0002737
:1005A000C4F818A02A2D09D0284606F035F938B32A
:1005B00004EB8708303DC8F8185019E059F8041BBF
:1005C000204604EB87029161E1688847012F0546C8
:1005D00018D1E069002820DA26F020061DE0D8F8BE
:1005E000180000EB800005EB40003038C8F8180018
:1005F0002046E1688847054606F00EF90028EED14E
:10060000012F0AD02E2D08D12046E16888477F1C93
:100610000546022F46F02006C4DBA069002803DA55
:10062000404246F00106A061F00701D026F0100616
:100630006C2D0BD0682D09D04C2D39D06A2D35D0BA
:10064000742D35D07A2D33D016E038E0E1682F468E
:1006500020468847B842054609D16C2F26D04FF472
:100660008060E168064320468847054604E06C2F19
:100670001AD04FF4807006430DB3A5F1410019283C
:1006800002D8203546F400664A46294620462660B0
:100690004E46FFF7D3FD80B101280BD0F61D26F0A2
:1006A000070000F1080956E74020E4E78020D8E77A
:1006B0000020D6E706F104094DE7284652E7206AF4
:1006C000BDE8F09F944D040040EA010310B59B077C
:1006D0000FD1042A0DD310C808C9121F9C42F8D0AC
:1006E00020BA19BA884201D9012010BD4FF0FF305D
:1006F00010BD1AB1D30703D0521C07E0002010BD73
:1007000010F8013B11F8014B1B1B07D110F8013BFE
:1007100011F8014B1B1B01D1921EF1D1184610BDDF
:1007200040EA0103024630B59B0710D14FF0013477
:1007300000E008C208C91D1B9D4315EAC41FF8D07C
:1007400013F0FF0102F8011B0DD01B0AF8E711F8A6
:10075000013B002B02F8013B05D011F8013B002BB7
:1007600002F8013BF3D130BD10B5431C02E010F894
:10077000011B71B18107FAD14FF0013202C88C1A06
:100780008C4314EAC211F9D0C01A0A0603D0C01E65
:1007900010BDC01A10BD0A0401D0801E10BD090290
:1007A000FCD0401E10BD00004FF0013C50F8042B5F
:1007B00051F8043B9A4221D1A2EB0C03934313EA74
:1007C000CC1317D150F8042B51F8043B9A4215D1A1
:1007D000A2EB0C03934313EACC130BD150F8042B78
:1007E00051F8043B9A4209D1A2EB0C03934313EA5C
:1007F000CC13DBD04FF00000704700BFD01A01BA15
:10080000B1FA81F101F0180122FA01F0CB40C1F1F7
:100810002001DBB2C0B2C01A2CFA01F3D11A914305
:1008200011EAC311E6D170477047704770477047AF
:1008300010B500F0A1F8006810BD10B5044600F036
:100840009BF8046010BD2DE9F0470D46994692468D
:10085000044600F124080168880604D5E06921F007
:100860001001216000E00120A84201DD471B00E0EB
:100870000027A1697A1902EB0900081AA061207803
:10088000C00602D42046FFF7A3FD002608E0D4E905
:1008900001211AF806009047206A401C761C20624D
:1008A0004E45F4DB2078C0060AD52046FFF790FDC0
:1008B00006E0D4E9012130209047206A401C2062E4
:1008C000381EA7F10107F4DC07E0D4E9012118F88C
:1008D00005009047206A401C2062281EA5F10105F2
:1008E000F3DC2046FFF78AFD2078000602D50220BF
:1008F000BDE8F0870120FBE701694A1C0261087826
:10090000704700B58FB0CDE901310021059105494F
:100910007944CDE9031011466846FFF711FE0FB088
:1009200000BD0000E5FFFFFF10B5436913B1AFF351
:10093000008001E0FFF773FD012010BD127800F187
:1009400024010A7000224A700122EDE711684FF07D
:10095000FF32E9E7074B70B50D467B44FFF7D1FF47
:100960000446284600F00CF810B14FF0FF3070BD7F
:10097000204670BD5BD90000004870471C9C0020D9
:10098000007B00F080007047004870471C9C0020EE
:100990007546FFF7F9FFAE4605006946534620F05D
:1009A0000700854618B020B5FFF77CFCBDE8204065
:1009B0004FF000064FF000074FF000084FF0000B1B
:1009C00021F00701AC46ACE8C009ACE8C009ACE8CE
:1009D000C009ACE8C0098D46704710B50446AFF3B6
:1009E00000802046BDE81040FFF748BC01F086BCFF
:1009F0002DE9F0410D460146002004464E1908E05D
:100A00000702301B401E80B200F007F8641C384417
:100A1000E4B2AC42F4D3BDE8F08110B5044601F075
:100A200015FD200AA02101EB4000C0B201F0DEFC60
:100A300001F04EFDE0B201F0D9FC01F049FD01F0FA
:100A400005FDA12001F0D2FC01F042FD002001F0E3
:100A500099FC044601F01AFD204610BD2DE9F04135
:100A600016460D460746002409E0E00025FA00F08E
:100A7000C1B2381980B200F006F8641CE4B2B44286
:100A8000F3D3BDE8F08170B50D46044601F0DEFCFD
:100A9000200AA02101EB4000C0B201F0A7FC01F048
:100AA00017FDE0B201F0A2FC01F012FD284601F0B2
:100AB0009DFC01F00DFD01F0E9FCBDE870400A204D
:100AC0000AF08ABCFEE7000070B50F4C0025C4F8A0
:100AD00080520E48016821F440010160016841F430
:100AE00080010160022004F520740AF083FC0848AC
:100AF000C0F8AC5202200AF07DFC012020600220E8
:100B00000AF078FC256070BD00804042001402406D
:100B100000804242154810B5016886B041F00201DC
:100B20000160016801F002010591016841F02001B6
:100B300001600068012400F020000094059003206B
:100B4000CDE9024001946946094800F0C7FCE00283
:100B500000906946074800F0C1FC0748C0F8AC4265
:100B60000648C0F8804206B010BD00003038024090
:100B700000040240001402400080424200804042D3
:100B800070B50F4C0026C4F880620E48016821F44D
:100B900040010160016841F480010160022004F518
:100BA00020740AF027FC08480125C0F8AC52022046
:100BB0000AF020FC256002200AF01CFC266070BDB3
:100BC0000080404200140240008042422DE9F0477C
:100BD000824617480024016821F440010160016841
:100BE00001601E200AF006FC0025124EDFF8489036
:100BF0002F464FF00108C6F8807202200AF0FAFB77
:100C0000C6F880826006040ED9F82C0208B1641C74
:100C1000E4B26D1CEDB2082DEDD3BAF1000F04D093
:100C2000FFF752FF2046BDE8F087FFF7A9FFF9E77D
:100C30000014024000804042008042422DE9F0470B
:100C400005461548016821F440010160016841F43E
:100C500080010160114E0027C6F8807202200AF060
:100C6000C9FBDFF83C8000244FF00109E909C8F80E
:100C7000AC126806050EC6F8809202200AF0BAFB94
:100C8000C6F8807202200AF0B5FB641CE4B2082C9E
:100C9000ECD3BDE8F0870000001402400080404221
:100CA0000080424270B50F48016821F440010160A4
:100CB000016841F4800101600B4E0120C6F8AC02CE
:100CC0000A4DC5F880021E2005F5207506F52B7625
:100CD0000AF090FB0024346002200AF08BFB2C60A9
:100CE00070BD00000014024000804242008040427B
:100CF00070B50D48016821F440010160016841F4BC
:100D00008001016009480125C0F880521E200AF0C8
:100D100071FB074C0020C4F8AC02022004F52B74D0
:100D20000AF068FB256070BD00140240008040425C
:100D30000080424270B511480024016821F440014E
:100D40000160016801600E4D0120C5F8AC020D4E36
:100D5000C6F8800207E0641CE4B2FA2C03D9FFF75E
:100D6000C7FF012070BD02200AF044FBD5F82C0219
:100D70000028F0D1C6F8800270BD000000140240C7
:100D800000804242008040427047000070B5B3F5D9
:100D9000804F05D06FF0704140F82210002070BDE8
:100DA00050F82230084C2340D1E9004544EA0514AC
:100DB0008D688E892D0245EA064589692C430C43CE
:100DC0001C4340F82240E9E70000F0CFF0B50C6882
:100DD00050F82450114A1540D1E90123D1E90367A5
:100DE0001A433E4332434E6932438E693243CE69E1
:100DF00032430E6A32434E6A32438E6A3243CE6ABF
:100E00003243CE6B096B32430A432A43082B01D18C
:100E100042F0400240F824200020F0BD8000F0FFA6
:100E200030B500EB82004268D1E9003443EA041394
:100E30008C688D89240244EA054423430C8A084DBA
:100E400002F0404205EB045423430C7D6D0105EB99
:100E50000464896923430B4313434360002030BD7E
:100E60000000F0FF70B5324888B00024016841F0FE
:100E700002010160016801F002010691016841F080
:100E8000040101600068012500F0040006900220C2
:100E90008DE83100032003906946264800F01EFBD0
:100EA0006803CDE900056946234800F017FBFFF70A
:100EB00031FE224EC6F8B442142006F52D760AF013
:100EC0008BFA356032200AF087FA8DF8144001223F
:100ED00005A9002000F000F9012205A9A42000F0D6
:100EE000FBF816208DF81400012205A9802000F0DF
:100EF000F3F80C208DF81400012205A9882000F0D9
:100F0000EBF8022205A9A12000F020F89DF81400BA
:100F1000302803D19DF81500032802D0012008B025
:100F200070BD43F2030106A0FFF746FA0020F6E782
:100F300030380240000402400008024000004142F4
:100F40004354502049443A25780D0A002DE9F041D8
:100F500015460F460446FFF7A5FE7020FFF76EFE0C
:100F6000FFF7E8FEE0B2FFF769FEFFF7E3FEFFF7E9
:100F700099FE7120FFF762FEFFF7DCFE00246E1E73
:100F800009E0B44201D0012000E00020FFF71EFE7E
:100F90003855641CE4B2AC42F3D3BDE8F041FFF72E
:100FA000A7BE00002DE9F143484F00244FF00A0985
:100FB000387882B0401CC0B2B0FBF9F209FB1201D4
:100FC000434DA046387009B10A2863D2012202A914
:100FD0000220FFF7BBFF9DF8080001075AD000F080
:100FE0000F00062856D2FF218140C84340F0C000C0
:100FF00085F820004FF00108002695F8201008FA27
:1010000004F0014239D033480422694630F8140014
:10101000FFF79CFF95F830009DF80010C0079DF881
:10102000010001F00F010ED000EB012105EB44009F
:10103000C1829DF802209DF8031002F00F0201EB1F
:10104000022181810FE000EB0120C0F5F07105EB7A
:10105000440081819DF802209DF8031002F00F02E8
:1010600001EB0221C1829DF800000821B1EB101FA5
:1010700003D005EB4400C6828681641CE4B2052CD3
:10108000BBD3A9894FF0010819B9E88A08B98DF8CE
:1010900008603E709DF80800C0060ED195F820004B
:1010A000010602D520F0800005E04FF6FF71A9810E
:1010B000E98200F0E00085F820003878F02801D9B6
:1010C00087F800904046BDE8FE8300002400002021
:1010D0002C000020AC0602082DE9F04115460E4612
:1010E00004460027FFF7DEFD7020FFF7A7FDFFF79E
:1010F00021FEE0B2FFF7A2FDFFF71CFE002408E08E
:10110000305DFFF79BFDFFF715FE070003D1641C60
:10111000E4B2AC42F4D3FFF7EBFD3846BDE8F08112
:101120002DE9F0433B4889B00024016841F00201F9
:101130000160016801F002010791016841F00401BA
:1011400001600068022600F00400079001AA012552
:1011500003270096DFF8C09082E8B0006946484651
:1011600000F0BCF96803CDE9000569462B4800F0A2
:10117000B5F9FFF7CFFCDFF8A880C8F8B4420A2021
:101180000AF02AF9C8F8B4520A200AF025F90397A0
:101190000096CDE901546946484600F09FF9642065
:1011A0000AF01AF9042205A948F2401000F04EF89E
:1011B0008DF8184005A91BA0FFF7FEF81CA105A893
:1011C000FFF7F2FA08BB48F240058DF814600122DF
:1011D00005A9284600F046F9012205A9E81D00F0FE
:1011E00035F89DF81410602905D213A0FFF7E4F834
:1011F000012000F011F90A200AF0EEF88DF81440F1
:10120000012205A9284600F02DF909B00020BDE80B
:10121000F083000030380240000402400008024021
:10122000000041424354502049443A25730D0A00BE
:10123000393134370000000044656661756C7420F4
:101240005665723A25640D0A000000002DE9F04150
:1012500015460F460446FFF725FD2820FFF7EEFC54
:10126000FFF768FD200AFFF7E9FCFFF763FDE0B236
:10127000FFF7E4FCFFF75EFDFFF714FD2920FFF701
:10128000DDFCFFF757FD00246E1E09E0B44201D0DB
:10129000012000E00020FFF799FC3855641CE4B2FF
:1012A000AC42F3D3BDE8F041FFF722BD2DE9F14791
:1012B000554D00244FF00A0A287883B0401CC0B274
:1012C000B0FBFAF20AFB1201504EA046287009B199
:1012D0000A286ED248F24E19012203A94846FFF7A8
:1012E000B5FF00278DF80470012201A9484600F0DF
:1012F000B9F89DF80C0001075BD000F00F0106293A
:1013000057D2FF2088408DF80400C04396F8209003
:1013100040F0C00086F82000B089B082F08AF083E7
:101320004FF0010896F8201008FA04F0014225D089
:1013300037480422694630F81400FFF787FF96F813
:1013400030009DF80110C0079DF8000000EB01215E
:1013500006EB44000AD0C1829DF802109DF80320DC
:1013600001EB0221C1F54871818107E081819DF87F
:1013700002109DF8032001EB0221C182641CE4B23B
:10138000052CCFD32349B2894FF001080B88304692
:101390009A4203D8C28A49888A4209D99DF80C101A
:1013A00001F00F0101290BD9C1898181018BF182E3
:1013B0002F709DF80C0000F08F0080280AD01AE0F2
:1013C000818A8181C18BC18280218DF80C1086F8C1
:1013D0002090EEE796F82000010603D520F080006B
:1013E00086F820004FF6FF7026F80C0F7081307DD4
:1013F00000F0E00030752878F02801D985F800A0C9
:1014000004B04046BDE8F087250000202C000020F5
:101410006E0702081404002008B500218DF80010A2
:101420008DF801000E489DF80020435C491C1A44C9
:10143000C9B28DF80020B829F5D3D0B2C043401C02
:101440008DF80000B822064948F2470000F00AF87B
:101450000222694648F2FF0000F004F8002008BDAF
:10146000B60602082DE9F04115460E46044600274F
:10147000FFF718FC2820FFF7E1FBFFF75BFC200AD1
:10148000FFF7DCFBFFF756FCE0B2FFF7D7FBFFF7F7
:1014900051FC002408E0305DFFF7D0FBFFF74AFC69
:1014A000070003D1641CE4B2AC42F4D3FFF720FC84
:1014B0003846BDE8F08190F83510022903D080212C
:1014C000416501207047052180F8351000680168EA
:1014D00021F0010101600020704700002DE9F84F64
:1014E000DFF88C91002209F1040A0AF1040B4FF095
:1014F0000F080BF1040E01260B6896403340B342EF
:1015000071D14C68022C01D0122C11D1D40800EBFF
:1015100084073D6A5407E40E08FA04FC25EA0C052A
:10152000D1F810C00CFA04FC4CEA050CC7F820C036
:1015300007685400032591F804C0A5400CF0030C83
:10154000AF430CFA04FC4CEA070CC0F800C04F682B
:10155000012F05D0022F03D0112F01D0122F11D14E
:101560008768D1F80CC0AF430CFA04FC4CEA070CB6
:10157000C0F808C04768B7430E79C6F30016964016
:101580003E434660C668AE438D68A5403543C5609E
:101590004C68E40065D5374C256845F480452560E6
:1015A000246822F0030504F480440094324C2E1980
:1015B000D6F808789407250F08FA05F4A7432F4CAE
:1015C000A04201D1002424E02D4CA04201D10124ED
:1015D0001FE02C4CA04201D102241AE02A4CA04268
:1015E00002D1032415E03CE0284CA04201D10424A0
:1015F0000FE0274CA04201D105240AE0254CA0426F
:1016000001D1062405E0244CA04201D1072400E0CA
:101610000824AC403C43C6F80848D9F800404D4681
:101620004E689C43F60300D51C432C60DAF800405A
:1016300055464E689C43B60300D51C432C60DBF82E
:1016400000405D464E689C43F60200D51C432C606A
:10165000DEF8004075464E689C43B60200D51C4338
:101660002C60521C102AFFF446AFBDE8F88F000032
:10167000003C01404438024000300140000002407C
:101680000004024000080240000C0240001002402A
:101690000014024000180240001C02400AB181619F
:1016A00070470904FBE7000001480068000C704720
:1016B000002004E00148806870470000040000201A
:1016C000024881680278114481607047040000205C
:1016D000094810B5016841F400710160016841F4E6
:1016E00080610160052000F057F80F2000F006F837
:1016F00000F024F8002010BD003C024070B50D4DF4
:1017000004464FF47A712878B1FBF0F00A49096871
:10171000B1FBF0F000F058FB48B9102C07D20022C2
:101720002146501E00F018F800206C6070BD0120AA
:1017300070BD000004000020000000207047002859
:1017400009DB00F01F02012191404009800000F1F7
:10175000E020C0F800117047F0B40E4B1B68C3F3D3
:101760000223C3F10704042C00D904241D1D072DF6
:1017700001D2002300E0DB1E012606FA04F56D1EEF
:101780000D409D409E40761E164045EA0601F0BC85
:1017900004F0F5BF0CED00E0064A00F00701106808
:1017A0004FF6FF03184040EA012003490843106048
:1017B000704700000CED00E00000FA052DE9F0474D
:1017C0000D46040065D0DFF81491D9F80000EFB29F
:1017D00000F00F00A84207D289F80070D9F8000085
:1017E00000F00F00A84254D120683D4E810712D569
:1017F000400703D5306840F4E0503060207800079F
:1018000003D5306840F4604030603068A16820F053
:10181000F000084330602078C0072DD03049606860
:101820000839012812D0022813D0032811D00968E2
:10183000890700292DDA316821F003010143316065
:10184000FFF738FF804641F2883A0EE009688903C5
:10185000EFE709688901ECE7FFF72CFFA0EB08012F
:10186000514502D90320BDE8F0873068616800F077
:101870000C00B0EB810FEFD1D9F80010484601F011
:101880000F01A94207D90770006800F00F00A842B5
:1018900001D00120E7E72078400705D53068E168EE
:1018A00020F4E050084330602078000706D5306807
:1018B000216920F4604040EAC100306000F036F851
:1018C0003168084AC1F30311515CC84006490860F9
:1018D0000F20FFF713FF0020C5E70000003C024087
:1018E0000838024054BF01080000002004480549A0
:1018F00000680968044AC1F38221515CC8407047FE
:10190000000000200838024064BF0108044805496F
:1019100000680968044AC1F34231515CC84070470D
:10192000000000200838024064BF0108154810B5C7
:10193000006810F00C01144813D0431004290FD094
:1019400008290ED10F4C241F216801F03F022168A5
:10195000490207D52068C0F38810A0FB030106E008
:10196000184610BD2168C1F38811A1FB00010023B6
:10197000FEF7ABFC2168C1F30141491C4900B0FBF3
:10198000F1F010BD083802400024F4002DE9F84FB2
:10199000040073D02078BD4DC00748D0BB48083044
:1019A0000168C1F38101012908D00068C0F38100FA
:1019B00002280AD1281D0068400206D52868800345
:1019C00035D560680028E4D031E06068B0F5803F2C
:1019D00010D0B0F5A02F286810D020F480302860F7
:1019E000286820F4802028606068A0B1FFF762FEBC
:1019F00006460CE0286840F48030F4E740F480208C
:101A00002860F7E7FFF756FE801B642872D8286825
:101A10008003F7D50BE0FFF74DFE064604E0FFF725
:101A200049FE801B6428F1D828688003F7D4207809
:101A3000DFF85C9280074FF0000A3ED593480830EB
:101A4000016811F00C0F09D00068C0F38100022872
:101A50000BD18E48001D0068400206D4286880071C
:101A600015D5E068012809D111E0E068B8B101207E
:101A7000C9F80000FFF71EFE064605E003E1FFF788
:101A800019FE801B0228C1D828688007F7D528686E
:101A9000216920F0F80040EAC10028600DE0C9F893
:101AA00000A0FFF707FE064604E0FFF703FE801BD9
:101AB00002281FD828688007F7D42078000722D58D
:101AC000724F74496069743770B101200860FFF784
:101AD000F1FD064604E0FFF7EDFD801B022809D862
:101AE00038688007F7D50EE0C1F800A0FFF7E2FDE7
:101AF000064605E081E0FFF7DDFD801B02287CD86B
:101B000038688007F7D42078400769D5DFF87CB1C2
:101B10004FF000080BF1400BDBF80000C0000CD4C4
:101B2000DBF8001041F08051CBF80010DBF800002A
:101B30004FF0010800F080500090574F3868C00502
:101B40000FD4386840F480703860FFF7B3FD064664
:101B500004E0FFF7AFFD801B02284ED83868C005AF
:101B6000F7D54A4FA068703701280FD0052838688C
:101B700010D020F001003860386820F00400386090
:101B8000A068B0B1FFF796FD06460EE0386840F059
:101B90000100F4E740F004003860F7E7FFF78AFD42
:101BA000811B41F28830814265D838688007F5D5BD
:101BB0000DE0FFF77FFD064606E0FFF77BFD811B8A
:101BC00041F28830814256D838688007F5D4B8F1A0
:101BD000000F05D0DBF8001021F08051CBF8001089
:101BE000A069C8B3294908310968C1F381010229F4
:101BF00049D00228504607D000E03CE0C9F8600018
:101C0000FFF758FD044639E04F46C9F86000FFF77A
:101C100051FD064604E0FFF74DFD801B02282AD83F
:101C200028688001F7D4D4E907010843A16A1B4A58
:101C3000490802EB0141626A41EA8211084394F8C3
:101C40002C1040EA01611148001D01600120386636
:101C5000FFF730FD044605E013E0FFF72BFD001B06
:101C6000022808D828688001F7D50AE0FFF722FD8E
:101C7000001B022802D90320BDE8F88F28688001E4
:101C8000F4D40020F8E70120F6E700000038024015
:101C900000004742800E4742007000400000FFFFF6
:101CA00070B515460E46040003D094F8490010B1F3
:101CB00007E0012070BD002084F84800204600F0B5
:101CC0001BF804F108012068FFF780F83146A2688C
:101CD0002068FFF7A5F8D4E901022946236BFFF736
:101CE00055F8A168206850F8212042F0010240F820
:101CF0002120002070BD0000284810B5016886B082
:101D000041F001010160006800F0010005902348E6
:101D10000838016841F008010160016801F008011C
:101D20000591016841F010010160016801F01001A6
:101D30000591016841F020010160016801F0200176
:101D40000591016841F0400101600068694600F0BA
:101D5000400005904CF23370009002200190012069
:101D60000290032003900C2004900D48FFF7B6FB6F
:101D70004FF68070009069460A48FFF7AFFB4FF4BA
:101D80008054694608480094FFF7A8FB6946074855
:101D90000094FFF7A3FB06B010BD000038380240E6
:101DA000000C0240001002400014024000180240E3
:101DB0004FF0E0210428086903D020F004000861F6
:101DC000704740F00400FAE710B5401EB0F1807F84
:101DD00001D3012010BD4FF0E02460610F21601796
:101DE00004F0CDFC0020A06107202061002010BD80
:101DF0007047704710B5040003D094F83D0010B14F
:101E000007E0012010BD002084F83C00204600F0CF
:101E10000DF8022084F83D00211D206803F018FC15
:101E2000012084F83D00002010BD000008B50068C6
:101E30000B49884212D10B48016841F00201016050
:101E40000068032200F00200009001211D20FFF72E
:101E500083FCBDE808401D20FFF771BC08BD0000F1
:101E600000040040403802400168CA6842F00102A4
:101E7000CA600068816801F00701062903D0016883
:101E800041F00101016000207047704770B50446C1
:101E9000006801694FF00005C943890715D4C1687E
:101EA000C943890711D4E91E016101202077206808
:101EB00080698007204602D0FFF7E7FF04E000F0CA
:101EC00098F8204600F096F8257720680169C94304
:101ED000490717D4C168C943490713D46FF00401F7
:101EE0000161022020772068806910F4407F20463D
:101EF00002D0FFF7CAFF04E000F07BF8204600F0B4
:101F000079F8257720680169C943090716D4C168A3
:101F1000C943090712D46FF008010161042020773A
:101F20002068C0698007204602D0FFF7AEFF04E0BA
:101F300000F05FF8204600F05DF825772068016921
:101F4000C943C90617D4C168C943C90613D46FF081
:101F500010010161082020772068C06910F4407FDB
:101F6000204602D0FFF791FF04E000F042F820463F
:101F700000F040F8257720680169C943C90708D1F6
:101F8000C168C943C90704D1891E0161204600F018
:101F900033F820680169C943090609D4C168C943F7
:101FA000090605D46FF0800101612046FFF720FF8C
:101FB00020680169C943490609D4C168C943490673
:101FC00005D46FF040010161204600F01FF8206841
:101FD0000169C94389060BD4C168C943890607D47E
:101FE0006FF0200101612046BDE87040FFF701BF9E
:101FF00070BD7047704700000349884202D101203C
:1020000015F06ABB70470000240400207047704739
:1020100010F8391F407808437047000070B5026817
:1020200004461068D168536910F00F0F50D003F0C8
:10203000010501F4907635435DD0C20705D0CA058D
:1020400003D5E26B42F00102E263420705D5DA07ED
:1020500003D0E26B42F00202E263820705D5DA07A1
:1020600003D0E26B42F00402E263020705D5DA070F
:1020700003D0E26B42F00802E263E26B002A33D045
:10208000800604D5880602D5204604F08DF9206824
:102090004069E16BC0F38010090700D428B32046E3
:1020A00004F074F92068416949061AD5416921F0A4
:1020B00040014161606BA0B11B490165606BFFF796
:1020C000FAF9002810D0606B016DBDE87040084738
:1020D000830610D58B060ED52046BDE8704004F06F
:1020E00063B92046FFF793FF70BD2046FFF78FFFCF
:1020F0000020E06370BD030606D50B0604D520461C
:10210000BDE8704004F0F2BA4006F3D54806F1D5B8
:10211000D168204621F04001D160202184F8391097
:1021200000F0CAF870BD00007D63000870B50400BF
:1021300004D094F83900002510B106E0012070BDEC
:1021400084F83850204600F023F8242084F8390021
:102150002068C16821F40051C160204604F070F984
:102160002068016921F4904101612068416921F0F2
:102170002A0141612068C16841F40051C160E563F2
:10218000202084F8390084F83A00002070BD000057
:1021900010B500681A4986B088422FD119480168E5
:1021A00041F001010160006800F001000590154850
:1021B0001430016841F0100101600068012100F055
:1021C000100005904FF4007000900220CDE901014D
:1021D000039007200C4C049069462046FFF77EF9D7
:1021E0002115009169462046FFF778F92520FFF771
:1021F000A6FA032211462520FFF7AEFA06B010BD5D
:1022000000100140303802400000024090F83A309F
:10221000202B22D1F9B1F2B190F83830012B1CD02B
:1022200081628285C2850021C163222280F83A2022
:1022300080F838100168CA6842F48072CA60016888
:102240004A6942F001024A610068C16841F0200118
:10225000C1600020704701207047022070470000D5
:1022600030B50068114988420CD1114A50880104E8
:1022700008D41146440409784FF0000306D50A2912
:1022800001D0538030BD40F400400DE00D2909D04D
:10229000C0F30D04074D401C80B229555080C7285B
:1022A000EFD830BD40F48040508030BD0010014078
:1022B00014000020BC0200207047FEE770B50D4CF2
:1022C0000025C4F8A0520C48016821F440210160A7
:1022D000016841F480210160C4F8A452022004F591
:1022E000287409F087F801202060022009F082F8A4
:1022F000256070BD00804042000402400E4810B5C9
:10230000016886B041F0020101600068012400F01C
:10231000020005904FF44070CDE900040220CDE9A1
:10232000024069460548FFF7D9F80548C0F8A442BD
:10233000C0F8A04206B010BD303802400004024090
:102340000080404270B50D4C0026C4F8A0620C48D5
:10235000016821F440210160016841F4802101609D
:102360000125C4F8A452022004F5287409F042F8AB
:102370002560022009F03EF8266070BD00804042D2
:10238000000402402DE9F047814616480024016808
:1023900021F44021016001680160134E2546274663
:1023A0004FF00108C6F8A072022009F023F8C6F821
:1023B000A0826006040ED6F8240208B1641CE4B2C0
:1023C000012009F017F86D1CEDB2082DEAD3B9F120
:1023D000000F04D0FFF772FF2046BDE8F087FFF73B
:1023E000B1FFF9E700040240008040422DE9F041CE
:1023F00005461448016821F440210160016841F458
:1024000080210160104E0027C6F8A0723C464FF0B4
:102410000108E809C6F8A4026806050E022008F0C3
:10242000E9FFC6F8A082022008F0E4FFC6F8A07217
:10243000022008F0DFFF641CE4B2082CE9D3BDE8F9
:10244000F0810000000402400080404270B50D4859
:10245000016821F440210160016841F4802101609C
:10246000094C0120C4F8A402C4F8A002042004F519
:10247000287408F0BFFF00256560042008F0BAFF4B
:10248000256070BD00040240008040420E4810B537
:10249000016821F440210160016841F4802101605C
:1024A0000A4C0020C4F8A002C4F8A402042004F5D9
:1024B000287408F09FFF012020606060BDE8104094
:1024C000042008F097BF0000000402400080404252
:1024D00070B512480024016821F4402101600168B0
:1024E00001600F4D0126C5F8A462304608F082FF56
:1024F000C5F8A062012008F07DFF07E0641CE4B28B
:10250000FA2C03D9FFF7C2FF012070BDD5F82402D1
:102510000028F3D1C5F8A00270BD000000040240FD
:102520000080404270B5144886B00025016841F033
:1025300001010160016801F001010591016841F0AC
:10254000100101600068032400F0100005900220D3
:102550000126CDE90204CDE9006569460748FEF78A
:10256000BDFF1C2003948DE8610069460448FEF716
:10257000B5FF06B070BD00003038024000000240D8
:102580000010024070B506460A48002401884588BC
:1025900020464D43214602F089FC02F0F5FDB1B220
:1025A0004FF0D84002E0A0F88010641CAC42FAD38F
:1025B00070BD0000140400202DE9F04F334B2C2493
:1025C000194698712A2589882B2645F2105B4FF40D
:1025D000305E4FF448774FF0F00949F2413A4FF43A
:1025E000A07845F2103C4FF4F07258B1A3F8008087
:1025F000A3F80290514501D0614529D11C815D812C
:102600009E8139E0A3F80090A3F80280514501D0E3
:10261000614508D11C815D819E81614531D1A3F85E
:1026200000805A802DE0594508D1A3F808E04FF406
:10263000285058814FF42C50988106E0A1F5C850DD
:1026400063381ED11C815E819D811A805F8018E0F5
:10265000594508D1A3F808E04FF4285058814FF4A9
:102660002C50988106E0A1F5C850633804D11C8134
:102670005D819E811F805A80614502D11A80A3F836
:102680000280BDE8F04F002002F034BB14040020AB
:1026900000F0B2B82DE9FE4F0026A2EB00088246FA
:1026A0005F1A701E35468946B8F1000F02DD4FF003
:1026B000010102E003D14FF00001019102E0C8F1F5
:1026C00000080190002F02DD4FF0010002E003D16D
:1026D0004FF00000009002E0C7F100070090404674
:1026E000B84501DD044600E03C46601C4FF0000B9D
:1026F000029015E01FFA89F11FFA8AF000F016F82F
:1027000046443D44A64202DD0199361B8A44A54257
:1027100002DD00992D1B89440BF101001FFA80FB9B
:1027200002998B45E6DDBDE8FE8F000000B502F0A2
:10273000BDFB02F029FD03484FF0D8410088A1F805
:10274000800000BD1C0000202DE9FC4F80460024C5
:10275000154603200F46A0EB450649E0781B81B2E1
:1027600008EB040A01901FFA8AF0FFF7DFFF381B1D
:1027700081B208EB050900901FFA89F0FFF7D6FF38
:1027800007EB040B1FFA8BF11FFA89F0FFF7CEFF5E
:1027900007EB05091FFA89F11FFA8AF0FFF7C6FF58
:1027A000A8EB040A1FFA89F11FFA8AF0FFF7BEFFAF
:1027B000A8EB05091FFA8BF11FFA89F0FFF7B6FFA6
:1027C000019881B21FFA8AF0FFF7B0FF009881B23A
:1027D0001FFA89F0FFF7AAFF641C002E03DA06EB4C
:1027E0008406B61D04E0601B06EB80066D1E0A36EB
:1027F000AC42B3DDBDE8FC8F2DE9F041374D90468A
:102800000C4602460F0AA8882946160A4989A0F5EF
:102810001343413B0CD0A0F5A643103B08D0A0F5D4
:10282000AA43103B11D0A0F5C853633B27D04BE01F
:10283000084602F09CFC304602F08DFCD0B202F05B
:102840008AFCA88902F093FC38E0084602F08FFC6D
:10285000304602F080FC6889401C80B202F087FCA0
:10286000D0B202F078FCA88902F081FC384602F070
:1028700072FCA889401C80B202F079FC21E0A879A2
:1028800018B92888801A401E82B2084602F06FFCF0
:10289000160A304602F05FFCD0B202F05CFC304613
:1028A00002F059FCD0B202F056FCA88902F05FFC9D
:1028B000384602F050FCE0B202F04DFC384602F01F
:1028C0004AFCE0B202F047FC4FF0D840298920F8DA
:1028D0007E1FA0F80280BDE8F081000014040020F3
:1028E0002DE9F04FFF4895B00024016841F0020146
:1028F000016000684FF0010900F00200139003200E
:102900004FF4004ACDE91090CDE90EA90EA9F64882
:10291000FEF7E4FDF548F6494FF02045C0E90051C7
:102920000621C0E902141021C0E9044184610902B2
:10293000C461C0E909418900C0E90B4189014463D0
:10294000C0E90E410F20CDE907043C200990092081
:10295000CDE9000408200D94029003946A4607A96B
:102960000694E248FFF79CF9322008F035FDD320A9
:1029700002F0FDFB02F08CF9DC4A5032908002F04C
:1029800087F9908002F084F94FF6FF7B0BEA002074
:10299000908002F07DF9918845F210360843A0F549
:1029A0001341908045F2105441F66317413949D0E4
:1029B000D42002F0DCFB02F06BF9908002F068F9A1
:1029C000908002F065F90BEA0020D846908002F072
:1029D0005FF9918808439080B04233D04FF45A4059
:1029E00002F0C5FB02F054F990804FF45B4002F016
:1029F000BEFB02F04DF908EA002090804FF45C40E5
:102A000002F0B5FB02F044F99188084390805045EC
:102A100001D1948016E0A04214D0A12002F0A7FBBF
:102A200002F036F9908002F033F908EA0020908035
:102A300002F02EF991880843A0F5AE4190806139EB
:102A400000D1978092469188AAA0FDF7B5FCBAF80C
:102A5000040049F2413840457ED1CF2002F087FB87
:102A6000002002F078FBC12002F075FB302002F05C
:102A700072FBED2002F07BFB642002F06CFB032074
:102A800002F069FB122002F066FB812002F063FB7A
:102A9000E82002F06CFB852002F05DFB102002F0C4
:102AA0005AFB7A2002F057FBCB2002F060FB392062
:102AB00002F051FB2C2002F04EFB002002F04BFBF9
:102AC000342002F048FB022002F045FBF72002F020
:102AD0004EFB202002F03FFBEA2002F048FB0020E2
:102AE00002F039FB002002F036FBC02002F03FFB71
:102AF0001B2002F030FBC12002F039FB012002F064
:102B00002AFBC52002F033FB302002F024FB3020EA
:102B100002F021FBC72002F02AFBB72002F01BFBCA
:102B2000362002F024FB482002F015FB3A2002F088
:102B30001EFB552002F00FFBB12002F018FB002015
:102B400002F009FB1A2002F006FBB62002F00FFB90
:102B50000A2002F000FB00E095E0A22002F0FBFA60
:102B6000F22002F004FB002002F0F5FA262002F029
:102B7000FEFA012002F0EFFAE02002F0F8FA0F204E
:102B800002F0E9FA2A2002F0E6FA282002F0E3FA3D
:102B9000082002F0E0FA0E2002F0DDFA082002F030
:102BA000DAFA542002F0D7FAA92002F0D4FA43202E
:102BB00002F0D1FA0A2002F0CEFA0F2002F0CBFA8E
:102BC000002002F0C8FA002002F0C5FA002002F04E
:102BD000C2FA002002F0BFFAE12002F0C8FA002099
:102BE00002F0B9FA152002F0B6FA172002F0B3FA93
:102BF000072002F0B0FA112002F0ADFA062002F030
:102C0000AAFA2B2002F0A7FA562002F0A4FA3C20E0
:102C100002F0A1FA052002F09EFA102002F09BFAC1
:102C20000F2002F098FA3F2002F095FA3F2002F0C0
:102C300092FA0F2002F08FFA2B2002F098FA00206F
:102C400002F089FA002002F086FA012002F083FAED
:102C50003F2002F080FA2A2002F089FA002002F0D8
:102C60007AFA002002F077FA002002F074FAEF20DE
:102C700002F071FA112002F07AFA782008F0ACFB29
:102C8000292001F010BFB0427ED1ED2002F06FFA92
:102C9000012002F060FAFE2002F05DFAEE2002F060
:102CA00066FADE2002F057FA212002F054FAF120F1
:102CB00002F05DFA012002F04EFADF2002F057FA2E
:102CC000102002F048FAC42002F051FA8F2002F0DE
:102CD00042FAC62002F04BFA002002F03CFAE22051
:102CE00010E000003038024000040240C40300201D
:102CF000040100A0204C43442049443A25780D0AA1
:102D00000000000002F027FAE22002F024FAE2209C
:102D100002F021FABF2002F02AFAAA2002F01BFAE0
:102D2000B02002F024FA0D2002F015FA002002F083
:102D300012FA0D2002F00FFA002002F00CFA112016
:102D400002F009FA002002F006FA192002F003FA54
:102D5000002002F000FA212002F0FDF9002002F02C
:102D6000FAF92D2002F0F7F9002002F0F4F93D20E5
:102D700002F0F1F9002002F0EEF95D2002F0EBF92B
:102D8000002002F0E8F900E0FDE35D2002F0E3F945
:102D9000002002F0E0F9B12002F0E9F9802002F011
:102DA000DAF9002002F0D7F98B2002F0D4F90020E4
:102DB00002F0D1F9962002F0CEF9002002F0CBF912
:102DC000B22002F0D4F9002002F0C5F9002002F090
:102DD000C2F9022002F0BFF9002002F0BCF9032082
:102DE00002F0B9F9002002F0B6F9B32002F0BFF901
:102DF000002002F0B0F9002002F0ADF9002002F04E
:102E0000AAF9002002F0A7F9002002F0A4F900209E
:102E100002F0A1F9002002F09EF9002002F09BF9D7
:102E2000002002F098F9002002F095F9002002F04D
:102E300092F9002002F08FF9002002F08CF90020B6
:102E400002F089F9002002F086F9002002F083F9EF
:102E5000002002F080F9002002F07DF9002002F04D
:102E60007AF9002002F077F9002002F074F90020CE
:102E700002F071F9002002F06EF9002002F06BF907
:102E8000B42002F074F98B2002F065F9002002F002
:102E900062F9962002F05FF9002002F05CF9A120AF
:102EA00002F059F9002002F056F9B52002F05FF95E
:102EB000022002F050F9002002F04DF9032002F048
:102EC0004AF9002002F047F9042002F044F90020FA
:102ED00002F041F9B62002F04AF9002002F03BF975
:102EE000002002F038F9B72002F041F9002002F08A
:102EF00032F9002002F02FF93F2002F02CF90020D7
:102F000002F029F95E2002F026F9002002F023F9F0
:102F1000642002F020F9002002F01DF98C2002F05C
:102F20001AF9002002F017F9AC2002F014F9002081
:102F300002F011F9DC2002F00EF9002002F00BF98A
:102F4000702002F008F9002002F005F9902002F04C
:102F500002F9002002F0FFF8EB2002F0FCF800205C
:102F600002F0F9F8DC2002F0F6F8002002F0F3F8A5
:102F7000B82002F0FCF8002002F0EDF8002002F08A
:102F8000EAF8002002F0E7F8002002F0E4F8002060
:102F900002F0E1F8002002F0DEF8002002F0DBF899
:102FA000002002F0D8F8BA2002F0E1F8242002F064
:102FB000D2F8002002F0CFF8002002F0CCF8002078
:102FC00002F0C9F8C12002F0D2F8202002F0C3F8C4
:102FD000002002F0C0F8542002F0BDF8002002F0FA
:102FE000BAF8FF2002F0B7F8002002F0B4F8C220CF
:102FF00002F0BDF80A2002F0AEF8002002F0ABF8B3
:10300000042002F0A8F8002002F0A5F8C32002F086
:10301000AEF83C2002F09FF8002002F09CF83A2025
:1030200002F099F8002002F096F8392002F093F8A7
:10303000002002F090F8372002F08DF8002002F016
:103040008AF83C2002F087F8002002F084F836204D
:1030500002F081F8002002F07EF8322002F07BF8C6
:10306000002002F078F82F2002F075F8002002F01E
:1030700072F82C2002F06FF8002002F06CF8292082
:1030800002F069F8002002F066F8262002F063F8EA
:10309000002002F060F8242002F05DF8002002F029
:1030A0005AF8242002F057F8002002F054F82320A8
:1030B00002F051F8002002F04EF83C2002F04BF8EC
:1030C000002002F048F8362002F045F8002002F017
:1030D00042F8322002F03FF8002002F03CF82F20A6
:1030E00002F039F8002002F036F82C2002F033F814
:1030F000002002F030F8292002F02DF8002002F024
:103100002AF8262002F027F8002002F024F82420D4
:1031100002F021F8002002F01EF8242002F01BF833
:10312000002002F018F8232002F015F8002002F029
:1031300012F8C42002F01BF8622002F00CF8002004
:1031400002F009F8052002F006F8002002F003F86A
:10315000842002F000F8002001F0FDFFF02001F0D3
:10316000FAFF002001F0F7FF182001F0F4FF002023
:1031700001F0F1FFA42001F0EEFF002001F0EBFFD1
:10318000182001F0E8FF002001F0E5FF502001F0D9
:10319000E2FF002001F0DFFF0C2001F0DCFF002047
:1031A00001F0D9FF172001F0D6FF002001F0D3FF76
:1031B000952001F0D0FF002001F0CDFFF32001F0B9
:1031C000CAFF002001F0C7FFE62001F0C4FF002085
:1031D00001F0C1FFC52001F0CAFF322001F0BBFFA2
:1031E000002001F0B8FF442001F0B5FF002001F0FD
:1031F000B2FF652001F0AFFF002001F0ACFF7620A8
:1032000001F0A9FF002001F0A6FF882001F0A3FF34
:10321000002001F0A0FFC62001F0A9FF202001F04E
:103220009AFF002001F097FF172001F094FF002083
:1032300001F091FF012001F08EFF002001F08BFFD3
:10324000C72001F094FF002001F085FF002001F06D
:1032500082FF002001F07FFF002001F07CFFC820EA
:1032600001F085FF002001F076FF002001F073FFE0
:10327000002001F070FF002001F06DFFC92001F077
:1032800076FF002001F067FF002001F064FF0020BE
:1032900001F061FF002001F05EFF002001F05BFF04
:1032A000002001F058FF002001F055FF002001F040
:1032B00052FF002001F04FFF002001F04CFF0020E2
:1032C00001F049FF002001F046FF002001F043FF1C
:1032D000002001F040FF002001F03DFF002001F040
:1032E0003AFFE02001F043FF162001F034FF0020F8
:1032F00001F031FF1C2001F02EFF002001F02BFF18
:10330000212001F028FF002001F025FF362001F0E8
:1033100022FF002001F01FFF462001F01CFF0020CB
:1033200001F019FF522001F016FF002001F013FFF9
:10333000642001F010FF002001F00DFF7A2001F061
:103340000AFF002001F007FF8B2001F004FF00209E
:1033500001F001FF992001F0FEFE002001F0FBFECC
:10336000A82001F0F8FE002001F0F5FEB92001F0E0
:10337000F2FE002001F0EFFEC42001F0ECFE002080
:1033800001F0E9FECA2001F0E6FE002001F0E3FEB4
:10339000D22001F0E0FE002001F0DDFED92001F096
:1033A000DAFE002001F0D7FEE02001F0D4FE00207C
:1033B00001F0D1FEF32001F0CEFE002001F0CBFEA3
:1033C000E12001F0D4FE162001F0C5FE002001F03E
:1033D000C2FE1C2001F0BFFE002001F0BCFE222036
:1033E00001F0B9FE002001F0B6FE362001F0B3FE78
:1033F000002001F0B0FE452001F0ADFE002001F0FC
:10340000AAFE522001F0A7FE002001F0A4FE6420D5
:1034100001F0A1FE002001F09EFE7A2001F09BFE4B
:10342000002001F098FE8B2001F095FE002001F0B5
:1034300092FE992001F08FFE002001F08CFEA82062
:1034400001F089FE002001F086FEB92001F083FE24
:10345000002001F080FEC42001F07DFE002001F07C
:103460007AFECA2001F077FE002001F074FED2201F
:1034700001F071FE002001F06EFED82001F06BFE1D
:10348000002001F068FEE02001F065FE002001F060
:1034900062FEF32001F05FFE002001F05CFEE220FE
:1034A00001F065FE052001F056FE002001F053FEFC
:1034B0000B2001F050FE002001F04DFE1B2001F01A
:1034C0004AFE002001F047FE342001F044FE0020B7
:1034D00001F041FE442001F03EFE002001F03BFEE1
:1034E0004F2001F038FE002001F035FE612001F090
:1034F00032FE002001F02FFE792001F02CFE00208A
:1035000001F029FE882001F026FE002001F023FEB4
:10351000972001F020FE002001F01DFEA62001F002
:103520001AFE002001F017FEB72001F014FE002063
:1035300001F011FEC22001F00EFE002001F00BFE92
:10354000C72001F008FE002001F005FED12001F0A7
:1035500002FE002001F0FFFDD62001F0FCFD00205E
:1035600001F0F9FDDD2001F0F6FD002001F0F3FD92
:10357000F32001F0F0FD002001F0EDFDE32001F06B
:10358000F6FD052000E00CE301F0E5FD002001F070
:10359000E2FD0A2001F0DFFD002001F0DCFD1C202F
:1035A00001F0D9FD002001F0D6FD332001F0D3FD5C
:1035B000002001F0D0FD442001F0CDFD002001F0FD
:1035C000CAFD502001F0C7FD002001F0C4FD6220BB
:1035D00001F0C1FD002001F0BEFD782001F0BBFD2F
:1035E000002001F0B8FD882001F0B5FD002001F0B9
:1035F000B2FD972001F0AFFD002001F0ACFDA62048
:1036000001F0A9FD002001F0A6FDB72001F0A3FD07
:10361000002001F0A0FDC22001F09DFD002001F07E
:103620009AFDC72001F097FD002001F094FDD12004
:1036300001F091FD002001F08EFDD52001F08BFD01
:10364000002001F088FDDD2001F085FD002001F063
:1036500082FDF32001F07FFD002001F07CFDE420DD
:1036600001F085FD012001F076FD002001F073FDE1
:10367000012001F070FD002001F06DFD022001F03D
:103680006AFD002001F067FD2A2001F064FD0020A2
:1036900001F061FD3C2001F05EFD002001F05BFDCA
:1036A0004B2001F058FD002001F055FD5D2001F098
:1036B00052FD002001F04FFD742001F04CFD002070
:1036C00001F049FD842001F046FD002001F043FD9A
:1036D000932001F040FD002001F03DFDA22001F00B
:1036E0003AFD002001F037FDB32001F034FD002049
:1036F00001F031FDBE2001F02EFD002001F02BFD78
:10370000C42001F028FD002001F025FDCD2001F0AE
:1037100022FD002001F01FFDD32001F01CFD002040
:1037200001F019FDDD2001F016FD002001F013FD70
:10373000F32001F010FD002001F00DFDE52001F067
:1037400016FD002001F007FD002001F004FD00201F
:1037500001F001FD002001F0FEFC022001F0FBFC65
:10376000002001F0F8FC292001F0F5FC002001F018
:10377000F2FC3C2001F0EFFC002001F0ECFC4B20BF
:1037800001F0E9FC002001F0E6FC5D2001F0E3FC23
:10379000002001F0E0FC742001F0DDFC002001F0CD
:1037A000DAFC842001F0D7FC002001F0D4FC932047
:1037B00001F0D1FC002001F0CEFCA22001F0CBFCF6
:1037C000002001F0C8FCB32001F0C5FC002001F08E
:1037D000C2FCBE2001F0BFFC002001F0BCFCC420F4
:1037E00001F0B9FC002001F0B6FCCD2001F0B3FCE3
:1037F000002001F0B0FCD32001F0ADFC002001F06E
:10380000AAFCDC2001F0A7FC002001F0A4FCF320BE
:1038100001F0A1FC002001F09EFCE62001F0A7FCD5
:10382000112001F098FC002001F095FC342001F0FB
:1038300092FC002001F08FFC562001F08CFC00204F
:1038400001F089FC762001F086FC002001F083FC69
:10385000772001F080FC002001F07DFC662001F063
:103860007AFC002001F077FC882001F074FC002035
:1038700001F071FC992001F06EFC002001F06BFC5E
:10388000BB2001F068FC002001F065FC992001F0EC
:1038900062FC002001F05FFC662001F05CFC00206F
:1038A00001F059FC552001F056FC002001F053FCBA
:1038B000552001F050FC002001F04DFC452001F0A6
:1038C0004AFC002001F047FC432001F044FC0020AA
:1038D00001F041FC442001F03EFC002001F03BFCE3
:1038E000E72001F044FC322001F035FC002001F01B
:1038F00032FC552001F02FFC002001F02CFC76203A
:1039000001F029FC002001F026FC662001F023FCD8
:10391000002001F020FC672001F01DFC002001F0D8
:103920001AFC672001F017FC002001F014FC87202E
:1039300001F011FC002001F00EFC992001F00BFCBD
:10394000002001F008FCBB2001F005FC002001F084
:1039500002FC992001F0FFFB002001F0FCFB772026
:1039600001F0F9FB002001F0F6FB442001F0F3FB2D
:10397000002001F0F0FB562001F0EDFB002001F0EB
:10398000EAFB232001F0E7FB002001F0E4FB3320F9
:1039900001F0E1FB002001F0DEFB452001F0DBFB44
:1039A000002001F0D8FBE82001F0E1FB002001F04D
:1039B000D2FB002001F0CFFB992001F0CCFB0020CE
:1039C00001F0C9FB872001F0C6FB002001F0C3FB1A
:1039D000882001F0C0FB002001F0BDFB772001F042
:1039E000BAFB002001F0B7FB662001F0B4FB002019
:1039F00001F0B1FB882001F0AEFB002001F0ABFB31
:103A0000AA2001F0A8FB002001F0A5FBBB2001F0DB
:103A1000A2FB002001F09FFB992001F09CFB0020FD
:103A200001F099FB662001F096FB002001F093FB6A
:103A3000552001F090FB002001F08DFB552001F096
:103A40008AFB002001F087FB442001F084FB00206A
:103A500001F081FB442001F07EFB002001F07BFBA4
:103A6000552001F078FB002001F075FBE92001F002
:103A70007EFBAA2001F06FFB002001F06CFB002010
:103A800001F069FB002001F066FB002001F06FFBF4
:103A9000AA2001F060FBCF2001F069FB002001F0BB
:103AA0005AFB002001F057FB002001F054FB0020DE
:103AB00001F051FB002001F04EFB002001F04BFB18
:103AC000002001F048FB002001F045FB002001F040
:103AD00042FB002001F03FFB002001F03CFB0020F6
:103AE00001F039FB002001F036FB002001F033FB30
:103AF000002001F030FB002001F02DFB002001F040
:103B00002AFBF02001F033FB002001F024FB5020C1
:103B100001F021FB002001F01EFB002001F01BFB47
:103B2000002001F018FBF32001F021FB002001F040
:103B300012FBF92001F01BFB062001F00CFB10200A
:103B400001F009FB292001F006FB002001F003FB36
:103B50003A2001F00CFB552001F0FDFA112001F094
:103B600006FB642007F038FC292001F000FB35201B
:103B700001F0FDFA002001F0EEFA512001F0F7FA11
:103B8000FF2001F0E8FA532001F0F1FA2C2001F0B7
:103B9000E2FA552001F0EBFA822001F0DCFA2C2049
:103BA000FDE3A0427ED14FF470435521184601F049
:103BB000F5FAAA214FF2010001F0F0FA52214FF27A
:103BC000020001F0EBFA08214FF2030001F0E6FADF
:103BD00001214FF2040001F0E1FA0D214FF43040D1
:103BE00001F0DCFA0D214BF2010001F0D7FA0D21B2
:103BF0004BF2020001F0D2FA34214FF4364001F0CA
:103C0000CDFA34214BF2016001F0C8FA34214BF2B5
:103C1000026001F0C3FA0D214FF4314001F0BEFA09
:103C20000D214BF2011001F0B9FA0D214BF20210F7
:103C300001F0B4FA34214FF4374001F0AFFA3421E7
:103C40004BF2017001F0AAFA34214BF2027001F03C
:103C5000A5FA00214FF4324001F0A0FA00214BF206
:103C6000012001F09BFA00214BF2022001F096FAAC
:103C700024214FF4384001F091FA24214BF6010041
:103C800001F08CFA24214BF6020001F087FA0121A1
:103C90004FF43F4001F082FA0F214FF4334001F01E
:103CA0007DFA00E0FEE30F214BF2013001F076FADD
:103CB0000F214BF2023001F071FA34214FF43940F8
:103CC00001F06CFA34214BF6011001F067FA34214F
:103CD0004BF6021001F062FA08214FF4354001F072
:103CE0005DFA08214BF2015001F058FA08214BF21D
:103CF000025001F053FA03214FF4424001F04EFA12
:103D000024214FF43A4001F049FA24214BF60120D6
:103D100001F044FA24214BF6022001F03FFA002181
:103D20004FF43C4001F03AFA78214BF6014001F0A3
:103D300035FA00214BF6024001F030FA00214FF431
:103D40003D4001F02BFA78214BF6015001F026FAA4
:103D500000214BF6025001F021FA00214FF43E40C1
:103D600001F01CFA64214BF6016001F017FA002102
:103D70004FF4514001F012FA33214DF2011001F0DD
:103D80000DFA00214DF2021001F008FA34214DF233
:103D9000031001F003FA00214DF2041001F0FEF9C6
:103DA0003A214DF2051001F0F9F900214DF206100B
:103DB00001F0F4F94A214DF2071001F0EFF900216A
:103DC0004DF2081001F0EAF95C214DF2091001F002
:103DD000E5F900214DF20A1001F0E0F981214DF2E0
:103DE0000B1001F0DBF900214DF20C1001F0D6F9B7
:103DF000A6214DF20D1001F0D1F900214DF20E1067
:103E000001F0CCF9E5214DF20F1001F0C7F90121C5
:103E10004DF2101001F0C2F913214DF2111001F012
:103E2000BDF901214DF2121001F0B8F954214DF203
:103E3000131001F0B3F901214DF2141001F0AEF9A5
:103E400082214DF2151001F0A9F901214DF2161051
:103E500001F0A4F9CA214DF2171001F09FF90221D7
:103E60004DF2181001F09AF900214DF2191001F0ED
:103E700095F902214DF21A1001F090F901214DF24D
:103E80001B1001F08BF902214DF21C1001F086F994
:103E900034214DF21D1001F081F902214DF21E1066
:103EA00001F07CF967214DF21F1001F077F9022132
:103EB0004DF2201001F072F984214DF2211001F031
:103EC0006DF902214DF2221001F068F9A4214DF2A2
:103ED000231001F063F902214DF2241001F05EF984
:103EE000B7214DF2251001F059F902214DF22610AB
:103EF00001F054F9CF214DF2271001F04FF90221C2
:103F00004DF2281001F04AF9DE214DF2291001F09E
:103F100045F902214DF22A1001F040F9F2214DF24B
:103F20002B1001F03BF902214DF22C1001F036F973
:103F3000FE214DF22D1001F031F903214DF22E102A
:103F400001F02CF910214DF22F1001F027F9032177
:103F50004DF2301001F022F933214DF2311001F011
:103F60001DF903214DF2321001F018F96D214DF2C7
:103F7000331001F013F900214FF4524001F00EF913
:103F800033214DF2012001F009F900214DF2022008
:103F900001F004F934214DF2032001F0FFF8002173
:103FA0004DF2042001F0FAF83A214DF2052001F01B
:103FB000F5F800214DF2062001F0F0F84A214DF20B
:103FC000072001F0EBF800214DF2082001F0E6F89F
:103FD0005C214DF2092001F0E1F800214DF20A20A8
:103FE00001F0DCF881214DF20B2001F0D7F800211F
:103FF0004DF20C2001F0D2F8A6214DF20D2001F077
:10400000CDF800214DF20E2001F0C8F8E5214DF267
:104010000F2001F0C3F801214DF2102001F0BEF88D
:1040200013214DF2112001F0B9F801214DF21220B7
:1040300001F0B4F854214DF2132001F0AFF8012142
:104040004DF2142001F0AAF882214DF2152001F062
:10405000A5F801214DF2162001F0A0F8CA214DF279
:10406000172001F09BF802214DF2182001F096F87C
:1040700000214DF2192001F091F802214DF21A2091
:1040800001F08CF801214DF21B2001F087F802218C
:104090004DF21C2001F082F834214DF21D2001F078
:1040A0007DF802214DF21E2001F078F867214DF2D3
:1040B0001F2001F073F802214DF2202001F06EF86C
:1040C00084214DF2212001F069F802214DF22220D5
:1040D00001F064F8A4214DF2232001F05FF80221E1
:1040E0004DF2242001F05AF8B7214DF2252001F0BD
:1040F00055F802214DF2262001F050F8CF214DF263
:10410000272001F04BF802214DF2282001F046F85B
:10411000DE214DF2292001F041F802214DF22A2042
:1041200001F03CF8F2214DF22B2001F037F802218A
:104130004DF22C2001F032F8FE214DF22D2001F03D
:104140002DF803214DF22E2001F028F810214DF218
:104150002F2001F023F803214DF2302001F01EF84A
:1041600033214DF2312001F019F803214DF23220B4
:1041700001F014F86D214DF2332001F00FF8002109
:104180004FF4534001F00AF833214DF2013001F0B1
:1041900005F800214DF2023001F000F834214DF213
:1041A000033000F0FBFF00214DF2043000F0F6FF79
:1041B0003A214DF2053000F0F1FF00214DF20630BA
:1041C00000F0ECFF4A214DF2073000F0E7FF00213C
:1041D0004DF2083000F0E2FF5C214DF2093000F0B2
:1041E000DDFF00214DF20A3000F0D8FF81214DF2B1
:1041F0000B3000F0D3FF00214DF20C3000F0CEFF69
:10420000A6214DF20D3000F0C9FF00214DF20E3015
:1042100000F0C4FFE5214DF20F3000F0BFFF012197
:104220004DF2103000F0BAFF13214DF2113000F0C2
:10423000B5FF01214DF2123000F0B0FF54214DF2D4
:10424000133000F0ABFF01214DF2143000F0A6FF57
:1042500082214DF2153000F0A1FF01214DF2163000
:1042600000F09CFFCA214DF2173000F097FF0221A9
:104270004DF2183000F092FF00214DF2193000F09D
:104280008DFF02214DF21A3000F088FF01214DF21E
:104290001B3000F083FF02214DF21C3000F07EFF46
:1042A00034214DF21D3000F079FF02214DF21E3015
:1042B00000F074FF67214DF21F3000F06FFF022104
:1042C0004DF2203000F06AFF84214DF2213000F0E1
:1042D00065FF02214DF2223000F060FFA4214DF273
:1042E000233000F05BFF02214DF2243000F056FF36
:1042F000B7214DF2253000F051FF02214DF226305A
:1043000000F04CFFCF214DF2273000F047FF022193
:104310004DF2283000F042FFDE214DF2293000F04E
:104320003DFF02214DF22A3000F038FFF2214DF21C
:104330002B3000F033FF02214DF22C3000F02EFF25
:10434000FE214DF22D3000F029FF03214DF22E30D9
:1043500000F024FF10214DF22F3000F01FFF032149
:104360004DF2303000F01AFF33214DF2313000F0C1
:1043700015FF03214DF2323000F010FF6D214DF298
:10438000333000F00BFF00214FF4544000F006FFE3
:1043900033214DF2014000F001FF002100E082E3F3
:1043A0004DF2024000F0FAFE34214DF2034000F0DD
:1043B000F5FE00214DF2044000F0F0FE3A214DF2EE
:1043C000054000F0EBFE00214DF2064000F0E6FE55
:1043D0004A214DF2074000F0E1FE00214DF2084075
:1043E00000F0DCFE5C214DF2094000F0D7FE002118
:1043F0004DF20A4000F0D2FE81214DF20B4000F058
:10440000CDFE00214DF20C4000F0C8FEA6214DF279
:104410000D4000F0C3FE00214DF20E4000F0BEFE44
:10442000E5214DF20F4000F0B9FE01214DF21040A0
:1044300000F0B4FE13214DF2114000F0AFFE012157
:104440004DF2124000F0AAFE54214DF2134000F04C
:10445000A5FE01214DF2144000F0A0FE82214DF294
:10446000154000F09BFE01214DF2164000F096FE33
:10447000CA214DF2174000F091FE02214DF2184082
:1044800000F08CFE00214DF2194000F087FE022161
:104490004DF21A4000F082FE01214DF21B4000F067
:1044A0007DFE00E002E302214DF21C4000F076FEAA
:1044B00034214DF21D4000F071FE02214DF21E40EC
:1044C00000F06CFE67214DF21F4000F067FE0221F4
:1044D0004DF2204000F062FE84214DF2214000F0B8
:1044E0005DFE02214DF2224000F058FEA4214DF263
:1044F000234000F053FE02214DF2244000F04EFE16
:10450000B7214DF2254000F049FE02214DF2264030
:1045100000F044FECF214DF2274000F03FFE022183
:104520004DF2284000F03AFEDE214DF2294000F025
:1045300035FE02214DF22A4000F030FEF2214DF20C
:104540002B4000F02BFE02214DF22C4000F026FE05
:10455000FE214DF22D4000F021FE03214DF22E40B0
:1045600000F01CFE10214DF22F4000F017FE032139
:104570004DF2304000F012FE33214DF2314000F098
:104580000DFE03214DF2324000F008FE6D214DF288
:10459000334000F003FE00214FF4554000F0FEFDD3
:1045A00033214DF2015000F0F9FD00214DF202508F
:1045B00000F0F4FD34214DF2035000F0EFFD002136
:1045C0004DF2045000F0EAFD3A214DF2055000F0A2
:1045D000E5FD00214DF2065000F0E0FD4A214DF2CC
:1045E000075000F0DBFD00214DF2085000F0D6FD31
:1045F0005C214DF2095000F0D1FD00214DF20A502E
:1046000000F0CCFD81214DF20B5000F0C7FD0021E0
:104610004DF20C5000F0C2FDA6214DF20D5000F0FD
:10462000BDFD00214DF20E5000F0B8FDE5214DF228
:104630000F5000F0B3FD01214DF2105000F0AEFD1F
:1046400013214DF2115000F0A9FD01214DF212503D
:1046500000F0A4FD54214DF2135000F09FFD012104
:104660004DF2145000F09AFD82214DF2155000F0E9
:1046700095FD01214DF2165000F090FDCA214DF23A
:10468000175000F08BFD02214DF2185000F086FD0E
:1046900000214DF2195000F081FD02214DF21A5017
:1046A00000F07CFD01214DF21B5000F077FD02214E
:1046B0004DF21C5000F072FD34214DF21D5000F0FF
:1046C0006DFD02214DF21E5000F068FD67214DF294
:1046D0001F5000F063FD02214DF2205000F05EFDFE
:1046E00084214DF2215000F059FD02214DF222505B
:1046F00000F054FDA4214DF2235000F04FFD0221A3
:104700004DF2245000F04AFDB7214DF2255000F043
:1047100045FD02214DF2265000F040FDCF214DF223
:10472000275000F03BFD02214DF2285000F036FDED
:10473000DE214DF2295000F031FD02214DF22A50C8
:1047400000F02CFDF2214DF22B5000F027FD02214C
:104750004DF22C5000F022FDFE214DF22D5000F0C4
:104760001DFD03214DF22E5000F018FD10214DF2D9
:104770002F5000F013FD03214DF2305000F00EFDDC
:1047800033214DF2315000F009FD03214DF232503A
:1047900000F004FD6D214DF2335000F0FFFC0021CC
:1047A0004FF4564000F0FAFC33214DF2016000F066
:1047B000F5FC00214DF2026000F0F0FC34214DF2D6
:1047C000036000F0EBFC00214DF2046000F0E6FC19
:1047D0003A214DF2056000F0E1FC00214DF2066047
:1047E00000F0DCFC4A214DF2076000F0D7FC00210C
:1047F0004DF2086000F0D2FC5C214DF2096000F03F
:10480000CDFC00214DF20A6000F0C8FC81214DF280
:104810000B6000F0C3FC00214DF20C6000F0BEFC08
:10482000A6214DF20D6000F0B9FC00214DF20E60A2
:1048300000F0B4FCE5214DF20F6000F0AFFC012167
:104840004DF2106000F0AAFC13214DF2116000F04F
:10485000A5FC01214DF2126000F0A0FC54214DF2A4
:10486000136000F09BFC01214DF2146000F096FCF7
:1048700082214DF2156000F091FC01214DF216608D
:1048800000F08CFCCA214DF2176000F087FC022179
:104890004DF2186000F082FC00214DF2196000F02A
:1048A0007DFC02214DF21A6000F078FC01214DF2EE
:1048B0001B6000F073FC02214DF21C6000F06EFCE6
:1048C00034214DF21D6000F069FC02214DF21E60A2
:1048D00000F064FC67214DF21F6000F05FFC0221D4
:1048E0004DF2206000F05AFC84214DF2216000F06E
:1048F00055FC02214DF2226000F050FCA4214DF243
:10490000236000F04BFC02214DF2246000F046FCD5
:10491000B7214DF2256000F041FC02214DF22660E6
:1049200000F03CFCCF214DF2276000F037FC022163
:104930004DF2286000F032FCDE214DF2296000F0DB
:104940002DFC02214DF22A6000F028FCF2214DF2EC
:104950002B6000F023FC02214DF22C6000F01EFCC5
:10496000FE214DF22D6000F019FC03214DF22E6066
:1049700000F014FC10214DF22F6000F00FFC032119
:104980004DF2306000F00AFC33214DF2316000F04E
:1049900005FC03214DF2326000F000FC6D214DF268
:1049A000336000F0FBFB5521184600F0F7FBAA210D
:1049B0004FF2010000F0F2FB52214FF2020000F032
:1049C000EDFB08214FF2030000F0E8FB00214FF25D
:1049D000040000F0E3FBCC214FF4314000F0DEFB9B
:1049E00000214BF2011000F0D9FB05214FF43640B5
:1049F00000F0D4FB70214FF4374000F0CFFB702162
:104A00004BF2017000F0CAFB01214FF4384000F076
:104A1000C5FB03214BF6010000F0C0FB03214BF660
:104A2000020000F0BBFB03214BF6030000F0B6FBD5
:104A300002214FF43C4000F0B1FB00214BF6014055
:104A400000F0ACFB00214BF6024000F0A7FBD021A8
:104A50004FF4494000F0A2FB02214CF6011000F097
:104A60009DFB50214CF6021000F098FB50214CF6B3
:104A7000031000F093FB50214CF6041000F08EFB65
:104A800000214FF4545000F089FB55214FF4685039
:104A900000F084FB4FF4885000F069FB782006F0AA
:104AA000A9FC4FF4245000F062FBB9E0B842FCD1FD
:104AB000E22000F05CFB1D2000F04DFB022000F026
:104AC0004AFB042000F047FB642006F093FCE02042
:104AD00000F04DFB012000F03EFB0A2006F07CFCBC
:104AE000E02000F044FB032000F035FB0C2006F032
:104AF00073FC012000F03BFB0A2006F06DFCE62071
:104B000000F035FB2F2000F026FBFF2000F023FBF8
:104B1000FF2000F020FBB02000F029FB202000F057
:104B20001AFB002000F017FB032000F014FB40F2FA
:104B30001F3000F010FB012000F00DFB40F2DF10F1
:104B400000F009FB002000F006FBB42000F00FFB92
:104B5000042000F000FB40F21F4000F0FCFA0020AF
:104B600000F0F9FA2E2000F0F6FA002000F0F3FA37
:104B7000002000F0F0FA002000F0EDFA002000F034
:104B8000EAFAB62000F0F3FA022000F0E4FA4FF45B
:104B9000037000F0E0FA002000F0DDFA172000F0CA
:104BA000DAFA152000F0D7FA002000F0D4FA00203D
:104BB00000F0D1FAF02000F0DAFA032000F0CBFA8E
:104BC000292000F0D4FAD02000F0D1FA002000F023
:104BD000C2FABE2000F0CBFA052000F0BCFAFE209D
:104BE00000F0B9FA012000F0B6FA002000F0B3FAA4
:104BF000002000F0B0FA002000F0ADFAB82000F07C
:104C0000B6FA032000F0A7FA012000F0A4FABA20B7
:104C100000F0ADFA012000F09EFA642000F042F8A6
:104C2000BAF80400404505D0B04203D0A04201D0FC
:104C3000B84217D1D5F81C0120F00F00C5F81C01AF
:104C4000D5F81C0120F47060C5F81C01D5F81C01D2
:104C500040F00300C5F81C01D5F81C0140F40070B9
:104C6000C5F81C010020FDF7A7FC0449C1F8BC925F
:104C70005846FDF787FC15B0BDE8F08F0080404234
:104C80000346012000E05843491EC9B2FBD27047D9
:104C900008B54FF0D840B0F88000ADF80000BDF87E
:104CA000000008BD10B50246BE2000F060FA0520E5
:104CB00000F051FA104616F092FD9FED0C1B53ECDC
:104CC000112B16F0DBFD16F05DFD80B200F043FA0B
:104CD000012000F040FAFF2000F03DFA002000F033
:104CE0003AFABDE81040002000F035BA6666666604
:104CF00066660440F0B56C4D00232946AA79898880
:104D000041F66314012A01D01AB11BE0A14202D17D
:104D100018E0A14216D1082814D2DFE800F00406FA
:104D2000080A0C0E101206200CE007200AE00420EE
:104D300008E0052006E0012004E0002002E0032056
:104D400000E00220A1F5134745F2103245F210565B
:104D5000413F05D0914203D0B14201D0A14277D169
:104D6000082812D2DFE800F0110406080A0C0E1021
:104D700080230AE0402308E0C02306E0202304E06B
:104D8000602302E0A02300E0E023B14202D14FF40F
:104D9000585000E03620914205D0B14203D0A142E4
:104DA00001D043F00803194600F0F8F9AA88A2429E
:104DB0000AD098062888698802D5884202D303E081
:104DC000884201D9298068806889B24241D100F0C7
:104DD000CEF9002000F0BFF96889401C80B200F0D5
:104DE000C6F9002000F0B7F96889801C80B200F095
:104DF000BEF92888401EC0F30F2000F0ACF9688986
:104E0000C01C80B200F0B3F92878401EC0B200F098
:104E1000A2F9A88900F0ABF9002000F09CF9A8895C
:104E2000401C80B200F0A3F9002000F094F9A8899A
:104E3000801C80B200F09BF96888401EC0F30F20F0
:104E400000F089F9A889C01C80B200F090F922E036
:104E500028E000F08CF9002000F07DF9002000F03F
:104E60007AF92888401EC0F30F2000F074F92878E2
:104E7000401EC0B200F06FF9A88900F078F9002058
:104E800000F069F9002000F066F96888401EC0F360
:104E90000F2000F060F9A878BDE8F040401EC0B2D5
:104EA00000F059B9F0BD000014040020F0B53F4DEA
:104EB0000C460246060AA9882846270A4089A1F519
:104EC0001343413B28D0A1F5A643103B24D0A1F5C4
:104ED000C853633B2FD0A1F5AA43103B64D100F027
:104EE00046F9304600F037F96889401C80B200F07E
:104EF0003EF9D0B200F02FF9A88900F038F9384611
:104F000000F029F9A889401C80B200F030F9E0B225
:104F1000BDE8F04000F01FB900F029F9304600F07C
:104F20001AF9D0B200F017F9A88900F020F9384634
:104F300000F011F9EBE7A97929B300F018F9304630
:104F400000F009F9D0B200F006F92888401EC0F33D
:104F50000F2000F000F92878401EC0B200F0FBF8E6
:104F6000A88900F004F9384600F0F5F8E0B200F046
:104F7000F2F86888401EC0F30F2000F0ECF8A87823
:104F8000401EC0B2C4E72988891A491E8AB200F0BF
:104F9000EEF8002000F0DFF8002000F0DCF8100A46
:104FA00000F0D9F8D0B2D9E7F0BD00001404002019
:104FB0002DE9F84F82461F460E468B46580700D013
:104FC000012000EBD700790810FB01F0203AC0B2B5
:104FD00002F0FF090025009047E00C2F10D0102FA1
:104FE00012D0182F14D0202F42D1224901EBC91022
:104FF0004FF00008445D200610D51F48026811E0FC
:1050000009EB49001D4906E01D4901EB0910EFE7D6
:105010001C4909EBC90001EB8000E9E70A9828B9AF
:105020001548426831465046FDF7E6FB6006040E1F
:105030001548761CB6B24088B04219D9A6EB0B00D1
:10504000B84209D10AF101001FFA80FA0E485E4603
:10505000018851450CD906E008F1010000F0FF0875
:10506000B8F1080FC7D36D1CEDB200988542B4D3D8
:10507000BDE8F88F2CD701081C0000206CBF010888
:10508000E0C30108D0C90108140400202DE9FF4F36
:1050900081B00027DDF838B01D46924680463C4678
:1050A000B9464FEA5B0627E0281B401EC1B20A2022
:1050B000FFF7E6FDBAFBF0F00A21B0FBF1F201FBCD
:1050C000120027B9691E8C4201DA48B1012730303D
:1050D000C2B206FB048080B25B46CDF8009006E0C9
:1050E00006FB048080B25B462022CDF80090029936
:1050F000FFF75EFF641CE4B2AC42D5D305B0BDE857
:10510000F08F2DE9F84F044600F0FF0810190D4606
:10511000DDE90A761FFA80FA58191FFA80F94FF074
:10512000000B11E0544502D3E819444685B24D45C1
:105130000FD23B4629462046CDF800B0FFF738FF96
:1051400004EB570084B2761C3278A2F120005E286E
:10515000E8D9BDE8F88F01B5BDF80000ADF8000052
:10516000BDF800004FF0D841A1F8800008BD01B59E
:10517000BDF80000ADF80000BDF800004FF0D841C8
:10518000A1F87E0008BD000003484FF0D841008917
:10519000A1F87E0070470000140400204FF0D842B0
:1051A00022F87E0F51807047114810B5016886B013
:1051B00041F02001016000680E4C00F020000590D5
:1051C0004FF4C060009001200190029003200390F2
:1051D00069462046FCF782F9012251022046FCF77D
:1051E0005DFA012291022046FCF758FA06B010BD84
:1051F0003038024000140240FEE7704770B588B0B6
:10520000244800248DF81440016841F00201016037
:10521000016801F002010691016841F0040101609A
:105220000068012500F00400069002208DE831009E
:105230000320039069461848FCF750F96803CDE94C
:10524000000569461548FCF749F9FBF763FC144E65
:10525000C6F8B442642006F52D7606F0BDF8356038
:10526000642006F0B9F8012000F00CF9012205A92C
:105270004FF4506000F01CF89DF8141009A0FBF7E3
:105280009BF89DF81400802802D0012008B070BD62
:105290000020FBE7303802400004024000080240D2
:1052A000000041424354502049443A25780D0A00F9
:1052B0002DE9F04115460F460446FBF7F3FCB220FA
:1052C000FBF7BCFCFBF736FD200AFBF7B7FCFBF74E
:1052D00031FDE0B2FBF7B2FCFBF72CFDFBF7E2FC83
:1052E000B320FBF7ABFCFBF725FD00246E1E09E0A5
:1052F000B44201D0012000E00020FBF767FC3855E4
:10530000641CE4B2AC42F3D3BDE8F041FBF7F0BC5F
:105310002DE9F143524F00242DED048B4FF00A0884
:1053200082B038784F4E401CC0B2B0FBF8F208FB98
:1053300012012546387009B10A2873D2012206A944
:105340000020FFF7B5FF9DF81800C1066ED000F0F1
:105350001F0040F0C00086F820004FF001099FEDCB
:10536000428B9FED439B96F8201009FA04F001420E
:105370004BD041480422694630F81400FFF798FFEB
:1053800096F830009DF80210C0079DF8030000EB6E
:10539000012020D016F023FA53EC182B16F06EFAE9
:1053A00016F0F0F906EB4405E8829DF801009DF83F
:1053B000001000EB012016F012FA53EC192B16F036
:1053C0005DFA9FED2E1B53EC112B16F08BFB16F0A4
:1053D000D9F9A88119E016F002FA53EC182B16F04F
:1053E0004DFA16F0CFF906EB4405A8819DF80100AF
:1053F0009DF8001000EB012016F0F1F953EC192B89
:1054000016F03CFA16F0BEF9E882641CE4B2052CF2
:10541000A9D30125B28900211AB9F08A08B98DF8FB
:10542000181039709DF81800C0060ED196F82000AB
:10543000010602D520F0800005E04FF6FF71B18132
:10544000F18200F0E00086F820003878F02801D9D9
:1054500087F8008002B02846BDEC048BBDE8F883D5
:10546000260000202C0000207B14AE47E17AD43FB8
:10547000D881734694F6D23F7807020800000000F6
:105480000000894008B500218DF8001010B180207F
:105490008DF80000012269464FF4506000F001F8D9
:1054A00008BD2DE9F04115460E4604460027FBF7DE
:1054B000F9FBB220FBF7C2FBFBF73CFC200AFBF731
:1054C000BDFBFBF737FCE0B2FBF7B8FBFBF732FCA8
:1054D000002408E0305DFBF7B1FBFBF72BFC070075
:1054E00003D1641CE4B2AC42F4D3FBF701FC3846B0
:1054F000BDE8F0817047704770B5214C92B000252F
:10550000266846F080562660246804F08054119482
:105510001C4C266846F48046266024680DF1240C55
:1055200004F480441194012400942404019402247E
:1055300006948CE80D006605CDE907616846FCF726
:1055400025FA00B1FEE70CA90F2081E831004FF4E5
:10555000A0500F904FF48050109005210CA8FCF73C
:105560002DF900B1FEE7FCF79FF841F201018842F6
:1055700004D10548016841F48071016012B070BD2A
:105580004038024000700040003C0240FCF798B8F0
:105590001048016841F4700101600F48016841F052
:1055A000010101600C4A00210832116002680B4BB6
:1055B0001A400260031D0A4A1A60026822F480221F
:1055C000026005480C3001600249580680390860C5
:1055D0007047000088ED00E000380240FFFFF6FE53
:1055E000103000240148FCF751BC000024040020C6
:1055F000094A10B5074BC2E900310021C2E9021087
:1056000010461161FCF7F6FBBDE810400248FCF7BC
:105610002BBC0000000400402404002010B50A4CFC
:105620002068C068C043C00709D1084800698047A6
:1056300021680020486221686420C862E060216817
:105640006FF00100086110BD640400209C00002080
:10565000F0B50268254D264E264FDFF89CC0274B3B
:105660004FF0804EA84209D0704507D0B04205D017
:10567000B84203D0604501D0984203D122F07004B3
:105680004A682243A8421BD0704519D0B04217D0B7
:10569000B84215D0604513D0984211D0184CA042A2
:1056A0000ED0184CA0420BD0174CA04208D0174C7B
:1056B000A04205D0164CA04202D0164CA04203D105
:1056C00022F44074CA6822434C6922F080022243CB
:1056D00002608A68C2620A688262A84201D0984267
:1056E00001D10969016301214161F0BD0000014060
:1056F0000004004000080040000C0040000401408D
:1057000000400140004401400048014000180040B2
:10571000001C0040002000402DE9FF4F83B00E46E2
:10572000DDE910A94E4907464FF47840DDF8508076
:1057300008604CA01024CDE900404B4D9346A021B9
:105740006B882A882820FFF7DCFC48A0CDE90040C0
:105750006B882A88A0217820FFF7D3FC44A0CDE9EC
:1057600000406B882A88B4212820FFF7CAFC41A09A
:10577000CDE900406B882A88B4217820FFF7C1FC6E
:105780003DA0CDE900406B882A88C8212820FFF77A
:10579000B8FC3AA0CDE900406B882A88C82178205F
:1057A000FFF7AFFC36A0CDE900406B882A88DC21EA
:1057B0002820FFF7A6FC33A0CDE900406B882A889B
:1057C000DC217820FFF79DFC2FA0CDE900406B88FD
:1057D0002A88F0212820FFF794FC04233A46A021D0
:1057E00040200094FFF752FC04233246A021902071
:1057F0000094FFF74BFC04235A46B4214020009448
:10580000FFF744FC04230094B4219020069AFFF78C
:105810003DFC04235246C82140200094FFF736FC8B
:1058200004234A46C82190200094FFF72FFC04234C
:105830000094DC214020129AFFF728FC04230094F6
:10584000DC219020139AFFF721FC03234246F0212C
:1058500060200094FFF71AFC07B0BDE8F08F00004D
:105860001C00002078313A001404002079313A00FD
:1058700078323A0079323A0078333A0079333A0094
:1058800078343A0079343A006661632069733A00EB
:105890002DE9F04F00242DED0C8B89B025461F20FB
:1058A000FE4E4FF6FF773060FD4807603846FCF744
:1058B00069FE4FF478483846C6F80080FCF762FE6F
:1058C000F8480027376001684FF0100ACDE900A1C1
:1058D00028216423A0220846FFF713FC1421424626
:1058E000084600F089FAF04880F820709FEDEF0A32
:1058F00080ED090A9FEDEECB9FEDEFDB9FEDF0BB56
:10590000F14E80464FF0900BA0F10409D8F8041036
:1059100047460120884797F820000121B1EB901FEE
:1059200046D120F0400087F8200005A8BA8920F869
:10593000242000EB8400641C0025F98AE4B2B846F8
:105940004180012C06D0022C11D0032C1ED0042C37
:105950002ED13CE014214FF6FF72084600F04CFABD
:1059600030884FF47842143880B214211EE0308819
:105970004FF6FF72143880B2142100F03DFA70889F
:105980004FF47842143881B214200FE070884FF63B
:10599000FF72143881B2142000F02EFA70884FF490
:1059A0007842143881B23088143880B200F024FA7A
:1059B0000A2005F011FD6D1CADB2B5F57A7FA5D9B1
:1059C00000F052FA09B0BDEC0C8BBDE8F08FBDF8C9
:1059D0001400BDF81810411A00D54942BDF8160050
:1059E000BDF81A20801A00D540424943404308447C
:1059F00015F0F5FE41EC100B00F0D1FE51EC100B50
:105A000015F0C0FE84B2BDF81C00BDF82010411A8C
:105A100000D54942BDF81E00BDF82220801A00D5ED
:105A2000404249434043084415F0D9FE41EC100B75
:105A300000F0B5FE51EC100B15F0A4FE00EE104A7C
:105A400087B2F8EE400A00EE107AB8EE401A80EE07
:105A5000810A10EE100A16F007FAB0EE4C9AF0EE3A
:105A60006C9A41EC180B53EC192B15F0CBFE5BD361
:105A7000B0EE4DAAF0EE6DAA53EC1A2B51EC180BB8
:105A800015F0FAFF50D3ECB3E7B3BDF81400BDF83E
:105A90001C10411A00D54942BDF81600BDF81E2061
:105AA000801A00D5404249434043084415F097FE10
:105AB00041EC100B00F073FE51EC100B15F062FE80
:105AC00084B2BDF81800BDF82010411A00D5494233
:105AD000BDF81A00BDF82220801A00D54042494383
:105AE0004043084415F07BFE41EC100B00F057FEDC
:105AF00051EC100B15F046FE00EE104A80B2F8EEA5
:105B0000400A00E010E000EE100AB8EE401A80EE05
:105B1000810A10EE100A16F0A7F941EC180B53ECAD
:105B2000192B15F06FFE31D270880024143881B221
:105B300030884FF6FF72143880B200F05DF91421FE
:105B40004FF47842084600F057F953EC1B2B51EC08
:105B5000180B15F093FE15F015FE80B2BDF822204B
:105B6000BDF82030BDF81E10CDE90320CDE90113AA
:105B7000BDF81C000090BDF81A30BDF81820BDF823
:105B80001610BDF81400FFF7C7FDBFE653EC1A2B43
:105B900051EC180B15F070FFC6D3BDF81800BDF816
:105BA0001C10411A00D54942BDF81A00BDF81E204C
:105BB000801A00D5404249434043084415F00FFE87
:105BC00041EC100B00F0EBFD51EC100B15F0DAFD81
:105BD00084B2BDF81400BDF82010411A00D5494226
:105BE000BDF81600BDF82220801A00D54042494376
:105BF0004043084415F0F3FD41EC100B00F0CFFDDD
:105C000051EC100B15F0BEFD00EE104A80B2F8EE1C
:105C1000400A00EE100AB8EE401A80EE810A10EE3B
:105C2000100A16F021F941EC180B53EC192B15F062
:105C3000E9FDB1D353EC1A2B51EC180B15F01CFFF6
:105C4000AAD3BDF81820BDF81410F6EE001A501AA9
:105C500000EE100A30881144B8EEC01AA0F12803F3
:105C600000EE103A4746B8EEC00AC0EE010A00EE58
:105C7000101AB8EE401A00EE100AB8EE400AC8ED4D
:105C8000090A00EEC10A20EE210ABDEEC00A10EE9C
:105C9000101AA8F82C10BDF81E3017E01C000020C8
:105CA00020000020840702082C00002000000000D3
:105CB000666666666666EE3FCDCCCCCCCCCCF03F5B
:105CC000000000000000594014040020BDF8162018
:105CD000FDEEE00A991A00EE101A71881A44B8EE27
:105CE000C01AA1F1280400EE104AB8EEC02A82EED4
:105CF000010A01EE102AB8EE412A01EE101AB8EEA0
:105D0000411A87ED0A0A00EE421A21EE211ABDEE71
:105D1000C11A11EE102AFA8510EE902A002A00DA34
:105D20005242022A08DCBDEEC00A10EE102A002AF8
:105D300000DA5242022A2CDD14391438002489B2C8
:105D400080B24FF6FF7200F057F814214FF47842FA
:105D5000084600F051F81CA1CDE900A173883288F3
:105D60001A212820FFF7CDF997F8300048B100201C
:105D700087F8300038B189F800B0D02189F80110D7
:105D8000C4E50120F4E7D02189F8001089F801B0BA
:105D9000BCE512481F214FF6FF7401602046FCF756
:105DA000F1FB0FA1CDE900A1738832886E21232079
:105DB000FFF7A7F94FF47A7005F00EFB00F0F4F945
:105DC0002046FCF7DFFBFDE55450204E656564205E
:105DD000726561646A757374210000001C00002004
:105DE000546F7563682053637265656E2041646A01
:105DF000757374204F4B21002DE9F041044619487A
:105E00000D460B46026004F10D0082B2193880B2D3
:105E1000FCF740FC05F10D0083B2193881B222462F
:105E20001046FCF737FC6E1C04F10108B1B21FFAF2
:105E300088F0FCF77BFCB1B2661EB0B2FCF776FCD2
:105E40006F1EB9B21FFA88F0FCF770FCB9B2B0B29D
:105E5000FCF76CFC29462046BDE8F0410622FCF721
:105E600073BC00001C00002010B535202DED028B06
:105E7000FAF7D3FD0A2803D00020BDEC028B10BD39
:105E800004212820FAF7B4FD00EE100A9FED178ACE
:105E9000174CB8EEC00A04212C20C0EE080AC4ED4D
:105EA000090AFAF7A5FD00EE100A02213020B8EE2B
:105EB000C00AC0EE080AC4ED0A0AFAF799FDA085E7
:105EC00002213220FAF794FDE0853420FAF7A5FD8F
:105ED0009023211F84F83000D02210B10B704A703B
:105EE00001E00A704B700120C7E7000020BCBE4CE7
:105EF0002C00002030B53F4D3F4C87B0A888A0F55E
:105F0000AA41103948D0A0F5C851633957D03B4851
:105F10000021026842F002020260026802F00202FE
:105F20000592026842F004020260026802F0040274
:105F30000592026842F0200202600068012400F02D
:105F40002000059006208DE8130003202C4D0390BF
:105F500069462846FBF7C2FA009469462846019430
:105F6000FBF7BCFA6003009069462648FBF7B6FAD7
:105F7000E002009069462448FBF7B0FA1E4916314A
:105F8000A1F10A0000F0BEF8FAF730FDFFF76CFF50
:105F900020B3002007B030BDFBF7C2F868B1FFF7AF
:105FA0002DF91A48606014F8300FA97940F080008C
:105FB00001F0010108432070EBE71548F2E7FAF71A
:105FC00051FF1448606094F83000A97940F08000D7
:105FD00001F00101084384F83000DAE74FF6FF7062
:105FE000FCF7D0FAFFF754FC00F0DEF8FFF73CFFB7
:105FF0000120CFE7140400202C000020303802409C
:10600000000402400008024000140240115300083E
:10601000AD120008A50F00082DE9F04700251E4F1E
:106020002C462E46C7F880521C49C1F8AC52DFF806
:1060300070A0CAF8B45207F5207700F051F9062095
:1060400005F0D8F93E60012005F0D4F94FF00108C1
:10605000C7F80080404605F0CDF93E60B14646469F
:106060004FF6FF78A7F5207708EA4404C7F8809236
:10607000012005F0BFF9C7F88062D7F8080208B11F
:10608000641CA4B26D1CEDB2102DEDD32009CAF82A
:10609000B462BDE8F08700000080404200804242C8
:1060A00000004142FEB5064600246D463046FFF72B
:1060B000B3FF25F81400641CA4B2052CF6D300210C
:1060C0004C1CA0B20BE035F8113035F8102093428B
:1060D00003D925F8112025F81030401C80B205287E
:1060E000F1D3A1B20429EBD30021012035F810200F
:1060F000401C114480B289B20428F7D30320B1FBBD
:10610000F0F0FEBD2DE9F041074F06460D46387808
:10611000FFF7C8FF04467878FFF7C4FF3480288073
:106120000120BDE8F08100002800002070B586B095
:106130000C460546694604A8FFF7E4FF00282FD067
:1061400001A903A8FFF7DEFF002829D0BDF80C3015
:10615000BDF81020934203D803F13200824205D3E8
:106160009A421FD802F1320083421BD2BDF80410BC
:10617000BDF80000814203D801F13206B04204D3D9
:1061800088420FD8323081420CD2D0184008288083
:10619000BDF80000BDF8041008444008208001202C
:1061A00006B070BD0020FBE710B51B4C04222DED9E
:1061B000028B282094ED090A9FED188A20EE080A28
:1061C000BDEEC00A10EE101AFAF748FC94ED0A0A68
:1061D00004222C2020EE080ABDEEC00A10EE101A90
:1061E000FAF73CFCB4F92C1002223020FAF736FC06
:1061F000B4F92E1002223220FAF730FC94F8301055
:106200003420FAF740FCBDEC028B0A21BDE81040B7
:106210003520FAF738BC00002C00002020BCBE4C12
:106220002D4910B5D1F804122C4C41B194F820003E
:10623000010645D520F0800084F8200047E00200E8
:10624000264800F1160100F10C0002D0FFF76EFFA6
:106250002AE0FFF76BFF38B3B4F92C0094ED091A6C
:1062600000EE100AA08900EE900AB8EEC00AF8EE1F
:10627000600A01EE200ABCEEC00A10EE100AA081EE
:10628000B4F92E0094ED0A1A00EE100AE08A00EE2E
:10629000900AB8EEC00AF8EE600A01EE200ABCEEE1
:1062A000C00A10EE100AE08294F8200000060ED416
:1062B000C02084F82000A089A082E08AE08306E064
:1062C0000020A082E0834FF6FF70A081E08294F866
:1062D000200000F0800010BD008040422C00002013
:1062E0002DE9F04700240E4E0E4F0546A0464FF014
:1062F0000109280601D5484600E04046C6F8AC0230
:106300006806050EC7F88082012005F073F8C7F80B
:106310008092641CE4B2082CEBD3BDE8F087000047
:106320000080424200804042F8B5064610480D46C3
:106330000024016841F0040101600068032200F0BC
:106340000400009011461E20FBF706FA1E20FBF702
:10635000F6F9094A07481060C2E90154C2E903642A
:106360001046FBF747FDBDE8F8400348FBF77CBD4E
:1063700040380240000800406404002010B5806BE3
:106380000021C185C184FBF742FE10BD0168CA68C7
:1063900022F49072CA6001684A6922F001024A61DF
:1063A000202180F83A10704710B590F83A10222951
:1063B00001D0022010BD8168B1F5805F11D0016964
:1063C000002901681FD0496801F07F03816A4A1CD7
:1063D00082620B70C18D491E0904090CC18518D059
:1063E0002BE00269816A002A0268526805D0D2B2A5
:1063F0000A80816A491C8162ECE7C2F308020A80C4
:10640000816A891CF7E74A68816A4B1C83620A70BB
:10641000E0E70168CA6822F02002CA600168CA6821
:1064200022F48072CA6001684A6922F001024A615E
:10643000202180F83A10FBF713FF002010BD000068
:106440002DE9F041044600680169E26821F44051F9
:1064500011430161A1682069E26901436069104349
:1064600001432068C26849F20C639A430A43C26040
:1064700020684169A26921F4407111434161E069DA
:106480006425B0F5004F974A974920684FF03208CD
:106490003FD0884201D090427CD1FBF737FA00EB25
:1064A000C00101EB001061688900B0FBF1F6FBF759
:1064B0002DFA00EBC00101EB001061688900B0FB10
:1064C000F1F0B0FBF5F06FF01801484306EB8001E6
:1064D00008EB0110B0FBF5F000F0F006FBF716FA40
:1064E00000EBC00101EB001061688900B0FBF1F026
:1064F000B0FBF5F006EB0016FBF708FA00EBC00165
:1065000001EB001061688900B0FBF1F7FBF7FEF9C1
:10651000D2E0884201D090423DD1FBF7F7F900EB81
:10652000C00101EB001061684900B0FBF1F0B0FB65
:10653000F5F00601FBF7EAF900EBC00101EB0010F2
:1065400061684900B0FBF1F7FBF7E0F900EBC0012F
:1065500001EB001061684900B0FBF1F0B0FBF5F011
:106560006FF01801484307EB800108EBC100B0FB56
:10657000F5F000F0F80006EB4006FBF7C7F900EB7A
:10658000C00101EB001061684900B0FBF1F7FBF7B7
:10659000BDF93CE055E0FBF7A9F900EBC00101EBC8
:1065A000001061684900B0FBF1F0B0FBF5F00601A6
:1065B000FBF79CF900EBC00101EB0010616849009A
:1065C000B0FBF1F7FBF792F900EBC00101EB001013
:1065D00061684900B0FBF1F0B0FBF5F06FF0180115
:1065E000484307EB800108EBC100B0FBF5F000F079
:1065F000F80006EB4006FBF779F900EBC00101EB70
:10660000001061684900B0FBF1F7FBF76FF900EB90
:10661000C00101EB001061684900B0FBF1F0B0FB74
:10662000F5F06FF01801484307EB800108EBC1005B
:10663000B0FBF5F000F00700216830448860BDE849
:10664000F081FBF753F900EBC00101EB001061682A
:106650008900B0FBF1F6FBF749F900EBC00101EB53
:10666000001061688900B0FBF1F0B0FBF5F06FF04D
:106670001801484306EB800108EB0110B0FBF5F070
:1066800000F0F006FBF732F900EBC00101EB00105F
:1066900061688900B0FBF1F0B0FBF5F006EB001685
:1066A000FBF724F900EBC00101EB001061688900E1
:1066B000B0FBF1F7FBF71AF900EBC00101EB00109A
:1066C00061688900B0FBF1F0B0FBF5F06FF01801E4
:1066D000484307EB800108EB0110B0FBF5F000F038
:1066E0000F00A9E7001401400010014090F8391094
:1066F000212901D0022070478168B1F5805F016ACD
:106700000BD04A1C0262026809785160C18C491E94
:106710000904090CC1840ED017E009880268C1F38E
:106720000801516001690029016A02D0491C016217
:10673000ECE7891CFBE70168CA6822F08002CA60A6
:106740000068C16841F04001C1600020704700004E
:1067500010B50848FBF762FC0648FBF759FC2028F7
:10676000FAD1012204490348FBF750FD0028F8D173
:1067700010BD00008403002014000020FEE709077C
:10678000090E002804DB00F1E02080F800147047B7
:1067900000F00F0000F1E02080F8141D704700B5F4
:1067A0002DED048BB0EE409AF0EE609A83B051EC80
:1067B000190B15F0A3F941EC180B18EE100A18EE9E
:1067C000901A8DED008B002818BF0120084320F09F
:1067D0000040C0F17F6000F1E040C00F14D019EE1E
:1067E000101A19EE900A8DED009B002918BF0121A7
:1067F000084320F00040C0F17F6000F1E040C00F8E
:1068000004BF0120FAF719F8B0EE480A03B0F0EE21
:10681000680ABDEC048B00BD30380A2801D2012083
:10682000704700207047000010B54421094801F06E
:10683000C2F910F047FF084C0023042260601E21BB
:10684000064810F049FDA06002F0D4FC0020207042
:1068500010BD0000C007002000020020AD9200081B
:106860002DE9F04100251C4688460646152A3BD2F4
:10687000DFE802F00B1B1D2E3744545D5F686B7B15
:10688000898B9BA8ADB2B7BCD00030460AF061F945
:10689000054640460AF05DF9014605EBD57040100B
:1068A00001EBD171A0EB6100A3E025800EE0304642
:1068B0000AF04FF9074640460AF04BF907EBD7714B
:1068C000491000EBD070A1EB60008DE065800BE01B
:1068D00030460AF03EF9074640460AF03AF9381ABF
:1068E00082E025809AE060802088318808442080FA
:1068F0006088718808446080BDE8F08130460AF005
:1069000028F9054640460AF024F9014605EBD57002
:10691000401001EBD171A0EB61007EE030460AF03F
:1069200018F9054640460AF014F9281A75E0258042
:1069300060E030460AF00DF9054640460AF009F9D4
:10694000281A56E02580084619E030460AF001F979
:10695000054640460AF0FDF8014605EBD5704010AB
:1069600001EBD171A0EB610007E030460AF0F1F8CD
:10697000054640460AF0EDF8281A208040460AF005
:10698000B6F84042AFE7258018E030460AF0E1F85B
:10699000054640460AF0DDF8014605EBD57040108B
:1069A00001EBD171A0EB610007E030460AF0D1F8AD
:1069B000054640460AF0CDF8281A208030460AF0F5
:1069C00096F890E708460AF0C4F840420CE0084602
:1069D0000AF0BFF840420CE008460AF0BAF840421C
:1069E0001BE030460AF0B5F820806FE730460AF029
:1069F000B0F8208030460AF07AF8054640460AF0A2
:106A000076F8014605EBD570401001EBD171A0EB93
:106A1000610068E730460AF09CF8208030460AF0B2
:106A200066F8054640460AF062F8281A5BE770B53A
:106A3000B1F90040B2F900309C4200DD23460380EA
:106A4000B1F90240B2F90250AC4200DC2C4644805D
:106A5000B1F90450B2F90460B54200DB35468580D7
:106A6000B1F90610B2F90620914200DB1146C1804F
:106A70000120AB4201DC8C4200DD002070BDF8B586
:106A80000D460446B0F90000B1F9001016468842E0
:106A900047DBB4F90210B5F90220914241DBB4F9A9
:106AA0000410B5F9042091423BDCB4F90610B5F9A5
:106AB0000620914235DC96B3ADF800006088ADF851
:106AC000020032466946284600F049F8002827D0DF
:106AD000A088ADF800006088ADF802003246694633
:106AE000284600F03CF800281AD02088ADF80000B5
:106AF000E088ADF8020032466946284600F02FF8DB
:106B000000280DD0A088ADF80000E088ADF80200A4
:106B100032466946284600F022F8002800D00120BD
:106B2000F8BD0020F8BDB0F90020B1F904309A4258
:106B300013DCB0F90420B1F900309A420DDBB0F952
:106B40000220B1F906309A4207DCB0F90600B1F92B
:106B50000210884201DB01207047002070472DE9B8
:106B6000FC4105460F46B1F90000B5F90010144686
:106B700088423BDBB5F90410884237DCB7F90200E4
:106B8000B5F90210884231DBB5F9061088422DDCD8
:106B9000002C76DD284609F0DCFF00EBD0704610B3
:106BA000284609F0A4FF00EBD0704010864200DABE
:106BB0003046844200DD04462888ADF8000028886D
:106BC00000222044ADF804006888ADF8020068880F
:106BD00039462044ADF806006846FFF7C0FF40B1D3
:106BE000BDF804002044ADF804003FE00020BDE8FB
:106BF000FC81E8880022001BADF80200E888ADF8AF
:106C0000060039466846FFF7AAFF28B1BDF8040020
:106C10002044ADF8040011E0A8880022001BADF864
:106C20000000A888ADF8040039466846FFF797FFD2
:106C300050B1BDF80000001BADF80000BDF8020027
:106C4000001BADF8020016E06888ADF80200688805
:106C500000222044ADF8060039466846FFF77FFF62
:106C600070B1BDF80000001BADF80000BDF80600D3
:106C70002044ADF80600394668460FF031FEB6E70D
:106C8000FFE70120B3E710B5B1F90030B2F90040D9
:106C9000A34200DB23460380B1F90230B2F902407F
:106CA000A34200DB23464380B1F90430B2F904402B
:106CB000A34200DC23468380B1F90610B2F9062016
:106CC000914200DC1146C18010BD2DE9FF4F87B015
:106CD0001C46DDE91476DDF858908B46022E4FD322
:106CE000002F4DD001F072FC80460AF0DBF900F174
:106CF0001005D0F808A0D8F82410404601B1884704
:106D00005A4604A80799FFF792FE002838D0BDF82C
:106D100010002988401AADF81000BDF812006988EB
:106D2000401AADF81200BDF814002988401AADF8D9
:106D30001400BDF816006988401AADF816009CB121
:106D400098F80800C0070FD104A809F0EAFE02462F
:106D5000002007E0215C802901D9FF2100E000210B
:106D60002154401C9042F5DBD8F8140058B1CDE90D
:106D70000064029704AA51462846099B07F0CEF901
:106D80000BB0BDE8F08FB9F1000F0AD001A8009652
:106D900080E8900204AA51462846099B06F040FF6D
:106DA000EEE7CDE90064029704AA51462846099B04
:106DB00006F0CEFFE4E72DE9FF4F87B01C46DDE982
:106DC0001476DDF858A09146022E51D3002F4FD0F3
:106DD000014605A8089AFFF72AFE002848D001F0CE
:106DE000F5FB80460AF05EF900F11005D0F808B016
:106DF000D8F82410404601B18847BDF8140029880E
:106E0000401AADF81400BDF816006988401AADF8B4
:106E10001600BDF818002988401AADF81800BDF812
:106E20001A006988401AADF81A009CB198F8080059
:106E3000C0070FD105A809F074FE0246002007E044
:106E4000215C802901D9FF2100E000212154401C50
:106E50009042F5DBD8F8140068B1CDF800900397A4
:106E6000CDE9016405AA59462846089B11F005F8AA
:106E70000BB0BDE8F08FBAF1000F0BD002A805AA45
:106E800080E89004CDE9009659462846089B10F00A
:106E900083FDEDE7CDF800900397CDE9016405AAE5
:106EA00059462846089B10F023FEE1E7D0F88021E0
:106EB000C2F309438B4202D204490A4002E0591A44
:106EC00061F31942C0F8802170470000FFFF00FC09
:106ED0002DE9FC5F054610F0F5FB564C0190E86883
:106EE00060600021284610F02FFB6068416CA9B15A
:106EF0000FF010FF0FF084FE60684F4AD0F8801149
:106F000011427DD0A2460AF062F900286BD0DAF86F
:106F1000040055464169002965D108E0464AD0F889
:106F20008011D2431140C0F88011BDE8FC9F0AF0E7
:106F3000B9F804460FF0E8FFA0690028FCD16868A2
:106F4000B0F90000400000F043FF8346A1682068CC
:106F50008946814200D16068804668680AF0B6F8C8
:106F600007460024AA4630E0021992F8622152BB7B
:106F700000EBC4000E4630F9621F428817FB021175
:106F80004D0009F0C8FD40000090706800EBC4009F
:106F9000B0F964600FE008EB05015846009A00F074
:106FA000D9FF09EB05005946009A00F0D3FF761C83
:106FB00005EB470536B2DAF8040000EBC400B0F97F
:106FC0006800B042E7DA641CA4B2DAF80400514663
:106FD000D0F88021C2F30942A242C5D8BBF100001B
:106FE00001D000F079FFDAF804004FF480715446C4
:106FF000623001F09FF86068202100F5B17000E078
:1070000012E001F097F860680B4AD0F88011D24383
:107010001140C0F88011019810F04EFB01466068E5
:1070200083690BB12268984700F0B0FEBDE8FC5FB1
:1070300000F004B8A40100200000FF0310B5044CC8
:107040002068002803D00DF033FC0020206010BD24
:10705000240200204421014800F0ADBDA807002013
:107060001821014800F0A7BDCC0700202DE9FE4FF4
:107070000446DDE90C0513B9B0F5807F7ED0B5F983
:1070800000604FF0FF3C764246430CEB262636B2BA
:107090002680B5F902707F4247430CEB27273FB2A9
:1070A0006780B5F900C0A1EB0C0141434FF0020C21
:1070B0000CEB212109B2A180B5F90280A2EB0802F4
:1070C00042430CEB222000B2E080002B7ED04FF038
:1070D0000A0A93FBFAF6704200EB800003EB4007CC
:1070E00006F1010930B201F07BFE00900FFA89F041
:1070F00001F076FE83465A3630B201F071FE8046CA
:1071000009F15A0000B201F06BFE0146009AC7F186
:107110000A0000FB02F300FB08F001FB07010BFB78
:10712000073393FBFAF291FBFAF15011B4F9002006
:107130004FEA611BB4F902100BFB02F6B5F800C070
:1071400000FB11630CEBA323E646B5F802C00FFA6F
:1071500083FACDF800C0B4F9043000FB02F90BFB50
:1071600001920BFB03F800FB11850CEBA2220EEB46
:10717000A52512B22DB200FB03FC00E02EE0CDE904
:1071800001C80BFB01C1DDF800C0B4F906700CEBBF
:10719000A1210BB200FB17610EEBA1210EB2DDF8AD
:1071A00008800BFB079100FB17800CEBA121DDF899
:1071B00004C00EEBA0200BFB07C7DDF800C009B22E
:1071C0000CEBA72700B23FB2D44600E00FE05645D3
:1071D00000DAB446A84217DA804616E00020208084
:1071E000491E6080A180521EE280BDE8FE8F2A8881
:1071F000324422806A883A4462802A881144A180FD
:1072000069880844E080F0E7A846C44504DAD4461B
:10721000564506DAB44604E0A84201DA844600E0A6
:10722000AC46A4F800C0D446564500DDB446A8429A
:1072300001DD804600E0A846C44504DD50465645C1
:1072400004DD304602E0A84200DC2846A0809142DE
:1072500001DA084600E010469F4201DA3D4600E0B0
:107260001D46A84205DA914201DA084606E01046BA
:1072700004E09F4201DA384600E0184660809142FF
:1072800001DD084600E010469F4201DD3D4600E07A
:107290001D46A84203DD914206DC114604E09F42F0
:1072A00001DD394600E01946E1809EE72DE9FE4FF9
:1072B0000446D0F800B0B0F90800E589081AB4F91E
:1072C0000A10511AD4E90932B5F5807F3AD0A58960
:1072D000002DA56B05FB00F005FB01F54FEA6010E2
:1072E0004FEA65113CD0256BE66A05FB00F706FB0B
:1072F0001177464305FB016003EBA72902EBA020B1
:10730000B4F904104FEA292706128046B94245DD38
:10731000002F43DBB4F90600B0423FDD002E3DDB19
:1073200094F8340042073CD5820704F114001BD4C2
:1073300001FB067102224D0092460BEB050100F0A5
:10734000B2FE21E0256BE66A05FB00F706FB11772C
:10735000464305FB016003EBA70902EBA000CFE762
:1073600003EB00095018CBE701FB067101EB410567
:107370004FF0030A0BEB0501022200F094FEE81C1B
:10738000584410F8010CA07594F83400C0071ED0C2
:107390001948A18A008880B2814218D10020BDE836
:1073A000FE8F32B204F118002369CDE901020025F5
:1073B00039B2AA468B460BF037FD0090BDF80000AD
:1073C000A082DDE9010259460BF0C6FCDBE7E07C58
:1073D00078B1A4F83C90A4F83E80A4F84070A4F8DA
:1073E0004260656484F848A02046BDE8FE4F00F086
:1073F00005B80120D3E700008C0702082DE9F04F03
:10740000044690F83C10D0F8009090F83E0087B009
:107410004FF0FF36702907DAB4F940203546012ACB
:1074200000D5002580310DE0902916DDB4F940200B
:10743000B4F904300125521C9A4200DB0025A1F268
:107440007F114942C9B28846702809DAB4F942105E
:10745000012900D50026803010E00025FF21F2E749
:1074600090280DDDB4F94210B4F906200126491C1C
:10747000914200DB0026A0F27F104042C7B201E03B
:107480000026FF2760690590A07D019000208346BB
:107490008246009094F83400400744D594F8481090
:1074A000606C11FB05014944022204A800F006FEAD
:1074B000A08894F8481010FB01F0616C022206FBD2
:1074C0000011494403A800F0F9FDA18894F8480090
:1074D00011FB00F1626C06FB012210FB05901118F4
:1074E000022202A800F0EAFD94F83400800761D57A
:1074F00094F84800616C10FB051300EB090213447B
:1075000013F8013C0093A38813FB00F306FB03115F
:107510000A4412F801BC10FB0500014401EB09000C
:1075200010F8010C45E0B4F84000B4F942202844BA
:1075300001B204F11800814623690BF075FC049038
:10754000B4F84200B4F94010304402B254F8103F8D
:1075500048460BF069FC0390608E2368304402B209
:10756000208E284401B248460BF05EFC029094F84D
:107570002400103C80071DD5B4F9422034F8400F98
:10758000284401B248460BF0E7FB00906088B4F94C
:107590000010304402B248460BF0DEFB83466088A0
:1075A000304402B234F84009284401B248460BF096
:1075B000D3FB824694F8340042464546800735D5D1
:1075C000019810FB08F30099C8F1FF0011FB00318E
:1075D000C1F307211BFB08F61AFB0060C0F307206C
:1075E00011FB07F3C7F1FF0610FB06331B0AA37557
:1075F000022907D8022803D8002007B0BDE8F08F81
:10760000002702E0022800D8FF270198022800D8AE
:1076100000220098022800D8FF22BBF1020F00D8F8
:107620000025BAF1020F03D8FF2501E0FF20A07565
:10763000DAB1FF2A1BD0DDE9041009F081FB0190CB
:10764000BDB1FF2D17D0DDE902102A4609F078FB05
:1076500000903FB1FF2F10D001463A46019809F043
:107660006FFB0090BDF8000009E00498E7E705987B
:10767000E5E70298ECE70398EAE7BDF80400A0828A
:107680000120BAE72DE9F0470446B0F908000A27BF
:1076900000026062B4F90A000002A062B4F90C00B2
:1076A00090FBF7F5694201EB810100EB410668426E
:1076B00005F1010800B201F093FB8246E84300B2F5
:1076C00001F08EFB8146C5F15A0000B201F088FB43
:1076D0000546C8F15A0000B201F082FB0146C6F12E
:1076E0000A0000FB0AF3684301FB060009FB0632AF
:1076F00092FBF7F290FBF7F051114011C4E90B1027
:10770000A07C0BF09DFC94F8341060F3000184F829
:107710003410A07C0BF084FC94F8341060F3410129
:1077200084F83410A07C042823D0052821D0062812
:107730001FD021F0040184F8341021682162A1696E
:1077400021F0E00160F30401A08860F39421E08857
:1077500060F35F51A161E0894FF4001101EB50012A
:10776000B1FBF0F0A063FF20A075208AA082BDE8E5
:10777000F08741F00401DEE72DE9F047454F8946E7
:1077800082463B88002623B143480021434C0568CC
:107790000DE00020BDE8F08701EBC10005EB8002A1
:1077A000106AA04201DD401E1062491C89B2994254
:1077B000F2D30024B8461AE004EBC40005EB8007BE
:1077C00078680CF0DDFE10B1012809D00DE0796871
:1077D00051450AD139891FFA89F081420ED004E05F
:1077E00051467868F8F7E0FF40B1641CA4B2B8F8DD
:1077F00000008442E0D37EB13046CBE704EBC40006
:1078000005EB80067169306A08444FF47A71306282
:107810008842F0DD3162EEE72C460120B8F8002006
:107820000AE000EBC00105EB8101266A0B6AB34256
:1078300000DA0C46401C80B29042F2D3606810B16E
:1078400020460BF0DCFF0FF03DFF064600254A46C0
:107850005146204665610CF031F818B12562606927
:1078600078B115E020460BF0CAFF2021204600F039
:1078700061FC2421204600F05DFC4FF000402062B6
:1078800087E730460FF018FF606108B9012060619A
:1078900020467FE7B40100200C0200200100008098
:1078A00010B510210C4800F086F90BF0BBFF40B179
:1078B0000A4901600A4941600A4981600A49C16078
:1078C00010BD09F0F1FA0028FAD10022134607A0F2
:1078D00009F0EEFAFEE70000D8070020D5310108D4
:1078E0004135010845370108A13101084F75742061
:1078F0006F66206D656D6F7279000000002108468B
:107900000CF0BCBE70B50C46054600261021204682
:1079100000F010FC2878012804D0022807D00428A1
:1079200008D00BE0288C2080688C608006E0686AB4
:10793000606003E00A2060600020A0816A681AB1DC
:107940002146284690470646304670BD2DE9FF4146
:10795000384DC0686860C168002969D008F02CF90A
:10796000686890F85000400762D40026694668684D
:10797000FFF7C8FF0746686808F01EF92E606968BF
:107980009DF80E000877012805D00878042808D152
:10799000BDF80C00A8B30FF095FE6968C968C1F87E
:1079A000840168680178012906D002292DD00429B4
:1079B0002FD0032932D034E00446406D78B1B4F9B9
:1079C0002420BDF900108A4205D1B4F92620BDF962
:1079D00002309A4203D0BDF902200EF00BFDBDF833
:1079E00000002084BDF802006084207F012804F19B
:1079F0001C0007D008F042F8208CA084608CE08442
:107A00000FE006E007F0EAFEF6E7694607F0D6FD6C
:107A100007E06946686807F09BFB02E0694607F0EB
:107A2000C1F8686808F0C8F8002F9FD16E602E601A
:107A3000BDE8FF81900100207FB50D46040003D111
:107A400009F032FB040025D02D4EF5B10020ADF831
:107A50000000ADF80200204609F038FB401EADF8EA
:107A60000400204609F098FB401EADF806006A4667
:107A7000294602A8FEF7DBFF00280BD0226912B1CD
:107A800002A920469047002510E0D4F8800130403C
:107A9000C4F880017FBD04EBC501002202A8623159
:107AA000FEF7EDFF0028F5D16D1CADB2D4F88001D2
:107AB000C0F30940A842EED8D4F88001C0F30941D0
:107AC000202903D204EBC10002A907E03040C4F82A
:107AD0008001C0F3094004EBC0006946623008F041
:107AE000E8FFD4F880014FF4800101EBB0604FEA69
:107AF000B010C4F880010321606B0FF025FD7FBD3D
:107B0000FFFF00FC70B50C461E461546114600F0FE
:107B100002F9AEB100222946204610F08EFA29461D
:107B20002046626810F080FA616819B12A46204642
:107B300010F083FA6560A068002800D1A56070BDD0
:107B400029462046A26810F078FA002229462046ED
:107B500010F06AFAA16819B12A46204610F064FABA
:107B6000A56060680028EAD1656070BD01004FF033
:107B7000000000D04868704700B503460022FFF7B8
:107B8000F5FF03E01846521C00F004F80100F9D19B
:107B9000104600BD002802D00068091D40587047FB
:107BA000002801D000684058704701004FF00000E5
:107BB00000D08868704700224260C91C21F0030190
:107BC00082600160704770B50446006808300CF0B0
:107BD00019FE050013D001460022204610F02DFAB0
:107BE00029462046626810F01FFA616819B12A46DA
:107BF000204610F022FA6560A06800B9A56028460A
:107C000070BD2DE9F0410D4606002BD055B3FFF7AE
:107C1000ADFFA84204D13046FFF7D5FF04461EE071
:107C2000306808300CF0EEFD04001BD029463046C9
:107C3000FFF7B6FF074601462246304610F0F4F93A
:107C40003A462146304610F0F8F922462946304699
:107C500010F0F3F92A462146304610F0E5F92046A7
:107C6000BDE8F0810020FBE770B5044600680830ED
:107C70000CF0C8FD050013D001460022204610F08C
:107C8000D3F929462046A26810F0D7F9A16819B1A6
:107C90002A46204610F0C8F9A560606800B9656002
:107CA000284670BD28B1416809B9806808B1002034
:107CB0007047012070472DE9F04116460D460746F2
:107CC000B14226D01EB11146FFF76AFF01E0FFF76F
:107CD0006CFF0446A5421CD02946384600F01BF82C
:107CE0002A462146384610F09FF922462946384652
:107CF00010F0A3F92A463146384610F09EF9324674
:107D00002946384610F090F906B9BD60002C00D124
:107D10007D60BDE8F08170B50B460446FFF726FF95
:107D2000002298420AD119462046FFF733FF6060CF
:107D300010B10022014624E0A26070BD2046FFF78A
:107D400034FF9842194620460CD1FFF729FFA06066
:107D500030B101462046BDE87040002210F064B901
:107D6000626070BDFFF71CFF054619462046FFF70D
:107D700011FF064602462946204610F055F92A46CC
:107D800031462046BDE8704010F057B970B500206C
:107D90000D49054601EBC002401CC0B29571022896
:107DA000F8D30A4E002456F8340038B10CF080FDA8
:107DB00006EBC40046F8345085718580641CE4B23B
:107DC000102CF0D370BD000038020020F007002016
:107DD0002DE9F041040017D00126102C0AD82F49B4
:107DE000002001EBC0029279D20710D0401CC0B233
:107DF0000228F6D32A4D4FF0FF30002205EBC201D6
:107E00008B79DB0709D01AE00020BDE8F08101EB97
:107E1000C002967151F83000F7E78988A1420ED36D
:107E200005D105EBC200867155F83200EDE7002858
:107E300004DB05EBC0039B88994200D250B2521C70
:107E4000D2B2102ADAD3002805DB05EBC0018E710F
:107E500055F83000D9E7002705EBC7008079C00747
:107E600009D07F1CFFB2102FF6D3002213460DA0BD
:107E700009F01EF8FEE755F8370021460CF044FDE6
:107E800030B105EBC7018E718C8045F83700BCE737
:107E9000002213460F4809F00BF8FEE738020020D5
:107EA000F00700204E6F2066726565206275666679
:107EB00065722E20496E637265617365204C565F52
:107EC0004D454D5F4255465F4D41585F4E554D2ED5
:107ED000000000000C54040810B500210C4A0B46A9
:107EE00052F83140844209D0491CC9B20229F7D363
:107EF000084A002152F83140844203D102EBC1000C
:107F0000837110BD491CC9B21029F3D310BD000004
:107F100038020020F0070020002803D004498842DE
:107F200001D10020704750F8040C40087047000051
:107F3000300200200649054847F6FC724860016897
:107F400021F0010162F35F0101607047F008002039
:107F50002802002030B500F0030401F003050346B9
:107F6000A54243D14DE00C781C704C785C708C7845
:107F70009C70CC78DC700C791C714C795C718C79BC
:107F80009C71CC79DC710C7A1C724C7A5C728C7AA4
:107F90009C72CC7ADC720C7B1C734C7B5C738C7B8C
:107FA0009C73CC7BDC730C7C1C744C7C5C748C7C74
:107FB0009C74CC7CDC740C7D1C754C7D5C758C7D5C
:107FC0009C75CC7DDC750C7E1C764C7E5C768C7E44
:107FD0009C76CC7EDC760C7F1C774C7F5C778C7F2C
:107FE0009C77CC7FDC772031203A2033202ABAD806
:107FF00004E011F8014B03F8014B521E002AF8D19E
:1080000030BD4CB3C4F1040405E011F8015B521E0D
:1080100003F8015B641EFCB1002AF6D11CE010C914
:10802000203A10C310C910C351F8084B43F8084B4D
:1080300051F8044C43F8044C51F8104B43F8104BE2
:1080400051F80C4C43F80C4C51F8084C43F8084CD0
:1080500051F8044C43F8044C202AE0D802E010C93F
:10806000121F10C3042AFAD804E011F8014B03F8D8
:10807000014B521E002AF8D130BD10B5034604E072
:1080800011F8014B03F8014B521E002AF8D110BD24
:1080900010B5034604E011F8014B03F8014B521EE2
:1080A000002AF8D110BD10B5034604E011F8014BC9
:1080B00003F8014B521E002AF8D110BD10B503463B
:1080C00004E011F8014B03F8014B521E002AF8D1CD
:1080D00010BD10F0030309D0C3F1040303E0521EE6
:1080E00000F8011B5B1E0BB1002AF8D101EB012344
:1080F00003EB014303EB01630EE008C0203A08C024
:1081000040F8083B40F8043C40F8103B40F80C3C79
:1081100040F8083C40F8043C202AEED801E008C0B2
:10812000121F042AFBD802E000F8011B521E002A8D
:10813000FAD1704710F003034FF0000219D0C3F1D9
:10814000040303E0491E00F8012B5B1E8BB10029DC
:10815000F8D10EE004C0203904C040F8082B40F8E4
:10816000042C40F8102B40F80C2C40F8082C40F858
:10817000042C2029EED801E004C0091F0429FBD8F3
:1081800002E000F8012B491E0029FAD1704710F0D7
:1081900003024FF0FF0309D0C2F1040203E0491EBD
:1081A00000F8013B521E0AB10029F8D14FF0FF320E
:1081B0000EE004C0203904C040F8082B40F8042C1D
:1081C00040F8102B40F80C2C40F8082C40F8042CF8
:1081D0002029EED801E004C0091F0429FBD802E0E1
:1081E00000F8013B491E0029FAD1704770B50C46D2
:1081F00005460026314628460DF007FB38B1416898
:10820000761C64F3CB21F6B24160402EF2D34026B7
:10821000314628460DF0F9FA002807D04168761C4F
:1082200064F3CB21F6B24160FF2EF1D370BD0000A4
:108230002DE9FC470E460746144615464FEA12281C
:108240004FF0000A20E0314638460DF0DEFA814654
:10825000314638460DF068FA05EB002084B26A46D4
:108260002146484600F0E6FA012805D05FEA08609A
:108270000CD52EB1002607E0BDF80000BDE8FC8754
:1082800038460DF00FFA0746002FDCD124F4FE40EB
:10829000292804D02A2802D0CDF804A002E00348FF
:1082A00000680190BDF80400E8E7000088070208B4
:1082B0002DE9F84315460F4616464FEA1229804627
:1082C000A1E039460DF0A1FA04464068010570D4DA
:1082D00081066ED0400505D425F4FE42394640465D
:1082E00011F0EAFF25F4FE40302859D024DC112893
:1082F00069D010DC052850D006DC01285DD00228AA
:1083000045D004286CD148E0062846D0072844D040
:10831000102865D157E0162858D006DC122852D014
:10832000132850D015285BD150E017284ED01828BC
:108330004CD0202854D14CE060284AD010DC402892
:1083400038D006DC31282ED0322842D0332847D10D
:108350002CE042283DD0502832D0542840D138E07B
:1083600048F28102811A904214D009DC722830D080
:1083700091282ED000F5FF40B0F5803F30D109E0C4
:10838000012929D0022924D01F2929D121E0A08840
:10839000400423E06068800020E0A08800041DE025
:1083A000606880021AE06068400217E060680002BE
:1083B00014E015E06068C00110E0A088C0040DE082
:1083C000606840010AE06068C00307E060688003FD
:1083D00004E06068400301E060684000002816DBAC
:1083E000394640460DF0A0F906EB002085B26A46FA
:1083F0002946204600F05AFA012812D05FEA0960A7
:1084000005D597B10027B8F100007FF45AAF25F4E5
:10841000FE40222819D00CDC032812D007280CD1EA
:1084200015E0BDF90000BDE8F88340460DF03AF9CB
:1084300045E7312803D0C02805D00020F3E70F20FE
:10844000F1E70520EFE70C20EDE7FF20EBE74FF425
:108450008070E8E72DE9F84315460F4616464FEAC7
:108460001229804637E039460DF0CFF904464068BE
:1084700001051DD481061BD0400505D425F4FE421C
:108480003946404611F018FF25F4FE402C2809D04B
:108490000C38B0F5004002D0A12809D12BE0A0880B
:1084A000800403E06068C10222D40003002815DBC9
:1084B000394640460DF038F906EB002085B26A4691
:1084C0002946204600F02EFA012817D05FEA0960FD
:1084D00004D5B7B10027B8F10000C4D125F4FE409F
:1084E0002C2812D06D2810D0AD38B0F5004F0CD02C
:1084F000FF20BDE8F8836068C000D7E79DF8000062
:10850000F7E740460DF0CEF8ABE70020F1E70000BA
:108510002DE9F84315460F4616464FEA12298046C4
:1085200037E039460DF071F90446406801051DD465
:1085300081061BD0400505D425F4FE42394640464D
:1085400011F0BAFE25F4FE406E2809D07F2804D031
:108550008E38B0F5004F09D105E06068000103E0F6
:108560006068800100E06068002815DB39464046FD
:108570000DF0DAF806EB002085B26A46294620465F
:1085800000F00CFA012814D05FEA096004D597B115
:108590000027B8F10000C4D125F4FE407E280ED09B
:1085A000BE280FD08E38B0F5004F08D00020BDE8AF
:1085B000F8830098FBE740460DF074F8AFE70FF042
:1085C0000DF8F4E70048F2E7E43C0208014840688F
:1085D00070470000A4010020704730B5040200205D
:1085E000831803FB03F5A54200D818465208F7D1BB
:1085F000020900070A80000E488030BD2DE9F041D5
:108600001646050088464FF0FF3706D0286820B18F
:10861000284606F08DF9040002D53846BDE8F08101
:108620002968A01C014402223046FFF731FD214693
:10863000284606F0BCF900EA182000F07F00EDE7BC
:108640002DE9F0411646050088464FF0FF3706D069
:10865000286820B1284606F06BF9040002D5384698
:10866000BDE8F0812968A01C014402223046FFF7D2
:108670000FFD2146284606F09AF900EA182000F07E
:108680007F00EDE770B50546006800280CD0002497
:1086900002E006F03FF904442146284606F08CF932
:1086A000FF28F6D1A41CA0B270BD2DE9F0411646FA
:1086B000050088464FF0FF3706D0286820B12846CD
:1086C00006F036F9040002D53846BDE8F081296885
:1086D000A01C014401223046FFF7DAFC214628465F
:1086E00006F065F900EA182000F07F00EDE72DE9BB
:1086F000F0411646050088464FF0FF3706D028683F
:1087000020B1284606F014F9040002D53846BDE829
:10871000F0812968A01C014404223046FFF7B8FC10
:108720002146284606F043F900EA182000F07F00B1
:10873000EDE7000070B50E4605003AD000F06EF986
:108740006868810616D08006010E091D28680CF0A5
:10875000DBF8044608F0A8FB80B1002C29D069683A
:1087600000200A0600D501204A0600D5401C01F071
:108770003F0311E004200CF045F8EAE7224600230D
:108780000CA008F095FBFEE704EB830151F8041CF4
:1087900044F823105B1EDBB28342F5D844F8206016
:1087A00068684FF0806101EBB0104FEAB060C5E936
:1087B000004070BD4F7574206F66206D656D6F72DF
:1087C0007900000070B504460079000604D5204603
:1087D000BDE8704000F019B904200CF013F805460C
:1087E00008F062FBA8B1D5B128460EF0E7FB294698
:1087F0002046FFF79FFF606840F080006060400601
:1088000005D52068D0E90012026020684160284642
:1088100070BD2A46002303A008F04AFBFEE70020B3
:1088200070BD00004F7574206F66206D656D6F72AE
:10883000790000002DE9F84317468946060033D039
:10884000306800282ED000204FEA19284FF0FF355D
:10885000ADF8000004461DE0E1B230460EF024FC05
:108860006A464946FFF7CAFE404503D1BDF80000FD
:10887000388016E071680A0604D5002802DB0CB9BE
:10888000C905F3D5A84203DD0546BDF800003880D0
:10889000641C24B2307900F03F00A042DCDC002DE3
:1088A00002DB0120BDE8F8830020FBE72DE9F84357
:1088B00017468946060033D0306800282ED00020A5
:1088C0004FEA19284FF0FF35ADF8000004461DE0CF
:1088D000E1B230460EF0E8FB6A464946FFF7B0FECB
:1088E000404503D1BDF80000388016E071680A06E3
:1088F00004D5002802DB0CB9C905F3D5A84203DD75
:108900000546BDF800003880641C24B2307900F0C0
:108910003F00A042DCDC002D02DB0120BDE8F88333
:108920000020FBE72DE9F84317468946060033D0BF
:10893000306800282ED000204FEA19284FF0FF356C
:108940008DF8000004461DE0E1B230460EF0ACFBAD
:108950006A464946FFF7A9FE404503D19DF800004D
:10896000387016E071680A0604D5002802DB0CB9DD
:10897000C905F3D5A84203DD05469DF8000038700F
:10898000641C24B2307900F03F00A042DCDC002DF2
:1089900002DB0120BDE8F8830020FBE72DE9F84366
:1089A0001746894606002ED03068002829D04FEAA5
:1089B00019284FF0FF3500241BE0E1B230460EF0DD
:1089C00073FB6A464946FFF792FE404502D1009884
:1089D000386015E071680A0604D5002802DB0CB97E
:1089E000C905F4D5A84202DD054600983860641C2C
:1089F00024B2307900F03F00A042DEDC002D02DB23
:108A00000120BDE8F8830020FBE70179090601D4C5
:108A100000207047006800687047000070B50D4680
:108A200041680446880627D00022104601F03F0125
:108A300006E0236853F82030AB4205D0401CC0B29A
:108A40008142F6D8002A17D0002601290CD08800D0
:108A5000001F0BF0D7FE064608F026FA68B1002E7C
:108A60000AD00020014619E020680BF021FF2660A3
:108A7000606820F07F00606070BD3246002310A067
:108A800008F016FAFEE7226852F82020AA4203D026
:108A900046F82120491CC9B2401CC0B2227902F01C
:108AA0003F028242EFD820680BF002FF60684FF06F
:108AB0007C4101EBB0104FEAB060C4E9006070BDCA
:108AC0004F7574206F66206D656D6F7279000000C0
:108AD00070B5040025D02079400609D520460EF057
:108AE000D7FA050004D00EF021FB28460BF0E0FE7B
:108AF0002079000609D52046FFF787FF050004D03E
:108B00000EF014FB28460BF0D3FE2079800602D02D
:108B100020680BF0CDFE0020206060686FF3080035
:108B2000606070BD37B582B00446BDF80C1005F02A
:108B3000FFFE050011D40146204605F038FFBDF8C0
:108B40000C1000F07F00C1F30621884205D1AD1C56
:108B500020680222284404A926E0FF20ADF8000086
:108B60002046FFF78FFD00B90220001D85B229467F
:108B7000204610F0B2F8206808F096F9C0B1002C39
:108B800014D020680222284403A9801FFFF780FA2E
:108B900020680222284404A9001FFFF779FA206800
:108BA000022228446946801EFFF772FA05B030BDE4
:108BB000002302A0226808F07BF9FEE74F757420BD
:108BC0006F66206D656D6F727900000037B582B0F9
:108BD0000446BDF80C1005F0ABFE050011D40146AB
:108BE000204605F0E4FEBDF80C1000F07F00C1F354
:108BF0000621884205D1AD1C20680222284404A920
:108C000026E0FF20ADF800002046FFF73BFD00B94D
:108C10000220001D85B22946204610F05EF820682B
:108C200008F042F9C0B1002C14D020680222284478
:108C300003A9801FFFF72CFA20680222284404A908
:108C4000001FFFF725FA2068022228446946801E8B
:108C5000FFF71EFA05B030BD002302A0226808F01D
:108C600027F9FEE74F7574206F66206D656D6F7292
:108C70007900000037B582B00446BDF80C1005F04D
:108C800057FE050011D40146204605F090FEBDF8C0
:108C90000C1000F07F00C1F30621884205D1AD1C05
:108CA00020680122284404A926E0FF20ADF8000036
:108CB0002046FFF7E7FC00B90220C01C85B2294618
:108CC000204610F00AF8206808F0EEF8C0B1002C39
:108CD00014D020680222284403A9401FFFF7D8F9C6
:108CE00020680122284404A9C01EFFF7D1F920689A
:108CF000022228446946801EFFF7CAF905B030BD3C
:108D0000002302A0226808F0D3F8FEE74F75742014
:108D10006F66206D656D6F727900000037B582B0A7
:108D20000446BDF80C1005F003FE050011D4014601
:108D3000204605F03CFEBDF80C1000F07F00C1F3AA
:108D40000621884205D1AD1C20680422284404A9CC
:108D500026E0FF20ADF800002046FFF793FC00B9A5
:108D60000220801D85B2294620460FF0B6FF2068FC
:108D700008F09AF8C0B1002C14D0206802222844D0
:108D800003A90838FFF784F920680422284404A9BD
:108D9000801FFFF77DF92068022228446946801E63
:108DA000FFF776F905B030BD002302A0226808F075
:108DB0007FF8FEE74F7574206F66206D656D6F72EA
:108DC0007900000010B518210348FEF7F4FE0349AE
:108DD0000120087010BD0000840700204802002018
:108DE0004FF4B47190FBF1F201FB1200002802DA9B
:108DF00000F5B47000B20E4A5A2802DA32F91000B7
:108E00007047A0F15A015A2903D2C0F1B40000B250
:108E1000F4E7A0F1B4015A2901D208B202E0C0F58A
:108E2000B47000B232F81000404200B27047000047
:108E3000003D02082DE9F04788B01D46109E92467D
:108E40008946040007D0B9F1000F04D016F0120FC4
:108E500010D0002004E0002008B0BDE8F087401CDE
:108E6000215C0A2904D00D2902D00029F7D1F3E7AB
:108E7000401CF1E7B00701D547F6184500278DF8EB
:108E80001070DFF88480059720E00598069728B3D6
:108E90000021039104AA06AB0096CDE901322044DB
:108EA0002B46524649460EF021FC0699691A0DB22E
:108EB000B0B105990844059021780A290BD00D29F5
:108EC00009D0205C0A2813D00D2811D00598205C09
:108ED00008B1002DD9DC059870B112E00121D8E766
:108EE000059870B9D8F8042005A920469047F2E704
:108EF0000598401C0590EEE7D8F8042005A9204607
:108F000090470598A8E70000580200202DE9FF4F80
:108F100081B004464FF00000DDF840A0DDF8389045
:108F200020805FEA010860804BD00398002848D079
:108F30005FEA8A7002D547F618400F900398002523
:108F40002E46008987B224E0CDF800A0DDE90312A7
:108F500008EB050083460F9BFFF76CFF0644B4F94E
:108F6000020007EB09010144B1F5004F29D2384452
:108F700048446080CDF800A0DDE90323711B58460A
:108F800000F024F8B4F90010814200DB084620808C
:108F9000354618F805000028D6D165B108EB050064
:108FA00010F8010C0A2801D00D2804D1618807EBC4
:108FB000090008446080B4F9020028B1A0EB090060
:108FC000608005B0BDE8F08F6780FAE72DE9FC5FAF
:108FD0001E46DDF830909246884605000ED0BAF164
:108FE000000F0BD02878002809D0002004460090FC
:108FF0008DF80400B8F1000F22D128E00020BDE870
:10900000FC9F144F694628467A689047834600982B
:109010007A6828440021904707465FEAC97004D067
:10902000594601A800F018F850B93A46594650463A
:1090300009F082FC00B2002802DD2044304404B272
:1090400000994145DDD3002C01DDA01B04B2204670
:10905000D5E700005802002000230278232902D01F
:10906000012A0DD00FE02AB10021012A04D0022AE2
:1090700004D008E0012101E0017004E0017001E08A
:10908000202902D00123184670470221F6E72DE976
:10909000F047984614460D468246DDF8209013E0CE
:1090A000660806FB0857394650464A46904700284E
:1090B00008DD44F30000C0EB540407EB0805A4F1FD
:1090C000010401E005DA3446002CE9D12046BDE870
:1090D000F0873846FBE77047F8B506464FF4A072B4
:1090E000F0210DF0F3F90022114630460DF082F91F
:1090F0000021304609F0B2FF074638490BF038F836
:10910000C822114638460DF0E1F9012138460DF02C
:109110002DF900252B462A463146384600950BF09E
:1091200043FC0021304609F099FF2D4C2D49A060E9
:109130000BF01EF8002300951A463946A0680BF084
:1091400033FC21780C20B1FBF0F1B1FBF0F200FB15
:109150001210C0EB001081006078C0EB001000EB33
:10916000800001EB800001B2A0680AF083FF0021BB
:10917000304609F073FF1C4960600AF0F9FF0023D4
:1091800000951A46394660680BF00EFC2078C0EB5B
:1091900000108100A0680AF06DFF0021304609F040
:1091A0005DFF1249E0600AF0E3FF002300951A46D4
:1091B0003946E0680BF0F8FBA078C0EB00108100A6
:1091C000E0680AF057FF01B00023BDE8F04002223A
:1091D0004FF47A7106480EF07FB80000B00200200C
:1091E0007C0200208C02002098020020A4020020B3
:1091F0009DA6010810B5074C012020700648FEF717
:10920000B5FC28B10421A068BDE810400EF09CB95F
:109210000021F8E700020020C007002010B5044636
:1092200090F84000216B92B0C20707D1228F3AB16B
:10923000A2F57F43FF3B1AD0521E2287228FB2B97C
:1092400009B1C20713D0442221466846FEF782FEC8
:1092500021461448FEF75FFD20460BF029FBFFF77F
:10926000C9FF0398C8B101466846884715E0626B9C
:109270005242A26289B1C20702D1E26A5242A2629C
:10928000421C62F3000084F84000236AA269A361D3
:109290002262C00700D1E16B61620348007812B01E
:1092A00010BD0000C00700200002002070B52B4850
:1092B000FEF75CFC06E0086C20F00200086427481A
:1092C000FEF768FC0100F6D1254E70680EF0F4F947
:1092D000054635E000203070206C810734D440F022
:1092E00002002064A06A4119002805DC002903DB84
:1092F000A16809B120468847A06A4019A0621DD420
:10930000616A884200DDA1622269214604F11000F1
:109310000AB1904701E007F075FBE169814206D090
:10932000E06162681AB1236801B218469047D4E937
:109330000901814202DB2046FFF770FF307818B147
:109340000648FEF713FC03E021460448FEF722FC22
:109350000400BFD10EF0B6F9706070BDC0070020E8
:109360000002002070B50446806815460E4608B11C
:10937000FFF7F8FF636823B129463046BDE8704027
:1093800018472368002B06D003482A463146006858
:10939000BDE87040184770BD680200202DE9F0411B
:1093A000454C20681C300DF0C1FE444D2068002162
:1093B000EA681C300DF0EDFE002007F07BFE00EBAC
:1093C000C00101EB00104FF4A077A0265030B84246
:1093D0000ADB002007F06EFE00EBC00101EB00107D
:1093E000503090FBF6F000E0012002B2206800212E
:1093F0001C300DF0D8FE2068012200211C300DF039
:10940000CDFE206820300DF091FE95F820008007F9
:1094100001D52B4800E02B4807F0F4FB02462068FA
:10942000002120300DF0B5FE002007F043FE00EBD8
:10943000C00101EB00105030B8420ADB002007F0F9
:1094400039FE00EBC00101EB0010503090FBF6F04C
:1094500000E0012002B22068002120300DF0A3FEC0
:1094600020680122002120300DF098FE2068243071
:109470000DF05CFE206847F6FF72002124300DF0ED
:10948000D3FE20680022114624300DF0C3FE206870
:109490000022114624300DF0A9FE2068002211465A
:1094A00024300DF0ADFE2068BDE8F04100221146E9
:1094B00024300DF0AABE00006C02002010890020AC
:1094C000D9D7D4004D4945002DE9F843534C2068C5
:1094D00028300DF02BFE206847F6FF784246002129
:1094E00028300DF0A1FE2068FF22002128300DF069
:1094F0002CFE4B4D95F82000800701D5494800E02F
:10950000494807F07FFB02462068002128300DF013
:1095100017FE464E95F820003268800703D5444870
:1095200007F070FB02462068002128300DF0C9FECC
:1095300020680021EA6828300DF044FEE889ADF883
:10954000000020680421009A28300DF03BFE2068BE
:109550000022114628300DF03AFE20687F220221B9
:1095600028300DF034FE95F8200080064FF0000002
:1095700011D407F09FFD502707EB4000B0F5A07F06
:1095800008DB002007F096FD07EB4000A02190FBD0
:10959000F1F000E0012002B22068002128300DF037
:1095A00020FE20680022114628300DF085FE20683C
:1095B0004C22002128300DF07AFE20682C300DF06E
:1095C000B5FD2068FF2200212C300DF0BEFD206883
:1095D000424600212C300DF027FE20680021EA6869
:1095E0002C300DF0ADFD40F6880007F017FB024669
:1095F000206820212C300DF0A3FD95F82000726822
:10960000800703D50B4807F0FDFA02462068BDE845
:10961000F84300212C300DF054BE00006C020020F5
:1096200010890020D9D7D4004D494500B83D020823
:109630004F4031004F4041002DE9F84FFE4D286862
:109640000DF074FDFF22002128680DF07EFDFB4F18
:1096500097F82000800701D5F94800E0F94807F0A5
:10966000D1FA0246002128680DF06AFD97F8200023
:10967000F54E800701D5F54800E0304607F0C2FA04
:109680000246002128680DF0F7FD97F820008007BA
:1096900001D5EE4800E0304607F0B4FA024600215A
:1096A00028680DF00EFE97F820002C68800701D581
:1096B000E64800E0304607F0A5FA024648F28A0183
:1096C0002046FFF72FFA286848F28B01FA68FFF767
:1096D00029FA00217A6928680DF0F8FD2868001D34
:1096E0000DF024FD002007F0E5FC502606EBC0003D
:1096F0004FF4A079A024484507DB002007F0DAFCEE
:1097000006EBC00090FBF4F000E0012002B22868F4
:109710000021001D0DF088FD2868FF220021001D9A
:109720000DF013FD97F820006FF07F4B800701D5F7
:10973000584600E0C64807F065FA0246286800214E
:10974000001D0DF0FDFC97F82000800701D5C148F1
:1097500000E0C14807F056FA024628680021001DC3
:109760000DF0F8FC97F82000800605D42868022147
:10977000FA68001D0DF0EEFCF889ADF800002868CD
:10978000B8460421009A001D0DF0E4FC002007F00B
:1097900091FC06EB40004F46B84207DB002007F083
:1097A00089FC06EB400090FBF4F000E0012002B2DF
:1097B00028680021A946001D0DF0DBFC2868012265
:1097C0003321001DFFF702FA98F820004546800774
:1097D00001D59E4800E0584607F014FA0246D9F831
:1097E00000000021C846001D0DF046FDD8F800001D
:1097F000A94600216A69001D0DF068FD95F820005A
:10980000800701D5914800E0584607F0FBF9024671
:10981000D8F8000000214546001D0DF052FD99F8D2
:109820002000C846800701D5884800E0584607F068
:10983000E9F9024628680021001D0DF0A4FC98F803
:109840002000C146800701D5804800E0584607F057
:10985000D9F9024628680021A846001D0DF099FCA0
:10986000286801220021001D0DF09DFC002007F05A
:109870006FFC01284FF000000DD807F01BFCC0EB77
:1098800000105030B84218DB002007F013FCC0EB8A
:10989000001050300EE007F00DFCC0EB001006EB9E
:1098A0004000B84209DB002007F004FCC0EB0010C8
:1098B00006EB400090FBF4F500E00125002007F0E6
:1098C000F9FB06EB4000B84207DB002007F0F2FB93
:1098D00006EB400090FBF4F000E00120284402B2C7
:1098E000D8F800000021001D0DF08AFC002007F0D0
:1098F0002FFC01284FF000000DD807F0DBFBC0EB78
:1099000000105030B84218DB002007F0D3FBC0EB4A
:10991000001050300EE007F0CDFBC0EB001006EB5E
:109920004000B84209DB002007F0C4FBC0EB001088
:1099300006EB400090FBF4F500E00125002007F065
:10994000B9FB06EB4000B84207DB002007F0B2FB92
:1099500006EB400090FBF4F000E00120284402B246
:10996000D8F800000021001D0DF04FFC002007F08A
:10997000EFFB01284FF000000DD807F09BFBC0EB78
:1099800000105030B84218DB002007F093FBC0EB0A
:10999000001050300EE007F08DFBC0EB001006EB1E
:1099A0004000B84209DB002007F084FBC0EB001048
:1099B00006EB400090FBF4F500E00125002007F0E5
:1099C00079FB06EB4000B84207DB002007F072FB92
:1099D00006EB400090FBF4F000E00120284402B2C6
:1099E000D8F800000021001D0DF014FC002007F045
:1099F000AFFB01284FF000000DD807F05BFBC0EB78
:109A000000105030B8422CDB002007F053FBC0EBB5
:109A1000001050300EE007F04DFBC0EB001006EBDD
:109A20004000B8421DDB002007F044FBC0EB0010F3
:109A300006EB400012E000006C02002010890020BC
:109A4000F3EFEA005A4B4400ECE9E700423E3B00EA
:109A500073625800E3DDD600978A800090FBF4F52E
:109A600000E00125002007F025FB06EB4000B8428E
:109A700007DB002007F01EFB06EB400090FBF4F034
:109A800000E00120284402B2D8F800000021454639
:109A9000001D0DF0ABFB002007F05AFB01284FF032
:109AA00000000DD807F006FBC0EB00105030B842A4
:109AB00018DB002007F0FEFAC0EB001050300EE07B
:109AC00007F0F8FAC0EB001006EB4000B84209DBE3
:109AD000002007F0EFFAC0EB001006EB400090FB0F
:109AE000F4F000E0012002B228680021001D0DF012
:109AF00082FB286800221146001D0DF0DDFB28685E
:109B000039220021001D0DF0D2FB28680C300DF029
:109B10000DFB296801F10C00091D0DF03AFA99F8C6
:109B20002000C846800701D5F74800E0F74807F055
:109B300069F80246286800210C300DF001FB98F806
:109B40002000800701D5F24800E0F24807F05AF8FB
:109B5000024628680021A9460C300DF0FBFA98F85F
:109B60002000DFF8B4A34546800701D5EB4800E0AC
:109B7000504607F047F80246D9F8000000210C30A3
:109B80000DF07AFB95F82000800701D5E34800E04E
:109B9000504607F037F80246D9F8000000210C3093
:109BA0000DF08FFB95F82000A846800701D5DB4813
:109BB00000E0504607F026F80246D9F800000021E0
:109BC0004D460C300DF0DFFA98F82000800701D5E3
:109BD000D24800E0504607F015F8024628680021F8
:109BE000A9460C300DF0D5FA286808300DF09EFA21
:109BF00098F820004546800701D5C94800E0C948CB
:109C000007F000F80246D9F800001021C8460830D5
:109C10000DF096FAD8F80000A9460121EA6808304C
:109C20000DF08EFA3321E86806F0A5FF0246D8F859
:109C30000000112108300DF083FA95F8200080070C
:109C400001D5584600E0B84806F0DCFF0246D8F8D7
:109C500000002021454608300DF072FA28680022E5
:109C6000012108300DF085FA3321C846D9F80C00DF
:109C700006F081FF02462868122108300DF06AFACA
:109C800098F82000DFF8A492800704D540F6CC4075
:109C900006F0C4FF02E0484606F0B4FF024628681A
:109CA000102108300DF056FA98F82000800701D5F1
:109CB0009F4800E0484606F0A5FF024628680121BB
:109CC00008300DF047FA98F82000800701D5984831
:109CD00000E0484606F096FF024628681121083049
:109CE0000DF038FA98F82000800701D5914800E07F
:109CF000484606F087FF024628682021A94608301A
:109D00000DF028FA98F820004546800701D58848CC
:109D100000E0584606F076FF0246D9F80000102110
:109D2000C84608300DF0A8FAA946584606F06AFF62
:109D30000246D8F800000121454608300DF09CFA93
:109D4000C846584606F05EFF0246286811210830D2
:109D50000DF092FA98F8200040F6AA2A800701D563
:109D6000504601E040F6991006F058FF0246286878
:109D7000202108300DF080FA98F82000800701D5E6
:109D80006B4800E0584606F03DFF02462868102167
:109D900008300DF0F8F9C146584606F033FF024688
:109DA00028680121A84608300DF0EDF94D465846C7
:109DB00006F028FF0246D8F800001121C1460830FD
:109DC0000DF0E1F995F82000A846800701D550462E
:109DD00001E040F6991006F021FF0246D9F8000094
:109DE00020214D4608300DF0CEF9286829220021A7
:109DF00008300DF057FA286810300DF097F92868F0
:109E000047F6FF72002110300DF00EFA2868FF228D
:109E1000002110300DF099F998F82000C146800714
:109E200001D5584600E0404806F0ECFE024628689E
:109E30000021A84610300DF083F999F820004D4616
:109E4000800705D5584606F0DDFE0146332204E0C2
:109E5000354806F0D7FE01464C22E86806F0E8FFD8
:109E60000246D8F80000102110300DF069F9D8F83A
:109E700000000121EA6810300DF062F94C21E86819
:109E800006F079FE0246D8F80000112110300DF0DE
:109E900057F995F82000800701D5584600E0224880
:109EA00006F0B0FE0246D8F80000202110300DF078
:109EB00047F995F8200040F6880A800702D540F659
:109EC000CC4000E0504606F0A9FE0246D8F800005B
:109ED000212110300DF034F9D8F80000A9460021F6
:109EE000EA6810300DF036F9D8F800001021EA6861
:109EF00010300DF02FF995F8200080071CD5504642
:109F000006F08CFE1BE00000D9D7D4004D49450077
:109F1000EDE7DF0040404000ADA8A5004F40310014
:109F2000EEEEEE00574F4900736258006E655F0019
:109F3000423E3B00E3DDD600FE4806F063FE0246EB
:109F4000D8F800002021454610300DF003F900201C
:109F500007F0B0F806EB4000BA46504507DB00209A
:109F600007F0A8F806EB400090FBF4F000E00120B9
:109F700002B22868002110300DF0FBF8286800229A
:109F8000012110300DF0EBF899F820004F468007C2
:109F900001D5E94800E0584606F034FE024628683C
:109FA000002110300DF068F997F82000800701D5E6
:109FB000E14800E0584606F025FE024628681021D8
:109FC00010300DF059F9D846584606F01BFE0246EF
:109FD0002868012110300DF04FF9404606F012FEBE
:109FE00002462868112110300DF046F9DFF84C9335
:109FF000484606F007FE02462868202110300DF082
:10A000003BF997F82000800701D5CB4800E0404697
:10A0100006F0F8FD02462868002110300DF0B3F874
:10A0200097F82000800701D5C34800E0404606F0BD
:10A03000E9FD02462868102110300DF0A4F84046D2
:10A0400006F0E0FD02462868102110300DF09BF864
:10A05000404606F0D7FD02462868112110300DF069
:10A0600092F8484606F0CEFD0246286820211030BE
:10A070000DF089F897F82000800701D5AE4800E080
:10A08000404606F0BFFD02462868002110300DF062
:10A0900018F997F82000800701D5A74800E040464E
:10A0A00006F0B0FD02462868102110300DF009F9C5
:10A0B000404606F0A7FD02462868012110300DF049
:10A0C00000F9404606F09EFD024628681121103036
:10A0D0000DF0F7F8B846484606F094FD02462868A9
:10A0E000202110300DF0EDF8002006F0E3FF00EB2A
:10A0F000800006EBC0005746B84209DB002006F09E
:10A10000D9FF00EB800006EBC00090FBF4F000E00C
:10A11000012002B22868002110300DF071F80020F3
:10A1200006F0C8FF00EB800006EBC000B84209DB78
:10A13000002006F0BFFF00EB800006EBC00090FBA4
:10A14000F4F000E0012002B22868002110300DF088
:10A150005CF8002006F0AEFFC0EB00105030B842B3
:10A1600008DB002006F0A6FFC0EB0010503090FB8B
:10A17000F4F000E0012002B22868002110300DF058
:10A1800049F8002006F096FFC0EB00105030B842AE
:10A1900008DB002006F08EFFC0EB0010503090FB73
:10A1A000F4F000E0012002B22868002110300DF028
:10A1B0001DF8002006F07EFF00EB800006EB80001B
:10A1C000B84209DB002006F075FF00EB800006EBCB
:10A1D000800090FBF4F000E0012002B2286800212A
:10A1E00010300DF008F898F8200080064FF00000BD
:10A1F0000ED406F05FFF06EB4000B84207DB0020FC
:10A2000006F058FF06EB400090FBF4F000E0012060
:10A2100002B22868002110300CF0E3FF2868002209
:10A22000114610300CF0D3FF28687F220221103035
:10A230000CF0CDFF28680021D8F80C2010300CF06D
:10A24000C1FFB8F80E00ADF8000028680421009A9C
:10A2500010300CF0B7FF28680022114610300DF0C6
:10A260002BF828683C22B5211030FEF7AFFC286897
:10A270002922002110300DF015F828684C22002109
:10A2800010300DF014F828680022114610300DF03F
:10A2900004F828680022102110300CF0FEFF286816
:10A2A00014300CF043FF002006F052FF01284FF05D
:10A2B00000000FD806F0FEFE00EB800006EB8000E9
:10A2C000B84219DB002006F0F5FE00EB800006EB3B
:10A2D00080000EE006F0EEFE00EB800006EBC00012
:10A2E000B84209DB002006F0E5FE00EB800006EB3B
:10A2F000C00090FBF4F000E0012002B228680021C9
:10A3000014300CF078FF286818300CF00FFF002094
:10A3100006F01EFF01284FF0000016D806F0CAFE16
:10A3200000EB800006EB4000B84220DB002006F086
:10A33000C1FE05E0404040004F4031008888880061
:10A3400000EB800006EB40000EE006F0B3FE00EBF1
:10A35000800006EB8000B84209DB002006F0AAFE70
:10A3600000EB800006EB800090FBF4F000E00120A1
:10A3700004B228682246002118300CF041FF2868FA
:10A380002246002118300CF040FF286822460021A8
:10A3900018300CF03FFF28682246002118300CF0DE
:10A3A00025FF28682246BDE8F84F002118300CF040
:10A3B00022BF30B5032B15D10423082A12D2DFE8BF
:10A3C00002F0110406080A0C0E1002220AE0042210
:10A3D00008E0062206E0092204E00B2202E00D223A
:10A3E00000E00F22C1F3CF0401F00701C1F1080121
:10A3F000C91A01259D406D1EED43035D8D402B4024
:10A400008A401343035530BD2DE9F05FFE4D2868A7
:10A4100034300CF08BFE28680022114634300CF0EA
:10A42000F9FE002006F094FEA024502601284FF4E7
:10A43000A0774FF000000DD806F03CFEC0EB0010F6
:10A440005030B84218DB002006F034FEC0EB00109C
:10A4500050300EE006F02EFEC0EB001006EB400080
:10A46000B84209DB002006F025FEC0EB001006EB29
:10A47000400090FBF4F000E0012002B228680021C7
:10A4800034300CF0BDFE002006F062FE01284FF0D3
:10A4900000000DD806F00EFEC0EB00105030B842A0
:10A4A00018DB002006F006FEC0EB001050300EE076
:10A4B00006F000FEC0EB001006EB4000B84209DBDE
:10A4C000002006F0F7FDC0EB001006EB400090FB0B
:10A4D000F4F000E0012002B22868002134300CF0D2
:10A4E00094FE28680022114634300CF07FFE0020D4
:10A4F00006F02EFE01284FF000000DD806F0DAFD20
:10A50000C0EB00105030B84218DB002006F0D2FD3E
:10A51000C0EB001050300EE006F0CCFDC0EB001098
:10A5200006EB4000B84209DB002006F0C3FDC0EB9B
:10A53000001006EB400090FBF4F000E0012002B2B6
:10A540002868002134300CF038FE002006F000FEB0
:10A5500001284FF000000DD806F0ACFDC0EB001054
:10A560005030B84218DB002006F0A4FDC0EB00100C
:10A5700050300EE006F09EFDC0EB001006EB4000F0
:10A58000B84209DB002006F095FDC0EB001006EB99
:10A59000400090FBF4F000E0012002B228680021A6
:10A5A00034300CF005FEDFF86892DFF8608299F82D
:10A5B0002000D8F81C20800703D5964806F022FB1F
:10A5C00002462868102134300CF056FE28683830D6
:10A5D0000CF0ACFD99F82000DFF83CB2800703D501
:10A5E000584606F00FFB03E040F6EE6006F016FB5F
:10A5F00002462868002138300CF03EFE002006F0AC
:10A60000A7FD01284FF000000DD806F053FDC0EB68
:10A6100000105030B84218DB002006F04BFDC0EBB4
:10A62000001050300EE006F045FDC0EB001006EBC8
:10A630004000B84209DB002006F03CFDC0EB0010F2
:10A6400006EB400090FBF4F000E0012002B2286825
:10A65000002138300CF0D4FD002006F079FD0128EF
:10A660004FF000000DD806F025FDC0EB0010503073
:10A67000B84218DB002006F01DFDC0EB0010503082
:10A680000EE006F017FDC0EB001006EB4000B842EC
:10A6900009DB002006F00EFDC0EB001006EB4000C9
:10A6A00090FBF4F000E0012002B22868002138306D
:10A6B0000CF0ABFD002006F04BFD01284FF0000030
:10A6C0000DD806F0F7FCC0EB00105030B84218DB94
:10A6D000002006F0EFFCC0EB001050300EE006F05A
:10A6E000E9FCC0EB001006EB4000B84209DB00209B
:10A6F00006F0E0FCC0EB001006EB400090FBF4F02D
:10A7000000E0012002B22868002138300CF06EFD14
:10A71000286830300CF00AFD002006F0CBFC06EB78
:10A720008000BA46504507DB002006F0C3FC06EB6C
:10A73000800090FBF4F000E0012002B228680021C4
:10A7400030300CF071FD99F82000D8F820204F46E9
:10A75000800703D5584606F055FA024628680121BD
:10A7600030300CF089FD28682021D8F824203030C2
:10A770000CF082FD97F82000800701D5332200E01D
:10A7800066222868012130300CF0DFFC2868332273
:10A79000102130300CF0D9FC2868FF220221303023
:10A7A0000CF0D3FC28680221D8F8282030300CF0B7
:10A7B00063FD28680221FA6830300CF0C1FC97F87C
:10A7C0002000D8F82C20800703D5144806F01AFA88
:10A7D00002462868002130300CF0B2FC28680121C4
:10A7E000FA6830300CF0ACFC2868022201213030CD
:10A7F0000CF0BFFC28680422012130300CF0B4FCBE
:10A800000121FA6828680BE06C020020B83D0208BC
:10A8100010890020888888004F40310066666600F5
:10A8200030300CF097FC002006F044FC00EB4000B8
:10A8300057465030B84208DB002006F03BFC00EBE6
:10A840004000503090FBF4F000E0012002B2286894
:10A85000002130300CF0CFFC002006F079FC0128FC
:10A860004FF000000DD806F025FCC0EB0010503072
:10A87000B84218DB002006F01DFCC0EB0010503081
:10A880000EE006F017FCC0EB001006EB4000B842EB
:10A8900009DB002006F00EFCC0EB001006EB4000C8
:10A8A00090FBF4F000E0012002B228680021303073
:10A8B0000CF0A6FC002006F04BFC01284FF0000035
:10A8C0000DD806F0F7FBC0EB00105030B84218DB93
:10A8D000002006F0EFFBC0EB001050300EE006F059
:10A8E000E9FBC0EB001006EB4000B84209DB00209A
:10A8F00006F0E0FBC0EB001006EB400090FBF4F02C
:10A9000000E0012002B22868002130300CF07DFC0C
:10A91000002006F01DFC01284FF000000DD806F0C5
:10A92000C9FBC0EB00105030B84218DB002006F025
:10A93000C1FBC0EB001050300EE006F0BBFBC0EBDB
:10A94000001006EB4000B84209DB002006F0B2FB25
:10A95000C0EB001006EB400090FBF4F000E001209B
:10A9600002B22868BDE8F05F002130300CF03EBC38
:10A970002DE9F0476C4E306844300CF0D7FB6B4F3C
:10A9800097F8200080071DD540F6AA2006F046F96A
:10A9900002463068002144300CF06EFC30684830CC
:10A9A0000CF0C4FB002006F085FB4FF4A078A02437
:10A9B000503040450ADB002006F07CFB503090FB15
:10A9C000F4F004E05A4806F01DF9E1E7012002B274
:10A9D0003068002148300CF0E6FB306800F148098F
:10A9E000002006F067FB00EB8000502505EB4000DF
:10A9F000404509DB002006F05DFB00EB800005EB25
:10AA0000400090FBF4F000E0012002B292214846A1
:10AA1000FEF7DCF8306800F14809002006F04AFB38
:10AA200000EB800005EB4000404509DB002006F00C
:10AA300041FB00EB800005EB400090FBF4F000E0F0
:10AA4000012002B293214846FEF7C0F897F8200093
:10AA5000800701D5374800E0374806F0D3F80246B2
:10AA60003068002148300CF094FB30684C300CF01A
:10AA70005DFB002006F01EFB00EB40004746503017
:10AA8000B84208DB002006F015FB00EB4000503018
:10AA900090FBF4F000E0012002B2306800214C305D
:10AAA0000CF081FB002006F005FB05EB8000B842AE
:10AAB00007DB002006F0FEFA05EB800090FBF4F0C7
:10AAC00000E0012002B2306800214C300CF0CFFBD6
:10AAD000002006F0EFFA05EB4000B84207DB00204B
:10AAE00006F0E8FA05EB400090FBF4F000E00120EE
:10AAF00002B2306800214C300CF07DFB002006F0E3
:10AB0000D9FA5030B84206DB002006F0D3FA5030B4
:10AB100090FBF4F000E0012002B23068BDE8F0479D
:10AB200000214C300CF080BB6C020020108900200A
:10AB3000BDADA100E3DDD600978A80002DE9F0418C
:10AB40009C4D286850300CF0F1FA002006F0B2FA63
:10AB5000502707EB8000BE00A024B04207DB002096
:10AB600006F0A8FA07EB800090FBF4F000E001206B
:10AB700002B22868002150300CF056FB002006F08D
:10AB800099FA00EB800007EB4000B04209DB00209F
:10AB900006F090FA00EB800007EB400090FBF4F029
:10ABA00000E0012002B22868002150300CF023FBA5
:10ABB000DFF8048228680021D8F80C2050300CF00F
:10ABC00001FB28680022114650300CF000FB286879
:10ABD0007F22022150300CF0FAFA98F8200080060B
:10ABE0004FF000000ED406F065FA07EB4000B042CB
:10ABF00007DB002006F05EFA07EB400090FBF4F064
:10AC000000E0012002B22868002150300CF0E9FA7F
:10AC1000002006F04FFA00EB800007EB4000B04246
:10AC200009DB002006F046FA00EB800007EB40004D
:10AC300090FBF4F000E0012002B2286800215030BF
:10AC40000CF0CAFA28680022114650300CF034FB90
:10AC500028684C22002150300CF029FB2868543021
:10AC60000CF064FA28680022022154300CF0AFFA8C
:10AC7000002006F01FFA07EB8000B04207DB00203F
:10AC800006F018FA07EB800090FBF4F000E00120DA
:10AC900002B22868002154300CF0C6FA286847A296
:10ACA0004FF4B7715430FEF739F8454840F2691156
:10ACB000826B28685430FDF735FF28680022114662
:10ACC00054300CF0ACFA2868FF22012154300CF00B
:10ACD000A6FA28686C22B4215430FDF777FF286863
:10ACE00048F28E115430D8F81020FEF717F80020E3
:10ACF00006F0E0F900EB40005030B04208DB0020E5
:10AD000006F0D8F900EB4000503090FBF4F000E082
:10AD1000012002B22868002154300CF071FA0020A2
:10AD200006F0C8F900EB40005030B04208DB0020CC
:10AD300006F0C0F900EB4000503090FBF4F000E06A
:10AD4000012002B22868002154300CF05EFA002085
:10AD500006F0B0F900EB40005030B04208DB0020B4
:10AD600006F0A8F900EB4000503090FBF4F000E052
:10AD7000012002B22868002154300CF04BFA002068
:10AD800006F098F900EB40005030B04208DB00209C
:10AD900006F090F900EB4000503090FBF4F000E03A
:10ADA000012002B22868BDE8F041002154300CF0C7
:10ADB0001DBA00006C02002010890020EF808C007A
:10ADC000B83D020810B50446292977D2DFE801F022
:10ADD0008D1515898915897715178B15893E8B1562
:10ADE000158915151538151515191538328B3215A5
:10ADF000898B4C24176C8B5E150000216CE00021C0
:10AE00004DE04021204609F0C6FE412164E0204685
:10AE100009F0C1FE01215FE00021204609F0BBFEE0
:10AE20004021204609F0B7FE4121204609F0B3FE3B
:10AE3000432114E00021204609F0ADFE03214BE040
:10AE40000021204609F0A7FE4021E0E7002120462E
:10AE500009F0A1FE4021204609F09DFE4121204637
:10AE600009F099FE422137E00021204609F093FEC7
:10AE70000121204609F08FFE0221204609F08BFEB9
:10AE80000321204609F087FE042125E00021204609
:10AE900009F081FE4221204609F07DFE4121204635
:10AEA00009F079FE402117E00021204609F073FEE9
:10AEB0000421204609F06FFE0321A8E715E00021D8
:10AEC000204609F068FE0321204609F064FE0121B6
:10AED000204609F060FE02212046BDE8104009F03E
:10AEE0005ABE002193E70021EEE710BD17B581B0EF
:10AEF000022A03D8BDF8080004B010BDBDF8083020
:10AF0000BDF80400D90A01EBD0211F2900D31F216D
:10AF100061F3CF20C3F34511C0F345142144ADF8CC
:10AF200004003F2900D33F2161F34A1003F01F01C1
:10AF300000F01F031944ADF804001F2900D31F219E
:10AF400061F30400ADF80400FF2A07D0DDE9010138
:10AF500005F0BAFE0090BDF80000CDE780B2CBE767
:10AF600017B581B0022A03D8BDF8080004B010BD9F
:10AF7000BDF80830BDF80400D90AA1EBD0210029A2
:10AF800000DC002161F3CF20C3F34511C0F3451469
:10AF9000091BADF80400002900DC002161F34A1010
:10AFA00003F01F0100F01F03C91AADF804000029C7
:10AFB00000DC002161F30400ADF80400FF2A07D093
:10AFC000DDE9010105F080FE0090BDF80000CDE74D
:10AFD00080B2CBE72DE9F8437F4C20683C300CF081
:10AFE000A5F8002006F066F8C0EB0010502707EB2C
:10AFF00040004FF4A078A025404509DB002006F072
:10B0000059F8C0EB001007EB400090FBF5F000E0B2
:10B01000012002B2206800213C300CF019F92068B0
:10B02000FF2200213C300CF090F86C4E96F8200086
:10B03000800701D56A4800E06A4805F0E3FD024652
:10B04000206800213C300CF07BF8002006F032F83C
:10B0500000EB800007EB8000404509DB002006F094
:10B0600029F800EB800007EB800090FBF5F000E092
:10B07000012002B2206800213C300CF0BCF82068AE
:10B0800047F6FF773A4600213C300CF0CDF82068B7
:10B0900040300CF04BF820683A46002140300CF06C
:10B0A000C3F8514F206800213A6B40300CF048F84B
:10B0B0002068FF22002140300CF047F8206802226F
:10B0C000002140300CF055F8206800217A6B4030A8
:10B0D0000CF040F820680221F26840300CF03AF899
:10B0E000F089ADF8000020680421009A40300CF08F
:10B0F00031F8002005F0DEFF00EB800101EBC0001D
:10B1000046465030B0420ADB002005F0D3FF00EB8A
:10B11000800101EBC000503090FBF5F000E0012011
:10B1200002B22068002140300CF06AF8002005F0DF
:10B13000C1FF00EB800101EBC0005030B0420ADBE0
:10B14000002005F0B7FF00EB800101EBC00050309C
:10B1500090FBF5F000E0012002B2206800214030B1
:10B160000CF053F8002005F0A5FF00EB800101EB87
:10B17000C0005030B0420ADB002005F09BFF00EB1E
:10B18000800101EBC000503090FBF5F000E00120A1
:10B1900002B22068002140300CF03CF8002005F09D
:10B1A00089FF00EB800101EBC0005030B0420ADBA8
:10B1B000002005F07FFF00EB800101EBC000503064
:10B1C00090FBF5F000E0012002B22068BDE8F843F2
:10B1D000002140300CF00AB86C02002010890020D9
:10B1E000F3EFEA005A4B4400B83D020870B5324C08
:10B1F000206858300BF09AFF002005F05BFF00EB51
:10B200008000502505EB8000B0F5A07F0ADB002010
:10B2100005F050FF00EB800005EB8000A02190FBC3
:10B22000F1F000E0012002B22068002158300CF05B
:10B2300029F820680122002158300BF09FFF206878
:10B240005C300BF073FF2068FF2200215C300BF0B4
:10B250007CFF1A4D20680021EA685C300BF070FF1B
:10B2600040F6FF7005F0DAFC0246206800215C30F1
:10B270000CF002F895F82000800701D5104800E096
:10B28000104805F0BFFC0246206810215C300BF02E
:10B2900057FF95F82000800701D50B4801E06FF0BB
:10B2A0007F4005F0AFFC02462068BDE870401021E9
:10B2B0005C300BF0E1BF00006C0200201089002020
:10B2C000EEEEEE00574F4900423E3B002DE9FF5F96
:10B2D0000025DDF838B090465F46BBF1030F00D182
:10B2E00004273049886081F800B00020C8704860A9
:10B2F000487088704046FCF76BFD06460F984FF08B
:10B30000000A18B14046FCF763FD824641463046CC
:10B3100000F04AF8002408E0325D5B4629460198B7
:10B32000FFF747F8641C3D4424B24445F4DB012098
:10B330002AE00F984146A0B1504600F035F80024AD
:10B340000CE01AF80420305D5B4642403255294635
:10B350000198FFF72EF8641C3D4424B24445F0DB0D
:10B360000FE0304600F020F8002408E0325D5B4634
:10B3700029460198FFF71DF8641C3D4424B244455A
:10B38000F4DB09F1010000B2039981468842D0DB69
:10B390003046FCF7A1FD04B05046BDE8F05FFCF775
:10B3A0009BBD0000B801002070B50D460646002484
:10B3B00004E00DF0ABF83055641C24B2AC42F8DB6D
:10B3C00070BD000010B504460420F6F7F1FC0148FA
:10B3D000046010BD1000002070B5054600244FF435
:10B3E0007A7603E0304600F005F8641CAC42F9D3ED
:10B3F00070BD000070B54FF0E02500216C69094A6E
:10B40000AB6912685043AA699A42FCD002D2A3EBFE
:10B41000020302E0A4EB02063344194413468142BE
:10B42000F1D370BD100000202DE9F04116460F4603
:10B430008046B1F902500EE0B7F9004006E03288CC
:10B44000A9B2A0B2F7F724F9641CB61CB7F904003E
:10B45000A042F4DA6D1CB7F90600A842ECDA4046C7
:10B46000BDE8F04105F018BE2DE9F74F0146107B0D
:10B470009CB0144602287DD906A805F02AFBB4F931
:10B480001000012823DD207DFD2820D32088F0B185
:10B49000A07CBDF81810C0F380021144ADF818105C
:10B4A000BDF81A10C0F340000844ADF81A00A17CA2
:10B4B000BDF81C00C1F3C001401AADF81C00A17C0E
:10B4C000BDF81E0001F00101401AADF81E00207BFE
:10B4D0000390FD2801D9FF200390FDF777F805F0D0
:10B4E000E1FD814606A912A81D9AFBF7A0FA0028E3
:10B4F00040D0BDF84810B9F8100009F1100A081A38
:10B50000ADF84800BDF84A10B9F81200081AADF8B5
:10B510004A00BDF84C10B9F81000081AADF84C00FC
:10B52000BDF84E10B9F81200081AADF84E0012A876
:10B5300005F009FB0A90FCF74BFC0C906088A18891
:10B5400094F80680884201D14FF0000806F030FDE3
:10B55000109001200B90109810B9B8F1020F01D192
:10B5600000200B904FF0FF30119006A805F0EBFA89
:10B57000074600E0A7E106A805F0B3FAB4F90050C9
:10B58000874200DA3846B5EB600F00DD45100B98B6
:10B5900018B115B9B8F1000F15D0002D0ADD002340
:10B5A0002A4606A914A806F0E7FF002114A806F011
:10B5B000C3FC11906088ADF8340000200F90B8F102
:10B5C000020F0FD024E0627B012003998DE8070071
:10B5D0006088ADF80C00002306A9039A1D98FBF7BC
:10B5E00074FB6AE17800FCF7F3FB0026BB460F9082
:10B5F0000CE032B25946204603F055FA00900F98FD
:10B60000BDF8001000EB4600761C0180BE42F0DB66
:10B6100000200E9006A805F096FA694200EB410062
:10B62000322801DD01200E90BDF81800ADF8200091
:10B63000BDF81C00ADF82400BDF94A10BAF80200AC
:10B640008A460844ADF82200ADF82600B9E0B9F901
:10B650001210681C01EB0A0BBDF91A10039F01447C
:10B660000590594508DABDF91E00401B401E58459B
:10B6700002DD0B980126B8B939460A9A0C98FCF7F6
:10B6800028FDB9F81000BDF84810B9F81220084498
:10B6900001B202EB0A0002B20A9B0C9806F066FCAB
:10B6A0000646022800D1FF27B8F1010F0CD106A8E9
:10B6B00005F017FABDF81A200146ABEB020002B202
:10B6C000204603F0F0F90D900E990B98084257D0E0
:10B6D000BDF91A1005980144594505DCBDF91E0055
:10B6E000401B401E58454BDABDF81800ADF810005D
:10B6F000691E0844ADF81400BDF82200ADF8120030
:10B70000BDF82600ADF81600607B0096CDE901700B
:10B71000DDE90C3204A91D98FBF7D7FAB8F1010F47
:10B7200014D1BDF8180003992844ADF81000BDF8F5
:10B730001C000023401BADF81400627B01208DE843
:10B74000070004A90D9A1D98FBF7BFFABDF91C105C
:10B75000ADF81410481B421CADF81020B9F91010B8
:10B76000BDF948201144401A401C00D50020617BDF
:10B770000096CDE901710C990D9A0B1804A911E0FE
:10B78000B8F1020F27D0B8F1010F04D00E9910982C
:10B79000491E084309D0607B0096CDE90170DDE9C0
:10B7A0000C3208A91D98FBF790FABDF822000AF1A7
:10B7B000010A401CADF82200BDF82600401CADF87F
:10B7C0002600BDF94E105145BFF641AF109958EA19
:10B7D00001000BD06DE0607B0096CDE9017008A9F7
:10B7E0000C9B0F9A1D98FBF7E6FADEE70E98E8B37C
:10B7F000BDF8180001262844ADF82000BDF81C0053
:10B800000023401BADF82400BDF81A00ADF822005B
:10B810002844ADF82600607B03990096CDE901101D
:10B820006088ADF8100008A9049A1D98FBF74DFA3E
:10B83000BDF91E00BDF92620411B09B2ADF822104A
:10B84000914202DC521CADF82220ADF82600607B4C
:10B8500003990096CDE901106088ADF8100000232F
:10B8600008A9049A1D98FBF730FA00E021E0BDF822
:10B870001800ADF82000BDF81C00ADF82400BDF89C
:10B880001A10681C0844ADF82200BDF81E00002301
:10B89000401B401EADF82600617B03980096CDE961
:10B8A00001016088ADF80C0008A9039A1D98FBF708
:10B8B0000CFA0F9808B1FCF70FFB119806F09CFEEC
:10B8C0000C98FCF709FB1FB0BDE8F08F2DE9F74F8E
:10B8D0000646107DA0B0144602287CD9208A002894
:10B8E00079D0608A002876D0A07DC00773D1304619
:10B8F00005F029F90746304605F0F3F8B4F9005091
:10B90000874200DA3846B5EB600F00DD451031465E
:10B9100007A805F0DEF8B4F91210BDF91C2048079D
:10B92000B4F9100001D4284440421044ADF81C0082
:10B930000807BDF92020B4F9100001D42844404282
:10B94000101AADF82000A07CBDF91E108007B4F9D4
:10B95000100001D4284440420844ADF81E00A07CE9
:10B96000BDF92210C007B4F9100001D128444042AB
:10B97000081AADF82200608A0F287AD094F8149043
:10B98000B9F1FD0F01D94FF0FF09FCF71FFE05F0DB
:10B9900089FB8046314603A8219AFBF748F8002826
:10B9A00077D0BDF80C00B8F8101008F11007401A55
:10B9B000ADF80C00BDF80E00B8F81210401AADF842
:10B9C0000E00BDF81000B8F81010401AADF81000C5
:10B9D000BDF8120000E05CE0B8F81210401AADF8B3
:10B9E000120003A805F0AFF81990FCF7F1F98346AF
:10B9F0004FF0FF301A90002D0ADD00232A46314611
:10BA000009A806F0B9FD002109A806F095FA1A90D8
:10BA1000B4F910000123281A02B207A910A806F0F1
:10BA2000ABFD002110A806F087FA1E90B4F91000B3
:10BA3000411EA94200DB0D46E089ADF86C00607D37
:10BA40001D903088ADF81400B088ADF818007888E3
:10BA5000BDF90E704FF0000A3844ADF81600ADF88D
:10BA60001A00B4F91200042816D0082819D021E0D1
:10BA7000FFE7617D207DCDE90201E089ADF804009A
:10BA800000200090B4F90030314607A8219A00F058
:10BA900082F823B0BDE8F08F30882844ADF8180054
:10BAA00008E0B088401B00B2ADF81400B6F90010F1
:10BAB000A0EB010A00208DF85C008DF86000B4F95D
:10BAC00012000121022804D0012805D0032809D042
:10BAD00004E08DF85C1001E08DF860109DF85C00CA
:10BAE00018B105E08DF85C10F6E79DF8600018B11C
:10BAF00000208DF8700040E00120FAE79DF870000A
:10BB000098B99DF85C0030B1B6F90210BDF9160085
:10BB10002944884209DD9DF8600018B3B6F9061083
:10BB2000BDF91600491B88421CDB58461999FCF7E1
:10BB30002EFBB8F81000BDF80C10199B084401B298
:10BB4000B8F81200384402B2584606F00FFA1D99B0
:10BB5000CDE9000902910BEB0A0305A91B9A219874
:10BB6000FBF7B3F8BDF81600401CADF81600BDF8A1
:10BB70001A00401CADF81A007F1CBDF91200B84233
:10BB8000BCDA1E9806F038FD1A9806F035FD5846C6
:10BB9000FCF7A2F97DE72DE9FF4F9FB09B46DDE959
:10BBA0002E870C4606F004FA0121009108B100200E
:10BBB00000901F9804F0C7FF82461F9804F091FF81
:10BBC00005461F98A1888088081A0FFA80F9204638
:10BBD00004F0B9FF0646204604F083FF2C9959B1C2
:10BBE0005046AA4500DA0546BBEB650F01DD4FEA7A
:10BBF000650B0BEB09050EE05D46864200DA304628
:10BC0000B5EB600F00DD4510A5EB09005FEA000B06
:10BC100001D54FF0000BFCF7D9FC05F043FA0646BE
:10BC2000214607A8219AFAF702FF00287DD0BDF827
:10BC30001C10308A06F1100A081AADF81C00BDF875
:10BC40001E10708A081AADF81E00BDF82010308A48
:10BC5000081AADF82000BDF82210708A081AADF855
:10BC6000220007A804F06FFF059001230FFA8BF262
:10BC70000BA81F9906F080FC00210BA806F05CF9C8
:10BC80001D9000232AB2214612A806F075FC00215F
:10BC900012A806F051F91C900598FCF799F8069047
:10BCA000A9F101001E90854201DD284601E0A9F1BD
:10BCB00001001990009800287DD0B4F90210BAF95B
:10BCC0000200091A199808441A902088ADF80C004F
:10BCD000A088ADF81000BDF91E10BAF802008B461E
:10BCE0000844ADF80E00ADF8120074E0DDE905106F
:10BCF000FCF74DFA308ABDF81C10728A084401B274
:10BD000002EB0B0002B2DDE9053006F02FF91B90C3
:10BD1000BDF80E00ADF82600BDF81200ADF82A00FF
:10BD20002088ADF82400218800E050E1681E084416
:10BD3000ADF828001B98CDE90008029709A9069BD9
:10BD40002D9A2198FAF7C1FFB4F90220BDF92A1003
:10BD500002EB0900814211DA208800232844ADF863
:10BD60002400A0880297401BADF828000120CDE9EF
:10BD7000000809A92D9A2198FAF7A7FFA088BDF914
:10BD80001C10401B401CADF82400A088ADF8280012
:10BD9000B6F910000844B4F90410491B081A401CF5
:10BDA00000D500201B9ACDE90028069902970B18B0
:10BDB00009A92D9A00E0C9E02198FAF786FFBDF89D
:10BDC0000E000BF1010B401CADF80E00BDF8120087
:10BDD000401CADF812001A998B4587DDB4F9062096
:10BDE000BAF902101998521A101A1A9A904200DCE5
:10BDF000501C0144ADF80E10ADF8121070E0DDE9F2
:10BE00000510FCF7C4F9308ABDF81C10728A08448A
:10BE100001B202EB0A0002B2DDE9053006F0A6F835
:10BE200083462088ADF824002188681E0844ADF8B8
:10BE30002800BDF80E00ADF82600BDF81200ADF8E0
:10BE40002A00CDF800B0CDE9018709A9069B2D9AFB
:10BE50002198FAF73AFFB4F90620BDF92A10A2EBAF
:10BE60000900814211DD208800232844ADF8240018
:10BE7000A0880297401BADF828000120CDE90008FA
:10BE800009A92D9A2198FAF720FFA088BDF91C1066
:10BE9000401B401CADF82400A088ADF82800B6F97E
:10BEA00010000844B4F90410491B081A401C00D5BE
:10BEB0000020CDF800B0CDE9018706992D9A0B1826
:10BEC00009A92198FAF701FFBDF80E00401CADF852
:10BED0000E00BDF81200401CADF812000AF101007E
:10BEE000BDF922108246514589DA19986188401CB3
:10BEF0000844ADF80E00E18819980125081A401E83
:10BF0000ADF812002088ADF80C0021881E98CDE90C
:10BF100000580844ADF810000023029703A92D9A99
:10BF20002198FAF7D2FEA1880023A1EB0900401C5A
:10BF3000ADF80C00A088CDE90058ADF810000297CC
:10BF400003A92D9A2198FAF7C0FE37E02088ADF8B2
:10BF50000C00A088ADF81000BAF80200BDF91E4030
:10BF60002044ADF80E00ADF8120023E0DDE9051025
:10BF7000FCF70DF9308ABDF81C10084401B2708A34
:10BF8000204402B2DDE9053005F0F0FFCDE90008FC
:10BF9000029703A9069B2D9A2198FAF796FEBDF801
:10BFA0000E00401CADF80E00BDF81200401CADF8AC
:10BFB0001200641CBDF92200A042D7DA1D9806F0D9
:10BFC0001BFB1C9806F018FB0698FBF785FF23B0B7
:10BFD000BDE8F08F2DE9FF4F8DB0967A1A9F1C991E
:10BFE000032E00D10426012E17D0022E1DD0042EC0
:10BFF00023D0082E7ED1DFF84C824FF0FF09730169
:10C00000FD2931D2904D2878884202D16868B0422B
:10C0100026D00020DFF834C220E0DFF828824FF07D
:10C020008009A8F11A080223EAE7DFF818824FF026
:10C03000C009A8F114080423E2E7DFF808824FF0F2
:10C04000F009A8F110081023DAE718F80040FF2CD7
:10C0500016D04C43240A0CF80040401C9842F4D3FC
:10C06000DFF8E88129706E605188009110989588FA
:10C070000D9AB0F900007143904203DC002002E009
:10C080000C46E8E7801A82461046009A024410984F
:10C09000B0F90400824201DC009802E00D9A801A97
:10C0A000401C059010980E9AB0F90200904201DCF5
:10C0B000002000E0801A019010982A44B0F9060090
:10C0C000824201DC284602E00E9A801A401C0A9047
:10C0D000019848430AFB060007EBD00700F007046D
:10C0E000FCF774FA04F0F2FF00996943814200DC26
:10C0F000084600E0A3E00790FBF76AFE0D9983462F
:10C100000AEB0100ADF80C00059800250844401E1C
:10C11000ADF810000E9901980844ADF80E00ADF886
:10C12000120005F045FF0990C6F10800069000993D
:10C1300005985144081A70430B90019864E029FA5D
:10C1400004F05146002300951AE03A78DDF818C053
:10C150000240ACEB040C32FA0CF204D018F802C026
:10C160000BF805C001E00BF80530069A944202D2A4
:10C170003444F04002E0002448467F1C491C6D1CFA
:10C18000059A9142E1DB0998B0B103A804F0D5FC0F
:10C19000DDF800C003460BEB0C00BDF91220BDF921
:10C1A0000C10009005F0E2FE30B903A804F0C5FCC5
:10C1B00001460098FBF7BEFF0598A0EB0A00411965
:10C1C0000798814205D2BDF81200401CADF812005C
:10C1D00012E0FF2102201D9A8DE807005B4603A9AB
:10C1E0001B9A1098FAF771FDBDF81200401CADF8CB
:10C1F0000E00ADF8120000250B98204407EBD00785
:10C2000000F007040898401C0A990890884296DBC1
:10C21000BDF90E10BDF9120081420DD0401EADF8DF
:10C220001200FF2102201D9A8DE807005B4603A93A
:10C230001B9A1098FAF749FD5846FBF74DFE11B0CE
:10C24000BDE8F08FB2070208AC0100208406002090
:10C250002DE9FF4F95B0947ADDF890A0229B8B4694
:10C260008046032C00D10424012C09D0022C0CD0D0
:10C27000042C1AD0082C7DD1D4480E90FF2008E061
:10C28000D2481A380E90802003E0D04814380E901F
:10C29000C0200D90558818990B959088B1F9001021
:10C2A0006543414506DC002108E0C84810380E907F
:10C2B000F020EEE7A1EB080101EB410108910B9999
:10C2C000032291FBF2F218994244B1F904108A4218
:10C2D00001DC0B9904E0A1EB0801491C01EB4101D1
:10C2E00007911899B1F90210594501DC002101E0CC
:10C2F000A1EB0B01029118990BEB0002B1F90610AA
:10C300008A4201DC014602E0A1EB0B01491C1391BA
:10C310000299089A694302FB041103EBE10701F05B
:10C3200007060B994143F02900DDF02108461091E2
:10C33000FBF74EFD1099099000254800FBF748FDDA
:10C340000A90FCF743F904F0ADFE8146103004F08A
:10C35000F4FB0390B9F91220D9F80810ABEB0203F3
:10C3600003FB0082B9F91000101A01EB400203210F
:10C37000089800E026E190FBF1FCDDE9023003FBC8
:10C3800000C002EB4009089890FBF1F202EB0800B4
:10C39000ADF81000079890FBF1F101EB0800401E8A
:10C3A000ADF8140003EB0B00ADF81200ADF8160069
:10C3B00005F0FEFD12902398414680B2C20A62F356
:10C3C0000701C0F3451262F30F2100F01F0060F374
:10C3D00017410F910298D6E00D9A0021F240069580
:10C3E00008987CE03878C6F1080310401B1BD84041
:10C3F0000ED0BAF1FF0F07D0082C01D00E9B185CAD
:10C4000000FB0AF0000A03E0082C01D00E9B185C28
:10C410000CAB5854491C032953D1B9F80000002132
:10C42000C0F3451CCDF808C000F01F0C4FEAD0281F
:10C43000CDF850C00F98C3B29DF83000864613FB6C
:10C4400000FCC0F1FF0018FB00C0BDF80030000A7E
:10C4500060F3CF230F98C0F3074C9DF832001CFB0C
:10C4600000F80190DDF850C0C0F1FF001CFB008017
:10C47000000A60F304030F98C0F3072C9DF8310005
:10C480001CFB00F81490DDF808C0C0F1FF001CFB95
:10C490000080000A60F34A13ADF800305FEA0E0036
:10C4A00003D1149808B9019890B1FF23099809F1B4
:10C4B000020943550A98BDF8003000EB45006D1C99
:10C4C0000380C4F10800B04204DD2644E24004E0E9
:10C4D0000023EBE700260D9A7F1C0BF10100079B60
:10C4E00083469842FFF67EAF1298B0B104A804F0DC
:10C4F00024FB0346DDF818C00998BDF916206044F6
:10C50000BDF91010804605F031FD30B904A804F0E3
:10C5100014FB01464046FBF70DFEDDE90701A0EBE9
:10C520000108109808EB0501814205DABDF81600F4
:10C53000401CADF8160012E0022225980092CDE9C9
:10C5400001A0DDE9093204A91898FAF734FCBDF816
:10C550001600401CADF81200ADF816000025079932
:10C560000B98411A08980844032100FB046098FBCB
:10C57000F1F107EBE00700F007060398411A119864
:10C5800009EB4109401C139911908842FFF624AF32
:10C59000BDF91210BDF9160081420DD0401EADF854
:10C5A0001600022225980092CDE901A0DDE90932AA
:10C5B00004A91898FAF7FFFB0998FBF78DFC0A9875
:10C5C000FBF78AFC19B0BDE8F08F0000B207020843
:10C5D0002DE9FF4F89B00746187A1C468B4601901B
:10C5E000FBF7F4FF04F05EFD064600F11005B4F918
:10C5F0000200401E4FEA600A00F001005044009023
:10C60000E08818B1A08808B1012000E00020804631
:10C610004FF0010905F0CCFC10B9B8F1000F01D0C2
:10C620004FF00009B7F90000BBF90010884200DBA9
:10C630000846ADF80C00B7F90000BBF900108842BD
:10C6400000DC0846401EADF8100079880098081AF2
:10C65000ADF80E007988B9F1000F01EB0A00ADF8D2
:10C66000120011D0607A012200F0030000920290C3
:10C670002088ADF81400002303A9059A0B98FAF757
:10C6800024FB0DB0BDE8F08F03AA10460B99FAF712
:10C69000CEF90028F5D0BDF80C0029884FF0000A2B
:10C6A000401A00B2ADF80C00BDF80E106A888B1A63
:10C6B000ADF80E30BDF810102A88891AADF81010A8
:10C6C000BDF812206F88D21BADF812200A1A521C36
:10C6D00017B22A88B8F1000F00EB020C1144ADF834
:10C6E00014C0ADF8181069881944ADF81610ADF8EB
:10C6F0001A100DD0B6F91010B4F904200844B4F99A
:10C700000610114490FBF1F201FB12000FFA80FABF
:10C710003846FBF75DFB8146BDF90E504CE03946CB
:10C720004846FBF734FD308ABDF80C103B46084400
:10C7300001B2708A284402B2484605F017FCB8F1ED
:10C74000000F1ED0E8B1002150460B4616E0B4F9A8
:10C750000420824205DB121A1144104409B200B2CF
:10C7600008E0B4F906C06244824201DC002001E026
:10C7700009F80130491C401C09B200B2B942E6DB9D
:10C780000220617A227A01F00301CDE900020291D0
:10C790002088ADF81C004B4605A9079A0B98FAF7BC
:10C7A00094FABDF81600401CADF81600BDF81A004A
:10C7B000401CADF81A006D1CBDF91200A842AEDA9B
:10C7C0004846FBF789FB5CE72DE9FF4FB0F90250C3
:10C7D000B1F90240B9B01E46A54208DA008865F3F7
:10C7E0001F4260F30F0264F31F43088807E00988C3
:10C7F00064F31F42008865F31F4361F30F0260F387
:10C800000F030FFA83FA17B2AAEB07044FEA234B80
:10C810004FEA2248ABEB08053393002C01DD20469C
:10C8200000E06042002D01DD294600E069428842B7
:10C8300001DD012000E000200090B6F9021058B19F
:10C84000002D01DD284600E068424201002C01DD98
:10C8500020460CE060420AE0002C01DD204600E0AA
:10C8600060424201002D01DD284600E0684292FB53
:10C87000F0F0BF4A105C10FB01F03F30C0114FEAEE
:10C88000600900F0010202EB09010291514657458F
:10C8900000DA3946A1EB0001ADF8641001DD39463C
:10C8A00000E051460144ADF8681041465A46D8456B
:10C8B00000DB1146A1EB0001ADF8661001DD414639
:10C8C00000E059460844ADF86A0019A908463B9AA9
:10C8D000FAF7ADF800287CD000980021002879D024
:10C8E000002C17DDABEB090000B2CDE90001A8EB8D
:10C8F000090002B25346394603A805F0BDFB029A6F
:10C9000001210BEB020000B2CDE90001534608EB18
:10C91000020016E0029A53460BEB020000B2CDE98A
:10C92000000108EB020002B2394603A805F0A4FB9F
:10C93000ABEB0900012100B2CDE900015346A8EBA1
:10C94000090002B239460EA805F096FB002103A8A3
:10C9500005F0F2FA389000210EA805F0EDFA3790B4
:10C960004FF0FF3035903490707AC00624D408EB35
:10C970000400032100B2CDE90001781B03B2424656
:10C9800039461DA805F078FB339902200A141119C5
:10C9900009B2CDE90010339801B2481B03B228A8B0
:10C9A00005F06AFB00211DA805F0C6FA35900021AC
:10C9B00028A805F0C1FA3490FBF708FE074604F0FA
:10C9C00071FB00F110050446BDF864002988411A86
:10C9D00001E0CAE024E0ADF86410BDF866006A88A2
:10C9E000801AADF86600BDF868002A88801AADF894
:10C9F0006800BDF86A206B88401A401CD21A0FFAF2
:10CA000080F8ADF86A20384604F060FB074619A8A4
:10CA100004F073F8B8421AD219A804F06EF817E0BF
:10CA2000CDE900B1029942460AEB010003B2781841
:10CA300001B203A805F020FB0121AAEB0900CDE912
:10CA400000B103B2A7EB0900424601B27BE73846CA
:10CA50008246FBF7BDF93390BDF9641028880A18A7
:10CA6000ADF86C20BDF868201044ADF87000BDF83A
:10CA7000662068881044ADF86E00ADF87200B4F915
:10CA80001000002400EB010B51463398FBF77FFBAD
:10CA9000BDF96610B5F902000F1836E03398434629
:10CAA000204481463AB20FFA8BF105F05FFA18B9CB
:10CAB00048464146FBF73EFB444404EB0801514520
:10CAC00005D2BDF87200401CADF872001CE0707A0F
:10CAD000317A022200F003000092CDE90110308883
:10CAE000ADF8D8001BA8339B369A3B99FAF7EDF8BE
:10CAF000BDF872000024401CADF86E00ADF8720065
:10CB000051463398FBF743FB7F1CBDF96A00B5F92A
:10CB100002100844B842C1DABDF96E10BDF97200C6
:10CB2000814213D0401EADF87200707A022200F0EC
:10CB30000301307A0092CDE901013088ADF8D800C8
:10CB40001BA8339B369A3B99FAF7BFF83398FBF74B
:10CB5000C3F9389805F050FD379805F04DFD35982C
:10CB600005F04AFD349805F047FD3DB0BDE8F08F73
:10CB7000B20802082DE9FF4F89B00646187A1C4614
:10CB80008B460190FBF722FD04F08CFA054600F17C
:10CB9000100AB4F90200401E4FEA600900F00100DB
:10CBA00048440090E08818B1A08808B1012000E056
:10CBB00000208046012705F0FBF910B9B8F1000FFD
:10CBC00000D0002731880098081AADF80C00318891
:10CBD00001EB0900ADF81000B6F90200BBF9021034
:10CBE000884200DB0846ADF80E00B6F90200BBF93A
:10CBF0000210884200DC0846401EADF812008FB1DA
:10CC0000607A012200F00300009202902088ADF8C3
:10CC10001400002303A9059A0B98FAF756F80DB0F3
:10CC2000BDE8F08F03AA10460B99F9F700FF002822
:10CC3000F5D0BDF80C00298A411AADF80C10BDF8EA
:10CC40000E006A8A821AADF80E20BDF810002B8AF9
:10CC5000C01AADF81000BDF812306E8A9B1BADF8FB
:10CC60001230431A5B1C0FFA83F9BAF800301944EA
:10CC70001844ADF81410ADF81800BAF802001044CA
:10CC8000ADF81600ADF81A004846FBF7A1F80026EB
:10CC90008246B8F1000F0ED0B5F91200BDF90E10A2
:10CCA000B4F904200844B4F90610114490FBF1F2E1
:10CCB00001FB120006B2BDF90E7038E0494650463D
:10CCC000FBF765FA288ABDF80C104B46084401B200
:10CCD000688A384402B2504605F048F9B8F1000FAE
:10CCE0000DD050B1B4F90410B14200DA0020B4F90B
:10CCF00006201144B14200DC0026761C36B2002228
:10CD0000217A8DE807002088ADF81C00534605A95C
:10CD1000079A0B98F9F7D9FFBDF81600401CADF83B
:10CD20001600BDF81A00401CADF81A007F1CBDF9B2
:10CD30001200B842C2DA5046FBF7CEF86FE730B5C2
:10CD40000D46917F89B0144602294DD9628B002A85
:10CD50004AD0014604A803F0BCFEB4F91C0008B98F
:10CD60004FF0FF30BDF81010091AADF81010BDF8E3
:10CD70001210091AADF81210BDF814100144ADF8E4
:10CD80001410BDF816100844ADF8160004A906A842
:10CD900003F09FFEA08B0028B4F91A0000D1401CBC
:10CDA000BDF818102A46091AADF81810BDF81C1065
:10CDB0000144ADF81C10BDF81A10091AADF81A108C
:10CDC000BDF81E100844ADF81E00E17FA07FCDE93C
:10CDD0000201208BADF8040001200090B4F900306E
:10CDE00006A904A8FEF7D7FE09B030BD2DE9F74F1C
:10CDF0008046D06A9AB01446002816D094F83610AF
:10CE0000022912D907F0BCFB81464FF0000B012824
:10CE10000ED0B9F1000F0BD0B9F1020F21D00023D1
:10CE20001A4640461B9904F0E5F91DB0BDE8F08FA5
:10CE30006946E06A06F018FD0128F6D10098C0F3B3
:10CE40008A25460D15A804F0EFF994F836008DF800
:10CE5000540094F837008DF85E00A08EADF86000A5
:10CE60001CE005A804F07AFCA08EADF81400206B3D
:10CE7000079094F836008DF82000BDF9221047F68F
:10CE800018428DE80608BDF92430079A19A8E16A0E
:10CE9000FCF73CF8BDF96450BDF96660002DC4D0C4
:10CEA000002EC2D094F83800C00770D0B4F900202A
:10CEB000002341460EA805F05FFB00210EA805F0F7
:10CEC0003BF80190404603F03EFE0746404603F023
:10CED0003AFE90FBF5F000FB157000EBD0704FEAC6
:10CEE000600A404603F0FDFD0746404603F0F9FDA9
:10CEF00090FBF6F000FB1670B8F8021000EBD07053
:10CF0000A1EB6000ADF80E00711E08442CE0B8F8EB
:10CF100000105F46A1EB0A00ADF80C00691E084442
:10CF2000ADF8100012E0B9F1020F27D015ABE26A9C
:10CF300003A81B9904F05EF9BDF80C002844ADF875
:10CF40000C00BDF810002844ADF81000BDF90C101D
:10CF5000B8F904008142E6DDBDF80E003044ADF8BA
:10CF60000E00BDF812003044ADF81200BDF90E10ED
:10CF7000B8F906008142CADD019856E0009705AA7B
:10CF8000E36A03A81B9904F061F9D5E7FFE740467F
:10CF900003F0D9FD0746404603F0A3FD0146781B88
:10CFA000B8F8002000EBD07002EB6002ADF80C2066
:10CFB000891BB8F8020001EBD17300EB63006D1E12
:10CFC00000B22A44ADF81020761E821912B2ADF8D4
:10CFD0000E00ADF81220B9F1020F07D101F00101E6
:10CFE0000844ADF80E005018ADF812004FF0FF35B0
:10CFF000B4F90020414603A8F9F741FD58B9B4F946
:10D000000020002341460EA805F0B6FA00210EA824
:10D0100004F092FF0546B9F1020F09D015ABE26AA0
:10D0200003A81B9904F0E6F8284605F0E5FAFCE6AB
:10D03000CDF800B005AAE36A03A81B9904F006F92D
:10D04000F2E72DE9F74FB2F92200B8B014460028F4
:10D050007CD094F82A10022978D9012807D1A18C14
:10D0600029B9E18C19B9B4F9281000296EDD804680
:10D0700038980188A08C0A18218D521AADF82C20FE
:10D08000389B9B88184443183898ADF83030E18CB1
:10D0900040880844218D411AADF82E103898E58C4F
:10D0A000C0882844258D054408EBD870A2EB6002A7
:10D0B000521EADF8D420012202EB6002A1EB600009
:10D0C000401E1344ADF8D600ADF8D830A818ADF81E
:10D0D0003250ADF8DA0094F82A60FD2E00D9FF2610
:10D0E000FBF774FA03F0DEFF054635A911A8399A5B
:10D0F000F9F79DFC002829D0BDF84400298A401A80
:10D10000ADF84400BDF84600698A401AADF8460003
:10D11000BDF84800298A401AADF84800BDF84A0019
:10D12000698A401AADF84A0006A8389903F0D1FC84
:10D13000BDF81800401CADF81800BDF81A00401CDE
:10D14000ADF81A00BDF81C00401E00E0FDE3ADF88C
:10D150001C00BDF81E00401EADF81E00B4F9009082
:10D1600006A803F0F0FC054606A803F0BAFC8542C9
:10D1700006A802DA03F0E7FC01E003F0B2FCB9EB29
:10D18000600F01DD4FEA6009B4F900700BA803F0ED
:10D19000DAFC05460BA803F0A4FC85420BA802DAD2
:10D1A00003F0D1FC01E003F09CFCB7EB600F00DD65
:10D1B000471008EB070505FB05F04000FAF708FEED
:10D1C00083460146B4F922203B460BA80BF0CFFA68
:10D1D00035A803F086FCBDF8D61000EBD07001EB4B
:10D1E00060000FFA80FA35A803F0ADFCBDF8D4104A
:10D1F00000EBD07001EB600000B20127089004F052
:10D20000D7FE28B9A08C18B9E08C08B9208D00B1E0
:10D21000002735A803F097FCFAF7DAFD0E900123FA
:10D220004A4606A929A805F0A7F9002129A804F073
:10D2300083FE1690BDF8D800ADF81400401B401CCA
:10D24000ADF81000BDF8D600691EADF81200084414
:10D250000391ADF8160004A909A8399AF9F7E7FB7C
:10D26000B0B34A4606A904A8F9F709FC80BBBDF98A
:10D270002A10514501DDADF82AA0BDF92410089807
:10D28000814202DC401CADF8240009A803F029FC0F
:10D290000D9009A803F057FC1990002847DDBDF94F
:10D2A0002400BDF91010BDF91220411A01EB0B004A
:10D2B000BDF92610891A05FB0100289009A917A8B5
:10D2C00003F007FCBDF85E00ADF8620000202AE024
:10D2D0002DE0199A28990E98FAF73CFEBDF95E20C8
:10D2E000BDF95C10199B0E9804F040FE012800D196
:10D2F000022094F82B10CDE9000602910E9B17A98D
:10D30000226A3998F9F7E1FCBDF85E00401CADF8DF
:10D310005E00BDF86200401CADF862002898284409
:10D32000289008F101000D9980468842D1DBBDF8B4
:10D33000D800ADF81400401B401CADF81000BDF83B
:10D34000DA00ADF81600411B491CADF8121004A913
:10D3500009A8399AF9F76BFBC0B34A4606A904A895
:10D36000F9F78DFB90BBBDF92610514503DC0AF19E
:10D370000100ADF82600BDF924100898814202DCB6
:10D38000401CADF8240009A803F0ABFB139009A8DA
:10D3900003F0D9FB0D90002847DDBDF92400BDF94D
:10D3A0001010BDF92A20411A01EB0B00BDF916102F
:10D3B000891A05FB0100289009A90FA803F089FB31
:10D3C000BDF84200ADF83E0000202AE02DE0DDE986
:10D3D0000D202899FAF7BEFDDDE90D30BDF93E209C
:10D3E000BDF93C1004F0C2FD012800D1022094F8E0
:10D3F0002B10CDE9000602910E9B0FA9226A3998E5
:10D40000F9F763FCBDF83E00401EADF83E00BDF8E4
:10D410004200401EADF8420028982844289008F1A8
:10D420000100139980468842D1DBBDF8D800ADF8E1
:10D430001400401B401CADF81000BDF8D60004A934
:10D440002844ADF81200BDF8DA00399A401BADF857
:10D45000160009A8F9F7EBFA70B34A4606A904A822
:10D46000F9F70DFB40BB4FB13899BDF92400B1F974
:10D470000410884200DC0846ADF8240009A803F037
:10D4800062FB1590002846DD09A803F02AFB0D90E9
:10D490000398BDF92410BDF9102005FB00B0891ACE
:10D4A0000844289009A913A803F013FBBDF84E0007
:10D4B000ADF8520000202AE02DE0159A28990E9828
:10D4C000FAF748FD4FB9BDF94E20BDF94C10159B38
:10D4D0000E9804F04BFD012800D1022094F82A2078
:10D4E00094F82B10CDE9000202910E9B13A9226A39
:10D4F0003998F9F7EAFBBDF84E00401CADF84E0034
:10D50000BDF85200401CADF8520008F101000D9921
:10D5100080468842D1DB59464FF0000E05EBD578A6
:10D5200011E0002009E02A1A0A440B5C12F801CC31
:10D5300001F800C002F8013C401CB0EB680FF2DBC0
:10D5400029440EF1010EAE45EBDBBDF8D400039982
:10D55000ADF810000844ADF81400BDF8D600ADF8E1
:10D5600012000844ADF8160004A909A8399AF9F781
:10D570005EFAA8B34A4606A904A8F9F780FA78BB70
:10D58000BDF92A10514501DDADF82AA0BDF92810DA
:10D590000898814201DDADF8280009A803F0A1FA3E
:10D5A000139009A803F0CFFA0D90002847DDBDF9CC
:10D5B0002400BDF91010BDF91220411A01EB0B0037
:10D5C000BDF92610891A05FB0100289009A90FA8AA
:10D5D00003F07FFABDF83E00ADF8420000202AE0DB
:10D5E0002DE0DDE90D202899FAF7B4FCDDE90D30D6
:10D5F000BDF93E20BDF93C1004F0B8FC012800D173
:10D60000022094F82B10CDE9000602910E9B0FA981
:10D61000226A3998F9F759FBBDF83E00401CADF875
:10D620003E00BDF84200401CADF842002898284456
:10D63000289008F10100139980468842D1DBBDF89B
:10D64000D4000399ADF810000844ADF81400BDF8FB
:10D65000DA00ADF81600411B491CADF8121004A900
:10D6600009A8399AF9F7E3F9B0B34A4606A904A81C
:10D67000F9F705FA80BBBDF92610514503DC0AF124
:10D680000100ADF82600BDF928100898814201DD9F
:10D69000ADF8280009A803F024FA089009A803F0BF
:10D6A00052FA1D90002844DDBDF92400BDF9101088
:10D6B000BDF92A20411A01EB0B00BDF91610891A99
:10D6C00005FB010A09A91BA803F003FABDF87200C3
:10D6D000ADF86E00002028E02BE051461D9A0E9810
:10D6E000FAF738FCBDF96E20BDF96C101D9B0E9841
:10D6F00004F03CFC012800D1022094F82B10CDE965
:10D70000000602910E9B1BA9226A3998F9F7DDFAEF
:10D71000BDF86E00AA44401EADF86E00BDF8720060
:10D72000401EADF8720008F1010008998046884259
:10D73000D3DBBDF8D4000399ADF810000844ADF870
:10D740001400BDF8D60004A92844ADF81200BDF8B5
:10D75000DA00399A401BADF8160009A8F9F767F905
:10D7600070B34A4606A904A8F9F789F940BB4FB13E
:10D770003898BDF92810B0F90000884200DB08464F
:10D78000ADF8280009A803F0DEF9B0F1000A45DD84
:10D7900009A803F0A6F908900399BDF9102005FB2C
:10D7A00001B0BDF92410891A0844289009A90FA8CE
:10D7B00003F08FF9BDF83E00ADF84200002029E0EB
:10D7C0002CE0524628990E98FAF7C4FB4FB9BDF9E0
:10D7D0003E20BDF93C1053460E9804F0C7FB0128CB
:10D7E00000D1022094F82B2094F82A108DE807002D
:10D7F0000E9B0FA9226A3998F9F767FABDF83E0027
:10D80000401CADF83E00BDF84200401CADF842009F
:10D8100008F10100089980468842D2DBBDF8D400A7
:10D8200003992844ADF81000BDF8D800399A401B80
:10D83000ADF81400BDF8D600ADF812000844ADF8FC
:10D84000160004A909A8F9F7F2F8E8B34A4606A9B0
:10D8500004A8F9F714F9B8BB4FB13899BDF92A00FB
:10D86000B1F90210884200DB0846ADF82A0009A889
:10D8700003F069F9259009A803F033F90390BDF985
:10D880002610BDF912200BEB0500891A401E05FB7E
:10D89000010809A923A803F01CF9BDF88E00ADF812
:10D8A0009200002033E098F80010FF2901D1FF2EEC
:10D8B00002D016FB01F0010A259A0E98FAF709FC2E
:10D8C0005FB9BDF98E2000E025E0BDF98C10259BE5
:10D8D0000E9804F04BFB012800D1022094F82B1085
:10D8E000FF22CDE9000202910E9B23A9226A3998FA
:10D8F000F9F7EBF9BDF88E00A844401CADF88E0096
:10D90000BDF89200401CADF892000AF101000399A5
:10D9100082468842C7DBBDF8D400399A2844ADF866
:10D920001000BDF8D800401BADF81400BDF8DA00B7
:10D93000ADF81600411B491CADF8121004A909A846
:10D94000F9F775F870B34A4600E0C7E006A904A8E5
:10D95000F9F795F830BB4FB13899BDF92600B1F908
:10D960000610884200DC0846ADF8260009A803F03E
:10D97000EAF8219009A803F0B4F80390BDF9161055
:10D98000BDF92A200BEB0500891A401E05FB010A90
:10D9900009A91FA803F09DF8BDF88200ADF87E002C
:10D9A000002032E035E09AF80010FF2901D1FF2E67
:10D9B00002D016FB01F0010A219A0E98FAF789FBB2
:10D9C0004FB9BDF97E20BDF97C10219B0E9804F063
:10D9D000CDFA012800D1022094F82B10FF22CDE9C6
:10D9E000000202910E9B1FA9226A3998F9F76DF97E
:10D9F000BDF87E00AA44401EADF87E00BDF882004E
:10DA0000401EADF8820008F101000399804688426B
:10DA1000C9DBBDF8D40004A92844ADF81000BDF856
:10DA2000D800399A401BADF81400BDF8D600284440
:10DA3000ADF81200BDF8DA00401BADF8160009A8D9
:10DA4000F8F7F5FFB84340D04A4606A904A8F9F70D
:10DA500016F8D0BB09A803F076F8074609A803F02A
:10DA600040F8064609A90FA803F033F8BDF83E00B8
:10DA7000ADF84200002526E094F82A103A460E98A8
:10DA8000FAF727FBBDF93E20BDF93C103B460E9846
:10DA900004F06CFA012800D1022094F82B20FF2119
:10DAA0008DE807000E9B0FA9226A3998F9F70DF946
:10DAB000BDF83E00401CADF83E00BDF84200401CE1
:10DAC000ADF842006D1CB542D6DB169804F094FD0B
:10DAD0000E98FAF701FA5846FAF7FEF93BB0BDE89E
:10DAE000F08F2DE9F041D66B90B01446884607467A
:10DAF000002E5ED094F8440002285AD9B4F94E00A2
:10DB0000002547F618418DE82300B4F94C3054F84D
:10DB1000402F31460EA8FBF7F9F9BDF83800ADF8F3
:10DB20000C50401EADF81000BDF83A00ADF80E5094
:10DB3000401EADF81200227C0FAB03A93846F8F75F
:10DB40008FFEBDF83C002189BDF80C200144114432
:10DB5000ADF80C10BDF83E106289BDF80E300A44D5
:10DB60001A44ADF80E2022891044BDF8102010444C
:10DB7000ADF8100060890844BDF812100844ADF8F3
:10DB8000120005A803F0EAFD20680790A089ADF80F
:10DB90002400E089ADF82200E088ADF81400207977
:10DBA0008DF82000334605AA414603A8009503F0EE
:10DBB0004DFB10B0BDE8F0810100084842680AD072
:10DBC000081D096802F5004200EB5100011D914259
:10DBD00000D3002070471046704700002802002044
:10DBE00010B5C91C21F0030102680B1DB3EB520FE5
:10DBF00000D15108B1EB520F10D0021D0A44136836
:10DC000023F0010313600468C1EB5404241F64F380
:10DC10005F031360026861F35F02026010BD0000E1
:10DC20002DE9FF4F83B01646DDE91275DDE910B925
:10DC30000C4602F076FF7188824611FB0AF004EB75
:10DC40004004012D14D0022D45D13F48012F8046BC
:10DC500010D0304602F065FF0190B6F900100022A6
:10DC6000A9EB01072188ADF80010B6F9020064E0C5
:10DC70003648EBE700215A460091069803F024F855
:10DC80000190B6F9027022E0B6F9005018E0BDF834
:10DC9000000034F8151088420CD004EB45005A46B9
:10DCA0000088ADF80400ADF80000434601990698DD
:10DCB0009847019004EB4500BDF8041001806D1CED
:10DCC000B6F90400A842E2DA04EB4A047F1CB6F974
:10DCD0000600B842D8DA07B0BDE8F08FB6F90050B8
:10DCE00021E0785DF0B1904203D134F815309942CB
:10DCF00013D0FD2801D35A4602E000FB0BF0020AC4
:10DD000004EB450043460088ADF8000000990698F2
:10DD1000984700907A5D34F8151004EB4500BDF883
:10DD2000003003806D1CB6F90400A842D9DA0198CE
:10DD300004EB4A04074409F10100B6F906308146B4
:10DD40004B45CBDAC7E7000061AF0008EDAE000835
:10DD50002DE9FF4F87B09346DDE915A60446DDF8AF
:10DD60005080FAF733FC0190204602F0DAFE81463B
:10DD7000584602F0D6FE0546BBF80610BBF9020075
:10DD8000091A491C09B210FB09F200910899BDF863
:10DD9000287001EB4202BBF90010012E02EB410496
:10DDA0000AD023882A1F0021ADF808300492B8F168
:10DDB000FD0F7DD9002065E10198B8F1FD0F1FD955
:10DDC000C06A78B1584602F098FEF0280AD9019846
:10DDD000ADF800705B46C46A4A460899A0470BB08C
:10DDE000BDE8F08F002607E02A4620460A9902F097
:10DDF000CDFE04EB4904761C00988642F4DBEEE786
:10DE0000806A08B3584602F078FEF0281CD900203A
:10DE1000BDF82810C04A02E022F81010401CA842A9
:10DE2000FADBBBF902600AE00198CDF800802B46CE
:10DE3000876AB94A2146B84704EB4904761CBBF906
:10DE40000600B042F0DACAE70021424604910A987F
:10DE500002F03AFF0A99019089B24046CA0A424349
:10DE6000ADF80820C1F3451201F01F0101FB08F1D4
:10DE700002FB08F2ADF80C10ADF80A20C8F1FF0162
:10DE800000234EE0002047E0BDF8102034F8106079
:10DE9000B2423BD004EB4002BDF808601288ADF8F6
:10DEA0001020ADF8042092B2D70A07FB016600E00B
:10DEB000F0E0803606EBC61707EBC636C6F3C4574C
:10DEC000BDF81460C2F3451C67F3CF26BDF80A7095
:10DED00002F01F020CFB0177803707EBC71C0CEB2D
:10DEE000C737C7F3C55767F34A16BDF80C7002FB76
:10DEF0000172803202EBC21707EBC232C2F3C45286
:10DF000062F30406B2B2ADF81460019204EB400271
:10DF1000BDF804601680401CA842B5DB04EB490440
:10DF20005B1C00988342ADDB59E7D046002616E023
:10DF300098F8002082B1FF2A04EB460015D08346F2
:10DF40000088ADF8080002990A9802F0BDFE029020
:10DF5000BDF80810ABF8001008F10108761CAE42BD
:10DF600061DA5FEA8870E3D15DE00780F4E7D8F812
:10DF70000000E0B3401C5AD098F8002082B1FF2A7C
:10DF800004EB46005AD083460088ADF80800029999
:10DF90000A9802F099FE0290BDF80810ABF8001044
:10DFA00098F8012008F1010B82B1FF2A04EB46002A
:10DFB00046D002904088ADF80C0003990A9802F010
:10DFC00083FE03900298BDF80C1041801BF8012FCE
:10DFD00092B1FF2A04EB460034D002908088ADF85D
:10DFE0000C0003990A9802F06FFE039000E017E01E
:10DFF0000298BDF80C1081809BF8012082B1FF2AA5
:10E0000004EB460018D08346C088ADF8080002999A
:10E010000A9802F059FE0290BDF80810ABF80610FD
:10E0200008F10408361D04988642A0DD23E004EBC5
:10E030004600078047808780C780F1E70780AFE709
:10E040004780C3E78780D7E798F8002082B1FF2A8E
:10E0500004EB46001CD083460088ADF80800029906
:10E060000A9802F031FE0290BDF80810ABF80010DB
:10E0700008F10108761CAE42E6DB019804EB490486
:10E08000AA44401C009901908842FFF64EAFA6E6D4
:10E090000780EDE70022CDE9002032E05746002658
:10E0A00027E0387818B3884205D0FF282FD000FB2E
:10E0B00008F2120A0092884203D134F81600834213
:10E0C00010D00098FF2824D004EB4600009A008866
:10E0D000ADF80C0003990A9802F0F6FD0290397829
:10E0E00034F8163004EB4600BDF808200280761C98
:10E0F0007F1CAE42D5DB019804EB4904401CAA44C6
:10E100000190BBF9062001988242C7DA67E64246D1
:10E11000D0E70A98E2E70000A40400202DE9FF4FB1
:10E1200085B01446DDE913650746DDF848A0FAF727
:10E130004DFA8146384602F0F4FCBDF82080834653
:10E14000012D09D0B4F90000371A204602F0E9FC8D
:10E150000490B4F9026041E0B4F90260CDF80CB06B
:10E1600017E0B4F900500FFA86FB0DE0CDF808A0D7
:10E17000ADF80480CDF800B0D9F8147048462BB241
:10E18000039A0699B8476D1CB4F90400A842EDDA69
:10E19000761CB4F90600B042E3DA09B0BDE8F08FAE
:10E1A000B4F9005030B2039011E0785D70B100FB1B
:10E1B0000AF0000A02900398ADF804800090D9F8A4
:10E1C00014C048462BB25A460699E0476D1CB4F974
:10E1D0000400A842E9DA0498761C0744B4F9060062
:10E1E000B042DDDAD9E72DE9F0470546007D9146DA
:10E1F0008A46C0075ED100260127EC68B84674B98C
:10E20000287DC0F30010401E304253D1B8F1000FFA
:10E2100050D028465146884700270446B8460EB9D4
:10E22000261E47D037B1214628464A469047044625
:10E23000B0423FD00127002CE1D00021206807F038
:10E2400073FA8006DBD4206807F01AFA0028D6D1CA
:10E25000E868A0422ED080B1006800221721C3696F
:10E260009847E86800220E21006804F039FA012876
:10E2700020D1E868006807F07DFEEC60206800228D
:10E280001621C3699847E86800220D21006804F050
:10E2900027FA01280ED1E86800680AF017F8E86844
:10E2A000006807F067FE2969002903D02846BDE809
:10E2B000F0470847BDE8F08703490A685206FCD5D5
:10E2C000C2B24A6070470000001001402DE9F05FC3
:10E2D000ED4D2868603008F029FF40F68807384681
:10E2E00002F09CFC024628680021603008F051FFD3
:10E2F000384602F093FC024628680021603008F09E
:10E30000A2FFDFF8888328680021D8F80C2060304D
:10E3100008F08FFF002002F0CDFE00EB80004FF4EC
:10E32000A079A0245030484508DB002002F0C2FE4E
:10E3300000EB8000503090FBF4F000E0012002B2CE
:10E3400028680021603008F02EFF002002F0B2FEA5
:10E35000502606EB8000484507DB002002F0AAFEAD
:10E3600006EB800090FBF4F000E0012002B2286888
:10E370000021603008F062FF286800F1600A002088
:10E3800002F098FE06EBC000484507DB002002F0D3
:10E3900091FE06EBC00090FBF4F000E0012002B219
:10E3A000C2215046FAF712FC002002F083FE00EB77
:10E3B000800006EB8000484509DB002002F07AFE71
:10E3C00000EB800006EB800090FBF4F000E0012001
:10E3D00002B228680021603008F012FF002002F02D
:10E3E00069FE00EB800006EB8000484509DB002059
:10E3F00002F060FE00EB800006EB800090FBF4F082
:10E4000000E0012002B228680021603008F0FDFE23
:10E41000002002F04FFE00EB800006EB8000484534
:10E4200009DB002002F046FE00EB800006EB8000D6
:10E4300090FBF4F000E0012002B228680021603077
:10E4400008F0E8FE002002F035FE00EB800006EB4D
:10E450008000484509DB002002F02CFE00EB800024
:10E4600006EB800090FBF4F000E0012002B2286887
:10E470000021603008F0BFFE002002F01BFEC0EB60
:10E4800000105030484508DB002002F013FEC0EBBE
:10E490000010503090FBF4F000E0012002B2286838
:10E4A0000021603008F0D4FE286847F6FF7B5A460A
:10E4B0000021603008F0B8FE2868643008F036FEAD
:10E4C000384602F0ABFB024628680021643008F0B1
:10E4D00060FE384602F0A2FB024628680021643044
:10E4E00008F0B1FE286847460021D8F80C206430B7
:10E4F00008F09FFE002002F0DDFD06EBC000C846DC
:10E50000404507DB002002F0D5FD06EBC00090FB84
:10E51000F4F000E0012002B228680021643008F025
:10E5200042FE002002F0C6FD06EBC000404507DBBE
:10E53000002002F0BFFD06EBC00090FBF4F000E00D
:10E54000012002B228680021643008F077FE002024
:10E5500002F0B0FD00EBC00101EB0010C1465030ED
:10E5600048450ADB002002F0A5FD00EBC00101EBED
:10E570000010503090FBF4F000E0012002B2286857
:10E580000021643008F064FE2868683008F0CEFD91
:10E59000DFF8FC8097F82000DFF8F8A0D8F8142006
:10E5A000800703D5504602F02DFB02462868002163
:10E5B000683008F0EEFD002002F07CFD06EBC000A4
:10E5C000484507DB002002F075FD06EBC00090FB1C
:10E5D000F4F000E0012002B228680021683008F061
:10E5E000E2FD2868FF220021683008F0AEFD97F8B0
:10E5F0002000D8F81820800703D5504602F002FB0F
:10E60000024628680021683008F09AFD28685A46BA
:10E610000021683008F008FE002002F04BFDC0EB3E
:10E62000001006EB40004F46B84209DB002002F024
:10E6300041FDC0EB001006EB400090FBF4F000E061
:10E64000012002B228680021683008F010FE002086
:10E6500002F030FD00EB800006EB4000B84209DB21
:10E66000002002F027FD00EB800006EB400090FB4D
:10E67000F4F000E0012002B22868BDE8F05F00215C
:10E68000683008F0B8BD00006C020020108900203E
:10E69000B83D02085B4B460070B504464068410631
:10E6A00006D5C0F3C0112046BDE8704008F0FCBCA0
:10E6B000042006F0A7F8054602F0F6FB68B195B114
:10E6C000284608F07BFC29462046FAF733F86068B4
:10E6D00040F040006060284670BD2A46002303A039
:10E6E00002F0E6FBFEE7002070BD00004F757420CD
:10E6F0006F66206D656D6F727900000030B5092A74
:10E7000010D2DFE802F00F0507090B0F0F0F0D0005
:10E7100001230BE0032309E0072307E00F2305E0B3
:10E72000FF2303E0012393405B1EDBB2CC0801F022
:10E7300007018D18082D08D30519005D6D78C1F10A
:10E74000100105EB002080B202E0005DC1F108017C
:10E75000891AC840184030BD10B5002809D00446B9
:10E7600006F030FE20B11CB1204606F09BFFF6E714
:10E77000204610BD2DE9FC470F0006D004696069F2
:10E78000B84204D1A069BDE8FC870020FBE7618A9C
:10E7900000200426C1F308050CE0A16800EB80030B
:10E7A00051F8232006EB8303C95ABA1A914207D2C3
:10E7B000401C80B28542F0D80020C4E90570E4E72F
:10E7C00000EB80051220A16800EB85000026085CA4
:10E7D0004FF0060902280CD04FF00C0A70B1DFF898
:10E7E000A4C008234FF0100803280FD0012826D01A
:10E7F00043E009EB8500085A86183EE00AEB8500E5
:10E8000009EB85030858C95A805C35E008EB8500A0
:10E81000ADF80420CDF800C00A5A03EB85080223A6
:10E8200051F8081001A8FAF732FC30B3A16851F88A
:10E830000820801A09EB85024010895A1CE008EB79
:10E840008500ADF80420CDF800C00A5A03EB850816
:10E85000022351F8081001A8FAF719FC68B1A16861
:10E8600009EB850351F80820801A0AEB8502401055
:10E870008A58C95A32F810000E18C4E90576304695
:10E8800081E70000B1A201087CB503690069002599
:10E890005B8AC4689B04A0682AD4830F16D0012326
:10E8A000B3EB907F30D101EB02402668019017480E
:10E8B0000090A068042320F04042314601A8FAF7F6
:10E8C000E6FB08B3801B801061681CE001EB0221AD
:10E8D0002668ADF804100E4920F040420091022352
:10E8E000314601A8FAF7D3FB70B1801B4010EBE76B
:10E8F0006368805C595C39B130B1637B2268491E22
:10E9000011FB0321401E0D5628467CBD6DFC0008FE
:10E9100081FC000800F00F00092801D30C2801D267
:10E92000042070470E2801D203207047062070474C
:10E930002DE9F05F026883464FF0FF30002A13D0C4
:10E940000F0A01F0FF0A05468046002407F07F0900
:10E9500018E0564512D12146584600F028F800F03C
:10E960007F01494502D12046BDE8F09FB8434006EB
:10E9700004D1A94202DD0D460FFA84F83046FFF7B4
:10E98000C9FF04442146584600F016F80646FF2801
:10E99000DFD14046E8E708B50068425C491C8DF8C5
:10E9A0000020405C8DF80100BDF8000008BD10B5E6
:10E9B000FFF7F1FF000A10BD10B5FFF7ECFFC0B282
:10E9C00010BD2DE9FE4791469A4600200B9A49E07A
:10E9D00001EB4007C2F1FF043B88ADF8043009EBBE
:10E9E00040031B88ADF808309DB2BDF80430EE0A34
:10E9F00066434FEAD32C0CFB0266803606EBC61C3E
:10EA00000CEBC636C6F3C45CBDF80060C3F3451812
:10EA10006CF3CF26C5F3451C0CFB04FC05F01F0569
:10EA2000654303F01F0308FB02CC03FB02530CF108
:10EA3000800C80330CEBCC1808EBCC3C03EBC314FC
:10EA4000CCF3C55C04EBC3336CF34A16C3F3C45375
:10EA500063F30406ADF80060B3B20093BDF8003074
:10EA60003B80401C5045B3D3BDE8FE8770B5B3F979
:10EA7000024014FB02F001EB4001BDF810500DE024
:10EA8000B3F9000003E001EB4006401C3580B3F908
:10EA900004608642F7DA01EB4201641CB3F9060018
:10EAA000A042EDDA70BD7CB5B0F9085015FB01F35A
:10EAB0001B129A4201DC40887CBDB0F90A4014FB6D
:10EAC00001F63612B24201DB40687CBD641B614333
:10EAD0000C12D11A09B2C1EB012191FBF4F1838828
:10EAE0004088C9B2ADF8040082B2D00AC1F1FF0477
:10EAF00010FB04F09BB2DD0A15FB0100803000EB37
:10EB0000C01505EBC030BDF80050C0F3C45060F331
:10EB1000CF25C2F3451010FB04F0C3F3451616FBD6
:10EB20000100803000EBC01606EBC030C0F3C550CA
:10EB300060F34A1502F01F0010FB04F003F01F02FF
:10EB400012FB0100803000EBC01101EBC030C0F3BC
:10EB5000C45060F30405ADF80050A8B20090BDF8B1
:10EB600000007CBD01460020A1F13002092A01D835
:10EB7000D0B27047612901D32039C9B24139062981
:10EB8000F7D2DFE801F0030507090B0D0A207047F3
:10EB90000B2070470C2070470D2070470E207047E7
:10EBA0000F2070472DE9F0410446C06D0D46002846
:10EBB0002CD0A968022204F11C0830F9217002EB64
:10EBC0008101465EA97B01290AD1B4F92400B8422B
:10EBD00003D1B4F92600B04202D0404600F04EFF07
:10EBE000404601F009F8002810D127846684A87BEC
:10EBF000012840460CD000F041FF404600F0FCFFE9
:10EC0000002803D1208CA084608CE084BDE8F081D2
:10EC100000F0E4FDF1E7000070B53D4D04462868C2
:10EC200006F0F6FC06462021286807F037FA00288F
:10EC300032D1206AB0422FD0304606F0FDFC0546A6
:10EC4000206A08B106F0F8FC854226D11DB1304695
:10EC500003F08EFF1AE0206AD0B30022172108F0DB
:10EC60008DF9204600F0C8FF002815D100220E21A2
:10EC7000206A03F035FD204600F0BEFF00280BD1CE
:10EC800026E000220D21304603F02AFD204600F048
:10EC9000B3FF002800D1266270BD20B3236AABB158
:10ECA0004FF0000248B31521184608F067F92046D6
:10ECB00000F0A2FF0028EFD100220F21206A03F00C
:10ECC0000FFD204600F098FF0028E5D1002DBED1B1
:10ECD00000221621304608F051F9204600F08CFF42
:10ECE0000028D9D1CDE7206A0028EFD000221721D3
:10ECF00005E000220E21206AE1E71721184608F0FE
:10ED00003DF9204600F078FF0028F2D070BD0000E9
:10ED1000900100202DE9FE4F04468069FFF71CFD9D
:10ED20005FEA00084FF00009404677D006F01AFB72
:10ED3000002873D0404606F02DFB94F82AC0054603
:10ED4000DFF880A25FEACC703FD1208AA18900233E
:10ED5000084401B22182608AE289012D104400B288
:10ED600060821A4601D0032D00D10123022D01D06B
:10ED7000032D00D10122042D0CD1002901DD0E4606
:10ED800000E04E42002801DD074600E04742BE4257
:10ED900001DC01223BB1002900DC4942DAF80430F1
:10EDA0001B7D994209DA002A38D0002800DC404255
:10EDB000DAF80410097D884230DB4CF0010084F859
:10EDC0002A004FF00109C00728D0A08910B9E089B6
:10EDD000002823D0B8F910000290B8F912B04046CC
:10EDE00006F060FC06F0D0FD0190404606F05AFCAB
:10EDF00006F032FC0090404606F0DAFD0746404639
:10EE000006F0F6FD0646032D09D04FF0000C012D4B
:10EE100016D0022D24D0042D32D082E0D0E0B9F1FA
:10EE2000000F59D094F82A0020F01C000C3084F810
:10EE30002A00208A384407B2608A304406B24BE088
:10EE4000B9F1000F48D094F82A0020F01C00001DF2
:10EE500084F82A00A4F812C0208A384407B23BE0A4
:10EE6000B9F1000F5AD094F82A0020F01C000830A5
:10EE700084F82A00A4F810C0608A304406B24DE03D
:10EE8000B9F1000F1AD0B4F91010002901DD0A46BB
:10EE900000E04A42B4F91200002801DD034600E018
:10EEA00043429A4222DD94F82A0020F01C00001D03
:10EEB00084F82A00C819A4F812C007B2B4F91010D7
:10EEC000002902DCB4F910004142B4F91200002814
:10EED00000DC4042814215DDA089022D384407B292
:10EEE0001CD0032D1AD0042D0CD01AE094F82A104F
:10EEF000304421F01C01083184F82A10A4F810C015
:10EF000006B2DFE7B4F91010002900DC4942B4F979
:10EF10001200002800DC4042814202DAE0893044DD
:10EF200006B2DAF804005546C06802F0E1F88246FD
:10EF300032463946404607F05DFA94F82A0040F020
:10EF4000020084F82A00B8F91010029881421FD1FB
:10EF5000B8F9121059451BD1404606F0A3FB06F044
:10EF600013FD0646404606F09DFB06F075FB019931
:10EF70008E420DD1009988420AD16868C06802F0BB
:10EF8000B7F8A0EB0A0081B26868C068F7F78EFF97
:10EF9000B9F1000F14D0D8F81C30404611216A682E
:10EFA0009847204600F028FE002809D100220821B9
:10EFB000404603F095FB2046BDE8FE4F00F01CBE26
:10EFC000BDE8FE8F900100202DE9FF41044690F836
:10EFD0002A0080077ED5E069FFF7BEFB060079D0E6
:10EFE00006F0F6F9594FE0B1304606F0D3F97A68E9
:10EFF0000546A08A517DC1F1640110FB01F0642136
:10F0000090FBF1F000B2A08292F815C0E38ACCF137
:10F01000640C13FB0CF393FBF1F109B2E182D0B95C
:10F0200017E094F82A00132120F0020084F82A0047
:10F03000F36930467A689847204600F0DDFD0028E5
:10F0400068D104B03046BDE8F0410022092103F048
:10F0500047BB002960D06946304606F037F9304694
:10F0600006F0A6FCA18A08440FFA80F8304606F0A4
:10F07000BFFCE18A032D084401B206D0012D0CD05B
:10F08000022D0FD0042D06D00FE00A46414630462F
:10F0900007F0B0F909E0208A20B14146304607F078
:10F0A00073FB02E0304607F08DFB02A9304606F004
:10F0B0000DF9BDF90000BDF90810884202D0A08A00
:10F0C000002827D1BDF90200BDF90A10884204D0FA
:10F0D000E08A00E01EE000281CD194F82A0020F00D
:10F0E000020084F82A000020A081E081A082E08252
:10F0F000F369132130467A689847204600F07CFD7A
:10F10000002807D100220921304603F0E9FA204601
:10F1100000F072FDBDE8FF8194F82A00132120F071
:10F12000020084F82A00F36930469847204600F030
:10F1300063FD0028EED100220921304603F0D0FA09
:10F1400004B02046BDE8F04100F056BD900100201B
:10F150002DE9F84F0C460546897B90F850000027B2
:10F1600001292BD0010706D520F00900AF6485F8EE
:10F17000500085F8207095F82080A07B85F820004D
:10F1800060686862D5F858905FEA09007ED003F0A5
:10F190004FFDCC4E0028306078D0A07B00B1A78115
:10F1A000484603F045FD306000286FD0A17B05F193
:10F1B0001C0A012905D0002969D03EE1000765D469
:10F1C000D9E7B8F1000F03D0B8F1010F39D034E11D
:10F1D00008F078FAA86461680A2909D0142922D0B5
:10F1E000132923D01B2925D0484603F07FFD24E1B5
:10F1F0008DF8007030686A461921C36998474846FF
:10F2000003F010FD9DF800108143D6D13068002234
:10F210000B21C3699847504600F0EEFC002835D119
:10F22000002211467AE0A089401E01E0A089401C1E
:10F23000A08102E11B21484603F058FD0022142161
:10F240006CE095F85000C00748D1A86C08F034FA7B
:10F25000298B884295F850003ED940F0010085F88E
:10F26000500008F02FFAE86460680A282ED18DF863
:10F27000007030686A461921C36998479DF80000FC
:10F2800080B14846F8F778FC012801E091E04EE0B3
:10F290001CD9484603F0C6FC80F00101484603F043
:10F2A00038FD13E0306800220F21C36998475046AB
:10F2B00000F0A2FC00287CD100220421306803F079
:10F2C0000FFA504600F098FC002872D115F8500F44
:10F2D00040F001002870B0E0C00727D0E86C08F0CB
:10F2E000EBF9698B884221D908F0ECF9E864616890
:10F2F0000A2907D0142996D0132997D0484603F03D
:10F30000F5FC0EE0306800221021C3699847504692
:10F3100000F072FC00284CD100220521306803F077
:10F32000DFF9504600F068FC002842D185E0B8F1D2
:10F33000010F76D161680A2979D18DF80070C3690F
:10F340006A46192198479DF8000098B399F814006F
:10F35000800795F850004FEAC07063D520B1484649
:10F36000F8F70AFC012862D8306800220E21C36930
:10F370009847504600F040FC002879D10022032134
:10F38000306803F0ADF9504600F036FC00286FD12C
:10F3900000220621306803F0A3F9504600F02CFC4F
:10F3A000002865D100220721306803F099F9504602
:10F3B00001E05DE008E000F01FFC002858D10A21C0
:10F3C000484603F093FC32E0306800220E21C36906
:10F3D0009847504600F010FC002849D195F850009D
:10F3E000C00704D100220321306803F079F95046A8
:10F3F00000F002FC00283BD100220621306803F017
:10F400006FF9504600F0F8FB002831D100220721A7
:10F41000306803F065F9504600F0EEFB002827D174
:10F4200005E00AE018B90121484603F072FC45F8EE
:10F43000487F287A20F0010028723760A0890028D0
:10F4400016D0484603F0EEFB0028B4F90C001ED09D
:10F4500000280FDA4FF0000505E04FF01401484690
:10F4600003F044FC6D1CB4F90C004042A842F4DCEB
:10F47000BDE8F88FFCDD002504E01321484603F0C9
:10F4800035FC6D1CB4F90C00A842F6DCF0E700284E
:10F490000CDA4FF0000503E0484603F0BBFB6D1C9F
:10F4A000B4F90C004042A842F6DCE1E7E0DD0025BB
:10F4B00003E0484603F054FB6D1CB4F90C00A8426D
:10F4C000F7DCD5E7900100202DE9F041044690F8E3
:10F4D0002A0080066DD4A56903E0284606F0E2F80C
:10F4E0000546002D65D0284606F0A1F80028F4D185
:10F4F000B4F90C00002801DD014600E041422E4A2B
:10F5000000265268937D994208DAB4F90E1000295A
:10F5100000DC4942994201DAE6842685E18C084400
:10F5200001B2E184208DE3890029184400B22085CE
:10F5300001DD0B4600E04B42D77DBB4206DC0028D4
:10F5400001DD034600E04342BB4232DD94F82A303D
:10F55000002943F0200384F82A3001DD0B4600E047
:10F560004B42002801DD074600E04742BB4205DD73
:10F57000002901DD032004E0022002E0002803DD71
:10F58000012084F8240001E084F82460EB69142150
:10F5900028469847204600F02FFB002809D100227A
:10F5A0000B21284603F09CF82046BDE8F04100F00E
:10F5B00023BBBDE8F0810000900100202DE9F04759
:10F5C0000D460446897B90F850000027012923D07E
:10F5D000010706D520F00900A76484F8500084F8DC
:10F5E0002070D4F858805FEA08007CD003F020FB3C
:10F5F000794E0028306076D0626A6968616294F85A
:10F600002010AB7B84F82030AB7B04F11C09012B6C
:10F6100005D0002B68D0DBE0000764D4E1E711B12E
:10F6200001293BD0D4E008F04DF8A06469680A29AC
:10F6300009D01B2918D0092920D00B2926D04046F3
:10F6400003F054FBC4E00A21404603F04FFB30684E
:10F6500000220B21C3699847484600F0CDFA0028E4
:10F6600041D10022114605E01B21404603F03EFB3C
:10F6700000221421306803F033F860E00021404696
:10F6800003F047FB404603F06BFA58E00021404688
:10F6900003F03FFB404603F0BDFA50E069680A29D9
:10F6A00012D10022C3690C219847484600F0A4FA01
:10F6B000002818D100220121306803F011F84846D3
:10F6C00000F09AFA00280ED194F85000C00723D118
:10F6D000A06C07F0F1FF218B884294F8500019D9F3
:10F6E00040F0010001E074E03CE084F850006868FC
:10F6F0000A286DD107F0E6FFE064306800220F2190
:10F70000C3699847484600F077FA002861D1002283
:10F710000421AFE7C0075BD0E06C07F0CDFF618B41
:10F72000884255D907F0CEFFE06469680A290CD0F9
:10F730000929A3D00B29A9D0404603F0D7FA48469F
:10F7400000F05AFA002844D142E03068002210212B
:10F75000C3699847484600F04FFA002839D1002283
:10F76000052187E7012933D16A600A2A2AD10022BC
:10F77000C3690E219847484600F03EFA002828D178
:10F7800094F85000C00709D100220321306802F02C
:10F79000A7FF484600F030FA00281AD100220621BF
:10F7A000306802F09DFF484600F026FA002810D18C
:10F7B00000220721306802F093FF484600F01CFA4F
:10F7C000002806D144F8487F207A20F001002072FA
:10F7D0003760BDE8F0870000900100202DE9F0417E
:10F7E000A54D04468069286094F8341009077DD43B
:10F7F00069680026CF6838B194F82A10890721D4A7
:10F80000102106F04BFCE8B9384601F076FC211DCA
:10F8100004F074FF286070B9384601F076FC211DB1
:10F8200004F06CFF286030B9384601F081FC211DDE
:10F8300004F064FF2860E06920B1A682E6822046D9
:10F84000FFF7C2FBA7692868874268D0A08820819B
:10F85000E08860819FB1FB690D2138466A6898474E
:10F86000204600F0C9F9002840D100220221384684
:10F8700002F036FF204600F0BFF9002836D1286894
:10F88000A061E06198B307F01DFFE06294F83400D6
:10F8900020F0010084F8340094F82A00268220F039
:10F8A0001F000C30668220F0200084F82A00E684D5
:10F8B0002685A681E6810026286806E090F83410A7
:10F8C000890600D5064605F0EDFE0028F6D116B1F2
:10F8D000304606F0FDFB28680B216A68C36998472B
:10F8E000204600F089F9002800D101E088E016E008
:10F8F00000221146286802F0F3FE204600F07CF951
:10F9000000287DD1686890F85010090778D41C3021
:10F91000FFF782F9204600F06FF9002870D1A08827
:10F920002189401A03B2A381E0886189401A02B29A
:10F93000E281B4F9140000EB800040F3CF01A18212
:10F94000B4F91600002900EB800040F3CF00E082FC
:10F9500002DA01F1010102E002DDA1F10101A1825F
:10F96000002802DA00F1010002E002DDA0F101004E
:10F97000E082A08A00EB6300A082E08A00EB6200D4
:10F98000E0822868002875D0C3694FF00C016A68CE
:10F990009847204600F030F900286BD10022012161
:10F9A000286802F09DFE204600F026F9002861D16B
:10F9B000686890F8500000075CD42046FFF7AAF969
:10F9C0002046FFF781FD204600F016F9002851D1AE
:10F9D00094F82A0080074DD494F83400C0072CD145
:10F9E000E06A07F069FE6A68118B88421DD92868B1
:10F9F0000F21C3699847204600F0FEF8002800E078
:10FA000038E037D100220421286802F069FE204640
:10FA100000F0F2F800282DD194F8340040F00100F5
:10FA200084F8340007F04EFE206394F82A00800723
:10FA300020D494F83400C0071CD0206B07F03CFEA3
:10FA40006A68518B884215D928681021C369984784
:10FA5000204600F0D1F800280CD1002205212868AA
:10FA600002F03EFE204600F0C7F8002802D107F061
:10FA700029FE2063BDE8F0819001002070B50446A6
:10FA800090F834004FF00006010707D5A661E66143
:10FA9000E66220F00800266384F83400454DA06932
:10FAA0002860002876D0102106F0F8FA002828688F
:10FAB0006A684FF00E01C36918D09847204600F0DD
:10FAC0009BF8002875D194F82A00800734D494F864
:10FAD0003400C00726D100220321286802F000FE6E
:10FAE000204600F089F8002863D11BE098472046A3
:10FAF00000F082F800285CD194F83400C0070DD1E2
:10FB000094F82A00800717D400220321286802F005
:10FB1000E7FD204600F070F800284AD194F82A004A
:10FB2000800709D400220621286802F0D9FD20466A
:10FB300000F062F800283CD100220721286802F07A
:10FB4000CFFD204600F058F8002832D12868FEF793
:10FB500003FE05001BD005F03BFCC0B194F82A0061
:10FB6000800714D5EB691BB1002212212846984763
:10FB7000204600F041F800281BD100220A21284627
:10FB800002F0AEFD204600F037F8002811D1A66142
:10FB9000E6622663E06900280BD094F83400800701
:10FBA00007D42046FFF710FA2046BDE8704000F069
:10FBB00023B870BD9001002090F85020910717D510
:10FBC00000214163816390F846308164C16420F86C
:10FBD0002C1F23F01F0341800C3383768180C1806A
:10FBE000C182018322F0030280F8242001480160D1
:10FBF000704700009001002090F83400810702D582
:10FC0000024A00211160C0F34000704790010020BB
:10FC100070B50546104608F0FFFF002825D00024E7
:10FC20002146284605F0F1FD38B14168641C21F4F5
:10FC30008061E4B24160402CF2D340242146284642
:10FC400005F0E3FD38B14168641C21F48061E4B241
:10FC50004160FF2CF2D3002102E00AF0B1FC214602
:10FC6000284605F0FBFA0400F7D170BD03880A8826
:10FC7000934201D0981A704740884988401A7047CB
:10FC800003780A78934201D0981A704740784978EF
:10FC9000401A7047F8B55E4D28686C3007F046FA98
:10FCA0002868002211466C3007F0BEFA002001F0EF
:10FCB00001FA502606EB8000B700A024B84207DB0B
:10FCC000002001F0F7F906EB800090FBF4F000E073
:10FCD000012002B2286800216C3007F04AFA286837
:10FCE000022200216C3007F03FFA4A4E002296F8BB
:10FCF0002000800703D5484800F084FF02462868AA
:10FD000000216C3007F026FAF089ADF80000286871
:10FD10000421009A6C3007F01DFA002001F0CAF9A6
:10FD200000EB80005030B84208DB002001F0C2F93F
:10FD300000EB8000503090FBF4F000E0012002B2B4
:10FD4000286800216C3007F05BFA002001F0B2F95E
:10FD500000EB80005030B84208DB002001F0AAF927
:10FD600000EB8000503090FBF4F000E0012002B284
:10FD7000286800216C3007F048FA002001F09AF959
:10FD800000EB80005030B84208DB002001F092F90F
:10FD900000EB8000503090FBF4F000E0012002B254
:10FDA000286800216C3007F035FA002001F082F954
:10FDB00000EB80005030B84208DB002001F07AF9F7
:10FDC00000EB8000503090FBF4F000E0012002B224
:10FDD000286800216C3007F009FA002001F06AF968
:10FDE00000EB40005030B84208DB002001F062F91F
:10FDF00000EB4000503090FBF4F000E0012002B234
:10FE00002868BDE8F84000216C3007F0F4B9000024
:10FE10006C02002010890020423E3B002DE9F04199
:10FE2000354C2068703007F081F92068FF220021EE
:10FE3000703007F08AF9314D20680021EA6870308F
:10FE400007F07EF9206802220021703007F091F956
:10FE500020687F220021703007F081F94C21E8688A
:10FE600000F0F4FE024620680021703007F072F9BD
:10FE7000206847F6FF720021703007F0D5F90020A6
:10FE800001F018F9C0EB00104FF4A077A026503015
:10FE9000B84208DB002001F00DF9C0EB0010503033
:10FEA00090FBF6F000E0012002B2206800217030E3
:10FEB00007F0D8F920680021EA68703007F0CDF922
:10FEC00024680020703401F0F5F800EB8000503019
:10FED000B84208DB002001F0EDF800EB8000503064
:10FEE00090FBF6F000E0012002B22046BDE8F041B0
:10FEF0005321F8F76BBE00006C020020108900202F
:10FF00002DE9F0478046089D1F46E86900FB01F394
:10FF10009B12002806DD934206DD95F82800800735
:10FF20000ED48AE09342F8DBCB1943439C121302B0
:10FF3000002808DD944237DA95F8280080077CD441
:10FF40000120BDE8F0879442F6DCA86903F58073D0
:10FF5000434398120212C0B2FF23002826D06E6AD3
:10FF6000C0F1FF0404FB06F4A3EB2426A2EB01047A
:10FF7000A14636D0002C15DBBC4213DAC0F1FF00DD
:10FF8000C6F1FF014843A3EB6020C1B295F82800F9
:10FF9000800701D5C1F1FF0118F8040007F0F4FF54
:10FFA00008F80400641C1CE0A869D1E74FF0FF06C4
:10FFB000DCE7002C10DBBC420EDAA6EB6000C1B21D
:10FFC00095F82800800701D5C1F1FF0118F8040059
:10FFD00007F0DAFF08F80400686A641C361ABC42AD
:10FFE00002DA686AB042E4DBBC4218DA002C16DBA5
:10FFF000A869704380127043C0F34721E869002864
:020000040801F1
:1000000001DAC1F1FF0195F82800800701D5C1F19F
:10001000FF0118F8040007F0B7FF08F8040095F88E
:100020002800800707D54946B94506DC00290DDBC5
:10003000404609E001E0641C01D5002081E7BC4294
:1000400004DC391B08EB0400F8F774F8022078E7A9
:100050002DE9F05F89460A9F06461D46B96901FBF6
:1000600002F4A012002900DD401C97F82830484512
:1000700002DA980707D4D5E0A01209EB0504844200
:1000800002DA98077ED483E0120202FB01F002F547
:1000900080724A43801294124FEA2028221204F000
:1000A000FF0CC0B2A8EB0904904505D0002903DA83
:1000B00010B9FF209046641E904526D1002C0BDB22
:1000C000AC4209DA60444108980701D5C1F1FF014B
:1000D000305D07F059FF305597F82800641C800701
:1000E00006D5A8EB0901A9424CDA8DE0304609E0BB
:1000F000AC4200DD2C46002C44D005DDA5EB04010C
:1001000006EB0400F8F716F889E04FF0FF0B002922
:1001100044DAF969494241434FEAA12A002C0DDB38
:10012000AC420BDA0AFB00F1C1F34721980701D575
:10013000C1F1FF01305D07F027FF3055B969AAF121
:10014000FF0041438812641E11D4AC420FDACAF199
:10015000FF014143ABEB6120C1B297F82800800753
:1001600001D5C1F1FF01305D07F00EFF305597F862
:100170002800A41C800709D5A8EB0901491EA94243
:100180004DDC00E04EE00029B0DC48E0AC4202DD8E
:100190000120BDE8F09F002CB0DA40E0F969C0F121
:1001A000FF0041434FEAA12A002C0EDBAC420CDADF
:1001B00000FB0AF0ABEB6020C1B2980701D5C1F19A
:1001C000FF01305D07F0E0FE3055B969CAF1FF006C
:1001D00041438912641C0ED4AC420CDA4843C0F38C
:1001E000472197F82800800701D5C1F1FF01305D54
:1001F00007F0CAFE305597F82800641C800707D521
:10020000A8EB0901A9420DDC0029BFF66FAF06E09B
:10021000AC4200DD2C46002C04D03FF76FAF4FF00E
:100220000200B6E74FF00000B3E700002DE9F0410F
:100230006F4E3068743006F079FF306847F6FF7211
:100240000021743006F0F0FF002000F033FF50254D
:1002500000EB800005EB8000AF00A024B84209DB72
:10026000002000F027FF00EB800005EB800090FBF2
:10027000F4F000E0012002B230680021743006F092
:10028000BFFF002000F016FF00EB800005EB8000B0
:10029000B84209DB002000F00DFF00EB800005EB09
:1002A000800090FBF4F000E0012002B230680021F1
:1002B000743006F0AAFF002000F0FCFE00EB800086
:1002C00005EB8000B84209DB002000F0F3FE00EBF4
:1002D000800005EB800090FBF4F000E0012002B20A
:1002E00030680021743006F095FF002000F0E2FE37
:1002F000C0EB001005EB4000B84209DB002000F025
:10030000D9FEC0EB001005EB400090FBF4F000E0DC
:10031000012002B230680021743006F06CFF00202A
:1003200000F0C8FE00EBC00101EB0010B8465030F1
:1003300040450ADB002000F0BDFE00EBC00101EBF0
:100340000010503090FBF4F000E0012002B2306861
:100350000021743006F07CFF264F30680021FA68D7
:10036000743006F016FF30680021FA68743006F029
:100370006AFF40F6880000F051FC02463068002118
:10038000743006F056FF002000F094FE00EB800071
:1003900005EB40004746B84209DB002000F08AFE2A
:1003A00000EB800005EB400090FBF4F000E0012042
:1003B00002B230680021743006F0F5FE002000F033
:1003C00079FEC0EBC0005030B84208DB002000F0DE
:1003D00071FEC0EBC000503090FBF4F000E0012053
:1003E00002B23068BDE8F0410021743006F026BF4B
:1003F0006C020020108900202DE9F843FA4F38687C
:10040000783006F093FE386801220021783006F03B
:10041000B5FE386800221146783006F0F1FE3868E3
:1004200000221146783006F0F0FE386800221146AE
:10043000783006F0EFFE386800221146783006F07A
:10044000D5FE386800221146783006F0D4FE3868B0
:100450007C3006F06BFE3868FF2200217C3006F00D
:1004600074FEE24CE24D6FF07F4994F82000800763
:1004700001D5484600E0284600F0C4FB0246386833
:1004800000217C3006F05CFE94F82000800701D546
:10049000D84800E0D84800F0B5FB02463868102183
:1004A0007C3006F04DFE94F82000800701D54846C8
:1004B00000E0284600F0A6FB0246386820217C3088
:1004C00006F03EFE38680121E2687C3006F038FE16
:1004D0003321E06800F04FFB0246386811217C3080
:1004E00006F02EFE94F82000C44E800701D5304659
:1004F00000E0484600F086FB0246386800217C3068
:1005000006F0BAFE484600F07DFB0246386801213D
:100510007C3006F0B1FE94F8200040F6AA25800752
:1005200040F6991801D5284600E0404600F076FBD9
:100530000246386820217C3006F09EFE94F82000A8
:10054000800701D5304600E0484600F05BFB0246DC
:10055000386800217C3006F016FE484600F052FB59
:100560000246386801217C3006F00DFE94F8200028
:10057000800701D5284600E0404600F04FFB0246C8
:10058000386820217C3006F0FEFD38680122002109
:100590007C3006F0E9FD94F82000800701D59848EA
:1005A00000E0984800F02EFB0246386800217C30BD
:1005B00006F0D0FD38680221E2687C3006F0CAFD02
:1005C0003868012200217C3006F0D3FDE089ADF8C7
:1005D000000038680221009A7C3006F0F3FD94F8A0
:1005E00020004FF4A07580064FF0A0044FF0500695
:1005F0004FF000000ED400F05DFD06EB4000A84275
:1006000007DB002000F056FD06EB400090FBF4F005
:1006100000E0012002B2386802217C3006F0E1FDE2
:10062000002000F047FD06EB4000A84207DB002059
:1006300000F040FD06EB400090FBF4F000E00120EC
:10064000404202B2386802217C3006F0C5FD00202D
:1006500000F07EFD01284FF000000DD800F02AFDCB
:10066000C0EB00105030A84218DB002000F022FD43
:10067000C0EB001050300EE000F01CFDC0EB00108D
:1006800006EB4000A84209DB002000F013FDC0EBA0
:10069000001006EB400090FBF4F000E0012002B2F5
:1006A000386800217C3006F0ABFD002000F050FDE2
:1006B00001284FF000000DD800F0FCFCC0EB00104A
:1006C0005030A84218DB002000F0F4FCC0EB001012
:1006D00050300EE000F0EEFCC0EB001006EB4000E6
:1006E000A84209DB002000F0E5FCC0EB001006EB9F
:1006F000400090FBF4F000E0012002B238680021D5
:100700007C3006F082FD002000F022FD01284FF031
:1007100000000DD800F0CEFCC0EB00105030A84215
:1007200018DB002000F0C6FCC0EB001050300EE0DB
:1007300000F0C0FCC0EB001006EB4000A84209DB53
:10074000002000F0B7FCC0EB001006EB400090FB6F
:10075000F4F000E0012002B2386800217C3006F09D
:1007600059FD002000F0F4FC01284FF000000DD8E6
:1007700000F0A0FCC0EB00105030A84218DB0020B5
:1007800000F098FCC0EB001050300EE000F092FC3E
:10079000C0EB001006EB4000A84209DB002000F08F
:1007A00089FCC0EB001006EB400090FBF4F000E089
:1007B000012002B2386800217C3006F017FD0020CD
:1007C00000F0C6FC01284FF000001DD800F072FCBC
:1007D000C0EB00105030A84228DB002000F06AFC7B
:1007E000C0EB001050301EE06C0200201089002089
:1007F00073625800EEEEEE00574F4900423E3B0058
:10080000E3DDD600978A800000F054FCC0EB0010B6
:1008100006EB4000A84209DB002000F04BFCC0EBD7
:10082000001006EB400090FBF4F000E0012002B263
:10083000386800217C3006F0DEFC002000F088FCE7
:1008400001284FF000000DD800F034FCC0EB001080
:100850005030A84218DB002000F02CFCC0EB001048
:1008600050300EE000F026FCC0EB001006EB40001C
:10087000A84209DB002000F01DFCC0EB001006EBD5
:10088000400090FBF4F000E00120404202B23868E2
:1008900000217C3006F0FCFC002000F00BFC06EB95
:1008A0004000A84207DB002000F004FC06EB4000FB
:1008B00090FBF4F000E00120404202B238681021C1
:1008C0007C3006F0E5FC002000F0F4FB06EB400075
:1008D000A84207DB002000F0EDFB06EB400090FB98
:1008E000F4F000E00120404202B2386801217C307F
:1008F00006F0CEFC002000F0DDFB06EB4000A84235
:1009000007DB002000F0D6FB06EB400090FBF4F084
:1009100000E00120404202B2386820217C3006F01D
:10092000B7FC002000F0C6FB06EB4000A84207DB46
:10093000002000F0BFFB06EB400090FBF4F000E06D
:100940000120404202B2386802217C3006F0A0FC4F
:100950003868002211467C3006F0AEFC3868292247
:1009600000217C3006F0A3FC3868BDE8F84304227F
:1009700000217C3006F096BC2DE9F04180460E4601
:1009800000271048F7F7F2F8044616E021460D4814
:10099000F7F700F92168054641450DD16068B0427E
:1009A00000D04EB921460748F7F7B5F9204603F0C5
:1009B0007FFFF8F71FFC01272C46002CE6D13846B4
:1009C000BDE8F081C007002070B505464421F7F767
:1009D000B1FB4FF4FA7068620020A86164200849F6
:1009E00005F110040422286211F8010B04F8010B30
:1009F000521EF9D10120288785F83A0070BD000009
:100A0000E43C0208D1E90902904202D14FF480602F
:100A100002E0920292FBF0F00A6A8969521A42439C
:100A200001EBA22000B2704770B54168054611B1D4
:100A30002868FFF7A1FF1748F7F734F920B106F04F
:100A400041FE1549401E48601248F7F7BCF80446BD
:100A500000F02AFAB8B1002C1BD0686AE86344227F
:100A600029462046F7F776FA94F83A00C00706D0F0
:100A7000626822B1206810B1218B09B29047BDE8AD
:100A80007040F8F7B7BB2246002304A000F010FA2C
:100A9000FEE770BDC0070020000200204F757420E3
:100AA0006F66206D656D6F72790000000822F7F7A0
:100AB000E4BA082211F8013B00F8013B521EF9D1BB
:100AC0007047082211F8013B00F8013B521EF9D192
:100AD0007047082211F8013B00F8013B521EF9D182
:100AE0007047C1884088081A401C00B27047C1880E
:100AF0004088081A401C00B27047B0F90410B0F9E1
:100B00000020891AB0F90620B0F90200101A401C22
:100B1000491C4843704781880088081A401C00B26D
:100B2000704781880088081A401C00B2704781888D
:100B30000088081A401C00B2704781880088081A93
:100B4000401C00B2704781880088081A401C00B21F
:100B5000704781880088081A401C00B2704710B5A1
:100B6000029C018042808380C48010BD4288491E5F
:100B70001144C180704708B503460A460020194653
:100B800000F01AF90090BDF8000008BD07B5810714
:100B9000BDF8043002D020F8023B521EBDF804100C
:100BA00001EB01410EE002C0103A02C040F8081B00
:100BB00040F8041C40F8101B40F80C1C40F8081CBE
:100BC00040F8041C102AEED802E020F8023B521E26
:100BD000002AFAD10EBD08B5020C010AC308BDF8FF
:100BE0000000890863F3040080B261F34A10D10861
:100BF00080B261F3CF20ADF8000080B20090BDF864
:100C0000000008BD08B5C2B2C0F30721C0F3074019
:100C100000F042F80090BDF8000008BD08B500F0F3
:100C20000F01024661F31F1200F0F001C0F303133D
:100C30001943F02303EA1013C0F30320184300F014
:100C40002BF80090BDF8000008BD000008B5034671
:100C500004480A461946006800F0AEF80090BDF856
:100C6000000008BDEC3C020808B5D308BDF8002020
:100C700063F30402ADF800208A08BDF8001062F3A7
:100C80004A11ADF80010C108BDF8000061F3CF2093
:100C9000ADF8000080B208BD08B5D308BDF800204B
:100CA00063F30402ADF800208A08BDF8001062F377
:100CB0004A11ADF80010C108BDF8000061F3CF2063
:100CC000ADF8000080B208BD78B589B2CB0AC2F198
:100CD000FF0413FB04F583B2D80A10FB02508030E6
:100CE00000EBC01505EBC030BDF80050C0F3C45098
:100CF00060F3CF25C1F3451010FB04F0C3F3451694
:100D000016FB0200803000EBC01606EBC030C0F3CB
:100D1000C55060F34A1501F01F0010FB04F003F00A
:100D20001F0111FB0200803000EBC01101EBC0304D
:100D3000C0F3C45060F30405ADF80050A8B278BD0C
:100D400078B589B2CB0AC2F1FF0413FB04F583B274
:100D5000D80A10FB0250803000EBC01505EBC03004
:100D6000BDF80050C0F3C45060F3CF25C1F3451067
:100D700010FB04F0C3F3451616FB0200803000EBB5
:100D8000C01606EBC030C0F3C55060F34A1501F041
:100D90001F0010FB04F003F01F0111FB0200803064
:100DA00000EBC01101EBC030C0F3C45060F3040588
:100DB000ADF80050A8B278BD78B589B2CB0AC2F1BF
:100DC000FF0413FB04F583B2D80A10FB02508030F5
:100DD00000EBC01505EBC030BDF80050C0F3C450A7
:100DE00060F3CF25C1F3451010FB04F0C3F34516A3
:100DF00016FB0200803000EBC01606EBC030C0F3DB
:100E0000C55060F34A1501F01F0010FB04F003F019
:100E10001F0111FB0200803000EBC01101EBC0305C
:100E2000C0F3C45060F30405ADF80050A8B278BD1B
:100E300078B589B2CB0AC2F1FF0413FB04F583B283
:100E4000D80A10FB0250803000EBC01505EBC03013
:100E5000BDF80050C0F3C45060F3CF25C1F3451076
:100E600010FB04F0C3F3451616FB0200803000EBC4
:100E7000C01606EBC030C0F3C55060F34A1501F050
:100E80001F0010FB04F003F01F0111FB0200803073
:100E900000EBC01101EBC030C0F3C45060F3040597
:100EA000ADF80050A8B278BD002800D001207047EE
:100EB000F0B5C1B014460746EFF756FC0546E628E4
:100EC00024D26E46024639463046F7F743F8701989
:100ED000202100F8011B282100F8011B302100F817
:100EE000021B782100F8011C094B07218A0024FA13
:100EF00002F202F00F02491E9A5C49B200F8012B7F
:100F00000029F3DA292101700021417041B0F0BDC0
:100F1000EE3C02082DE9F0410D461E4617460446F8
:100F20002421F7F707F9C4E90057C4E90256BDE8E0
:100F3000F081000038B504463421F7F7FBF80020B3
:100F4000F021E06021804FF4A07161806060094A67
:100F5000A16812680092BDF80020228621F00201EB
:100F6000642262F38B01A06241F00101E062A160A2
:100F7000606138BDDC3C0208F8B505463D48F6F72F
:100F800022FE04004FF0000713D04FF4C471F7F7AE
:100F9000D1F8342229462046F6F7DCFF4C2104F133
:100FA0003800F6F708FE344EC4F88471306858B142
:100FB0000BE0FFF779FF08B10020F8BD00221346CF
:100FC0002EA0FFF775FFFEE7346035682346032245
:100FD0001E212E48346006F07FF96063FFF764FF3E
:100FE000F0B3606B0028E8D02949D4F880010840AC
:100FF000C4E960072748002140680090BDF8000060
:10100000A4F85A00FF20E76584F860000846A7644A
:1010100003F0F4FD00216064084603F0EFFD0021B9
:101020002065084603F0EAFD60650021206D05F0AB
:1010300077F90021606D05F073F90021206D05F04E
:10104000AFF90021606D05F0ABF9606C04F092FF20
:101050003560606B06F06EFA204600F0B8F800E0EC
:1010600001E02046F8BD002304A0626BFFF720FFDB
:10107000FEE7000090070020F40100204F75742067
:101080006F66206D656D6F7279000000D16E00088B
:10109000FFFF00FCDC3C02084268002191614068CF
:1010A000C1617047406870470148006870470000A0
:1010B000F401002010B90448006818B10089C0F399
:1010C0008900704764207047F401002010B9074878
:1010D000006828B1017A890704D4B0F9000070478C
:1010E000F0207047B0F9020070470000F4010020C2
:1010F000D0F88001C0F30940704710B518B9FFF768
:10110000D3FF002800D0406D10BD10B518B9FFF70F
:10111000CBFF002800D0006D10BD000018B10146C3
:101120000248F6F737BD0148F6F720BD90070020CA
:1011300010B518B9FFF7B8FF002800D0406C10BDFB
:1011400010B518B9FFF7B0FF002800D0806C10BDB3
:1011500000B5020002D10F4802687AB11046FFF7CD
:10116000B5FF01461046FFF7A5FF01EB81014900DD
:10117000B1FBF0F01E2803D2002000BDF021F1E702
:10118000322801D2012000BD462801D2022000BD34
:10119000032000BDF401002010B90748006828B101
:1011A000017A890705D4B0F9020070474FF4A070A6
:1011B0007047B0F900007047F401002040680168F2
:1011C00019B1406808B1012070470020704700B590
:1011D00002460088518810FB01F31046FFF7EEFF2E
:1011E00028B15068C068984201D1012000BD00209C
:1011F00000BD000070B50C46054672B11878022893
:101200000DD9284602F04DFE002808D104A221463F
:101210002846BDE8704007F06BBB01A2F9E770BD3E
:101220004E6F0A646174610038B504461021F6F708
:1012300081FF00200090BDF80000A081FF202070F9
:10124000401C20810120E07338BD00002DE9FF4FD4
:10125000ADB0107B3A9E9846144602287DD9A0680E
:101260001A9098F80000002877D0DDE92D122AA8FE
:10127000F5F7DDFB002870D094F82100810703D436
:101280002D98FFF75AFC0FE0B4F90E10009147F6C5
:101290001842CDE90120B4F91030414604A8A268F3
:1012A000F7F734FEBDF910001A99B4F90E200025A5
:1012B000B1F908906F1E02EB090104912D9909887C
:1012C000ADF80C102D994A88ADF80E20B4F91C1019
:1012D0002791B4F91E100A44ADF80E20EEB1E1B921
:1012E0002D99B1F90210002917DAB3685A1A002AA9
:1012F00000DCCA1A04994FF48063494203EB4101B0
:101300008A4200DD37603168002906DB0D46BDF8F2
:101310000E10B2881144ADF80E1094F8211000910F
:10132000B4F91020249008EB0507034638461A99B3
:10133000F7F780FD47192AE00090B4F9102008EB78
:101340000700249B1A99F7F775FD3D464719BDF82C
:101350000E100498084400B200E08DE0ADF80E00D5
:101360008EB110F5806F0EDB306800280BDA356027
:101370002D98BDF90E10B0F90200081A70602D9872
:10138000B0F90200B06018F80500002874D02E985B
:10139000BDF90E10B0F902004944814294F82100D1
:1013A000CADB410714D50090B4F91030791B08EB63
:1013B00005001A9AF7F70AFE06462D98FFF7BDFBBF
:1013C000801BBDF80C1000EBD07001EB600012E048
:1013D000010712D50090B4F91030791B08EB050015
:1013E0001A9AF7F7F3FD06462D98FFF7A6FBBDF80E
:1013F0000C10801B0844ADF80C00207B2990D4E928
:1014000005A9CA4502D95046CA46814694F8220029
:10141000800717D01BA800F0EDFA2088ADF86C000B
:101420001A9890F90E0000B90120ADF86E00207BEB
:101430008DF8740094F823109DF8750061F3010095
:101440008DF875000020209005A801F013F9A08800
:10145000ADF81600BDF90C00269073E1BDF80C1034
:10146000279800260844ADF80C0008EB05002190F1
:101470001E96781B2890D2E069E1AAF57F424FF0D2
:10148000000BFF3A09D0A9F57F42FF3A05D0B14AD7
:1014900029184046126890478346AF4A1EA92198F2
:1014A000126890471F90AC4A1E9921981268084410
:1014B00000219047024694F82100C00710D01F98E1
:1014C000232802D0012E12D00AE026B1012E06D028
:1014D000022E0AD004E01E98012620909FE00026EC
:1014E00020682390022E53D054E0002697E0202855
:1014F0004DD11E992098081A072801D0208844E071
:10150000DDE9202010446946062210F8013B01F86D
:10151000013B521EF9D100208DF806009DF8010014
:10152000FDF720FB06469DF80000FDF71BFB06EBD0
:10153000001102919DF80300FDF714FB06469DF88B
:101540000200FDF70FFB06EB001B9DF80500FDF701
:1015500009FB06469DF80400FDF704FB06EB0012AC
:10156000D308BDF80820029963F30402ADF80820FF
:10157000BDF808004FEA9B0262F34A10C90880B226
:1015800061F3CF20ADF8080080B20226259046E036
:10159000259823901F991A9801F0CEF922904FF6C2
:1015A000FF70824521D081451FD0D3451DD3CB4547
:1015B0001BD2BDF80C00ADF80000BDF80E10ADF860
:1015C0000210228A02442298401E1044ADF8040002
:1015D000049805AA401E0844ADF8060068462E99F6
:1015E00001F01AF86088ADF88C0094F8231029985F
:1015F000CDE90101BDF88C00ADF8000003A81F9BE8
:101600001A9A2E9900F0CEF82298002807DDBDF82E
:101610000C00218A014422980844ADF80C00289956
:101620001E9881423FF629AF94F8220080071FD50B
:101630002698ADF80000A068BDF96E101BABB0F99C
:10164000080001EBD17100EBD070401000EB61009D
:10165000BDF80E100844BDF80C10ADF80410ADF83C
:101660000600ADF8020001A968462E9A00F0F9F8CC
:1016700094F82200C0071BD02698ADF80000A0689F
:10168000BDF80E101BAB028940891144091A1A9843
:1016900090F90D00081ABDF80C10ADF80410ADF863
:1016A0000600ADF8020001A968462E9A00F0D9F8AC
:1016B00094F82100009008EB0706B4F9102030469A
:1016C000249B1A99F7F7B6FB3D4647192D980088D9
:1016D000ADF80C0094F82100410713D50090B4F93F
:1016E0001030791B30461A9AF7F770FC06462D9891
:1016F000FFF723FA801BBDF80C1000EBD07001EB54
:10170000600011E0010711D50090B4F91030791B89
:1017100030461A9AF7F75AFC06462D98FFF70DFA4D
:10172000BDF80C10801B0844ADF80C00BDF80E107D
:10173000049808442E9900B2ADF80E00B1F90610D5
:10174000884204DC18F8050000287FF487AE31B029
:10175000BDE8F08F640200205C02002038B504462A
:101760002421F6F7E7FCFF20207300200090BDF84D
:10177000001021800949A1604FF6FF716161A161EC
:101780000090BDF800106180054949680091BDF8DE
:101790000010A18084F8200038BD0000E001002086
:1017A000980702082DE9F04788B09A46DDE91169EB
:1017B000174688460446022E4DD3FD2E00D9FF263B
:1017C000002F48D00023524604A9384601F064F89F
:1017D000002840D0BDF8140000283CD0BDF81210FD
:1017E000002938D0B4F90020BDF91630D518B7F962
:1017F0000820B7F90A30D21AB4F902301A44BDF9F8
:101800001830121AD41A4A19B8F900108A4222DB89
:10181000B8F90410A9421EDB0119B8F9020081428F
:1018200019DBB8F90600A04215DB5146384601F035
:1018300031F800280FD0397BCDE902698A07BDF85D
:101840004010ADF804100090434604AA21B228B21B
:1018500004D0FAF7FDFC08B0BDE8F087FAF7BAFB50
:10186000F9E72DE9F0439146B3F9022099B01C46FF
:101870000D460646002A7DD0207A02287AD9B6F98C
:101880000010B5F90000814205D1B6F90230B5F972
:101890000270BB426ED0814200DA084602EBD27180
:1018A000A0EB6100ADF85400B6F90000B5F90010E6
:1018B000B4F90220884200DC084602EBD27100EB4A
:1018C0006100ADF85800B6F90210B5F90200B4F99C
:1018D0000220814200DA084602EBD271A0EB6100DF
:1018E000ADF85600B6F90200B5F90220B4F90210BD
:1018F000904200DC104601EBD17100EB6100ADF8C5
:101900005A0015A94A460846F5F791F800286ED006
:10191000B6F90200B5F90210884206D1234615AA8D
:1019200029463046FAF754FE0EE0B6F90000B5F944
:1019300000102346884215AA2946304602D1FBF7FB
:1019400019F901E0FAF740FF607A010701D4400776
:101950004DD5684600F08EFE2088ADF8020047F6AF
:10196000FF70ADF80000207A8DF80C00B4F9020089
:10197000471000E03BE040F3000000F10108607A0E
:10198000400718D530886A46C01BADF85C007088E7
:10199000C01BADF85E003088C119A1EB0800ADF89E
:1019A00060007088C119A1EB0800ADF862004946DB
:1019B00017A800F031FE607A000718D528886A461B
:1019C000C01BADF85C006888C01BADF85E002888BD
:1019D000C119A1EB0800ADF860006888C119A1EB3E
:1019E0000800ADF86200494617A800F015FE19B0CE
:1019F000BDE8F08338B504460A21F6F79BFB0120C9
:101A00006080FF20207200200090BDF80000208040
:101A100038BD00002DE9FF4FABB017461D461AA890
:101A200008222C99F6F73FFBF6F7D0FD0646FFF7A4
:101A300039FB229010300490BDF868100088081A15
:101A4000ADF868000498BDF86A104088081AADF82F
:101A50006A000498BDF86C100088081AADF86C0094
:101A60000498BDF86E104088081AADF86E0000F0BA
:101A70009FFA059058B9688848B92889B0F5807FE1
:101A800005D1389818B9399808B9A87A18B1399891
:101A900078B103200EE0AA7B297801208DE80700A9
:101AA000DDE92B1000233A46F5F785F92FB0BDE8A4
:101AB000F08F022082462B98FFF739F820902B9860
:101AC000B0F902200498B0F90200101ABDF96A209A
:101AD000121A209842432B9802FB0A73B0F90010A7
:101AE0000498B0F90020881ABDF968100C1AFC4857
:101AF00004FB0A39406825908818ADF8700000246E
:101B00001AA8FFF714F8BDF87010401E0844ADF88D
:101B1000740004984188BDF86A000144ADF8721061
:101B2000ADF87610BDF86E10081A401C00B2249073
:101B30001AA8FEF7FCFF2390688818B92889B0F529
:101B4000807F01D0012000E000200599069001432C
:101B50003898014370D1A87A00286DD139980028AF
:101B60006AD03046FFF7B2FA06461AA8FEF7C5FF5C
:101B7000B04201D9304602E01AA8FEF7BEFF804607
:101B80004000F6F725F983464046F6F721F9074667
:101B9000002634E0484600210BE082783A552AB10D
:101BA0000278437802EB03222BF81420491C50449E
:101BB000641C239A9142F0DB209911FB0A991AA820
:101BC000FEF7B5FF0119414505D2BDF87600401C6E
:101BD000ADF8760012E0AA7B297802208DE8070094
:101BE0003B465A461CA92C98F5F7E5F8BDF8760057
:101BF000401CADF87200ADF876000024761C2498E5
