:020000040800F2
:10000000E0060020D501000887100008C90F00088D
:100010008510000809050008A11100080000000073
:100020000000000000000000000000008B1000082D
:100030000B05000800000000891000088D10000862
:10004000EF010008EF010008EF010008EF010008D0
:10005000EF010008EF010008EF010008EF010008C0
:10006000EF010008EF010008EF010008EF010008B0
:10007000EF010008EF010008EF010008EF010008A0
:10008000EF010008EF010008EF010008EF01000890
:10009000EF010008EF010008EF010008EF01000880
:1000A000EF010008EF010008EF010008EF01000870
:1000B000EF010008EF010008EF010008EF01000860
:1000C000EF010008EF010008EF010008EF01000850
:1000D000EF010008EF010008EF010008EF01000840
:1000E000EF010008EF010008EF010008EF01000830
:1000F000EF010008EF010008EF010008EF01000820
:10010000EF010008EF010008EF010008EF0100080F
:10011000EF010008EF010008F1100008EF010008EE
:10012000EF010008EF010008EF010008EF010008EF
:1001300000F002F800F03EF80AA090E8000C8244BB
:100140008344AAF10107DA4501D100F033F8AFF298
:10015000090EBAE80F0013F0010F18BFFB1A43F0A5
:1001600001031847B4130000D4130000103A24BF51
:1001700078C878C1FAD8520724BF30C830C144BF0C
:1001800004680C607047000000230024002500264E
:10019000103A28BF78C1FBD8520728BF30C148BFEA
:1001A0000B6070471FB59DE8030000F0CFF81FBD3E
:1001B00010B510BD00F026F91146FFF7F3FF01F06E
:1001C00041F900F044F903B4FFF7F2FF03BC00F07B
:1001D00075F900000948804709480047FEE7FEE737
:1001E000FEE7FEE7FEE7FEE7FEE7FEE7FEE7FEE7E7
:1001F00004480549054A064B70470000EF10000807
:1002000031010008E0000020E0060020E0020020AC
:10021000E002002070B5064600F07CF8056806F1A3
:100220000B0020F00704B4429CBF002070BD2B4699
:100230006A68BAB11068A04210D304F1080188427C
:100240003CBF5068586007D351681019416011686D
:10025000091B016058601460101D70BD1346526880
:10026000002AE7D12146284600F05CF80028DED1BC
:1002700070BD70B50446051F00F04CF80068002CF6
:1002800014BF446870BD002C18BFAC423CBF204670
:100290006468F8D301680A18AA4218BF456003D100
:1002A0002A6805461144016028684119A1421CBF13
:1002B0006C6070BD6168696021680844286070BD29
:1002C0004FF0000200B5134694469646203922BFEF
:1002D000A0E80C50A0E80C50B1F12001BFF4F7AF3A
:1002E000090728BFA0E80C5048BF0CC05DF804EB1C
:1002F000890028BF40F8042B08BF704748BF20F88A
:10030000022B11F0804F18BF00F8012B7047704787
:10031000704770470048704788000020704770475A
:100320007047704738B504460A4600206946AFF367
:100330000080002808BF38BD02460099204600F022
:100340003FF8012038BD012000F054B8F8B5AFF3F4
:100350000080054600200C46102000BF0646A81964
:10036000A0420DD9324669460020AFF30080070055
:1003700008BF00F03FF80098A04218BF0546C41916
:10038000FFF7C8FF05600746F01D20F0070046197B
:10039000284600F00AF8B44208BFF8BDA21B314657
:1003A0003868BDE8F84000F00BB800210160C0E9F2
:1003B00001107047102070470048704780000020EF
:1003C000034640688C46002818BF88423CBF03465D
:1003D0004068F8D318681844884207D00CF103002D
:1003E00020F00700001D411A521A0146081D0A603C
:1003F000FFF73FBF10B500F039F8BDE8104000F03E
:100400002FB870477546FFF7D7FFAE46050069461F
:10041000534620F00700854618B020B5FFF7E8FEE8
:10042000BDE820404FF000064FF000074FF00008F5
:100430004FF0000B21F00701AC46ACE8C009ACE876
:10044000C009ACE8C009ACE8C0098D46704710B5DA
:100450000446AFF300802046BDE81040FFF7B3BE6E
:10046000002801D000F02AB87047000010B501281C
:1004700005D0002103A000F027F8012010BD09A13C
:10048000F8E7000053494752544D454D3A204F7507
:1004900074206F662068656170206D656D6F72797C
:1004A000000000003A2048656170206D656D6F7234
:1004B0007920636F72727570746564000149182049
:1004C000ABBEFEE72600020070B505460C460A20CA
:1004D00000E06D1C00F011F835B128780028F8D143
:1004E00002E0641C00F009F814B120780028F8D16B
:1004F000BDE870400A20AFF3008008B569468DF86A
:1005000000000320ABBE08BDFEE7704772B6FEE7F1
:100510002DE9F84FDFF8C891002409F1040A0AF127
:10052000040B23460F270BF1040ED1E00125A54053
:1005300006EA0502AA4276D1DFF8A8C14E68A6EB0A
:100540000C0866452BD00DDC032E34D005DC36B309
:10055000012E19D0022E2FD11BE0112E16D0122EF3
:100560002AD119E0B8F5881F19D006DCB8F5803F0C
:1005700015D0B8F5801F1FD111E0B8F5001F0ED0BF
:10058000B8F5041F18D10AE0CB6815E0CB681B1D35
:1005900012E0CB6808330FE0CB680C330CE08B68BB
:1005A0002BB1012B4FF0080303D0456104E0042375
:1005B00002E0056100E00023FF2A01D8064601E0C1
:1005C00000F104064FEA840501D9A5F12005D6F80B
:1005D000008007FA05FC28EA0C0803FA05F548EA4A
:1005E0000508C6F800804D68ED0070D53E4DAE6937
:1005F00046F00106AE61AD6924F0030605F0010581
:1006000000953A4D06EB050CDCF80850A607360FAE
:1006100007FA06F825EA0805DFF8D480404503D13B
:100620004FF0000825E052E0DFF8C880404502D1D5
:100630004FF001081DE0DFF8C080404502D14FF0C7
:10064000020816E0DFF8B480404502D14FF00308FD
:100650000FE0DFF8AC80404502D14FF0040808E01D
:10066000DFF8A080404502D14FF0050801E04FF0CF
:10067000060808FA06F848EA0508CCF808804D682C
:10068000D9F80060ED034D4601D5164300E09643CE
:100690002E604D68DAF80060AD03554601D516436B
:1006A00000E096432E604D68DBF80060ED025D4689
:1006B00001D5164300E096432E604D68DEF80060D9
:1006C000AD02754601D5164300E096432E60641CCA
:1006D0000A681646E2407FF429AFBDE8F88F0000B3
:1006E0000004014000001110001002400000014011
:1006F00000080140000C01400010014000140140BE
:1007000000180140001C0140C26821EA02030A40AF
:1007100043EA0241016170470AB10161704709046F
:10072000FBE70000014880687047000008000020D7
:1007300002488168027811448160704708000020F7
:10074000074810B5016841F010010160032000F076
:1007500075F80F2000F006F800F024F8002010BD16
:100760000020024070B50D4D04464FF47A71287890
:10077000B1FBF0F00A490968B1FBF0F000F0CCFAE7
:1007800048B9102C07D200222146501E00F036F83E
:1007900000206C6070BD012070BD000008000020CA
:1007A000140000200C4808B5816941F00101816105
:1007B000816901F001010091C16941F08051C1617D
:1007C000C06900F0805000900448416821F0E06169
:1007D00041F00071416008BD00100240000001407E
:1007E000002809DB00F01F02012191404009800030
:1007F00000F1E020C0F8001170470000F0B40E4B8B
:100800001B680C46C3F30223C3F10705042D00D96E
:100810000425191D072901D2002300E0DB1E012653
:1008200006FA05F1491E214099409E40761E164069
:100830003143F0BC00F0B5BC0CED00E0064900F01F
:10084000070208684FF6FF03184040EA0220034AF7
:1008500010430860704700000CED00E00000FA054E
:100860002DE9F0470F46050061D0434E306800F097
:100870000700B84209D2306820F0070038433060E2
:10088000306800F00700B84251D128683B4C81071E
:1008900012D5400703D5606840F4E06060602878B6
:1008A000000703D5606840F4605060606068A96824
:1008B00020F0F000084360602878C00728D06868FE
:1008C000012810D02168022810D0890700292EDACB
:1008D000616821F0030101436160FFF723FF804657
:1008E00041F288390DE021688903EFE78901EDE7DE
:1008F000FFF718FFA0EB0801494502D90320BDE826
:10090000F0876068696800F00C00B0EB810FEFD1F0
:10091000306800F00700B8420BD9306820F00700BB
:1009200038433060306800F00700B84201D0012041
:10093000E5E72878400705D56068E96820F4E060BD
:10094000084360602878000706D56068296920F4AC
:10095000605040EAC100606000F018F86168084A21
:10096000C1F30311515CC84006490860064800689D
:10097000FFF7F8FE0020C2E700200240001002400E
:1009800008150008140000200C00002012A185B0FA
:100990000FC98DE80F0014A0144A00680490516834
:1009A000134801F00C03042B10D0082B0ED1C1F317
:1009B0008343C9031DF803000AD5516804AAC1F393
:1009C0004041515C0A4A5043B0FBF1F005B070471A
:1009D00008494843FAE7000002030405060708092E
:1009E0000A0B0C0D0E0F1010010200000010024047
:1009F00000127A0000093D002DE9F84F040070D084
:100A00002078C04DC00749D06868C0F38100012834
:100A100007D06868C0F38100022809D16868C00364
:100A200006D52868800339D560680028E7D035E00E
:100A30006068B0F5803F0BD010B1B0F5A02F11D099
:100A4000286820F480302860286820F4802002E0A4
:100A5000286840F480302860606890B1FFF762FE3B
:100A600006460AE0286840F480202860F0E700BFCE
:100A7000FFF758FE801B642873D828688003F7D5D9
:100A80000CE0FFF74FFE064605E000BFFFF74AFE09
:100A9000801B6428F0D828688003F7D420789A4E09
:100AA00080074FF001094FF0000839D5686810F051
:100AB0000C0F07D06868C0F38100022809D168686C
:100AC000C00306D42868800714D52069012808D1FE
:100AD00010E02069B0B1C6F80090FFF723FE07468A
:100AE00005E00AE1FFF71EFEC01B0228C4D82868F3
:100AF0008007F7D52868616920F0F80040EAC10056
:100B000028600DE0C6F80080FFF70CFE074604E001
:100B1000FFF708FEC01B022823D828688007F7D4F7
:100B2000207800072CD57948A169D9B1C0F8009088
:100B3000FFF7F8FD074604E0FFF7F4FDC01B0228AD
:100B40000FD8686A8007F7D571484FF4FA510068EA
:100B5000B0FBF1F0009000BF0098411E0091FAD266
:100B60000EE080E0C0F80080FFF7DCFD074604E0FF
:100B7000FFF7D8FDC01B022875D8686A8007F7D434
:100B80002078400760D5E8690027C00008D4E869EC
:100B900040F08050E861E869012700F08050009043
:100BA0005C480168C90513D40168834641F480712B
:100BB0000160FFF7B7FD824606E000BFFFF7B2FD18
:100BC000A0EB0A0064284ED8DBF80000C005F5D57C
:100BD000E06801280AD008B1052813D0286A20F05F
:100BE00001002862286A20F0040002E0286A40F030
:100BF00001002862E06841F2883B98B1FFF792FD5E
:100C000082460BE0286A40F004002862EEE700BF4D
:100C1000FFF788FDA0EB0A0159455AD8286A8007DA
:100C2000F6D50CE0FFF77EFD824605E0FFF77AFD82
:100C3000A0EB0A0159454CD8286A8007F6D41FB1A9
:100C4000E86920F08050E861E06988B36968C1F321
:100C50008101022944D00228C6F8608004D0FFF741
:100C600061FD044638E034E0FFF75CFD074604E030
:100C7000FFF758FDC01B02282BD828688001F7D445
:100C8000206AB0F5803F05D16868A16820F4003083
:100C900008436860D4E908010843696821F47411C5
:100CA00008436860C6F86090FFF73CFD044606E024
:100CB00025E000BFFFF736FD001B022809D8286891
:100CC0008001F7D51BE000BFFFF72CFD001B0228B9
:100CD00002D90320BDE8F88F28688001F4D40EE023
:100CE0000128F7D06868226A00F48031914204D16B
:100CF000616A00F47010884201D00120EAE7002008
:100D0000E8E7000000100240000042428004424236
:100D1000140000200070004010B5401EB0F1807F2C
:100D200001D3012010BD4FF0E02460610F21601756
:100D300000F037FA0020A06107202061002010BDDC
:100D40007047704770B590F83C20012A2CD00124E0
:100D500080F83C40022280F83D2003685A689D6874
:100D600022F070060A6832435A60104B02689A42B9
:100D70000ED00F4B9A420BD0B2F1804F08D00D4BE2
:100D80009A4205D00C4B9A4202D00C4B9A4204D1A5
:100D9000496825F080031943916080F83D400021A7
:100DA00080F83C10084670BD022070BD002C014048
:100DB000003401400004004000080040000C0040E6
:100DC00010B5040003D094F83D0010B107E00120F5
:100DD00010BD002084F83C00204600F01FF80220DF
:100DE00084F83D00211D206800F094F9012084F86A
:100DF000460084F83E0084F83F0084F8400084F800
:100E0000410084F8420084F8430084F8440084F8E8
:100E1000450084F83D00002010BD000008B50068C2
:100E20000B49884212D10B48C16941F01001C161E0
:100E3000C069002200F01000009011463620FFF734
:100E4000DDFCBDE808403620FFF7CABC08BD000045
:100E50000010004000100240704770B50446006862
:100E600001694FF00005C943890715D4C168C9431A
:100E7000890711D4E91E016101202077206880696B
:100E80008007204602D0FFF7E7FF04E000F098F863
:100E9000204600F096F8257720680169C943490784
:100EA00017D4C168C943490713D46FF00401016125
:100EB000022020772068806910F4407F204602D00D
:100EC000FFF7CAFF04E000F07BF8204600F079F855
:100ED000257720680169C943090716D4C168C94349
:100EE000090712D46FF008010161042020772068FF
:100EF000C0698007204602D0FFF7AEFF04E000F093
:100F00005FF8204600F05DF8257720680169C94345
:100F1000C90617D4C168C943C90613D46FF01001BC
:100F20000161082020772068C06910F4407F2046C6
:100F300002D0FFF791FF04E000F042F8204600F0F5
:100F400040F8257720680169C943C90708D1C168FD
:100F5000C943C90704D1891E0161204600F032F857
:100F600020680169C943090609D4C168C943090653
:100F700005D46FF0800101612046FFF7E1FE206893
:100F80000169C943490609D4C168C943490605D462
:100F90006FF040010161204600F015F820680169FA
:100FA000C94389060BD4C168C943890607D46FF0C9
:100FB000200101612046BDE87040FFF7C2BE70BD50
:100FC0007047704770477047FEE7000030B585B046
:100FD000002418480094019402940394816941F01C
:100FE00010018161816901F010010491816941F072
:100FF00020018161816901F020010491816941F042
:101000000401816180690C4D00F00400049000220D
:1010100004212846FFF780FB042000900120CDE941
:1010200001040220039069462846FFF771FA05B0D3
:1010300030BD000000100240000801401CB5002433
:101040000F4800940D490194016041F61F41C0E929
:1010500001146321C16080218161FFF7B1FE08B1F5
:10106000FFF754FA0094694605480194FFF76AFEB9
:10107000002801D0FFF74AFA1CBD00000010004014
:1010800038000020FEE7FEE770477047FFF750BBCF
:1010900030B58FB028216846FFF712F914210AA84D
:1010A000FFF70EF901210804CDE900100024029495
:1010B00002250491CDE907504FF4E01009906846ED
:1010C000FFF79AFC08B172B6FEE70F20CDE90A05DA
:1010D0004FF48060CDE90C4002210AA80E94FFF77E
:1010E000BFFB002801D072B6FEE70FB030BD7047DD
:1010F00010B50648FFF7B1FE05480068002803D088
:101100000069BDE81040004710BD00003800002015
:1011100018000020F0B502681C4B1D4D1D4E1E4FDF
:101120001E4C4FF0804C984209D0A04207D0604539
:1011300005D0A84203D0B04201D0B84204D122F079
:10114000700E4A6842EA0E02984209D0A04207D0C7
:10115000604505D0A84203D0B04201D0B84203D1C7
:1011600022F44075CA682A434D6922F080022A435E
:1011700002608A68C2620A688262984201D0A04214
:1011800001D10969016301214161F0BD002C0140D9
:101190000004004000080040000C00400034014002
:1011A000FEE70907090E002804DB00F1E02080F8C3
:1011B0000014704700F00F0000F1E02080F8141DCB
:1011C0007047000010B500F03BF80A2801D000205D
:1011D00010BD024840680068806810BD18000020FB
:1011E00070B5164C626862B100280BD015790023E7
:1011F000A5B11168814201D18968116061611679D8
:1012000007E0002070BD8A68824204D05B1C114652
:10121000DBB29E42F7D861619D4201D1022070BDD0
:1012200082688A60FFF725F860680179491E11F02D
:10123000FF01017100D101600A2070BD180000207B
:101240002DE9F0411D4690460E460746022802D37E
:101250000320BDE8F0811DB3144C60680028F8D06D
:101260001420FEF7D7FFE06020610028F1D061680C
:101270000A79BAB10A689368906083600A79521C4F
:101280000A710A21B6FBF1F2B6FBF1F107700561B4
:10129000428081800721C0F80C80C1710A20D8E704
:1012A0000020D6E708608060E8E700001800002012
:1012B000002802D00821C1710A207047002802D0FE
:1012C0000721C1710A20704770B5154C606800286D
:1012D0000AD0017939B14179052906D00068002585
:1012E0002E46E06115E0002070BD052070BDE1696B
:1012F0008879042809D1D1E903018847E069017898
:1013000009B9FFF76DFFE0698671E0696D1C8068BF
:10131000E06160680079A842E9DC0A2070BD000045
:101320001800002030B5134A516851B108790028DF
:1013300008D04879052805D0086800230425906165
:1013400011E0002030BDC479072C02D18488641ECE
:10135000848084882CB985710478012C01D144885B
:10136000848080685B1C0C799C42ECDC90610A20D4
:1013700030BD00001800002010B52820FEF74AFFFD
:10138000154CA06098B11549016015494160154997
:10139000016115494161154981611549C1611549CD
:1013A000816015494162154901621549C1600820F3
:1013B000FEF730FF48B10021016001710621417143
:1013C0006060A06820600A2010BDFEF752FFA06890
:1013D000FEF74FFF092010BD18000020C5110008BE
:1013E000E111000825130008C912000805140008BF
:1013F000191400083B140008B1120008BD120008BF
:101400002D14000803484068002802D006214171CD
:101410000A2070471800002003484068002802D0C6
:10142000052141710A20704718000020002803D0D0
:1014300001B9418881800A207047002801D041808D
:101440000A20704770B5FFF77BF9FFF721FEFFF721
:10145000BDFDFFF7F3FD002204211648FFF75CF9FC
:10146000154801680A6842F001020A600068C16814
:1014700041F00101C160FFF77FFF0A2801D0002081
:1014800070BD0E4C00220E4B20684FF47A71056837
:101490000120A8470B4D02460B4B2860206841F203
:1014A000883106680120B04768602068406980473D
:1014B000FBE7000000080140380000201800002071
:1014C000CD14000800000020D914000804210148B0
:1014D000FFF71AB90008014010B5084C21684968A7
:1014E00088472068416A0648406888470122BDE86D
:1014F000104004210348FFF70FB900001800002036
:101500000000002000080140000000000000000072
:10151000010203040607080938150008000000202E
:10152000380000006C010008701500083800002029
:10153000A80600008801000800000000000000006C
:101540000100000010000000000000000024F40072
:10155000000000000000000000000000000000008B
:10156000000000000000000000000000000000007B
:0400000508000131BD
:00000001FF
