:020000040800F2
:1000000098080020CD0B0008590300085B03000886
:100010005F03000863030008670300080000000096
:100020000000000000000000000000006B0300085A
:100030006D030008000000006F0300087103000852
:10004000E70B0008E70B0008E70B0008E70B0008C8
:10005000E70B0008E70B0008E70B0008E70B0008B8
:10006000E70B0008E70B0008E70B0008E70B0008A8
:10007000E70B0008E70B0008E70B0008E70B000898
:10008000E70B0008E70B0008E70B0008E70B000888
:10009000E70B0008E70B0008E70B0008E70B000878
:1000A000E70B0008E70B0008E70B0008E70B000868
:1000B000E70B00087D0900085D320008E70B000827
:1000C000E70B0008E70B0008E70B0008E70B000848
:1000D000E70B0008430B0008E70B0008E70B0008DC
:1000E000E70B0008E70B0008E70B0008E70B000828
:1000F000E70B0008E70B0008E70B0008E70B000818
:10010000E70B0008E70B0008E70B0008E70B000807
:10011000E70B0008E70B0008E70B0008E70B0008F7
:10012000E70B0008E70B0008E70B0008E70B0008E7
:1001300000F002F800F06BF80AA090E8000C82448E
:100140008344AAF10107DA4501D100F060F8AFF26B
:10015000090EBAE80F0013F0010F18BFFB1A43F0A5
:10016000010318479CE50000BCE500000A444FF07D
:10017000000C10F8013B13F0070408BF10F8014B06
:100180001D1108BF10F8015B641E05D010F8016B4B
:10019000641E01F8016BF9D113F0080F1EBF10F8AF
:1001A000014BAD1C0C1B09D16D1E58BF01F801CBD2
:1001B000FAD505E014F8016B01F8016B6D1EF9D555
:1001C0009142D6D37047000000230024002500266A
:1001D000103A28BF78C1FBD8520728BF30C148BFAA
:1001E0000B607047642903F00D86752903F00A86B9
:1001F000782903F04386632903F09787732903F076
:100200009C87002070471FB51FBD10B510BD03F0BF
:10021000C7FF1146FFF7F7FF00F008F803F0E5FF0E
:1002200003B4FFF7F2FF03BC00F030FC08B5002573
:1002300000F0C2FB4FF4A06000F0E8FC4FF4E130A6
:1002400000F033FC00F0ACF900F084F93348416869
:100250004820884700F022FA00F094FA002142F684
:10026000DF3000F0C1FA0021082001F0A0FB53E0CC
:10027000681CC5B2002000F0ADF90446042C13D16F
:100280002748007880B901202649087001221146CC
:10029000254802F0E6F90121234802F0C7F90121BF
:1002A000002001F023FB2AE0022C13D11F48007824
:1002B00080B902201B490870012211461A4802F039
:1002C000D0F90121184802F0B1F90121002001F014
:1002D0000DFB14E0032C12D11548007878B90320E7
:1002E00010490870012211460F4802F0BAF90121A5
:1002F0000D4802F09BF90121002001F0F7FA0948AE
:10030000007800900A480378084802780448017889
:1003100008A003F01BFD00BFAAE700007800002042
:100320000100002000000020000400400200002026
:1003300003000020693D202564200D0A6A3D202528
:1003400064200D0A6B3D202564200D0A6E756D3DFD
:10035000202564200D0A0000704700BFFEE700BFA3
:10036000FEE700BFFEE700BFFEE77047704770473B
:10037000704700000CB50020019000906C480068A8
:1003800040F480306A49086000BF6948006800F4A2
:10039000003000900198401C0190009818B9019815
:1003A000B0F5A06FF1D16248006800F4003010B1E0
:1003B0000120009001E0002000900098012843D126
:1003C0005C48006840F010005A4908600846006820
:1003D00020F0030008600846006840F00200086052
:1003E000534840685249486008464068486008469B
:1003F000406840F4806048600846406820F47C1003
:1004000048600846406840F4E810486008460068C4
:1004100040F08070086000BF4548006800F0007040
:100420000028F9D04248406820F003004049486065
:100430000846406840F00200486000BF3C48406801
:1004400000F00C000828F9D10CBD10B5FFF792FFA1
:1004500010BD10B53648006840F00100344908600E
:1004600008464068344908403149486008460068F9
:10047000324908402E4908600846006820F4802070
:1004800008600846406820F4FE0048604FF41F00F2
:100490008860FFF7DAFF4FF000602949086010BD5F
:1004A00010B5002100200022214B5B6803F00C01F5
:1004B00021B1042906D0082928D107E0214B224C7C
:1004C000236027E01F4B204C236023E0184B5B6820
:1004D00003F47010164B5B6803F48032022303EBC5
:1004E000904022B9194B4343174C23600DE0104B49
:1004F0005B6803F4003323B1144B4343124C236075
:1005000003E0104B4343104C236003E00D4B0E4CB3
:10051000236000BF00BF064B5B68C3F303130C4CA2
:10052000E15C094B1B68CB40074C236010BD000009
:1005300000100240002002400000FFF8FFFFF6FE1E
:1005400008ED00E000127A000400002000093D00E0
:100550000800002008B50121482001F0D3FB20202D
:10056000ADF8000010208DF8030003208DF8020084
:100570006946094800F040FE2021074800F0E9FEE6
:100580002020ADF800006946044800F035FE202127
:10059000024800F0DEFE08BD000C014000180140DA
:1005A00008B50121442001F0ADFB1C20ADF800008E
:1005B00048208DF803006946354800F01DFE0120F3
:1005C000ADF8000028208DF803006946314800F09E
:1005D00013FE08BD10B5044614B101202E49087061
:1005E0002D480078002837D01021294800F097FEC8
:1005F00078B10821264800F092FE50B10421244829
:1006000000F08DFE28B10121224800F088FE01286B
:1006100022D10A2000F00DFA00201F490870102195
:100620001B4800F07CFE08B9012010BD08211848C5
:1006300000F075FE08B90220F7E70421144800F025
:100640006EFE08B90320F0E70121124800F067FEB2
:1006500001281BD10420E8E710210D4800F05FFEBF
:10066000012813D108210A4800F059FE01280DD1B4
:100670000421074800F053FE012807D10121054855
:1006800000F04DFE10B90120034908700020CCE7AE
:1006900000180140000801401800002000B587B094
:1006A00001214FF4017001F02DFB4FF4004001F0E7
:1006B0008DFA0220ADF8040000208DF8070001A992
:1006C0002E4800F099FD2E4800F00EFB002002900D
:1006D0008DF80C008DF80D004FF460200490002080
:1006E000059001208DF8180002A9254800F023FB91
:1006F0000121234800F04BFB214800F06AFB00BFBA
:100700001F4800F06BFB0028FAD11D4800F070FB79
:1007100000BF1B4800F071FB0028FAD107B000BDF4
:1007200010B50446072301222146154800F09BFB23
:100730000121134800F06BFB00BF0221104800F0BC
:10074000D7FC0028F9D00E4800F0F4FB10BD2DE9CD
:10075000F04107460C460025002608E03846FFF722
:10076000DFFF0544052000F064F9701CC6B2A64204
:10077000F4DBB5FBF4F080B2BDE8F0810008014085
:100780000024014000B585B00121042001F0BAFA2F
:100790000121480701F0C3FA1020ADF81000002035
:1007A0008DF8130003208DF8120004A90D4800F005
:1007B00023FD10210B4800F0CCFD0020009001909B
:1007C0000290022003906946002001F072F8012196
:1007D000002001F08BF80021082001F0E8F805B0B6
:1007E00000BD0000000801407FB505460C46012110
:1007F000022001F094FAADF80850ADF80440002052
:10080000ADF80A00ADF8060001A9634801F0B2FB9B
:1008100001221146604801F024FF1D208DF80000E0
:1008200000208DF8010003208DF8020001208DF8D2
:100830000300684600F0EFF90121574801F0F6FE89
:100840007FBD10B5002455480078012829D15448AF
:10085000008844F6C071884210DA012051490870BE
:1008600051484F490988445C4D480088401C4C4918
:1008700008802146082001F09AF87EE000204949CE
:1008800008704749088000220121434801F0E9FE31
:100890000021414801F0CAFE0021084601F026F877
:1008A0006BE03E480078022829D13D48008845F297
:1008B0006041884210DA01203C4908703C483849C0
:1008C0000988445C36480088401C35490880214628
:1008D000082001F06CF850E00020344908703049DD
:1008E0000880002201212C4801F0BBFE00212A488B
:1008F00001F09CFE0021084600F0F8FF3DE027488B
:100900000078032829D12648008845F260418842B2
:1009100010DA012027490870254821490988445CDC
:100920001F480088401C1E4908802146082001F00D
:100930003EF822E000201F49087019490880002273
:100940000121154801F08DFE0021134801F06EFED3
:100950000021084600F0CAFF0FE00020104908807F
:10096000002201210C4801F07CFE00210A4801F020
:100970005DFE0021084600F0B9FF10BD10B5012151
:10098000054802F01CF908B1FFF75BFF012102489E
:1009900002F026F910BD0000000400400000002015
:1009A0001A0000200100002012420008020000206E
:1009B000D29100080300002010B56FF0040000F091
:1009C00074F92E4800682E49B0FBF1F02D490870EB
:1009D0000846007800EB4001C1EBC0104FF6FF71F4
:1009E00001EAC0002849088010BD0146254A127856
:1009F0004A434FF0E0235A6100229A611A46126975
:100A000042F001021A6100BF4FF0E022106900F0CD
:100A100001021AB100F48032002AF5D04FF0E02232
:100A2000126922F001024FF0E0231A6100229A615C
:100A300070470146144A12884A434FF0E0235A6136
:100A400000229A611A46126942F001021A6100BF3F
:100A50004FF0E022106900F001021AB100F4803278
:100A6000002AF5D04FF0E022126922F001024FF087
:100A7000E0231A6100229A61704700000400002000
:100A800000127A001C0000201E000020014600BF5A
:100A9000704700BF494A128802F04002002AF9D08C
:100AA000C2B2464B1B1D1A80704710B586B0044673
:100AB000012144F2040001F025F94FF40070ADF873
:100AC000140003208DF8160018208DF8170005A9D2
:100AD0003B4800F091FB4FF48060ADF81400042017
:100AE0008DF8170005A9364800F086FB25208DF803
:100AF000000003208DF801008DF8020001208DF820
:100B00000300684600F087F801940020ADF8080063
:100B1000ADF80A00ADF80C00ADF810000C20ADF8EF
:100B20000E0001A9254800F0F8FC012240F22551F1
:100B3000224800F08AFD0121204800F07AFD06B02D
:100B400010BD10B540F225511C4800F063FE10B3F3
:100B50001A4800F0DFFDC4B21A48008800F40040D3
:100B6000C8B91848008800F4804060B10A2C03D04E
:100B700000201449088020E01248008840F400401A
:100B80001049088019E00D2C06D10E48008840F469
:100B900080400C49088010E00A480088C0F30D002E
:100BA00009490C5407480088401C0649088008463B
:100BB0000088C72801DD0020088010BD00380140F2
:100BC00000080140240000206C01002009488047F3
:100BD00009480047FEE7FEE7FEE7FEE7FEE7FEE71F
:100BE000FEE7FEE7FEE7FEE704480549054A064B37
:100BF00070470000530400083101000898020020EB
:100C000098080020980400209804002031490143EE
:100C1000314A1160704770B5002100230F22C4785B
:100C200004B32D4C246804F4E064C4F5E064210AA4
:100C3000C1F10403CA40447804FA03F184781440F3
:100C400021430901254C0678A155047804F01F05BD
:100C50000124AC4005786D11AD0005F1E025C5F823
:100C6000004109E0047804F01F050124AC401C4D4C
:100C70000678761145F8264070BD1A4A0A400243AC
:100C8000154B1B1F1A60704739B1134A121D1268A9
:100C90000243114B1B1D1A6006E00F4A121D126819
:100CA00082430D4B1B1D1A607047042808D14FF07A
:100CB000E021096941F004014FF0E022116107E0F1
:100CC0004FF0E021096921F004014FF0E0221161A9
:100CD000704700000000FA050CED00E000E400E0C1
:100CE00080E100E080FFFF1F10B50446FA4884420F
:100CF00008D10121401501F01FF80021601501F015
:100D00001BF817E0F548844208D10121001501F0D5
:100D100013F80021201501F00FF80BE0F048844291
:100D200008D10121C80301F007F800214FF4004069
:100D300001F002F810BD30B50246002000235068D3
:100D4000E84C20400D790C6844EA052420435060AB
:100D50009068E54C2040D1E902542C434D7944EA97
:100D6000450420439060D06A20F470000C7C641E1F
:100D7000E4B2234340EA0350D06230BD0021016059
:100D8000017141718160C16001210174704721B11D
:100D9000826842F00102826003E0826822F0010270
:100DA0008260704721B1826842F48072826003E001
:100DB000826822F480728260704710B50023CBB243
:100DC0001AB144681C43446002E044689C43446098
:100DD00010BD816841F00801816070470146002024
:100DE0008A6802F008020AB1012000E00020704782
:100DF000816841F0040181607047014600208A68E3
:100E000002F004020AB1012000E00020704721B185
:100E1000826842F4A002826003E0826822F4A002A9
:100E200082607047014600208A6802F480020AB19D
:100E3000012000E00020704710B50A460021002381
:100E4000416821F46041531E41EA4331416010BDC5
:100E500021B1426842F40062426003E0426822F439
:100E6000006242607047F0B504460D460020002144
:100E7000092D11DDE068A5F10A0606EB46070726F5
:100E800006FA07F18843A5F10A0606EB460603FABF
:100E900006F10843E0600CE0206905EB45070726F2
:100EA00006FA07F1884305EB450603FA06F1084305
:100EB0002061072A0FDA606B561E06EB86071F2695
:100EC00006FA07F18843561E06EB860605FA06F178
:100ED0000843606322E00D2A0FDA206BD61F06EB71
:100EE00086071F2606FA07F18843D61F06EB8606FB
:100EF00005FA06F10843206310E0E06AA2F10D064E
:100F000006EB86071F2606FA07F18843A2F10D06B5
:100F100006EB860605FA06F10843E062F0BD21B152
:100F2000826842F48012826003E0826822F48012B8
:100F3000826070470146C86C80B2704766484C308A
:100F40000068704721B1426842F48062426003E069
:100F5000426822F480624260704721B1426842F4E4
:100F60008052426003E0426822F48052426070473F
:100F70000A460021816821F4E041114381607047F5
:100F800021B1826842F40042826003E0826822F468
:100F900000428260704721B1826842F4021282608E
:100FA00003E0826822F4021282607047014600204A
:100FB0008A6802F400120AB1012000E000207047A4
:100FC000F0B504461546002000220026092911DD4F
:100FD000E068A1F10A0707EB470C072707FA0CF2B4
:100FE0009043A1F10A0707EB470703FA07F2104302
:100FF000E0600CE0206901EB410C072707FA0CF2D6
:10100000904301EB410703FA07F210432061A06B04
:10101000C0F30156EF1C06F1010CA7EB0C0707EB20
:10102000870C1F2707FA0CF29043EF1C06F1010C06
:10103000A7EB0C0707EB870701FA07F21043A06341
:10104000F0BD10B50A4600210023816B21F4401148
:10105000531E41EA0351816310BD08B5002300937C
:101060000090009B0B440093009B1A6008BD08B5DC
:10107000024600200090009201F12800009B1844D5
:1010800000900098006880B208BD0A4600214168BF
:10109000164B1940114341607047416282627047AC
:1010A0000A460021416821F01F0111434160704749
:1010B00040B109490831096841F40001064A083283
:1010C000116007E004490831096821F40001024A6F
:1010D00008321160704700000024014000280140E0
:1010E000003C0140FFFEF0FFFDF7F1FFFFFD3FFF79
:1010F0000246002013680B400BB1012000E00020E5
:101100007047CA430260704770B502460020002352
:1011100000240B125568CEB205EA060415681D407E
:1011200015B10CB1012000E0002070BD00220A12B0
:10113000D34303607047000010B50446CC48844296
:1011400008D10121042000F0F7FD0021042000F067
:10115000F3FD46E0C748844208D10121082000F091
:10116000EBFD0021082000F0E7FD3AE0C248844290
:1011700008D10121102000F0DFFD0021102000F037
:10118000DBFD2EE0BD48844208D10121202000F083
:10119000D3FD0021202000F0CFFD22E0B84884429A
:1011A00008D10121402000F0C7FD0021402000F0BF
:1011B000C3FD16E0B348844208D10121802000F02D
:1011C000BBFD0021802000F0B7FD0AE0AE4884425C
:1011D00007D10121801500F0AFFD0021A01500F01E
:1011E000ABFD10BD10B50121084600F0A5FD0021A2
:1011F000012000F0A1FD10BD2DE9F04102460025BF
:101200000026002000230024002791F803C00CF0E2
:101210000F0591F803C00CF0100CBCF1000F03D0C7
:1012200091F802C04CEA050591F800C0BCF1000F2E
:1012300031D0146800202BE04FF0010C0CFA00F3C1
:10124000B1F800C00CEA03069E4220D183004FF0A3
:101250000F0C0CFA03F7BC4305FA03FC4CEA040438
:1012600091F803C0BCF1280F06D14FF0010C0CFA25
:1012700000FCC2F814C00AE091F803C0BCF1480FAA
:1012800005D14FF0010C0CFA00FCC2F810C0401C54
:101290000828D1D31460B1F800C0BCF1FF0F34DDD1
:1012A000546800202EE000F1080C4FF0010808FA05
:1012B0000CF3B1F800C00CEA03069E4221D1830072
:1012C0004FF00F0C0CFA03F7BC4305FA03FC4CEA91
:1012D000040491F803C0BCF1280F05D100F1080CFB
:1012E00008FA0CF8C2F8148091F803C0BCF1480F5A
:1012F00007D100F1080C4FF0010808FA0CF8C2F809
:101300001080401C0828CED35460BDE8F0814FF611
:10131000FF710180022181700421C1707047024673
:10132000002093680B400BB1012000E000207047C3
:101330000146886880B2704702460020D3680B409F
:101340000BB1012000E0002070470146C86880B260
:10135000704701617047416170470AB1016100E067
:1013600041617047C16070474FF480320A43826127
:101370008161826182698269704702460020434B25
:1013800018684FF68073184040EA021008433F4B3C
:10139000186070473E49C8617047F0B50A4600239F
:1013A00000240021002500F00046B6F1004F02D1D4
:1013B000364EF16901E0354E7168C0F3034583B2E2
:1013C00000F44016B6F5401F08D121F070612F4E91
:1013D000766826F070662D4F7E6012E000F480166D
:1013E000B6F5801F06D1032606FA05F4A14341F0A5
:1013F000706106E0460D360103FA06F6B14341F08E
:10140000706122B1460D360103FA06F6314300F051
:101410000046B6F1004F02D11C4EF16101E01B4EB7
:101420007160F0BD30B500228B071C0F0F2303FA4B
:1014300004F2164B08338C1053F824309343134CAA
:1014400008348D1044F8253023468C1053F824308E
:101450008C07240F00FA04F423430C4C08348D103D
:1014600044F8253030BD0A49DC310860704700007F
:1014700000080140000C0140001001400014014030
:1014800000180140001C0140002001400000014004
:101490000000204210B50446FB48844209D10121D6
:1014A000880300F049FC00214FF4804000F044FC28
:1014B00032E0F648844209D10121480400F049FC99
:1014C00000214FF4003000F044FC25E0F048844255
:1014D00009D10121880400F03CFC00214FF4802058
:1014E00000F037FC18E0EB48844209D10121C80420
:1014F00000F02FFC00214FF4002000F02AFC0BE04C
:10150000E548844208D10121080500F022FC0021B1
:101510004FF4801000F01DFC10BD2DE9F04786B09F
:1015200005460E460024A24600BFA1460027B0890A
:1015300000B100BF2F462C8A4CF6FF700440F088A3
:1015400004432C82AC894EF6F3100440B0883189F4
:101550000843718908430443AC81AC8A4FF6FF40CD
:101560000440B0890443AC8201A800F05EFBC64889
:10157000874202D1DDF810A001E0DDF80CA0A889B7
:1015800000F4004040B10AEBCA0000EB0A103168D9
:101590004900B0FBF1F807E00AEBCA0000EB0A10C3
:1015A00031688900B0FBF1F86420B8FBF0F0040169
:1015B0002009642101FB1089A88900F4004040B192
:1015C000322000EBC900B0FBF1F000F0070004434B
:1015D00008E0322000EB09106421B0FBF1F000F0CC
:1015E0000F0004432C8106B0BDE8F0874FF416517C
:1015F000016000218180C18001810C214181002195
:101600008181704710B502460020108A4FF2FF0317
:1016100018400B884C8823438C882343CC88234371
:101620001843108210BD0021018041808180C1805B
:10163000704721B1828942F40052828104E082899C
:101640004DF6FF731A4082817047F0B503460024BF
:1016500000260025002040F66A17B94200D100BFDD
:101660001846C1F3421401F01F06012707FA06F5D8
:10167000012C01D10C3004E0022C01D1103000E02B
:1016800014301AB107682F43076002E00768AF43C0
:101690000760F0BD1AB1838A0B43838202E0838A1C
:1016A0008B4383827047028A4FF6F0731A4002829E
:1016B000028A0A430282704782894FF2FF731A40FE
:1016C000828182890A438281704721B1828942F0F6
:1016D0000202828104E082894FF6FD731A40828102
:1016E0007047028A4FF6DF731A400282028A0A4369
:1016F0000282704721B1028A42F48042028204E0F1
:10170000028A4BF6FF731A4002827047C1F3080247
:101710008280704701468888C0F30800704781893D
:1017200041F0010181817047028BD2B20283028BAA
:1017300042EA012202837047028B02F47F42028355
:10174000028B0A430283704721B1828A42F0200251
:10175000828204E0828A4FF6DF731A4082827047E9
:1017600021B1828A42F01002828204E0828A4FF61E
:10177000EF731A408282704721B1828A42F00802D8
:10178000828204E0828A4FF6F7731A4082827047A1
:1017900021B1828942F40042828103E08289C2F34E
:1017A0000E028281704721B1828A42F400628282F5
:1017B00004E0828A4FF2FF731A4082827047828A65
:1017C0004FF6FB731A408282828A0A4382827047F4
:1017D00021B1828A42F00202828204E0828A4FF6BC
:1017E000FD731A408282704702460020B1F5007FE7
:1017F00000D100BF13880B400BB1012000E0002096
:10180000704701F40072B2F5007F00D100BFCA43F7
:101810000280704770B50246002400230025002096
:1018200040F66A16B14200D100BFC1F3421501F083
:101830001F03012606FA03F3012D02D196893340D6
:1018400006E0022D02D1168A334001E0968A334029
:101850000C12012606FA04F41688344013B10CB1B8
:10186000012000E0002070BD10B50022002340F6EA
:101870006A14A14200D100BF0A1201249440A3B20D
:10188000DC43048010BD00000038014000440040EB
:1018900000480040004C00400050004010B50121BD
:1018A000480700F056FA00214FF0005000F051FABE
:1018B00010BD30B5002200235A4C226840F6FE7459
:1018C0008440A243D1E900452C438D682C43CD6868
:1018D00044EA050303FA00F42243524C226030BD6F
:1018E0000021016041608160C160704739B14D4A9B
:1018F0001268012383401A434A4B1A6006E0494AA2
:101900001268012383409A43464B1A60704741B1E5
:10191000444A12684FF4805383401A43414B1A6083
:1019200007E0404A12684FF4805383409A433D4B8E
:101930001A60704710B551B13A4A121D1268040975
:101940000123A3401A43374B1B1D1A6009E0354A97
:10195000121D126804090123A3409A43314B1B1D39
:101960001A6010BD40B12F49091D096841F00301FB
:101970002C4A121D116007E02A49091D096821F04F
:101980000301284A121D1160704710B53AB1254B6A
:101990001B6801FA00F42343224C236006E0214B2C
:1019A0001B6801FA00F4A3431E4C236010BD08B568
:1019B000002200921B4A009200F10802009B1A4488
:1019C0000092009A116008BD08B500220092154AE5
:1019D000009200F11402009B1A440092009A1160D8
:1019E00008BD30B500240023082802D142EA0124B2
:1019F00001E042EA01440B4B00F120052B441C603E
:101A000030BD08B5014600200090064800902C200B
:101A100000EB9100009A104400900098006880B29A
:101A200008BD000000740040DF48006840F001007D
:101A3000DD49086008464068DC490840DA494860EA
:101A400008460068DA490840D74908600846006837
:101A500020F4802008600846406820F4FE004860BA
:101A60004FF41F0088607047CF49096821F4803126
:101A7000CD4A11601146096821F480211160B0F54A
:101A8000803F03D0B0F5802F0ED106E0C64909682B
:101A900041F48031C44A116007E0C349096841F448
:101AA000A021C14A116000E000BF00BF704710B51F
:101AB00001460022002300204A11012A02D1BA4C1B
:101AC000236806E0022A02D1B74C236A01E0B64C33
:101AD000636A01F01F02012494401C400CB10120F4
:101AE00000E0002010BD38B5002000900024002543
:101AF00000BF3120FFF7DBFF05460098401C009037
:101B00000098B0F5A06F01D0002DF2D03120FFF782
:101B1000CEFF08B1012400E00024204638BD014674
:101B20000020A14A106820F0F80040EAC1001060CF
:101B30007047A04908607047024600209A4B5868D9
:101B400020F47C1042EA01031843974B5860704719
:101B500098490866704701460020934A506820F073
:101B600003000843506070478F48406800F00C0045
:101B70007047014600208C4A506820F0F00008436E
:101B80005060704701460020874A506820F4E060AA
:101B900008435060704701460020834A506820F493
:101BA000605040EAC1005060704729B17E4A527AC5
:101BB00002437D4B5A7204E07B4A527A82437A4B4D
:101BC0005A7270477B49D83108607047014600203F
:101BD000754A506820F44040084350607047002127
:101BE000714A20321170704A82F82010012802D008
:101BF00004280AD104E001216B4A2032117005E06B
:101C00000521694A2032117000E000BF00BF704713
:101C10006949086070476449096A0143624A116270
:101C20007047654944390860704730B5002100228B
:101C3000002400235C4D6D6805F00C0121B10429DE
:101C400005D0082923D105E05C4D056022E05B4DFD
:101C500005601FE0544D6D6805F47012524D6D68BB
:101C600005F48034022505EB92421CB9544D5543CE
:101C700005600BE04C4D6D6805F400351DB1504D0D
:101C80005543056002E04D4D5543056002E04B4D64
:101C9000056000BF00BF444D6D6805F0F001090903
:101CA000484D6B5C0568DD4045603F4D6D6805F44F
:101CB000E061090A434D6B5C4568DD4085603A4D43
:101CC0006D6805F46051C90A3E4D6B5C4568DD40A6
:101CD000C560354D6D6805F44041890B3A4D6B5C2C
:101CE000C568B5FBF3F5056130BD29B12E4A5269CF
:101CF00002432D4B5A6104E02B4A526982432A4B1E
:101D00005A61704729B1284A92690243264B9A6169
:101D100004E0254A92698243234B9A61704729B1B6
:101D2000214AD2690243204BDA6104E01E4AD2699B
:101D300082431D4BDA61704729B11B4AD2680243C6
:101D4000194BDA6004E0184AD2688243164BDA6015
:101D5000704729B1144A12690243134B1A6104E017
:101D6000114A12698243104B1A6170471249403977
:101D7000086070470F49C86470470B49C8717047C5
:101D80000948406A40F08070074948627047014640
:101D90000020054A92680A400AB1012000E00020B4
:101DA0007047014988727047001002400000FFF838
:101DB000FFFFF6FE000042428004424200127A0019
:101DC00000093D00260000203600002010B5044622
:101DD000FE48844208D10121C014FFF7ADFF002165
:101DE000E014FFF7A9FFC4E0B4F1804F08D101214E
:101DF0000846FFF7AEFF00210120FFF7AAFFB8E079
:101E0000F348844208D101210220FFF7A2FF0021FC
:101E10000220FFF79EFFACE0EE48844208D101218A
:101E20000420FFF796FF00210420FFF792FFA0E0B7
:101E3000E948844208D101210820FFF78AFF0021E8
:101E40000820FFF786FF94E0E448844208D101218E
:101E50001020FFF77EFF00211020FFF77AFF88E0B7
:101E6000DF48844208D101212020FFF772FF0021C2
:101E70002020FFF76EFF7CE0DA48844208D1012180
:101E80004014FFF759FF00216014FFF755FF70E081
:101E9000D548844209D10121C804FFF74DFF002134
:101EA0004FF40020FFF748FF63E0D048844209D197
:101EB00001210805FFF740FF00214FF48010FFF7D4
:101EC0003BFF56E0CA48844209D101214805FFF78B
:101ED00033FF00214FF40010FFF72EFF49E0C54803
:101EE000844208D101214020FFF733FF0021402028
:101EF000FFF72FFF3DE0C048844208D10121802038
:101F0000FFF727FF00218020FFF723FF31E0BB48C8
:101F1000844208D101218015FFF71BFF0021A01585
:101F2000FFF717FF25E0B648844209D101210804D4
:101F3000FFF702FF00214FF48030FFF7FDFE18E0AD
:101F4000B048844209D101214804FFF7F5FE002181
:101F50004FF40030FFF7F0FE0BE0AB48844208D1AD
:101F600001218804FFF7E8FE00214FF48020FFF7ED
:101F7000E3FE10BD00220288944B98420ED0994B8C
:101F800098420BD0B0F1804F08D0914B984205D0C9
:101F9000904B984202D0904B984204D14FF68F73E9
:101FA0001A404B881A438D4B984207D08C4B98426D
:101FB00004D04FF6FF431A40CB881A4302808B8827
:101FC00083850B880385814B98420BD0854B9842C3
:101FD00008D08B4B984205D08A4B984202D08A4B4E
:101FE000984201D10B7A038601238382704770B532
:101FF000002400220023058C4FF6FE763540058430
:10200000028C8388048B4FF68F752C40B51E2C40B4
:102010000D882C43751E2A400D892A434D882A437A
:102020006A4DA8420BD06F4DA84208D0744DA8420B
:1020300005D0744DA84202D0734DA84213D14FF67B
:10204000F7752A404D892A434FF6FB752A408D8843
:102050002A434FF6FF652B404FF6FF552B408D89E5
:102060002B43CD892B4383800483CD8885860284CE
:1020700070BD70B5002400220023058C4FF6EF766A
:1020800035400584028C8388048B48F6FF752C400C
:102090004FF6FF452C400D884FF6FF7606EA0525E2
:1020A0002C434FF6DF752A400D8906EA05152A43B1
:1020B0004D8806EA05152A43444DA84202D0494DF1
:1020C000A8421DD14FF67F752A404D894FF6FF7605
:1020D00006EA05152A434FF6BF752A408D8806EAA1
:1020E00005152A434FF6FF352B404FF2FF752B4065
:1020F0008D8906EA85052B43CD8906EA85052B43A4
:1021000083800483CD880587028470BD70B5002468
:1021100000220023058C4FF6FF6635400584028CB3
:102120008388848B4FF68F752C404FF6FC752C40BE
:102130000D882C434FF6FF552A400D894FF6FF7648
:1021400006EA05252A434D8806EA05252A431F4D40
:10215000A84202D0234DA8421DD14FF2FF752A405C
:102160004D894FF6FF7606EA05252A434FF6FF35DF
:102170002A408D8806EA05252A434EF6FF752B4036
:102180004DF6FF752B408D8906EA05152B43CD8949
:1021900006EA05152B4383808483CD8885870284D6
:1021A00070BD70B5002200230024058C4EF6FF762A
:1021B00035400584038C8488828B48F6FF752A405D
:1021C0004FF6FF452A400D8820E00000002C01401A
:1021D0000004004000080040000C004000100040D7
:1021E0000014004000340140004C01400050014008
:1021F0000054014000180040001C00400020004036
:102200000040014000440140004801404FF6FF7685
:1022100006EA05252A434DF6FF752B400D8906EA8F
:1022200005352B434D8806EA05352B43FA4DA84268
:1022300002D0FA4DA84208D14BF6FF752C408D898B
:102240004FF6FF7606EA85152C4384808283CD887D
:10225000A0F84050038470BD828B4FF2FF331A40C8
:102260008283828B4FF6FF7303EA01231A43828332
:102270007047F0B50C461546002200210026078C59
:102280004EF6FF7C07EA0C070784828B018C4FF621
:10229000FF7707EA043640F6FF473A404FF6FF77EC
:1022A00007EA05273A434FF6FF7707EA03373A4331
:1022B000D94FB8420ED0D94FB8420BD0B0F1804FB1
:1022C00008D0D74FB84205D0D64FB84202D0D64F2B
:1022D000B84206D14DF6FF77394046F4805739436E
:1022E00005E047F6FF57394044F48057394382836D
:1022F0000184F0BD828B4FF6F3731A408283828B88
:102300000A4382837047F0B50C461546002200212F
:102310000026078C4FF6FF6C07EA0C070784828BB8
:10232000018C4FF6FF7707EA04264FF60C773A4008
:102330004FF6FF7707EA03172F433A43B64FB842E9
:102340000ED0B64FB8420BD0B0F1804F08D0B44F8A
:10235000B84205D0B34FB84202D0B34FB84206D10D
:102360004FF6FF57394046F48077394305E04FF286
:10237000FF57394044F48077394382830184F0BDAC
:10238000028B4FF2FF331A400283028B4FF6FF732A
:1023900003EA01231A4302837047F0B50C46154641
:1023A000002200210026078C4FF6EF7C07EA0C077D
:1023B0000784028B018C4FF6FF7707EA041640F67C
:1023C000FF473A404FF6FF7707EA03373A434FF6A5
:1023D000FF7707EA05273A438F4FB8420ED08F4F59
:1023E000B8420BD0B0F1804F08D08D4FB84205D025
:1023F0008C4FB84202D08C4FB84206D14FF6DF77EF
:10240000394046F01007394305E04FF65F77394011
:1024100044F01007394302830184F0BD028B4FF66C
:10242000F3731A400283028B0A4302837047F0B5AC
:102430000C46154600220021068C4FF6FE773E40E2
:102440000684028B018C4FF60C7632407E1C06EA25
:1024500003162E433243704EB0420ED06F4EB04240
:102460000BD0B0F1804F08D06D4EB04205D06D4E0C
:10247000B04202D06C4EB04206D14FF6FD763140EC
:1024800044F00106314305E04FF6F576314044F063
:102490000106314302830184F0BD70B505460C4648
:1024A0005D4885420ED05D4885420BD0B5F1804F26
:1024B00008D05B48854205D05A48854202D05A4828
:1024C000854200D100E000BF208850B92389A2884E
:1024D00061882846FFF7ABFFE1882846FFF79EFF9B
:1024E00025E0208804280AD12389A288618828460B
:1024F000FFF753FFE1882846FFF742FF17E02088E7
:1025000008280AD12389A28861882846FFF7FBFEA4
:10251000E1882846FFF7EEFE09E02389A28861885A
:102520002846FFF7A6FEE1882846FFF795FE70BD16
:102530002DE9F04105460C4600260127608808B9C0
:10254000022600E00026A088012801D1022700E031
:1025500001272088A0B92389A28861882846FFF72F
:1025600066FFE1882846FFF759FF23893A4631463E
:102570002846FFF712FFE1882846FFF701FF13E026
:102580002389A28861882846FFF707FFE18828464B
:10259000FFF7F6FE23893A4631462846FFF747FF04
:1025A000E1882846FFF73AFFBDE8F0810A884B88AA
:1025B0001A438B881A43CB881A430B891A434B89D9
:1025C0001A438B891A43A0F8442070474FF6FF71D5
:1025D000818000210180C18041800172704700210B
:1025E000018041808180C180018141818181C181DF
:1025F0007047002101804180012181800021C1803C
:10260000018170470021018041808180C18001816A
:102610004181818170470000002C0140003401405D
:102620000004004000080040000C004021B1028876
:1026300042F00102028004E002884FF6FE731A4065
:102640000280704731B1B0F8442042F40042A0F853
:10265000442005E0B0F84420C2F30E02A0F8442064
:1026600070471AB183890B43838102E083898B43CE
:10267000838170478182704741EA0203A0F84830A5
:1026800070471AB183890B43838102E083898B43AE
:102690008381704701894FF6F872114001817047BC
:1026A0000A46002101894FF68F73194011430181B9
:1026B000704730B504460D4629462046FFF7F0FF27
:1026C000208940F00700208130BD2DE9F04104460B
:1026D0000D4616461F46602D06D13B460122314667
:1026E0002046FFF75AFE05E03B46012231462046D0
:1026F000FFF79DFE29462046FFF7D2FF208940F0D4
:1027000007002081BDE8F08130B50C460021018929
:10271000C9B24FF6FF7505EA032515432543294342
:10272000018130BD2DE9F04105460E461746984619
:10273000002443463A4631462846FFF7E5FF2C89F8
:102740004FF6F870044044F007044FF68F700440D1
:1027500044F070042C81BDE8F081F0B504460D46CC
:1027600016461F463B46324629462046FFF7CCFF19
:10277000208940F480402081F0BD0185828270472D
:102780000A46002101884FF68F73194011430180DA
:102790007047F0B50C4615461E4600210022002366
:1027A0000189028B038C4FF6F877394021434FF6AD
:1027B000FC473A4040F201173A434FF6DD773B4081
:1027C0004FF6FF7707EA06172F433B430181028349
:1027D0000384F0BD0A460021018B4FF68F73194028
:1027E0001143018370470A460021018B48F6FF73AD
:1027F00019404FF6FF7303EA022319430183704720
:102800000A460021818B4FF68F7319401143818353
:1028100070470A460021818B48F6FF7319404FF636
:10282000FF7303EA022319438183704721B10288B1
:1028300042F08002028004E002884FF67F731A4063
:102840000280704721B1828842F00402828004E055
:1028500082884FF6FB731A408280704721B18288CC
:1028600042F00802828004E082884FF6F7731A4033
:102870008280704721B1828842F00102828004E0A8
:1028800082884FF6FE731A40828070470A46002104
:10289000018B4FF6F77319401143018370470A46C5
:1028A0000021018B4FF2FF7319404FF6FF7303EACB
:1028B00002231943018370470A460021818B4FF69A
:1028C000F77319401143818370470A460021818BB9
:1028D0004FF2FF7319404FF6FF7303EA02231943C7
:1028E000818370470A460021018B4FF6FB73194024
:1028F0001143018370470A460021018B4FF6FF33D5
:1029000019404FF6FF7303EA02231943018370470E
:102910000A460021818B4FF6FB73194011438183D6
:1029200070470A460021818B4FF6FF3319404FF65E
:10293000FF7303EA02231943818370470A4600218B
:10294000018B4FF67F7319401143018370470A468C
:102950000021018BC1F30E014FF6FF7303EA02233E
:102960001943018370470A460021818B4FF67F731C
:1029700019401143818370470A460021818BC1F3BE
:102980000E014FF6FF7303EA022319438183704758
:102990000A460021018C4FF6FD7319401143018452
:1029A00070470A460021018C4FF6F7731940114316
:1029B000018470470A460021018C4FF6DF731940ED
:1029C0004FF6FF7303EA02131943018470470A4666
:1029D0000021018C4FF67F7319404FF6FF7303EA15
:1029E00002131943018470470A460021018C4FF6F7
:1029F000FF5319404FF6FF7303EA02231943018482
:102A000070470A460021018C4FF2FF7319404FF6C0
:102A1000FF7303EA02231943018470470A46002129
:102A2000018C4DF6FF7319404FF6FF7303EA023332
:102A300019430184704730B5002301248C40A3B2B0
:102A4000048C9C430484048C02FA01F5ADB22C433F
:102A5000048430BD30B5002304248C40A3B2048C20
:102A60009C430484048C02FA01F5ADB22C43048427
:102A700030BD70B5034600200024184618300125EB
:102A80008D40ACB21D8CA5431D8409B1082909D124
:102A900000EB6100056825F07005056005681543C9
:102AA00005600EE00D1FC5F34E052844056825F4AA
:102AB000E045056005684FF6FF7606EA02263543D5
:102AC000056070BD21B1028842F00202028004E07C
:102AD00002884FF6FD731A400280704721B10288C8
:102AE00042F00402028004E002884FF6FB731A40B1
:102AF0000280704721B1828842F08002828004E027
:102B000082884FF67F731A408280704702884FF6A2
:102B1000F7731A40028002880A4302807047828855
:102B20004FF68F731A40828082880A4382807047F2
:102B300002894FF6F8731A40028102890A43028122
:102B4000704702894FF67F731A40028102890A4357
:102B50000281704781847047818570478186704704
:102B60000187704781877047A0F84010704702883E
:102B70004FF6FF431A40028002880A4302807047E2
:102B80000146888E70470146088F70470146888F3E
:102B900070470146B1F8400070470146888C704785
:102BA0000146088D704702460020138A0B400BB186
:102BB000012000E000207047CA430282704730B510
:102BC0000246002000230024158A05EA01039589A6
:102BD00005EA010413B10CB1012000E0002030BD72
:102BE000CA4302827047000010B58CB004461E2311
:102BF0000BAA03A9204600F0ABFE0090009810B18C
:102C000001200CB010BD9DF82C00044400200B9056
:102C10000EE040489DF82C2050F8221003A800F048
:102C2000FFFD00B908E09DF82C00401CC0B20B90DD
:102C30009DF82C000728ECD300BF9DF82C00072836
:102C400063D2DFE800F004053C5E6564630000BF0A
:102C500031A001F07BF831A001F078F83FA001F03D
:102C600075F84EA001F072F85CA001F06FF86BA04F
:102C700001F06CF879A001F069F886A001F066F81F
:102C80008BA001F063F890A001F060F894A001F02F
:102C90005DF899A001F05AF89EA001F057F8A4A0A1
:102CA00001F054F8B0A001F051F8BDA001F04EF8C9
:102CB000C8A001F04BF8D4A001F048F89AE216A0A1
:102CC00001F044F8E0A001F041F800200B900EE084
:102CD000ED4800689DF82C2000EBC2004168EBA095
:102CE00001F034F89DF82C00401CC0B20B90E6486F
:102CF000007D9DF82C108842EADC07A001F026F840
:102D000078E205A001F022F8C4E171E245E219E29F
:102D1000ECE100003C0000200D0A00002D2D2D2DBF
:102D20002D2D2D2D2D2D2D2D2D2D2D2D2D2D2D2DD3
:102D30002D2D2D2D55534D4152542056332E312DCE
:102D40002D2D2D2D2D2D2D2D2D2D2D2D2D2D2D2DB3
:102D50002D2D2D2D2D2D2D200D0A00002020202081
:102D600055534D415254CAC7D3C9414C49454E549D
:102D7000454BBFAAB7A2B5C4D2BBB8F6C1E9C7C913
:102D8000B5C4B4AEBFDAB5F7CAD4BBA5BDBBD7E9ED
:102D9000BCFE2CCDA8B9FD200D0A0000CBFC2CC434
:102DA000E3BFC9D2D4CDA8B9FDB4AEBFDAD6FACA52
:102DB000D6B5F7D3C3B3CCD0F2C0EFC3E6B5C4C821
:102DC000CEBACEBAAFCAFD2CB2A2D6B4D0D02ED2D3
:102DD000F2B4CB2CC4E3BFC90D0A0000D2D4CBE6B9
:102DE000D2E2B8FCB8C4BAAFCAFDB5C4CAE4C8EBF5
:102DF000B2CECAFD28D6A7B3D6CAFDD7D628313061
:102E00002F3136BDF8D6C629A1A2D7D6B7FBB4AEAE
:102E1000A1A2BAAFCAFDC8EB0D0A0000BFDAB5D84F
:102E2000D6B7B5C8D7F7CEAAB2CECAFD292CB5A55C
:102E3000B8F6BAAFCAFDD7EEB6E0D6A7B3D63130F2
:102E4000B8F6CAE4C8EBB2CECAFD2CB2A2D6A7B37C
:102E5000D6BAAFCAFDB7B5200D0A0000BBD8D6B5AB
:102E6000CFD4CABE2ED0C2D4F6B2CECAFDCFD4CAF9
:102E7000BEBDF8D6C6C9E8D6C3B9A6C4DC2CD0C23C
:102E8000D4F6BDF8D6C6D7AABBBBB9A6C4DC2E0DF6
:102E90000A000000BCBCCAF5D6A7B3D63A7777774C
:102EA0002E6F70656E6564762E636F6D0D0A00007F
:102EB00055534D415254D3D037B8F6CFB5CDB3C3E7
:102EC000FCC1EE3A0D0A00003F3A202020202020CD
:102ED000BBF1C8A1B0EFD6FAD0C5CFA20D0A000051
:102EE00068656C703A202020BBF1C8A1B0EFD6FA1B
:102EF000D0C5CFA20D0A00006C6973743A2020205F
:102F0000BFC9D3C3B5C4BAAFCAFDC1D0B1ED0D0AB4
:102F10000A00000069643A2020202020BFC9D3C3E2
:102F2000BAAFCAFDB5C44944C1D0B1ED0D0A0A001B
:102F30006865783A20202020B2CECAFD3136BDF82F
:102F4000D6C6CFD4CABE2CBAF3B8FABFD5B8F12BC7
:102F5000CAFDD7D6BCB4D6B4D0D0BDF8D6C6D7AA91
:102F6000BBBB0D0A0A0000006465633A20202020E4
:102F7000B2CECAFD3130BDF8D6C6CFD4CABE2CBA47
:102F8000F3B8FABFD5B8F12BCAFDD7D6BCB4D6B4C6
:102F9000D0D0BDF8D6C6D7AABBBB0D0A0A00000028
:102FA00072756E74696D653A312CBFAAC6F4BAAFFA
:102FB000CAFDD4CBD0D0BCC6CAB13B302CB9D8B135
:102FC000D5BAAFCAFDD4CBD0D0BCC6CAB13B0D0A6E
:102FD0000A000000C7EBB0B4D5D5B3CCD0F2B1E055
:102FE000D0B4B8F1CABDCAE4C8EBBAAFCAFDC3FBDE
:102FF000BCB0B2CECAFDB2A2D2D4BBD8B3B5BCFC71
:10300000BDE1CAF82E0D0A002D2D2D2D2D2D2D2DB3
:103010002D2D2D2D2D2D2D2D2D2D2D2D2D2D2D2DE0
:103020002D2D414C49454E54454B2D2D2D2D2D2DEB
:103030002D2D2D2D2D2D2D2D2D2D2D2D2D2D2D2DC0
:103040002D2D2D200D0A00002D2D2D2D2D2D2D2D5A
:103050002D2D2D2D2D2D2D2D2D2D2D2D2D2D2D2DA0
:103060002DBAAFCAFDC7E5B5A52D2D2D2D2D2D2DC2
:103070002D2D2D2D2D2D2D2D2D2D2D2D2D2D2D2D80
:103080002D2D2D2D200D0A007800002025730D0A0E
:1030900000000000EFA000F059FE00200B901AE0A5
:1030A000FC4909689DF82C2001EBC20101AB02AA82
:1030B000486803A900F072FCF64800689DF82C10DF
:1030C00050F8312003A9F4A000F040FE9DF82C0038
:1030D000401CC0B20B90EF48007D9DF82C10884238
:1030E000DEDCAFF2CC3000F031FE83E0AFF2D8305E
:1030F00000F02CFE0BAA03A9204600F02BFD9DF842
:103100002C00C8B9694603A800F0BDFB0B909DF8E0
:103110002C0020B9E5A0009900F018FE0EE09DF803
:103120002C00042801D002206BE5E3A000F00EFE85
:103130000120D849C87501E0022062E5DDA000F059
:1031400005FE57E0DBA000F001FE0BAA03A9204614
:1031500000F000FD9DF82C00C8B9694603A800F0F6
:1031600092FB0B909DF82C0020B9D8A0009900F09C
:10317000EDFD0EE09DF82C00042801D0022040E572
:10318000D5A000F0E3FD0020C249C87501E002208F
:1031900037E5C8A000F0DAFD2CE0C6A000F0D6FDAF
:1031A0000BAA03A9204600F0D5FC9DF82C00C8B955
:1031B000694603A800F067FB0B909DF82C0078B9D6
:1031C000B449009881F8EC00084690F8EC0018B17A
:1031D000C6A000F0BBFD07E0CBA000F0B7FD03E008
:1031E00002200EE502200CE5B2A000F0AFFD01E0E8
:1031F000012006E500BF002003E510B50121C94804
:10320000FFF7DAFC4FF6FF71C648FFF7A5FC002177
:10321000C448FFF79FFC00209E49C1F8F00010BD94
:1032200010B50121BF48FFF7BEFC012808D199481D
:10323000D0F8F0004FF6FF7108449649C1F8F0004D
:10324000B848FFF7AAFC9349D1F8F0100844914917
:10325000C1F8F0000846D0F8F00010BD10B501210B
:10326000B048FFF7ACFC01280AD18A4908698047B9
:103270000021AC48FFF76EFC6421AA48FFF76CFC04
:103280000121A848FFF7ACFC10BD7FB505460C46F0
:1032900001210420FEF743FDADF80850ADF80440CD
:1032A0000020ADF80A00ADF8060001A99D48FEF720
:1032B00061FE012241219B48FFF7D3F91E208DF8C2
:1032C000000003208DF801008DF8020001208DF828
:1032D00003006846FDF79FFC01219248FFF7A6F91D
:1032E0007FBD10B5044604EBC40000EB04100122BE
:1032F000C2EB800081B24FF47A70FFF7C6FF012065
:103300006449C87510BD30B595B0054613AB12AA17
:1033100009A9284600F042FB044614B1204615B026
:1033200030BD0020149026E05A4909689DF85020CD
:1033300001EBC20113AB11AA486801A900F02EFBF2
:1033400004460CB12046EAE709A901A800F068FA92
:1033500060B99DF844009DF84810884201DD0220C4
:10336000DDE79DF850004B4988750AE09DF8500054
:10337000401CC0B214904748007D9DF85010884210
:10338000D2DC00BF4348007D9DF85010884201D137
:103390000420C4E714A9284600F04DFC04460CB1F3
:1033A0002046BCE79DF850003A4948750020B6E732
:1033B0002DE9F0419AB03748847D007DA04202DCBF
:1033C0001AB0BDE8F0813349096801EBC40106ABCE
:1033D00007AA486808A900F0E1FA08A952A000F07D
:1033E000B5FC0026BAE02B48008B0121B140084013
:1033F000D8B122214EA000F0A9FC304600F00EFC0E
:1034000024492431471839464AA000F09FFC222164
:1034100047A000F09BFC304600F000FC1D49243121
:10342000084410A941F826008EE0304600F0F6FB73
:1034300018492431085810A941F826001548C07DC4
:1034400030B910A850F826103BA000F07FFC7BE0BC
:1034500074E000002D2D2D2D2D2D2D2D2D2D2D2DFC
:103460002D2D2D2D2D2D2D2D2D2D2D2D2DBAAFCAE0
:10347000FD204944202D2D2D2D2D2D2D2D2D2D2D93
:103480002D2D2D2D2D2D2D2D2D2D2D2D2D2D2D2D6C
:10349000200D0A00780000202573206964206973DC
:1034A0003A0D0A3058253038580D0A004845583A28
:1034B000305825580D0A00003136BDF8D6C6B2CEB8
:1034C000CAFDCFD4CABE210D0A0000004445433ACC
:1034D000256C750D0A0000003130BDF8D6C6B2CE9D
:1034E000CAFDCFD4CABE210D0A00000052756E205D
:1034F00054696D652043616C63756C6174696F6EAE
:10350000204F4E0D0A00000052756E2054696D6503
:103510002043616C63756C6174696F6E204F464621
:103520000D0A0000000800400D0A25732800000065
:103530002563000025730000256C750010A850F865
:10354000261095A000F002FC9DF81C00401EB04221
:1035500002D093A000F0FAFB701CC6B29DF81C00CC
:103560008642FFF640AF8FA000F0F0FBFFF745FE6C
:103570008D48407D0B280DD2DFE800F0060D151EAA
:1035800027323F4E5F7287008749096851F834003F
:103590008047054690E0844A126852F8341010982B
:1035A0008847054688E0804B1B6853F83420DDE9E6
:1035B0001001904705467FE07B4F3F6857F8343055
:1035C00010A807C89847054676E0DFF8DCC1DCF8AC
:1035D00000C05CF8347010A80FC8B84705466BE00F
:1035E0001498DFF8C4C10090DCF800C05CF83470B7
:1035F00010A80FC8B84705465EE0DDE91401DFF802
:10360000A8C1CDE90001DCF800C05CF8347010A856
:103610000FC8B84705464FE0DDE914121698DFF8E9
:1036200088C1CDE900120290DCF800C05CF834706B
:1036300010A80FC8B84705463EE0DDE91423DDE9D0
:103640001610DFF864C1CDE90023CDE90210DCF8E3
:1036500000C05CF8347010A80FC8B84705462BE0CE
:10366000DDE91523DDE91710CDE90123CDE90310CC
:103670001498DFF834C10090DCF800C05CF83470B6
:1036800010A80FC8B847054616E0DDE91623DDE9A6
:103690001810CDE90223CDE90410DDE91401DFF8AB
:1036A00008C1CDE90001DCF800C05CF8347010A856
:1036B0000FC8B847054600BF00BFFFF7B1FD9DF832
:1036C000180001280CD13848C07D20B9294637A000
:1036D00000F03CFB07E0294636A000F037FB02E093
:1036E00033A000F033FB304890F8EC0088B12E484E
:1036F000D0F8F0000A21B0FBF1F201FB12072A48D2
:10370000D0F8F000B0FBF1F83A4641462CA000F0AA
:103710001DFB00BF54E670B53148008800F400403E
:10372000002833D02E48057800202E4948551E48E1
:1037300081682C48884704461CB91B49C8688047E3
:1037400021E02848FFF750FA0546012D00D02C460D
:10375000CCB1012C06D0022C08D0032C0AD0042CAA
:1037600010D10BE020A000F0F1FA0BE021A000F056
:10377000EDFA07E022A000F0E9FA03E023A000F050
:10378000E5FA00BF00BF00201549088070BD014662
:1037900008687047016070473058255800000000E5
:1037A0002C00000029000000780000203D256C75E9
:1037B0003B0D0A003D305825583B0D0A0000000023
:1037C00046756E6374696F6E2052756E2054696D14
:1037D000653A25642E2531646D730D0A00000000E2
:1037E000240000206C010020BAAFCAFDB4EDCEF376
:1037F000210D0A00B2CECAFDB4EDCEF3210D0A00B0
:10380000B2CECAFDCCABB6E0210D0A00CEB4D5D203
:10381000B5BDC6A5C5E4B5C4BAAFCAFD210D0A0041
:1038200002460AE010780B78984201D001207047D8
:10383000107800B902E0521C491CF3E700BF0020D9
:10384000F5E706E002780A70027802B902E0401C4F
:10385000491CF7E700BF70470146002005E00A78E1
:1038600002B903E0421CD0B2491CF8E700BF704720
:1038700010B50246012000E050430B1EA1F10104E7
:10388000E1B2F9D110BD2DE9F04307460E460025FF
:103890004FF00A083C46002030601FE020783928AD
:1038A00002DC207830280ADA2078462802DC2078EA
:1038B000412804DA2078582809D1012D07D1207831
:1038C000412801DB4FF01008681CC5B205E02078E4
:1038D00000B904E00120BDE8F083641CDEE700BF0E
:1038E0003C46B8F1100F0FD1032D01DA0220F2E7A8
:1038F0002078302806D16078582803D1A41CA81E4F
:10390000C5B204E00320E6E70DB90420E3E71BE0BD
:103910000DB1681EC5B22078392806DC2078302821
:1039200003DB2078A0F1300902E02078A0F137090C
:1039300029464046FFF79CFF316809FB00103060C4
:10394000641C207800B900E0E2E700BF0020C2E775
:1039500010B50446002010700BE020780870641C3D
:10396000491C1078401C10701078984201DB01202F
:1039700010BD2078202802D020780028EDD100202A
:10398000087000BFF4E70146491C00E0491C0878B4
:10399000202801D10029F9D1087870472DE9FF4F7F
:1039A00085B08046894600270020049003900120BE
:1039B00002904FF0000B002544461DE0207820289F
:1039C00016D005F07F00052812DA0DB945F0800504
:1039D00005F07F00042803D120782A2800D00EE0CB
:1039E000207805F07F010DF80100681CC5B202E0E7
:1039F000852D00D103E0641C20780028DED100BFB3
:103A00008DB1002005F07F010DF80100CBA16846C3
:103A1000FFF706FF18B900210898017002E00121A4
:103A20000898017000254FF0000A444614E0641C19
:103A30000AF1010000F0FF0A2078202802D0207847
:103A40002A2809D12046FFF79EFF0646282E03D0DC
:103A50002A2E01D0CDF810A02078282802D0207876
:103A60000028E4D14446049810B10498401C044452
:103A70004FF0000A002654E0207810B94FF0010AF8
:103A800050E02078282803D116B9781CC7B213E07B
:103A90002078292808D13EB917B1781EC7B201E0B5
:103AA0004FF0010A47B93DE02078222804D10EB931
:103AB000012000E00020064647B9207820282FD0BA
:103AC000207889F8000009F1010929E020782C28E4
:103AD00004D101200290681CC5B214E0207820288F
:103AE00011D0207828280ED04DB9BBF1050F06DA89
:103AF00020780DF80B000BF1010000F0FF0B02988D
:103B0000401CC0B20290012F0AD10298022807D1AE
:103B10000298401CC0B202900398401CC0B20390AF
:103B2000641CA9E700BF0398012809D100200DF803
:103B30000B0082A16846FFF773FE08B900200390CE
:103B4000079903980870002089F80000504609B0D2
:103B5000BDE8F08FF0B50346154600200022002690
:103B6000002455E01F782C2F01D104B901221F78C1
:103B7000292F01D01F780FB904B94AE0002E34D1A3
:103B80001F78302F02DB1F78392F11DD1F78612F4E
:103B900002DB1F78662F0BDD1F78412F02DB1F78B9
:103BA000462F05DD1F78582F02D01F78782F0CD1B3
:103BB00002B12EE01F78612F03DB1F78203F0F70CA
:103BC00001E01F780F70491C1FE01F78222F04D1DD
:103BD00002B11EE00126012417E01F78202F14D027
:103BE0001F782C2F11D0FF2613E01F78222F00D131
:103BF000002402B10DE044B11F785C2F02D15B1CA0
:103C0000471CF8B21F780F70491C471CF8B25B1CA8
:103C1000A8E700BF00270F702E70F0BD02460020FD
:103C2000002105E0474B5B5C0344D8B24B1CD9B282
:103C30009142F7DB70472DE9F043B5B005460F46DA
:103C40000024002604E000213E488155701CC6B2C5
:103C50000A2EF8DB06E06D1C287818B9012035B073
:103C6000BDE8F08328782828F5D16D1C61E034AADE
:103C700069462846FFF76EFF064635449DF8D0009A
:103C800020B1012827D0FF284CD149E09DF8000041
:103C900000B333A96846FFF7F6FD06460EB10220D1
:103CA000DDE72046FFF7BAFF26490A31339A0A506A
:103CB000A1F12400008B0121A140884321491A3938
:103CC000088304211F480155601CC4B20A2C01DD81
:103CD0000320C4E726E06846FFF7BEFD401C00F065
:103CE000FF082046FFF79AFF16490A3100EB010949
:103CF00049466846FFF7A5FD12481A38018B012096
:103D0000A040014388B20F491A3908830D4800F8D2
:103D10000480601CC4B20A2C01DD03209FE701E08F
:103D200002209CE700BF2878292801D0287800B914
:103D300000E09CE700BF3C70002090E7766F69646C
:103D40000000000092000020704700000FB40449FA
:103D500010B503AA029800F0F5F910BC5DF814FB49
:103D60002000002070B5044685690068C10601D5B1
:103D7000302600E02026C00707D070BDD4E901211D
:103D800030469047206A401C20626D1EF6D570BDFB
:103D900070B5044685690078C00707D170BDD4E9C5
:103DA000012120209047206A401C20626D1EF6D51C
:103DB00070BD70B50C460546012A05D028788006EE
:103DC00000D5EA69002302E0012305E05B1C934271
:103DD00002D2E05C0028F9D1A869E618C01AA861EF
:103DE000286A184428622846FFF7BCFF04E0D5E99A
:103DF000012114F8010B9047B442F8D32846FFF78D
:103E0000C7FF70BD2DE9F0410646002410687529F2
:103E1000314616A510D0AFF30080002802DA4042E8
:103E200013A507E031688A0701D512A502E049070A
:103E300004D511A5012401E0AFF3008000210A227E
:103E400006F1240709E0B0FBF2FCB0FBF2F302FB41
:103E50001C00303078541846491C0028F3D1234602
:103E60002A463046BDE8F04100F0FCB800000000F2
:103E70002D0000002B0000002000000070B504465B
:103E80000D4621461068AFF300802188090502D550
:103E90000F4A7A4402E00E4A7A440E32002104F1BD
:103EA000240305E000F00F060009965D5E54491CEE
:103EB0000028F7D120780023000704D5702D02D008
:103EC00009B1022311322046BDE8704000F0CAB8A3
:103ED0009CA700002DE9F05F894604464FF0000AD8
:103EE000DFF874B1FB44C0F820A02046E1688847A1
:103EF000002874D0252806D0D4E901219047206AF3
:103F0000401C2062F1E700265F462046E1688847B2
:103F10002028054607DB312D05D2781910F8200C32
:103F200008B10643F1E7B00701D526F00406C4F84E
:103F30001CA00027C4F818A02A2D09D0284600F09C
:103F400061F938B304EB8708303DC8F8185019E020
:103F500059F8041B204604EB87029161E168884709
:103F6000012F054618D1E069002820DA26F0200646
:103F70001DE0D8F8180000EB800005EB4000303859
:103F8000C8F818002046E1688847054600F03AF96D
:103F90000028EED1012F0AD02E2D08D12046E1684D
:103FA00088477F1C0546022F46F02006C4DBA06927
:103FB000002803DA404246F00106A061F00701D074
:103FC00026F010066C2D0BD0682D09D04C2D39D061
:103FD0006A2D35D0742D35D07A2D33D016E038E0E7
:103FE000E1682F4620468847B842054609D16C2F24
:103FF00026D04FF48060E168064320468847054696
:1040000004E06C2F1AD04FF4807006430DB3A5F175
:104010004100192802D8203546F400664A46294650
:10402000204626604E46FCF7DDF880B101280BD013
:10403000F61D26F0070000F1080956E74020E4E7E6
:104040008020D8E70020D6E706F104094DE728468E
:1040500052E7206ABDE8F09F72A7000070477047E2
:10406000704770472DE9F0470D4699469246044641
:1040700000F124080168880604D5E06921F01001E8
:10408000216000E00120A84201DD471B00E000277D
:10409000A1697A1902EB0900081AA0612078C0060C
:1040A00002D42046FFF75EFE002608E0D4E9012195
:1040B0001AF806009047206A401C761C20624E4584
:1040C000F4DB2078C0060AD52046FFF74BFE06E059
:1040D000D4E9012130209047206A401C2062381E1C
:1040E000A7F10107F4DC07E0D4E9012118F8050085
:1040F0009047206A401C2062281EA5F10105F3DCD0
:104100002046FFF745FE2078000602D50220BDE8D4
:10411000F0870120FBE710B5436913B1AFF30080CE
:1041200001E0FFF746FE012010BD127800F12401E6
:104130000A7000224A700122EDE711684FF0FF3249
:10414000E9E70000074B70B50D467B4400F011F81D
:104150000446284600F020F810B14FF0FF3070BD43
:10416000204670BD45C9FFFF01694A1C02610878FD
:10417000704700B58FB0CDE90131002105910549A7
:104180007944CDE9031011466846FFF7A3FE0FB04E
:1041900000BD0000E5FFFFFF007B00F080007047DE
:1041A000754600F02BF8AE4605006946534620F0F0
:1041B0000700854618B020B5FCF716FDBDE8204085
:1041C0004FF000064FF000074FF000084FF0000BD3
:1041D00021F00701AC46ACE8C009ACE8C009ACE886
:1041E000C009ACE8C0098D46704710B50446AFF36E
:1041F00000802046BDE81040FCF712B80048704728
:104200003402002030380A2801D2012070470020F3
:1042100070478080808080808080808080808080E7
:10422000808080808080808080808080808080808E
:10423000808080808080808080808080808080807E
:10424000808080808080808080808080808080806E
:10425000808080808080808080808080808080805E
:10426000808080808080808080808080808080804E
:10427000808080808080808080808080808080803E
:10428000808080808080808080808080808080802E
:10429000808080808080808080808080808080801E
:1042A000808080808080808080808080808080800E
:1042B00080808080808080808080808080808080FE
:1042C00080808080808080808080808080808080EE
:1042D00080808080808080808080808080808080DE
:1042E00080808080808080808080808080808080CE
:1042F00080808080808080808080808080808080BE
:1043000080808080808080808080808080808080AD
:10431000808080808080808080808080808080809D
:10432000808080808080808080808080808080808D
:10433000808080808080808080808080808080807D
:10434000808080808080808080808080808080806D
:10435000808080808080808080808080808080805D
:10436000808080808080808080808080808080804D
:10437000808080808080808080808080808080803D
:10438000808080808080808080808080808080802D
:1043900080808080807F80807F7F807F80807F7F23
:1043A0008080807F80808080807F80807F7F7F8012
:1043B000808080807F8080808080807F7F80808000
:1043C0007F7F8080807F80808080808080808080F0
:1043D000807F7F7F80808080808080808080807FE1
:1043E000807F7F807F7F7F7F7F7F807F7F7F8080D8
:1043F0007F7F7F7F7F80807F7F7F80808080807FC6
:10440000807F7F7F807F7F807F7F807F7F7F8080B6
:1044100080808080808080808080808080807F7F9E
:104420008080807F808080807F808080808080808E
:10443000808080808080808080808080808080807C
:1044400080807F7F807F808080808080808080806F
:10445000808080807F80807F7F80807F7F7F7F7F64
:10446000807F7F80807F7F7F808080807F80808052
:104470008080807F7F8080807F7F7F80807F807F43
:104480007F7F7F80808080807F7F8080807F808032
:10449000807F808080807F7F7F808080807F808021
:1044A000808080808080808080808080807F7F7F0F
:1044B0007F807F7F808080807F7F7F80807F7F7F05
:1044C0007F8080808080807F7F807F80807F7F80F2
:1044D00080807F7F7F80807F7F80808080807F7FE3
:1044E0007F8080807F7F7F7F80807F7F80808080D3
:1044F0007F7F7F80807F7F7F7F808080807F7F7FC6
:104500007F7F808080807F7F7F7F8080807F7F7FB4
:104510007F808080807F7F7F7F7F8080807F7F7FA4
:104520007F7F8080807F7F7F7F808080807F7F7F94
:104530008080807F7F7F7F808080807F7F7F808082
:1045400080807F7F7F7F8080807F7F7F8080807F73
:104550007F7F7F8080808080807F7F7F7F80808062
:1045600080807F7F7F7F80808080807F7F7F7F8053
:104570008080807F7F7F8080807F7F808080807F41
:104580007F7F7F8080807F7F7F7F808080807F7F34
:104590007F7F808080807F7F7F7F808080807F7F23
:1045A0007F7F807F8080808080807F7F7F7F7F8013
:1045B0008080807F7F7F7F7F80808080807F7F7F03
:1045C0008080807F7F7F7F808080807F7F7F7F80F3
:1045D0008080807F7F7F7F7F808080807F7F7F7FE4
:1045E000808080807F7F7F7F808080807F7F7F7FD3
:1045F0008080807F7F7F7F808080807F7F7F8080C2
:104600007F7F7F7F80808080807F7F7F7F808080B2
:10461000807F7F7F7F7F808180807F7F7F7F7F80A3
:104620008080807F7F7F7F808080807F7F7F7F8092
:1046300080807F7F7F7F808080807F7F7F7F808082
:10464000807F7F7F8080807F7F7F7F8080807F8072
:1046500080807F7F7F7F808080807F7F7F7F808062
:104660008080807F7F7F7F808080807F7F7E7F8053
:10467000808080807F7F7F7F8080807F7F7F7F7F43
:10468000808080807F7E7E7F80808080807F7F7F33
:104690007F808080807F7F7F7F808080807F7F7F22
:1046A0007F7F8080807F7F7E7F7F8080807F7F7F15
:1046B0007F7F7F7F8080807F7F7F7F808080808002
:1046C000807F7F7F8080807F7F7F7F808180807FF1
:1046D0007F7F7F7F80808080807F7F7F7F808080E2
:1046E000807F7F7F7F7F8080807F7F7F7F80807FD4
:1046F0007F7F808080807F7F7F7F8080807F7F7FC3
:104700008080807F7F7E7F8081807F7F7F7F7F80B2
:10471000808080807F7F7F80807F7F7F7F808080A0
:104720007F7F7F8080818180807F7F7F7F7F80808F
:10473000807F7E7E7E7F8081817F80828788867F6A
:104740007A787B8082817E7C7C7D80818181818181
:1047500081828586847E78777A808483807D7D7F60
:1047600080818180808080828D9B9E8E725D5E7351
:104770008A948C7D72747D8688868482817E8798F7
:10478000A191705657728E99908077787D80808243
:104790008587847C8194A59972515372949B8F7FF5
:1047A00078797C7C7D83888985797183A1B19967CB
:1047B000455279989E8E817A7976767B8790908122
:1047C000706D8DB0B0814F46688E9B9185807F7AE9
:1047D00074757C8B928A796F7BA1B69760495D7FF7
:1047E000919091908471696F7F8C938D81726C84AC
:1047F000ABB48F5A49607B8D99A0957760647586BC
:104800009196907C696991B7B07B51526C7D8B9C7D
:10481000A38D6F60697989969987706872A2BFA02D
:10482000674B57718097AA9F786062717F919C96C1
:1048300079666882B6C28D52465D748EA9B08D6469
:104840005967768CA1A18366636E8BC3C784404091
:10485000627B94B3B08057596C7C95AB9B725F6759
:10486000719FD6BB63324A6C7EA6C7A4624F606D4F
:1048700082A6B28B62606A72B7E3A644365667823C
:10488000C2CB88555A5F6591BFA87461676275D2C3
:10489000EC853340505D9FDDBB715A59496BB3C203
:1048A00091726C565193F3CF6B474A3A62B9DBA1D0
:1048B00075684B4888B6A68D86614569AEDDB877C8
:1048C00050363C80BDBDA583583D5B8FA9A8A1791A
:1048D000515272A9DEB8734C3A4282B9C0A28058D4
:1048E000415B8DA7A89E7D565471AFD5AB71543BEB
:1048F0004889B9B3A0815747668A9CA49F785C62B7
:1049000071AACAA0765E41538AA9AA9D815D536AA5
:104910008795A09879676A75A9B7988166485C827F
:1049200096A09F856A616E798B99947E776F79AA3C
:10493000AA8A80664E66848F999A856E6C73778694
:10494000968B807D7381A79C8B8569596D7E899438
:10495000968573717376868F89857F75899B919112
:10496000876D676F75818D8E867D7B767984868570
:10497000867F788C918C9184727471748084858424
:10498000807C7A7E838286847E81938F8E8D7B71FC
:10499000747178828283817C7B7C81838686827D30
:1049A000838D8B8F8B7C7974717A7E8083807E7C03
:1049B0007D808285868381868A8A8C887F7C7775D4
:1049C0007B7A7F7F7E7E7C7D8181858583828A8CD8
:1049D0008B8C867E7C76787A7A7D7C7B7C7A7D80F7
:1049E00082868584858A8C8C8C86817D787879799D
:1049F0007C7B7B7A7A7B7C7F838384868B8B8C8B9E
:104A00008684817D7E7B7C7B7A7A78787A7A7E7FD9
:104A1000818285888A8A8A87868381807F7F7D7C60
:104A20007B797A797A7B7C7E7F8386878A87868585
:104A300083838282827F7F7D7C7B7A7B7C7C7D7D91
:104A4000828385868585848283818281807F7E7D45
:104A50007C7C7D7C7D7D7E81838484848583828152
:104A6000818180807F7E7E7D7D7D7D7E7E7F828355
:104A70008584848382818080807F7F7E7E7D7D7D32
:104A80007E7E7E7E80828484848484828181818013
:104A90007F7F7E7E7D7D7D7E7E7E7F7F8283848420
:104AA000848383818181807F7F7F7E7D7D7D7E7E0B
:104AB0007E7E7F8183848484848382818180807FE1
:104AC0007F7E7E7D7D7E7E7E7E7F818283848484E8
:104AD0008382818181807F7F7F7E7E7E7E7E7E7EDF
:104AE0007F7F81838384848383818181807F7F7FB3
:104AF0007E7E7E7E7E7E7E7E7F80828384848483B3
:104B000083818180807F7E7E7E7E7D7E7E7E7E7FB5
:104B10007F80828484848584838281807F7E7E7E80
:104B20007E7D7D7D7E7E7E7E7F7F82838484848485
:104B300084828181807F7F7E7E7E7E7E7E7E7E7E81
:104B40007E7F8081838484848483828180807F7E51
:104B50007E7E7E7E7E7E7E7E7F7E7E7F8183838460
:104B6000858484838281807F7F7D7E7D7E7E7E7E44
:104B70007E7E7F7E7F81828384848585848282801D
:104B80007F7F7E7D7D7D7D7D7E7E7E7E7E7E808044
:104B9000838384848584848281807F7E7E7D7D7D05
:104BA0007D7D7D7E7E7F7F7F8081838384858585FB
:104BB00085838281807F7E7D7C7D7C7D7E7D7E7F06
:104BC0007F7F7F8082838485868686858482817FBD
:104BD0007E7D7C7B7C7C7C7D7D7E7F7F807F8080FA
:104BE00083848686878687858481807E7D7C7B7BA7
:104BF0007B7B7D7D7F8080818181828181848486B1
:104C0000868787868583817F7E7C7B7A7B7B7C7CA5
:104C10007D7E7F8080808181808180858288878879
:104C200087878582817E7D7B7A797B7A7C7D7E7F9A
:104C30008181818282828181808581898588878640
:104C40008382807C7D797B797B7B7E7E7F82808383
:104C50008184818280817F7D85808B858A8787841E
:104C6000827F7C7C787A7A797D7D7F808382848262
:104C7000828280807E7E7E7C84828B888A89868503
:104C80007F7E7C7879777C787F7C82818583848342
:104C90008281807E7E7C7D7C7F86818F888D8985E8
:104CA000847D7C797678767C798081828683868320
:104CB0008281807E7C7D7B7C7F7C81808D859189DB
:104CC0008D85837E7A767A737B77807D83828783F6
:104CD0008581867F827E7D7D7E7B7E7D7F7F7E86D9
:104CE0008A8A8E8889827D7C747777777C7C7F83C3
:104CF0008285848383817F7F7D7F7C7E7D7E7E80B5
:104D00007F817E868B898D8784827A797777797A9D
:104D10007E8080828382828181807F7F807E7F7E91
:104D20007F7E807E807F817F8989898C8680807963
:104D30007878787A7E7F8182828182807F80817F8D
:104D40007F807F7E7F7F7F7F7F7F80807F848B8956
:104D50008988817C7A79777B7E7F81838180807F5F
:104D60007E80808080817F7F7F7F7D807F7F7F804E
:104D70007F7F7F8789868686817C7B7C7A7B7F7F2D
:104D80008080817F7F7F807F7F81817E80807F7E2A
:104D9000807F80808180808080878A868485827BF6
:104DA0007A7C7C7B7E807F7F80807E7F80807F801E
:104DB00081807E7F807E7E7F807F7F7F807F8388F3
:104DC00089868684807C7D7D7C7C7E7F7F7E807FE3
:104DD0007E7F81807F8081807F80807F7F7F807FDA
:104DE0007F7F7F81878A878586837E7C7E7E7C7DB0
:104DF000807F7D7E7F7F7E7F8080808081808080BD
:104E0000807F8080807F7F7F828789868585837F82
:104E10007C7E7F7D7D7F7F7D7C7D7E7D7E7F8180B2
:104E200081808180808080808080807F808588866E
:104E30008385847F7C7D7F7E7D7E7F7E7C7C7E7E85
:104E40007E7E818180808180808080808080808063
:104E500080848786848484807D7E7F7F7E7E7F7E43
:104E60007C7C7D7D7E7E8080808080808080818152
:104E700081808080818486848383827F7E7E7F7E22
:104E80007E7F7F7E7C7D7D7E7E7F80808080808037
:104E900080808080808080828586848483817F7EFC
:104EA0007F7F7F7E7F7F7E7C7C7D7E7E7E7F80801D
:104EB0007F808080808081818081858685838483D6
:104EC000827F7F7F817F7E7E7E7C7C7C7D7D7D7E00
:104ED00080807F7F808081808181828385868685B6
:104EE000848381808080807F7F7E7D7C7B7C7D7DD4
:104EF0007D7E7F7F7F7F80808081828283858786A1
:104F000086858482818080807F7F7E7D7C7B7B7CA8
:104F10007C7C7D7E7F7E7F7F80808181828386878F
:104F20008686858482818181817F7F7E7E7C7C7B79
:104F30007C7C7D7D7E7E7E7E7F7F7F80818184867E
:104F40008786868584828282828180807F7D7D7C47
:104F50007C7C7C7D7D7D7D7E7E7E7F7F8081838568
:104F60008686868584828282818180807F7E7D7C28
:104F70007C7C7C7D7D7D7E7E7E7F7F7F8081838546
:104F800086868585838282818180807F7F7E7D7D0C
:104F90007D7D7D7D7E7F7F7F7F8080808182848517
:104FA000858585838281818080807F7F7E7D7D7DF8
:104FB0007D7D7E7E7F7F7F7F8080808082838484F2
:104FC0008584848282818180807F7F7E7E7E7E7EDA
:104FD0007E7E7E7E7E7F7F7F7F7F808182838384D3
:104FE0008483838281818180807F7F7F7E7E7E7EBD
:104FF0007E7E7E7E7E7E7F7F7F7F818182838383B4
:10500000838282828181808080807F7F7F7E7E7E9E
:105010007E7E7E7E7E7E7F7F7F8081818182828296
:1050200082818181818180808080807F7F7F7E7E80
:105030007E7E7E7E7E7E7F7F808081818181818178
:1050400081818180808080807F7F7F7F7F7E7E7F67
:105050007F7F7F7F7F7F8080818181818181808050
:105060008080807F7F7F7F7F7E7F7F7F7F7F7F7F4E
:105070007F7F7F808080818181818080807F7F7F32
:105080007F7F7F7F7F7F7F7F7F7F8080808080802A
:105090008080808080808080807F7F7F7F7F7F7F17
:1050A0007F7F808080807F7F7F80808080807F7F07
:1050B0007F7F7F7F8180807F7E7E7F7F81818180F7
:1050C000807F7F7F7F7E7F7F81818180807E7D7EEC
:1050D000808181807F7F8081817F7E7D7D7F8182D5
:1050E000817F7E7F80808181817F7E7E7E7F8080C8
:1050F00080808080807F7E7E7F80808080807F7EB9
:105100007E7E7F808181807F7F7F8080807E7E7EAB
:10511000808182817F7D7D7E808181807F7F7F7F96
:105120007E7E7F8081807F7E7E7F8182817F7E7E8A
:105130007F808180807F7F7E7F808181817F7E7D77
:105140007F8081807F7E7E808181807E7E7F808067
:10515000817F7F7F7F80807F7F7E7E7F8080807F5A
:105160007F7F7F808181807F7F7F8181807F7E7F45
:10517000808181807E7D7D7D7C7C7D7E8081818043
:105180007F7F8081807F7D7D7E7F80807E7C7C7E36
:1051900081838482807F7F7F7F7F808690948E81D1
:1051A000756F747C83827D79797D8284848282822A
:1051B00083817F7F8998A29981685F687B87877EDA
:1051C000787A80868783818284827F79798497A4A4
:1051D0009F876C606576838682818183827F7D7FF5
:1051E0008587847D7877859AABA2856659637885B3
:1051F00088827F81837F7C7C838A8B847A747584A8
:105200009DB0A7835F535F778589898A8A857A7283
:1052100075818D8F877B74737F9BB4AB855D505E8A
:105220007480888F969182706970839093887D7561
:10523000737993ABA987635964707B8C9A9B8C7745
:105240006B6A72808C938F8377717191B4B7906021
:105250004D5C6C7E95A5A0856B656A7385959B8D6D
:105260007A6E6E7192BDC48F574657697D99B2A60A
:1052700081655F636E88A3A28A7269696D90CACEE8
:105280008D4E41546482AEBF9D6E5B60647496AE79
:105290009E7C696563739CD6D184433D4B6597C6FC
:1052A000C0895E56596389B0B08A6E65616583A70F
:1052B000D1C58B4F3B426AA0C5B5896150526D98EC
:1052C000B1A4866D5E5D7292A3BEC48C42345478E4
:1052D0009BBFBA815251617496B3A37A65656575B7
:1052E00095A3AEB794533B557696BBB68659535F9C
:1052F0007493B0A38169656272929FA5BB9F5F445E
:10530000536689B6BE90665857668FADA48675669B
:105310005E6F8F9398BAAC6F55575474AFBC9B7C3B
:10532000664F5684A4A09686685A6D848C99BFB344
:105330007759564E6FAABA9D866B4F5782999A9AA3
:105340008C6B60707E8494B3B0896F5C4B6296A95D
:10535000A3977B5A5B7386929D91776E71727E8E56
:10536000A3AE9A7F69535B7D959F9F886D62697933
:1053700089969487797370768296ACA28B785E5703
:105380006E85939C937D6D6B717D8C918A807A7311
:10539000767D8BA5A594856B5A68778795948779D8
:1053A000717177838C8A867F78757A89A39F9485BB
:1053B0006A5D6C77869592857B727179848A89861D
:1053C0007E77777B8C9E9A93866D656E74838F8CC7
:1053D000857D76767B838988857E78787B8C9893AB
:1053E000918572707275828885827D77797D8386DA
:1053F00087847F7C7B7E8D918F8E83777775778096
:105400008381807B797A7E82858684807E7D808E92
:105410008F8E8D81777876788180807E79787A7D9D
:1054200082858684817F7E838D8C8D8B807A7A764F
:105430007A7F7F7F7E7978797B7F82848482818086
:1054400085898A8C8B827F7D7A7C7E7D7E7C797952
:105450007A7B7E8082828282828587888987848225
:10546000807E7E7D7D7D7C7B7B7B7B7C7D7E80806A
:105470008083878889898786848281817F7F7E7CFB
:105480007C7B7A7B7B7C7D7D7E7F83848586858427
:10549000848382828281817F7F7E7D7D7D7C7D7D14
:1054A0007D7D8081828383838382828281818180EA
:1054B000807F7F7E7E7E7E7E7E7E7F8182838484EF
:1054C00083838281818080807F7F7E7E7E7E7E7EE0
:1054D0007E7E7F8082838484848482828181807FB7
:1054E0007F7F7E7E7E7E7E7E7E7F7F8082838484C1
:1054F000848483828181807F7F7E7E7E7D7E7E7EAE
:105500007E7F7F8082838484858484838281807F80
:105510007F7E7E7E7E7E7E7E7F7F7F808183848491
:1055200085858483828281807F7E7E7E7D7D7E7E76
:105530007E7F7F7F80828384848484848382818051
:105540007F7E7E7E7D7D7D7E7E7F7F7F808183846A
:105550008485848483828180807F7E7E7D7D7D7D45
:105560007E7E7F7F80818283848484848482828122
:10557000807F7E7E7E7D7E7E7E7E7F7F7F8081823D
:10558000838384848483828181807F7E7E7E7E7E0D
:105590007E7E7E7F7F7F8081828283838382828101
:1055A0008180807F7F7E7E7E7E7E7E7E7F7F80810B
:1055B00081828283838382828281807F7F7F7F7EDC
:1055C0007E7E7E7E7E7E7F808081818282828281DD
:1055D00081818080807F7F7F7F7F7F7E7E7E7F7FD7
:1055E0008080808081818180808080808080807FB9
:1055F0007F7F7F7F7F7F7F7F8080808080808080B3
:1056000080807F7F7F7F7F7F7F7F7F7F7F7F7F80A7
:105610008181807F80807F7F7F807F7F807F7F7F91
:10562000817F807F8080807F7F807F807F80807E81
:105630007E7F80807F7F80807D818180817F7F7F72
:10564000807F807F7F7E817F7F7F7F7F7F7F817F65
:105650007E7F7C81807F807F7F817B8181817D7E59
:10566000817F7E80817F817F837E7F7F81817E803D
:105670007F837D807D7F7F8281807E7F7A817D7F39
:105680007F7E7F808380817D817D8282807E82801B
:105690007C83807E807D7F81817D7F7E7F7F867F12
:1056A0007F807F7F7F8080807F7D7C83807C838004
:1056B0007B817E7F837F7E7F807D7F7D827F7E81F9
:1056C000817D80827A81817D80827E82817B8182E0
:1056D0007E7E817D81817F80827E80837F7F7E7FD1
:1056E0007D7F837F7C82817D80827E7D837E7B81C6
:1056F000817C80817E80827F81807E7F807F807EB2
:105700007F817E7E81817E7E82807E80817F7C81A2
:10571000807E7F81808081817F7F80807F7F81808C
:10572000807F808080807F80817F7F7F807E7E8081
:105730007F7E7E7F807F7F80808082888986848450
:1057400083807E7F7F7D7C7C7C7C7C7D7F7F7F8077
:105750008181818083898C89858383817D7C7C7C28
:105760007B7A7B7C7D7D7E80818182828382828840
:105770008C8B868282817F7B797A7C7B7B7B7D7F31
:1057800080808182838382818182888C8C868180E3
:10579000807E7A77787A7D7D7D7D80828382828229
:1057A0008282817F7F858C8E89827E7F807D7977E2
:1057B000797C7E7D7C7D8083848381818182817FF1
:1057C0007F868D8F89817C7C7E7E7B77777B7F81D6
:1057D000807F8081848482807F7F808081858C8FA0
:1057E0008C837D7B7C7E7D7A77787C8082828080D2
:1057F000828484817E7B7C7E82888E8F8B847D7A7E
:105800007B7D7E7B78787A7E8283828181828483AD
:10581000827F7D7D7F848B8F8F887F78777A7F7F73
:105820007C78777A7F848683817F80828483807C82
:105830007B7D858F95948C807775797D7F7B767560
:10584000787F8689878280808283837F7C797A7F54
:1058500088909490877D78787B7E7D7A76767A8141
:105860008688868280808182817E7C7A7A7D858E20
:1058700094958F847A7475797D7D7B78777B818729
:10588000898784807E7F8181807D7A7A7C828B93F8
:105890009691887E7775787B7E7C7977797E848710
:1058A0008885827F7F8081817F7C7B7A7C828B91DF
:1058B0009490887E7876787B7E7D7A78797C8185F5
:1058C0008785827F7F7F8181817E7C7B7C7F848BCB
:1058D00091928E867D7775777A7D7D7B7B7B7E82CC
:1058E000868785827F7E7F8080807E7C7B7C7E82B7
:1058F000878D92908C847B7573757A7B7D7C7D7DA2
:10590000808387868582807E7E7F807F7D7C7C7C95
:105910007E81868C90918E867D767273777B7E7E7B
:105920007D7E7F8286878683807D7D7D7F7F7E7D75
:105930007C7C7E8083868B8D8E8C867D7773737660
:105940007B7E807F7F7F8284868583807E7D7D7E57
:105950007F7F7D7C7C7D7F808285898C8E8C877E1D
:10596000777374777C7F807F7E7F81838686848057
:105970007E7D7E7E7F7F7E7C7C7E80818282838531
:10598000898D8D8880777372777C80817F7D7E8022
:1059900084868784807D7D7D7F7F7F7D7C7C7E800B
:1059A0008283828082848A8E8E877E767374787EEC
:1059B00081807E7D7F82868886827D7B7B7D7F80E5
:1059C0007F7D7C7D80828483817F7F82898D8D88AD
:1059D000817874757A7E7F7E7D7C7E8387888681E0
:1059E0007D7B7C7E807F7E7C7C7D80838482807ECC
:1059F0007E8085898B88827C79797C7F7F7D7B7BAB
:105A00007E82868684807D7D7F80807E7D7B7C7E9D
:105A100082838381807F80818283858686827F7C6A
:105A20007C7C7D7E7D7D7D7F82838482817F7F7F84
:105A30007F7E7E7D7E7E8081818080808181807F6F
:105A400081858886837F7C7C7E7E7E7B7A7D818358
:105A50008382817F8080807E7C7C7E7F808080804E
:105A6000818282807F7E7E8184878683807F7F7F24
:105A70007E7B7A7B7D7F808081828382817F7E7E38
:105A80007E7D7D7D7E80818181818181807F7F821D
:105A90008586848181817F7C7A7B7D7D7E7F81820A
:105AA00083828281807F7E7D7D7D7E7F80808181FB
:105AB000818181807F7F80838483828383807E7ED7
:105AC0007D7C7C7D7E7F7F818282818181807F7EE3
:105AD0007E7E7E7E7F7F7F808081818181808184C8
:105AE0008583838482807F7E7D7C7C7D7D7D7F80BD
:105AF000818182828181807F7F7E7E7E7E7E7F7FAC
:105B00008080808081808284848485848381807E7B
:105B10007D7C7C7C7C7D7E7F808081818282818196
:105B200080807F7F7E7E7E7E7F7F7F7F808082837E
:105B30008485858585838381807F7E7E7D7D7D7D57
:105B40007E7D7E7E7E7F7F80808080808080808062
:105B500080807F7F807F7F7E7E7E7E7E7F7E807F57
:105B60008081828282828180808082808080818028
:105B7000808182828481807F808082817E7E7F7E20
:105B8000827F7F7E7E7E7D8082807F7E7E8082811E
:105B90008482807F7C82848283817F7D7E7E7D7E05
:105BA0007B7D797C7E8087818080808082838281FA
:105BB0007F7E7F8083808882817E7F7F84807F80DC
:105BC000827F7F81847F847F7F80817D797D8080DB
:105BD000867F7D7D7D81818182828582847F7C7EBE
:105BE00081828680807F82808682827E82807F80A2
:105BF0007C7D7D7F7B7F7A7D797D787E7F7F7C80D9
:105C000081808381827F7F7D80827C7D8080848390
:105C1000847E7A7C787F8481817E757A787E8182A9
:105C2000817E7B7E7D7D82828480817F7B7C82827F
:105C30008782867E7B7E7A7E8A83837E7C7D80805F
:105C40007D80817D787E787E7F818584897F7A7B67
:105C50007D819085827D777C7D81807E7D7F7F8147
:105C60007F7F8281838186828580827F807F83821D
:105C70007E7B797F85848A7F7679767E7E81847D3E
:105C80007E81868086807F817F7E7B7F81818B8005
:105C9000817D7A7E7D81837E7F828881847D7C8008
:105CA0007F7F7B7F7F818980817D7D7C7F838681F3
:105CB00088817D7B767B82858F807E7C797C8381E9
:105CC0007C7D7C7D7D80828087837F7E7A7B7B80EC
:105CD0008480817D797F80817D7F7D7D7E7D7C7DDF
:105CE00088848A837E7D777D7D8184827F7D767DB9
:105CF0007C807C7F80817D7D7D7D808087808881A8
:105D0000847F7D7B7881858185807C7E80807F819A
:105D10007E7E7C807C7C7D7C7D808683818383808D
:105D20007B7D7D7F89868781747B757D8083827C86
:105D30007E818380868184837F7F8080787D7E7F63
:105D400085878880777C747C7F817F7D7F8183835A
:105D5000868081807E7B80828381827E777F818046
:105D60008E86857E7C7C747F7F8185807C7D797F3B
:105D700082848581807B777C7E818B8483807E7B1F
:105D80007C7E828182807E7E7D80848184807E7F15
:105D90007E807F817A7D7C7C80808A8185807B7C0F
:105DA0007D7E8180847F838280817E7F797F8080F9
:105DB0008582817F807E7E80827E807F7D7F8281E2
:105DC0007D817B7F7C7F8080847F7F7F7E7D8180E3
:105DD0007F7F817D8080818081807D80817F8080C8
:105DE0007F7F81807F80807F7F7F807F80807F7FBB
:105DF000807E807F80807E807F7F807E7F7F7F80AF
:105E00007F807F7E807E807F818181807F7F7E7E9C
:105E10007F7E7F7F7E808080818085868587827F70
:105E20007F797C7A7B7E7E7F807E817F8182818389
:105E300081807E7D7D7C7C7F7E81818181807F8071
:105E40007F8A8F8C90867C7A707175787F83848648
:105E50008282817D7F7F7F81807E7F7D7D7D80804E
:105E600080828180807F7E7E8196938D8D7C707113
:105E70006B717E868C8C898179777A7A838586832B
:105E8000817A7A7A7E80848582817F7B7C7C7F8226
:105E900085A0987F7672636C818D8D8F8D796E75FC
:105EA0007A7C8A8E897C7B76747A888886877F76EE
:105EB000767C7D8387887D7B7B85A2A17E6F6B61ED
:105EC00068849A988D8576646D818C8D8F86746BCD
:105ED000767D828C91847573787D828C8A817777C8
:105EE000777D848BA8A5815C5D697687A39F856E8D
:105EF0006B6C758D9E93776D6F747D8F968B766FBF
:105F00007279818F91837771787B848C8D7F778B89
:105F1000A08F6A6177817F87948C736B7884838785
:105F20008A8473717B878685848074767D88878276
:105F30007F7D797D8584807D7D7E7D7E8296A48D2A
:105F40005F506F91998E877F6C65789199897B738B
:105F500072738291938172707A81888A887C72745C
:105F60007F8889847F79767A8389877E7A899B91F5
:105F7000695872949884777D7B747889938774725A
:105F80007A818386898176747C8688837F7C7A7A1D
:105F90007F86867E787B80838180817F7C7C7F8208
:105FA0008C98947357648AA1957A7173777B8692E3
:105FB0008E7B6C717F898985817B7576818A8B81E7
:105FC0007A777A7F8485857F7A787D838683807CE3
:105FD0007B7C8084848C938E725C6688A1987B6CB9
:105FE000707B8285898A82756F77868D8A7F7875C6
:105FF0007A808789867D77757D8488857F7A7A7BAC
:10600000818485837E7A7B7E83848280828F947D67
:1060100065627D999C826F6E7C84838186878174A2
:10602000717C8A8E867974797F848383837E7A7982
:106030007D8387847E7A7A7E818283817F7D7B7D6A
:10604000818383807D7F8C948970626F8A988E7D36
:1060500073767C7D7D848B8B7F73707A888C877F51
:106060007A7A7B7D818487837D77797E8586837F3D
:106070007C7C7C7D808384827E7A7B7F8283827F2E
:10608000838A8E83726C76858D877F7C7B7C7B7D1B
:106090008387878179777B808584837F7D7C7B7D07
:1060A000818484817D7B7B7E818282817F7D7C7EF9
:1060B000808283817F7D7D7E8080828181868B87C7
:1060C0007E74747C848684807F7D7C7B7D828585E4
:1060D000817B797C7F828382817F7D7C7D7F8283CF
:1060E000827F7D7C7D7F808282807F7D7D7E8081BE
:1060F0008280808081807F7B7C7F8484827E7E7EA4
:106100007D7E80858787837E7B7B7E8182807E7B90
:106110007A7B7D7E818385827E7B7C7F8383848383
:10612000817D7B7B7F828584817D79797D8084837D
:10613000817D7B7B7E80817F7E7E7F7F80807F7F75
:106140007F80807F7F7F7F7F8081817E7D7D7F815B
:106150008382807E7E7F7F7F7F7F7E7F7F7E7D7E4E
:106160008082817D7C7C7F81807E7D7D808181803D
:1061700080808281818181818281817F7F7F7F7F19
:10618000808080807E7D7E808181807F7F7F7F7F19
:10619000808080807F7E7F808180807F7F7F7F8006
:1061A0008080807F7F7F7F7F807F7F7F7E7F8080FA
:1061B00081807F7F7F80818080807F7E7F80807FE5
:1061C0007F7F7F7F7F8080808080808080808080D4
:1061D0007F80807E80808080818080808080807FC2
:1061E0007F7E7F7F807E7E7F807F7F807F7F8080BD
:1061F000807F7F7F807F8080807F7F7F7F80807FA8
:106200007F7F7F7F7F80807F8080807F8080807F96
:106210007E807F7F7F7F7F7F7F7F807F7F80807F8B
:10622000808080807F7F807F7F807F7F80807F7F76
:106230008080807F808080807F7F7F7F7F80807F65
:106240007F7F807F80807F7F7F80807F80807F7F57
:10625000807F807F7F807F7F807F7F7F807F807F48
:10626000807F7F7F80807F80807F7F7F807F807F37
:106270007F7F8080807F7F7F7F807F7F807F7F8028
:106280007F7F80807F7F7F807F7F807F8080807F17
:106290007F807F7F807F7F7F80807F7F807F7F8008
:1062A000807F807F7F7F807F7F807F7F7F7F807FF9
:1062B0007F7F807F7F7F80807F7F7F80807F8080E7
:1062C0007F7F7F7F807F80807F7F80807F7F7F7FD9
:1062D000807F80807F7F807F807F807F7F807F7FC7
:1062E000807F807F7F7F7F7F7F8080807F7F7F7FB9
:1062F000807F7F7F7F7F808080807F80807F7F80A6
:10630000807F80808080807F7F7F807F7F7F807F95
:1063100080807F7F807F7F807F7F7F7F7F7F808087
:106320007F7F807F7F80807F8080807F807F7F7F76
:106330007F7F807F7F7F7F80807F807F7F807F7F68
:106340007F807F80817F7F807F7F80807F7F807F55
:106350008080807F7F80807F807F7F7F807F7F7F46
:10636000807F8080807F80807F7F807E7F80807F35
:1063700080807F7F807F80807F7F807F7F7F807F26
:1063800080807F7F807F7F80808080807F7F808013
:106390007F80807F7F7F7F7F7F7F7F7F7F807F8009
:1063A000807F7F80807F80807F8080807F80807FF3
:1063B0007F808080807F7F807F7E7E7E7E7E7F7EEE
:1063C0007F807F7F808080818180818181808180CA
:1063D0007F7F807F80807F7F7F7E84908D8F8E8285
:1063E0007A79717478797C818082828282848383D5
:1063F00082807E7D7C7C7C8A948F978C7D7C726C85
:10640000767479828184878184838082817E807C96
:106410007C7D7C7D93919399867E7B6A6F72708080
:106420008183898484867F82807E807D7B7D7B7D65
:10643000809493989985817668706C73817E888941
:1064400084898481837D7E7F7A7D7C7C7E83989124
:1064500099928382746D746C797C7D87838688823F
:1064600085817E807D7D7D7A7F7C88958E9C8C82E7
:10647000826D70706B7B7A808983898782867F804A
:106480007F7C7E7C7B7E7B8F90939C87877D6C75E9
:106490006C727B768581838A81868580867D7F7E0E
:1064A0007A7E797D928C979687897974756C7776E8
:1064B00079837E858581888083827E817E7E7E7BD6
:1064C000818F8C98918B887876716C76717C8081C5
:1064D000888684847E807E7D7E7D807F8085928E8E
:1064E0009B8F8E8677786D6C746F7E7E83888689AD
:1064F0008683827D7F7A7D7B7E7F86918F9C8E8F47
:1065000085797A6C6D726E7F7A86868789848482BB
:106510007D817A817C80808A8C8F98888F80797940
:106520006D7572767D7B8581858482857F83808190
:10653000807E80828E8A948B8B847B7A727575754F
:106540007D7A818081828284828484828280817D3E
:106550008E86918E87887C7B77747A747E7A807E33
:106560007F808082828485828581827E87898992EC
:10657000838B7E7C7A747A767A7D798179807E804D
:1065800083818782868381827F8D849188878578C5
:106590007E747779757F787F7C7D807D8481868528
:1065A000848681837E8A878B8F828A7A7B7A737CCA
:1065B000757E7B7C7D7B817C8182848583868183E3
:1065C00080828C86918389807A7C767A797A7E7AC9
:1065D000807A7F7D7E81818482848481837F8C86A2
:1065E0008D8A84867B7D79777C777E7A7D7D7B7FC3
:1065F0007D8180828582858182818589878E83885D
:106600007F7C7D787B797A7D797E7B7E7D7F8280C1
:106610008582838381818189868C8885857C7D7A4A
:10662000797C797D7B7B7D7B7F7E81818284828387
:106630008281828688898C84857F7C7C797A7C7A49
:106640007D7A7D7C7D7F7F8182828382838281844B
:1066500088878C8686817D7C7A7A7D7A7D7B7C7C3E
:106660007C7E7F8082828382828281818487878B05
:106670008585817D7D7B7A7D7B7D7C7C7D7D7D7F3D
:106680007F818182828282818185868789848481DB
:106690007D7D7C7B7D7C7D7D7C7D7D7D7F7F808124
:1066A000828282828181858586878484817E7E7BC9
:1066B0007C7D7C7D7D7D7E7D7E7F7F8081818282F1
:1066C000818181848485858483817F7E7C7C7D7CBF
:1066D0007D7D7D7D7E7E7F7F8080818182818181C5
:1066E000838384838382817F7F7D7D7D7D7D7E7EAC
:1066F0007E7E7E7F7F7F8080818181818282818298
:10670000818181807F7F7E7E7E7E7E7E7E7F7F7F99
:106710007F80808080808080808180808180808078
:10672000807F7F7F7F7F7F7F7F7F7F7F7F80808075
:10673000808080808080808080808080807F7F7F5C
:106740007F7F7F7F7F7F7F7F808080808080808051
:10675000808080808080808080807F7F7F7F7F7F3F
:106760007F7F7F7F808080808080808080807F802E
:10677000808080808080807F7F7F7F7F7F7F7F7F22
:106780007F808080808080808080807F808080800B
:1067900080808080807F7F7F7F7F7F7F7F7F7F8003
:1067A00080808080808080807F80808080808080EA
:1067B000807F7F7F7F7F7F7F808080808080807FE1
:1067C000807F7F7F7F7F7F7F7F7F7F7F7F7F807FD7
:1067D0008080807F7F7F80807F80807F7F807F7FC1
:1067E000807F7F807F7F7F7F80807F7F7F80807FB3
:1067F000807F807F7F80807F7F7F807F7D7F817FA4
:106800007E80807E7F81807E80807F7F7F7F808092
:106810007F7E807E7F81817D7E81807F81807E7F83
:10682000817F7F817E7D83807C80827C7D84807C73
:1068300081827D7D83807C80817C7F82807D808061
:106840007D7E817F7F80807F807F7F80807E7E8154
:10685000817D7F817E7D82817D7F827F7E80807D44
:1068600080817E7E817F7E80817E80817F7E81802F
:106870007F7F807F7F80807F80807F80807F7F8020
:10688000807F80807F7F80807F7F807F80807F7E11
:106890007F807F7E807F7F7F807F7F80807E7F8004
:1068A000807F80807F7F81807F7F807F7F80807FEF
:1068B0007F7F7F7F7F7F7F7F807F818382818281D7
:1068C0007F7F807F7E7E7F7E7E7E7F7F7F7F8080DA
:1068D000808080808487858384827F7D7E7E7C7CAF
:1068E0007E7D7C7D7F7F7E7F8181818182828686A5
:1068F000848383817D7C7E7D7B7B7E7D7C7D8080AF
:1069000080818282818282868A898483837F7A7B66
:106910007D7B7A7B7D7D7C7E818181828483828286
:1069200082898C878283817B777A7C7A7A7C7E7D70
:106930007D7F8382828386838180858A8A84828226
:106940007F78777B7D7A7A7E807D7E818382828369
:1069500084818080888C888282837D77777C7C7933
:106960007A7F817F7E828482818384817F828B8C07
:10697000858183827A74787D7B797C81817E808336
:106980008481818283807E858D8B838183807774EF
:106990007B7E7A797F82807E818484818182837FFD
:1069A0007E8991887F81847C74747D7E7A7A8084EC
:1069B000807D828684808184827D828C90867E80A8
:1069C000837871767F7E7A7B8384807D8386847FE3
:1069D0008183827D87918F827D807F746F78817FB4
:1069E000797E86857D7E8487817F80837F7B85918C
:1069F0008F827D8180747078817F7A7E86857E7EAD
:106A00008486807D81827F7B889492847E817F735F
:106A10006D7782807B8087857F7E8285817D7F8187
:106A20007F7B899593857D7F7E726C7682807B7F6C
:106A30008787807E8588827C7E817E798795948415
:106A40007B7D7F736C7785847C7D85877F7B818868
:106A5000837D7D81827B8798988577787E726A7640
:106A600088887F7D85877E7A7F88847D7B81807B17
:106A700088979A8679777C716B76878A827E8586FD
:106A80007C797E86857E7C80807D8A9A9A877776DF
:106A900078706B76898E847F83847C777C85868012
:106AA0007B80807C8B9B9C877573776E6B778B8FDD
:106AB000858082827B757B8688817C7F817C8B9EB2
:106AC0009F867370756D6B798F93887E80817875E2
:106AD0007B868A857F7F7F7A8A9D9F877170736DA1
:106AE0006B7B9196897F7E7F787279888B837E7F9E
:106AF000807B8A9FA3876F6B716D6D7C93988B7E73
:106B00007B7C76737A888D847E7E7F7A8A9EA2884B
:106B1000706C736F6F7C93978A7D7C7B76747B88B7
:106B20008C857F7E7D7A8A9EA2886F6A716E6E7F69
:106B300093988C7D797975747D898D867E7C7B793F
:106B4000899FA189706A6F6D708094988C7D797728
:106B500074757D888C867F7B7B798A9EA089716A1B
:106B60006D6E738292968A7D76767578818A8C8531
:106B70007E79797C8D9E9F8772696B6E7685939402
:106B8000887B7474777D858B8A837B76777A8EA0F9
:106B9000A1897167696E78869394897A7272778019
:106BA000878B8A837A74757B8C9EA18C74696A6EDC
:106BB00077859192887B73727882898B89827A74C7
:106BC000747A85969F937E6E6B6F7780898D8A81AC
:106BD0007873777F878A88837D7877787E8A9695A1
:106BE00088787071777D828686837D78777C8387CD
:106BF00088847F7B797A7C828B908C817775787D95
:106C0000818282817F7C7A7A7F848785827E7C7C88
:106C10007E80868D8F887E77777A7E80807E7D7C71
:106C20007B7A7C80858685827F7E7F80838688864E
:106C3000807B79797B7C7D7D7E7F807F7F80828376
:106C40008382818180807F808282817E7E7E7E7E43
:106C50007E7E7F7F8080807F80808080808080803B
:106C60007F80818281807F7F807F7F7E7E7F7F7F2C
:106C70007F7F7F8080808080808080808081818015
:106C80008080807F7F7F7F7F7F7F7F7F808080800D
:106C9000808080808080808080807F80807F7F7FF8
:106CA0007F7F7F7F7F7F80808080808080807F7FEC
:106CB00080808080808080807F7F7F7F7F7F7F7FDC
:106CC00080808080808080807F7F808080808080C6
:106CD00080807F7F7F7F7F7F7F7F808080808080BC
:106CE00080807F7F7F808080807F8080807F7F7FAB
:106CF0007F7F7F7F80808080808080807F7F7F809B
:106D0000808080808080807F7F7F7F7F7F7F7F808B
:106D10008080808080807F7F7F8080808080808076
:106D2000807F7F7F7F807F7F7F8080807F7F80806C
:106D30007F7F7F7F808080807F80807F7F7F7F805C
:106D40007F7F7F8080807F7F8080807F7F7F80804B
:106D50008080807F807F7F7F7F80807F7F8080803A
:106D60007F7F8080807F7F80808080807F7F808029
:106D70007F7F7F80807F7F7F807F7F7F808080801C
:106D800080807F7F7F7F7F8080807F7F7F7F7F7F0E
:106D900080807F7F808080807F7F7F7F807F7F7FFC
:106DA0008080807F7F7F7F7F7F8080807F7F7F7FED
:106DB0007F7F7F7F7F808080807F7F7F7F7F8080DD
:106DC000807F7F7F8080807F7E7F80808080807FCB
:106DD0007F7F7F7F7F7F8182827E7A7A8085857FB9
:106DE0007A797E8486827D7A7C8084837F7D7D7EB5
:106DF00080807E7E7E808182817F7F7E7E80838395
:106E0000807C7C7E8285847F79777B83898880778C
:106E1000757C8689857C77798086868079787E8581
:106E200088837C777A8187857F797A7F8585817B66
:106E3000797D8485827B797D8486847E79797F855E
:106E400087817A797D8387837D797B808584807C47
:106E50007B7F85847F7B7A7D8183837E7B7C80833F
:106E600083807E7B7D8083817E7C7D808281807E2D
:106E70007D7D7F80807F7F80817E7D7D808283801D
:106E80007D7C7E8183817E7D7D7F81807E7D7E8015
:106E90008383807D7C7E8182817E7C7C7F828381F6
:106EA0007F7E7E7F8181807F7F7F80807F7F7F7FED
:106EB000807F7F7F8081807F7F7F8080807F7F7FDA
:106EC0008181807F7E7F8081817F7E7F81818180C3
:106ED000808181807E7C7C7D7F80828386888683A2
:106EE0007F7C7C7D80807F7C7A7B7E8081818080BE
:106EF00080818282868B8F8D877D7473777D818080
:106F00007C78787D83878884807E7F8184868A8C64
:106F10008B857D7774777D80817E7B797D82868786
:106F200085807E7D7F81868B92928C7F746E717955
:106F30008184807975787F888C8A847E7A7C80864B
:106F40008E95979082736A6B758086847D76767D48
:106F5000878D8E88817C7C7E838B93969185766BE2
:106F60006A727D868680797579828B8E8B827B7939
:106F70007B818A94989387786C6A717C8586817905
:106F800075777F888D8C867E7A7A7F889399978CA7
:106F90007B6D686D798489847C74747A858C8E8924
:106FA000827B797C859099988F7F70686B758287DA
:106FB000867E767379828A8D8A837C7A7C838D95AE
:106FC000969083756C6D747E8585817975777E85E5
:106FD0008A8A86807D7D8189929491867A706E728C
:106FE0007B8285827C77777B81878987837F7E80A0
:106FF000878F95948D80766F71777E82827D78768B
:10700000787D83868785838181868D92938C827734
:107010007171767D81817D7875767B8185878683A8
:107020008181848B92938F867B7472767C80817E43
:107030007975757A80858886837F7D808991949023
:10704000887D7573797E838380797474787E858773
:1070500086827E7C7F88919390887F78757A7F8303
:1070600083807A76767A81858785817C7B7D868F21
:107070009390897F78767A808483807A76757A8116
:10708000878885807C7A7C868F928F878079777BD2
:107090008285847F7975767A83878885807B7A7DFF
:1070A000868E938E877F7A787C8386837E797576C9
:1070B0007B828786837E7A7A7D858E918D86807BA2
:1070C0007A7E8485837D7875767B838686827E7BD7
:1070D0007B7E858D908D86817D7B7D8284827D798E
:1070E00077777A808484827F7D7D7F838A8E8C8788
:1070F000837F7C7C7F81817D7B7978797D808382B1
:10710000817F7F7F81878C8C8885817E7C7E80815A
:107110007F7C7B797A7B7F818280807F7F81868A7A
:107120008B8785827F7D7E80807E7C7B7A797B7E6B
:1071300080818080808081878A898784827F7E7E2B
:1071400080807E7C7B7B7A7B7E7F807F808080825C
:10715000878A89858482817F8080807D7C7B7B7B20
:107160007C7D7E7F7E7F8080838789878584838006
:107170007F80807F7D7D7C7B7B7B7D7D7E7E7F8035
:107180008084878785858583818182807F7D7E7DE0
:107190007C7B7C7D7D7D7E7F7F7F838685848585EE
:1071A00084818282817F7F7F7E7C7C7D7D7C7D7EF1
:1071B0007E7E7F82848484858583828282807F80B4
:1071C0007F7E7D7E7E7D7D7D7E7E7E8083848384CA
:1071D0008584828182817F7F7F7F7E7D7E7E7E7DB2
:1071E0007E7E7E7E81838483858584828282817F88
:1071F0007F7F7F7E7E7E7E7D7E7E7E7E7F8183839F
:107200008384848483828281807F7F7E7E7E7E7E73
:107210007E7E7E7E7F7F818283838484848382815D
:1072200081807F7F7E7E7E7E7E7E7E7E7F7F808170
:1072300082838384848383828180807F7E7E7E7E3E
:107240007E7E7E7E7E7F7F80818282838383838237
:10725000828181807F7F7E7E7E7E7E7E7E7E7E7F3F
:1072600080808181828282828181818080807F7F13
:107270007F7F7F7F7F7F7F7F7F8080808081818114
:107280008080808080808080807F7F7F7F7F7F7F05
:107290007F7F80808080808080808080807F7F7FF3
:1072A0007F7F7F7F7F7F7F7F7F7F808080808080E8
:1072B00080807F7F7F7F7F7F80807F807F7F807FD8
:1072C000807F7F807F7F807F80808080807F807FC5
:1072D0007F7F7F7F817F7F807F8080807D7F8180B7
:1072E0007E80817F80807F7E817E7F7E7F807F80A9
:1072F0007F7F837F7F80817F817E807D7F7E808195
:10730000807E837F7E80827E7C817F7D7F80808087
:107310008181807E837D817F7E82827B7E7E7F8075
:107320007F807E807A7F7F827D7F7F7F7E7D83806E
:10733000827C7A7D85817F847F7A7D8180837B7E5C
:10734000807D7E847E7B7E7C7E857F7F837C79834F
:10735000817D817F7D8181807E807F7F7F827F7F35
:10736000817E7D807F808280807E7D817F7D827F27
:107370007882847E82827D7F827E7E807D7F7F7E1A
:10738000807F7F8080808180807F7F807F7E7F7E06
:107390007E7F7F7E7F7F7F7F8180828582818482E6
:1073A0007E80817E7E7F7E7D7D7D7D7E7F7F7F82F4
:1073B0008583828383807F80807E7E7E7F7D7D7ECD
:1073C0007F7E7F8080858D8D898787817C7B7E7C99
:1073D0007A7B7D7B797A7E807F82848A9598928879
:1073E00084807974767A7A76777979787C828586E2
:1073F000878E9A9A9083807C767174787875767986
:107400007B7C80878A89878E9B9C91837E7A736D33
:1074100070777874767D818081888D8B8686949E46
:1074200098857875746E6D737C7C797A7F8283859C
:107430008B8D89848A9AA192796D70747270777F2E
:10744000807C7B80858786888A868188999F8F77D4
:107450006D72767370768185827C7E848887858361
:1074600083808593A19A826B68727B7A787A808216
:10747000807D7F848987837E7D8393A2A28D7263C2
:10748000687781807A787C81828181848988837D14
:107490007B859AA8A1836459677E8D887B727681EB
:1074A000898884818385837D787C8FA5AC97755C82
:1074B0005D72888B7D6C68768A9491857C7B8185F2
:1074C000847D7A8498A6A084675C677E908D7E6FA9
:1074D0006E7989908C827A797E8485817D83929E73
:1074E0009F8D74646474878E87786E707D8B918CA9
:1074F0008279777B828585868D94968D7E6F6A7082
:107500007E888981767175808B8E8A8079777B827F
:107510008685868A92959185766C6D768289877E3E
:10752000757177818B8D898079777C82868584855A
:107530008C9192897B6E696F7C898E887C716F7665
:10754000828C8F898078767B8287878280848C91F9
:1075500090867A6E6C737E888A857C757479818852
:107560008A87817C7B7C8082838080838B91918AD7
:107570007F746F737C838886817A76787D83878633
:10758000847F7B7B7D808383827F7E838C909089C8
:107590007F7671747C838685807A77787D82868613
:1075A000847F7B7B7D7F8284837F7D7C838C9392B1
:1075B0008B807772757C8486847F7976787D8386EC
:1075C00086837E7B7B7D818384817F7C7C7D848DB3
:1075D00094938B827975777E8485827D7876787EA8
:1075E000838584807D7B7C7F838483807E7C7D7E9D
:1075F0008182888E918D88817C7A7C8083827F7B5A
:1076000079787B7F8283827F7D7D7E808383827F8A
:107610007E7D7E7F818283878B8C8A85807C7B7D4B
:107620008082817E7C7A7A7D808182807F7D7E7F70
:10763000818282807F7D7E7E808181807F83888C35
:107640008C88827D7A7C808383807D79797B7F8141
:1076500082817F7C7C7D80818281807E7D7E808135
:1076600081807F7E81878C8C88827D7B7C808382F9
:10767000807C7A797C7F8181807E7E7E808182821F
:10768000807F7E7E808081807F7F7E7F83888C8BE1
:1076900087827E7C7D7F81807F7C7B7B7D7F8181FB
:1076A000807F7F7F80818181807F7F7F7F808080DE
:1076B0007F7F7F7F808488898783807D7E7F8181B3
:1076C000807D7C7B7D7E7F807F7F7F7F80808181CE
:1076D00080808080808180807F7F7F7F7F808486A4
:1076E0008784817E7E7F8182817E7D7C7C7E7F7FA0
:1076F0007F7E7E7E7F80808080808181818080808F
:107700008080807F7F7F81838585827F7E7F81826D
:10771000827F7E7D7D7E7F7E7E7D7E7E7F7F7F7F82
:107720007F80808080808081818181808080808155
:10773000838484818080818282817F7E7E7E7F7F40
:107740007E7D7D7E7E7E7E7E7F7F7F7F7F80808050
:107750008181808080818180828384817F7F81821A
:10776000817F7E7E7E7F7F7E7E7D7E7E7E7F7F7F31
:107770007F7F808081808080808181808080808008
:10778000808283817E7E8082817F7E7E7F80807FFB
:107790007E7E7E7F807F7F7F7F808180807F8080F4
:1077A0008080807F808080807F7F82827F7D7F82DB
:1077B000827F7E7E80807F7F7F7F7F7F80807F7FD4
:1077C0007F8080807F7F8080807F7F7F80807F7FC1
:1077D000807F80807F7E7F80817E7E80807F7F7FB4
:1077E000807F7E7F81807F7E7F8080807F7F7F80A3
:1077F000817F7E7E80807F7F7F7F7F8080807F7E95
:107800007F7F8080807E7F81817F7D7E81817F7D83
:107810007E81817E7D7F81807F7D7F817F7D7F8175
:10782000827E7C8082807F7E8182807E7F80817F5D
:107830007E7E8181807F8081817E7D7F8181817E4E
:107840007C7F82817D7C81827F7D7E8080807F7F46
:10785000807F807F81807E7E81817F7D8081807E30
:107860007D8083807D7C82837F7C7E82837E7B7E25
:1078700084827D7C81837F7C7E81827F7F7F81810A
:107880007F7D7F81817E7E81827E7D7F82817E7C05
:107890007F82807E7F81817E7F81827F7F7F8180EA
:1078A000807E7F807F7E7E80817E7C8084807C7EE7
:1078B00081817F7D7E82817E7D7F8180817F7E7ED2
:1078C0008182827D7B7F84837E7B7F83827C7C81BF
:1078D000827F7C8083807D7D82827E7C80837E7BB4
:1078E0007D82837D7C81827E7B7E85837C7B8183A0
:1078F000807C7F82817D7D7F8182817E7D7E83838E
:107900007E7C7F82807D7E8082807F7D7D80817F86
:107910007F7E7F81807F807F7F80807F80807F7F70
:107920007F81817D7F808080807F7E7F7F7F7F7F62
:10793000827F7E7E7F81807E7E80817F7F7F7E7F53
:1079400080807E7D7F808180807F7F80817F7F803F
:1079500081807D7F8081817F80807F7F80807F7E2E
:1079600080817E7D7F81827F7C7E81817F7E7F7F23
:1079700080807E7E7F81807D7F81817E7D8082810F
:107980007E7E7F808180807E7E808180807E7E8101
:1079900083807E7D8081817F7E7E8081817E7D7FF0
:1079A00082817F7D7D8183817D7C7E8182807E7DE1
:1079B0007F81827F7D7E8183817E7E7E8181807ECC
:1079C0007E7E7F80807F7E7D8083827E7D7F8181C1
:1079D000807E7E7E81817F7E7F7F828585807B7CAD
:1079E0008183817D7B7D8081817F7F7F808081809D
:1079F000807F7F7F7F8081868B877D757983898378
:107A00007A76798084827F7D7E8081808181828088
:107A10007E7D7F85949C8D6E5B6C909F8E6E5F6E7D
:107A200088958F7D72768188877F7C7E817E7C7C45
:107A300083939F8F6C566691AA966D596A8B9D9120
:107A40007A6C73828B877D797E82827C797F94A821
:107A50009F74494E81B2B27F51527CA1A38669675F
:107A60007A8D8F817476828985787381A5BA9C57C7
:107A7000284CA3D6B662325296B79F6F5C6F8E9534
:107A800084707082928D79697087A8B8A2642F3E45
:107A900089CDC87F3F457EAAA47E656F878E83749B
:107AA00072808E8E81716E7A8DA7B59B5E30418F0C
:107AB000D1C47C41487EA79E7F6D7584897F757790
:107AC000818A8B8477707585A2B8AB6D2F327AC7A7
:107AD000D4934B3D6698A5917A73797E807E7C7EA7
:107AE00083898A7E716E7C8D9CAAAB81472E5AAEAB
:107AF000D8B3693E4E7E9FA18F7C736F757F878759
:107B00008482837D76737B8A908E9BA78E542E53BE
:107B1000A7D8BA6C39487FA5A88E766C6F77808815
:107B20008C8A827870727F8C928779708CB2B272F4
:107B30002D3788D3CA7B384582ADA57F6A7183848F
:107B40007A7883918D7A686D8397927E6E6F7D913E
:107B5000AEB487412661BCDCA653315B99B19B77FB
:107B600069727F7E7C848F8F7E6A697B9399867130
:107B70006976898E8A9CA5874F3464B4D8A5522F24
:107B8000599ABBA0715F6B8189848286877F6D6DF6
:107B90007C91988671677389938A7B727692AAA288
:107BA0006C3D4B8EC7B875434D82ACA37F686B7F2D
:107BB00088827E808887796F7484948E7B6D6E81D5
:107BC0008E8C8275767E858C9BA18152416FB1C669
:107BD0009A573D639EB29A6D5D6E8791887C7B80DB
:107BE000837B757C878E86776F76878E887B7378AC
:107BF000818787808E9B926C495B95BFAF704150A7
:107C000089B1AB7E5B607E94948175797F827E7B47
:107C10008187887D7476818B8C7F74757E8888805F
:107C20007B797D83939D916C4D5B90B8AE77485185
:107C300081AAA87F5E618096937E70768489827720
:107C400078828A867B7579858A867C757A83878433
:107C50007E7A7C82848289918D775E6585A5A47EFB
:107C60005C5A7A9CA2886C64768B908879767B8249
:107C7000837E7D8083837E797B8187857E78787F14
:107C80008685817B7A7E8283817D7D86918F7A65F0
:107C900067809E9E83655E77959C8B726875878EE4
:107CA000887B777C82837F7C7F83847F79797F86E2
:107CB000878079777D8587827C797D8184827D7CD0
:107CC0007E808282878B83756C758A958F7A696EC8
:107CD0008191918173717B878A837B787E82827F99
:107CE0007D7F83827F7B7B808584807A7A7E84859A
:107CF000817C7B7E8283817E7D7E8181807E7F848C
:107D000089847A7277848E8B7D71727E8A8C827878
:107D1000767B8386827E7C7E80807F7E8082817E71
:107D20007C7C8183837F7B7C7F8283807E7D7E8061
:107D300081807F7E7F7F7F7F7F8080807F81848244
:107D40007E7A7B808585807A7A7E8385827D7B7D45
:107D50008182817F7E7E8080807F8080807F7E7E2A
:107D60008081817F7E7E7F8081807F7E7F8080801A
:107D70007F7F7F8080807F7F80807F7F8182817D09
:107D80007C7D8183827E7C7C8082827F7D7D7F8002
:107D900081807F7F7F807F7F8080807F7F7F7F80EB
:107DA00080807F7F7F8080807F7F7F7F80807F7FDC
:107DB000807F807F7F8080807F7F7F8081807F7ECB
:107DC0007E7F8181807E7E7F8080807F7F7F7F7FBE
:107DD000808080807F7F7F7F8080807F7F7F8080AA
:107DE000807F7F7F7F7F7F8080807F7F7F8080809C
:107DF000807F7F7F8080807F7F807F8080807F7E8C
:107E00007F8081807F7F7F8080807F7F7F7F808079
:107E10007F80807F7F7F7F8080807F7F7F8080806A
:107E20007F7F7F7F80807F7F80807F7F7F8080805B
:107E30007F7F7F80807F7F7F80807F7F7F8080804B
:107E40007F7E7F8081807F7F7F8080807F7F7F803B
:107E5000807F7F7F8080807F7F7F8080807F7F7F2B
:107E600080808080807F80807F7F8080807F7F7F18
:107E700080807F7F7F8080807F7F7F8080807F7F0A
:107E80007F7F8080807F7F7F7F7F8080807F7F7FFC
:107E90008080807F7F7F8080807F7F7F8080807FE9
:107EA0007F7F8080807F8080807F7F80807F7F7FDA
:107EB0008080807F7F7F7F7F7F80807F7F7F7F80CC
:107EC00080807F7F7F8080807F7F7F8080807F7FBA
:107ED0007F8080807F7F7F8080807F7F8080807FA9
:107EE0007F7F80807F7F7F8080808080807F7F7F9A
:107EF00080807F7F7F8080807F7F7F8080807F7F8A
:107F00007F808080807F7F7F8080807F7F7F808078
:107F1000807F7F7F7F8080807F7F7F8080807F7F6A
:107F20007F8080807F7F7F7F807F7F7F8080807F5A
:107F30007F7F7F8080807F7F7F8080807F7F808049
:107F4000807F7F7F80807F7F8080807F7F7F808039
:107F5000807F7F7F8080807F7F8080807F80808027
:107F6000807F7F8080807F7F7F8080807F7F7F8019
:107F700080807F7F7F8080807F7F7F7F80807F7F0A
:107F800080808080808080807F7F7F808080807FF5
:107F90007F7F807F808080807F7F7F8080807F7FE9
:107FA0007F8080807F7F7F7F80808080807F7F7FD9
:107FB0007F80807F7F7F80807F7F808080807F7FC9
:107FC0007F8080807F7F7F7F808080807F7F7F80B9
:107FD0008080807F7F7F7F80807F7F7F80808080A8
:107FE000807F7F808080808080807F807F80808095
:107FF000808080808080807F80808080807F7F7F85
:108000008080807F7F7F80807F8080808080808074
:1080100080808080807F7F8080807F7F7F7F808066
:10802000807F7F807F7F8080807F7F7F8080808057
:108030007F7F7F80807F7F7F80807F807F7F808049
:10804000807F7F7F808080807F7F808080807F7F37
:1080500080807F807F807F7F7F7F80808080808026
:108060008080807F80808080807F7F7F807F808015
:1080700080808080808080807F8080808080808001
:1080800080808080807F7F808080807F80808080F3
:10809000807F808080808080808080808080807FE2
:1080A0007F80808080808080807F808080808080D2
:1080B00080808080807F7F7F807F7F7F7F7F8080C8
:1080C000807F80807F7F7F7F8080807F80807F7FB8
:1080D000808080807F7F807F8080808080808080A3
:1080E0008080808080807F7F808080807F7F7F7F96
:1080F0008080807F80808080807F80808080807F83
:10810000808080808080808080808080808080806F
:10811000808080808080808080808080808080805F
:10812000808080808080808080808080808080804F
:10813000808080808080808080808080808080803F
:10933000808080807F7F7F7F7F7F807F7F7F807F37
:109340007F7F7F7F7F807F80807F7F7F8080808026
:109350007F808080808080807F80807F80807F7F12
:1093600080807F80808080808080807F807F7F7F02
:10937000808080807F8080808080808080808080EE
:109380007F7F807F807F80808080808080808080E1
:109390008080807F808080808080808080808080CE
:1093A000807F80807F7F7F7F7F7F807F7F80807FC7
:1093B0007F7F7F7F7F807F7F7F7F807F80807F7FB9
:1093C000807F7F7F807F7F807F7F807F7F7F8080A7
:1093D000808080808080808080808080808080808D
:1093E0008080807F808080807F808080808080807F
:1093F000808080808080808080808080808080806D
:1094000080807F7F807F808080808080808080805F
:10941000808080808080807F7F80807F7F7F7F7F53
:109420007F7F7F807F7F7F7F808080807F80808044
:10943000808080807F808080807F807F807F807F31
:109440007F7F7F80808080807F7F8080807F808022
:109450007F7F808080807F808080807F8080808010
:109460007F808080808080808080808080807F7FFF
:109470007F7F7F7F80808080808080807F7F807FF3
:109480007F807F808080808080808080807F7F80E0
:10949000807F7F808080807F8080808080808080CF
:1094A000808080807F7F7F7F7F7F7F7F807F7F7FC7
:1094B0007F7F8080807F7F7F8080808080808080B1
:1094C0008080807F8080807F7F80807F807F807FA2
:1094D000807F8080808080807F7F80807F7F808091
:1094E0007F7F8080807F7F8080808080807F808081
:1094F0008080807F7F7F80807F807F7F7F80807F74
:109500007F807F7F807F807F7F7F80808080807F63
:1095100080807F7F7F808080807F7F807F80808051
:109520008080807F808080807F80807F807F80803F
:10953000807F7F8080807F80807F80808080807F30
:109540007F7F80807F7F807F8080807F7F7F807F24
:109550007F7F80807F7F7F7F807F807F7F7F807F16
:109560007F7F7F7F807F8080807F807F807F7F7F05
:10957000807F7F7F7E807F7F7F7F818080808080F3
:10958000817F7D7E807E80828080817E7D81827EE3
:1095900080807E7F807E7E7F7E8084807C7C7E81DA
:1095A0008181817F7D7D81817F7E817E7E818480BE
:1095B0007F7D7C7C7D7E8081817E7F8182838480B3
:1095C0007B7B7E7F81838282817D7D7E81828181A2
:1095D000817C7A7D828183827F7B87A0967B756D7B
:1095E00065788C8B88867B7179828586897F767891
:1095F0007D7D9FB6885B6164709AAC8A73716B7075
:109600008E98887C797072878F8EB6A85F4A666C58
:1096100087B0A370647073859F91726F777884931D
:109620008980B6AC57416C7A91B79E5F58747D8D36
:10963000A38E66677D8389948375B1B55B386C8C26
:1096400096AB97574E7F98919284626588938685F2
:10965000806E9CD78E273C8EA4A9A3683A69A7A1E7
:10966000837C7065809B8C74787E7AB4CF6C1D513E
:109670009CA8A7915A457FAC97757475768A957C9E
:109680006B7C8D83A5C87B2046A0AF9F8F634275FE
:10969000B09F716D797B87917D697A908B78A1C637
:1096A0007D294A9AABA092634475B09D716D7A7B17
:1096B00088917F6D7B8C857CA5CA7E2243A1B49F57
:1096C0008D624276B49E6C6B7C80888F79677D95C5
:1096D0008C7684C6AD3F257FB2A69C7B4355A2AF56
:1096E0007E6A777983958666708F937F787EBEC514
:1096F00059145EAFB2A1884D468DB28C7074757FDF
:10970000948B6D6F858B8680767DC9C94F176CAB46
:10971000A5A38B484A97AF8575756B7F9E8C687043
:1097200083868989766C8ED9B53A23749FABB97FCD
:1097300037529E9F8A857160859C8670797B808D6B
:109740008C73717FAFD1882A3E84A0B5AC6238702B
:109750009F988C7E626B92977E74767787928471E5
:10976000767D92CEB0452E6F91AABC803D598F97E1
:10977000968D6A5B81988C7E7A6E7890907A7579F6
:109780007A8CCCB550376780A6C58C4455808DA0A7
:109790009E6B577B8E8A8D8168738C8982817974E8
:1097A0008292BFA65A44657CA9BC88525B748AA485
:1097B0009C70606D7E909887706F7A828B8B7D75C0
:1097C0007B7D93BF9756576677ADB77A5C656B889C
:1097D000A995716D6F748E99837877727B8B8A806F
:1097E0007F797687B59D6F6661649DAC8C786D5C82
:1097F0007798978D856B677B878A91847474797C61
:10980000888B847C7B7DA29A7E7369628A99908A18
:109810007A64727F86908F7C7875747F8987878160
:1098200078777B7F8587847F9295817D74667B8D39
:10983000898F8871747677888C85857C74797C8033
:109840008886827F79797D7F8485839390838172F6
:109850006B7D818892847C7A7178828289877F7D12
:1098600079787E808485827F7D7A7D7F82838E90E9
:1098700089877C747A7A7F8682807F77797C7D8302
:109880008482827E7D7E7E808382827F7E7E7E7EDB
:1098900080868C8888847E7F818084827F7D7A7AAE
:1098A0007D7D7F807E7E7D7D7F8081828080807FC8
:1098B0008081818081828281817F80807F80807FA2
:1098C0007F7E7E7F7F7F7F7F7F7F7F8080808080A5
:1098D00080808080807F7F80818180807F7F80808A
:1098E00080807F7F7F7F7F80807F7F7F7F80808081
:1098F000807F7F808080807F7F7F80818080807F6D
:109900007F808080807F7F7F808080807F7F7F805E
:109910008080807F7F7F808080807F7F7F8081804C
:10992000807F7F7F8080807F7F7F7F7F80807F7F41
:109930007F7F807F8080807F807F807F807F7F7F30
:109940007F80807F7F7F8080807F807F7F7F7F7F21
:10995000807F807F7F7F7F807F7F80807F7F7F7F12
:10996000807F8080807F7F7F7F7F8180807F7E7F00
:109970007E7F817F82808380808080808180807FE5
:1099800080807D7F7E7F7D7F807F807F7F80817FE5
:109990007F7F7F7E7E7F7F8083807F807E7F8281CE
:1099A000838083807B7E7F7F8182847F7C7D797EC4
:1099B0007D80827F817E7B7C7E808381807D7C7EBA
:1099C0007A7E7E7F7D80817F7E8081808581817FA0
:1099D0007E7E7A7E7E7D7E7E82808582817F7E7E97
:1099E0007D7F817F85838480807E797D7F7F838278
:1099F000837E7E7D7F7F7F807F7D7E7F7E7E837F77
:109A00007F7F808082827C7E7D7E7B81817F828061
:109A10007F7F837F7F7F807D81818182847F7C7D4A
:109A20007B7D80827F82817E7D7E807D81807D7F47
:109A3000817F8080827E80807D7F807F7F80807E2E
:109A400080807F8081807F7F7F7E7F80808080801C
:109A50007E7F807F8080807F8080848285858382F6
:109A6000817E7E7C7D7D7E7E7D7E7D7E7E7F808113
:109A7000818282828181808088868A8884837D7BBE
:109A80007A777B7A7D7E7D7F7E7F808083828483F0
:109A9000828280807E828D8A928A848376777672B3
:109AA0007B797E7F7E827D818281868385838181B1
:109AB0007D7D7D88908D94857E7B6C747677837FA9
:109AC00084837D827D808481888280807A7C7B7A99
:109AD000829191938C7D78716E767B818884847F6E
:109AE0007C7E7E828484847F7B7B7A7C7F81869B64
:109AF00093939075716E65797F858F868380787D6D
:109B00007E808781817E777C7A7E858188A2939111
:109B10008B6B6B6F6A84898992807C7B737D828179
:109B20008A827E7D767B818087857D99A18A9075EA
:109B3000576969799A97948C6F6C6D74888E8E8C46
:109B4000787575738289858A8178A1A383886B4E25
:109B50006E7884A99A857B646579839493887D70F7
:109B60006E79808B8F847E7874AEAF827E5C3E731C
:109B70009097B19C6E61606A879B9B8B786E6973CE
:109B8000898F8B897C6F777BB0C58665583B67ADC5
:109B9000AFA5956248638395A09B7C6367757F92B0
:109BA0009A857675707586AECE8E514A466ABCC36C
:109BB000987660546C90A291867B6968808B8B8DBF
:109BC00087736E798183B8C8753F515D81C6C07A4D
:109BD000555C5F7BA9AD806B716B71959A81787DC7
:109BE0007172888F81B2BB6333607B95BFAC5E4678
:109BF0006A838FA49B695A7B8A828D8D746E84865A
:109C000079808B85B2AE5F39638AA5B19756477468
:109C10009C98938365628696857A807B78858A781E
:109C20007684ACBA7B404D79A1B8A161426898A214
:109C3000937D6363839D8D75747A7E898C7A717C44
:109C400096BFA24E386C9AB2AB7845558EA9977CD8
:109C50006B667A959379707C8485857D737A95C5DA
:109C6000A14B387198ADAB7B445991A58D7C706B3D
:109C70007C988C72718085878679707C98C5A34B9F
:109C800035719BACAA7C475A92A18C7C716D8096F1
:109C9000897070878C847F77707EB3C97B334A87E5
:109CA000A0AFA1624073A297827A6D7190967B6A91
:109CB000798689867E717586B1C17A334D8DA3A967
:109CC0009C634475A3967F786E7490957A6A7987C1
:109CD0008A897F6D70A0D1973F3D7998B0AE743E70
:109CE0005D99A28D7E6B64859F8B6C6F7D868D8B5D
:109CF000766A9CCA8E404C7A8FAEB36F3C64999A58
:109D000090846961869C8772767A818D8C7578B62D
:109D1000AF5C426E869BB5914E508598928D7B626A
:109D200072939179777C7C848E7F7BAFAC5F44713A
:109D30008996AD8E525889968C877A6978928D77FC
:109D4000767F8084897D8FB4904D527F909FA477D9
:109D50004D69949A8C7F6D6B83958875767E828829
:109D6000857FA1AD7348648594A6986352799590D8
:109D7000897D6C71898E7E777E7F8086829AAD81A7
:109D80004C5C8193A19B6E55719091898171708417
:109D90008F81797C7E80878292AD8F5656798C9F99
:109DA000A37A54698A908D87736D808D847A7C7DC7
:109DB0007F85858FAB95615570829BA8895E637C9A
:109DC0008891917A6B79868481817B7B858585A753
:109DD000A16A52687893B098655E707E919A866E9B
:109DE000727E8285867C78818685A1A3765B6B7482
:109DF00087A49B6D63727A8A9B876F737E7F868947
:109E00007D767F83819CA87F636A6A7BA2A17E6F37
:109E10006E6D7F938F7E7A79777F88827C80817D5B
:109E200096A78A706D626F98A28C7E6F62748D9116
:109E30008A83786F78868485867C7898A0897E6FFF
:109E40005A719396958B6F6271818C928E7B70752F
:109E5000797F89857D8194938E867064747F8B96DB
:109E60008D79737074838D8B857D77757C82848505
:109E70008B97928B84716C777B878E857F787379D3
:109E800080848984807C797C8081848C96918C828A
:109E9000726F777B868A837E7874797D84888682E8
:109EA0007F7A7C7E80848D928F8C847A79797B8195
:109EB000817F7D7878797C8183838380807F7F81B7
:109EC000848C8E8B8A817C7C7A7D807E7E7B787A86
:109ED0007A7D828283828180808082848B8B898755
:109EE0007F7D7D7B7E7E7D7D7A797B7A7E8081829F
:109EF000828081818283868A8888857E7F7D7C7F3F
:109F00007E7D7D797B7A7B7E80808280818181836A
:109F100083878A88898480807D7E7F7D7E7B797A35
:109F2000797B7E7E81808081818183838988878718
:109F300082807F7D7F7E7C7D7A797A7A7D7E7E804D
:109F40007F8081818483848785858380827E7F7FF3
:109F50007D7C7C7B7D7C7E7F7E7F807F8181828219
:109F6000818482818380807F7D7F7E7E7F7D7E7EF7
:109F70007D7F7F8080808180818080807F7E817FE7
:109F8000817F807F80808180817F7D7F80807F80D6
:109F9000817F7E807F7E8180817F81807D7F7F7ECB
:109FA0007F807F7F7F7F7E7F8280817F817F7D7FBB
:109FB0007F80827F807F7F7F7D7E7F8083808481A2
:109FC0008080807F7C7F81807D7E7D7C7A7E817FAA
:109FD0008281807F8080848185817F7E7E807E7E7D
:109FE000807D7D7E818082818180847F807E7D7F77
:109FF0007A7F7D7F7B807E7B7C7F807E838080817B
:10A00000807F8481817F837F7D7E797C7B80817E60
:10A010007D7D797C7B7E807F807F807E7D81888254
:10A0200081807B7B777F797F8684857E7A7E808145
:10A030008B848982817C7379797E7D807E7B798037
:10A0400087818B828280807E7C8083808780807DF8
:10A050007B7C7B7E8082837F7E7E7C7F848283810B
:10A06000817E7A7D80828881837E847F7F7D787CFB
:10A07000777F7F807D7F81808082837C7E82817EEE
:10A0800085818482857D7C7E737E7D807A7F7D7EE6
:10A090007D7E7B7C7E817E7F817F7B7F7F7F8180D9
:10A0A000807F7F7F7B8081807B7D7A7C81838781BD
:10A0B00081807D7D7D807C7E7E7E797E7B7D8284BD
:10A0C00087817C7D777F827F81807E7D81807C7FA0
:10A0D00084808182827D7D817A7B7E828283867E7E
:10A0E0007F81827D8280808185817E807A7B7B7F7B
:10A0F0007C808582827F7A7B7A7F838287807F7D66
:10A100007B7E83838581857F7C7F84808282877E3E
:10A11000797F787E808080808781817F7E7F7D804F
:10A120007E80817F7B7D777E828383817F7D7D7F43
:10A130007E7E7F81827F7D7D7F817D7E8380858322
:10A14000877E7B7D757D82818280817D7A7F818122
:10A150008883857D787B797E82828582797B797F11
:10A160007F83857E7A7C7C7E838285807F7C7A7EFD
:10A170008481817F787D7C808281827F8282877FDB
:10A180007E807D808682837E827E7A7D82818784C6
:10A19000857D787E7B7D7A7E797F7F80817F7D7EE5
:10A1A0007C7E8180817E7F807C7F838180808580B2
:10A1B000797F8380837F7B7E7F7F88837D7D7F7DAA
:10A1C0007B7E7F7E82807F82807F7D817F7F7D7DA1
:10A1D0007F7F817F7F807E80808080808481847D7E
:10A1E0007C807F818682807E817F7D7F8681838166
:10A1F000817C7B7F7E80847F797E7C7E8483817E70
:10A200007E7F7A7F84807D7E7E7C81808480818059
:10A210007E7F7F807E8180807E807F7F817F7E7D4C
:10A220007E7E838180807C7E7D80847E8180807D37
:10A230007E808080807F7B7F7C808181817E7D7E2F
:10A24000807F82807F7F828082817F7E7D7F808110
:10A2500082807F7E7F7F807F7F7F7E7F8180807F07
:10A260007F7F808081807F7F7F808080817F7F80F3
:10A270008180817E7E7F7E7F807F818082818281DE
:10A2800080817F7F7F7F7F7E7F7E7E7E7F7F7E80DF
:10A2900081818280818080817F807E7F7E7E7F7EC3
:10A2A0007E7E7F7F7F82818485838582838181809A
:10A2B0007E7F7D7D7D7C7E7C7E7D7F85818A84879F
:10A2C00085838580857F807F7E7D7C7D7C7C7D7C99
:10A2D00080838388818881828581847E847D7C7F60
:10A2E0007B7D7B7F7B7D8580888585848186818160
:10A2F000867E827C7F7C7C7E7A7F7A8085828A8360
:10A30000868382867E877F80807B7E797E7C7A7E54
:10A310007B83808788808B7E848381857E827C7C22
:10A320007C7A807A7F7C7D877F8C8585868085811D
:10A3300084837F82797E7B7B7D7C7F798186818B24
:10A3400081887F82877E897F827D7C7D797D7D7B10
:10A35000807A86818B89808B7D858281867D847AD7
:10A360007C7C787E7C7E7C7D897F8F8387858086E0
:10A370007E84837E83797D797A7D797F7A818684F4
:10A380008D818A8280877E86807F7F797D797C7DC2
:10A390007B7F7B8682898A82898082847F867C819A
:10A3A0007C797C787C7C7C7E7C88828B8684877FB1
:10A3B000868181857D827B7B7C787E7A7D7D8086AF
:10A3C00084898484867F858184827F807B7B7C797D
:10A3D0007E7B7D7D83848686848483828381838162
:10A3E000817F7D7C7B7B7D7C7D7F8485878484836E
:10A3F000818282828482817F7D7D7B7C7C7D7D8168
:10A40000838586838382818281828181807E7E7C36
:10A410007C7D7D7D7E82848585848382828181812D
:10A420008180807E7E7C7D7D7D7D80838586848429
:10A4300083818281818180807F7E7E7D7D7D7D7E26
:10A44000818384858484838281818180807F7E7EF4
:10A450007D7D7D7D7E7F82838484848483828181EF
:10A4600081807F7E7E7E7D7D7D7D7E8082848584F1
:10A470008484828181807F7F7E7E7E7E7D7E7E7EE3
:10A480007E81838484848483828181807F7F7E7EB9
:10A490007E7D7D7D7E7E7F818384848484838281B2
:10A4A00081807F7E7E7E7E7D7D7E7E7E80828484B6
:10A4B00084848483818181807F7E7E7E7D7D7E7E9B
:10A4C0007E7E81838483848484828181807F7E7E7A
:10A4D0007E7E7D7D7E7E7E7F828384838484838175
:10A4E0008181807E7E7E7E7D7D7D7E7E7E7F82837D
:10A4F0008484858483818181807E7E7E7E7D7D7E55
:10A500007E7E7E8083848484858583818181807E34
:10A510007E7E7E7D7D7E7F7E7E8083848484858535
:10A5200083828181807E7E7E7E7D7D7D7E7E7E803B
:10A5300082848484858584828281807E7E7E7E7D05
:10A540007D7D7E7E7E7F82838484858584828281F8
:10A55000807F7E7E7D7D7D7D7E7E7E7E8183848408
:10A56000858584838281807F7E7E7E7D7D7D7E7EEB
:10A570007E7E80828384848584838281817F7F7EC6
:10A580007E7D7D7D7E7E7E7F7F80838384848484C8
:10A59000838181807F7E7E7E7E7D7D7E7E7E7F7FCD
:10A5A00081838484848483828181807F7E7E7E7D9A
:10A5B0007D7D7E7E7F7F7F8183848484848382818E
:10A5C00081807F7E7E7E7E7D7E7E7E7E7F7F81829D
:10A5D0008484848484828181807F7F7E7E7E7D7D71
:10A5E0007E7E7E7F7F808283848484848382818058
:10A5F000807F7E7E7E7D7D7D7E7E7E7E7F7F828370
:10A600008484848483828180807F7E7E7E7E7D7E42
:10A610007E7E7E7F7F808283848484848382818027
:10A62000807F7F7E7E7E7E7D7E7E7E7E7F7F808140
:10A6300083848484848382818180807F7F7E7E7E08
:10A640007D7D7E7E7E7E7F7F818384848484838201
:10A65000818180807F7F7F7E7E7D7D7D7D7D7E7E12
:10A660007F808284858585858482818180807F7FCB
:10A670007E7E7D7C7C7C7C7D7D7E7F7F82838787E8
:10A6800087878685838180807F7F7E7E7D7C7C7BC3
:10A690007B7C7C7D7E7F7F838589898A8988868291
:10A6A000817F7E7D7D7D7C7C7C7B7A7A7B7C7D7EE0
:10A6B000808085878C8B8D8A898784807D7C7A7A5F
:10A6C0007A7A7A7B7B7B7B7B7D7E7F8081838589A9
:10A6D0008B8D8D8B8986837E7B79777878787A7B72
:10A6E0007C7E7E7E7F808081838284838A898F8C3A
:10A6F0008C8887827E7B77777678787B7D7E80807A
:10A700008280828181828182808288878D8A8B8704
:10A7100085817D7A75787579797C7F808283848163
:10A720008480827F807F807E8286898B8B8C8586E9
:10A73000807C7C7779787B7B7E7F81818182808140
:10A7400081817E817E807E7F87848F8B8C888482CE
:10A750007B7B767878797C7D828081828181808222
:10A760007D817F807F7F7E807E8984918C8A8781B6
:10A7700080767C757A7B7C817E82827F837D837FFD
:10A78000818082807E807F7D807D828B8A91878C94
:10A79000807D7B737B767D7E81828282817F807DDE
:10A7A000837E81807F817E7F7E7E807F818D899385
:10A7B000858A7C7978717B7A7F848084817E807CB5
:10A7C000827D83808280807E7F7C807E8080808688
:10A7D0008C8D9084837C737B717E80818581818068
:10A7E0007A807D808380837E807D7F7E7E7F837E76
:10A7F000837D83928892857D7F70777A7A877F8642
:10A80000837B817A7C817E84827F827B807D7D8058
:10A810008280837F817D8A8C8B907E7C7B6F7B7C2A
:10A820007E898085817A7E7A7E838184827F7E7D27
:10A830007C7F7E80817E807F807E898E8C8F7E79FA
:10A84000796F7C7D7F8A838180787C7D7F84848220
:10A85000837C7C7C7D80818283807E7E7B80958AE8
:10A860008D8A78787571818085897F7E7D767E80FE
:10A870008287847F7F7B7A7E7F838381807D7C7FDC
:10A880007D88958A8C8272777578868484867A7AB8
:10A890007B7A818783858279797C7D828482827EBE
:10A8A0007C7B7F7F84968C878373737A788388829E
:10A8B000837C777B80808885817F7C797D808384A1
:10A8C000827E7E7C7D7F8188968A838173747B7D86
:10A8D0008289837F7B7A797F848584837C7B7C7D7E
:10A8E0007F8483817F7D7C7D8081959184847D6F51
:10A8F000787C7E8589827C7A7A7B80858582827D60
:10A900007A7C7F808283817E7E7D7C84948E848627
:10A910007A71767F7E8387837A7B7D7B7C85868157
:10A9200081807C7A80808181847E7D7D868F8B850D
:10A93000867D75767D7E7F84847E7B7D7D7D828431
:10A940008381817E7C7D80808081817E7F8C8E84EE
:10A9500083847C757B807E7D83817C7B7F7F7D8112
:10A9600085817F80807D7E80817F8080848B8A83CB
:10A9700083817B787D817F7D807F7C7B7E807F80F3
:10A9800083827F7F807F7F8081807F868D888182A8
:10A99000827C787E827F7D7F807B7B7E817F8083CF
:10A9A000827F7F80807F80828081898B8581828188
:10A9B0007B7A80807D7C7F7D7A7C808080808281B4
:10A9C0007F7F81808080818489898381817E7B7C77
:10A9D000807F7E7D7E7C7B7C8080808081807F808C
:10A9E00081818181838889858282807C7D7F807D51
:10A9F0007D7D7D7B7C7F8080808181808081828164
:10AA000081848988848282807D7D807F7D7C7D7C3D
:10AA10007B7C7F7F7F7F8080808082828182888A2A
:10AA2000868282817E7D7F807E7C7C7C7B7B7D7F3D
:10AA30007F7F8080808082838282858887838282F4
:10AA4000807D7E7F7F7C7B7C7B7B7C7E7F7F7F802D
:10AA5000818081828382858887828181807E7E7FDA
:10AA60007F7C7B7B7C7B7C7E7F7E7F808181818203
:10AA70008382858887838182817E7E807F7C7B7BC9
:10AA80007C7B7C7E7F7E7E7F8181818283828688C3
:10AA900086828183827F7F807E7B7A7C7C7B7C7DCB
:10AAA0007D7D7D7F8181818282838787848182838E
:10AAB000817F807F7C7A7B7D7C7B7C7D7D7D7F81BF
:10AAC0008181818284868682808183817F7E7E7C73
:10AAD0007B7C7E7D7C7C7E7F7F8081818081828388
:10AAE00084837F7E8182807E7E7E7D7D7F7F7E7D72
:10AAF0007E8080808080808081818082817E7E8057
:10AB0000827F7D7E807F7E7F807E7E7F81807F7F53
:10AB100080807F7F80807F7F7F7F80807F80807F3D
:10AB20008080817F7E80807F7F7E8081807E7F812C
:10AB3000817F7F8081807F7E7F80807F7E7F817F1D
:10AB40007E7F81807E7E81807F7E8081807F80800D
:10AB50007F7E7F817F7D7F82817D7D80807F7F8002
:10AB60007F7F7F7F7F80817F7F8081807E7E8181EC
:10AB70007F7E7E80827F807F81817E7D8083817CDD
:10AB80007D82847E7B7F84827E7C81827F7C8082CA
:10AB9000817D7D81837F7C7F83817E7E81817F7EBD
:10ABA0008081807E8081817E7F7F8180807E7F81A9
:10ABB000817F7D7E81807F7F7E7F807F7E7F807FA3
:10ABC0007F7F807F7F807F7E7F81817E7C8083808E
:10ABD0007E7E7F80807F7F80807E7E7F7F80817F82
:10ABE0007D7E81827F7D7F8080807F807F7F807F70
:10ABF00081807F7D8081807F7F7F827E7D81848058
:10AC00007C7E82837E7B8083817D7D81837E7C7F51
:10AC100083807F7E807F7E7F82807D7D81807F7E3E
:10AC200080817E7D8181817F7F808180807F807F28
:10AC30007F7F7F80808080807D7D8080807F7C7F23
:10AC4000827F7F81807D7D7F83827C7A7F84847D0B
:10AC50007B7E83817D7E7F81827D7E82817D7D7F03
:10AC600083837D797F84857F7A7D83837F7D7F81E8
:10AC7000817E807F7D7F84827C7A8084827D7D7FDF
:10AC8000807F7F81807C7D8284807B7A8185827BCE
:10AC90007B7F82827E7C7F82837E7A7F83807E7FC1
:10ACA000817E7E8184807A7D8281807F7F7E7D80AF
:10ACB00083817C7D82837F7C7E808180817F7D7E9D
:10ACC00081807E7E81807E7F817F7E7F82827E7C8E
:10ACD0007E81827E7C7F83807C7B8185827C7B7F82
:10ACE0008180807F7F7E81817D7D7E82827E7C7F70
:10ACF000818084817C787F88877C777D8383817E57
:10AD00007E7D8182807C7C8184807C7D808083814B
:10AD10007D797C8183817F7E7D7E8081807E7E7E49
:10AD20007F7F81807F7D7E80807E7E81837F7C7D32
:10AD30008285837E7B7C8183837E80878D83747113
:10AD40007E8D8D7F73757F8787807A797E838480FF
:10AD50007D7C8082817F7D7F8181807E7E808080FE
:10AD60007F7E7F82929887675C779CA18464647EF3
:10AD700093908175777D828382817F7D7D7F8181C4
:10AD800081807F7D7E7F82827F7D7D7F808D9E9989
:10AD9000724E5A8FB8A16A516A919E8773758184E9
:10ADA0007B79838B8778717A878B8379797E8383AC
:10ADB0007E7F807C7D7E8297A39164425F9FC3A249
:10ADC00062466795A28E73727C7F7D7C868D8675C8
:10ADD0007078878B827C7B7E7F7E7F8385817B788A
:10ADE0007E83939F996D46538FC1AF72455A89A454
:10ADF000977A6E75807E7D828B887C7070818D8D58
:10AE00008175727C8687837E7A7C7E7F8183979F23
:10AE1000895D456AA8C09859456C9DA88D6E6B796F
:10AE200084847D8088877C717484908C7D7173802C
:10AE30008A8880797A7E82828181939B89614C6E37
:10AE4000A5BA955C496D9EA88D6C687889887E7ED0
:10AE500082877E737481918E7E6F72808E8D8076F4
:10AE6000757E8584817E7E8091988A67526E9EB3BE
:10AE700094624D6D99A58E6D6878898B807A7E83FA
:10AE8000837A757E898B8375737D888B8278777CD6
:10AE90008585807C7C80818692967D5D577CACAE7A
:10AEA00085554F78A4A68766637A8F8F81777A82DB
:10AEB000847C788089887E7275818C8A7D747780A5
:10AEC00088877F797B7F8481807F8E998B69516AA7
:10AED0009EB69D65486195AE9B725C6B88958C7A39
:10AEE000747B84837C7A8088867D747781898A7E6E
:10AEF00076778188887F76777F87877F797A808861
:10AF000092967E605776A2AF91614E6995A896732E
:10AF1000616E84918A7D777C82817D7B8085867E4F
:10AF20007778808687817A787C8386817E7C7D7F36
:10AF300080817F7F807F7F8B978A6F59678EACA2DD
:10AF40007855597FA3A1846964778C90877A787C3F
:10AF500080807D7E8184837E7A7A808585817C79FC
:10AF60007D8184837E7D7D7E8181817F7F7F7E7FE9
:10AF70007F848E958668586A94AEA27553577EA2D8
:10AF8000A58A69617188948D7F77767C7F828484BD
:10AF9000837D79797E8587827B797C808384807DBF
:10AFA0007D7E808081807F7F7E7F80808280807EAA
:10AFB0008A9591775B5C7EA5AF8E60516790A99A68
:10AFC0007C65667C8D90877B797A7D7F81838581A6
:10AFD0007E787B808687807B797D8384847F7B7E7F
:10AFE0008081817F807F7F7F7F7F8080827F7E7F67
:10AFF0007F858E988A6C54618BADAC8459516C9569
:10B00000A99779656A7D8A8C867D7B7C7D7D7C8332
:10B0100086847E77787D8588837D79798084858232
:10B020007D7C7D7F817F81807F7F7E7F808081802E
:10B030007F7E7D7F7F80898F8D7B67657793A193EE
:10B040007661657F949688767075808785827F7E2D
:10B050007F7C7D7F8385827D7B7B808383817D7CFC
:10B060007E7F8281817F7E7F7F7E807F81807F7EE9
:10B070007E7F8080807F7F7F7F7F807F8081868AC8
:10B0800085796F71818F9386756E73828D8B8278CF
:10B09000777B818382807F7F7F7E7D7E8183827FBD
:10B0A0007C7B7E8182827F7D7E7E808181807F7EAF
:10B0B0007F7F7F7F80807F7F7F7F7F8080807F7F9B
:10B0C0007F7F8080807F818486827B7577808A8B7A
:10B0D00083797478818787817C7A7D7F8181818083
:10B0E000807F7E7D7E808282807D7D7E8081828069
:10B0F0007E7E7E808080807F7F7F7F7F808080805B
:10B100007F7F7F7F808080807F7F7F7F80807F8048
:10B11000818384817C7A7C7F8383807D7D7D7F8039
:10B120008182817D7A7B7F8384807B7A7F82848128
:10B130007E7D7F8182807F7E8081817E7D7D80811A
:10B1400082807F7E7E7E7F808281807E7D7E808108
:10B1500081807F7F7F7F7F7F8181807E7D7E8081F8
:10B1600081807F7F7F7F7F7F8080807F7F7E7F80E9
:10B1700081817F7D7E7F8182817F7E7E7E7F8081D7
:10B18000817F7E7E7E7F8181817F7E7E7F808180C8
:10B19000807F7F7F7F7F8181817F7E7E7F808180B6
:10B1A0007F7E7E7F8080807F7F7F7F7F7F7F8080AC
:10B1B000807F7E7E7F8081807F7E7F7F8080808099
:10B1C000807F7F7F7F8080807F7F7F7F8080808087
:10B1D0007F7F8080807F7F7F808080808080807F75
:10B1E0007F7F8080807F7F7F7F8080807F7F7F8068
:10B1F000807F7F7F80808080807F7F7F7F80808056
:10B20000807F7F7F808080807F7E7F8081807F7F46
:10B210007F7F8080807F7F7F7F7F7F808080807F37
:10B220007F7F808080807F7F7F8080807F7F7F8026
:10B23000807F7F7F8080807F7F7F8080807F7F7F17
:10B240008080807F7F7F8080807F7F7F7F7F808006
:10B25000807F7F7F7F80807F7F7F80807F7F7F7FF9
:10B2600080807F7F7F7F8080807F7F7F7F808080E6
:10B27000807F7F7F808080807F7F7F7F8080807FD6
:10B280007F7F7F8080807F7F7F7F808080807F7FC7
:10B290007F8080807F7F7F7F80807F7F7F80807FB7
:10B2A0007F7F7F7F8080807F7F7F808080807F7FA7
:10B2B000808080807F7F808080807F7F8080807F93
:10B2C0007F7F808080807F7F7F808080807F7F7F86
:10B2D0008080807F7F7F7F7F8080807F7F7F7F8077
:10B2E00080807F7F7F7F8080807F7F7F7F80808066
:10B2F0007F7F7F7F80807F7F808080808080807F55
:10B300007F7F80808080807F7F7F7F8080807F7F45
:10B310007F808080808080807F7F808080807F7F32
:10B320008080807F808080807F7F80807F7F7F8023
:10B3300080807F7F7F7F8080807F7F807F7F7F8016
:10B3400080807F7F7F7F7F7F8080807F7F7F808006
:10B35000807F7F7F7F7F80807F7F7F7F8080807FF7
:10B360007F7F7F7F8080807F7F7F8080807F7F7FE7
:10B37000808080807F7F7F8080807F7F7F7F8080D4
:10B38000807F7F7F7F8080807F7F7F8080807F7FC6
:10B390007F808080807F7F7F8080807F7F7F7F7FB6
:10B3A0008080807F7F808080807F7F7F80808080A2
:10B3B000807F80808080808080808080808080808E
:10B3C000808080808080808080808080808080807D
:10B3D000808080808080808080808080808080806D
:10B3E000808080808080808080808080808080805D
:10B3F000808080808080808080808080808080804D
:10BA100080808080808080807F7F807F7F7F7F802C
:10BA20007F80807F807F7F808080807F807F7F7F1E
:10BA30007F7F807F7F808080807F7F7F807F7F7F10
:10BA40007F7F7F80807F807F7F7F808080807F7FFF
:10BA50007F7F808080807F7F7F808080807F7F7FEE
:10BA60007F8080808080807F7F80807F7F807F7FDD
:10BA7000807F807F7F807F80807F7F7F7F808080CE
:10BA80008080807F808080808080807F7F7F7F80BB
:10BA90007F7F7F7F808080807F80807F80807F80AD
:10BAA000807F807F7F7F7F7F80808080807F80809D
:10BAB0008080807F7F7F7F7F7F808080807F80808D
:10BAC00080808080807F808080807F7F7F7F80807B
:10BAD0007F7F7F7F807F8080807F807F807F807F6F
:10BAE0007F7F7F808080807F7F7F7F807F7F7F7F61
:10BAF000808080807F7F8080808080808080808048
:10BB0000807F80808080807F7F7F8080807F807F3B
:10BB1000808080807F807F7F8080807F7F807F7F2C
:10BB20008080807F7F7F80808080807F8080808019
:10BB30007F7F807F8080808080807F7F7F7F80800C
:10BB400080808080808080808080808080808080F5
:10BB5000807F7F808080807F8080808080808080E8
:10BB600080807F80808080808080808080808080D6
:10BB7000808080808080807F7F7F807F7F7F7F7FCD
:10BB80007F80808080808080808080808080807FB7
:10BB90007F7F7F80807F807F7F80808080808080AB
:10BBA0008080808080807F7F7F7F807F80807F7F9C
:10BBB0007F80808080808080808080807F7F807F89
:10BBC0007F7F7F7F7F7F807F807F7F7F7F7F7F7F83
:10BBD000807F7F7F7F7F7F7F7F808080808080806D
:10BBE0008080807F7F808080807F7F7F807F807F5C
:10BBF0007F7F7F7F7F7F7F807F808080808080804D
:10BC000080808080807F7F80807F80808080808037
:10BC10008080807F808080807F7F807F807F807F2A
:10BC2000807F807F7F7F807F807F7F7F807F807F1E
:10BC30007F7F7F7F80808080807F7F7F808080800B
:10BC40007F7F807F7F807F7F7F7F7F807F7F8080FF
:10BC50008080807F807F807F7F80807F807F7F7FEC
:10BC60007F807F80807F7F7F8080807F7F7F7F7FDE
:10BC70007F7F807F807F80807F807F807F807F80CC
:10BC800080807F807F807F80807F7F7F7F7F807FBD
:10BC9000807F807F7F7F807F807F807F807F807FAD
:10BCA000807F807F807F807F807F807F807F80809B
:10BCB000807F7F7F807F807F7F7F807F807F807F8E
:10BCC0007F7F807F807F7F807F807F80807F7F7F7E
:10BCD000807F7F80807F807F807F807F80807F806B
:10BCE0007F807F807F80807F7F807F807F807F7F5D
:10BCF0007F7F7F7F7F7F807F807F807F7F807F804F
:10BD000080807F80807F7F7F7F807F7F7F807F7F3D
:10BD1000807F80807F807F807F807F807F807F7F2B
:10BD20007F7F7F807F808080807F807F807F80801A
:10BD30007F807F7F80807F7F807F807F807F80800B
:10BD4000808080807F7F807F807F7F807F807F7FFB
:10BD50007F7F7F7F7F7F7F7F7F7F807F80808080EE
:10BD6000808080808080808080807F807F7F7F7FD8
:10BD70007F7F7F7F7F7F7F7F7F7F7F8080808180CD
:10BD800081808080808080808080807F7F7F7F7FB7
:10BD90007F7F7F7F807F7F7F807F807F80828184A5
:10BDA0008284838384818380807F7E7F7D7D7E7D8E
:10BDB0007F7D7F7F7F807F81808081808081858083
:10BDC0008684868583868281817F7F7C7D7D7C7D64
:10BDD0007C7E7E7E8080818280828081817F808166
:10BDE000838387838A84868581837E7D7E7A7D7B3B
:10BDF0007B7E7C7F7F808381828282818080807E47
:10BE00007E857E8887848C83898480827D7C7B7715
:10BE10007D7A7A7D7D7F81808483818381827E7F2C
:10BE20007F7D7E867F8D84898C8586827E7F7878F3
:10BE30007A767D797E8081818683878282817F7E0A
:10BE40007C7C7E7B7F8B82918A8D8F838480767AC7
:10BE500074727B757F7F81868785898084807B7CF7
:10BE60007B797D7A7F7F82928895908B8E81777A9D
:10BE7000707471717B7E828885898B84837F7D7CE1
:10BE800079787C7A807F7F8384938A909C87858170
:10BE900073766F6B7C778187838B8C82857D7C7DCD
:10BEA000767A7F7C828183838080837F9787919459
:10BEB00086837A6B786D717E7E8890858A847A7E9F
:10BEC00079777D7B81838183837E817D7D7E7E9575
:10BED0008F909E85797A626E7671878C8892857D47
:10BEE0008174767C7983888185827C7D797C817E72
:10BEF0008383909C8F94836F6F6968807D8B958816
:10BF0000868271787877858784897E7B7D767C8050
:10BF10007E868983837F9A928B91776B766674880D
:10BF2000838F927F7F79717A7E808A8783827B7606
:10BF30007C7C7E848482827D7B7D9F988E937863D7
:10BF40007465758E8C8E957B77756E7888868E89F4
:10BF50007F7A77757D81868786807D79797C83A8D5
:10BF6000998F8E6B5C71657F9890908D70737271F4
:10BF70007F8D8A8C867B7176777F8A8985847C77B2
:10BF8000777C7D8FAC958E845D5F736D889A8E8F84
:10BF9000866D717578869188878073727A79878CBF
:10BFA00087828176767981828BAA968684655D7494
:10BFB00072839D928885706B767A84938D837F736C
:10BFC0006E7A7F848F8A7F7D77747C81848897A145
:10BFD00086847463697B798D95897D7F6E73808497
:10BFE000858F817D7A757381848689857A797A795E
:10BFF0007E868785A3947C807564747E7E8C918216
:10C000007A7D75758585858984777A7977808B8443
:10C01000868279767E7C80858588A28C7D7D746819
:10C02000777E828C8D7F7D7B747A85848589837809
:10C0300078797881878485847A797B7C7F868394FC
:10C040009986807D6C6D797E848E897F7C7A727C06
:10C05000848486887F7B7A787981838585837C7BDD
:10C060007B7A7F83859A9485827A6A72797C858DC2
:10C0700085817F76747B7E81898983817E77797ED5
:10C080007E8186837F7F7E7A7D8092938B8B867480
:10C090007475747786858485847B7C7C7C7E8482C1
:10C0A0008283807C7E7D7E7E82808181807D808D8A
:10C0B0008D8889857C7B7A76787E7E7E81817F8083
:10C0C000807E8081808082807F807F7E7F807E7F77
:10C0D000817F7F85888687898381817E7B7D7D7B4B
:10C0E0007D7F7D7D807F7E80818081818080818059
:10C0F0007F807F7F7F7F7F82858484868482828128
:10C100007F7F7F7D7D7E7D7D7E7E7D7F807F7F8149
:10C1100080808180808080807F808283838484830C
:10C1200082828180807F7E7E7E7E7D7E7E7E7E7F1F
:10C130007F7F8080808080808080808081838383F7
:10C1400084848383828181807F7F7F7E7E7E7E7EEA
:10C150007E7E7E7F7F7F7F808080808080808282E5
:10C160008383848484838382828180807F7F7E7EB8
:10C170007E7E7E7E7E7F7F7F7F7F7F8080808082CD
:10C18000838384858484848382828180807F7E7E91
:10C190007E7E7E7E7E7E7E7E7F7F7F7F80808081B2
:10C1A000838384858585848383828180807F7E7E6E
:10C1B0007E7E7E7E7D7E7E7E7E7E7F7F7F7F808296
:10C1C0008384858685858583838281807F7E7E7E4C
:10C1D0007E7D7E7D7D7D7E7D7E7E7E7E7F80828378
:10C1E00084858686868584838280807F7F7E7E7E2E
:10C1F0007E7E7E7E7E7E7E7E7E7E7F7F818283844B
:10C200008585858584838281807F7F7E7E7E7E7E1C
:10C210007E7E7E7E7E7E7E7E7E7F80818283848522
:10C22000858584838281807F7F7E7E7E7E7E7E7E0A
:10C230007E7E7E7E7F7F7F7F8080828384848485F4
:10C2400084838381817F7F7E7E7E7D7E7E7E7E7EF7
:10C250007F7F7F7F7F7F7F808182828383848383D0
:10C26000828181807F7F7E7E7E7E7E7E7E7E7F7FDE
:10C270007F7F7F7F808081818282828282828181B2
:10C2800080807F7F7F7F7F7F7F7F7F7F7F7F7F7FBC
:10C290007F7F808081818181818181818180808097
:10C2A0008080807F7F7F7F7F7F7F7F7F7F7F7F809A
:10C2B0008080818181818080808080808080807F7B
:10C2C0007F7F7F7F7F7F7F7F7F7F7F808080808079
:10C2D000818080808080808080807F7F7F7F7F7F63
:10C2E0007F7F7F7F7F7F7F7F808080808080808056
:10C2F0008080807F7F7F7F7F7F7F7F7F7F80807F49
:10C3000080807F7F80807F7F7F7F808080807F7F35
:10C3100080807F7F7F7F8081807E7F808080808023
:10C320007F7E7F7F7F8081807F7F7F7F807F7F8018
:10C330007E7E8283827F7E7C7E8181817F7E7D7E08
:10C34000807F82818081817E7F7F7E80807D7E7EF6
:10C350007D80828182807F7F7F80828281807D7CE0
:10C360007D8083817F7F7D7E818181807F7D7D7ED9
:10C370008081817F7E7D7D808181858D8A838078AB
:10C38000747B808184827C7B7D7E8184837F7E7DC3
:10C390007C85918C827C72707C8688888478767BA0
:10C3A000808486847E7B7B7D90A3998476625F7A8D
:10C3B0008F929385706B7680898E887C76777A9160
:10C3C000B5A77D6657557DA6A5927F635B738E9555
:10C3D00093897569747F90BAB67A5552567FB4B313
:10C3E0008D6F5D597498A090807267718692B3B812
:10C3F0008456515879ACB9926E5D5B7295A1917D6E
:10C40000736D71838C9DBFA7614551679AC4AE75EA
:10C410005755668DAB9D7C6C6C73828F8B93B7A0E8
:10C420005C475C73A0C1A4644F607895A8946F6763
:10C43000737D858D868EB4A25E455D7AA3BD9E5FB9
:10C440004B66869AA18A68667C8987867F7DAABAB0
:10C450007C45517093B7AF6F485E85979D8F6F6233
:10C46000798D8A817E7996BF9C52416487AEBA8964
:10C470004E4F7791999680666D878C807F7F7A92F8
:10C48000C0A051426A89A5B38D524F7C9896907D89
:10C49000666D8C9481767B7C8ABAB16037608CA1A2
:10C4A000AE965C4A749C99887D6F6A839686737891
:10C4B00083819DBD9245437B9BA1A18051568AA358
:10C4C0008F7B78717289967F6E7A89818AB4A85E33
:10C4D000406C8D949F986C50709997807D7B70789C
:10C4E000908F757183877D84ADAC6F48618494A013
:10C4F0009D714E64949F8A7A7670758C967F6D7864
:10C5000087868087A5A577515E7F939E9A78596527
:10C510008B9A8B7A76757987908372738387827F03
:10C5200088A2A577515E83969B947A5E64879B8EE2
:10C530007B7676757F8E8D7A727B85828082889CF1
:10C54000A480575B7F94978F826A637A95937F76F6
:10C55000797A7C878E8274768285818082889A9FA0
:10C560007F5F627F8F8D8A83726B7A8F8E7F787BFD
:10C570007C7B838B8678757F84807F83818397A083
:10C58000856466808B8485867B6D778B8E7F797FD3
:10C5900080797C87887B7780847E7C82867D859D80
:10C5A0009E7B637187867E8488796D7B8D897A7B9B
:10C5B0008580767D8B87797883837A7B85867B7B84
:10C5C000939F896F7081837C818880727685877D57
:10C5D0007D8584797883887F7A80847D7980868060
:10C5E0007B7E8D948D7D757A7F808182817C7A7D42
:10C5F00080808081827F7D7E8181807F80807E7E41
:10C600008080807F8089908A7E777C81807D808217
:10C610007F7A7B7E807E8081817E7D7F82807F802D
:10C6200081807E7E80807F7F858C8B827A7C8181F9
:10C630007E7E81807D7B7D7F807F8080807F7F800C
:10C6400081808080807F7F7F80807F80868A8780D6
:10C650007D7F817F7E7F807F7C7C7E7F7F7F8080EF
:10C660007F7F808080808080807F8080807F7F80CF
:10C67000848786817F80817F7F80817E7D7D7E7EB5
:10C680007E7E7F7F7F7F80808080808080808080B2
:10C6900080808080838584828181817F8080807F8B
:10C6A0007E7E7E7D7E7E7E7E7F7F7F7F7F808080A0
:10C6B0008080808081808080838484828281818068
:10C6C0008080807F7F7E7E7D7D7D7E7E7E7E7F7F83
:10C6D0007F7F808080818181818080818384848349
:10C6E000828281807F80807F7F7E7E7E7D7D7D7E59
:10C6F0007E7E7F7F7F7F7F8080808081818180813F
:10C7000083848483838281808080807F7F7F7E7E1C
:10C710007D7D7D7D7E7E7E7E7F7F7F7F8080808031
:10C7200080808182838484838383828181808080EE
:10C730007F7F7F7E7E7E7E7D7E7E7E7E7E7E7F7F15
:10C740007F7F7F80808081828383838383828282D4
:10C750008181818080807F7F7F7E7E7E7E7E7E7EE7
:10C760007E7E7E7E7F7F7F7F7F80818182828282CC
:10C7700082828281818181818080807F7F7F7F7EB4
:10C780007E7E7E7E7E7E7E7E7E7F7F7F7F808081BE
:10C7900081818181818180808080807F7F7F7F7F98
:10C7A0007F7F7F7F7F7F7F7F7F8080808080808092
:10C7B000818180808080807F7F7F7F7F7F7F7F7F80
:10C7C0007F7F7F7F7F7F808080808080808080806F
:10C7D0008080808080808080807F7F7F7F7F7F7F60
:10C7E0007F7F7F7F7F8080807F808080808080804F
:10C7F000807F8080808080808080807F7F7F80803D
:10C80000807F7F7F808080807F7F7F7F7F80808030
:10C81000807F7F7F808080808080807F7F7F80801E
:10C820007F7F7F808080808080807F7F7F7F7F7F11
:10C830007F7F80808080807F7F7E7E7F80818180FF
:10C84000807F7F7F80808080807F7F7F7F7F8080F0
:10C850007F7F7F7F8081817F7F7E808283817E7CDE
:10C860007D7E8182817E7C7D7F81807F807F7F80D5
:10C87000807E7E7E7F80807F7F7F807E7F81827FC3
:10C880007C7A7D8285837E7A7B808585827D7A7CB9
:10C89000818383807E7E7F80807F7E7E8183837F95
:10C8A0007C7A7C808384827E7B797C828786817B94
:10C8B000787A7F8689867F77757A838989827A7686
:10C8C00079808787827B78797F8487847F7B797B77
:10C8D0007F8385827F7C7C7E8182827F7E7E7F805B
:10C8E0008080807F7F7E7D7E808283827F7D7C7D55
:10C8F0008082827F7D7D7F8081807F7E7F80807F40
:10C9000080807F807F7E7E7F8182817F7E7D7E8032
:10C910008281807E7E7F8181817F7E7E8081818019
:10C92000807F7F7E7F7F81817F7E7F7F8081807F10
:10C930007F7F7F7F80807F7E7F81807F7E7E808003
:10C9400081807E7D7E8082807F7F7F7F82807E7FF0
:10C950008081817F7E7E8081817F7F7F81807F7FDC
:10C960007F80817F7E808081807E7D7D8082827FCE
:10C970007D7D7F8080818180807F7E7E80808080C1
:10C980007F7E7E7F80807F7E7F81817F7F7E7F80B4
:10C99000817F7F7F7F8081807F7F7F7E808081809D
:10C9A0007F7F7F7F7F7F8081817F7F7E7E7F818190
:10C9B000807F7E7E8081817F7E7E7E7F8181807F81
:10C9C0007F7E7F808181807F7F7F7F7F8080817F6E
:10C9D0007E7E7F8080807F7F7F80807F7F7F7F8063
:10C9E00080807F7F7F808180807E7E7F8181807F4D
:10C9F0007F7F807F7F7F80807F7F7F80808080803F
:10CA000080807F7E7F7F808180807F7E7E7F81812E
:10CA1000807E7E7E7E7F8181807F80848785807C12
:10CA20007C7D8181807D7D7D7E7F80818180807F16
:10CA30007F808181808188919388786F737C8587DE
:10CA4000837B75757B838786837F7E7E7F818282F1
:10CA500080828A8F897A71727B8387868078757BE2
:10CA6000838785817E7C7C7D8183817F7E8B9C9F7B
:10CA70008B6F606A7D8D918A7A6F6F7D898C8781DB
:10CA80007A77787F8585827E7D8EA3A38461576BBC
:10CA90008393968B766A70818C8A867F78747A8489
:10CAA0008784817E7B87ABB58B524866889BA5982F
:10CAB0007558618093928F83706878898D86837DA5
:10CAC000757598C1B0693F507292B0B1845350737C
:10CAD0009098998C6F6274888A8686807577819524
:10CAE000B5AD74464B6E94B1B08656506E8C9B9B20
:10CAF0008A6F6473858987867F787C81809FBE99E1
:10CB000058485B78A0BDA76A4C5D7990A39B7B6475
:10CB10006C7E86898B7F767D847F7A91BCAA6F50EC
:10CB20004F5C91C2B97E57506083ABA9866A686E2C
:10CB30007C8E92837C7D7D797C85ADB88D5E4A4C00
:10CB400077B1C39C6B4F51709CAE987868667289C0
:10CB50009389807D7A797E7F7DA4BF9768514464F4
:10CB6000A6C4AB7C56485F91B1A2866E5E67849482
:10CB700090877E747580828082A4B59271564366D8
:10CB8000A1B9AB865B485E8CAAA490705B6581906E
:10CB9000948D7D72757D83848485A4AB8D6F574D94
:10CBA0006F9EB3A5825D4F638CA4A18E715E687E7B
:10CBB00090968E7D70717B848988807982A7A68A01
:10CBC000725850779CAAA081615769899B9C8E738B
:10CBD000656D7B8A928B7E75757A828786807C7B79
:10CBE00095AD9A82694F5C83A0AB9A7A60576E8A42
:10CBF000999C8B6E676C798D958D817571757F8829
:10CC00008A85817882A8A28B7A5B537291A2A18CCB
:10CC1000705D65798A9A9884766C6C78878E8E863A
:10CC20007C74737A80888A857F7994A59186705602
:10CC3000657F919E9B846E6669758A9693897B6DEC
:10CC40006C76818C918B7E7770747D878B8A837AEA
:10CC5000819E918B826763777C8C978F7F786E6ED5
:10CC60007A878B8E897B7374767E8A8B87827A74BF
:10CC7000777C818689837E8199918A837066767BB1
:10CC800086918F827B74717884878B8980767777A1
:10CC90007C848885847E78787C7F848684807D7A95
:10CCA00090998F8A7D696A767E89928C807974707A
:10CCB0007B85888B897D7876787C858886837E786D
:10CCC000797C7F828784807D7D90958D8A7C6C6F56
:10CCD000767C868C887F7C77757C858587857E7958
:10CCE0007A7B7D838683817F7B7A7E808283827F4D
:10CCF0007E7C8C948D8986757178797D86867F7D22
:10CD00007D787C82858386817C7B7E7C808383802A
:10CD1000807D7C7D80818182807E7E858D898685F7
:10CD20007D777A7B7C80837F7D7E7C7B8183838320
:10CD3000837F7D7E7F7E8082807E7F7E7D7F808000
:10CD40008081807F828A888585817B7A7D7C7D80D9
:10CD5000807C7D7D7C7C8081818283818081807FDD
:10CD600080807F7E7F7E7D7E7F7E7F8080848988BD
:10CD70008585847F7C7E7C7B7C7E7C7C7E7E7D7FCB
:10CD80008180808282818181807F807F7E7E7F7EA4
:10CD90007E7F7F7F7F818688878688858281807D70
:10CDA0007B7C7C7B7B7D7D7D7F808080828281819E
:10CDB00081808080807F7F7F7F7E7F7F7F8186866E
:10CDC000858788858282807C7B7C7B7A7C7D7D7D6B
:10CDD000808180818281818181807F807F7E7F7F51
:10CDE0007E7E7F7F818487858788868282817E7C24
:10CDF0007C7B7A7B7D7D7E7F818081828281818147
:10CE0000807F807F7E7F7F7E7E7F7F828585858716
:10CE100086838282807D7D7C7B7B7D7D7D7E7F8025
:10CE200080818181818181808080807F7F7F7F7F01
:10CE30007F8285848485858281817F7D7D7D7C7CE8
:10CE40007D7D7E7E7F7F80808181808181808080EA
:10CE5000807F807F7F7F81838583848584818180BB
:10CE60007F7D7D7D7D7D7E7E7E7E7F7F7F808180DC
:10CE7000818181818181818080807F80838483839F
:10CE800084838180807F7E7E7D7E7E7E7E7E7F7FAE
:10CE90007F7F80808080808080808080807F807F96
:10CEA0007F838483838383818080807E7E7E7E7E79
:10CEB0007D7D7E7E7F7F7F8080808181818180807B
:10CEC00080807F7F7F808584838283827F7F7F7F56
:10CED0007E7D7E7E7E7E7E7F808080808181808060
:10CEE0008080807F7F7F7F7E7F7F83878783828232
:10CEF000807C7D7F7F7C7C7D7E7D7D7F818181814B
:10CF00008281808181807F7F7F7E7E7E7E7E7E802B
:10CF10008889858080817D7A7C807F7C7C7E7E7D17
:10CF20007E81828181828280807F807F7F7E7F7E02
:10CF30007E7E7F7F808A93908681817C7473797DE9
:10CF40007C7B7E817F7E818485838384827E7D7DE0
:10CF50007D7C7D7D807F7F808181818C96918681A3
:10CF600080796F6E767C7C7D8286848182858481E7
:10CF700082827F7C797A7C7C7D80828282828381BE
:10CF80007F828F958D827F7D746B6E79807F8188A3
:10CF90008B85818285817C7C7E7E7A7A7D80808093
:10CFA000828484808080807D7C8693948980807B4D
:10CFB0006F6B747F8381848A89827C7F837E797C96
:10CFC000817F7C7C8082817F8284837E7E80807D65
:10CFD0007B8390978B817E7A716B707D8582868A48
:10CFE0008A847D7D7F7E7A7C7F817D7C7F8282804A
:10CFF0008182837E7C7C807F7D7F82838791978DF9
:10D000007D7574706C727F8B8B8789878279787C51
:10D010007F7C7D8183827D7D81817F7E8082807C1B
:10D020007D80807E7F8082808691978A7A737271FC
:10D030006E73848F8D8785847E75757C82818081F7
:10D0400082817C7C7F82817F8181807C7C7F8280E9
:10D050007F81817F7D818E988C79707275707587E4
:10D060009690857F7D7A73747F88888280817F79AE
:10D07000787E8383807F82807D7C7F82837F7E80B9
:10D080007F7E7D7E828C929084726F707478848FA4
:10D09000928A7E797877787C8589847D7C7C7C7C9B
:10D0A0007F8485837D7C7C7D7E7F8384827E7C7D86
:10D0B0007E7E818182838A918A7B6E6F787C808676
:10D0C0008F8E8275757A7D7E8188888079787D8063
:10D0D000818183827E7A7A8083838181817E7B7B5A
:10D0E0008082828180807F7D7C899591806C6D7546
:10D0F0007B7D87929283727078808182888A817426
:10D10000747C85848283837E77767D868682807F29
:10D110007E7B797D8585837E7C7E7D7C80828B9104
:10D120008F7D6C6A7580858A8E8C7F71707985871A
:10D130008684837C74767F8989837D7C7C797C82FC
:10D140008987807A797D7E808385847E797A7F82E3
:10D150008282817F8184888178767B8181818485C8
:10D16000817A787D84838080827F7A7B8084837FCC
:10D170007E7E7F7D7E8184827E7C7D80807F8082BA
:10D18000807E7D7E8181807F80807E7E8489857B9C
:10D1900075798082818384817B787D8384817F809F
:10D1A0007F7C7B8084847F7D7E7F7E7E8183827E88
:10D1B0007C7E80808080817F7E7D7F8181807F807A
:10D1C0007F7E7E808384827D7B7C7F818182827F63
:10D1D0007D7C7E818280807F7F7E7E8082817F7F5A
:10D1E0007F7F7F7F8181807E7E7F80808080807F47
:10D1F0007E7F8080807F807F7F7F7F808081818035
:10D200007E7D7F80818080807F7E7E7F8180807F29
:10D210007F7F7F7F8080807F7F7F807F8080807F17
:10D220007F7F8080807F80807F7F7F80807F7F7F07
:10D23000807F7F7F80808080807F7E7F80808080F5
:10D24000807F7F7F8080807F7F7F7F7F7F80807FE8
:10D250007F7F80807F7F80807F7F7F80807F7F80D7
:10D26000807F7F7F80807F7F7F807F7F80807F80C7
:10D2700080807F7F7F80808080807F7F7F7F8080B5
:10D280007F7F7F807F7F8080807F7F7F807F7F80A8
:10D29000807F7F7F8080807F80807F7F7F80807F96
:10D2A0007F7F807F7F7F80808080807F7F7F7F8087
:10D2B000807F7F807F7F7F8080807F7F807F7F7F78
:10D2C00080807F7F7F80807F7F80807F7F7F808066
:10D2D0007F7F80807F7F7F80807F7F7F807F7F7F59
:10D2E00080808080807F7F7F8080807F7F807F7F45
:10D2F0007F80807F7F7F80807F7F80807F7F7F8037
:10D30000807F7F80807F7F7F80807F7F80807F7F26
:10D310007F80807F7F7F80807F7F80808080807F14
:10D320007F7F8080807F7F807F7F7F8080807F7F06
:10D3300080807F7F8080807F7F80807F8080807FF3
:10D340007F7F8080807F7F80807F8080807F7F7FE5
:10D350008080807F807F8080807F7F7F8080807FD3
:10D360007F807F7F7F8080807F7F7F8080808080C4
:10D370007F7F7F8080808080807F7F8080808080B2
:10D380007F807F7F8080807F7F80807F7F7F8080A5
:10D390007F7F8080807F7F7F80807F7F7F80807F96
:10D3A0008080807F7F7F8080807F80807F7F808083
:10D3B000807F80807F7F8080807F7F7F8080808073
:10D3C0007F7F7F808080807F7F7F807F8080808064
:10D3D0008080807F7F8080808080807F7F80808051
:10D3E000808080807F808080807F8080807F7F8041
:10D3F000807F7F7F807F807F808080807F80808033
:10D400008080807F808080807F7F8080807F808020
:10D4100080808080807F7F808080808080807F7F10
:10D420008080807F7F8080808080807F7F7F808001
:10D430008080807F7F80807F7F8080807F7F8080F2
:10D44000807F7F7F7F8080808080807F80807F80E2
:10D450008080807F80807F808080807F80808080CF
:10D460008080808080807F8080808080807F8080BE
:10D4700080808080807F807F80807F7F7F80807FB2
:10D480008080807F7F807F7F8080807F7F80807FA3
:10D49000807F7F7F7F808080807F808080807F8092
:10D4A00080808080808080808080807F7F7F807F80
:10D4B0007F7F8080807F8080807F7F80807F808072
:10D4C000808080808080807F807F80808080807F5F
:10D4D00080808080808080808080807F808080804D
:10D4E00080808080808080807F7F80808080807F3F
:10D4F000808080807F7F8080807F7F7F7F7F808033
:10D5000080808080808080807F7F8080807F7F801F
:10D51000807F7F7F8080807F7F807F7F8080808012
:10D520008080807F807F807F7F7F8080807F808001
:10D530008080807F8080807F807F808080807F80EF
:10D5400080808080807F7F7F80807F7F8080807FE1
:10D550008080807F7F7F7F7F8080807F7F7F7F7FD5
:10D56000807F7F7F8080807F7F7F7F807F7F7F7FC6
:10D570008080807F807F807F80807F7F8080807FB1
:10D58000808080808080807F7F7F7F7F7F807F7FA3
:10D590007F7F80808080808080808080808080808D
:10D5A000808080808080808080808080808080807B
:10D5B000808080808080808080808080808080806B
:10D5C000808080808080808080808080808080805B
:10D5D000808080808080808080808080808080804B
:10E6300080803031323334353637383941424344C3
:10E64000454640305800303132333435363738396A
:10E650006162636465664030780004000008000071
:10E660000000000000020001000010003F00000058
:10E67000646563006964000072756E74696D65009D
:10E6800068656C70000000006C6973740000000025
:10E6900068657800766F69642077726974655F6178
:10E6A0006464722875333220616464722C7533326D
:10E6B0002076616C29000000753332207265616438
:10E6C0005F6164647228753332206164647229006A
:10E6D000766F69642064656C61795F6D732875314C
:10E6E00036206E6D73290000766F69642064656C56
:10E6F00061795F757328753332206E757329000058
:10E7000020E70008000000206C0100006C010008F8
:10E7100084E700086C0100202C070000C8010008F5
:10E720005184A24A04000A110102030406070809E1
:10E7300001291A691E2502040608136CE61B0880CD
:10E74000041A88041A74041A90041A70041A7804BB
:10E75000138F371B08B8081A95081A940813330A40
:10E760001B08D00813EB091B08E80822581420E303
:10E7700032140807331B08B1041A17281985091029
:04E780007701CB0052
:0400000508000131BD
:00000001FF
