:020000040800F2
:10000000500500209D0100083F1500084912000816
:100010003D150008A9020008E11C000800000000CE
:10002000000000000000000000000000651500084E
:10003000AB02000800000000611500086715000809
:10004000B7010008B7010008B7010008B7010008B0
:10005000B701000863150008B7010008B7010008E0
:10006000B7010008B7010008B7010008B701000890
:10007000B7010008B7010008B7010008B701000880
:10008000B7010008B7010008B7010008B701000870
:10009000B7010008B7010008B7010008B701000860
:1000A000B7010008B7010008B7010008B701000850
:1000B0004516000851160008B7010008B7010008EE
:1000C000B7010008B7010008B7010008B701000830
:1000D000B7010008C91C0008D51C0008B7010008BA
:1000E000B7010008B7010008B7010008B701000810
:1000F000B7010008B7010008B7010008B701000800
:10010000B7010008B7010008B7010008B7010008EF
:10011000B7010008B7010008B70100085D16000824
:10012000B7010008B7010008B7010008B7010008CF
:10013000B7010008B7010008B7010008B7010008BF
:10014000B7010008B7010008B7010008B7010008AF
:10015000B7010008B7010008B7010008B70100089F
:10016000B7010008B7010008B7010008B70100088F
:10017000B7010008B7010008B7010008000000003F
:10018000B7010008B7010008DFF80CD000F07AF8DA
:1001900000480047111D0008500500200648804710
:1001A00006480047FEE7FEE7FEE7FEE7FEE7FEE75C
:1001B000FEE7FEE7FEE7FEE7F1150008890100080B
:1001C0002DE9F05F0546002092469B46884606468C
:1001D000814640241BE0284641464746224600F01F
:1001E00041F853465A46C01A914110D31146184659
:1001F000224600F028F82D1A67EB01084F462246E8
:100200000120002100F01FF817EB00094E41201ECD
:10021000A4F10104DFDC484631462A464346BDE8E6
:10022000F09FD2B201E000F8012B491EFBD27047CB
:100230000022F6E710B513460A4604461946FFF7B2
:10024000F0FF204610BD202A04DB203A00FA02F11C
:10025000002070479140C2F1200320FA03F31943B4
:1002600090407047202A04DB203A21FA02F0002156
:10027000704721FA02F3D040C2F1200291400843B6
:1002800019467047064C074D06E0E06840F0010350
:1002900094E8070098471034AC42F6D3FFF778FF94
:1002A000681D0008881D0008FEE77047704790F839
:1002B0003510022903D080214165012070470521B6
:1002C00080F835100068016821F00101016000200C
:1002D00070470000014908607047000004000020DA
:1002E0002DE9F84FDFF87CB100224FF001084FF004
:1002F000030A4FF00F090BF1040E00BF0B6808FA58
:1003000002F42340A3426ED14D68022D01D0122D7C
:100310000ED1D50800EB850CDCF820505607F70EFF
:1003200009FA07F6B5430E69BE402E43CCF82060AB
:10033000066855000F790AFA05FC07F0030726EA5C
:100340000C06AF40374307604E68012E05D0022EE1
:1003500003D0112E01D0122E0ED18668CF6826EA66
:100360000C06AF40374387604668A6430C79C4F358
:100370000014944034434460C6688C6826EA0C0636
:10038000AC403443C4604C68E40065D5364C256805
:1003900045F480452560246822F0030504F4804478
:1003A0000094324C2E19D6F8084895072F0F09FAF9
:1003B00007F5AC432E4DA84201D1002524E02D4D78
:1003C000A84201D101251FE02B4DA84201D10225F1
:1003D0001AE02A4DA84201D1032515E0284DA84274
:1003E00002D1042510E037E0264DA84201D10525B1
:1003F0000AE0254DA84201D1062505E0234DA8427B
:1004000001D1072500E00825BD402543C6F808585E
:10041000DBF800405D464E689C43F60300D51C4364
:100420002C60DEF8004075464E689C43B60300D54C
:100430001C432C600B4D08352C684E689C43F6021B
:1004400000D51C432C60074D0C352C684E689C432E
:10045000B60200D51C432C60521C102AFFF44EAF8C
:10046000BDE8F88F003C01404438024000300140B4
:10047000000002400004024000080240000C02405C
:10048000001002400014024000180240001C02400C
:1004900042694A40426170470AB18161704709046C
:1004A000FBE700000148806870470000080000205A
:1004B000024881680278114481607047080000207A
:1004C0000B4810B5016841F400710160016841F406
:1004D00080610160016841F480710160032000F0D7
:1004E00075F8002000F006F800F024F8002010BD98
:1004F000003C024070B50D4D04464FF47A712878E7
:10050000B1FBF0F00A490968B1FBF0F000F0E6FA3F
:1005100048B9102C07D200222146501E00F036F8B0
:1005200000206C6070BD012070BD0000080000203C
:10053000140000200E4808B5016841F480410160B4
:10054000006800F4804000900948001F016841F0F5
:10055000805101600068002200F080500090114638
:10056000052000F013F8BDE80840052000F002B8AF
:100570004438024000F01F020121914040098000F0
:1005800000F1E020C0F8001170470000F0B40E4BFD
:100590001B680C46C3F30223C3F10705042D00D9E1
:1005A0000425191D072901D2002300E0DB1E0126C6
:1005B00006FA05F1491E214099409E40761E1640DC
:1005C0003143F0BC00F0BCBF0CED00E0064900F088
:1005D000070208684FF6FF03184040EA0220034A6A
:1005E00010430860704700000CED00E00000FA05C1
:1005F0002DE9F0470E46050065D0DFF81481D8F8E4
:100600000000F7B200F00F00B04207D288F8007087
:10061000D8F8000000F00F00B04254D128683D4CDB
:10062000810712D5400703D5206840F4E0502060D0
:100630002878000703D5206840F4604020602068D7
:10064000A96820F0F000084320602878C0072DD06A
:10065000304968680839012812D0022813D00328CD
:1006600011D00968890700292DDA216821F00301DA
:1006700001432160FFF716FF814641F2883A0EE000
:1006800009688903EFE709688901ECE7FFF70AFFCA
:10069000A0EB0901514502D90320BDE8F08720688D
:1006A000696800F00C00B0EB810FEFD1D8F80010B2
:1006B000404601F00F01B14207D90770006800F011
:1006C0000F00B04201D00120E7E72878400705D5A8
:1006D0002068E96820F4E05008432060287800078B
:1006E00006D52068296920F4604040EAC1002060F6
:1006F00000F036F82168084AC1F30311515CC84084
:10070000064908600020FFF7F5FE0020C5E700005D
:10071000003C024008380240501D00081400002030
:100720000448054900680968044AC1F38221515C04
:10073000C84070471400002008380240601D0008BF
:100740000448054900680968044AC1F34231515C14
:10075000C84070471400002008380240601D00089F
:10076000154810B5006810F00C02144813D0411061
:10077000042A0FD0082A0ED10F4C241F22682368A8
:1007800002F03F025B0207D52068C0F38810A0FB8F
:10079000010106E0084610BD2168C1F38811A1FBE4
:1007A00000010023FFF70CFD2168C1F30141491C42
:1007B0004900B0FBF1F010BD083802400024F400FD
:1007C0002DE9F84F050076D02878DFF8F8B2BE4C56
:1007D000C00749D0DBF800105846C1F38101012958
:1007E00008D00068C0F3810002280AD1201D0068EB
:1007F000400206D52068800336D568680028E2D01C
:1008000032E06868B0F5803F10D0B0F5A02F2068C6
:1008100010D020F480302060206820F480202060F8
:100820006868A0B1FFF73EFE06460CE0206840F481
:100830008030F4E740F480202060F7E7FFF732FED5
:10084000801B642873D820688003F7D50CE0FFF77D
:1008500029FE064605E000BFFFF724FE801B642842
:10086000F0D820688003F7D42878DFF8608280070A
:100870004FF000093ED5DBF80010584611F00C0F80
:1008800009D00068C0F3810002280BD18D48001FF9
:100890000068400206D42068800715D5E868012862
:1008A00009D111E0E868B8B10120C8F80000FFF7ED
:1008B000F9FD064605E002E1FFF7F4FD801B022882
:1008C000C0D820688007F7D52068296920F0F80093
:1008D00040EAC10020600DE0C8F80090FFF7E2FD9B
:1008E000064604E0FFF7DEFD801B02281FD82068C3
:1008F0008007F7D42878000722D5724E74486969BA
:100900006C3671B101210160FFF7CCFD074604E0B0
:10091000FFF7C8FDC01B022809D830688007F7D54B
:100920000EE0C0F80090FFF7BDFD074605E083E04C
:10093000FFF7B8FDC01B02287ED830688007F7D4C7
:100940002878400768D5DFF87CA100270AF1380A2B
:10095000DAF80000C0000BD4DAF8001041F0805142
:10096000CAF80010DAF80000012700F0805000906B
:10097000584E3068C00510D4306840F48070306044
:10098000FFF790FD009005E0FFF78CFD0099401AFD
:10099000022851D83068C005F6D54A4EA868683696
:1009A00001280FD00528306810D020F001003060F9
:1009B000306820F004003060A868B8B1FFF772FD1D
:1009C00000900FE0306840F00100F4E740F00400D0
:1009D0003060F7E7FFF766FD0099411A41F2883071
:1009E000814264D830688007F4D50EE0FFF75AFDE5
:1009F000009007E0FFF756FD0099411A41F2883058
:100A0000814254D830688007F4D42FB1DAF800104E
:100A100021F08051CAF80010A869C0B3DBF80010BB
:100A2000C1F3810102294AD00228484607D0C8F8FC
:100A30006000FFF737FD00E039E005463AE0474641
:100A4000C8F86000FFF72EFD064604E0FFF72AFD18
:100A5000801B02282BD820688001F7D4D5E9070134
:100A60000843A96A1C4A490802EB01416A6A41EA43
:100A70008211084395F82C1040EA01611148001FCB
:100A8000016001203866FFF70DFD054605E014E022
:100A9000FFF708FD401B022809D820688001F7D520
:100AA0000BE000BFFFF7FEFC401B022802D9032029
:100AB000BDE8F88F20688001F4D40020F8E7012019
:100AC000F6E70000083802400038024000004742C4
:100AD000800E4742007000400000FFFF10B5401E2E
:100AE000B0F1807F01D3012010BD4FF0E0246061A0
:100AF0000F21601700F024FD0020A0610720206175
:100B0000002010BD7047704730B590F83820012A9A
:100B100020D0012280F83820022380F83930036881
:100B20005C6824F070045C6003685C680D682C43AA
:100B30005C6003689C6824F080049C6003689C6887
:100B400049680C439C6080F83920002180F83810F7
:100B5000084630BD022030BD10B5040003D094F823
:100B6000390010B107E0012010BD002084F83800E2
:100B7000204600F00DF8022084F83900211D20687D
:100B800000F072FD012084F83900002010BD000043
:100B900008B501681D48B1F1804F11D01C4A91423F
:100BA0001DD1016841F0020101600068002200F0DF
:100BB0000200009011461D20FFF7E8FC1D201FE0F9
:100BC000016841F0010101600068002200F00100AD
:100BD000009011461C20FFF7D9FC1C2010E00D4AA4
:100BE000914211D1016841F02001016000680022AA
:100BF00000F02000009011463720FFF7C7FC372097
:100C0000BDE80840FFF7B6BC08BD00004038024010
:100C1000000400400014004070B5044690F838000D
:100C2000012817D0012584F83850022084F83900B3
:100C30002068826822F0770222F47F42826008688E
:100C4000502837D00DDC202859D005DC88B3102877
:100C500041D151E0022070BD302853D040283AD114
:100C60003FE060282ED070280BD0B0F5805F03D015
:100C7000B0F5005F2FD110E02068816821F00701F6
:100C800015E0CB68D1E90121206800F04DFD216815
:100C9000886840F0770088601DE0CB68D1E90121C9
:100CA000206800F041FD2068816841F48041816046
:100CB00011E01EE0CA684968206800F0FDFD50217F
:100CC000206806E0CA684968206800F006FE6021D6
:100CD000206800F033FD84F83950002084F8380093
:100CE00070BDCA684968206800F0E6FD40212068B0
:100CF000EFE700212068ECE710212068E9E72021D8
:100D00002068E6E730212068E3E7704770B50446C5
:100D1000006801694FF00005C943890715D4C1680F
:100D2000C943890711D4E91E01610120207620689A
:100D300080698007204602D0FFF7E7FF04E000F05B
:100D4000D5F8204600F057F9257620680169C94397
:100D5000490717D4C168C943490713D46FF0040188
:100D60000161022020762068806910F4407F2046CF
:100D700002D0FFF7CAFF04E000F0B8F8204600F008
:100D80003AF9257620680169C943090716D4C16874
:100D9000C943090712D46FF00801016104202076CD
:100DA0002068C0698007204602D0FFF7AEFF04E04C
:100DB00000F09CF8204600F01EF9257620680169B5
:100DC000C943C90617D4C168C943C90613D46FF013
:100DD00010010161082020762068C06910F4407F6E
:100DE000204602D0FFF791FF04E000F07FF8204694
:100DF00000F001F9257620680169C943C90708D1C7
:100E0000C168C943C90704D1891E0161204600F0A9
:100E1000F3F820680169C943090609D4C168C943C8
:100E2000090605D46FF0800101612046FFF76AFED4
:100E300020680169C943490609D4C168C943490604
:100E400005D46FF040010161204600F0E1F8206810
:100E50000169C94389060BD4C168C943890607D40F
:100E60006FF0200101612046BDE87040FFF74BBEE6
:100E700070BD000030B587B0044614216846FFF706
:100E8000D7F916492068884226D115480024016800
:100E900041F001010160016801F001010591016863
:100EA00041F0020101600068022500F00200059097
:100EB000C0200090CDE9015469460A48CDE90345B8
:100EC000FFF70EFA03200090CDE901546946064869
:100ED000CDE90345FFF704FA07B030BD0004004038
:100EE000303802400000024000040240704770B5F4
:100EF000044690F838000D4601280DD0012684F8EC
:100F00003860022084F8390042B1042A18D0082A37
:100F10002AD00C2A4DD139E0022070BD206800F0A3
:100F200015FC2068816941F00801816120688169B0
:100F300021F004018161206881692A69114311E06F
:100F4000206800F02FFC2068816941F40061816114
:100F50002068816921F480618161206881692A6942
:100F600041EA0221816124E0206800F04DFC206804
:100F7000C16941F00801C1612068C16921F0040123
:100F8000C1612068C1692A69114311E0206800F03D
:100F90006BFC2068C16941F40061C1612068C169CE
:100FA00021F48061C1612068C1692A6941EA022196
:100FB000C16184F83960002084F8380070BD10B534
:100FC000040003D094F8390010B107E0012010BDEF
:100FD000002084F83800204600F00CF8022084F845
:100FE0003900211D206800F03FFB012084F8390002
:100FF000002010BD704770470068B0F1804F03D1EA
:1010000002490888401C088070470000000000204A
:101010007047704770B5026804461068D16853691C
:1010200010F00F0F50D003F0010501F49076354316
:101030005DD0C20705D0CA0503D5E26B42F00102BC
:10104000E263420705D5DA0703D0E26B42F0020201
:10105000E263820705D5DA0703D0E26B42F00402AF
:10106000E263020705D5DA0703D0E26B42F008021B
:10107000E263E26B002A33D0800604D5880602D5ED
:10108000204600F052FC20684069E16BC0F38010FC
:10109000090700D428B3204600F039FC20684169D4
:1010A00049061AD5416921F040014161606BA0B148
:1010B0001B490165606BFFF7FAF8002810D0606BE0
:1010C000016DBDE870400847830610D58B060ED52C
:1010D0002046BDE8704000F028BC2046FFF799FF8D
:1010E00070BD2046FFF795FF0020E06370BD03064A
:1010F00006D50B0604D52046BDE8704000F0B2BD11
:101100004006F3D54806F1D5D168204621F04001CC
:10111000D160202184F8391000F095F870BD0000EE
:10112000FF18000870B5040004D094F839000025B9
:1011300010B106E0012070BD84F83850204600F060
:1011400023F8242084F839002068C16821F4005174
:10115000C160204600F030FC2068016921F4904114
:1011600001612068416921F02A0141612068C1685C
:1011700041F40051C160E563202084F8390084F80F
:101180003A00002070BD0000F0B587B0044614217D
:101190006846FFF74DF8274F2268274902230124AC
:1011A000032507262548BA421ED1234A1432176860
:1011B00047F010071760126802F0100205920A68E3
:1011C00042F001020A60096801F00101059169021B
:1011D0008DE87A006946FFF783F800221146252042
:1011E000FFF7D4F9252020E0154FBA421FD1124A4B
:1011F0001032176847F400371760126802F40032A3
:1012000005920A6842F001020A60096801F00101D2
:1012100005910C218DE87A006946FFF761F80022FC
:1012200011462620FFF7B2F92620FFF7A3F907B0F1
:10123000F0BD0000001001403038024000000240C4
:101240000044004070477047FEE700002DE9F0477A
:1012500086B014216846FEF7EBFF3B480024016886
:1012600041F010010160016801F010010591016871
:1012700041F020010160016801F020010591016841
:1012800041F080010160016801F080010591016871
:1012900041F001010160016801F00101059101685F
:1012A00041F0020101600068DFF8A08000F0020058
:1012B0004FF400760590002231464046FFF7ECF8E7
:1012C000DFF88C90002210214846FFF7E5F8DFF8A0
:1012D00084A07701002239465046FFF7DDF81C2034
:1012E00001258DE8310069461B48FEF7F9FF00969D
:1012F000CDE90154694640460394FEF7F1FFCDE97C
:1013000000540226694648460296FEF7E9FF10207F
:101310000090CDE90154694648460394FEF7E0FF8A
:101320000097CDE90156694650460396FEF7D8FF6F
:10133000E803CDE90004694650460294FEF7D0FF69
:1013400006B0BDE8F08700003038024000140240CB
:1013500000000240000402400010024010B586B0B8
:1013600000241648009401940294039404944FF0CE
:101370008041059401605321C0E901144FF6FF71CB
:10138000C0E90314FFF7E8FB08B1FEF78FFF4FF445
:101390008050009069460948FFF73EFC08B1FEF70F
:1013A00085FF049404A905480594FFF7ADFB0028C8
:1013B00001D0FEF77BFF06B010BD00001800002032
:1013C00010B58EB000240794089409940A940B94E5
:1013D0001C2168460C94FEF72BFF2A48284901601F
:1013E0005321C0E9011444F62061C0E90314FFF75A
:1013F000B3FB08B1FEF75AFF4FF48050079007A9DE
:101400002048FFF709FC08B1FEF750FF1D48FFF721
:10141000D6FD08B1FEF74AFF0B940BA919480C94AE
:10142000FFF772FB08B1FEF741FF6020CDE9000431
:1014300002940022694613480494FFF758FD08B14E
:10144000FEF734FF042269460E48FFF750FD08B14D
:10145000FEF72CFF082269460A48FFF748FD08B14D
:10146000FEF724FF0C2269460648FFF740FD08B14D
:10147000FEF71CFF0348FFF7FDFC0EB010BD000097
:1014800000040040540000201CB500240E480094C5
:101490000C490194016042F2CF01C0E901140A2114
:1014A000C160FFF759FB08B1FEF700FF00946946E1
:1014B00005480194FFF728FB002801D0FEF7F6FE4F
:1014C0001CBD000000140040900000200C4810B526
:1014D0000A4901604FF4E1314160002181600C2232
:1014E000C160C0E904128161C161FFF71BFE0028E1
:1014F00003D0BDE81040FEF7D9BE10BD001001407A
:10150000CC0000200C4810B50A4901604FF4E131CD
:101510004160002181600C22C160C0E90412816138
:10152000C161FFF7FFFD002803D0BDE81040FEF7C2
:10153000BDBE10BD004400400C010020FEE7704716
:101540000907090E002806DA00F00F0000F1E0207C
:1015500080F8141D704700F1E02080F800147047F7
:10156000704770477047FEF7A3BF000030B593B0D7
:1015700030216846FEF75CFE14210CA8FEF758FEE9
:1015800019480025016841F080510160006800F0B1
:10159000805011901548016841F480410160006855
:1015A000022400F48040119001200090000401907A
:1015B0008001CDE9064008AA0420A82182E8130092
:1015C0000B906846FFF7FCF80CA90F2081E831006A
:1015D0004FF4A0500F90E002109005210CA8FFF7E7
:1015E00007F813B030BD00004038024000700040E2
:1015F0001048016841F4700101600F48016841F032
:10160000010101600C4A00210832116002680B4B95
:101610001A400260031D0A4A1A60026822F48022FE
:10162000026005480C3001600249580680390860A4
:101630007047000088ED00E000380240FFFFF6FE32
:10164000103000240148FFF761BB000018000020A3
:101650000148FFF75BBB0000540000200148FFF782
:1016600055BB000090000020F0B50268234B244DCC
:10167000244E254F254C4FF0804C984209D06045B0
:1016800007D0A84205D0B04203D0B84201D0A04252
:1016900004D122F0700E4A6842EA0E0298421BD032
:1016A000604519D0A84217D0B04215D0B84213D027
:1016B000A04211D0164DA8420ED0164DA8420BD014
:1016C000154DA84208D0154DA84205D0144DA8428A
:1016D00002D0144DA84203D122F44075CA682A43AF
:1016E00002608A68C2620A688262984201D0A0429F
:1016F00001D10969016301214161F0BD0000014090
:101700000004004000080040000C004000040140BC
:1017100000400140004401400048014000180040E2
:10172000001C00400020004010B5846842EA0322FB
:1017300024F47F440A432243826010BD826822F071
:1017400070020A4342F007018160704730B5026AB7
:1017500022F001020262026A436884690D6824F083
:101760007304254322F002048A6822430B4CA042F2
:1017700002D00B4CA0420BD122F00804CA6823F41B
:10178000407322434C6922F004021C438B692343BB
:101790004360856149684163026230BD00000140D9
:1017A0000004014030B5026A22F010020262026AAF
:1017B000436884690D6824F4E64444EA05248D688E
:1017C00022F0200242EA05120D4DA84202D00D4D32
:1017D000A8420ED1CD6822F0800242EA05124D697E
:1017E00023F4406343EA85038D6922F0400243EA13
:1017F00085034360846149688163026230BD0000F3
:10180000000001400004014030B5026A22F48072F9
:101810000262036A4268C46923F4007324F073050A
:101820000C682C438D6843EA05230D4DA84202D075
:101830000C4DA8420ED1CD6823F4006343EA052382
:101840004D6922F4405242EA05128D6923F4806307
:1018500042EA05124260C4614968C163036230BD57
:10186000000001400004014030B5026A22F48052B9
:101870000262046A4268C3690D6823F4E64343EADE
:1018800005238D6824F4005444EA0534084DA84229
:1018900002D0084DA84204D14D6922F4804242EAA8
:1018A00085124260C36149680164046230BD000072
:1018B000000001400004014010B5036A046A24F0EE
:1018C00001040462846924F0F00444EA021423F061
:1018D0000A020A438461026210BD10B5036A23F054
:1018E000100303628369046A23F4704343EA0232FB
:1018F00024F0A00343EA01118261016210BD10B51A
:10190000806B0021C185C184FFF783FB10BD016896
:10191000CA6822F49072CA6001684A6922F0010222
:101920004A61202180F83A10704710B590F83A10BB
:10193000222901D0022010BD8168B1F5805F11D04D
:101940000169002901681FD0496801F07F03816A9D
:101950004A1C82620B70C18D491E0904090CC185A5
:1019600018D026E00269816A002A0268526805D010
:10197000D2B20A80816A491C8162ECE7C2F3080294
:101980000A80816A891CF7E74A68816A4B1C836276
:101990000A70E0E70168CA6822F49072CA600168C0
:1019A0004A6922F001024A61202180F83A10FFF7CB
:1019B00049FC002010BD00002DE9F04104460068FC
:1019C000016921F44052E168114301612168C8684E
:1019D00049F20C6290432369A268E5691A4363697E
:1019E0002B431A430243CA602168486920F44072BD
:1019F000A06910434861E1696425B1F5004F97483B
:101A0000974A21684FF032083FD0914201D081427D
:101A10007CD1FEF795FE00EBC00101EB0010616880
:101A20008900B0FBF1F6FEF78BFE00EBC00101EB85
:101A3000001061688900B0FBF1F0B0FBF5F06FF0C9
:101A40001801484306EB800108EB0110B0FBF5F0EC
:101A500000F0F006FEF774FE00EBC00101EB001091
:101A600061688900B0FBF1F0B0FBF5F006EB001601
:101A7000FEF766FE00EBC00101EB00106168890013
:101A8000B0FBF1F7FEF75CFED2E0914201D081425B
:101A90003DD1FEF755FE00EBC00101EB001061687F
:101AA0004900B0FBF1F0B0FBF5F00601FEF748FE8F
:101AB00000EBC00101EB001061684900B0FBF1F7D9
:101AC000FEF73EFE00EBC00101EB0010616849002B
:101AD000B0FBF1F0B0FBF5F06FF01801484307EBF5
:101AE000800108EBC100B0FBF5F000F0F80006EB58
:101AF0004006FEF725FE00EBC00101EB0010616817
:101B00004900B0FBF1F7FEF71BFE3CE055E0FEF7A5
:101B100007FE00EBC00101EB001061684900B0FB5B
:101B2000F1F0B0FBF5F00601FEF7FAFD00EBC001A5
:101B300001EB001061684900B0FBF1F7FEF7F0FD22
:101B400000EBC00101EB001061684900B0FBF1F04F
:101B5000B0FBF5F06FF01801484307EB800108EB8C
:101B6000C100B0FBF5F000F0F80006EB4006FEF710
:101B7000D7FD00EBC00101EB001061684900B0FB2C
:101B8000F1F7FEF7CDFD00EBC00101EB001061683D
:101B90004900B0FBF1F0B0FBF5F06FF018014843DD
:101BA00007EB800108EBC100B0FBF5F000F0070087
:101BB000216830448860BDE8F081FEF7B1FD00EB9C
:101BC000C00101EB001061688900B0FBF1F6FEF77F
:101BD000A7FD00EBC00101EB001061688900B0FBBC
:101BE000F1F0B0FBF5F06FF01801484306EB80010F
:101BF00008EB0110B0FBF5F000F0F006FEF790FDE9
:101C000000EBC00101EB001061688900B0FBF1F04E
:101C1000B0FBF5F006EB0016FEF782FD00EBC0010D
:101C200001EB001061688900B0FBF1F7FEF778FD69
:101C300000EBC00101EB001061688900B0FBF1F01E
:101C4000B0FBF5F06FF01801484307EB800108EB9B
:101C50000110B0FBF5F000F00F00A9E700140140FF
:101C60000010014090F83910212901D0022070475E
:101C70008168B1F5805F016A0BD04A1C026202687C
:101C800009785160C18C491E0904090CC1840ED029
:101C900017E009880268C1F3080151600169002951
:101CA000016A02D0491C0162ECE7891CFBE701686C
:101CB000CA6822F08002CA600068C16841F0400131
:101CC000C1600020704700000148FFF7A3B9000081
:101CD000CC0000200148FFF79DB900000C01002056
:101CE000FEE702E008C8121F08C1002AFAD17047B7
:101CF0007047002001E001C1121F002AFBD170478C
:101D0000A8214843800800BF401EFCD27047000055
:101D1000FEF7D6FBFFF72AFCFFF798FAFFF7F2FB76
:101D2000FFF74EFBFFF7D2FBFFF718FBFFF7ACFB0B
:101D3000A820FEF7CFFA054D4FF40074214628463F
:101D4000FEF7A6FB1420FFF7DBFFF7E700140240C5
:101D5000000000000000000001020304060708095B
:101D60000000000001020304881D0008000000209C
:101D700018000000E21C0008A01D00081800002048
:101D800038050000F21C0008000000000000000000
:101D90000100000010000000000000000024F4001A
:040000050800018965
:00000001FF
