:020000040800F2
:10000000208C0020E5010008993D0008313A0008E5
:10001000953D0008010E0008AD47000800000000F3
:100020000000000000000000000000004D0100087A
:100030003D1100080000000091010008753E000815
:10004000FF010008FF010008FF010008FF01000890
:10005000FF010008FF010008FF010008FF01000880
:10006000FF010008FF010008FF010008E11000087F
:10007000FF010008FF010008F1100008011100084D
:10008000FF010008FF010008FF010008FF01000850
:10009000FF010008FF010008FF010008FF01000840
:1000A000FF010008FF010008FF010008FF01000830
:1000B000353F0008FF010008FF010008FF010008AC
:1000C000FF010008FF010008FF010008FF01000810
:1000D000FF01000825470008FF010008FF01000894
:1000E000FF010008FF010008FF010008FF010008F0
:1000F000FF010008FF010008FF010008FF010008E0
:10010000FF010008FF010008FF010008FF010008CF
:10011000FF010008FF010008FF010008FF010008BF
:10012000FF010008FF010008FF010008FF010008AF
:10013000DFF80CD000F01AFC00480047D551000849
:10014000208C002080F3088870470000224B19683B
:100150000868B0E8F00F80F30988BFF36F8F4FF0A5
:10016000000080F311884EF00D0E70470000000073
:1001700006480068006880F3088862B661B6BFF37D
:100180004F8FBFF36F8F00DF00BF00BF08ED00E0AF
:10019000EFF30980BFF36F8F0F4B1A6820E9F00F60
:1001A000106008B54FF0500080F31188BFF34F8FF7
:1001B000BFF36F8F05F0F8FF4FF0000080F3118858
:1001C000BDE8084019680868B0E8F00F80F30988B6
:1001D000BFF36F8F704700BF34000020EFF305803E
:1001E000704700000648804706480047FEE7FEE7E4
:1001F000FEE7FEE7FEE7FEE7FEE7FEE7FEE7FEE7D7
:100200000B3F00083101000830B50B4601460020C5
:100210002022012409E021FA02F59D4205D303FAC8
:1002200002F5491B04FA02F52844151EA2F1010249
:10023000F1DC30BD202A04DB203A21FA02F0002153
:10024000704721FA02F3D040C2F1200291400843E6
:10025000194670470649074A0868504343F2390275
:10026000104408604008704701490860704700006A
:10027000A00000206D4EC64110B5431A934209D22A
:100280008318881803E010F8011D03F8011D521EA1
:10029000F9D210BD40EA01039B0703D009E008C969
:1002A000121F08C0042AFAD203E011F8013B00F83B
:1002B000013B521EF9D210BDD2B201E000F8012B71
:1002C000491EFBD270470022F6E710B513460A46D6
:1002D00004461946FFF7F0FF204610BDF0B480EA4F
:1002E0000102D40F4200B2EB410F02D2024608468F
:1002F00011464A0042D0C30DDDB2C1F3C752AD1A58
:10030000202D35DAC1F3160141F4000204B1524246
:10031000C5F1200602FA06F12A411044B3EBD05F82
:1003200023D0C4B1012DA0EBC35009DCF0BC4FF0C9
:10033000004202EAC352DBB200F5000000F044B90B
:10034000400000F1807000EBC350A0F1807040EAE3
:10035000D170490009E0490841EAC071A0EBC350DF
:1003600000F50000400800EBC350F0BC00F023B9DA
:100370006142012202EB4101001BF6E7F0BC70472D
:1003800081F00041AAE780F00040A7E730B480EA9E
:10039000010202F0004530F0004221F0004013D08D
:1003A00090B1C30DD40DC2F31601C0F31600E41AC8
:1003B00041F4000140F400027D34914201D3641CF9
:1003C00000E04900002C02DA30BC002070474FF4F6
:1003D00000000023914201D3891A034340084FEAE9
:1003E0004101F7D151B1914202D14FF0004105E0F6
:1003F00002D24FF0010101E06FF0010103EBC450A4
:10040000284430BC00F0D7B82DE9FE4F81EA030440
:1004100004F0004421F0004100944FF0000B23F061
:10042000004350EA01045ED052EA03045BD0C3F3F8
:100430000A54C1F30A552C44A4F2F3340194A0FBEE
:100440000254C1F3130141F48011C3F3130343F4C5
:10045000801301FB024400FB034E840A970A44EA1E
:10046000815447EA8357A4FB076802958D0A05FB70
:1004700007854FEA932C04FB0C542705029D4FEA95
:10048000065847EA1637B5EB08056EEB070C870EE2
:10049000920E47EA811742EA8312A7FB0201B6EBEC
:1004A0000B0164EB00042B0D43EA0C335E1844EBA4
:1004B0001C50DA465146E7FB0201C5F313044FEA2C
:1004C0000B3343EA14534FEA0432019C43EA060318
:1004D000A4F10C040294009CCDE900B400F0B1F842
:1004E00003B0BDE8F08F00200146F9E79623002213
:1004F000114600F069B800F0004230F000400AD028
:10050000C10D01F56071C0F3160042EA0151C20845
:1005100040071143704700200146704701F0004337
:1005200030B421F0004150EA010206D00A0DA2F5D4
:100530006072C1F31301002A02DC30BC0020704756
:10054000440F44EAC104C100E01830BC00EBC250C3
:1005500000F031B82DE9F05F0546002092469B4639
:1005600088460646814640241BE0284641464746C9
:100570002246FFF75FFE53465A46C01A914110D3F8
:1005800011461846224600F003FA2D1A67EB0108BF
:100590004F4622460120002100F0FAF917EB00092E
:1005A0004E41201EA4F10104DFDC484631462A46B4
:1005B0004346BDE8F09F0029A8BF7047401C490092
:1005C00008BF20F00100704710B4B0FA80FC00FAB8
:1005D0000CF050EA010404BF10BC704749B1CCF1E3
:1005E000200421FA04F411FA0CF118BF012121436F
:1005F0000843A3EB0C01CB1D4FEA00614FEA10202A
:1006000042BF002010BC704700EBC35010440029CB
:10061000A4BF10BC7047401C490008BF20F0010077
:1006200010BC704710B5141E73F1000408DA401CAA
:1006300041F1000192185B411A4301D120F0010001
:1006400010BD2DE9F04D92469B4611B1B1FA81F2F1
:1006500002E0B0FA80F22032904600F099F90446A8
:100660000F4640EA0A0041EA0B0153465A46084346
:1006700013D0114653EA010019D0C8F14002504688
:10068000FFF7D8FD05460E4650465946424600F053
:100690007FF9084305D0012004E020463946BDE833
:1006A000F08D0020054346EAE0762C4337430A9854
:1006B0006305E40AA0EB08000022FD0A44EA47545F
:1006C0000A3002D500200146E9E701051019694109
:1006D000DDE9084500196941BDE8F04DA2E72DE9C3
:1006E000FE4F804681EA0300C00F0C46009021F0C7
:1006F000004123F00045B8EB0200A94105D2404675
:10070000214690461C460B46024623F0004010430B
:1007100047D0270DC7F30A00C3F30A510290401ACD
:10072000019040286BDAC3F3130040F4801B00985B
:10073000924620B10023D2EB030A63EB0B0B019826
:100740005946C0F14002504600F022F906460D46D7
:1007500050465946019A00F02AF910EB0800614111
:10076000002487EA115284EAE7731A4340D0009AC2
:1007700062B3019A012A4FEA075215DC001B61EBB4
:1007800002014FF0004202EA0752CDE90042001C8C
:1007900041F5801132462B46FFF753FF03B0BDE809
:1007A000F08F40462146F9E7001B61EB0201001C77
:1007B00041F5801300185B412018A2F5001747EBA4
:1007C000030140EAD570B6196D4111E06D084FEA9A
:1007D000360645EAC0754FEA0752001B61EB02017D
:1007E000001C41F5801149084FEA300000195141C1
:1007F00032462B4603B0BDE8F04FFFF713BF009819
:10080000012240000023D0EB020263EBE07300986A
:1008100021464FEAE074B8EB000061EB0401E9E720
:1008200083F000435BE781F0004158E72DE9F04D8C
:1008300081EA030404F0004B21F0004514464FF018
:10084000000A23F0004150EA050220D054EA0102D8
:100850001DD0C5F30A570246C5F31303C1F31300B5
:10086000C1F30A5640F4801543F48013A7EB060841
:10087000101BD64608F2FD3873EB050002D308F1D1
:10088000010801E092185B41B8F1000F03DA002083
:100890000146BDE8F08D00204FF4801106468446E5
:1008A0000EE0171B73EB050705D3121B63EB050363
:1008B00006434CEA010C49084FEA300092185B41AC
:1008C00050EA0107EDD152EA030012D082EA040097
:1008D00083EA0501084305D0101BAB4106D2012273
:1008E000002306E000224FF0004302E06FF0010217
:1008F00053101AEB06004CEB085110EB0A0041EBC9
:100900000B01BDE8F04DFFF78DBEC1F30A52C1F3F4
:10091000130140F2FF3341F480119A4202DA0020C1
:100920000146704740F233439A42A2F2334202DC5E
:100930005242FFF77FBC00F02BB8000030B5041E18
:1009400071F1000404DB4FF00044404264EB01010C
:10095000141E73F1000405DB1C464FF000435242A5
:1009600063EB0403994208BF904230BD064C074D2B
:1009700006E0E06840F0010394E80700984710346F
:10098000AC42F6D3FFF7D8FBCC6E0008EC6E000843
:10099000202A04DB203A00FA02F10020704791403F
:1009A000C2F1200320FA03F3194390407047202A34
:1009B00006DBCB17203A41FA02F043EAE07306E087
:1009C00041FA02F3D040C2F1200291400843194697
:1009D000704770B5044600252068806800F001006B
:1009E00018B32068806820F001002168886001F059
:1009F00069FD054613E001F065FD401B02280ED994
:100A00002068806800F0010048B1A06A40F0100042
:100A1000A062E06A40F00100E062012070BD206841
:100A2000806800F001000028E5D10020F6E770B5ED
:100A300005466C6AA06A00F05000E0B9A06A40F474
:100A40000070A0622068806800F46020B0F5602F1C
:100A50000DD1207B58B9A06A20F48070A062A06AF2
:100A600000F4805018B9A06A40F00100A06220464E
:100A700000F05AFD03E0206A016B2846884770BDEC
:100A800070B505466C6AA06A40F04000A062E06A5A
:100A900040F00400E062204600F048FD70BD70B5F3
:100AA0000446656A284600F040FD70BD38B504462E
:100AB0000025002000902068806800F0010078BBCD
:100AC0002068806840F0010021688860194800684B
:100AD0001949B0FBF1F0009002E00098401E009030
:100AE00000980028F9D101F0EDFC054619E001F06D
:100AF000E9FC401B022814D92068806800F001003E
:100B000078B9A06A40F01000A062E06A40F00100ED
:100B1000E06200BF002084F8240000BF012038BD3F
:100B200005E02068806800F001000028DFD0002088
:100B3000F5E700001000002040420F0038B50546E0
:100B40000C46002000900449086008468560C46097
:100B5000694601F03DFA38BDEC1B002038B504466B
:100B600001226946204600F015F8BDF8000038BDA6
:100B700070B504460D4601222946204600F01EF8B5
:100B800070BD000002490968C164014908607047EE
:100B90001800002030B503460C461546002207E039
:100BA000184600F008F824F812009B1C501C82B272
:100BB000AA42F5DB30BD0146088870472DE9F84FA1
:100BC00080468946174600200090B8F1006F02D396
:100BD0003648804501D3BDE8F88F01F0B3FAA8F19B
:100BE000006B4FEADB26CBF3490ACAF58064A742C3
:100BF00000DC3C4654E04FF0006101EBC6204A1493
:100C00002B49FFF7C7FF00250AE06019284931F892
:100C100010004FF6FF71884200D003E0681C85B2D7
:100C2000A542F2DB00BFA54223DA0020214908607B
:100C30004FF0006000EBC62088600120C860694664
:100C40001C4801F0C5F9002508E039F8150005EB4E
:100C50000A01174A22F81100681C85B2A542F4DB8C
:100C60004FF0006101EBC6204A14114900F024F84E
:100C700004E022464946404600F01EF8A74200D153
:100C80000FE0761C4FF0000A09EB4409A044381B22
:100C900087B2B7F5806F02DD4FF4806400E03C4618
:100CA000A9E700BF01F0ECF900BF94E700000808D5
:100CB000FC230020FC2B00202DE9F04104460E46C9
:100CC000174600250AE036F815C062460023214683
:100CD000012001F0DFF9A41C681C85B2BD42F2DBE3
:100CE000BDE8F08110B5044600BF04A003F0CEFDBE
:100CF00006A003F0CBFD00BF10BD00000A5B424F11
:100D00004F545D203E3E3E3E2020000042757474EC
:100D10006F6E3120C1ACB0B4CACDB7C521000000A0
:100D200010B5044600BF04A003F0B0FD06A003F018
:100D3000ADFD00BF10BD00000A5B424F4F545D2067
:100D40003E3E3E3E20200000427574746F6E31209E
:100D5000C1ACB0B42100000010B5044600BF04A02F
:100D600003F094FD06A003F091FD00BF10BD00004C
:100D70000A5B424F4F545D203E3E3E3E2020000025
:100D8000427574746F6E3120CBABBBF7210000004D
:100D900010B5044600BF04A003F078FD06A003F0E0
:100DA00075FD00BF10BD00000A5B424F4F545D202F
:100DB0003E3E3E3E20200000427574746F6E31202E
:100DC000B5A5BBF72100000010B5044600BF04A084
:100DD00003F05CFD06A003F059FD00BF10BD00004C
:100DE0000A5B424F4F545D203E3E3E3E20200000B5
:100DF000427574746F6E3120B3A4B0B4210000004A
:100E000000BFFEE710B507290AD1002305E000F175
:100E1000280444F823205C1CE3B2072BF7DB03E033
:100E200000F1280343F8212010BD00002DE9F04116
:100E300005460C4616461F4624B9322219A11FA0AA
:100E400003F024FD50212046FFF73DFA20222946D9
:100E5000201D02F0F5FF14F8240F20F00F000930D8
:100E60002070207820F0F000903020700920A070D1
:100E700044F8246C607867F30100607054F8240C27
:100E80008047617860F383016170002084F8260058
:100E9000243C2046FFF776FE204602F07FFFBDE8A7
:100EA000F08100002E2E5C557365724150505C53EA
:100EB00072635C627574746F6E2E63000A457272A1
:100EC0006F723A25732C25640D0A000070B5044634
:100ED00020688047054694F82500C0F38100A842A9
:100EE00033D094F84A00401CC0B284F84A0002286B
:100EF0002BDB2434607865F383006070002084F875
:100F0000260014F8240900F00F00092805D094F8F1
:100F1000240000F00F00022806D194F8240020F0ED
:100F20000F0084F8240010E094F8240000F00F0073
:100F300058B994F8240020F00F00401C84F82400D5
:100F4000E06A10B12046E16A884794F8240000F076
:100F50000F0020B1012832D002287CD17FE094F824
:100F60002500C0F3810094F8251001F003018842A8
:100F700024D1002084F8260094F84B00401CC0B215
:100F800084F84B00322819DB94F84800401CC0B2AA
:100F900084F8480001280ADB002084F84800032078
:100FA00084F82600606B10B12046616B884794F886
:100FB0004B00FF2802D1322084F84B0080E094F8E7
:100FC000260080BB94F849000F281ADC94F824000E
:100FD0000221B1EB101F14D1022084F82600206BEF
:100FE00010B12046216B884714F8240F20F00F0021
:100FF00009302070207820F0F000903004F82409A7
:101000002CE00020243484F8250084F82700207880
:1010100020F00F00801C2070207820F0F00020309D
:1010200004F824091AE0FFE794F82600032815D1F4
:10103000A06B10B12046A16B88470020243484F8AF
:101040002700207820F00F0009302070207820F051
:10105000F000303000E032E004F8240930E014F809
:10106000490F401C207014F849090F280BDB14F8B5
:10107000240F20F00F0009302070207820F0F000BD
:10108000903004F8240994F849000F2816DB94F8EE
:101090002400000990B1002084F84900A06A10B132
:1010A0002046A16A884714F8240F20F00F00093069
:1010B0002070207820F0F00004F8240900E000BF40
:1010C00000BF70BD10B50548046803E02046FFF777
:1010D000FDFEE46C002CF9D110BD000018000020CA
:1010E00010B5024800F000FD10BD0000840900208A
:1010F00010B5024800F0F8FC10BD0000980A00206E
:1011000010B5024800F0F0FC10BD0000540A0020A9
:1011100030B590F840500124AC40C56B6C60046859
:1011200063604468102C04D10468A2600468E16024
:1011300003E00468A1600468E26030BD704772B6E5
:1011400000BFFEE70021074AD1610749096941F064
:101150000401054A11611146096941F0400111611C
:1011600070470000E00A0020002002400021074AEA
:10117000D1610749096941F00201054A116111462F
:101180004861096941F0400111617047E00A00209F
:10119000002002400022054BDA61054A126942F044
:1011A0000102034B1A61018070470000E00A002031
:1011B0000020024000201E49C96801F0100139B129
:1011C0001C49C96941F002011A4AD16140F010007E
:1011D0001749C96801F0040139B11649C96941F0DC
:1011E0000101144AD16140F004001149C96901F0BC
:1011F000010169B10F49C96941F004010D4AD1618A
:1012000000BF0B49C96921F00101094AD16100BF42
:1012100000BF40F20111884206D10549C96921F099
:101220000101034AD16101E00149C86000BF704774
:1012300000200240E00A002070B5044601F042F9A7
:10124000054609E0601C38B124B101F03BF9401BB0
:10125000A04201D9032070BD1248C06800F001000F
:101260000028EFD10F48C06800F0200020B100BF77
:1012700020200C49C86000BF0A48C06800F0100078
:1012800048B90848C06900F0010020B90548C068A5
:1012900000F0040018B1FFF78DFF0120DBE700200C
:1012A000D9E7000000200240014691F8260070476F
:1012B000F8B5044600260020009000BF94F82400F2
:1012C000012801D10220F8BD012084F8240000BFCC
:1012D0002046FFF77EFB0646002E6CD1A06A20F464
:1012E000885040F00200A062022001F0C3F93549A5
:1012F0000968B1FBF0F04000009002E00098401E49
:10130000009000980028F9D12046FFF7CFFB206815
:10131000806840F008002168886001F0D3F8054635
:1013200016E001F0CFF8401B0A2811D92068806828
:1013300000F0080060B1A06A20F0020040F0100048
:10134000A06200BF002084F8240000BF0120BAE79B
:101350002068806800F008000028E2D120688068DA
:1013600040F004002168886001F0ACF8054616E002
:1013700001F0A8F8401B0A2811D92068806800F005
:10138000040060B1A06A20F0020040F01000A062EA
:1013900000BF002084F8240000BF012093E72068EC
:1013A000806800F004000028E2D1A06A20F002006A
:1013B00040F00100A06200BF002084F8240000BFBC
:1013C000304680E71000002038B502460023002098
:1013D000009000BF92F82400012801D1022038BDFE
:1013E000012082F8240000BF4868072812D2106844
:1013F000406B0C79641E04EB84051F24AC40A043B1
:101400000D796D1E05EB85050C68AC402043146812
:10141000606327E048680D2812D21068006B0C79D1
:10142000E41F04EB84051F24AC40A0430D79ED1F9D
:1014300005EB85050C68AC4020431468206311E07F
:101440001068C06A0C790D3C04EB84051F24AC4085
:10145000A0430D790D3D05EB85050C68AC4020439C
:101460001468E06208680A2812D31068C0680C7813
:101470000A3C04EB44050724AC40A0430D780A3D28
:1014800005EB45058C68AC4020431468E0600FE034
:10149000106800690C7804EB44050724AC40A043B5
:1014A0000D7805EB45058C68AC402043146820613D
:1014B0000868102802D00868112827D1174C106836
:1014C000A0421ED11068806800F40000F0B91068D6
:1014D000806840F400001468A0600868102815D1E6
:1014E0000F4800680F4CB0FBF4F000EB80004000A8
:1014F000009002E00098401E009000980028F9D16A
:1015000004E0906A40F020009062012300BF0020B8
:1015100082F8240000BF184661E700000024014063
:101520001000002040420F007047704770470000D5
:101530002DE9F0410446002700250026A84614B9ED
:101540000120BDE8F081A06810B1207D00B100BF8E
:10155000A06A30B90020E06284F82400204600F040
:1015600097F82046FFF735FA0746A06A00F010000A
:10157000002873D1002F7ED1A06A20F4885040F05B
:101580000200A0623F4AD4E90001904208D1E0691C
:10159000B0F5402F02D14FF4002002E0E06900E0F6
:1015A000E0690143207B41EA40000643A068B0F5B2
:1015B000807F02D0A068012802D14FF4807000E043
:1015C00000200543207D012811D1207B38B9A06976
:1015D000401E4FF4006141EA4030054307E0A06A35
:1015E00040F02000A062E06A40F00100E062206864
:1015F000406820F46940284321684860206880687A
:1016000021490840304321688860A068B0F5807F98
:1016100002D0A068012802D14FF4807000E00020C1
:10162000B0F5807F03D1208A401E4FEA0058206821
:10163000C06A20F4700040EA08002168C86220688F
:10164000806812490840B04209D10020E062A06AD7
:1016500020F0020040F00100A06211E00BE0A06A5F
:1016600020F0020040F01000A062E06A40F00100AB
:10167000E062012704E0A06A40F01000A0620127A8
:1016800038465EE7003C0140FDF7E1FFFE0E1FFF1C
:1016900010B586B004460020029003900490059097
:1016A0002B492068884251D100BF2A48806940F404
:1016B0000070284988610846806900F40070019034
:1016C00000BF00BF00BF0846806940F0100088617D
:1016D0000846806900F01000019000BF00BF00BF05
:1016E0000846806940F0080088610846806900F07B
:1016F0000800019000BF00BF03200290039002A9E0
:10170000154800F037FD03200290039002A913480A
:1017100000F030FD124813490860002048600021A5
:10172000104881608021C1604900016189004161E8
:10173000202181610021C16100F0A2FB08B1FFF707
:10174000FEFC00BF07482062446200BF06B010BD27
:10175000002401400010024000100140000C014034
:1017600008000240840900202DE9F04104460D469E
:101770001646002757492068884203D056492068FA
:10178000884205D15348001D006800F4702000E035
:10179000002000287ED100BF94F82400012802D147
:1017A0000220BDE8F081012084F8240000BF20461B
:1017B000FFF77CF90746002F6DD1A06A40F6016162
:1017C000884340F48070A06243492068884209D170
:1017D0004048001D006800F4702008B9012002E0B4
:1017E000002000E0012078B1A06A20F48010A062FF
:1017F0002068406800F4806000B3A06A20F40050C4
:1018000040F48050A06219E0A06A40F48010A06209
:1018100030492068884203D02F492068884205D18A
:101820002C48001D006800F4806000E0002028B112
:10183000A06A20F4005040F48050A062A06A00F436
:10184000805020B1E06A20F00600E06201E0002054
:10185000E06200BF002084F8240000BF1F48216A16
:1018600088621F48216AC8621E48216A08636FF0B7
:101870000200216808602068806840F48070216858
:101880008860226802F14C0133462A46206A00F043
:101890003DFB01E01AE014E02068806800F460205D
:1018A000B0F5602F06D12068806840F4A000216860
:1018B00088600CE02068806840F4801021688860AF
:1018C00005E000BF002084F8240000E0012738462E
:1018D00067E7000000240140002801402F0A0008AB
:1018E0009F0A0008810A00080146002291F82100A1
:1018F000022808D00420886300BF002081F820005F
:1019000000BF012070470868006820F00E000B68D7
:1019100018600868006820F001000B68186091F8F2
:10192000403001209840CB6B5860012081F82100A5
:1019300000BF002081F8200000BF1046E2E7000051
:1019400070B50446002594F82100022803D0042035
:10195000A0630125C1E02068006820F00E00216826
:1019600008602068006820F00100216808605C4978
:101970002068884252D95A4978392068884201D172
:10198000012047E0564964392068884201D110207F
:1019900040E0534950392068884201D1801539E030
:1019A0004F493C392068884201D1801432E04C49CB
:1019B00028392068884202D14FF480302AE0484913
:1019C00014392068884202D14FF4801022E0444943
:1019D0002068884201D140041CE0424920688842C6
:1019E00001D1012016E03F4914312068884201D11D
:1019F00010200FE03B4928312068884201D1801532
:101A000008E038493C312068884201D1801401E067
:101A10004FF480303349091F086051E0304978396C
:101A20002068884201D1012047E02D4964392068AF
:101A3000884201D1102040E029495039206888426D
:101A400001D1801539E026493C392068884201D10E
:101A5000801432E0224928392068884202D14FF4AC
:101A600080302AE01E4914392068884202D14FF4A0
:101A7000801022E01A492068884201D140041CE00D
:101A800018492068884201D1012016E01549143117
:101A90002068884201D110200FE0124928312068C7
:101AA000884201D1801508E00E493C312068884207
:101AB00001D1801401E04FF4803009498039486039
:101AC000012084F8210000BF002084F8200000BF1E
:101AD000606B10B12046616B8847284670BD0000DE
:101AE000800002400804024070B50446E06B0568BF
:101AF0002068066894F84010042088402840002898
:101B000075D006F004000028FAD02068006800F0C4
:101B1000200028B92068006820F0040021680860CF
:101B2000D5492068884254D9D349783920688842F9
:101B300001D1042049E0D04964392068884201D1AC
:101B4000402042E0CC4950392068884201D100153C
:101B50003BE0C9493C392068884202D14FF48040BB
:101B600033E0C54928392068884202D14FF48020EB
:101B70002BE0C14914392068884202D14FF480001B
:101B800023E0BD492068884201D1C0041DE0BB4963
:101B90002068884201D1042017E0B8491431206838
:101BA000884201D1402010E0B449283120688842A1
:101BB00001D1001509E0B1493C312068884202D1C9
:101BC0004FF4804001E04FF48020AC49091F0860C9
:101BD00054E0A94978392068884201D104204AE0BC
:101BE000A54964392068884202D1402043E04CE096
:101BF000A14950392068884201D100153BE09E4937
:101C00003C392068884202D14FF4804033E09A4941
:101C100028392068884202D14FF480202BE0964971
:101C200014392068884202D14FF4800023E09249A1
:101C30002068884201D1C0041DE090492068884294
:101C400001D1042017E08D4914312068884201D168
:101C5000402010E0894928312068884201D10015D0
:101C600009E086493C312068884202D14FF4804027
:101C700001E04FF48020804980394860E06A002804
:101C800002D02046E16A8847F4E094F84010022030
:101C900088402840002871D006F002000028FAD0C1
:101CA0002068006800F0200040B92068006820F03B
:101CB0000A0021680860012084F821006E4920682C
:101CC000884254D96C4978392068884201D1022071
:101CD00049E0694964392068884201D1202042E006
:101CE000654950392068884201D140153BE062497E
:101CF0003C392068884202D14FF4005033E05E49FD
:101D000028392068884202D14FF400302BE05A492C
:101D100014392068884202D14FF4001023E056495C
:101D20002068884201D180041DE05449206888421F
:101D300001D1022017E0514914312068884201D1B5
:101D4000202010E04D4928312068884201D14015FB
:101D500009E04A493C312068884202D14FF40050E2
:101D600001E04FF400304549091F086054E0424942
:101D700078392068884202D102204AE057E03E4983
:101D800064392068884201D1202042E03A49503924
:101D90002068884201D140153BE037493C39206832
:101DA000884202D14FF4005033E03349283920688B
:101DB000884202D14FF400302BE02F4914392068BB
:101DC000884202D14FF4001023E02B49206888425A
:101DD00001D180041DE029492068884201D10220F8
:101DE00017E0264914312068884201D1202010E0F4
:101DF000224928312068884201D1401509E01F4955
:101E00003C312068884202D14FF4005001E04FF489
:101E1000003019498039486000BF002084F8200054
:101E200000BFA06A30B32046A16A884722E094F838
:101E30004010082088402840E0B106F00800C8B1F2
:101E40002068006820F00E002168086094F84010B7
:101E500001208840E16B48600120A06384F82100E4
:101E600000BF002084F8200000BF206B10B1204686
:101E7000216B884770BD00008000024008040240CA
:101E80000146002209B9012070471E4B086898429C
:101E90000BD21D4B0868C01A1423B0FBF3F080006E
:101EA000086419480838C8630AE0164B0868C01A65
:101EB0001423B0FBF3F08000086412480838C863AC
:101EC000022081F821000868026843F6F07082431E
:101ED000D1E901031843CB6818430B6918434B69D8
:101EE00018438B691843CB691843024308680260A2
:101EF00000208863012081F82100002081F8200063
:101F000000BFC1E708040240080002402DE9F0418B
:101F100004460D4616461F464FF0000800BF94F8D1
:101F20002000012802D10220BDE8F081012084F8C0
:101F3000200000BF94F8210001282CD1022084F851
:101F400021000020A0632068006820F001002168C3
:101F500008603B46324629462046FFF7D9F8E06A3A
:101F600030B12068006840F00E00216808600BE086
:101F70002068006820F0040021680860206800687C
:101F800040F00A00216808602068006840F0010005
:101F90002168086006E000BF002084F8200000BF30
:101FA0004FF002084046BFE770B5044600F08AFAD9
:101FB00006462546681C10B104480078054400BF59
:101FC00000F080FA801BA842FAD370BD0C000020FC
:101FD0002DE9F04104460E460127002500BF2648A2
:101FE000007E012802D10220BDE8F08101202249B3
:101FF000087600BF2068022813D14CF25030FFF75A
:102000001BF990BB0120FFF79DF84CF25030FFF711
:1020100013F907461948006920F0040017490861C0
:1020200023E04CF25030FFF707F9F0B94FF0FF30E2
:102030003060A56812E02846FFF798F84CF250305F
:10204000FFF7FAF807460D48006920F002000B4937
:1020500008610FB1356007E005F50065D4E90210AD
:1020600001EBC020A842E6D800BF00BF0020024913
:10207000087600BF3846B7E7E00A0020002002409B
:102080000348006940F08000014908610020704762
:10209000002002402DE9FE4F05468B461746984624
:1020A000012600240020029000BF2448007E012861
:1020B00002D10220BDE8FE8F01202049087600BF32
:1020C0004CF25030FFF7B8F8064686BB012D02D11E
:1020D0000120029006E0022D02D10220029001E0D0
:1020E0000420029000241EE02201B946C246484660
:1020F0005146FEF79FF880B20190022000FB04B029
:1021000000900199FFF746F84CF25030FFF794F831
:1021100006460B48006920F001000949086106B134
:1021200004E0601CC4B202988442DDDB00BF00BF43
:1021300000200249087600BF3046BBE7E00A0020D5
:102140000020024000200849096901F0800151B1D6
:102150000649054A5160064951601146096901F076
:10216000800101B101207047002002402301674532
:10217000AB89EFCD2DE9F847024600239C467BE171
:102180004FF0010808FA03F4D1F8008008EA0400CF
:10219000A0427DD1DFF8F4A2D1F80480A8EB0A09AF
:1021A000D0453AD014DCB8F1030F50D009DCB8F1B7
:1021B000000F31D0B8F1010F1CD0B8F1020F49D196
:1021C00020E0B8F1110F18D0B8F1120F42D11EE083
:1021D000B9F5881F25D006DCB9F5803F20D0B9F5C8
:1021E000801F37D11AE0B9F5001F18D0B9F5041FC8
:1021F00030D117E0D1F80CC02DE0D1F80C8008F1F7
:10220000040C28E0D1F80C8008F1080C23E0D1F888
:102210000C8008F10C0C1EE000BF00BF00BF00BF27
:1022200000BF00BFD1F80880B8F1000F02D14FF015
:10223000040C0BE0D1F80880B8F1010F03D14FF086
:10224000080C146102E04FF0080C546103E04FF0F9
:10225000000C00E000BF00BFFF2801D8904601E05D
:1022600002F104084646FF2802D84FEA830803E03B
:10227000A3F108084FEA88084746D6F800804FF0D7
:102280000F0909FA07F928EA09080CFA07F900E02A
:102290007AE048EA0908C6F80080D1F8048008F01E
:1022A0008058B8F1805F6FD100BFDFF8E481D8F8C3
:1022B000188048F00108DFF8D891C9F81880C8469E
:1022C000D8F8188008F00108CDF8008000BF00BFE2
:1022D0004FEAB9384FEA930958F829504FEA837802
:1022E0004FEA18794FF00F0808FA09F825EA0805AF
:1022F000DFF8A081424502D14FF0000824E0DFF86A
:102300009881424502D14FF001081DE0DFF88C8131
:10231000424502D14FF0020816E0DFF884814245C1
:1023200002D14FF003080FE0DFF87881424502D177
:102330004FF0040808E0DFF87081424502D14FF009
:10234000050801E04FF006084FEA83794FEA197952
:1023500008FA09F848EA0505DFF850814FEA9309C1
:1023600048F82950D1F8048008F48038B8F5803F47
:102370000BD1DFF83C81D8F8008048EA0008DFF88C
:102380003091C9F800800AE075E0DFF82481D8F8C0
:10239000008028EA0008DFF81891C9F80080D1F819
:1023A000048008F40038B8F5003F0ED1DFF8008152
:1023B00008F10408D8F8008048EA0008DFF8F09037
:1023C00009F10409C9F800800DE0DFF8E48008F1A4
:1023D0000408D8F8008028EA0008DFF8D49009F152
:1023E0000409C9F80080D1F8048008F48018B8F511
:1023F000801F0ED1DFF8B88008F10808D8F80080F7
:1024000048EA0008DFF8A89009F10809C9F8008037
:102410000DE0DFF89C8008F10808D8F8008028EA71
:102420000008DFF88C9009F10809C9F80080D1F89C
:10243000048008F40018B8F5001F0ED1DFF8708092
:1024400008F10C08D8F8008048EA0008DFF860902E
:1024500009F10C09C9F800800DE0DFF8548008F19B
:102460000C08D8F8008028EA0008DFF8449009F149
:102470000C09C9F800805B1CD1F8008028FA03F829
:10248000B8F1000F7FF47CAEBDE8F88700001110B2
:102490000010024000080140000C01400010014003
:1024A0000014014000180140001C014008000140D8
:1024B00000040140024693680B400BB1012000E08C
:1024C00000207047014800687047000004000020A9
:1024D00003480068034909780844014908607047C7
:1024E000040000200C00002010B50848006840F0EF
:1024F000100006490860032000F0A8F8002000F052
:1025000007F800F02BF8002010BD0000002002406A
:1025100070B504460E4800784FF47A71B1FBF0F0C4
:102520000C490968B1FBF0F5284600F051FD08B1EF
:10253000012070BD102C07D200222146501E00F051
:1025400047F80548046001E00120F2E70020F0E7C9
:102550000C000020100000200800002008B500BF7B
:102560001148806940F001000F4988610846806980
:1025700000F00100009000BF00BF00BF0846C06926
:1025800040F08050C8610846C06900F0805000905B
:1025900000BF00BF00BF0549486820F0E06040F080
:1025A0000070486000BF08BD0010024000000140FC
:1025B00001460846002809DB00F01F0301229A406B
:1025C00043099B0003F1E023C3F8002100BF7047DB
:1025D0002DE9F05F80460D461646002702F066F9A9
:1025E000074639462A46334601F00700C0F1070A7C
:1025F000BAF1040F02D94FF0040A01E0C0F1070A52
:10260000D14600F1040ABAF1070F02D24FF0000AD6
:1026100001E0A0F1030AD4464FF0010A0AFA09FAD0
:10262000AAF1010A0AEA020A0AFA0CFA4FF0010BAF
:102630000BFA0CFBABF1010B0BEA030B4AEA0B04A0
:102640002146404602F03AF9BDE8F09F00BF00F095
:102650000702064B19684FF6FF031940044B0B4362
:1026600043EA0221014B196000BF70470CED00E006
:102670000000FA052DE9F04385B0064642A30FCBD2
:1026800001AC0FC444A0006800904FF00008002582
:1026900000270024A146042E36D004DC012E3BD0B6
:1026A000022E6BD15FE0082E32D0102E66D13B484F
:1026B0004468006800F0807000B301A8C4F383414F
:1026C000475C04F4803070B134484068C0F3404047
:1026D0001DF8008004F4803040B13148B0FBF8F0C0
:1026E00000FB07F502E02F4807FB00F52B48406888
:1026F00000F48000B0F5800F01D1A94603E0680026
:102700000321B0FBF1F93AE000F0D2F9814636E05E
:1027100000F0CEF9814632E02048046A04F44070AB
:10272000B0F5807F05D104F0020010B14FF40049EC
:1027300018E004F44070B0F5007F07D11748406AF4
:1027400000F0020010B149F640490BE004F440707B
:10275000B0F5407F06D11148006800F4003008B1A0
:102760004FF224490BE000F093F90C494968C1F39A
:102770008131491C4900B0FBF1F900E000BF00BF06
:10278000484605B0BDE8F0830203040506070809C2
:102790000A0B0C0D0E0F1010010200000010024079
:1027A00000127A0000093D00F8B504460026002515
:1027B000207800F0010000286BD000274348C06952
:1027C00000F0805070B900BF4048C06940F08050B0
:1027D0003E49C8610846C06900F08050009000BFC3
:1027E00000BF01273A48006800F48070B0B938484B
:1027F000006840F4807036490860FFF763FE0646C3
:1028000006E0FFF75FFE801B642801D90320F8BDB6
:102810002F48006800F480700028F2D02B48006A2E
:1028200000F440752DB3A08800F44070A84220D079
:102830002648006A20F440750120264908600020DF
:1028400008602248056205F0010090B1FFF73AFEEA
:10285000064608E0FFF736FE801B41F288318842C9
:1028600001D90320D3E71948006A00F002000028CC
:10287000F0D01648006A20F440706168084313499C
:102880000862012F04D10846C06920F08050C86159
:1028900000BF207800F00200022807D10B484068F2
:1028A00020F44040A168084308494860207800F0BF
:1028B0001000102807D10548406820F480006169A5
:1028C0000843024948600020A1E7000000100240D0
:1028D000007000404004424270B504460D460CB9F9
:1028E000012070BD5A48006800F00700A8420ED2CF
:1028F0005748006820F007002843554908600846FB
:10290000006800F00700A84201D00120E9E7207824
:1029100000F0020002281DD1207800F004000428F5
:1029200005D14C48406840F4E0604A49486020784E
:1029300000F00800082805D14648406840F460507F
:10294000444948604348406820F0F000A1680843CB
:1029500040494860207800F0010078B360680128A1
:1029600006D13C48006800F4003090B90120B8E777
:102970006068022806D13748006800F0007040B94E
:102980000120AEE73348006800F0020008B90120DA
:10299000A7E73048406820F00300616808432D49EC
:1029A0004860FFF78FFD064609E0FFF78BFD801BAF
:1029B00041F28831884202D9032092E707E0254896
:1029C000406800F00C006168B0EB810FEDD1204849
:1029D000006800F00700A8420ED91D48006820F0EA
:1029E000070028431A4908600846006800F00700FD
:1029F000A84201D0012074E7207800F004000428E8
:102A000007D11448406820F4E060E16808431149A8
:102A10004860207800F00800082808D10D48406878
:102A200020F46050216940EAC1000A49486000F082
:102A30003FF808494968C1F30311074A515CC8408F
:102A40000649086006480068FFF762FD002048E775
:102A50000020024000100240346E000810000020E8
:102A600008000020014800687047000010000020A6
:102A700000B5FFF7F7FF04494968C1F30221034A93
:102A8000515CC84000BD000000100240446E0008C8
:102A900000B5FFF7E7FF04494968C1F3C221034AC3
:102AA000515CC84000BD000000100240446E0008A8
:102AB000F0B585B00FF26C0C9CE8E01001A8A0E81E
:102AC000E0101CA52D6800950021002200230024A1
:102AD0000020194D696801F00C05F5B1042D02D0F4
:102AE000082D19D101E0154819E001ADC1F3834665
:102AF000AC5D01F4803555B10F4D6D68C5F34045AF
:102B00001DF805200D4D6543B5FBF2F302E00C4DB9
:102B100004FB05F3184602E000BF084800BF00BFF1
:102B200005B0F0BD02030405060708090A0B0C0DE9
:102B30000E0F1010010200000010024000127A0077
:102B400000093D00F8B504460CB90120F8BD207815
:102B500000F00100002878D0F848406800F00C0030
:102B600004280CD0F548406800F00C00082811D16A
:102B7000F248406800F48030B0F5803F0AD1EF4859
:102B8000006800F4003000285FD0606800285CD145
:102B90000120DBE700BF6068B0F5803F06D1E74861
:102BA000006840F48030E549086028E0606858B962
:102BB000E248006820F48030E04908600846006878
:102BC00020F4802008601AE06068B0F5A02F0BD1D7
:102BD000DA48006840F48020D84908600846006858
:102BE00040F4803008600AE0D448006820F4803067
:102BF000D24908600846006820F48020086000BFC1
:102C0000606888B1FFF75EFC054606E0FFF75AFCF6
:102C1000401B642801D9032098E7C848006800F4E5
:102C200000300028F2D010E0FFF74CFC054606E02B
:102C3000FFF748FC401B642801D9032086E7BF4802
:102C4000006800F400300028F2D1207800F0020083
:102C5000022857D1B948406800F00C0050B1B7487D
:102C6000406800F00C00082818D1B448406800F40F
:102C7000803098B9B148006800F0020020B12069A6
:102C8000012801D0012061E7AC48006820F0F8007D
:102C9000616940EAC100A949086033E02069E8B1F0
:102CA0000120A7490860FFF70DFC054606E0FFF785
:102CB00009FC401B022801D9032047E79F48006810
:102CC00000F002000028F2D09C48006820F0F800D4
:102CD000616940EAC1009949086013E00020984901
:102CE0000860FFF7EFFB054606E0FFF7EBFB401B34
:102CF000022801D9032029E79048006800F002006B
:102D00000028F2D1207800F0080008282DD1A06911
:102D1000B8B101208B490860FFF7D4FB054606E0F7
:102D2000FFF7D0FB401B022801D903200EE78348A0
:102D3000406A00F002000028F2D0012001F034F8CF
:102D400013E000207F490860FFF7BCFB054606E062
:102D5000FFF7B8FB401B022801D90320F6E67748AD
:102D6000406A00F002000028F2D1207800F0040050
:102D7000042873D100277148C06900F0805070B9F1
:102D800000BF6E48C06940F080506C49C861084679
:102D9000C06900F08050009000BF00BF01276A4862
:102DA000006800F48070B0B96748006840F4807033
:102DB00065490860FFF786FB054606E0FFF782FBE2
:102DC000401B642801D90320C0E65F48006800F476
:102DD00080700028F2D000BFE068012806D1574873
:102DE000006A40F001005549086227E0E06858B9E0
:102DF0005248006A20F00100504908620846006A03
:102E000020F00400086219E0E06805280BD14B4867
:102E1000006A40F00400494908620846006A40F030
:102E2000010008620AE04548006A20F001004349B9
:102E300008620846006A20F00400086200BFE068EB
:102E4000A0B1FFF73FFB054609E0FFF73BFB401B46
:102E500041F28831884202D9032077E622E03748E0
:102E6000006A00F002000028EFD012E0FFF72AFB12
:102E7000054608E0FFF726FB401B41F288318842F7
:102E800001D9032062E62D48006A00F00200002804
:102E9000F0D1012F05D12948C06920F08050274981
:102EA000C86100BFE069C8B32448406800F00C0066
:102EB000082860D0E069022848D10020204908662F
:102EC000FFF700FB054606E0FFF7FCFA401B02286F
:102ED00001D903203AE61948006800F00070002884
:102EE000F2D1206AB0F5803F07D11448406820F441
:102EF0000030A168084311494860D4E9080108433B
:102F00000E49496821F4741108430C4948600120B6
:102F10000B490866FFF7D6FA054607E03DE0FFF7E4
:102F2000D1FA401B022801D903200FE603480068AC
:102F300000F000700028F2D02FE0000000100240E6
:102F400000004242800442420070004000201449C8
:102F50000866FFF7B7FA054606E0FFF7B3FA401B2D
:102F6000022801D90320F1E50E48006800F0007046
:102F70000028F2D111E0E069012800D1E6E5094816
:102F8000466806F48031206A814204D106F470114B
:102F9000606A814201D00120D8E50020D6E500001A
:102FA0000000424200100240042808D14FF0E02106
:102FB000096941F004014FF0E022116107E04FF090
:102FC000E021096921F004014FF0E022116170470E
:102FD00070B504462546681EB0F1807F01D30120FC
:102FE0000FE0681E4FF0E02148610F214FF0FF30E5
:102FF00001F064FC00204FF0E021886107200861A7
:10300000002070BD7047704730B502460B4600BFC8
:1030100092F83C00012801D1022030BD012082F845
:103020003C0000BF022082F83D0010684468106830
:10303000816824F070041868044310684460144DDB
:103040001068A84213D0134D1068A8420FD0106822
:10305000B0F1804F0BD0104D1068A84207D00F4D33
:103060001068A84203D00E4D1068A84205D121F087
:1030700080015868014310688160012082F83D009A
:1030800000BF002082F83C0000BF00BFC5E7000081
:10309000002C0140003401400004004000080040C2
:1030A000000C004010B504460CB9012010BD94F886
:1030B0003D0028B9002084F83C00204600F026F8A6
:1030C000022084F83D00211D206800F03BFF012014
:1030D00084F8460000BF84F83E0001213F200155DE
:1030E000402001554120015500BF00BF012084F858
:1030F000420043200155442001554520015500BFA1
:10310000012084F83D000020D0E7000038B50446D7
:103110002068B0F1804F15D100BF0B48C06940F066
:1031200001000949C8610846C06900F0010000902B
:1031300000BF00BF002211461C20FFF749FA1C20E7
:10314000FFF736FA38BD0000001002402DE9F041CB
:1031500004460D4600BF94F83C00012802D102202D
:10316000BDE8F081012084F83C0000BF022084F813
:103170003D002068866826F0770626F47F462068A2
:1031800086602868502833D00CDC202850D004DC1E
:1031900000284BD0102851D149E0302849D0402890
:1031A0004CD139E060282DD0702807D0B0F5805F71
:1031B00003D0B0F5005F41D10DE040E0D5E9021346
:1031C0006A68206800F00CFF2068866846F0770681
:1031D0002068866033E0D5E902136A68206800F051
:1031E000FFFE2068806840F480402168886026E007
:1031F000EA686968206800F0E3FF5021206800F069
:10320000FAFE1CE0EA686968206800F0ECFF6021C3
:10321000206800F0F0FE12E0EA686968206800F0BB
:10322000CFFF4021206800F0E6FE08E000BF00BFAD
:1032300000BF2968206800F0DEFE00E000BF00BF8C
:10324000012084F83D0000BF002084F83C0000BF4E
:1032500000BF85E7704710B5044620680069C0F3D9
:103260004000D8B12068C068C0F34000B0B16FF032
:10327000020021680861012020772068806900F041
:10328000030018B12046FFF7E5FF05E0204600F0F7
:10329000D7F8204600F087F90020207720680069E1
:1032A000C0F38000D8B12068C068C0F38000B0B11E
:1032B0006FF004002168086102202077206880698F
:1032C00000F4407018B12046FFF7C4FF05E0204627
:1032D00000F0B6F8204600F066F90020207720685C
:1032E0000069C0F3C000D8B12068C068C0F3C00056
:1032F000B0B16FF0080021680861042020772068D1
:10330000C06900F0030018B12046FFF7A3FF05E0F5
:10331000204600F095F8204600F045F9002020777F
:1033200020680069C0F30010D8B12068C068C0F3FD
:103330000010B0B16FF010002168086108202077FC
:103340002068C06900F4407018B12046FFF782FF82
:1033500005E0204600F074F8204600F024F9002033
:1033600020772068006900F0010058B12068C0682B
:1033700000F0010030B16FF00100216808612046C3
:1033800000F012F920680069C0F3C01058B120683D
:10339000C068C0F3C01030B16FF0800021680861D0
:1033A0002046FFF72FFE20680069C0F3801058B157
:1033B0002068C068C0F3801030B16FF04000216811
:1033C0000861204600F0F1F820680069C0F3401061
:1033D00058B12068C068C0F3401030B16FF02000D1
:1033E000216808612046FFF70EFE10BD10B586B0BB
:1033F0000446002002900390049005902068B0F1EC
:10340000804F16D100BF0C48806940F004000A4983
:1034100088610846806900F00400019000BF00BF89
:103420000420029002200390059002A90348FEF7B1
:10343000A1FE06B010BD00000010024000080140CF
:10344000704770B504460D46164600BF94F83C0020
:10345000012801D1022070BD012084F83C0000BF8A
:1034600036B1042E1BD0082E31D00C2E5ED145E093
:103470002946206800F0C8FD2068806940F00800F7
:10348000216888612068806920F0040021688861D3
:1034900020688069296908432168886147E02946D6
:1034A000206800F0E9FD2068806940F40060216830
:1034B00088612068806920F48060216888612068C4
:1034C0008069296940EA0120216888612FE0294646
:1034D000206800F00FFE2068C06940F008002168F5
:1034E000C8612068C06920F004002168C8612068B4
:1034F000C069296908432168C86118E02946206825
:1035000000F034FE2068C06940F400602168C861A2
:103510002068C06920F480602168C8612068C069A3
:10352000296940EA01202168C86100E000BF00BFAE
:1035300000BF002084F83C0000BF00BF8BE710B53F
:1035400004460CB9012010BD94F83D0028B90020B4
:1035500084F83C00204600F025F8022084F83D0065
:10356000211D206800F0EEFC012084F8460000BF19
:1035700084F83E0001213F200155402001554120A3
:10358000015500BF00BF012084F8420043200155CF
:10359000442001554520015500BF012084F83D001D
:1035A0000020D0E77047704770477047704770B58C
:1035B0000446002520684069C0F3C01594F83D001A
:1035C00021280ED16DB12068406920F0800021686B
:1035D0004861606B10B1606BFEF786F9204600F021
:1035E0002AFF20684069C0F3801594F83E00222825
:1035F0000ED16DB12068406920F04000216848611B
:10360000A06B10B1A06BFEF76FF9204600F0E8FE4A
:10361000002070BD704700002DE9F84F0446206877
:1036200005682068C668206847694FF00009CA46E7
:1036300005F00F09B9F1000F0AD105F0200038B1EB
:1036400006F0200020B1204600F0FFFEBDE8F88F14
:10365000B9F1000F71D007F0010018B906F49070AD
:1036600000286AD005F0010030B106F4807018B16E
:10367000206C40F00100206405F0040030B107F038
:10368000010018B1206C40F00200206405F0020037
:1036900030B107F0010018B1206C40F00400206444
:1036A00005F0080048B106F0200010B907F001004D
:1036B00018B1206C40F008002064206C68B305F05D
:1036C000200028B106F0200010B1204600F0BDFE19
:1036D00020684069C0F3801A206C00F0080010B91F
:1036E000BAF1000F22D0204600F07AFE206840692F
:1036F00000F04000B0B12068406920F0400021682F
:103700004861A06B50B15648A16B4863A06BFEF7AF
:1037100017F910B1A06B416B88470CE02046FFF70A
:1037200079FF08E02046FFF775FF04E02046FFF729
:1037300071FF0020206489E7FFE7206B012878D122
:1037400005F01000002874D006F01000002870D09A
:1037500000BF00200090206800680090206840684A
:10376000009000BF00BF2068406900F04000C0B377
:10377000A06B006840681FFA80F8B8F1000F2FD0E6
:10378000A08D40452CDDA4F82E80A06B80692028F8
:103790001FD02068C06820F480702168C86020684D
:1037A000406920F00100216848612068406920F0EC
:1037B000400021684861202084F83E0000202063FA
:1037C0002068C06820F010002168C860A06BFEF778
:1037D0008BF8A08DE28D801A81B22046FFF7E6FEBD
:1037E00034E7FFE7A08DE18D401A1FFA80F8E08DE5
:1037F000E8B1B8F1000F1AD02068C06820F49070CA
:103800002168C8602068406920F001002168486193
:10381000202084F83E00002020632068C06820F04B
:1038200010002168C86041462046FFF7BFFE0DE743
:10383000FFE705F0800030B106F0800018B12046A7
:1038400000F040FF02E705F0400030B106F0400014
:1038500018B1204600F0DFFDF8E600BFF6E60000F4
:10386000F542000810B504460CB9012010BDA0694E
:1038700000B100E000BF94F83D0028B9002084F8B2
:103880003C00204600F028F8242084F83D00206801
:10389000C06820F400502168C860204600F048FE4F
:1038A0002068006920F49040216808612068406920
:1038B00020F02A00216848612068C06840F4005068
:1038C0002168C86000202064202084F83D0084F82E
:1038D0003E000020CAE7000010B586B00446002074
:1038E00002900390049005903949206888426DD178
:1038F00000BF3848806940F48040364988610846F6
:10390000806900F48040019000BF00BF00BF0846FE
:10391000806940F0040088610846806900F0040076
:10392000019000BF00BF48150290022003900320C1
:10393000059002A92848FEF71DFC4FF48060029014
:1039400000200390049002A92348FEF713FC2348AB
:1039500023490860002048600021214881608021BF
:10396000C16000210161416181614FF48051C161F9
:10397000FEF786FA08B1FDF7E2FB00BF1848A06326
:10398000446200BF1548143816490860102048608A
:103990000021144881608021C160002101614161E2
:1039A00081614FF48051C161FEF76AFA08B1FDF7F9
:1039B000C6FB00BF0B486063446200BF0022114693
:1039C0002520FEF705FE2520FEF7F2FD06B010BD0E
:1039D0000038014000100240000801405800024039
:1039E000540A0020980A002070B504460D46164679
:1039F00094F83E00202816D105B10EB9012070BD03
:103A000000BF94F83C00012801D10220F7E7012013
:103A100084F83C0000BF002020633246294620463F
:103A200000F004FEEBE70220E9E7704770477047BB
:103A300000BFFEE770B50446206805490840B0F1B4
:103A4000005F04D165682068FCF77CFBA84770BD67
:103A50000000FE2F2DE9F04782460E46174600244F
:103A60003546A04611E068784FEA00292878484496
:103A70001FFA80F9AD1C2046611C8CB20D4921F85B
:103A8000109008F102001FFA80F8B845EBD30A49FC
:103A90002246D1F8040C0749FDF790F80648D0F803
:103AA000040C00EB44000449C1F8040C0024BDE8F8
:103AB000F0870000FC1B00200C2C0020F8B5074606
:103AC0000C461546002000900026FEF73BFB7021B7
:103AD0000C48FDF733F80A20FEF766FA00BF0CE049
:103AE000012269463846FDF755F80122694620460D
:103AF000FDF7E2F8BF1CA41CB61CAE42F0D3FEF7E3
:103B0000BFFAF8BD00C0000802480349C1F8040C20
:103B100070470000004004080C2C002010B5FDF791
:103B2000D1FA002010BD00000EB5002000900190D9
:103B300002902348234908608115224881600121B1
:103B40000173002101754FF46021C16100201D49FE
:103B5000486004211B480161FDF7EAFC08B1FDF74C
:103B6000EEFA0820009001200190002002906946A2
:103B70001448FDF729FC08B1FDF7E1FA092000908F
:103B80000220019069460F48FDF71EFC08B1FDF7C1
:103B9000D6FA0A2000900320019069460948FDF7F3
:103BA00013FC08B1FDF7CBFA0B2000900420019024
:103BB00069460448FDF708FC08B1FDF7C0FA0EBDE0
:103BC000002401405409002008B500BF1248406994
:103BD00040F00100104948610846406900F00100CA
:103BE000009000BF00BF002211460B20FEF7F0FC42
:103BF0000B20FEF7DDFC002211460E20FEF7E8FC4C
:103C00000E20FEF7D5FC002211460F20FEF7E0FC47
:103C10000F20FEF7CDFC08BD0010024000B585B0B6
:103C20000020019002900390049000BF1F4880691B
:103C300040F010001D4988610846806900F01000BE
:103C4000009000BF00BF00BF0846806940F0200020
:103C500088610846806900F02000009000BF00BF26
:103C600000BF0846806940F004008861084680690A
:103C700000F00400009000BF00BF00BF084680694C
:103C800040F0080088610846806900F00800009054
:103C900000BF00BF08200190002002900120039087
:103CA00001A90348FEF766FA05B000BD0010024006
:103CB0000008014000B58DB0002009900A900B90DB
:103CC0000C90079008901C216846FCF7FCFA4FF016
:103CD00080402149086041F61F40486000211E488D
:103CE000816040F2E731C160002101618161FFF72D
:103CF000D9F908B1FDF723FA4FF48050099009A9CA
:103D00001548FFF723FA08B1FDF719FA1248FFF733
:103D100016FC08B1FDF713FA00200790089007A9D8
:103D20000D48FFF771F908B1FDF709FA602000901E
:103D300040F2F3100190002002900490082269469E
:103D40000548FFF77EFB08B1FDF7F9F90248FFF7D8
:103D50004DFB0DB000BD0000C809002010B50B4898
:103D60000B4908604FF4E130486000210848816049
:103D7000C16001610C21416100218161C161FFF7D6
:103D800071FD08B1FDF7DBF910BD000000380140FE
:103D9000100A002000BFFEE700BFFEE700B50246A4
:103DA00000F044F800BD000008B508490968C908DA
:103DB0004FF47A72B1FBF2F14143009100BF00BFB2
:103DC00000994A1E00920029F9D108BD1000002078
:103DD00010B508210148FEF76DFB10BD0008014039
:103DE00070B50346002000E0401C00EB40040E4D7F
:103DF00055F824400CB10528F6D3052800D38AB124
:103E000000EB4004084D45F824304C1C00EB400505
:103E1000054E06EB85056C6000EB4004354605EB6E
:103E20008404A26070BD0000500B002003490868A4
:103E300000E0C06C0028FCD1704700001800002092
:103E400070B50346A2B118460C4600BF14F8016BCA
:103E500000F8016B3EB902E0002500F8015B551E39
:103E60002A1EF9D102E0551E2A1EEFD100BF00BF65
:103E7000184670BD10B502F025FD012801D002F0F2
:103E800055FAFEF725FB10BD00B595B028210BA80B
:103E9000FCF719FA142106A8FCF715FA1821684650
:103EA000FCF711FA01200B9000040C9000200D90FB
:103EB00001200F9002201290C10313914FF4E011E2
:103EC00014910BA8FEF73EFE08B1FDF738F90F205C
:103ED000069002200790002008904FF4806009901F
:103EE00000200A90022106A8FEF7F6FC08B1FDF7B3
:103EF00026F902200090800302906846FEF754FCE9
:103F000008B1FDF71CF915B000BD704710B5FEF7FC
:103F1000A9FD42F21071B0FBF1F42046FFF758F80A
:103F20000420FFF741F800221146501EFEF750FB17
:103F300010BD000010B50248FFF78DF910BD00005C
:103F4000C809002010B50268204B98420ED0204BC3
:103F500098420BD0B0F1804F08D01E4B984205D04C
:103F60001D4B984202D01D4B984203D122F07002A3
:103F70004B681A43154B98420ED0154B98420BD004
:103F8000B0F1804F08D0134B984205D0124B9842A5
:103F900002D0124B984203D122F44072CB681A43EC
:103FA00022F080034C6943EA040202608B68C3621A
:103FB0000B688362054B984202D0054B984201D1B1
:103FC0000B6903630123436110BD0000002C014015
:103FD000003401400004004000080040000C004094
:103FE00030B50C46816821F47F4142EA0325254320
:103FF0002943816030BD0A46816821F0700142F09A
:10400000070319438160704730B5056A25F0010543
:104010000562026A4368846924F0700424F0030492
:104020000D682C4322F002028D682A43104DA842ED
:1040300000D103E00F4DA84206D100BF22F00802D4
:10404000CD682A4322F00402094DA84202D0094D4E
:10405000A84207D123F4807323F400734D692B43E6
:104060008D692B43436084614D684563026230BDB6
:10407000002C01400034014030B5056A25F01005E0
:104080000562026A4368846924F4E04424F44074BD
:104090000D6844EA052422F020028D6842EA0512E8
:1040A000124DA84200D103E0114DA84207D100BF34
:1040B00022F08002CD6842EA051222F040020B4D48
:1040C000A84202D00A4DA84209D123F4806323F408
:1040D00000634D6943EA85038D6943EA85034360C4
:1040E00084614D688563026230BD0000002C014090
:1040F0000034014030B5056A25F480750562026A16
:104100004368C46924F0700424F003040D682C4350
:1041100022F400728D6842EA0522124DA84200D1B5
:1041200003E0114DA84207D100BF22F40062CD6820
:1041300042EA052222F480620A4DA84202D00A4DCA
:10414000A84209D123F4805323F400534D6943EA74
:1041500005138D6943EA05134360C4614D68C56367
:10416000026230BD002C01400034014030B5056AC8
:1041700025F480550562036A4468C26922F4E0426E
:1041800022F440720D6842EA052223F400538D6840
:1041900043EA0533084DA84202D0084DA84204D195
:1041A00024F480444D6944EA85144460C2614D683A
:1041B0000564036230BD0000002C01400034014062
:1041C00030B50B461446026A056A25F00105056202
:1041D000816921F0F00141EA041122F00A021A4338
:1041E0008161026230BD30B50B461446056A25F088
:1041F000100505628169026A21F4704141EA0431C7
:1042000022F0A00242EA03128161026230BD000086
:1042100010B5274890F80A0C002825D000BF25A02B
:1042200000F034FB27A000F031FB00BF00BF21A04D
:1042300000F02CFB1E48B0F8001C27A000F026FB65
:1042400000BF00201A4981F80A0CB1F8002CD1F8FF
:10425000040CFFF7FFFB1648B0F8001CFCF733F81E
:1042600000201349A1F8000C1148B0F8080CE8B17F
:104270000F4890F80B0CC8B100200D4981F80B0CC9
:1042800001F608411948FCF773FC19491748801CCE
:10429000FCF76EFC00200649A1F8080C4FF0006006
:1042A000FFF7C8FB4FF4FA60FDF77EFE002010BD5B
:1042B0000C2C00200A5B424F4F545D203E3E3E3E98
:1042C00020200000757064617465206669726D77E6
:1042D0006172650A0000000041505020B3A4B6C8C6
:1042E000A3BA2564D7D6BDDA0A000000FEBF0708CE
:1042F0001400002070B505466C6A0020E085E0845B
:104300002046FFF787F970BD70B506460025746A30
:1043100020684069C0F3C01594F83D00212805D1FC
:1043200025B10020E084204600F085F8206840692F
:10433000C0F3801594F83E00222805D125B1002055
:10434000E085204600F04CF8206C40F0100020641E
:104350002046FFF75FF970BD70B505466C6A2868A6
:10436000006800F02000F8B90020E0852068C068EF
:1043700020F480702168C8602068406920F0010046
:10438000216848612068406920F040002168486148
:10439000202084F83E00206B012805D12068C068E9
:1043A00020F010002168C860206B012804D1A18D85
:1043B0002046FFF7FBF802E02046FFF736FB70BD12
:1043C00070B505466C6A206B012805D1A08D4108A7
:1043D0002046FFF7EBF802E02046FFF727FB70BD11
:1043E0000168C96821F490710268D1600168496967
:1043F00021F0010102685161016B012905D10168B9
:10440000C96821F010010268D160202180F83E10B7
:1044100000210163704710B504462068C06820F091
:1044200040002168C860202084F83D002046FFF746
:10443000FEFA002010BD0168C96821F0C0010268C1
:10444000D160202180F83D107047F8B5044694F8FB
:104450003E00222869D1A068B0F5805F0CD12069A8
:1044600050B90025A66A20684068C0F30800308073
:10447000A06A801CA06215E0A56A0026A068B0F5BD
:10448000805F03D0A06828B9206918B92068406807
:10449000287004E02068406800F07F002870A06A5F
:1044A000401CA062E08D401E80B2E085A8BB206861
:1044B000C06820F020002168C8602068C06820F42F
:1044C00080702168C8602068406920F00100216880
:1044D0004861202084F83E00206B01281ED1002076
:1044E00020632068C06820F010002168C860206840
:1044F000006800F0100010280AD100BF00200090D2
:1045000020680068009020684068009000BF00BFED
:10451000A18D2046FFF74AF803E004E02046FFF7AC
:1045200084FA0020F8BD0020FCE70220FAE7000032
:1045300070B504462168096921F44051E2681143CD
:10454000226811612269A1681143626941EA02058A
:104550002168C96841F20C62914329432268D16005
:104560002168496921F44071A269114322685161AF
:104570002D4A2168914202D1FEF78AFA01E0FEF746
:1045800077FA00EBC00101EB001162689200B1FB09
:10459000F2F100EBC00202EB001263689B00B2FB79
:1045A000F3F26423B2FBF3F202EBC20303EB021259
:1045B000A1EB8201322202EB01116422B1FBF2F184
:1045C00001F0F00100EBC00202EB001263689B00F7
:1045D000B2FBF3F26423B2FBF3F201EB021200EB45
:1045E000C00101EB001163689B00B1FBF3F100EB2C
:1045F000C00303EB00136668B600B3FBF6F3642652
:10460000B3FBF6F303EBC30606EB0313A1EB830145
:10461000322303EB01116423B1FBF3F101F00F012D
:1046200011442268916070BD0038014077B581B0B7
:10463000044615460298A062A58500202064222029
:1046400084F83E001C48A16B88621C48A16BC862BC
:104650001B48A16B08630020A16B486302AE32685F
:104660002368191D2B46A06BFDF750FC00BF0020EE
:10467000009020680068009020684068009000BFAB
:1046800000BF00BF002084F83C0000BF2068C06865
:1046900040F480702168C8602068406940F00100E3
:1046A000216848612068406940F040002168486105
:1046B000002004B070BD000059430008C143000849
:1046C00009430008014691F83D00212828D1886857
:1046D000B0F5805F0BD1086948B90A6A1088C0F349
:1046E00008000B685860086A801C086205E00B6AC5
:1046F000581C086218780B685860C88C401E80B23D
:10470000C88458B90868C06820F080000B68D86079
:104710000868C06840F040000B68D860002070470F
:104720000220FCE770B5002500241D48FEF774FF49
:104730001B4800680068C0F300150DB36FF010004F
:104740001749096808601648FEF731FF002015492F
:10475000A1F80C0C81F80B0C13480068406884B277
:10476000C4F54060A1F8000C0846B0F8080CB1F898
:10477000001C08440B49A1F8080C012081F80A0C20
:1047800007480068C06840F0200005490968C86013
:104790004FF4406203490248FFF726F970BD00005C
:1047A000100A00200C2C0020540A002000BFFEE755
:1047B0001CB5012001F0D4FD194908600022042134
:1047C000052001F0DEFD1749086040F23720FBF7B5
:1047D0004BFD1448006808B30020012103464FF444
:1047E0007A72CDE9001010A1114802F03BF80020C8
:1047F000022101234FF47A72CDE900100DA10C487B
:1048000002F030F80020009003464FF47A720BA1BA
:1048100001900D4802F026F801201CBD00BFFCE706
:104820001C000020200000205072696E74310000CE
:10483000E15A00085072696E743200004761746575
:104840006B65657065720000D95B000810B50D4896
:10485000FEF7ADFE0B480068C06840F02000094933
:104860000968C86007480068C06840F01000054942
:104870000968C8604FF4406203490248FFF7B4F882
:1048800010BD0000100A00200C2C00200FB4054BB6
:1048900010B503A9044A029800F0F6F810BC5DF8C0
:1048A00014FB0000B9510008000000200248006815
:1048B000C0F30220704700000CED00E010B50028A6
:1048C00004DB0A07130E054A135406E00A07140E08
:1048D000034A00F00F031B1FD45410BD00E400E096
:1048E00018ED00E002E008C8121F08C1002AFAD142
:1048F00070477047002001E001C1121F002AFBD160
:10490000704700002DE9FF5F82B00021DDE904302F
:10491000020DDDF840B0034318D044F61050A2F267
:10492000FF3242431514119801281FD0A5EB0B004C
:10493000401C5FEA000A4FF000064E4FDFF8389146
:10494000B046504615D5CAF1000413E01198012471
:104950004AA3012801D16FEA0B010298119AC0E91C
:104960000031C0E9024206B0BDE8F09FCBF1000083
:10497000DFE704460021404A491842EB0450CDE9E4
:10498000001012E0E00707D032463B464046494659
:10499000FBF73AFD8046894632463B4610461946AB
:1049A000FBF732FD06460F466410002CEAD1DDE924
:1049B0000401DDE90023BAF1000F06DAFBF724FD5C
:1049C00042464B46FBF720FD05E0FBF72FFF424632
:1049D0004B46FBF72BFF04460E460022284BFBF705
:1049E000ADFF03D84FF0FF30014607E00022254B12
:1049F00020463146FBF773FEFBF787FF102409E0E2
:104A0000002C0ADB0A220023FBF7A4FD039B3032B3
:104A10001A55641E50EA0102F2D1641C039AC4F1D3
:104A200011031444119A012A03D0012208430DD125
:104A30000AE0084304D000204FF0110B119072E7F8
:104A4000A3EB0B056D1E0DE05B4504DD4FF000028E
:104A500005F1010504E003DA4FF00002A5F10105BC
:104A6000002AECD002981199C0E90231C0E9004552
:104A700079E70000000014400000F03F3000000023
:104A80000000F0430000E03F2DE9FF4F95B09B464A
:104A90008946064600250FE2252877D100242746BF
:104AA000F84A0121059400E0044316F8013F203B39
:104AB00001FA03F01042F7D130782A2811D06FF0B4
:104AC0002F033078A0F13002092A16D8059A44F055
:104AD000020402EB820203EB42021044761C0590B2
:104AE000EFE759F8042B0592002A03DA504244F408
:104AF0000054059044F00204761C30782E2816D11C
:104B000016F8010F44F004042A280DD06FF02F028C
:104B10003078A0F13003092B09D807EB870302EBAB
:104B20004303C718761CF3E759F8047B761C3078EA
:104B30006C280FD006DC4C2817D068280DD06A28C6
:104B400014D104E0742810D07A280FD10DE044F479
:104B500000140AE044F4801401E044F44014727834
:104B6000824202D104F58014761C761C30786628C7
:104B70000BD013DC582877D009DC002875D04528E5
:104B8000F6D04628F4D047281AD19DE118E06328D2
:104B900035D0642879D0652812D195E1702873D07A
:104BA00008DC6728F1D069286FD06E280DD06F28F7
:104BB00006D1B5E073282CD0752875D0782874D02C
:104BC0005A46179990476D1C75E1C4F302500228AC
:104BD00009D003280DD0D9F8001004280DD00D609D
:104BE00009F1040967E1D9F80010EA17C1E9005298
:104BF000F6E7D9F800100D80F2E70D70F0E719F82C
:104C0000041B8DF8001000208DF80100EA460120F9
:104C100003E059F804AB4FF0FF3061074FF000019B
:104C200002D40DE008F101018846B9420FDA80454F
:104C3000F8DB1AF808100029F4D108E008F10101A6
:104C400088468142FADB1AF808100029F6D1059847
:104C50005B46A0EB080721463846179A00F094FA05
:104C6000284400EB080507E04DE029E10DE01AF8C3
:104C7000010B5A4617999047B8F10108F7D25B46E5
:104C800021463846179A13E142E00A220092C4F303
:104C900002524FF0000A022A08D059F804CB032A26
:104CA0004FEAEC710AD00DE029E02AE009F1070192
:104CB00021F00702F2E802C1914609E00FFA8CFCEC
:104CC0004FEAEC71042A03D14FFA8CFC4FEAEC71E5
:104CD000002907DA0A460021DCF1000C61EB020131
:104CE0002D2202E0220504D52B228DF8042001227A
:104CF00003E0E20701D02022F7E7904659E00A21BD
:104D000002E010220DE010214FF0000A00910BE0AC
:104D100010224FF0000A44F004040827009203E038
:104D200008224FF0000A0092C4F30252022A05D072
:104D300059F804CB0021032A08D009E009F1070142
:104D400021F00702F2E802C1914605E01FFA8CFC4F
:104D5000042A01D10CF0FF0C4FF00008220728D5DF
:104D6000702806D0009B83F0100353EA0A0305D095
:104D70000EE040228DF80420012208E05CEA0102E6
:104D800006D030228DF804208DF8050002229046CE
:104D9000009B83F0080353EA0A030AD15CEA01028C
:104DA00001D1620705D530228DF804204FF00108AB
:104DB0007F1E582804D034A003900EA802900DE066
:104DC00036A0F9E753466046009AFBF7C3FB8446DA
:104DD0000398825C0298401E029002705CEA010017
:104DE000F0D1029806A9081A00F1200A600702D53E
:104DF00024F4803400E00127574502DDA7EB0A00C8
:104E000000E0002000EB0A01009005984144401AA0
:104E10000590E00306D45B462146179A059800F0FA
:104E2000B3F90544002706E001A85A46C05D17996A
:104E300090476D1C7F1C4745F6DBE0030CD55B46B5
:104E40002146179A059800F09FF9054404E03020A8
:104E50005A46179990476D1C0099481E00900029EA
:104E6000F5DC08E0029802995A460078491C029144
:104E7000179990476D1CBAF10001AAF1010AF1DC03
:104E800065E100000928010030313233343536370E
:104E90003839616263646566000000003031323386
:104EA0003435363738394142434445460000000026
:104EB00000F058F90544761C307800287FF4ECADFA
:104EC00019B02846BDE8F08F620700D4062709F123
:104ED000070222F0070CFCE80223E14603F0004839
:104EE0005FEA080C02D00FF2702C0DE05FEA045C60
:104EF00002D50FF2682C07E05FEAC47C02D00FF203
:104F0000602C01E0AFF2700C4FF0FF3823F000434B
:104F1000CDF850C065280CD006DC452809D04628BD
:104F20001DD047283DD13DE0662818D067287ED1A6
:104F300038E00021112F01DB112000E0781CCDE9C1
:104F4000000106A90EA8FFF7DDFCDDE90F010E9AAE
:104F500003910021009207F1010A04914DE04FF006
:104F600000400097CDE9011006A90EA8FFF7CAFC82
:104F7000DDE90F0203920E9B11990022DDF80CA0CF
:104F80000093049211B9791C00EB010AB7EB0A00F7
:104F900004D4C0F1FF3007F1010A0490AAEB070026
:104FA000019044E0012F00DA01270021112F01DDDB
:104FB000112000E03846CDE9000106A90EA8FFF750
:104FC000A1FCDDE90F010E9A0391002104910092EA
:104FD000BA4621070CD40399514500DA8A46BAF142
:104FE000010F05DD009AAAF10101515C302908D0BA
:104FF000B84202DA10F1040F06DA0121CDE90110FE
:1050000015E0AAF10101E9E7002805DC0499014453
:105010000491AAEB000102E0411C514500DD8A46E3
:105020000499401A401C01904FF000400290200764
:1050300004D40198504501DBCDF8048000208DF8A0
:105040004F0002980DF14F07B0F1004F25D02B20F3
:105050000E9002984FF0020800280CDA40420290AD
:105060002D200E9007E00A210298FBF7CDF8303191
:10507000029007F8011DB8F10001A8F10108F2DC67
:1050800002980028EFD1791E0E980870307800F051
:10509000200040F0450007F8020D12A8C01B00F1E7
:1050A00007081498007800B1012000EB0A0101986C
:1050B00001EBE07105984144401A401E0590E00361
:1050C00006D45B462146179A059800F05DF8054422
:1050D0001498007818B15A46179990476D1CE00350
:1050E00024D55B462146179A059800F04DF80544F3
:1050F0001CE00498002807DBDDE90301884203DD9A
:105100000098405C179901E0179930205A46904763
:10511000049805F10105401C04900198401E01907F
:1051200004D12E205A46179990476D1CBAF1000100
:10513000AAF1010ADDDC05E017F8010B5A461799C0
:1051400090476D1CB8F10001A8F10108F4DC5B4642
:105150002146179A0598ABE62D0000002B000000B1
:10516000200000002DE9F041044600251E461746A8
:10517000880404D405E039462020B0476D1C641E25
:10518000F9D52846BDE8F0812DE9F0410446002517
:105190001E469046C80301D5302700E0202788042A
:1051A00004D505E041463846B0476D1C641EF9D56C
:1051B0002846BDE8F081000000BF054A126802F0F1
:1051C0004002002AF9D0C2B2014B1B1D1A60704781
:1051D00000380140FDF788F9FEF756FEFEF71EFD88
:1051E000FEF768FDFEF7F0FCFEF7B8FDFEF79CFC4D
:1051F000FEF78CFEFFF72AFBFEF786FC1422012146
:105200006948FEF7EDFD0A2211466848FEF7E8FD01
:105210000023674A674968A0FBF708FE684A002137
:105220006448FBF7EFFD674A02216248FBF7EAFD9D
:10523000654A05215F48FBF7E5FD644A06215D48A4
:10524000FBF7E0FD624A03215A48FBF7DBFD5948B2
:10525000FCF72AF800BF5FA0FFF718FB61A0FFF77B
:1052600015FB00BF00BF5BA0FFF710FB5EA0FFF7C0
:105270000DFB00BF00BF57A0FFF708FB62A0FFF7C0
:1052800005FB00BF00BF53A0FFF700FB66A0FFF7C0
:10529000FDFA00BF00BF4FA0FFF7F8FA6AA0FFF7C2
:1052A000F5FA00BF6948FBF759FC45F6A52188428D
:1052B00074D100BF47A0FFF7E9FA65A0FFF7E6FA4F
:1052C00000BF4FF47A70FCF76FFE00BF41A0FFF7FC
:1052D000DDFA66A0FFF7DAFA00BF4FF47A70FCF748
:1052E00063FE00BF3BA0FFF7D1FA67A0FFF7CEFA3D
:1052F00000BF4FF47A70FCF757FE00BF35A0FFF7F0
:10530000C5FA68A0FFF7C2FA00BF4FF47A70FCF745
:105310004BFE00BF2FA0FFF7B9FA69A0FFF7B6FA5E
:1053200000BF4FF47A70FCF73FFE00BF29A0FFF7E3
:10533000ADFA6AA0FFF7AAFA00BF4448801EFBF747
:105340000DFC044622466B496B48FEF7B7FB00BFD5
:1053500020A0FFF79BFA69A0FFF798FA00BF00BFF3
:105360001CA0FFF793FA6AA0FFF790FA00BFFCF7C2
:10537000E9FE70216048FBF7E1FB01213348FBF7B0
:10538000DDFBFCF77DFE00BF12A0FFF77FFA6FA0E8
:10539000FFF77CFA00BF5748FEF74CFBFFF708FA0F
:1053A00000F0B2FE00BFFEE71D3B000811420008FE
:1053B000D13D0008B4080020427574746F6E31004E
:1053C000910D0008590D0008210D0008E50C00089A
:1053D000C90D00080A5B424F4F545D203E3E3E3EE1
:1053E000202000000A0000002D2D2D2D2D494150B8
:1053F000204D656E752D2D2D2D2D2D2D2D2D2D2D09
:105400002D2D2D0A000000002D2D2D2D2D446F7700
:105410006E6C6F6164204150502042494E2D2D2DFD
:105420002D2D2D0A000000002D2D2D2D2D526573E0
:105430007461727420546F2052554E204150502D8B
:105440002D2D2D0A000000000A0A0A0000C00708DE
:105450002D2D2D2D2D526573746172742E2E2E2ECE
:105460002E352D2D2D2D2D2D2D0A00002D2D2D2DE0
:105470002D526573746172742E2E2E2E2E342D2DA6
:105480002D2D2D2D2D0A00002D2D2D2D2D52657326
:10549000746172742E2E2E2E2E332D2D2D2D2D2D2A
:1054A0002D0A00002D2D2D2D2D52657374617274FF
:1054B0002E2E2E2E2E322D2D2D2D2D2D2D0A00008F
:1054C0002D2D2D2D2D526573746172742E2E2E2E5E
:1054D0002E312D2D2D2D2D2D2D0A000074686520C7
:1054E000646576696365206E6565642075706461C6
:1054F00074650A0000C00008004004086669726D07
:1055000077617265207772697465204F4B0A0000DD
:10551000706C6561736520646F75626C6520636C87
:1055200069636B2074686520627574746F6E207493
:1055300068652065786563757465207468652061A9
:1055400070706C69636174696F6E0A00BFAACABC2F
:10555000D6B4D0D0204150500A0000002DE9F041CF
:1055600005460E462648076826480068001D00F0DC
:1055700073FC50B92348006890F82C100120884033
:1055800021490968814320480160681CD8B9D6B117
:105590001E4948681B49096888601A498268096879
:1055A000CA6018490968091D82685160154909686F
:1055B000091D8160154A134909684A611146096845
:1055C000491C11601AE07C190E4800684460BC4216
:1055D00007D20C480168091D0D48006800F070FCF6
:1055E0000CE008480168091D0A48006800F068FCE2
:1055F00009480068844201D207480460BDE8F08190
:1056000048000020340000204C000020680C0020DE
:105610003C000020380000206400002010B5044643
:1056200000F068FC31480068401C30490860304890
:10563000006840B92E4804600846006801280DD172
:1056400000F0CAF90AE02B48006838B92848006819
:10565000C06AE16A884201D825480460264800688B
:10566000401C2549086008460068606494F82C10C6
:105670000120884021490968084320490860E16AFF
:1056800001EB81011E4A02EB81014868A06082683B
:10569000E260211D826851608160E16A01EB810155
:1056A000174A02EB81026261E16A01EB8101144A4F
:1056B00052F82110491CE26A02EB8202104B43F8B7
:1056C000221000F041FC0B48006868B108480068EF
:1056D000C06AE16A884207D24FF0805009490860E9
:1056E000BFF34F8FBFF36F8F10BD00004400002049
:1056F0003400002050000020600000204C000020FA
:105700008C0B002004ED00E010B516E000F0F2FB79
:105710000C48C068C468201D00F09EFB0A48006861
:10572000401E0949086009480068401E0749086092
:1057300000F00AFC204600F05FF8044800680028EA
:10574000E4D110BD540C0020440000204000002093
:1057500070B504460D46206C70B1216CE0680144C0
:10576000E160D4E90210884201D32168E160284653
:10577000226CE168FAF780FD70BD2DE9F041044626
:105780000F4615464FF00008A66B206C48B92068FC
:1057900000282CD1A06801F089F980460020A06083
:1057A00025E07DB93946226C6068FAF765FD216C09
:1057B000606808446060D4E90101884217D320681A
:1057C000606014E03946226CE068FAF755FD216C00
:1057D000E068411AE1602168E068884203D2216CE8
:1057E000A068411AE160022D01D106B1761E701C3D
:1057F000A0634046BDE8F08110B50446206B00F080
:10580000C1FB204600F0BEFB10BD000030B54FF4D8
:10581000A043174800F007042CB1C01D20F007007A
:10582000134C041B1B1B0246124C22600024114D1A
:105830006C60D018083820F007000F4C206000245E
:105840000D4D2D686C600C4D2D682C601146441A6E
:105850004C60094C24680C60084D4C682C60084D65
:105860004C682C604FF00044064D2C6030BD0000A9
:105870001C380020740000207C00002084000020E0
:10588000800000209000002000BFFFF73DFF064889
:1058900000680128F9D94FF0805004490860BFF32F
:1058A0004F8FBFF36F8FF0E78C0B002004ED00E00B
:1058B00010B5044654B10020A06020600021E160D2
:1058C00000231A461946204600F0FCFD10BD2DE9C4
:1058D000F04106460D4617469846069C0DB92460D1
:1058E00000E02760E66325640121204600F07CFD8E
:1058F00084F84C80BDE8F0812DE9F05F82460F46C8
:1059000090469B460A9E0C9C4FEA8801A522206B7C
:10591000FAF7D2FCA8F10100216B01EB800929F014
:10592000070909F0070008B9012000E0002050B97C
:1059300000BF502080F31188BFF34F8FBFF36F8FEC
:1059400000BF00BFFEE787B1002507E0795D04F1E5
:1059500034004155785D00B902E06D1C102DF5D37F
:1059600000BF00214320015502E0002084F83400EC
:10597000072E01D2012000E0002050B900BF5020C6
:1059800080F31188BFF34F8FBFF36F8F00BF00BF4D
:10599000FEE7072E00D30626E662E66400202065B7
:1059A000201D00F08AFA04F1180000F086FA246144
:1059B000C6F10700A06164620020606584F85800A9
:1059C0005A465146484600F035FA20600B9808B117
:1059D0000B980460BDE8F09F10B5002407E004EBCD
:1059E00084010F4A02EB810000F05AFA641C072C74
:1059F000F5D30C4800F054FA0B4800F051FA0B486C
:105A000000F04EFA0A4800F04BFA0A4800F048FA53
:105A100004480949086004480849086010BD0000AE
:105A20008C0B0020180C00202C0C0020400C0020B7
:105A3000540C0020680C0020380000203C0000209E
:105A400010B50146164800E0006803688B42FBD39E
:105A50000246436813448B4204D143684C68234494
:105A6000436001460A464B6813440468A34211D1BF
:105A70000C4C03682468A34208D04B68046864682F
:105A800023444B6003681B680B6005E0054B1B68F3
:105A90000B6001E003680B60884200D0016010BD1C
:105AA000740000207C00002070B5054600F022FA4A
:105AB000A86B08B9012400E0002400F045FA204654
:105AC00070BD70B5054600F015FAA86BE96B884209
:105AD00001D1012400E0002400F036FA204670BD18
:105AE0001FB50020009001900290039000BF00BFFE
:105AF0002348FBF7DDFB282222492148FBF734FE2F
:105B000000BF00BF002431E000250EE01D4901EB7D
:105B1000C50131F81400FAF7E9FC06465DF82410D7
:105B2000FAF7DCFB4DF824006D1C0A2DEEDB5DF866
:105B300024001549FAF72AFC8146FAF7DCFC0746EF
:105B40004FF06632114BFAF75FFC0546FAF7E6FCB8
:105B50004DF824005DF82400FAF7CDFC05462A46EE
:105B60000B4621460AA0FEF791FE641C042CCBDBF9
:105B7000FAF770FBC0F30804204600F069FAC1E7A9
:105B800054090020000B00200000204766660A40F0
:105B90004144435F56616C75655B25645D203D2023
:105BA000252E32660A00000009480068006808B91E
:105BB000012000E0002020B14FF0FF3005490860CF
:105BC00005E003480068C068006802490860704743
:105BD000380000206400002008B500BF4FF0FF32FD
:105BE00069460648006800F041FD05A00099FEF7EF
:105BF0004DFE0448002000BFF0E700002000002018
:105C000025730000000000200E480068401C08B901
:105C1000012000E0002050B900BF502080F311881F
:105C2000BFF34F8FBFF36F8F00BF00BFFEE700BF12
:105C3000502080F31188BFF34F8FBFF36F8F00BFE9
:105C400000BFFEE79400002070B5044600F052F952
:105C500094F9455010E0606A08B9012000E0002086
:105C600038B904F1240000F099FF18B100F02AFAC5
:105C700000E003E0681E45B2002DECDC00BFFF2011
:105C800084F8450000F060F900F034F994F94450CC
:105C900010E0206908B9012000E0002048B904F1B3
:105CA000100000F07BFF08B100F00CFA681E45B24E
:105CB00000E001E0002DECDC00BFFF2084F8440090
:105CC00000F042F970BD00002DE9F04104464FF0AC
:105CD000000800F061FA5148006808B9FFF796FD26
:105CE0004F480068204000287ED13CB304F10800F2
:105CF000A04223D9083404F0070000B304F00700E1
:105D0000C0F108002044A04216D904F00700C0F1F9
:105D10000800044404F0070008B9012000E0002056
:105D200068B900BF502080F31188BFF34F8FBFF3D5
:105D30006F8F00BF00BFFEE7002400E00024002CAE
:105D400054D038480068844250D8374E30460568F1
:105D500001E02E462D686868A04202D2286800281B
:105D6000F7D12E480068854240D0306800F108081D
:105D7000286830606868001B102819D92F1907F0AF
:105D8000070008B9012000E0002050B900BF5020F2
:105D900080F31188BFF34F8FBFF36F8F00BF00BF39
:105DA000FEE76868001B78606C603846FFF748FEC5
:105DB0001C4968680968081A1A490860084600689A
:105DC0001A490968884203D21648006817490860D2
:105DD000134968680968084368600020286014480F
:105DE0000068401C124900E000E0086000F066FF17
:105DF00008F0070008B9012000E0002050B900BFFA
:105E0000502080F31188BFF34F8FBFF36F8F00BF17
:105E100000BFFEE74046BDE8F08100007C000020A6
:105E200090000020800000207400002084000020EA
:105E300088000020001F4FF080730360001F21F0D6
:105E400001030360001F034B036014380260203815
:105E500070470000095C000801460A69D1E9013079
:105E60009860D1E9010358605068884201D1886880
:105E70005060002008611068401E10601068704774
:105E8000002006490968491C044A11601146096846
:105E9000C82901DB0021116070470000300000209C
:105EA00000F1080141604FF0FF31816000F108010D
:105EB000C1600161002101607047002101617047EC
:105EC00010B502460B685C1C0CB9106907E002F1C2
:105ED000080000E04068446824689C42FAD944689D
:105EE0004C604C68A160886041600A611468641C61
:105EF000146010BD00BF502080F31188BFF34F8F96
:105F0000BFF36F8F00BF0E480068401C0C4908604B
:105F100008460068012812D10A480068C0B208B9D2
:105F2000012000E0002050B900BF502080F311880C
:105F3000BFF34F8FBFF36F8F00BF00BFFEE7704707
:105F40009400002004ED00E00D48006850B900BF47
:105F5000502080F31188BFF34F8FBFF36F8F00BFC6
:105F600000BFFEE706480068401E05490860084675
:105F7000006820B9002080F3118800BF00BF70477F
:105F80009400002070B506463546002E44D0083DEA
:105F90002C46224960680968084008B1012000E0E9
:105FA000002050B900BF502080F31188BFF34F8FFD
:105FB000BFF36F8F00BF00BFFEE7206808B9012064
:105FC00000E0002050B900BF502080F31188BFF3DB
:105FD0004F8FBFF36F8F00BF00BFFEE70F496068B0
:105FE00009680840C0B12068B0B90C496068096808
:105FF0008843606000F0D0F8094960680968084487
:10600000074908602046FFF71BFD06480068401C52
:106010000449086000F052FE70BD000090000020AE
:10602000800000208C00002000204FF0E02108615B
:106030008861064800684FF47A71B0FBF1F0401EA9
:106040004FF0E021486107200861704710000020F0
:1060500070B504460025D4B11248006808B9012083
:1060600000E0002050B900BF502080F31188BFF33A
:106070004F8FBFF36F8F00BF00BFFEE700F08CF8BB
:1060800000212046FFF76AFA00F018FE05463DB9E8
:106090004FF0805004490860BFF34F8FBFF36F8FFC
:1060A00070BD00007000002004ED00E003490968A5
:1060B0000160034909684160704700005C000020EE
:1060C0004800002001200149086070475800002066
:1060D00070B504460D4654B900BF502080F31188B6
:1060E000BFF34F8FBFF36F8F00BF00BFFEE70548C0
:1060F000016818312046FFF7E3FE01212846FFF72B
:106100002DFA70BD340000201CB51B4800210B4641
:106110008022CDE9001019A11A4800F0A3FB044623
:10612000012C15D100BF502080F31188BFF34F8F91
:10613000BFF36F8F00BF4FF0FF301349086001209D
:106140001249086000201249086000F073F810E05E
:10615000601C08B1012000E0002050B900BF5020B1
:1061600080F31188BFF34F8FBFF36F8F00BF00BF65
:10617000FEE7084800681CBD6800002049444C4503
:106180000000000089580008640000205000002032
:10619000480000206C00002002480068401C0149B3
:1061A00008607047700000201D48006818B1012089
:1061B0001C49086032E000201A4908601A4800684B
:1061C000B0FA80F0C0F11F0101EB8100174A52F8CC
:1061D000200008B1012000E0002050B900BF50208D
:1061E00080F31188BFF34F8FBFF36F8F00BF00BFE5
:1061F000FEE701EB81020D4B03EB8200426852681F
:10620000426000F108024368934202D1426852683A
:1062100042604268D268064B1A6000BF70470000B7
:1062200070000020580000204C0000208C0B002043
:10623000340000201CB53849084600780190FF2042
:106240000A4610700846007800909DF8000000F0A3
:10625000F0009DF80020904201D1012000E00020D4
:1062600050B900BF502080F31188BFF34F8FBFF3A8
:106270006F8F00BF00BFFEE79DF8000000F05000E8
:10628000264A10700720264A106009E0244800685A
:10629000401E234A10609DF800004006000E00904A
:1062A0009DF8000000F080008028EFD01C480068B6
:1062B000C0F10700042801D1012000E0002050B9FE
:1062C00000BF502080F31188BFF34F8FBFF36F8F53
:1062D00000BF00BFFEE7124800680002104A1060CD
:1062E0001046008800F4E06010600B4A01981070BE
:1062F0000C48006840F470000A49086008460068CD
:1063000040F070400860FFF78FFE002006490860EB
:10631000F9F72EFF00201CBD00E400E098000020EB
:106320009C00002020ED00E09400002010B500BF8C
:10633000502080F31188BFF34F8FBFF36F8F00BFE2
:1063400000F0D0FA18B14FF080500449086000BF47
:10635000002080F3118800BF10BD000004ED00E0B4
:106360002DE9F041044601260027224600210120A4
:1063700000F007F805462846FFF79AFA2846BDE8D8
:10638000F0812DE9F84305460E4617460024E5B195
:10639000601EB0FBF5F0B04217D305FB06F010F11C
:1063A000510F12D805FB06F808F15000FFF78CFCDE
:1063B0000446B4B1A14609F150093B464A4631466C
:1063C00028460094FFF783FA0BE054B900BF502031
:1063D00080F31188BFF34F8FBFF36F8F00BF00BFF3
:1063E000FEE72046BDE8F8832DE9F04105460E465C
:1063F00001272C4654B900BF502080F31188BFF309
:106400004F8FBFF36F8F00BF00BFFEE7002C42D05D
:10641000E06B00283FD04FF0FF31E06BB1FBF0F0B4
:10642000216C884237D3FFF765FDD4E90F1220684D
:1064300001FB0200A0600020A06320686060E06BA8
:10644000401E226C216800FB0211E160FF2084F8ED
:10645000440084F845009EB9206908B9012000E095
:106460000020A8B904F1100000F098FB80B14FF0B3
:10647000805013490860BFF34F8FBFF36F8F07E061
:1064800004F11000FFF70CFD04F12400FFF708FDF4
:10649000FFF75AFD00E000270FB1012000E00020C7
:1064A00050B900BF502080F31188BFF34F8FBFF366
:1064B0006F8F00BF00BFFEE73846BDE8F0810000E7
:1064C00004ED00E02DE9FF4383B0064688461D46F3
:1064D0004FF00009344654B900BF502080F31188B2
:1064E000BFF34F8FBFF36F8F00BF00BFFEE7B8F160
:1064F000000F01D1206C08B9012000E0002050B944
:1065000000BF502080F31188BFF34F8FBFF36F8F10
:1065100000BF00BFFEE7022D02D1E06B012801D1D0
:10652000012000E0002050B900BF502080F3118806
:10653000BFF34F8FBFF36F8F00BF00BFFEE700F0C8
:10654000C1F908B9059808B9012000E0002050B948
:1065500000BF502080F31188BFF34F8FBFF36F8FC0
:1065600000BF00BFFEE700BFFFF7C4FCA06BE16BFC
:10657000884201D3022D28D12A4641462046FFF702
:10658000FCF80746606A08B9012000E0002068B9FD
:1065900004F1240000F002FB88B14FF08050324932
:1065A0000860BFF34F8FBFF36F8F08E03FB14FF02C
:1065B00080502D490860BFF34F8FBFF36F8FFFF7F7
:1065C000C3FC012007B0BDE8F083059818B9FFF7B8
:1065D000BBFC0020F6E7B9F1000F04D101A8FFF7DA
:1065E00065FD4FF00109FFF7AFFCFFF7D5FDFFF7A1
:1065F00081FC94F94400401C10B9002084F8440048
:1066000094F94500401C10B9002084F84500FFF7BC
:106610009BFC05A901A800F0DDF8F0B92046FFF7C2
:1066200050FAA0B104F110000599FFF751FD204682
:10663000FFF70AFB00F042FB002895D14FF0805095
:1066400009490860BFF34F8FBFF36F8F8CE7204677
:10665000FFF7FAFA00F032FB86E72046FFF7F4FA7C
:1066600000F02CFB0020ADE704ED00E02DE9F74140
:1066700083B005460E464FF000082C4654B900BFC3
:10668000502080F31188BFF34F8FBFF36F8F00BF8F
:1066900000BFFEE70EB9206C08B9012000E0002021
:1066A00050B900BF502080F31188BFF34F8FBFF364
:1066B0006F8F00BF00BFFEE700F004F908B905982E
:1066C00008B9012000E0002050B900BF502080F33D
:1066D0001188BFF34F8FBFF36F8F00BF00BFFEE77E
:1066E00000BFFFF707FCA76BF7B131462046FFF765
:1066F0002FF8781EA063206908B9012000E000206F
:1067000060B904F1100000F049FA38B14FF0805040
:106710002F490860BFF34F8FBFF36F8FFFF714FC53
:10672000012006B0BDE8F081059818B9FFF70CFC10
:106730000020F6E7B8F1000F04D101A8FFF7B6FC7E
:106740004FF00108FFF700FCFFF726FDFFF7D2FB33
:1067500094F94400401C10B9002084F8440094F9D6
:106760004500401C10B9002084F84500FFF7ECFB01
:1067700005A901A800F02EF8F0B92046FFF794F91A
:10678000A0B104F124000599FFF7A2FC2046FFF711
:106790005BFA00F093FA0028A3D14FF080500C4927
:1067A0000860BFF34F8FBFF36F8F9AE72046FFF764
:1067B0004BFA00F083FA94E72046FFF745FA00F021
:1067C0007DFA2046FFF770F900288AD00020A8E75C
:1067D00004ED00E070B505460C4655B900BF5020E9
:1067E00080F31188BFF34F8FBFF36F8F00BF00BFDF
:1067F000FEE754B900BF502080F31188BFF34F8FDC
:10680000BFF36F8F00BF00BFFEE7FFF773FB1348B6
:1068100002686868131A2068401C08B9002619E04D
:106820000F4928680968884206D06868904203D8F2
:106830000126002020600DE02068984207D92068DA
:10684000C01A20602846FFF731FC002602E0002035
:1068500020600126FFF778FB304670BD480000201D
:106860005C0000202DE9FF4F85B080468946174621
:10687000DDE912ABB800FFF727FA064656B15C20F7
:10688000FFF722FA04460CB1266304E03046FFF716
:1068900079FB00E000247CB10020CDE900ABCDE91C
:1068A00002403A4649464046089BFFF725F82046F5
:1068B000FEF7B4FE012501E04FF0FF35284609B090
:1068C000BDE8F08F0549096809B9012005E00449D0
:1068D000096809B9022000E000207047500000203C
:1068E000700000202DE9F0414FF000086448006876
:1068F00000287DD163480068451C6248056015BBCF
:1069000061480068006808B9012000E0002050B923
:1069100000BF502080F31188BFF34F8FBFF36F8FFC
:1069200000BF00BFFEE7584807685848006856494E
:1069300008605648076056480068401C5449086083
:10694000FFF732F900BF53480068854277D300BF94
:106950004D480068006808B9012000E0002020B11F
:106960004FF0FF304B49086068E047480068C06856
:10697000C4686668B54202D2464806605EE0606957
:10698000D4E902128A60D4E902214A60211D4268DA
:106990008A4201D1E1684160002262610168491EBA
:1069A0000160A06A98B1A06AD4E907128A60D4E9AC
:1069B00007214A6004F1180142688A4201D1216A24
:1069C00041600022A2620168491E016000BF94F884
:1069D0002C10012088403049096808432E4908607E
:1069E000E16A01EB81012D4A02EB8101486800E078
:1069F0003CE0A0608268E260211D82685160816095
:106A0000E16A01EB8101254A02EB81026261E16AE0
:106A100001EB8101214A52F82110491CE26A02EB84
:106A200082021E4B43F822101D49E06A0968C96AB8
:106A300088428DD34FF001088AE700E000BF184874
:106A40000068C06A00EB8000144951F8200001285A
:106A500001D94FF001081348006808B9FFF710FA90
:106A60001148006808B14FF0010806E00D480068C1
:106A7000401C0C490860FFF703FA4046BDE8F0816E
:106A80007000002048000020380000203C0000205A
:106A90005C000020640000204C0000208C0B0020D3
:106AA00034000020540000205800002070B5054636
:106AB0002C460026002D68D035480068844201D15C
:106AC000012000E0002050B900BF502080F3118861
:106AD000BFF34F8FBFF36F8F00BF00BFFEE7206D86
:106AE00050B900BF502080F31188BFF34F8FBFF320
:106AF0006F8F00BF00BFFEE7206D401E2065E16C78
:106B0000E06A884241D0206D00283ED1201DFFF769
:106B1000A3F940B994F82C10012088401D49096858
:106B200081431C480160E06CE062E06AC0F107004C
:106B3000A06194F82C100120884016490968084388
:106B400014490860E16A01EB8101134A02EB8101FB
:106B50004868A0608268E260211D8268516081609F
:106B6000E16A01EB81010C4A02EB81026261E16A98
:106B700001EB8101084A52F82110491CE26A02EB3C
:106B80008202054B43F822100126304670BD0000FA
:106B9000340000204C0000208C0B002070B5034610
:106BA000D868C16851B900BF502080F31188BFF385
:106BB0004F8FBFF36F8F00BF00BFFEE7886AD1E938
:106BC0000745A560D1E90754656001F118044568DF
:106BD000A54201D10C6A446000258D620468641EE0
:106BE00004603048006800283DD14869D1E9024579
:106BF000A560D1E9025465600C1D4568A54201D12C
:106C0000CC68446000254D610468641E046091F8FE
:106C10002C400120A040244C24682043224C2060BA
:106C2000CC6A04EB8404214D05EB84046068886021
:106C30008568CD600C1D85686C608460CC6A04EB4F
:106C400084041A4D05EB84054D61CC6A04EB840481
:106C5000164D55F82440641CCD6A05EB8505134E8E
:106C600046F8254010E0124C6068C86185680D62E6
:106C700001F1180485686C6084600D4D8D622C46AE
:106C80002468641C2C6000BF0A4CC86A2468E46A4B
:106C9000A04204D901220120074C206000E000221C
:106CA000104670BD700000204C0000208C0B0020AE
:106CB000400C0020340000205800002070B5002453
:106CC00000265348006850B900BF502080F3118857
:106CD000BFF34F8FBFF36F8F00BF00BFFEE7FFF71B
:106CE00009F94B480068401E494908600846006899
:106CF00000287DD147480068002879D05BE04648ED
:106D0000C068C468A06AD4E907128A60D4E9072180
:106D10004A6004F1180142688A4201D1216A416047
:106D20000022A2620168491E01606069D4E9021272
:106D30008A60D4E902214A60211D42688A4201D159
:106D4000E1684160002262610168491E016094F8B7
:106D50002C10012088403149096808432F490860F8
:106D6000E16A01EB81012E4A02EB81014868A060D3
:106D70008268E260211D826851608160E16A01EBF6
:106D80008101274A02EB81026261E16A01EB810124
:106D9000234A52F82110491CE26A02EB8202204B7E
:106DA00043F822101F49E06A0968C96A884202D381
:106DB00001201D4908601848006808B9012000E05A
:106DC000002000289BD00CB1FEF7EEFE17480568A6
:106DD00065B100BFFFF786FD10B1012012490860C0
:106DE0006D1E002DF6D10020104908600E4800E00D
:106DF00009E0006838B1012630070D490860BFF38B
:106E00004F8FBFF36F8FFFF79FF8304670BD0000C4
:106E10007000002044000020400C00204C000020A6
:106E20008C0B00203400002058000020540000206B
:106E300004ED00E000000000000000000102030477
:106E40000607080900000000010203044D65737382
:106E5000616765207072696E7465642066726F6D1B
:106E600020746865207469636B20686F6F6B20699C
:106E70006E74657272757074202323232323232379
:106E8000232323232323230D0A0000006672656554
:106E900072746F73207461736B3031206973207268
:106EA000756E6E696E672E2E2E0D0A006672656510
:106EB00072746F73207461736B3032206973207247
:106EC000756E6E696E672E2E2E0D0A00EC6E000830
:106ED00000000020A4000000E4480008906F0008B3
:106EE000A40000207C8B0000F44800080000000093
:106EF00000000000100000000100000000A24A0491
:106F0000A55A000000000000000000000000000082
:106F10008C6E0008AC6E00084C6E0008000000008B
:106F20000000000000000000000000000000000061
:106F30000000000000000000000000000000000051
:106F40000000000000000000000000000000000041
:106F5000000000000000000006000000000000002B
:106F60000000000000000000000000000000000021
:106F70000000000000000000000000000000000011
:106F8000AAAAAAAA00000000000000000000000059
:0400000508000131BD
:00000001FF
